{
	"gpt.sol": {
		"BettingContract": {
			"abi": [
				{
					"inputs": [],
					"stateMutability": "nonpayable",
					"type": "constructor"
				},
				{
					"anonymous": false,
					"inputs": [
						{
							"indexed": true,
							"internalType": "address",
							"name": "user",
							"type": "address"
						},
						{
							"indexed": false,
							"internalType": "uint256",
							"name": "amount",
							"type": "uint256"
						},
						{
							"indexed": false,
							"internalType": "uint8",
							"name": "team",
							"type": "uint8"
						}
					],
					"name": "BetPlaced",
					"type": "event"
				},
				{
					"anonymous": false,
					"inputs": [
						{
							"indexed": false,
							"internalType": "uint8",
							"name": "winningTeam",
							"type": "uint8"
						}
					],
					"name": "BetResolved",
					"type": "event"
				},
				{
					"anonymous": false,
					"inputs": [
						{
							"indexed": true,
							"internalType": "address",
							"name": "user",
							"type": "address"
						},
						{
							"indexed": false,
							"internalType": "uint256",
							"name": "amount",
							"type": "uint256"
						}
					],
					"name": "WinningsWithdrawn",
					"type": "event"
				},
				{
					"stateMutability": "payable",
					"type": "fallback"
				},
				{
					"inputs": [
						{
							"internalType": "address",
							"name": "",
							"type": "address"
						}
					],
					"name": "bets",
					"outputs": [
						{
							"internalType": "uint256",
							"name": "amount",
							"type": "uint256"
						},
						{
							"internalType": "uint8",
							"name": "team",
							"type": "uint8"
						}
					],
					"stateMutability": "view",
					"type": "function"
				},
				{
					"inputs": [],
					"name": "owner",
					"outputs": [
						{
							"internalType": "address",
							"name": "",
							"type": "address"
						}
					],
					"stateMutability": "view",
					"type": "function"
				},
				{
					"inputs": [
						{
							"internalType": "uint8",
							"name": "_team",
							"type": "uint8"
						}
					],
					"name": "placeBet",
					"outputs": [],
					"stateMutability": "payable",
					"type": "function"
				},
				{
					"inputs": [
						{
							"internalType": "uint8",
							"name": "_team",
							"type": "uint8"
						}
					],
					"name": "setWinningTeam",
					"outputs": [],
					"stateMutability": "nonpayable",
					"type": "function"
				},
				{
					"inputs": [],
					"name": "state",
					"outputs": [
						{
							"internalType": "enum BettingContract.BettingState",
							"name": "",
							"type": "uint8"
						}
					],
					"stateMutability": "view",
					"type": "function"
				},
				{
					"inputs": [],
					"name": "winningTeam",
					"outputs": [
						{
							"internalType": "uint8",
							"name": "",
							"type": "uint8"
						}
					],
					"stateMutability": "view",
					"type": "function"
				},
				{
					"inputs": [],
					"name": "withdrawWinnings",
					"outputs": [],
					"stateMutability": "nonpayable",
					"type": "function"
				},
				{
					"stateMutability": "payable",
					"type": "receive"
				}
			],
			"devdoc": {
				"kind": "dev",
				"methods": {},
				"version": 1
			},
			"evm": {
				"assembly": "    /* \"gpt.sol\":142:3081  contract BettingContract {... */\n  mstore(0x40, 0x80)\n    /* \"gpt.sol\":1110:1235  constructor() {... */\n  callvalue\n  dup1\n  iszero\n  tag_1\n  jumpi\n  revert(0x00, 0x00)\ntag_1:\n  pop\n    /* \"gpt.sol\":1143:1153  msg.sender */\n  caller\n    /* \"gpt.sol\":1135:1140  owner */\n  0x00\n  0x01\n    /* \"gpt.sol\":1135:1153  owner = msg.sender */\n  0x0100\n  exp\n  dup2\n  sload\n  dup2\n  0xffffffffffffffffffffffffffffffffffffffff\n  mul\n  not\n  and\n  swap1\n  dup4\n  0xffffffffffffffffffffffffffffffffffffffff\n  and\n  mul\n  or\n  swap1\n  sstore\n  pop\n    /* \"gpt.sol\":1172:1189  BettingState.Open */\n  0x00\n    /* \"gpt.sol\":1164:1169  state */\n  0x00\n  0x00\n    /* \"gpt.sol\":1164:1189  state = BettingState.Open */\n  0x0100\n  exp\n  dup2\n  sload\n  dup2\n  0xff\n  mul\n  not\n  and\n  swap1\n  dup4\n  0x02\n  dup2\n  gt\n  iszero\n  tag_4\n  jumpi\n  tag_5\n  tag_6\n  jump\t// in\ntag_5:\ntag_4:\n  mul\n  or\n  swap1\n  sstore\n  pop\n    /* \"gpt.sol\":142:3081  contract BettingContract {... */\n  jump(tag_7)\n    /* \"#utility.yul\":7:187   */\ntag_6:\n    /* \"#utility.yul\":55:132   */\n  0x4e487b7100000000000000000000000000000000000000000000000000000000\n    /* \"#utility.yul\":52:53   */\n  0x00\n    /* \"#utility.yul\":45:133   */\n  mstore\n    /* \"#utility.yul\":152:156   */\n  0x21\n    /* \"#utility.yul\":149:150   */\n  0x04\n    /* \"#utility.yul\":142:157   */\n  mstore\n    /* \"#utility.yul\":176:180   */\n  0x24\n    /* \"#utility.yul\":173:174   */\n  0x00\n    /* \"#utility.yul\":166:181   */\n  revert\n    /* \"gpt.sol\":142:3081  contract BettingContract {... */\ntag_7:\n  dataSize(sub_0)\n  dup1\n  dataOffset(sub_0)\n  0x00\n  codecopy\n  0x00\n  return\nstop\n\nsub_0: assembly {\n        /* \"gpt.sol\":142:3081  contract BettingContract {... */\n      mstore(0x40, 0x80)\n      jumpi(tag_1, lt(calldatasize, 0x04))\n      shr(0xe0, calldataload(0x00))\n      dup1\n      0x8da5cb5b\n      gt\n      tag_10\n      jumpi\n      dup1\n      0x8da5cb5b\n      eq\n      tag_6\n      jumpi\n      dup1\n      0xc19d93fb\n      eq\n      tag_7\n      jumpi\n      dup1\n      0xcc42e83a\n      eq\n      tag_8\n      jumpi\n      dup1\n      0xde3f18e2\n      eq\n      tag_9\n      jumpi\n      jump(tag_2)\n    tag_10:\n      dup1\n      0x43046844\n      eq\n      tag_3\n      jumpi\n      dup1\n      0x853840cd\n      eq\n      tag_4\n      jumpi\n      dup1\n      0x89a78f1a\n      eq\n      tag_5\n      jumpi\n      jump(tag_2)\n    tag_1:\n      jumpi(tag_2, calldatasize)\n        /* \"gpt.sol\":3018:3070  revert(\"Direct transfers not allowed, use placeBet\") */\n      mload(0x40)\n      0x08c379a000000000000000000000000000000000000000000000000000000000\n      dup2\n      mstore\n      0x04\n      add\n      tag_13\n      swap1\n      tag_14\n      jump\t// in\n    tag_13:\n      mload(0x40)\n      dup1\n      swap2\n      sub\n      swap1\n      revert\n        /* \"gpt.sol\":142:3081  contract BettingContract {... */\n    tag_2:\n        /* \"gpt.sol\":2919:2960  revert(\"Please use placeBet to send ETH\") */\n      mload(0x40)\n      0x08c379a000000000000000000000000000000000000000000000000000000000\n      dup2\n      mstore\n      0x04\n      add\n      tag_17\n      swap1\n      tag_18\n      jump\t// in\n    tag_17:\n      mload(0x40)\n      dup1\n      swap2\n      sub\n      swap1\n      revert\n        /* \"gpt.sol\":1275:1731  function placeBet(uint8 _team) external payable {... */\n    tag_3:\n      tag_19\n      0x04\n      dup1\n      calldatasize\n      sub\n      dup2\n      add\n      swap1\n      tag_20\n      swap2\n      swap1\n      tag_21\n      jump\t// in\n    tag_20:\n      tag_22\n      jump\t// in\n    tag_19:\n      stop\n        /* \"gpt.sol\":1814:2149  function setWinningTeam(uint8 _team) external onlyOwner {... */\n    tag_4:\n      callvalue\n      dup1\n      iszero\n      tag_23\n      jumpi\n      revert(0x00, 0x00)\n    tag_23:\n      pop\n      tag_24\n      0x04\n      dup1\n      calldatasize\n      sub\n      dup2\n      add\n      swap1\n      tag_25\n      swap2\n      swap1\n      tag_21\n      jump\t// in\n    tag_25:\n      tag_26\n      jump\t// in\n    tag_24:\n      stop\n        /* \"gpt.sol\":587:622  mapping(address => Bet) public bets */\n    tag_5:\n      callvalue\n      dup1\n      iszero\n      tag_27\n      jumpi\n      revert(0x00, 0x00)\n    tag_27:\n      pop\n      tag_28\n      0x04\n      dup1\n      calldatasize\n      sub\n      dup2\n      add\n      swap1\n      tag_29\n      swap2\n      swap1\n      tag_30\n      jump\t// in\n    tag_29:\n      tag_31\n      jump\t// in\n    tag_28:\n      mload(0x40)\n      tag_32\n      swap3\n      swap2\n      swap1\n      tag_33\n      jump\t// in\n    tag_32:\n      mload(0x40)\n      dup1\n      swap2\n      sub\n      swap1\n      return\n        /* \"gpt.sol\":333:353  address public owner */\n    tag_6:\n      callvalue\n      dup1\n      iszero\n      tag_34\n      jumpi\n      revert(0x00, 0x00)\n    tag_34:\n      pop\n      tag_35\n      tag_36\n      jump\t// in\n    tag_35:\n      mload(0x40)\n      tag_37\n      swap2\n      swap1\n      tag_38\n      jump\t// in\n    tag_37:\n      mload(0x40)\n      dup1\n      swap2\n      sub\n      swap1\n      return\n        /* \"gpt.sol\":265:290  BettingState public state */\n    tag_7:\n      callvalue\n      dup1\n      iszero\n      tag_39\n      jumpi\n      revert(0x00, 0x00)\n    tag_39:\n      pop\n      tag_40\n      tag_41\n      jump\t// in\n    tag_40:\n      mload(0x40)\n      tag_42\n      swap2\n      swap1\n      tag_43\n      jump\t// in\n    tag_42:\n      mload(0x40)\n      dup1\n      swap2\n      sub\n      swap1\n      return\n        /* \"gpt.sol\":2199:2807  function withdrawWinnings() external {... */\n    tag_8:\n      callvalue\n      dup1\n      iszero\n      tag_44\n      jumpi\n      revert(0x00, 0x00)\n    tag_44:\n      pop\n      tag_45\n      tag_46\n      jump\t// in\n    tag_45:\n      stop\n        /* \"gpt.sol\":397:421  uint8 public winningTeam */\n    tag_9:\n      callvalue\n      dup1\n      iszero\n      tag_47\n      jumpi\n      revert(0x00, 0x00)\n    tag_47:\n      pop\n      tag_48\n      tag_49\n      jump\t// in\n    tag_48:\n      mload(0x40)\n      tag_50\n      swap2\n      swap1\n      tag_51\n      jump\t// in\n    tag_50:\n      mload(0x40)\n      dup1\n      swap2\n      sub\n      swap1\n      return\n        /* \"gpt.sol\":1275:1731  function placeBet(uint8 _team) external payable {... */\n    tag_22:\n        /* \"gpt.sol\":1351:1368  BettingState.Open */\n      0x00\n        /* \"gpt.sol\":1342:1368  state == BettingState.Open */\n      0x02\n      dup2\n      gt\n      iszero\n      tag_53\n      jumpi\n      tag_54\n      tag_55\n      jump\t// in\n    tag_54:\n    tag_53:\n        /* \"gpt.sol\":1342:1347  state */\n      0x00\n      0x00\n      swap1\n      sload\n      swap1\n      0x0100\n      exp\n      swap1\n      div\n      0xff\n      and\n        /* \"gpt.sol\":1342:1368  state == BettingState.Open */\n      0x02\n      dup2\n      gt\n      iszero\n      tag_56\n      jumpi\n      tag_57\n      tag_55\n      jump\t// in\n    tag_57:\n    tag_56:\n      eq\n        /* \"gpt.sol\":1334:1400  require(state == BettingState.Open, \"Betting is currently closed\") */\n      tag_58\n      jumpi\n      mload(0x40)\n      0x08c379a000000000000000000000000000000000000000000000000000000000\n      dup2\n      mstore\n      0x04\n      add\n      tag_59\n      swap1\n      tag_60\n      jump\t// in\n    tag_59:\n      mload(0x40)\n      dup1\n      swap2\n      sub\n      swap1\n      revert\n    tag_58:\n        /* \"gpt.sol\":1431:1432  0 */\n      0x00\n        /* \"gpt.sol\":1419:1428  msg.value */\n      callvalue\n        /* \"gpt.sol\":1419:1432  msg.value > 0 */\n      gt\n        /* \"gpt.sol\":1411:1474  require(msg.value > 0, \"Betting amount must be greater than 0\") */\n      tag_61\n      jumpi\n      mload(0x40)\n      0x08c379a000000000000000000000000000000000000000000000000000000000\n      dup2\n      mstore\n      0x04\n      add\n      tag_62\n      swap1\n      tag_63\n      jump\t// in\n    tag_62:\n      mload(0x40)\n      dup1\n      swap2\n      sub\n      swap1\n      revert\n    tag_61:\n        /* \"gpt.sol\":1502:1503  0 */\n      0x00\n        /* \"gpt.sol\":1493:1498  _team */\n      dup2\n        /* \"gpt.sol\":1493:1503  _team == 0 */\n      0xff\n      and\n      eq\n        /* \"gpt.sol\":1493:1517  _team == 0 || _team == 1 */\n      dup1\n      tag_64\n      jumpi\n      pop\n        /* \"gpt.sol\":1516:1517  1 */\n      0x01\n        /* \"gpt.sol\":1507:1512  _team */\n      dup2\n        /* \"gpt.sol\":1507:1517  _team == 1 */\n      0xff\n      and\n      eq\n        /* \"gpt.sol\":1493:1517  _team == 0 || _team == 1 */\n    tag_64:\n        /* \"gpt.sol\":1485:1544  require(_team == 0 || _team == 1, \"Invalid team selection\") */\n      tag_65\n      jumpi\n      mload(0x40)\n      0x08c379a000000000000000000000000000000000000000000000000000000000\n      dup2\n      mstore\n      0x04\n      add\n      tag_66\n      swap1\n      tag_67\n      jump\t// in\n    tag_66:\n      mload(0x40)\n      dup1\n      swap2\n      sub\n      swap1\n      revert\n    tag_65:\n        /* \"gpt.sol\":1584:1658  Bet({... */\n      mload(0x40)\n      dup1\n      0x40\n      add\n      0x40\n      mstore\n      dup1\n        /* \"gpt.sol\":1611:1620  msg.value */\n      callvalue\n        /* \"gpt.sol\":1584:1658  Bet({... */\n      dup2\n      mstore\n      0x20\n      add\n        /* \"gpt.sol\":1641:1646  _team */\n      dup3\n        /* \"gpt.sol\":1584:1658  Bet({... */\n      0xff\n      and\n      dup2\n      mstore\n      pop\n        /* \"gpt.sol\":1565:1569  bets */\n      0x01\n        /* \"gpt.sol\":1565:1581  bets[msg.sender] */\n      0x00\n        /* \"gpt.sol\":1570:1580  msg.sender */\n      caller\n        /* \"gpt.sol\":1565:1581  bets[msg.sender] */\n      0xffffffffffffffffffffffffffffffffffffffff\n      and\n      0xffffffffffffffffffffffffffffffffffffffff\n      and\n      dup2\n      mstore\n      0x20\n      add\n      swap1\n      dup2\n      mstore\n      0x20\n      add\n      0x00\n      keccak256\n        /* \"gpt.sol\":1565:1658  bets[msg.sender] = Bet({... */\n      0x00\n      dup3\n      add\n      mload\n      dup2\n      0x00\n      add\n      sstore\n      0x20\n      dup3\n      add\n      mload\n      dup2\n      0x01\n      add\n      exp(0x0100, 0x00)\n      dup2\n      sload\n      dup2\n      0xff\n      mul\n      not\n      and\n      swap1\n      dup4\n      0xff\n      and\n      mul\n      or\n      swap1\n      sstore\n      pop\n      swap1\n      pop\n      pop\n        /* \"gpt.sol\":1694:1704  msg.sender */\n      caller\n        /* \"gpt.sol\":1684:1723  BetPlaced(msg.sender, msg.value, _team) */\n      0xffffffffffffffffffffffffffffffffffffffff\n      and\n      0x7df19a783369d9cefb06e18b396518f817b48766b74157758eda633a62f58fa7\n        /* \"gpt.sol\":1706:1715  msg.value */\n      callvalue\n        /* \"gpt.sol\":1717:1722  _team */\n      dup4\n        /* \"gpt.sol\":1684:1723  BetPlaced(msg.sender, msg.value, _team) */\n      mload(0x40)\n      tag_68\n      swap3\n      swap2\n      swap1\n      tag_33\n      jump\t// in\n    tag_68:\n      mload(0x40)\n      dup1\n      swap2\n      sub\n      swap1\n      log2\n        /* \"gpt.sol\":1275:1731  function placeBet(uint8 _team) external payable {... */\n      pop\n      jump\t// out\n        /* \"gpt.sol\":1814:2149  function setWinningTeam(uint8 _team) external onlyOwner {... */\n    tag_26:\n        /* \"gpt.sol\":966:971  owner */\n      0x00\n      0x01\n      swap1\n      sload\n      swap1\n      0x0100\n      exp\n      swap1\n      div\n      0xffffffffffffffffffffffffffffffffffffffff\n      and\n        /* \"gpt.sol\":952:971  msg.sender == owner */\n      0xffffffffffffffffffffffffffffffffffffffff\n      and\n        /* \"gpt.sol\":952:962  msg.sender */\n      caller\n        /* \"gpt.sol\":952:971  msg.sender == owner */\n      0xffffffffffffffffffffffffffffffffffffffff\n      and\n      eq\n        /* \"gpt.sol\":944:1023  require(msg.sender == owner, \"Only the contract owner can perform this action\") */\n      tag_70\n      jumpi\n      mload(0x40)\n      0x08c379a000000000000000000000000000000000000000000000000000000000\n      dup2\n      mstore\n      0x04\n      add\n      tag_71\n      swap1\n      tag_72\n      jump\t// in\n    tag_71:\n      mload(0x40)\n      dup1\n      swap2\n      sub\n      swap1\n      revert\n    tag_70:\n        /* \"gpt.sol\":1898:1915  BettingState.Open */\n      0x00\n        /* \"gpt.sol\":1889:1915  state == BettingState.Open */\n      0x02\n      dup2\n      gt\n      iszero\n      tag_74\n      jumpi\n      tag_75\n      tag_55\n      jump\t// in\n    tag_75:\n    tag_74:\n        /* \"gpt.sol\":1889:1894  state */\n      0x00\n      0x00\n      swap1\n      sload\n      swap1\n      0x0100\n      exp\n      swap1\n      div\n      0xff\n      and\n        /* \"gpt.sol\":1889:1915  state == BettingState.Open */\n      0x02\n      dup2\n      gt\n      iszero\n      tag_76\n      jumpi\n      tag_77\n      tag_55\n      jump\t// in\n    tag_77:\n    tag_76:\n      eq\n        /* \"gpt.sol\":1881:1957  require(state == BettingState.Open, \"Betting is already closed or resolved\") */\n      tag_78\n      jumpi\n      mload(0x40)\n      0x08c379a000000000000000000000000000000000000000000000000000000000\n      dup2\n      mstore\n      0x04\n      add\n      tag_79\n      swap1\n      tag_80\n      jump\t// in\n    tag_79:\n      mload(0x40)\n      dup1\n      swap2\n      sub\n      swap1\n      revert\n    tag_78:\n        /* \"gpt.sol\":1985:1986  0 */\n      0x00\n        /* \"gpt.sol\":1976:1981  _team */\n      dup2\n        /* \"gpt.sol\":1976:1986  _team == 0 */\n      0xff\n      and\n      eq\n        /* \"gpt.sol\":1976:2000  _team == 0 || _team == 1 */\n      dup1\n      tag_81\n      jumpi\n      pop\n        /* \"gpt.sol\":1999:2000  1 */\n      0x01\n        /* \"gpt.sol\":1990:1995  _team */\n      dup2\n        /* \"gpt.sol\":1990:2000  _team == 1 */\n      0xff\n      and\n      eq\n        /* \"gpt.sol\":1976:2000  _team == 0 || _team == 1 */\n    tag_81:\n        /* \"gpt.sol\":1968:2017  require(_team == 0 || _team == 1, \"Invalid team\") */\n      tag_82\n      jumpi\n      mload(0x40)\n      0x08c379a000000000000000000000000000000000000000000000000000000000\n      dup2\n      mstore\n      0x04\n      add\n      tag_83\n      swap1\n      tag_84\n      jump\t// in\n    tag_83:\n      mload(0x40)\n      dup1\n      swap2\n      sub\n      swap1\n      revert\n    tag_82:\n        /* \"gpt.sol\":2052:2057  _team */\n      dup1\n        /* \"gpt.sol\":2038:2049  winningTeam */\n      0x00\n      0x15\n        /* \"gpt.sol\":2038:2057  winningTeam = _team */\n      0x0100\n      exp\n      dup2\n      sload\n      dup2\n      0xff\n      mul\n      not\n      and\n      swap1\n      dup4\n      0xff\n      and\n      mul\n      or\n      swap1\n      sstore\n      pop\n        /* \"gpt.sol\":2076:2097  BettingState.Resolved */\n      0x02\n        /* \"gpt.sol\":2068:2073  state */\n      0x00\n      0x00\n        /* \"gpt.sol\":2068:2097  state = BettingState.Resolved */\n      0x0100\n      exp\n      dup2\n      sload\n      dup2\n      0xff\n      mul\n      not\n      and\n      swap1\n      dup4\n      0x02\n      dup2\n      gt\n      iszero\n      tag_85\n      jumpi\n      tag_86\n      tag_55\n      jump\t// in\n    tag_86:\n    tag_85:\n      mul\n      or\n      swap1\n      sstore\n      pop\n        /* \"gpt.sol\":2123:2141  BetResolved(_team) */\n      0xd6bcd4b6873d691163f1aff2d5585378623aef08e17513a5253eabe39c65dc50\n        /* \"gpt.sol\":2135:2140  _team */\n      dup2\n        /* \"gpt.sol\":2123:2141  BetResolved(_team) */\n      mload(0x40)\n      tag_87\n      swap2\n      swap1\n      tag_51\n      jump\t// in\n    tag_87:\n      mload(0x40)\n      dup1\n      swap2\n      sub\n      swap1\n      log1\n        /* \"gpt.sol\":1814:2149  function setWinningTeam(uint8 _team) external onlyOwner {... */\n      pop\n      jump\t// out\n        /* \"gpt.sol\":587:622  mapping(address => Bet) public bets */\n    tag_31:\n      mstore(0x20, 0x01)\n      dup1\n      0x00\n      mstore\n      keccak256(0x00, 0x40)\n      0x00\n      swap2\n      pop\n      swap1\n      pop\n      dup1\n      0x00\n      add\n      sload\n      swap1\n      dup1\n      0x01\n      add\n      0x00\n      swap1\n      sload\n      swap1\n      0x0100\n      exp\n      swap1\n      div\n      0xff\n      and\n      swap1\n      pop\n      dup3\n      jump\t// out\n        /* \"gpt.sol\":333:353  address public owner */\n    tag_36:\n      0x00\n      0x01\n      swap1\n      sload\n      swap1\n      0x0100\n      exp\n      swap1\n      div\n      0xffffffffffffffffffffffffffffffffffffffff\n      and\n      dup2\n      jump\t// out\n        /* \"gpt.sol\":265:290  BettingState public state */\n    tag_41:\n      0x00\n      0x00\n      swap1\n      sload\n      swap1\n      0x0100\n      exp\n      swap1\n      div\n      0xff\n      and\n      dup2\n      jump\t// out\n        /* \"gpt.sol\":2199:2807  function withdrawWinnings() external {... */\n    tag_46:\n        /* \"gpt.sol\":2264:2285  BettingState.Resolved */\n      0x02\n        /* \"gpt.sol\":2255:2285  state == BettingState.Resolved */\n      dup1\n      dup2\n      gt\n      iszero\n      tag_89\n      jumpi\n      tag_90\n      tag_55\n      jump\t// in\n    tag_90:\n    tag_89:\n        /* \"gpt.sol\":2255:2260  state */\n      0x00\n      0x00\n      swap1\n      sload\n      swap1\n      0x0100\n      exp\n      swap1\n      div\n      0xff\n      and\n        /* \"gpt.sol\":2255:2285  state == BettingState.Resolved */\n      0x02\n      dup2\n      gt\n      iszero\n      tag_91\n      jumpi\n      tag_92\n      tag_55\n      jump\t// in\n    tag_92:\n    tag_91:\n      eq\n        /* \"gpt.sol\":2247:2323  require(state == BettingState.Resolved, \"Betting has not been resolved yet\") */\n      tag_93\n      jumpi\n      mload(0x40)\n      0x08c379a000000000000000000000000000000000000000000000000000000000\n      dup2\n      mstore\n      0x04\n      add\n      tag_94\n      swap1\n      tag_95\n      jump\t// in\n    tag_94:\n      mload(0x40)\n      dup1\n      swap2\n      sub\n      swap1\n      revert\n    tag_93:\n        /* \"gpt.sol\":2344:2363  Bet storage userBet */\n      0x00\n        /* \"gpt.sol\":2366:2370  bets */\n      0x01\n        /* \"gpt.sol\":2366:2382  bets[msg.sender] */\n      0x00\n        /* \"gpt.sol\":2371:2381  msg.sender */\n      caller\n        /* \"gpt.sol\":2366:2382  bets[msg.sender] */\n      0xffffffffffffffffffffffffffffffffffffffff\n      and\n      0xffffffffffffffffffffffffffffffffffffffff\n      and\n      dup2\n      mstore\n      0x20\n      add\n      swap1\n      dup2\n      mstore\n      0x20\n      add\n      0x00\n      keccak256\n        /* \"gpt.sol\":2344:2382  Bet storage userBet = bets[msg.sender] */\n      swap1\n      pop\n        /* \"gpt.sol\":2418:2419  0 */\n      0x00\n        /* \"gpt.sol\":2401:2408  userBet */\n      dup2\n        /* \"gpt.sol\":2401:2415  userBet.amount */\n      0x00\n      add\n      sload\n        /* \"gpt.sol\":2401:2419  userBet.amount > 0 */\n      gt\n        /* \"gpt.sol\":2393:2449  require(userBet.amount > 0, \"You did not place any bet\") */\n      tag_96\n      jumpi\n      mload(0x40)\n      0x08c379a000000000000000000000000000000000000000000000000000000000\n      dup2\n      mstore\n      0x04\n      add\n      tag_97\n      swap1\n      tag_98\n      jump\t// in\n    tag_97:\n      mload(0x40)\n      dup1\n      swap2\n      sub\n      swap1\n      revert\n    tag_96:\n        /* \"gpt.sol\":2484:2495  winningTeam */\n      0x00\n      0x15\n      swap1\n      sload\n      swap1\n      0x0100\n      exp\n      swap1\n      div\n      0xff\n      and\n        /* \"gpt.sol\":2468:2495  userBet.team == winningTeam */\n      0xff\n      and\n        /* \"gpt.sol\":2468:2475  userBet */\n      dup2\n        /* \"gpt.sol\":2468:2480  userBet.team */\n      0x01\n      add\n      0x00\n      swap1\n      sload\n      swap1\n      0x0100\n      exp\n      swap1\n      div\n      0xff\n      and\n        /* \"gpt.sol\":2468:2495  userBet.team == winningTeam */\n      0xff\n      and\n      eq\n        /* \"gpt.sol\":2460:2535  require(userBet.team == winningTeam, \"You did not bet on the winning team\") */\n      tag_99\n      jumpi\n      mload(0x40)\n      0x08c379a000000000000000000000000000000000000000000000000000000000\n      dup2\n      mstore\n      0x04\n      add\n      tag_100\n      swap1\n      tag_101\n      jump\t// in\n    tag_100:\n      mload(0x40)\n      dup1\n      swap2\n      sub\n      swap1\n      revert\n    tag_99:\n        /* \"gpt.sol\":2556:2569  uint winnings */\n      0x00\n        /* \"gpt.sol\":2589:2590  3 */\n      0x03\n        /* \"gpt.sol\":2572:2579  userBet */\n      dup3\n        /* \"gpt.sol\":2572:2586  userBet.amount */\n      0x00\n      add\n      sload\n        /* \"gpt.sol\":2572:2590  userBet.amount * 3 */\n      tag_102\n      swap2\n      swap1\n      tag_103\n      jump\t// in\n    tag_102:\n        /* \"gpt.sol\":2556:2590  uint winnings = userBet.amount * 3 */\n      swap1\n      pop\n        /* \"gpt.sol\":2643:2644  0 */\n      0x00\n        /* \"gpt.sol\":2626:2633  userBet */\n      dup3\n        /* \"gpt.sol\":2626:2640  userBet.amount */\n      0x00\n      add\n        /* \"gpt.sol\":2626:2644  userBet.amount = 0 */\n      dup2\n      swap1\n      sstore\n      pop\n        /* \"gpt.sol\":2704:2714  msg.sender */\n      caller\n        /* \"gpt.sol\":2696:2724  payable(msg.sender).transfer */\n      0xffffffffffffffffffffffffffffffffffffffff\n      and\n        /* \"gpt.sol\":2696:2734  payable(msg.sender).transfer(winnings) */\n      0x08fc\n        /* \"gpt.sol\":2725:2733  winnings */\n      dup3\n        /* \"gpt.sol\":2696:2734  payable(msg.sender).transfer(winnings) */\n      swap1\n      dup2\n      iszero\n      mul\n      swap1\n      mload(0x40)\n      0x00\n      mload(0x40)\n      dup1\n      dup4\n      sub\n      dup2\n      dup6\n      dup9\n      dup9\n      call\n      swap4\n      pop\n      pop\n      pop\n      pop\n      iszero\n      dup1\n      iszero\n      tag_105\n      jumpi\n      returndatacopy(0x00, 0x00, returndatasize)\n      revert(0x00, returndatasize)\n    tag_105:\n      pop\n        /* \"gpt.sol\":2778:2788  msg.sender */\n      caller\n        /* \"gpt.sol\":2760:2799  WinningsWithdrawn(msg.sender, winnings) */\n      0xffffffffffffffffffffffffffffffffffffffff\n      and\n      0x24215bbaf0832fa4d6ffef16dee3971d8b714921fef3ad63f793d578983c6dc2\n        /* \"gpt.sol\":2790:2798  winnings */\n      dup3\n        /* \"gpt.sol\":2760:2799  WinningsWithdrawn(msg.sender, winnings) */\n      mload(0x40)\n      tag_106\n      swap2\n      swap1\n      tag_107\n      jump\t// in\n    tag_106:\n      mload(0x40)\n      dup1\n      swap2\n      sub\n      swap1\n      log2\n        /* \"gpt.sol\":2236:2807  {... */\n      pop\n      pop\n        /* \"gpt.sol\":2199:2807  function withdrawWinnings() external {... */\n      jump\t// out\n        /* \"gpt.sol\":397:421  uint8 public winningTeam */\n    tag_49:\n      0x00\n      0x15\n      swap1\n      sload\n      swap1\n      0x0100\n      exp\n      swap1\n      div\n      0xff\n      and\n      dup2\n      jump\t// out\n        /* \"#utility.yul\":7:176   */\n    tag_108:\n        /* \"#utility.yul\":91:102   */\n      0x00\n        /* \"#utility.yul\":125:131   */\n      dup3\n        /* \"#utility.yul\":120:123   */\n      dup3\n        /* \"#utility.yul\":113:132   */\n      mstore\n        /* \"#utility.yul\":165:169   */\n      0x20\n        /* \"#utility.yul\":160:163   */\n      dup3\n        /* \"#utility.yul\":156:170   */\n      add\n        /* \"#utility.yul\":141:170   */\n      swap1\n      pop\n        /* \"#utility.yul\":7:176   */\n      swap3\n      swap2\n      pop\n      pop\n      jump\t// out\n        /* \"#utility.yul\":182:411   */\n    tag_109:\n        /* \"#utility.yul\":322:356   */\n      0x446972656374207472616e7366657273206e6f7420616c6c6f7765642c207573\n        /* \"#utility.yul\":318:319   */\n      0x00\n        /* \"#utility.yul\":310:316   */\n      dup3\n        /* \"#utility.yul\":306:320   */\n      add\n        /* \"#utility.yul\":299:357   */\n      mstore\n        /* \"#utility.yul\":391:403   */\n      0x6520706c61636542657400000000000000000000000000000000000000000000\n        /* \"#utility.yul\":386:388   */\n      0x20\n        /* \"#utility.yul\":378:384   */\n      dup3\n        /* \"#utility.yul\":374:389   */\n      add\n        /* \"#utility.yul\":367:404   */\n      mstore\n        /* \"#utility.yul\":182:411   */\n      pop\n      jump\t// out\n        /* \"#utility.yul\":417:783   */\n    tag_110:\n        /* \"#utility.yul\":559:562   */\n      0x00\n        /* \"#utility.yul\":580:647   */\n      tag_154\n        /* \"#utility.yul\":644:646   */\n      0x2a\n        /* \"#utility.yul\":639:642   */\n      dup4\n        /* \"#utility.yul\":580:647   */\n      tag_108\n      jump\t// in\n    tag_154:\n        /* \"#utility.yul\":573:647   */\n      swap2\n      pop\n        /* \"#utility.yul\":656:749   */\n      tag_155\n        /* \"#utility.yul\":745:748   */\n      dup3\n        /* \"#utility.yul\":656:749   */\n      tag_109\n      jump\t// in\n    tag_155:\n        /* \"#utility.yul\":774:776   */\n      0x40\n        /* \"#utility.yul\":769:772   */\n      dup3\n        /* \"#utility.yul\":765:777   */\n      add\n        /* \"#utility.yul\":758:777   */\n      swap1\n      pop\n        /* \"#utility.yul\":417:783   */\n      swap2\n      swap1\n      pop\n      jump\t// out\n        /* \"#utility.yul\":789:1208   */\n    tag_14:\n        /* \"#utility.yul\":955:959   */\n      0x00\n        /* \"#utility.yul\":993:995   */\n      0x20\n        /* \"#utility.yul\":982:991   */\n      dup3\n        /* \"#utility.yul\":978:996   */\n      add\n        /* \"#utility.yul\":970:996   */\n      swap1\n      pop\n        /* \"#utility.yul\":1042:1051   */\n      dup2\n        /* \"#utility.yul\":1036:1040   */\n      dup2\n        /* \"#utility.yul\":1032:1052   */\n      sub\n        /* \"#utility.yul\":1028:1029   */\n      0x00\n        /* \"#utility.yul\":1017:1026   */\n      dup4\n        /* \"#utility.yul\":1013:1030   */\n      add\n        /* \"#utility.yul\":1006:1053   */\n      mstore\n        /* \"#utility.yul\":1070:1201   */\n      tag_157\n        /* \"#utility.yul\":1196:1200   */\n      dup2\n        /* \"#utility.yul\":1070:1201   */\n      tag_110\n      jump\t// in\n    tag_157:\n        /* \"#utility.yul\":1062:1201   */\n      swap1\n      pop\n        /* \"#utility.yul\":789:1208   */\n      swap2\n      swap1\n      pop\n      jump\t// out\n        /* \"#utility.yul\":1214:1395   */\n    tag_111:\n        /* \"#utility.yul\":1354:1387   */\n      0x506c656173652075736520706c61636542657420746f2073656e642045544800\n        /* \"#utility.yul\":1350:1351   */\n      0x00\n        /* \"#utility.yul\":1342:1348   */\n      dup3\n        /* \"#utility.yul\":1338:1352   */\n      add\n        /* \"#utility.yul\":1331:1388   */\n      mstore\n        /* \"#utility.yul\":1214:1395   */\n      pop\n      jump\t// out\n        /* \"#utility.yul\":1401:1767   */\n    tag_112:\n        /* \"#utility.yul\":1543:1546   */\n      0x00\n        /* \"#utility.yul\":1564:1631   */\n      tag_160\n        /* \"#utility.yul\":1628:1630   */\n      0x1f\n        /* \"#utility.yul\":1623:1626   */\n      dup4\n        /* \"#utility.yul\":1564:1631   */\n      tag_108\n      jump\t// in\n    tag_160:\n        /* \"#utility.yul\":1557:1631   */\n      swap2\n      pop\n        /* \"#utility.yul\":1640:1733   */\n      tag_161\n        /* \"#utility.yul\":1729:1732   */\n      dup3\n        /* \"#utility.yul\":1640:1733   */\n      tag_111\n      jump\t// in\n    tag_161:\n        /* \"#utility.yul\":1758:1760   */\n      0x20\n        /* \"#utility.yul\":1753:1756   */\n      dup3\n        /* \"#utility.yul\":1749:1761   */\n      add\n        /* \"#utility.yul\":1742:1761   */\n      swap1\n      pop\n        /* \"#utility.yul\":1401:1767   */\n      swap2\n      swap1\n      pop\n      jump\t// out\n        /* \"#utility.yul\":1773:2192   */\n    tag_18:\n        /* \"#utility.yul\":1939:1943   */\n      0x00\n        /* \"#utility.yul\":1977:1979   */\n      0x20\n        /* \"#utility.yul\":1966:1975   */\n      dup3\n        /* \"#utility.yul\":1962:1980   */\n      add\n        /* \"#utility.yul\":1954:1980   */\n      swap1\n      pop\n        /* \"#utility.yul\":2026:2035   */\n      dup2\n        /* \"#utility.yul\":2020:2024   */\n      dup2\n        /* \"#utility.yul\":2016:2036   */\n      sub\n        /* \"#utility.yul\":2012:2013   */\n      0x00\n        /* \"#utility.yul\":2001:2010   */\n      dup4\n        /* \"#utility.yul\":1997:2014   */\n      add\n        /* \"#utility.yul\":1990:2037   */\n      mstore\n        /* \"#utility.yul\":2054:2185   */\n      tag_163\n        /* \"#utility.yul\":2180:2184   */\n      dup2\n        /* \"#utility.yul\":2054:2185   */\n      tag_112\n      jump\t// in\n    tag_163:\n        /* \"#utility.yul\":2046:2185   */\n      swap1\n      pop\n        /* \"#utility.yul\":1773:2192   */\n      swap2\n      swap1\n      pop\n      jump\t// out\n        /* \"#utility.yul\":2279:2396   */\n    tag_114:\n        /* \"#utility.yul\":2388:2389   */\n      0x00\n        /* \"#utility.yul\":2385:2386   */\n      0x00\n        /* \"#utility.yul\":2378:2390   */\n      revert\n        /* \"#utility.yul\":2525:2611   */\n    tag_116:\n        /* \"#utility.yul\":2560:2567   */\n      0x00\n        /* \"#utility.yul\":2600:2604   */\n      0xff\n        /* \"#utility.yul\":2593:2598   */\n      dup3\n        /* \"#utility.yul\":2589:2605   */\n      and\n        /* \"#utility.yul\":2578:2605   */\n      swap1\n      pop\n        /* \"#utility.yul\":2525:2611   */\n      swap2\n      swap1\n      pop\n      jump\t// out\n        /* \"#utility.yul\":2617:2735   */\n    tag_117:\n        /* \"#utility.yul\":2688:2710   */\n      tag_169\n        /* \"#utility.yul\":2704:2709   */\n      dup2\n        /* \"#utility.yul\":2688:2710   */\n      tag_116\n      jump\t// in\n    tag_169:\n        /* \"#utility.yul\":2681:2686   */\n      dup2\n        /* \"#utility.yul\":2678:2711   */\n      eq\n        /* \"#utility.yul\":2668:2729   */\n      tag_170\n      jumpi\n        /* \"#utility.yul\":2725:2726   */\n      0x00\n        /* \"#utility.yul\":2722:2723   */\n      0x00\n        /* \"#utility.yul\":2715:2727   */\n      revert\n        /* \"#utility.yul\":2668:2729   */\n    tag_170:\n        /* \"#utility.yul\":2617:2735   */\n      pop\n      jump\t// out\n        /* \"#utility.yul\":2741:2876   */\n    tag_118:\n        /* \"#utility.yul\":2785:2790   */\n      0x00\n        /* \"#utility.yul\":2823:2829   */\n      dup2\n        /* \"#utility.yul\":2810:2830   */\n      calldataload\n        /* \"#utility.yul\":2801:2830   */\n      swap1\n      pop\n        /* \"#utility.yul\":2839:2870   */\n      tag_172\n        /* \"#utility.yul\":2864:2869   */\n      dup2\n        /* \"#utility.yul\":2839:2870   */\n      tag_117\n      jump\t// in\n    tag_172:\n        /* \"#utility.yul\":2741:2876   */\n      swap3\n      swap2\n      pop\n      pop\n      jump\t// out\n        /* \"#utility.yul\":2882:3207   */\n    tag_21:\n        /* \"#utility.yul\":2939:2945   */\n      0x00\n        /* \"#utility.yul\":2988:2990   */\n      0x20\n        /* \"#utility.yul\":2976:2985   */\n      dup3\n        /* \"#utility.yul\":2967:2974   */\n      dup5\n        /* \"#utility.yul\":2963:2986   */\n      sub\n        /* \"#utility.yul\":2959:2991   */\n      slt\n        /* \"#utility.yul\":2956:3075   */\n      iszero\n      tag_174\n      jumpi\n        /* \"#utility.yul\":2994:3073   */\n      tag_175\n      tag_114\n      jump\t// in\n    tag_175:\n        /* \"#utility.yul\":2956:3075   */\n    tag_174:\n        /* \"#utility.yul\":3114:3115   */\n      0x00\n        /* \"#utility.yul\":3139:3190   */\n      tag_176\n        /* \"#utility.yul\":3182:3189   */\n      dup5\n        /* \"#utility.yul\":3173:3179   */\n      dup3\n        /* \"#utility.yul\":3162:3171   */\n      dup6\n        /* \"#utility.yul\":3158:3180   */\n      add\n        /* \"#utility.yul\":3139:3190   */\n      tag_118\n      jump\t// in\n    tag_176:\n        /* \"#utility.yul\":3129:3190   */\n      swap2\n      pop\n        /* \"#utility.yul\":3085:3200   */\n      pop\n        /* \"#utility.yul\":2882:3207   */\n      swap3\n      swap2\n      pop\n      pop\n      jump\t// out\n        /* \"#utility.yul\":3213:3339   */\n    tag_119:\n        /* \"#utility.yul\":3250:3257   */\n      0x00\n        /* \"#utility.yul\":3290:3332   */\n      0xffffffffffffffffffffffffffffffffffffffff\n        /* \"#utility.yul\":3283:3288   */\n      dup3\n        /* \"#utility.yul\":3279:3333   */\n      and\n        /* \"#utility.yul\":3268:3333   */\n      swap1\n      pop\n        /* \"#utility.yul\":3213:3339   */\n      swap2\n      swap1\n      pop\n      jump\t// out\n        /* \"#utility.yul\":3345:3441   */\n    tag_120:\n        /* \"#utility.yul\":3382:3389   */\n      0x00\n        /* \"#utility.yul\":3411:3435   */\n      tag_179\n        /* \"#utility.yul\":3429:3434   */\n      dup3\n        /* \"#utility.yul\":3411:3435   */\n      tag_119\n      jump\t// in\n    tag_179:\n        /* \"#utility.yul\":3400:3435   */\n      swap1\n      pop\n        /* \"#utility.yul\":3345:3441   */\n      swap2\n      swap1\n      pop\n      jump\t// out\n        /* \"#utility.yul\":3447:3569   */\n    tag_121:\n        /* \"#utility.yul\":3520:3544   */\n      tag_181\n        /* \"#utility.yul\":3538:3543   */\n      dup2\n        /* \"#utility.yul\":3520:3544   */\n      tag_120\n      jump\t// in\n    tag_181:\n        /* \"#utility.yul\":3513:3518   */\n      dup2\n        /* \"#utility.yul\":3510:3545   */\n      eq\n        /* \"#utility.yul\":3500:3563   */\n      tag_182\n      jumpi\n        /* \"#utility.yul\":3559:3560   */\n      0x00\n        /* \"#utility.yul\":3556:3557   */\n      0x00\n        /* \"#utility.yul\":3549:3561   */\n      revert\n        /* \"#utility.yul\":3500:3563   */\n    tag_182:\n        /* \"#utility.yul\":3447:3569   */\n      pop\n      jump\t// out\n        /* \"#utility.yul\":3575:3714   */\n    tag_122:\n        /* \"#utility.yul\":3621:3626   */\n      0x00\n        /* \"#utility.yul\":3659:3665   */\n      dup2\n        /* \"#utility.yul\":3646:3666   */\n      calldataload\n        /* \"#utility.yul\":3637:3666   */\n      swap1\n      pop\n        /* \"#utility.yul\":3675:3708   */\n      tag_184\n        /* \"#utility.yul\":3702:3707   */\n      dup2\n        /* \"#utility.yul\":3675:3708   */\n      tag_121\n      jump\t// in\n    tag_184:\n        /* \"#utility.yul\":3575:3714   */\n      swap3\n      swap2\n      pop\n      pop\n      jump\t// out\n        /* \"#utility.yul\":3720:4049   */\n    tag_30:\n        /* \"#utility.yul\":3779:3785   */\n      0x00\n        /* \"#utility.yul\":3828:3830   */\n      0x20\n        /* \"#utility.yul\":3816:3825   */\n      dup3\n        /* \"#utility.yul\":3807:3814   */\n      dup5\n        /* \"#utility.yul\":3803:3826   */\n      sub\n        /* \"#utility.yul\":3799:3831   */\n      slt\n        /* \"#utility.yul\":3796:3915   */\n      iszero\n      tag_186\n      jumpi\n        /* \"#utility.yul\":3834:3913   */\n      tag_187\n      tag_114\n      jump\t// in\n    tag_187:\n        /* \"#utility.yul\":3796:3915   */\n    tag_186:\n        /* \"#utility.yul\":3954:3955   */\n      0x00\n        /* \"#utility.yul\":3979:4032   */\n      tag_188\n        /* \"#utility.yul\":4024:4031   */\n      dup5\n        /* \"#utility.yul\":4015:4021   */\n      dup3\n        /* \"#utility.yul\":4004:4013   */\n      dup6\n        /* \"#utility.yul\":4000:4022   */\n      add\n        /* \"#utility.yul\":3979:4032   */\n      tag_122\n      jump\t// in\n    tag_188:\n        /* \"#utility.yul\":3969:4032   */\n      swap2\n      pop\n        /* \"#utility.yul\":3925:4042   */\n      pop\n        /* \"#utility.yul\":3720:4049   */\n      swap3\n      swap2\n      pop\n      pop\n      jump\t// out\n        /* \"#utility.yul\":4055:4132   */\n    tag_123:\n        /* \"#utility.yul\":4092:4099   */\n      0x00\n        /* \"#utility.yul\":4121:4126   */\n      dup2\n        /* \"#utility.yul\":4110:4126   */\n      swap1\n      pop\n        /* \"#utility.yul\":4055:4132   */\n      swap2\n      swap1\n      pop\n      jump\t// out\n        /* \"#utility.yul\":4138:4256   */\n    tag_124:\n        /* \"#utility.yul\":4225:4249   */\n      tag_191\n        /* \"#utility.yul\":4243:4248   */\n      dup2\n        /* \"#utility.yul\":4225:4249   */\n      tag_123\n      jump\t// in\n    tag_191:\n        /* \"#utility.yul\":4220:4223   */\n      dup3\n        /* \"#utility.yul\":4213:4250   */\n      mstore\n        /* \"#utility.yul\":4138:4256   */\n      pop\n      pop\n      jump\t// out\n        /* \"#utility.yul\":4262:4374   */\n    tag_125:\n        /* \"#utility.yul\":4345:4367   */\n      tag_193\n        /* \"#utility.yul\":4361:4366   */\n      dup2\n        /* \"#utility.yul\":4345:4367   */\n      tag_116\n      jump\t// in\n    tag_193:\n        /* \"#utility.yul\":4340:4343   */\n      dup3\n        /* \"#utility.yul\":4333:4368   */\n      mstore\n        /* \"#utility.yul\":4262:4374   */\n      pop\n      pop\n      jump\t// out\n        /* \"#utility.yul\":4380:4704   */\n    tag_33:\n        /* \"#utility.yul\":4497:4501   */\n      0x00\n        /* \"#utility.yul\":4535:4537   */\n      0x40\n        /* \"#utility.yul\":4524:4533   */\n      dup3\n        /* \"#utility.yul\":4520:4538   */\n      add\n        /* \"#utility.yul\":4512:4538   */\n      swap1\n      pop\n        /* \"#utility.yul\":4548:4619   */\n      tag_195\n        /* \"#utility.yul\":4616:4617   */\n      0x00\n        /* \"#utility.yul\":4605:4614   */\n      dup4\n        /* \"#utility.yul\":4601:4618   */\n      add\n        /* \"#utility.yul\":4592:4598   */\n      dup6\n        /* \"#utility.yul\":4548:4619   */\n      tag_124\n      jump\t// in\n    tag_195:\n        /* \"#utility.yul\":4629:4697   */\n      tag_196\n        /* \"#utility.yul\":4693:4695   */\n      0x20\n        /* \"#utility.yul\":4682:4691   */\n      dup4\n        /* \"#utility.yul\":4678:4696   */\n      add\n        /* \"#utility.yul\":4669:4675   */\n      dup5\n        /* \"#utility.yul\":4629:4697   */\n      tag_125\n      jump\t// in\n    tag_196:\n        /* \"#utility.yul\":4380:4704   */\n      swap4\n      swap3\n      pop\n      pop\n      pop\n      jump\t// out\n        /* \"#utility.yul\":4710:4828   */\n    tag_126:\n        /* \"#utility.yul\":4797:4821   */\n      tag_198\n        /* \"#utility.yul\":4815:4820   */\n      dup2\n        /* \"#utility.yul\":4797:4821   */\n      tag_120\n      jump\t// in\n    tag_198:\n        /* \"#utility.yul\":4792:4795   */\n      dup3\n        /* \"#utility.yul\":4785:4822   */\n      mstore\n        /* \"#utility.yul\":4710:4828   */\n      pop\n      pop\n      jump\t// out\n        /* \"#utility.yul\":4834:5056   */\n    tag_38:\n        /* \"#utility.yul\":4927:4931   */\n      0x00\n        /* \"#utility.yul\":4965:4967   */\n      0x20\n        /* \"#utility.yul\":4954:4963   */\n      dup3\n        /* \"#utility.yul\":4950:4968   */\n      add\n        /* \"#utility.yul\":4942:4968   */\n      swap1\n      pop\n        /* \"#utility.yul\":4978:5049   */\n      tag_200\n        /* \"#utility.yul\":5046:5047   */\n      0x00\n        /* \"#utility.yul\":5035:5044   */\n      dup4\n        /* \"#utility.yul\":5031:5048   */\n      add\n        /* \"#utility.yul\":5022:5028   */\n      dup5\n        /* \"#utility.yul\":4978:5049   */\n      tag_126\n      jump\t// in\n    tag_200:\n        /* \"#utility.yul\":4834:5056   */\n      swap3\n      swap2\n      pop\n      pop\n      jump\t// out\n        /* \"#utility.yul\":5062:5242   */\n    tag_55:\n        /* \"#utility.yul\":5110:5187   */\n      0x4e487b7100000000000000000000000000000000000000000000000000000000\n        /* \"#utility.yul\":5107:5108   */\n      0x00\n        /* \"#utility.yul\":5100:5188   */\n      mstore\n        /* \"#utility.yul\":5207:5211   */\n      0x21\n        /* \"#utility.yul\":5204:5205   */\n      0x04\n        /* \"#utility.yul\":5197:5212   */\n      mstore\n        /* \"#utility.yul\":5231:5235   */\n      0x24\n        /* \"#utility.yul\":5228:5229   */\n      0x00\n        /* \"#utility.yul\":5221:5236   */\n      revert\n        /* \"#utility.yul\":5248:5367   */\n    tag_127:\n        /* \"#utility.yul\":5335:5336   */\n      0x03\n        /* \"#utility.yul\":5328:5333   */\n      dup2\n        /* \"#utility.yul\":5325:5337   */\n      lt\n        /* \"#utility.yul\":5315:5361   */\n      tag_203\n      jumpi\n        /* \"#utility.yul\":5341:5359   */\n      tag_204\n      tag_55\n      jump\t// in\n    tag_204:\n        /* \"#utility.yul\":5315:5361   */\n    tag_203:\n        /* \"#utility.yul\":5248:5367   */\n      pop\n      jump\t// out\n        /* \"#utility.yul\":5373:5512   */\n    tag_128:\n        /* \"#utility.yul\":5424:5431   */\n      0x00\n        /* \"#utility.yul\":5453:5458   */\n      dup2\n        /* \"#utility.yul\":5442:5458   */\n      swap1\n      pop\n        /* \"#utility.yul\":5459:5506   */\n      tag_206\n        /* \"#utility.yul\":5500:5505   */\n      dup3\n        /* \"#utility.yul\":5459:5506   */\n      tag_127\n      jump\t// in\n    tag_206:\n        /* \"#utility.yul\":5373:5512   */\n      swap2\n      swap1\n      pop\n      jump\t// out\n        /* \"#utility.yul\":5518:5657   */\n    tag_129:\n        /* \"#utility.yul\":5580:5589   */\n      0x00\n        /* \"#utility.yul\":5613:5651   */\n      tag_208\n        /* \"#utility.yul\":5645:5650   */\n      dup3\n        /* \"#utility.yul\":5613:5651   */\n      tag_128\n      jump\t// in\n    tag_208:\n        /* \"#utility.yul\":5600:5651   */\n      swap1\n      pop\n        /* \"#utility.yul\":5518:5657   */\n      swap2\n      swap1\n      pop\n      jump\t// out\n        /* \"#utility.yul\":5663:5818   */\n    tag_130:\n        /* \"#utility.yul\":5762:5811   */\n      tag_210\n        /* \"#utility.yul\":5805:5810   */\n      dup2\n        /* \"#utility.yul\":5762:5811   */\n      tag_129\n      jump\t// in\n    tag_210:\n        /* \"#utility.yul\":5757:5760   */\n      dup3\n        /* \"#utility.yul\":5750:5812   */\n      mstore\n        /* \"#utility.yul\":5663:5818   */\n      pop\n      pop\n      jump\t// out\n        /* \"#utility.yul\":5824:6070   */\n    tag_43:\n        /* \"#utility.yul\":5929:5933   */\n      0x00\n        /* \"#utility.yul\":5967:5969   */\n      0x20\n        /* \"#utility.yul\":5956:5965   */\n      dup3\n        /* \"#utility.yul\":5952:5970   */\n      add\n        /* \"#utility.yul\":5944:5970   */\n      swap1\n      pop\n        /* \"#utility.yul\":5980:6063   */\n      tag_212\n        /* \"#utility.yul\":6060:6061   */\n      0x00\n        /* \"#utility.yul\":6049:6058   */\n      dup4\n        /* \"#utility.yul\":6045:6062   */\n      add\n        /* \"#utility.yul\":6036:6042   */\n      dup5\n        /* \"#utility.yul\":5980:6063   */\n      tag_130\n      jump\t// in\n    tag_212:\n        /* \"#utility.yul\":5824:6070   */\n      swap3\n      swap2\n      pop\n      pop\n      jump\t// out\n        /* \"#utility.yul\":6076:6290   */\n    tag_51:\n        /* \"#utility.yul\":6165:6169   */\n      0x00\n        /* \"#utility.yul\":6203:6205   */\n      0x20\n        /* \"#utility.yul\":6192:6201   */\n      dup3\n        /* \"#utility.yul\":6188:6206   */\n      add\n        /* \"#utility.yul\":6180:6206   */\n      swap1\n      pop\n        /* \"#utility.yul\":6216:6283   */\n      tag_214\n        /* \"#utility.yul\":6280:6281   */\n      0x00\n        /* \"#utility.yul\":6269:6278   */\n      dup4\n        /* \"#utility.yul\":6265:6282   */\n      add\n        /* \"#utility.yul\":6256:6262   */\n      dup5\n        /* \"#utility.yul\":6216:6283   */\n      tag_125\n      jump\t// in\n    tag_214:\n        /* \"#utility.yul\":6076:6290   */\n      swap3\n      swap2\n      pop\n      pop\n      jump\t// out\n        /* \"#utility.yul\":6296:6473   */\n    tag_131:\n        /* \"#utility.yul\":6436:6465   */\n      0x42657474696e672069732063757272656e746c7920636c6f7365640000000000\n        /* \"#utility.yul\":6432:6433   */\n      0x00\n        /* \"#utility.yul\":6424:6430   */\n      dup3\n        /* \"#utility.yul\":6420:6434   */\n      add\n        /* \"#utility.yul\":6413:6466   */\n      mstore\n        /* \"#utility.yul\":6296:6473   */\n      pop\n      jump\t// out\n        /* \"#utility.yul\":6479:6845   */\n    tag_132:\n        /* \"#utility.yul\":6621:6624   */\n      0x00\n        /* \"#utility.yul\":6642:6709   */\n      tag_217\n        /* \"#utility.yul\":6706:6708   */\n      0x1b\n        /* \"#utility.yul\":6701:6704   */\n      dup4\n        /* \"#utility.yul\":6642:6709   */\n      tag_108\n      jump\t// in\n    tag_217:\n        /* \"#utility.yul\":6635:6709   */\n      swap2\n      pop\n        /* \"#utility.yul\":6718:6811   */\n      tag_218\n        /* \"#utility.yul\":6807:6810   */\n      dup3\n        /* \"#utility.yul\":6718:6811   */\n      tag_131\n      jump\t// in\n    tag_218:\n        /* \"#utility.yul\":6836:6838   */\n      0x20\n        /* \"#utility.yul\":6831:6834   */\n      dup3\n        /* \"#utility.yul\":6827:6839   */\n      add\n        /* \"#utility.yul\":6820:6839   */\n      swap1\n      pop\n        /* \"#utility.yul\":6479:6845   */\n      swap2\n      swap1\n      pop\n      jump\t// out\n        /* \"#utility.yul\":6851:7270   */\n    tag_60:\n        /* \"#utility.yul\":7017:7021   */\n      0x00\n        /* \"#utility.yul\":7055:7057   */\n      0x20\n        /* \"#utility.yul\":7044:7053   */\n      dup3\n        /* \"#utility.yul\":7040:7058   */\n      add\n        /* \"#utility.yul\":7032:7058   */\n      swap1\n      pop\n        /* \"#utility.yul\":7104:7113   */\n      dup2\n        /* \"#utility.yul\":7098:7102   */\n      dup2\n        /* \"#utility.yul\":7094:7114   */\n      sub\n        /* \"#utility.yul\":7090:7091   */\n      0x00\n        /* \"#utility.yul\":7079:7088   */\n      dup4\n        /* \"#utility.yul\":7075:7092   */\n      add\n        /* \"#utility.yul\":7068:7115   */\n      mstore\n        /* \"#utility.yul\":7132:7263   */\n      tag_220\n        /* \"#utility.yul\":7258:7262   */\n      dup2\n        /* \"#utility.yul\":7132:7263   */\n      tag_132\n      jump\t// in\n    tag_220:\n        /* \"#utility.yul\":7124:7263   */\n      swap1\n      pop\n        /* \"#utility.yul\":6851:7270   */\n      swap2\n      swap1\n      pop\n      jump\t// out\n        /* \"#utility.yul\":7276:7500   */\n    tag_133:\n        /* \"#utility.yul\":7416:7450   */\n      0x42657474696e6720616d6f756e74206d75737420626520677265617465722074\n        /* \"#utility.yul\":7412:7413   */\n      0x00\n        /* \"#utility.yul\":7404:7410   */\n      dup3\n        /* \"#utility.yul\":7400:7414   */\n      add\n        /* \"#utility.yul\":7393:7451   */\n      mstore\n        /* \"#utility.yul\":7485:7492   */\n      0x68616e2030000000000000000000000000000000000000000000000000000000\n        /* \"#utility.yul\":7480:7482   */\n      0x20\n        /* \"#utility.yul\":7472:7478   */\n      dup3\n        /* \"#utility.yul\":7468:7483   */\n      add\n        /* \"#utility.yul\":7461:7493   */\n      mstore\n        /* \"#utility.yul\":7276:7500   */\n      pop\n      jump\t// out\n        /* \"#utility.yul\":7506:7872   */\n    tag_134:\n        /* \"#utility.yul\":7648:7651   */\n      0x00\n        /* \"#utility.yul\":7669:7736   */\n      tag_223\n        /* \"#utility.yul\":7733:7735   */\n      0x25\n        /* \"#utility.yul\":7728:7731   */\n      dup4\n        /* \"#utility.yul\":7669:7736   */\n      tag_108\n      jump\t// in\n    tag_223:\n        /* \"#utility.yul\":7662:7736   */\n      swap2\n      pop\n        /* \"#utility.yul\":7745:7838   */\n      tag_224\n        /* \"#utility.yul\":7834:7837   */\n      dup3\n        /* \"#utility.yul\":7745:7838   */\n      tag_133\n      jump\t// in\n    tag_224:\n        /* \"#utility.yul\":7863:7865   */\n      0x40\n        /* \"#utility.yul\":7858:7861   */\n      dup3\n        /* \"#utility.yul\":7854:7866   */\n      add\n        /* \"#utility.yul\":7847:7866   */\n      swap1\n      pop\n        /* \"#utility.yul\":7506:7872   */\n      swap2\n      swap1\n      pop\n      jump\t// out\n        /* \"#utility.yul\":7878:8297   */\n    tag_63:\n        /* \"#utility.yul\":8044:8048   */\n      0x00\n        /* \"#utility.yul\":8082:8084   */\n      0x20\n        /* \"#utility.yul\":8071:8080   */\n      dup3\n        /* \"#utility.yul\":8067:8085   */\n      add\n        /* \"#utility.yul\":8059:8085   */\n      swap1\n      pop\n        /* \"#utility.yul\":8131:8140   */\n      dup2\n        /* \"#utility.yul\":8125:8129   */\n      dup2\n        /* \"#utility.yul\":8121:8141   */\n      sub\n        /* \"#utility.yul\":8117:8118   */\n      0x00\n        /* \"#utility.yul\":8106:8115   */\n      dup4\n        /* \"#utility.yul\":8102:8119   */\n      add\n        /* \"#utility.yul\":8095:8142   */\n      mstore\n        /* \"#utility.yul\":8159:8290   */\n      tag_226\n        /* \"#utility.yul\":8285:8289   */\n      dup2\n        /* \"#utility.yul\":8159:8290   */\n      tag_134\n      jump\t// in\n    tag_226:\n        /* \"#utility.yul\":8151:8290   */\n      swap1\n      pop\n        /* \"#utility.yul\":7878:8297   */\n      swap2\n      swap1\n      pop\n      jump\t// out\n        /* \"#utility.yul\":8303:8475   */\n    tag_135:\n        /* \"#utility.yul\":8443:8467   */\n      0x496e76616c6964207465616d2073656c656374696f6e00000000000000000000\n        /* \"#utility.yul\":8439:8440   */\n      0x00\n        /* \"#utility.yul\":8431:8437   */\n      dup3\n        /* \"#utility.yul\":8427:8441   */\n      add\n        /* \"#utility.yul\":8420:8468   */\n      mstore\n        /* \"#utility.yul\":8303:8475   */\n      pop\n      jump\t// out\n        /* \"#utility.yul\":8481:8847   */\n    tag_136:\n        /* \"#utility.yul\":8623:8626   */\n      0x00\n        /* \"#utility.yul\":8644:8711   */\n      tag_229\n        /* \"#utility.yul\":8708:8710   */\n      0x16\n        /* \"#utility.yul\":8703:8706   */\n      dup4\n        /* \"#utility.yul\":8644:8711   */\n      tag_108\n      jump\t// in\n    tag_229:\n        /* \"#utility.yul\":8637:8711   */\n      swap2\n      pop\n        /* \"#utility.yul\":8720:8813   */\n      tag_230\n        /* \"#utility.yul\":8809:8812   */\n      dup3\n        /* \"#utility.yul\":8720:8813   */\n      tag_135\n      jump\t// in\n    tag_230:\n        /* \"#utility.yul\":8838:8840   */\n      0x20\n        /* \"#utility.yul\":8833:8836   */\n      dup3\n        /* \"#utility.yul\":8829:8841   */\n      add\n        /* \"#utility.yul\":8822:8841   */\n      swap1\n      pop\n        /* \"#utility.yul\":8481:8847   */\n      swap2\n      swap1\n      pop\n      jump\t// out\n        /* \"#utility.yul\":8853:9272   */\n    tag_67:\n        /* \"#utility.yul\":9019:9023   */\n      0x00\n        /* \"#utility.yul\":9057:9059   */\n      0x20\n        /* \"#utility.yul\":9046:9055   */\n      dup3\n        /* \"#utility.yul\":9042:9060   */\n      add\n        /* \"#utility.yul\":9034:9060   */\n      swap1\n      pop\n        /* \"#utility.yul\":9106:9115   */\n      dup2\n        /* \"#utility.yul\":9100:9104   */\n      dup2\n        /* \"#utility.yul\":9096:9116   */\n      sub\n        /* \"#utility.yul\":9092:9093   */\n      0x00\n        /* \"#utility.yul\":9081:9090   */\n      dup4\n        /* \"#utility.yul\":9077:9094   */\n      add\n        /* \"#utility.yul\":9070:9117   */\n      mstore\n        /* \"#utility.yul\":9134:9265   */\n      tag_232\n        /* \"#utility.yul\":9260:9264   */\n      dup2\n        /* \"#utility.yul\":9134:9265   */\n      tag_136\n      jump\t// in\n    tag_232:\n        /* \"#utility.yul\":9126:9265   */\n      swap1\n      pop\n        /* \"#utility.yul\":8853:9272   */\n      swap2\n      swap1\n      pop\n      jump\t// out\n        /* \"#utility.yul\":9278:9512   */\n    tag_137:\n        /* \"#utility.yul\":9418:9452   */\n      0x4f6e6c792074686520636f6e7472616374206f776e65722063616e2070657266\n        /* \"#utility.yul\":9414:9415   */\n      0x00\n        /* \"#utility.yul\":9406:9412   */\n      dup3\n        /* \"#utility.yul\":9402:9416   */\n      add\n        /* \"#utility.yul\":9395:9453   */\n      mstore\n        /* \"#utility.yul\":9487:9504   */\n      0x6f726d207468697320616374696f6e0000000000000000000000000000000000\n        /* \"#utility.yul\":9482:9484   */\n      0x20\n        /* \"#utility.yul\":9474:9480   */\n      dup3\n        /* \"#utility.yul\":9470:9485   */\n      add\n        /* \"#utility.yul\":9463:9505   */\n      mstore\n        /* \"#utility.yul\":9278:9512   */\n      pop\n      jump\t// out\n        /* \"#utility.yul\":9518:9884   */\n    tag_138:\n        /* \"#utility.yul\":9660:9663   */\n      0x00\n        /* \"#utility.yul\":9681:9748   */\n      tag_235\n        /* \"#utility.yul\":9745:9747   */\n      0x2f\n        /* \"#utility.yul\":9740:9743   */\n      dup4\n        /* \"#utility.yul\":9681:9748   */\n      tag_108\n      jump\t// in\n    tag_235:\n        /* \"#utility.yul\":9674:9748   */\n      swap2\n      pop\n        /* \"#utility.yul\":9757:9850   */\n      tag_236\n        /* \"#utility.yul\":9846:9849   */\n      dup3\n        /* \"#utility.yul\":9757:9850   */\n      tag_137\n      jump\t// in\n    tag_236:\n        /* \"#utility.yul\":9875:9877   */\n      0x40\n        /* \"#utility.yul\":9870:9873   */\n      dup3\n        /* \"#utility.yul\":9866:9878   */\n      add\n        /* \"#utility.yul\":9859:9878   */\n      swap1\n      pop\n        /* \"#utility.yul\":9518:9884   */\n      swap2\n      swap1\n      pop\n      jump\t// out\n        /* \"#utility.yul\":9890:10309   */\n    tag_72:\n        /* \"#utility.yul\":10056:10060   */\n      0x00\n        /* \"#utility.yul\":10094:10096   */\n      0x20\n        /* \"#utility.yul\":10083:10092   */\n      dup3\n        /* \"#utility.yul\":10079:10097   */\n      add\n        /* \"#utility.yul\":10071:10097   */\n      swap1\n      pop\n        /* \"#utility.yul\":10143:10152   */\n      dup2\n        /* \"#utility.yul\":10137:10141   */\n      dup2\n        /* \"#utility.yul\":10133:10153   */\n      sub\n        /* \"#utility.yul\":10129:10130   */\n      0x00\n        /* \"#utility.yul\":10118:10127   */\n      dup4\n        /* \"#utility.yul\":10114:10131   */\n      add\n        /* \"#utility.yul\":10107:10154   */\n      mstore\n        /* \"#utility.yul\":10171:10302   */\n      tag_238\n        /* \"#utility.yul\":10297:10301   */\n      dup2\n        /* \"#utility.yul\":10171:10302   */\n      tag_138\n      jump\t// in\n    tag_238:\n        /* \"#utility.yul\":10163:10302   */\n      swap1\n      pop\n        /* \"#utility.yul\":9890:10309   */\n      swap2\n      swap1\n      pop\n      jump\t// out\n        /* \"#utility.yul\":10315:10539   */\n    tag_139:\n        /* \"#utility.yul\":10455:10489   */\n      0x42657474696e6720697320616c726561647920636c6f736564206f7220726573\n        /* \"#utility.yul\":10451:10452   */\n      0x00\n        /* \"#utility.yul\":10443:10449   */\n      dup3\n        /* \"#utility.yul\":10439:10453   */\n      add\n        /* \"#utility.yul\":10432:10490   */\n      mstore\n        /* \"#utility.yul\":10524:10531   */\n      0x6f6c766564000000000000000000000000000000000000000000000000000000\n        /* \"#utility.yul\":10519:10521   */\n      0x20\n        /* \"#utility.yul\":10511:10517   */\n      dup3\n        /* \"#utility.yul\":10507:10522   */\n      add\n        /* \"#utility.yul\":10500:10532   */\n      mstore\n        /* \"#utility.yul\":10315:10539   */\n      pop\n      jump\t// out\n        /* \"#utility.yul\":10545:10911   */\n    tag_140:\n        /* \"#utility.yul\":10687:10690   */\n      0x00\n        /* \"#utility.yul\":10708:10775   */\n      tag_241\n        /* \"#utility.yul\":10772:10774   */\n      0x25\n        /* \"#utility.yul\":10767:10770   */\n      dup4\n        /* \"#utility.yul\":10708:10775   */\n      tag_108\n      jump\t// in\n    tag_241:\n        /* \"#utility.yul\":10701:10775   */\n      swap2\n      pop\n        /* \"#utility.yul\":10784:10877   */\n      tag_242\n        /* \"#utility.yul\":10873:10876   */\n      dup3\n        /* \"#utility.yul\":10784:10877   */\n      tag_139\n      jump\t// in\n    tag_242:\n        /* \"#utility.yul\":10902:10904   */\n      0x40\n        /* \"#utility.yul\":10897:10900   */\n      dup3\n        /* \"#utility.yul\":10893:10905   */\n      add\n        /* \"#utility.yul\":10886:10905   */\n      swap1\n      pop\n        /* \"#utility.yul\":10545:10911   */\n      swap2\n      swap1\n      pop\n      jump\t// out\n        /* \"#utility.yul\":10917:11336   */\n    tag_80:\n        /* \"#utility.yul\":11083:11087   */\n      0x00\n        /* \"#utility.yul\":11121:11123   */\n      0x20\n        /* \"#utility.yul\":11110:11119   */\n      dup3\n        /* \"#utility.yul\":11106:11124   */\n      add\n        /* \"#utility.yul\":11098:11124   */\n      swap1\n      pop\n        /* \"#utility.yul\":11170:11179   */\n      dup2\n        /* \"#utility.yul\":11164:11168   */\n      dup2\n        /* \"#utility.yul\":11160:11180   */\n      sub\n        /* \"#utility.yul\":11156:11157   */\n      0x00\n        /* \"#utility.yul\":11145:11154   */\n      dup4\n        /* \"#utility.yul\":11141:11158   */\n      add\n        /* \"#utility.yul\":11134:11181   */\n      mstore\n        /* \"#utility.yul\":11198:11329   */\n      tag_244\n        /* \"#utility.yul\":11324:11328   */\n      dup2\n        /* \"#utility.yul\":11198:11329   */\n      tag_140\n      jump\t// in\n    tag_244:\n        /* \"#utility.yul\":11190:11329   */\n      swap1\n      pop\n        /* \"#utility.yul\":10917:11336   */\n      swap2\n      swap1\n      pop\n      jump\t// out\n        /* \"#utility.yul\":11342:11504   */\n    tag_141:\n        /* \"#utility.yul\":11482:11496   */\n      0x496e76616c6964207465616d0000000000000000000000000000000000000000\n        /* \"#utility.yul\":11478:11479   */\n      0x00\n        /* \"#utility.yul\":11470:11476   */\n      dup3\n        /* \"#utility.yul\":11466:11480   */\n      add\n        /* \"#utility.yul\":11459:11497   */\n      mstore\n        /* \"#utility.yul\":11342:11504   */\n      pop\n      jump\t// out\n        /* \"#utility.yul\":11510:11876   */\n    tag_142:\n        /* \"#utility.yul\":11652:11655   */\n      0x00\n        /* \"#utility.yul\":11673:11740   */\n      tag_247\n        /* \"#utility.yul\":11737:11739   */\n      0x0c\n        /* \"#utility.yul\":11732:11735   */\n      dup4\n        /* \"#utility.yul\":11673:11740   */\n      tag_108\n      jump\t// in\n    tag_247:\n        /* \"#utility.yul\":11666:11740   */\n      swap2\n      pop\n        /* \"#utility.yul\":11749:11842   */\n      tag_248\n        /* \"#utility.yul\":11838:11841   */\n      dup3\n        /* \"#utility.yul\":11749:11842   */\n      tag_141\n      jump\t// in\n    tag_248:\n        /* \"#utility.yul\":11867:11869   */\n      0x20\n        /* \"#utility.yul\":11862:11865   */\n      dup3\n        /* \"#utility.yul\":11858:11870   */\n      add\n        /* \"#utility.yul\":11851:11870   */\n      swap1\n      pop\n        /* \"#utility.yul\":11510:11876   */\n      swap2\n      swap1\n      pop\n      jump\t// out\n        /* \"#utility.yul\":11882:12301   */\n    tag_84:\n        /* \"#utility.yul\":12048:12052   */\n      0x00\n        /* \"#utility.yul\":12086:12088   */\n      0x20\n        /* \"#utility.yul\":12075:12084   */\n      dup3\n        /* \"#utility.yul\":12071:12089   */\n      add\n        /* \"#utility.yul\":12063:12089   */\n      swap1\n      pop\n        /* \"#utility.yul\":12135:12144   */\n      dup2\n        /* \"#utility.yul\":12129:12133   */\n      dup2\n        /* \"#utility.yul\":12125:12145   */\n      sub\n        /* \"#utility.yul\":12121:12122   */\n      0x00\n        /* \"#utility.yul\":12110:12119   */\n      dup4\n        /* \"#utility.yul\":12106:12123   */\n      add\n        /* \"#utility.yul\":12099:12146   */\n      mstore\n        /* \"#utility.yul\":12163:12294   */\n      tag_250\n        /* \"#utility.yul\":12289:12293   */\n      dup2\n        /* \"#utility.yul\":12163:12294   */\n      tag_142\n      jump\t// in\n    tag_250:\n        /* \"#utility.yul\":12155:12294   */\n      swap1\n      pop\n        /* \"#utility.yul\":11882:12301   */\n      swap2\n      swap1\n      pop\n      jump\t// out\n        /* \"#utility.yul\":12307:12527   */\n    tag_143:\n        /* \"#utility.yul\":12447:12481   */\n      0x42657474696e6720686173206e6f74206265656e207265736f6c766564207965\n        /* \"#utility.yul\":12443:12444   */\n      0x00\n        /* \"#utility.yul\":12435:12441   */\n      dup3\n        /* \"#utility.yul\":12431:12445   */\n      add\n        /* \"#utility.yul\":12424:12482   */\n      mstore\n        /* \"#utility.yul\":12516:12519   */\n      0x7400000000000000000000000000000000000000000000000000000000000000\n        /* \"#utility.yul\":12511:12513   */\n      0x20\n        /* \"#utility.yul\":12503:12509   */\n      dup3\n        /* \"#utility.yul\":12499:12514   */\n      add\n        /* \"#utility.yul\":12492:12520   */\n      mstore\n        /* \"#utility.yul\":12307:12527   */\n      pop\n      jump\t// out\n        /* \"#utility.yul\":12533:12899   */\n    tag_144:\n        /* \"#utility.yul\":12675:12678   */\n      0x00\n        /* \"#utility.yul\":12696:12763   */\n      tag_253\n        /* \"#utility.yul\":12760:12762   */\n      0x21\n        /* \"#utility.yul\":12755:12758   */\n      dup4\n        /* \"#utility.yul\":12696:12763   */\n      tag_108\n      jump\t// in\n    tag_253:\n        /* \"#utility.yul\":12689:12763   */\n      swap2\n      pop\n        /* \"#utility.yul\":12772:12865   */\n      tag_254\n        /* \"#utility.yul\":12861:12864   */\n      dup3\n        /* \"#utility.yul\":12772:12865   */\n      tag_143\n      jump\t// in\n    tag_254:\n        /* \"#utility.yul\":12890:12892   */\n      0x40\n        /* \"#utility.yul\":12885:12888   */\n      dup3\n        /* \"#utility.yul\":12881:12893   */\n      add\n        /* \"#utility.yul\":12874:12893   */\n      swap1\n      pop\n        /* \"#utility.yul\":12533:12899   */\n      swap2\n      swap1\n      pop\n      jump\t// out\n        /* \"#utility.yul\":12905:13324   */\n    tag_95:\n        /* \"#utility.yul\":13071:13075   */\n      0x00\n        /* \"#utility.yul\":13109:13111   */\n      0x20\n        /* \"#utility.yul\":13098:13107   */\n      dup3\n        /* \"#utility.yul\":13094:13112   */\n      add\n        /* \"#utility.yul\":13086:13112   */\n      swap1\n      pop\n        /* \"#utility.yul\":13158:13167   */\n      dup2\n        /* \"#utility.yul\":13152:13156   */\n      dup2\n        /* \"#utility.yul\":13148:13168   */\n      sub\n        /* \"#utility.yul\":13144:13145   */\n      0x00\n        /* \"#utility.yul\":13133:13142   */\n      dup4\n        /* \"#utility.yul\":13129:13146   */\n      add\n        /* \"#utility.yul\":13122:13169   */\n      mstore\n        /* \"#utility.yul\":13186:13317   */\n      tag_256\n        /* \"#utility.yul\":13312:13316   */\n      dup2\n        /* \"#utility.yul\":13186:13317   */\n      tag_144\n      jump\t// in\n    tag_256:\n        /* \"#utility.yul\":13178:13317   */\n      swap1\n      pop\n        /* \"#utility.yul\":12905:13324   */\n      swap2\n      swap1\n      pop\n      jump\t// out\n        /* \"#utility.yul\":13330:13505   */\n    tag_145:\n        /* \"#utility.yul\":13470:13497   */\n      0x596f7520646964206e6f7420706c61636520616e792062657400000000000000\n        /* \"#utility.yul\":13466:13467   */\n      0x00\n        /* \"#utility.yul\":13458:13464   */\n      dup3\n        /* \"#utility.yul\":13454:13468   */\n      add\n        /* \"#utility.yul\":13447:13498   */\n      mstore\n        /* \"#utility.yul\":13330:13505   */\n      pop\n      jump\t// out\n        /* \"#utility.yul\":13511:13877   */\n    tag_146:\n        /* \"#utility.yul\":13653:13656   */\n      0x00\n        /* \"#utility.yul\":13674:13741   */\n      tag_259\n        /* \"#utility.yul\":13738:13740   */\n      0x19\n        /* \"#utility.yul\":13733:13736   */\n      dup4\n        /* \"#utility.yul\":13674:13741   */\n      tag_108\n      jump\t// in\n    tag_259:\n        /* \"#utility.yul\":13667:13741   */\n      swap2\n      pop\n        /* \"#utility.yul\":13750:13843   */\n      tag_260\n        /* \"#utility.yul\":13839:13842   */\n      dup3\n        /* \"#utility.yul\":13750:13843   */\n      tag_145\n      jump\t// in\n    tag_260:\n        /* \"#utility.yul\":13868:13870   */\n      0x20\n        /* \"#utility.yul\":13863:13866   */\n      dup3\n        /* \"#utility.yul\":13859:13871   */\n      add\n        /* \"#utility.yul\":13852:13871   */\n      swap1\n      pop\n        /* \"#utility.yul\":13511:13877   */\n      swap2\n      swap1\n      pop\n      jump\t// out\n        /* \"#utility.yul\":13883:14302   */\n    tag_98:\n        /* \"#utility.yul\":14049:14053   */\n      0x00\n        /* \"#utility.yul\":14087:14089   */\n      0x20\n        /* \"#utility.yul\":14076:14085   */\n      dup3\n        /* \"#utility.yul\":14072:14090   */\n      add\n        /* \"#utility.yul\":14064:14090   */\n      swap1\n      pop\n        /* \"#utility.yul\":14136:14145   */\n      dup2\n        /* \"#utility.yul\":14130:14134   */\n      dup2\n        /* \"#utility.yul\":14126:14146   */\n      sub\n        /* \"#utility.yul\":14122:14123   */\n      0x00\n        /* \"#utility.yul\":14111:14120   */\n      dup4\n        /* \"#utility.yul\":14107:14124   */\n      add\n        /* \"#utility.yul\":14100:14147   */\n      mstore\n        /* \"#utility.yul\":14164:14295   */\n      tag_262\n        /* \"#utility.yul\":14290:14294   */\n      dup2\n        /* \"#utility.yul\":14164:14295   */\n      tag_146\n      jump\t// in\n    tag_262:\n        /* \"#utility.yul\":14156:14295   */\n      swap1\n      pop\n        /* \"#utility.yul\":13883:14302   */\n      swap2\n      swap1\n      pop\n      jump\t// out\n        /* \"#utility.yul\":14308:14530   */\n    tag_147:\n        /* \"#utility.yul\":14448:14482   */\n      0x596f7520646964206e6f7420626574206f6e207468652077696e6e696e672074\n        /* \"#utility.yul\":14444:14445   */\n      0x00\n        /* \"#utility.yul\":14436:14442   */\n      dup3\n        /* \"#utility.yul\":14432:14446   */\n      add\n        /* \"#utility.yul\":14425:14483   */\n      mstore\n        /* \"#utility.yul\":14517:14522   */\n      0x65616d0000000000000000000000000000000000000000000000000000000000\n        /* \"#utility.yul\":14512:14514   */\n      0x20\n        /* \"#utility.yul\":14504:14510   */\n      dup3\n        /* \"#utility.yul\":14500:14515   */\n      add\n        /* \"#utility.yul\":14493:14523   */\n      mstore\n        /* \"#utility.yul\":14308:14530   */\n      pop\n      jump\t// out\n        /* \"#utility.yul\":14536:14902   */\n    tag_148:\n        /* \"#utility.yul\":14678:14681   */\n      0x00\n        /* \"#utility.yul\":14699:14766   */\n      tag_265\n        /* \"#utility.yul\":14763:14765   */\n      0x23\n        /* \"#utility.yul\":14758:14761   */\n      dup4\n        /* \"#utility.yul\":14699:14766   */\n      tag_108\n      jump\t// in\n    tag_265:\n        /* \"#utility.yul\":14692:14766   */\n      swap2\n      pop\n        /* \"#utility.yul\":14775:14868   */\n      tag_266\n        /* \"#utility.yul\":14864:14867   */\n      dup3\n        /* \"#utility.yul\":14775:14868   */\n      tag_147\n      jump\t// in\n    tag_266:\n        /* \"#utility.yul\":14893:14895   */\n      0x40\n        /* \"#utility.yul\":14888:14891   */\n      dup3\n        /* \"#utility.yul\":14884:14896   */\n      add\n        /* \"#utility.yul\":14877:14896   */\n      swap1\n      pop\n        /* \"#utility.yul\":14536:14902   */\n      swap2\n      swap1\n      pop\n      jump\t// out\n        /* \"#utility.yul\":14908:15327   */\n    tag_101:\n        /* \"#utility.yul\":15074:15078   */\n      0x00\n        /* \"#utility.yul\":15112:15114   */\n      0x20\n        /* \"#utility.yul\":15101:15110   */\n      dup3\n        /* \"#utility.yul\":15097:15115   */\n      add\n        /* \"#utility.yul\":15089:15115   */\n      swap1\n      pop\n        /* \"#utility.yul\":15161:15170   */\n      dup2\n        /* \"#utility.yul\":15155:15159   */\n      dup2\n        /* \"#utility.yul\":15151:15171   */\n      sub\n        /* \"#utility.yul\":15147:15148   */\n      0x00\n        /* \"#utility.yul\":15136:15145   */\n      dup4\n        /* \"#utility.yul\":15132:15149   */\n      add\n        /* \"#utility.yul\":15125:15172   */\n      mstore\n        /* \"#utility.yul\":15189:15320   */\n      tag_268\n        /* \"#utility.yul\":15315:15319   */\n      dup2\n        /* \"#utility.yul\":15189:15320   */\n      tag_148\n      jump\t// in\n    tag_268:\n        /* \"#utility.yul\":15181:15320   */\n      swap1\n      pop\n        /* \"#utility.yul\":14908:15327   */\n      swap2\n      swap1\n      pop\n      jump\t// out\n        /* \"#utility.yul\":15333:15513   */\n    tag_149:\n        /* \"#utility.yul\":15381:15458   */\n      0x4e487b7100000000000000000000000000000000000000000000000000000000\n        /* \"#utility.yul\":15378:15379   */\n      0x00\n        /* \"#utility.yul\":15371:15459   */\n      mstore\n        /* \"#utility.yul\":15478:15482   */\n      0x11\n        /* \"#utility.yul\":15475:15476   */\n      0x04\n        /* \"#utility.yul\":15468:15483   */\n      mstore\n        /* \"#utility.yul\":15502:15506   */\n      0x24\n        /* \"#utility.yul\":15499:15500   */\n      0x00\n        /* \"#utility.yul\":15492:15507   */\n      revert\n        /* \"#utility.yul\":15519:15929   */\n    tag_103:\n        /* \"#utility.yul\":15559:15566   */\n      0x00\n        /* \"#utility.yul\":15582:15602   */\n      tag_271\n        /* \"#utility.yul\":15600:15601   */\n      dup3\n        /* \"#utility.yul\":15582:15602   */\n      tag_123\n      jump\t// in\n    tag_271:\n        /* \"#utility.yul\":15577:15602   */\n      swap2\n      pop\n        /* \"#utility.yul\":15616:15636   */\n      tag_272\n        /* \"#utility.yul\":15634:15635   */\n      dup4\n        /* \"#utility.yul\":15616:15636   */\n      tag_123\n      jump\t// in\n    tag_272:\n        /* \"#utility.yul\":15611:15636   */\n      swap3\n      pop\n        /* \"#utility.yul\":15671:15672   */\n      dup3\n        /* \"#utility.yul\":15668:15669   */\n      dup3\n        /* \"#utility.yul\":15664:15673   */\n      mul\n        /* \"#utility.yul\":15693:15723   */\n      tag_273\n        /* \"#utility.yul\":15711:15722   */\n      dup2\n        /* \"#utility.yul\":15693:15723   */\n      tag_123\n      jump\t// in\n    tag_273:\n        /* \"#utility.yul\":15682:15723   */\n      swap2\n      pop\n        /* \"#utility.yul\":15872:15873   */\n      dup3\n        /* \"#utility.yul\":15863:15870   */\n      dup3\n        /* \"#utility.yul\":15859:15874   */\n      div\n        /* \"#utility.yul\":15856:15857   */\n      dup5\n        /* \"#utility.yul\":15853:15875   */\n      eq\n        /* \"#utility.yul\":15833:15834   */\n      dup4\n        /* \"#utility.yul\":15826:15835   */\n      iszero\n        /* \"#utility.yul\":15806:15889   */\n      or\n        /* \"#utility.yul\":15783:15922   */\n      tag_274\n      jumpi\n        /* \"#utility.yul\":15902:15920   */\n      tag_275\n      tag_149\n      jump\t// in\n    tag_275:\n        /* \"#utility.yul\":15783:15922   */\n    tag_274:\n        /* \"#utility.yul\":15567:15929   */\n      pop\n        /* \"#utility.yul\":15519:15929   */\n      swap3\n      swap2\n      pop\n      pop\n      jump\t// out\n        /* \"#utility.yul\":15935:16157   */\n    tag_107:\n        /* \"#utility.yul\":16028:16032   */\n      0x00\n        /* \"#utility.yul\":16066:16068   */\n      0x20\n        /* \"#utility.yul\":16055:16064   */\n      dup3\n        /* \"#utility.yul\":16051:16069   */\n      add\n        /* \"#utility.yul\":16043:16069   */\n      swap1\n      pop\n        /* \"#utility.yul\":16079:16150   */\n      tag_277\n        /* \"#utility.yul\":16147:16148   */\n      0x00\n        /* \"#utility.yul\":16136:16145   */\n      dup4\n        /* \"#utility.yul\":16132:16149   */\n      add\n        /* \"#utility.yul\":16123:16129   */\n      dup5\n        /* \"#utility.yul\":16079:16150   */\n      tag_124\n      jump\t// in\n    tag_277:\n        /* \"#utility.yul\":15935:16157   */\n      swap3\n      swap2\n      pop\n      pop\n      jump\t// out\n\n    auxdata: 0xa264697066735822122047f46d3e5d080109fbc74f3fd55ef2ba5c6adb9b53a3495eedde360c96987b5664736f6c634300081b0033\n}\n",
				"bytecode": {
					"linkReferences": {},
					"object": "6080604052348015600e575f5ffd5b50335f60016101000a81548173ffffffffffffffffffffffffffffffffffffffff021916908373ffffffffffffffffffffffffffffffffffffffff1602179055505f5f5f6101000a81548160ff02191690836002811115606f57606e6078565b5b021790555060a5565b7f4e487b71000000000000000000000000000000000000000000000000000000005f52602160045260245ffd5b611061806100b25f395ff3fe608060405260043610610073575f3560e01c80638da5cb5b1161004d5780638da5cb5b1461016f578063c19d93fb14610199578063cc42e83a146101c3578063de3f18e2146101d9576100b3565b806343046844146100ee578063853840cd1461010a57806389a78f1a14610132576100b3565b366100b3576040517f08c379a00000000000000000000000000000000000000000000000000000000081526004016100aa906108b3565b60405180910390fd5b6040517f08c379a00000000000000000000000000000000000000000000000000000000081526004016100e59061091b565b60405180910390fd5b61010860048036038101906101039190610973565b610203565b005b348015610115575f5ffd5b50610130600480360381019061012b9190610973565b6103de565b005b34801561013d575f5ffd5b50610158600480360381019061015391906109f8565b6105b0565b604051610166929190610a4a565b60405180910390f35b34801561017a575f5ffd5b506101836105dc565b6040516101909190610a80565b60405180910390f35b3480156101a4575f5ffd5b506101ad610601565b6040516101ba9190610b0c565b60405180910390f35b3480156101ce575f5ffd5b506101d7610612565b005b3480156101e4575f5ffd5b506101ed610821565b6040516101fa9190610b25565b60405180910390f35b5f600281111561021657610215610a99565b5b5f5f9054906101000a900460ff16600281111561023657610235610a99565b5b14610276576040517f08c379a000000000000000000000000000000000000000000000000000000000815260040161026d90610b88565b60405180910390fd5b5f34116102b8576040517f08c379a00000000000000000000000000000000000000000000000000000000081526004016102af90610c16565b60405180910390fd5b5f8160ff1614806102cc575060018160ff16145b61030b576040517f08c379a000000000000000000000000000000000000000000000000000000000815260040161030290610c7e565b60405180910390fd5b60405180604001604052803481526020018260ff1681525060015f3373ffffffffffffffffffffffffffffffffffffffff1673ffffffffffffffffffffffffffffffffffffffff1681526020019081526020015f205f820151815f01556020820151816001015f6101000a81548160ff021916908360ff1602179055509050503373ffffffffffffffffffffffffffffffffffffffff167f7df19a783369d9cefb06e18b396518f817b48766b74157758eda633a62f58fa734836040516103d3929190610a4a565b60405180910390a250565b5f60019054906101000a900473ffffffffffffffffffffffffffffffffffffffff1673ffffffffffffffffffffffffffffffffffffffff163373ffffffffffffffffffffffffffffffffffffffff161461046d576040517f08c379a000000000000000000000000000000000000000000000000000000000815260040161046490610d0c565b60405180910390fd5b5f60028111156104805761047f610a99565b5b5f5f9054906101000a900460ff1660028111156104a05761049f610a99565b5b146104e0576040517f08c379a00000000000000000000000000000000000000000000000000000000081526004016104d790610d9a565b60405180910390fd5b5f8160ff1614806104f4575060018160ff16145b610533576040517f08c379a000000000000000000000000000000000000000000000000000000000815260040161052a90610e02565b60405180910390fd5b805f60156101000a81548160ff021916908360ff16021790555060025f5f6101000a81548160ff0219169083600281111561057157610570610a99565b5b02179055507fd6bcd4b6873d691163f1aff2d5585378623aef08e17513a5253eabe39c65dc50816040516105a59190610b25565b60405180910390a150565b6001602052805f5260405f205f91509050805f015490806001015f9054906101000a900460ff16905082565b5f60019054906101000a900473ffffffffffffffffffffffffffffffffffffffff1681565b5f5f9054906101000a900460ff1681565b60028081111561062557610624610a99565b5b5f5f9054906101000a900460ff16600281111561064557610644610a99565b5b14610685576040517f08c379a000000000000000000000000000000000000000000000000000000000815260040161067c90610e90565b60405180910390fd5b5f60015f3373ffffffffffffffffffffffffffffffffffffffff1673ffffffffffffffffffffffffffffffffffffffff1681526020019081526020015f2090505f815f01541161070a576040517f08c379a000000000000000000000000000000000000000000000000000000000815260040161070190610ef8565b60405180910390fd5b5f60159054906101000a900460ff1660ff16816001015f9054906101000a900460ff1660ff1614610770576040517f08c379a000000000000000000000000000000000000000000000000000000000815260040161076790610f86565b60405180910390fd5b5f6003825f01546107819190610fd1565b90505f825f01819055503373ffffffffffffffffffffffffffffffffffffffff166108fc8290811502906040515f60405180830381858888f193505050501580156107ce573d5f5f3e3d5ffd5b503373ffffffffffffffffffffffffffffffffffffffff167f24215bbaf0832fa4d6ffef16dee3971d8b714921fef3ad63f793d578983c6dc2826040516108159190611012565b60405180910390a25050565b5f60159054906101000a900460ff1681565b5f82825260208201905092915050565b7f446972656374207472616e7366657273206e6f7420616c6c6f7765642c2075735f8201527f6520706c61636542657400000000000000000000000000000000000000000000602082015250565b5f61089d602a83610833565b91506108a882610843565b604082019050919050565b5f6020820190508181035f8301526108ca81610891565b9050919050565b7f506c656173652075736520706c61636542657420746f2073656e6420455448005f82015250565b5f610905601f83610833565b9150610910826108d1565b602082019050919050565b5f6020820190508181035f830152610932816108f9565b9050919050565b5f5ffd5b5f60ff82169050919050565b6109528161093d565b811461095c575f5ffd5b50565b5f8135905061096d81610949565b92915050565b5f6020828403121561098857610987610939565b5b5f6109958482850161095f565b91505092915050565b5f73ffffffffffffffffffffffffffffffffffffffff82169050919050565b5f6109c78261099e565b9050919050565b6109d7816109bd565b81146109e1575f5ffd5b50565b5f813590506109f2816109ce565b92915050565b5f60208284031215610a0d57610a0c610939565b5b5f610a1a848285016109e4565b91505092915050565b5f819050919050565b610a3581610a23565b82525050565b610a448161093d565b82525050565b5f604082019050610a5d5f830185610a2c565b610a6a6020830184610a3b565b9392505050565b610a7a816109bd565b82525050565b5f602082019050610a935f830184610a71565b92915050565b7f4e487b71000000000000000000000000000000000000000000000000000000005f52602160045260245ffd5b60038110610ad757610ad6610a99565b5b50565b5f819050610ae782610ac6565b919050565b5f610af682610ada565b9050919050565b610b0681610aec565b82525050565b5f602082019050610b1f5f830184610afd565b92915050565b5f602082019050610b385f830184610a3b565b92915050565b7f42657474696e672069732063757272656e746c7920636c6f73656400000000005f82015250565b5f610b72601b83610833565b9150610b7d82610b3e565b602082019050919050565b5f6020820190508181035f830152610b9f81610b66565b9050919050565b7f42657474696e6720616d6f756e74206d757374206265206772656174657220745f8201527f68616e2030000000000000000000000000000000000000000000000000000000602082015250565b5f610c00602583610833565b9150610c0b82610ba6565b604082019050919050565b5f6020820190508181035f830152610c2d81610bf4565b9050919050565b7f496e76616c6964207465616d2073656c656374696f6e000000000000000000005f82015250565b5f610c68601683610833565b9150610c7382610c34565b602082019050919050565b5f6020820190508181035f830152610c9581610c5c565b9050919050565b7f4f6e6c792074686520636f6e7472616374206f776e65722063616e20706572665f8201527f6f726d207468697320616374696f6e0000000000000000000000000000000000602082015250565b5f610cf6602f83610833565b9150610d0182610c9c565b604082019050919050565b5f6020820190508181035f830152610d2381610cea565b9050919050565b7f42657474696e6720697320616c726561647920636c6f736564206f72207265735f8201527f6f6c766564000000000000000000000000000000000000000000000000000000602082015250565b5f610d84602583610833565b9150610d8f82610d2a565b604082019050919050565b5f6020820190508181035f830152610db181610d78565b9050919050565b7f496e76616c6964207465616d00000000000000000000000000000000000000005f82015250565b5f610dec600c83610833565b9150610df782610db8565b602082019050919050565b5f6020820190508181035f830152610e1981610de0565b9050919050565b7f42657474696e6720686173206e6f74206265656e207265736f6c7665642079655f8201527f7400000000000000000000000000000000000000000000000000000000000000602082015250565b5f610e7a602183610833565b9150610e8582610e20565b604082019050919050565b5f6020820190508181035f830152610ea781610e6e565b9050919050565b7f596f7520646964206e6f7420706c61636520616e7920626574000000000000005f82015250565b5f610ee2601983610833565b9150610eed82610eae565b602082019050919050565b5f6020820190508181035f830152610f0f81610ed6565b9050919050565b7f596f7520646964206e6f7420626574206f6e207468652077696e6e696e6720745f8201527f65616d0000000000000000000000000000000000000000000000000000000000602082015250565b5f610f70602383610833565b9150610f7b82610f16565b604082019050919050565b5f6020820190508181035f830152610f9d81610f64565b9050919050565b7f4e487b71000000000000000000000000000000000000000000000000000000005f52601160045260245ffd5b5f610fdb82610a23565b9150610fe683610a23565b9250828202610ff481610a23565b9150828204841483151761100b5761100a610fa4565b5b5092915050565b5f6020820190506110255f830184610a2c565b9291505056fea264697066735822122047f46d3e5d080109fbc74f3fd55ef2ba5c6adb9b53a3495eedde360c96987b5664736f6c634300081b0033",
					"opcodes": "PUSH1 0x80 PUSH1 0x40 MSTORE CALLVALUE DUP1 ISZERO PUSH1 0xE JUMPI PUSH0 PUSH0 REVERT JUMPDEST POP CALLER PUSH0 PUSH1 0x1 PUSH2 0x100 EXP DUP2 SLOAD DUP2 PUSH20 0xFFFFFFFFFFFFFFFFFFFFFFFFFFFFFFFFFFFFFFFF MUL NOT AND SWAP1 DUP4 PUSH20 0xFFFFFFFFFFFFFFFFFFFFFFFFFFFFFFFFFFFFFFFF AND MUL OR SWAP1 SSTORE POP PUSH0 PUSH0 PUSH0 PUSH2 0x100 EXP DUP2 SLOAD DUP2 PUSH1 0xFF MUL NOT AND SWAP1 DUP4 PUSH1 0x2 DUP2 GT ISZERO PUSH1 0x6F JUMPI PUSH1 0x6E PUSH1 0x78 JUMP JUMPDEST JUMPDEST MUL OR SWAP1 SSTORE POP PUSH1 0xA5 JUMP JUMPDEST PUSH32 0x4E487B7100000000000000000000000000000000000000000000000000000000 PUSH0 MSTORE PUSH1 0x21 PUSH1 0x4 MSTORE PUSH1 0x24 PUSH0 REVERT JUMPDEST PUSH2 0x1061 DUP1 PUSH2 0xB2 PUSH0 CODECOPY PUSH0 RETURN INVALID PUSH1 0x80 PUSH1 0x40 MSTORE PUSH1 0x4 CALLDATASIZE LT PUSH2 0x73 JUMPI PUSH0 CALLDATALOAD PUSH1 0xE0 SHR DUP1 PUSH4 0x8DA5CB5B GT PUSH2 0x4D JUMPI DUP1 PUSH4 0x8DA5CB5B EQ PUSH2 0x16F JUMPI DUP1 PUSH4 0xC19D93FB EQ PUSH2 0x199 JUMPI DUP1 PUSH4 0xCC42E83A EQ PUSH2 0x1C3 JUMPI DUP1 PUSH4 0xDE3F18E2 EQ PUSH2 0x1D9 JUMPI PUSH2 0xB3 JUMP JUMPDEST DUP1 PUSH4 0x43046844 EQ PUSH2 0xEE JUMPI DUP1 PUSH4 0x853840CD EQ PUSH2 0x10A JUMPI DUP1 PUSH4 0x89A78F1A EQ PUSH2 0x132 JUMPI PUSH2 0xB3 JUMP JUMPDEST CALLDATASIZE PUSH2 0xB3 JUMPI PUSH1 0x40 MLOAD PUSH32 0x8C379A000000000000000000000000000000000000000000000000000000000 DUP2 MSTORE PUSH1 0x4 ADD PUSH2 0xAA SWAP1 PUSH2 0x8B3 JUMP JUMPDEST PUSH1 0x40 MLOAD DUP1 SWAP2 SUB SWAP1 REVERT JUMPDEST PUSH1 0x40 MLOAD PUSH32 0x8C379A000000000000000000000000000000000000000000000000000000000 DUP2 MSTORE PUSH1 0x4 ADD PUSH2 0xE5 SWAP1 PUSH2 0x91B JUMP JUMPDEST PUSH1 0x40 MLOAD DUP1 SWAP2 SUB SWAP1 REVERT JUMPDEST PUSH2 0x108 PUSH1 0x4 DUP1 CALLDATASIZE SUB DUP2 ADD SWAP1 PUSH2 0x103 SWAP2 SWAP1 PUSH2 0x973 JUMP JUMPDEST PUSH2 0x203 JUMP JUMPDEST STOP JUMPDEST CALLVALUE DUP1 ISZERO PUSH2 0x115 JUMPI PUSH0 PUSH0 REVERT JUMPDEST POP PUSH2 0x130 PUSH1 0x4 DUP1 CALLDATASIZE SUB DUP2 ADD SWAP1 PUSH2 0x12B SWAP2 SWAP1 PUSH2 0x973 JUMP JUMPDEST PUSH2 0x3DE JUMP JUMPDEST STOP JUMPDEST CALLVALUE DUP1 ISZERO PUSH2 0x13D JUMPI PUSH0 PUSH0 REVERT JUMPDEST POP PUSH2 0x158 PUSH1 0x4 DUP1 CALLDATASIZE SUB DUP2 ADD SWAP1 PUSH2 0x153 SWAP2 SWAP1 PUSH2 0x9F8 JUMP JUMPDEST PUSH2 0x5B0 JUMP JUMPDEST PUSH1 0x40 MLOAD PUSH2 0x166 SWAP3 SWAP2 SWAP1 PUSH2 0xA4A JUMP JUMPDEST PUSH1 0x40 MLOAD DUP1 SWAP2 SUB SWAP1 RETURN JUMPDEST CALLVALUE DUP1 ISZERO PUSH2 0x17A JUMPI PUSH0 PUSH0 REVERT JUMPDEST POP PUSH2 0x183 PUSH2 0x5DC JUMP JUMPDEST PUSH1 0x40 MLOAD PUSH2 0x190 SWAP2 SWAP1 PUSH2 0xA80 JUMP JUMPDEST PUSH1 0x40 MLOAD DUP1 SWAP2 SUB SWAP1 RETURN JUMPDEST CALLVALUE DUP1 ISZERO PUSH2 0x1A4 JUMPI PUSH0 PUSH0 REVERT JUMPDEST POP PUSH2 0x1AD PUSH2 0x601 JUMP JUMPDEST PUSH1 0x40 MLOAD PUSH2 0x1BA SWAP2 SWAP1 PUSH2 0xB0C JUMP JUMPDEST PUSH1 0x40 MLOAD DUP1 SWAP2 SUB SWAP1 RETURN JUMPDEST CALLVALUE DUP1 ISZERO PUSH2 0x1CE JUMPI PUSH0 PUSH0 REVERT JUMPDEST POP PUSH2 0x1D7 PUSH2 0x612 JUMP JUMPDEST STOP JUMPDEST CALLVALUE DUP1 ISZERO PUSH2 0x1E4 JUMPI PUSH0 PUSH0 REVERT JUMPDEST POP PUSH2 0x1ED PUSH2 0x821 JUMP JUMPDEST PUSH1 0x40 MLOAD PUSH2 0x1FA SWAP2 SWAP1 PUSH2 0xB25 JUMP JUMPDEST PUSH1 0x40 MLOAD DUP1 SWAP2 SUB SWAP1 RETURN JUMPDEST PUSH0 PUSH1 0x2 DUP2 GT ISZERO PUSH2 0x216 JUMPI PUSH2 0x215 PUSH2 0xA99 JUMP JUMPDEST JUMPDEST PUSH0 PUSH0 SWAP1 SLOAD SWAP1 PUSH2 0x100 EXP SWAP1 DIV PUSH1 0xFF AND PUSH1 0x2 DUP2 GT ISZERO PUSH2 0x236 JUMPI PUSH2 0x235 PUSH2 0xA99 JUMP JUMPDEST JUMPDEST EQ PUSH2 0x276 JUMPI PUSH1 0x40 MLOAD PUSH32 0x8C379A000000000000000000000000000000000000000000000000000000000 DUP2 MSTORE PUSH1 0x4 ADD PUSH2 0x26D SWAP1 PUSH2 0xB88 JUMP JUMPDEST PUSH1 0x40 MLOAD DUP1 SWAP2 SUB SWAP1 REVERT JUMPDEST PUSH0 CALLVALUE GT PUSH2 0x2B8 JUMPI PUSH1 0x40 MLOAD PUSH32 0x8C379A000000000000000000000000000000000000000000000000000000000 DUP2 MSTORE PUSH1 0x4 ADD PUSH2 0x2AF SWAP1 PUSH2 0xC16 JUMP JUMPDEST PUSH1 0x40 MLOAD DUP1 SWAP2 SUB SWAP1 REVERT JUMPDEST PUSH0 DUP2 PUSH1 0xFF AND EQ DUP1 PUSH2 0x2CC JUMPI POP PUSH1 0x1 DUP2 PUSH1 0xFF AND EQ JUMPDEST PUSH2 0x30B JUMPI PUSH1 0x40 MLOAD PUSH32 0x8C379A000000000000000000000000000000000000000000000000000000000 DUP2 MSTORE PUSH1 0x4 ADD PUSH2 0x302 SWAP1 PUSH2 0xC7E JUMP JUMPDEST PUSH1 0x40 MLOAD DUP1 SWAP2 SUB SWAP1 REVERT JUMPDEST PUSH1 0x40 MLOAD DUP1 PUSH1 0x40 ADD PUSH1 0x40 MSTORE DUP1 CALLVALUE DUP2 MSTORE PUSH1 0x20 ADD DUP3 PUSH1 0xFF AND DUP2 MSTORE POP PUSH1 0x1 PUSH0 CALLER PUSH20 0xFFFFFFFFFFFFFFFFFFFFFFFFFFFFFFFFFFFFFFFF AND PUSH20 0xFFFFFFFFFFFFFFFFFFFFFFFFFFFFFFFFFFFFFFFF AND DUP2 MSTORE PUSH1 0x20 ADD SWAP1 DUP2 MSTORE PUSH1 0x20 ADD PUSH0 KECCAK256 PUSH0 DUP3 ADD MLOAD DUP2 PUSH0 ADD SSTORE PUSH1 0x20 DUP3 ADD MLOAD DUP2 PUSH1 0x1 ADD PUSH0 PUSH2 0x100 EXP DUP2 SLOAD DUP2 PUSH1 0xFF MUL NOT AND SWAP1 DUP4 PUSH1 0xFF AND MUL OR SWAP1 SSTORE POP SWAP1 POP POP CALLER PUSH20 0xFFFFFFFFFFFFFFFFFFFFFFFFFFFFFFFFFFFFFFFF AND PUSH32 0x7DF19A783369D9CEFB06E18B396518F817B48766B74157758EDA633A62F58FA7 CALLVALUE DUP4 PUSH1 0x40 MLOAD PUSH2 0x3D3 SWAP3 SWAP2 SWAP1 PUSH2 0xA4A JUMP JUMPDEST PUSH1 0x40 MLOAD DUP1 SWAP2 SUB SWAP1 LOG2 POP JUMP JUMPDEST PUSH0 PUSH1 0x1 SWAP1 SLOAD SWAP1 PUSH2 0x100 EXP SWAP1 DIV PUSH20 0xFFFFFFFFFFFFFFFFFFFFFFFFFFFFFFFFFFFFFFFF AND PUSH20 0xFFFFFFFFFFFFFFFFFFFFFFFFFFFFFFFFFFFFFFFF AND CALLER PUSH20 0xFFFFFFFFFFFFFFFFFFFFFFFFFFFFFFFFFFFFFFFF AND EQ PUSH2 0x46D JUMPI PUSH1 0x40 MLOAD PUSH32 0x8C379A000000000000000000000000000000000000000000000000000000000 DUP2 MSTORE PUSH1 0x4 ADD PUSH2 0x464 SWAP1 PUSH2 0xD0C JUMP JUMPDEST PUSH1 0x40 MLOAD DUP1 SWAP2 SUB SWAP1 REVERT JUMPDEST PUSH0 PUSH1 0x2 DUP2 GT ISZERO PUSH2 0x480 JUMPI PUSH2 0x47F PUSH2 0xA99 JUMP JUMPDEST JUMPDEST PUSH0 PUSH0 SWAP1 SLOAD SWAP1 PUSH2 0x100 EXP SWAP1 DIV PUSH1 0xFF AND PUSH1 0x2 DUP2 GT ISZERO PUSH2 0x4A0 JUMPI PUSH2 0x49F PUSH2 0xA99 JUMP JUMPDEST JUMPDEST EQ PUSH2 0x4E0 JUMPI PUSH1 0x40 MLOAD PUSH32 0x8C379A000000000000000000000000000000000000000000000000000000000 DUP2 MSTORE PUSH1 0x4 ADD PUSH2 0x4D7 SWAP1 PUSH2 0xD9A JUMP JUMPDEST PUSH1 0x40 MLOAD DUP1 SWAP2 SUB SWAP1 REVERT JUMPDEST PUSH0 DUP2 PUSH1 0xFF AND EQ DUP1 PUSH2 0x4F4 JUMPI POP PUSH1 0x1 DUP2 PUSH1 0xFF AND EQ JUMPDEST PUSH2 0x533 JUMPI PUSH1 0x40 MLOAD PUSH32 0x8C379A000000000000000000000000000000000000000000000000000000000 DUP2 MSTORE PUSH1 0x4 ADD PUSH2 0x52A SWAP1 PUSH2 0xE02 JUMP JUMPDEST PUSH1 0x40 MLOAD DUP1 SWAP2 SUB SWAP1 REVERT JUMPDEST DUP1 PUSH0 PUSH1 0x15 PUSH2 0x100 EXP DUP2 SLOAD DUP2 PUSH1 0xFF MUL NOT AND SWAP1 DUP4 PUSH1 0xFF AND MUL OR SWAP1 SSTORE POP PUSH1 0x2 PUSH0 PUSH0 PUSH2 0x100 EXP DUP2 SLOAD DUP2 PUSH1 0xFF MUL NOT AND SWAP1 DUP4 PUSH1 0x2 DUP2 GT ISZERO PUSH2 0x571 JUMPI PUSH2 0x570 PUSH2 0xA99 JUMP JUMPDEST JUMPDEST MUL OR SWAP1 SSTORE POP PUSH32 0xD6BCD4B6873D691163F1AFF2D5585378623AEF08E17513A5253EABE39C65DC50 DUP2 PUSH1 0x40 MLOAD PUSH2 0x5A5 SWAP2 SWAP1 PUSH2 0xB25 JUMP JUMPDEST PUSH1 0x40 MLOAD DUP1 SWAP2 SUB SWAP1 LOG1 POP JUMP JUMPDEST PUSH1 0x1 PUSH1 0x20 MSTORE DUP1 PUSH0 MSTORE PUSH1 0x40 PUSH0 KECCAK256 PUSH0 SWAP2 POP SWAP1 POP DUP1 PUSH0 ADD SLOAD SWAP1 DUP1 PUSH1 0x1 ADD PUSH0 SWAP1 SLOAD SWAP1 PUSH2 0x100 EXP SWAP1 DIV PUSH1 0xFF AND SWAP1 POP DUP3 JUMP JUMPDEST PUSH0 PUSH1 0x1 SWAP1 SLOAD SWAP1 PUSH2 0x100 EXP SWAP1 DIV PUSH20 0xFFFFFFFFFFFFFFFFFFFFFFFFFFFFFFFFFFFFFFFF AND DUP2 JUMP JUMPDEST PUSH0 PUSH0 SWAP1 SLOAD SWAP1 PUSH2 0x100 EXP SWAP1 DIV PUSH1 0xFF AND DUP2 JUMP JUMPDEST PUSH1 0x2 DUP1 DUP2 GT ISZERO PUSH2 0x625 JUMPI PUSH2 0x624 PUSH2 0xA99 JUMP JUMPDEST JUMPDEST PUSH0 PUSH0 SWAP1 SLOAD SWAP1 PUSH2 0x100 EXP SWAP1 DIV PUSH1 0xFF AND PUSH1 0x2 DUP2 GT ISZERO PUSH2 0x645 JUMPI PUSH2 0x644 PUSH2 0xA99 JUMP JUMPDEST JUMPDEST EQ PUSH2 0x685 JUMPI PUSH1 0x40 MLOAD PUSH32 0x8C379A000000000000000000000000000000000000000000000000000000000 DUP2 MSTORE PUSH1 0x4 ADD PUSH2 0x67C SWAP1 PUSH2 0xE90 JUMP JUMPDEST PUSH1 0x40 MLOAD DUP1 SWAP2 SUB SWAP1 REVERT JUMPDEST PUSH0 PUSH1 0x1 PUSH0 CALLER PUSH20 0xFFFFFFFFFFFFFFFFFFFFFFFFFFFFFFFFFFFFFFFF AND PUSH20 0xFFFFFFFFFFFFFFFFFFFFFFFFFFFFFFFFFFFFFFFF AND DUP2 MSTORE PUSH1 0x20 ADD SWAP1 DUP2 MSTORE PUSH1 0x20 ADD PUSH0 KECCAK256 SWAP1 POP PUSH0 DUP2 PUSH0 ADD SLOAD GT PUSH2 0x70A JUMPI PUSH1 0x40 MLOAD PUSH32 0x8C379A000000000000000000000000000000000000000000000000000000000 DUP2 MSTORE PUSH1 0x4 ADD PUSH2 0x701 SWAP1 PUSH2 0xEF8 JUMP JUMPDEST PUSH1 0x40 MLOAD DUP1 SWAP2 SUB SWAP1 REVERT JUMPDEST PUSH0 PUSH1 0x15 SWAP1 SLOAD SWAP1 PUSH2 0x100 EXP SWAP1 DIV PUSH1 0xFF AND PUSH1 0xFF AND DUP2 PUSH1 0x1 ADD PUSH0 SWAP1 SLOAD SWAP1 PUSH2 0x100 EXP SWAP1 DIV PUSH1 0xFF AND PUSH1 0xFF AND EQ PUSH2 0x770 JUMPI PUSH1 0x40 MLOAD PUSH32 0x8C379A000000000000000000000000000000000000000000000000000000000 DUP2 MSTORE PUSH1 0x4 ADD PUSH2 0x767 SWAP1 PUSH2 0xF86 JUMP JUMPDEST PUSH1 0x40 MLOAD DUP1 SWAP2 SUB SWAP1 REVERT JUMPDEST PUSH0 PUSH1 0x3 DUP3 PUSH0 ADD SLOAD PUSH2 0x781 SWAP2 SWAP1 PUSH2 0xFD1 JUMP JUMPDEST SWAP1 POP PUSH0 DUP3 PUSH0 ADD DUP2 SWAP1 SSTORE POP CALLER PUSH20 0xFFFFFFFFFFFFFFFFFFFFFFFFFFFFFFFFFFFFFFFF AND PUSH2 0x8FC DUP3 SWAP1 DUP2 ISZERO MUL SWAP1 PUSH1 0x40 MLOAD PUSH0 PUSH1 0x40 MLOAD DUP1 DUP4 SUB DUP2 DUP6 DUP9 DUP9 CALL SWAP4 POP POP POP POP ISZERO DUP1 ISZERO PUSH2 0x7CE JUMPI RETURNDATASIZE PUSH0 PUSH0 RETURNDATACOPY RETURNDATASIZE PUSH0 REVERT JUMPDEST POP CALLER PUSH20 0xFFFFFFFFFFFFFFFFFFFFFFFFFFFFFFFFFFFFFFFF AND PUSH32 0x24215BBAF0832FA4D6FFEF16DEE3971D8B714921FEF3AD63F793D578983C6DC2 DUP3 PUSH1 0x40 MLOAD PUSH2 0x815 SWAP2 SWAP1 PUSH2 0x1012 JUMP JUMPDEST PUSH1 0x40 MLOAD DUP1 SWAP2 SUB SWAP1 LOG2 POP POP JUMP JUMPDEST PUSH0 PUSH1 0x15 SWAP1 SLOAD SWAP1 PUSH2 0x100 EXP SWAP1 DIV PUSH1 0xFF AND DUP2 JUMP JUMPDEST PUSH0 DUP3 DUP3 MSTORE PUSH1 0x20 DUP3 ADD SWAP1 POP SWAP3 SWAP2 POP POP JUMP JUMPDEST PUSH32 0x446972656374207472616E7366657273206E6F7420616C6C6F7765642C207573 PUSH0 DUP3 ADD MSTORE PUSH32 0x6520706C61636542657400000000000000000000000000000000000000000000 PUSH1 0x20 DUP3 ADD MSTORE POP JUMP JUMPDEST PUSH0 PUSH2 0x89D PUSH1 0x2A DUP4 PUSH2 0x833 JUMP JUMPDEST SWAP2 POP PUSH2 0x8A8 DUP3 PUSH2 0x843 JUMP JUMPDEST PUSH1 0x40 DUP3 ADD SWAP1 POP SWAP2 SWAP1 POP JUMP JUMPDEST PUSH0 PUSH1 0x20 DUP3 ADD SWAP1 POP DUP2 DUP2 SUB PUSH0 DUP4 ADD MSTORE PUSH2 0x8CA DUP2 PUSH2 0x891 JUMP JUMPDEST SWAP1 POP SWAP2 SWAP1 POP JUMP JUMPDEST PUSH32 0x506C656173652075736520706C61636542657420746F2073656E642045544800 PUSH0 DUP3 ADD MSTORE POP JUMP JUMPDEST PUSH0 PUSH2 0x905 PUSH1 0x1F DUP4 PUSH2 0x833 JUMP JUMPDEST SWAP2 POP PUSH2 0x910 DUP3 PUSH2 0x8D1 JUMP JUMPDEST PUSH1 0x20 DUP3 ADD SWAP1 POP SWAP2 SWAP1 POP JUMP JUMPDEST PUSH0 PUSH1 0x20 DUP3 ADD SWAP1 POP DUP2 DUP2 SUB PUSH0 DUP4 ADD MSTORE PUSH2 0x932 DUP2 PUSH2 0x8F9 JUMP JUMPDEST SWAP1 POP SWAP2 SWAP1 POP JUMP JUMPDEST PUSH0 PUSH0 REVERT JUMPDEST PUSH0 PUSH1 0xFF DUP3 AND SWAP1 POP SWAP2 SWAP1 POP JUMP JUMPDEST PUSH2 0x952 DUP2 PUSH2 0x93D JUMP JUMPDEST DUP2 EQ PUSH2 0x95C JUMPI PUSH0 PUSH0 REVERT JUMPDEST POP JUMP JUMPDEST PUSH0 DUP2 CALLDATALOAD SWAP1 POP PUSH2 0x96D DUP2 PUSH2 0x949 JUMP JUMPDEST SWAP3 SWAP2 POP POP JUMP JUMPDEST PUSH0 PUSH1 0x20 DUP3 DUP5 SUB SLT ISZERO PUSH2 0x988 JUMPI PUSH2 0x987 PUSH2 0x939 JUMP JUMPDEST JUMPDEST PUSH0 PUSH2 0x995 DUP5 DUP3 DUP6 ADD PUSH2 0x95F JUMP JUMPDEST SWAP2 POP POP SWAP3 SWAP2 POP POP JUMP JUMPDEST PUSH0 PUSH20 0xFFFFFFFFFFFFFFFFFFFFFFFFFFFFFFFFFFFFFFFF DUP3 AND SWAP1 POP SWAP2 SWAP1 POP JUMP JUMPDEST PUSH0 PUSH2 0x9C7 DUP3 PUSH2 0x99E JUMP JUMPDEST SWAP1 POP SWAP2 SWAP1 POP JUMP JUMPDEST PUSH2 0x9D7 DUP2 PUSH2 0x9BD JUMP JUMPDEST DUP2 EQ PUSH2 0x9E1 JUMPI PUSH0 PUSH0 REVERT JUMPDEST POP JUMP JUMPDEST PUSH0 DUP2 CALLDATALOAD SWAP1 POP PUSH2 0x9F2 DUP2 PUSH2 0x9CE JUMP JUMPDEST SWAP3 SWAP2 POP POP JUMP JUMPDEST PUSH0 PUSH1 0x20 DUP3 DUP5 SUB SLT ISZERO PUSH2 0xA0D JUMPI PUSH2 0xA0C PUSH2 0x939 JUMP JUMPDEST JUMPDEST PUSH0 PUSH2 0xA1A DUP5 DUP3 DUP6 ADD PUSH2 0x9E4 JUMP JUMPDEST SWAP2 POP POP SWAP3 SWAP2 POP POP JUMP JUMPDEST PUSH0 DUP2 SWAP1 POP SWAP2 SWAP1 POP JUMP JUMPDEST PUSH2 0xA35 DUP2 PUSH2 0xA23 JUMP JUMPDEST DUP3 MSTORE POP POP JUMP JUMPDEST PUSH2 0xA44 DUP2 PUSH2 0x93D JUMP JUMPDEST DUP3 MSTORE POP POP JUMP JUMPDEST PUSH0 PUSH1 0x40 DUP3 ADD SWAP1 POP PUSH2 0xA5D PUSH0 DUP4 ADD DUP6 PUSH2 0xA2C JUMP JUMPDEST PUSH2 0xA6A PUSH1 0x20 DUP4 ADD DUP5 PUSH2 0xA3B JUMP JUMPDEST SWAP4 SWAP3 POP POP POP JUMP JUMPDEST PUSH2 0xA7A DUP2 PUSH2 0x9BD JUMP JUMPDEST DUP3 MSTORE POP POP JUMP JUMPDEST PUSH0 PUSH1 0x20 DUP3 ADD SWAP1 POP PUSH2 0xA93 PUSH0 DUP4 ADD DUP5 PUSH2 0xA71 JUMP JUMPDEST SWAP3 SWAP2 POP POP JUMP JUMPDEST PUSH32 0x4E487B7100000000000000000000000000000000000000000000000000000000 PUSH0 MSTORE PUSH1 0x21 PUSH1 0x4 MSTORE PUSH1 0x24 PUSH0 REVERT JUMPDEST PUSH1 0x3 DUP2 LT PUSH2 0xAD7 JUMPI PUSH2 0xAD6 PUSH2 0xA99 JUMP JUMPDEST JUMPDEST POP JUMP JUMPDEST PUSH0 DUP2 SWAP1 POP PUSH2 0xAE7 DUP3 PUSH2 0xAC6 JUMP JUMPDEST SWAP2 SWAP1 POP JUMP JUMPDEST PUSH0 PUSH2 0xAF6 DUP3 PUSH2 0xADA JUMP JUMPDEST SWAP1 POP SWAP2 SWAP1 POP JUMP JUMPDEST PUSH2 0xB06 DUP2 PUSH2 0xAEC JUMP JUMPDEST DUP3 MSTORE POP POP JUMP JUMPDEST PUSH0 PUSH1 0x20 DUP3 ADD SWAP1 POP PUSH2 0xB1F PUSH0 DUP4 ADD DUP5 PUSH2 0xAFD JUMP JUMPDEST SWAP3 SWAP2 POP POP JUMP JUMPDEST PUSH0 PUSH1 0x20 DUP3 ADD SWAP1 POP PUSH2 0xB38 PUSH0 DUP4 ADD DUP5 PUSH2 0xA3B JUMP JUMPDEST SWAP3 SWAP2 POP POP JUMP JUMPDEST PUSH32 0x42657474696E672069732063757272656E746C7920636C6F7365640000000000 PUSH0 DUP3 ADD MSTORE POP JUMP JUMPDEST PUSH0 PUSH2 0xB72 PUSH1 0x1B DUP4 PUSH2 0x833 JUMP JUMPDEST SWAP2 POP PUSH2 0xB7D DUP3 PUSH2 0xB3E JUMP JUMPDEST PUSH1 0x20 DUP3 ADD SWAP1 POP SWAP2 SWAP1 POP JUMP JUMPDEST PUSH0 PUSH1 0x20 DUP3 ADD SWAP1 POP DUP2 DUP2 SUB PUSH0 DUP4 ADD MSTORE PUSH2 0xB9F DUP2 PUSH2 0xB66 JUMP JUMPDEST SWAP1 POP SWAP2 SWAP1 POP JUMP JUMPDEST PUSH32 0x42657474696E6720616D6F756E74206D75737420626520677265617465722074 PUSH0 DUP3 ADD MSTORE PUSH32 0x68616E2030000000000000000000000000000000000000000000000000000000 PUSH1 0x20 DUP3 ADD MSTORE POP JUMP JUMPDEST PUSH0 PUSH2 0xC00 PUSH1 0x25 DUP4 PUSH2 0x833 JUMP JUMPDEST SWAP2 POP PUSH2 0xC0B DUP3 PUSH2 0xBA6 JUMP JUMPDEST PUSH1 0x40 DUP3 ADD SWAP1 POP SWAP2 SWAP1 POP JUMP JUMPDEST PUSH0 PUSH1 0x20 DUP3 ADD SWAP1 POP DUP2 DUP2 SUB PUSH0 DUP4 ADD MSTORE PUSH2 0xC2D DUP2 PUSH2 0xBF4 JUMP JUMPDEST SWAP1 POP SWAP2 SWAP1 POP JUMP JUMPDEST PUSH32 0x496E76616C6964207465616D2073656C656374696F6E00000000000000000000 PUSH0 DUP3 ADD MSTORE POP JUMP JUMPDEST PUSH0 PUSH2 0xC68 PUSH1 0x16 DUP4 PUSH2 0x833 JUMP JUMPDEST SWAP2 POP PUSH2 0xC73 DUP3 PUSH2 0xC34 JUMP JUMPDEST PUSH1 0x20 DUP3 ADD SWAP1 POP SWAP2 SWAP1 POP JUMP JUMPDEST PUSH0 PUSH1 0x20 DUP3 ADD SWAP1 POP DUP2 DUP2 SUB PUSH0 DUP4 ADD MSTORE PUSH2 0xC95 DUP2 PUSH2 0xC5C JUMP JUMPDEST SWAP1 POP SWAP2 SWAP1 POP JUMP JUMPDEST PUSH32 0x4F6E6C792074686520636F6E7472616374206F776E65722063616E2070657266 PUSH0 DUP3 ADD MSTORE PUSH32 0x6F726D207468697320616374696F6E0000000000000000000000000000000000 PUSH1 0x20 DUP3 ADD MSTORE POP JUMP JUMPDEST PUSH0 PUSH2 0xCF6 PUSH1 0x2F DUP4 PUSH2 0x833 JUMP JUMPDEST SWAP2 POP PUSH2 0xD01 DUP3 PUSH2 0xC9C JUMP JUMPDEST PUSH1 0x40 DUP3 ADD SWAP1 POP SWAP2 SWAP1 POP JUMP JUMPDEST PUSH0 PUSH1 0x20 DUP3 ADD SWAP1 POP DUP2 DUP2 SUB PUSH0 DUP4 ADD MSTORE PUSH2 0xD23 DUP2 PUSH2 0xCEA JUMP JUMPDEST SWAP1 POP SWAP2 SWAP1 POP JUMP JUMPDEST PUSH32 0x42657474696E6720697320616C726561647920636C6F736564206F7220726573 PUSH0 DUP3 ADD MSTORE PUSH32 0x6F6C766564000000000000000000000000000000000000000000000000000000 PUSH1 0x20 DUP3 ADD MSTORE POP JUMP JUMPDEST PUSH0 PUSH2 0xD84 PUSH1 0x25 DUP4 PUSH2 0x833 JUMP JUMPDEST SWAP2 POP PUSH2 0xD8F DUP3 PUSH2 0xD2A JUMP JUMPDEST PUSH1 0x40 DUP3 ADD SWAP1 POP SWAP2 SWAP1 POP JUMP JUMPDEST PUSH0 PUSH1 0x20 DUP3 ADD SWAP1 POP DUP2 DUP2 SUB PUSH0 DUP4 ADD MSTORE PUSH2 0xDB1 DUP2 PUSH2 0xD78 JUMP JUMPDEST SWAP1 POP SWAP2 SWAP1 POP JUMP JUMPDEST PUSH32 0x496E76616C6964207465616D0000000000000000000000000000000000000000 PUSH0 DUP3 ADD MSTORE POP JUMP JUMPDEST PUSH0 PUSH2 0xDEC PUSH1 0xC DUP4 PUSH2 0x833 JUMP JUMPDEST SWAP2 POP PUSH2 0xDF7 DUP3 PUSH2 0xDB8 JUMP JUMPDEST PUSH1 0x20 DUP3 ADD SWAP1 POP SWAP2 SWAP1 POP JUMP JUMPDEST PUSH0 PUSH1 0x20 DUP3 ADD SWAP1 POP DUP2 DUP2 SUB PUSH0 DUP4 ADD MSTORE PUSH2 0xE19 DUP2 PUSH2 0xDE0 JUMP JUMPDEST SWAP1 POP SWAP2 SWAP1 POP JUMP JUMPDEST PUSH32 0x42657474696E6720686173206E6F74206265656E207265736F6C766564207965 PUSH0 DUP3 ADD MSTORE PUSH32 0x7400000000000000000000000000000000000000000000000000000000000000 PUSH1 0x20 DUP3 ADD MSTORE POP JUMP JUMPDEST PUSH0 PUSH2 0xE7A PUSH1 0x21 DUP4 PUSH2 0x833 JUMP JUMPDEST SWAP2 POP PUSH2 0xE85 DUP3 PUSH2 0xE20 JUMP JUMPDEST PUSH1 0x40 DUP3 ADD SWAP1 POP SWAP2 SWAP1 POP JUMP JUMPDEST PUSH0 PUSH1 0x20 DUP3 ADD SWAP1 POP DUP2 DUP2 SUB PUSH0 DUP4 ADD MSTORE PUSH2 0xEA7 DUP2 PUSH2 0xE6E JUMP JUMPDEST SWAP1 POP SWAP2 SWAP1 POP JUMP JUMPDEST PUSH32 0x596F7520646964206E6F7420706C61636520616E792062657400000000000000 PUSH0 DUP3 ADD MSTORE POP JUMP JUMPDEST PUSH0 PUSH2 0xEE2 PUSH1 0x19 DUP4 PUSH2 0x833 JUMP JUMPDEST SWAP2 POP PUSH2 0xEED DUP3 PUSH2 0xEAE JUMP JUMPDEST PUSH1 0x20 DUP3 ADD SWAP1 POP SWAP2 SWAP1 POP JUMP JUMPDEST PUSH0 PUSH1 0x20 DUP3 ADD SWAP1 POP DUP2 DUP2 SUB PUSH0 DUP4 ADD MSTORE PUSH2 0xF0F DUP2 PUSH2 0xED6 JUMP JUMPDEST SWAP1 POP SWAP2 SWAP1 POP JUMP JUMPDEST PUSH32 0x596F7520646964206E6F7420626574206F6E207468652077696E6E696E672074 PUSH0 DUP3 ADD MSTORE PUSH32 0x65616D0000000000000000000000000000000000000000000000000000000000 PUSH1 0x20 DUP3 ADD MSTORE POP JUMP JUMPDEST PUSH0 PUSH2 0xF70 PUSH1 0x23 DUP4 PUSH2 0x833 JUMP JUMPDEST SWAP2 POP PUSH2 0xF7B DUP3 PUSH2 0xF16 JUMP JUMPDEST PUSH1 0x40 DUP3 ADD SWAP1 POP SWAP2 SWAP1 POP JUMP JUMPDEST PUSH0 PUSH1 0x20 DUP3 ADD SWAP1 POP DUP2 DUP2 SUB PUSH0 DUP4 ADD MSTORE PUSH2 0xF9D DUP2 PUSH2 0xF64 JUMP JUMPDEST SWAP1 POP SWAP2 SWAP1 POP JUMP JUMPDEST PUSH32 0x4E487B7100000000000000000000000000000000000000000000000000000000 PUSH0 MSTORE PUSH1 0x11 PUSH1 0x4 MSTORE PUSH1 0x24 PUSH0 REVERT JUMPDEST PUSH0 PUSH2 0xFDB DUP3 PUSH2 0xA23 JUMP JUMPDEST SWAP2 POP PUSH2 0xFE6 DUP4 PUSH2 0xA23 JUMP JUMPDEST SWAP3 POP DUP3 DUP3 MUL PUSH2 0xFF4 DUP2 PUSH2 0xA23 JUMP JUMPDEST SWAP2 POP DUP3 DUP3 DIV DUP5 EQ DUP4 ISZERO OR PUSH2 0x100B JUMPI PUSH2 0x100A PUSH2 0xFA4 JUMP JUMPDEST JUMPDEST POP SWAP3 SWAP2 POP POP JUMP JUMPDEST PUSH0 PUSH1 0x20 DUP3 ADD SWAP1 POP PUSH2 0x1025 PUSH0 DUP4 ADD DUP5 PUSH2 0xA2C JUMP JUMPDEST SWAP3 SWAP2 POP POP JUMP INVALID LOG2 PUSH5 0x6970667358 0x22 SLT KECCAK256 SELFBALANCE DELEGATECALL PUSH14 0x3E5D080109FBC74F3FD55EF2BA5C PUSH11 0xDB9B53A3495EEDDE360C96 SWAP9 PUSH28 0x5664736F6C634300081B003300000000000000000000000000000000 "
				},
				"gasEstimates": {
					"creation": {
						"codeDepositCost": "838600",
						"executionCost": "49486",
						"totalCost": "888086"
					},
					"external": {
						"": "445",
						"bets(address)": "5112",
						"owner()": "2558",
						"placeBet(uint8)": "infinite",
						"setWinningTeam(uint8)": "infinite",
						"state()": "2575",
						"winningTeam()": "2582",
						"withdrawWinnings()": "infinite"
					}
				},
				"methodIdentifiers": {
					"bets(address)": "89a78f1a",
					"owner()": "8da5cb5b",
					"placeBet(uint8)": "43046844",
					"setWinningTeam(uint8)": "853840cd",
					"state()": "c19d93fb",
					"winningTeam()": "de3f18e2",
					"withdrawWinnings()": "cc42e83a"
				}
			},
			"storageLayout": {
				"storage": [
					{
						"astId": 8,
						"contract": "gpt.sol:BettingContract",
						"label": "state",
						"offset": 0,
						"slot": "0",
						"type": "t_enum(BettingState)5"
					},
					{
						"astId": 10,
						"contract": "gpt.sol:BettingContract",
						"label": "owner",
						"offset": 1,
						"slot": "0",
						"type": "t_address"
					},
					{
						"astId": 12,
						"contract": "gpt.sol:BettingContract",
						"label": "winningTeam",
						"offset": 21,
						"slot": "0",
						"type": "t_uint8"
					},
					{
						"astId": 22,
						"contract": "gpt.sol:BettingContract",
						"label": "bets",
						"offset": 0,
						"slot": "1",
						"type": "t_mapping(t_address,t_struct(Bet)17_storage)"
					}
				],
				"types": {
					"t_address": {
						"encoding": "inplace",
						"label": "address",
						"numberOfBytes": "20"
					},
					"t_enum(BettingState)5": {
						"encoding": "inplace",
						"label": "enum BettingContract.BettingState",
						"numberOfBytes": "1"
					},
					"t_mapping(t_address,t_struct(Bet)17_storage)": {
						"encoding": "mapping",
						"key": "t_address",
						"label": "mapping(address => struct BettingContract.Bet)",
						"numberOfBytes": "32",
						"value": "t_struct(Bet)17_storage"
					},
					"t_struct(Bet)17_storage": {
						"encoding": "inplace",
						"label": "struct BettingContract.Bet",
						"members": [
							{
								"astId": 14,
								"contract": "gpt.sol:BettingContract",
								"label": "amount",
								"offset": 0,
								"slot": "0",
								"type": "t_uint256"
							},
							{
								"astId": 16,
								"contract": "gpt.sol:BettingContract",
								"label": "team",
								"offset": 0,
								"slot": "1",
								"type": "t_uint8"
							}
						],
						"numberOfBytes": "64"
					},
					"t_uint256": {
						"encoding": "inplace",
						"label": "uint256",
						"numberOfBytes": "32"
					},
					"t_uint8": {
						"encoding": "inplace",
						"label": "uint8",
						"numberOfBytes": "1"
					}
				}
			},
			"userdoc": {
				"kind": "user",
				"methods": {},
				"version": 1
			}
		}
	}
}