{
	"lab-Betting contract.sol": {
		"Bettingcontract": {
			"abi": [
				{
					"anonymous": false,
					"inputs": [
						{
							"indexed": true,
							"internalType": "address",
							"name": "user",
							"type": "address"
						},
						{
							"indexed": false,
							"internalType": "uint256",
							"name": "amount",
							"type": "uint256"
						},
						{
							"indexed": false,
							"internalType": "uint8",
							"name": "team",
							"type": "uint8"
						}
					],
					"name": "BetPlaced",
					"type": "event"
				},
				{
					"anonymous": false,
					"inputs": [
						{
							"indexed": false,
							"internalType": "uint8",
							"name": "winningteam",
							"type": "uint8"
						}
					],
					"name": "BetResolved",
					"type": "event"
				},
				{
					"inputs": [
						{
							"internalType": "address",
							"name": "",
							"type": "address"
						}
					],
					"name": "bets",
					"outputs": [
						{
							"internalType": "uint256",
							"name": "amount",
							"type": "uint256"
						},
						{
							"internalType": "uint8",
							"name": "team",
							"type": "uint8"
						}
					],
					"stateMutability": "view",
					"type": "function"
				},
				{
					"inputs": [
						{
							"internalType": "uint8",
							"name": "_team",
							"type": "uint8"
						}
					],
					"name": "placebet",
					"outputs": [],
					"stateMutability": "payable",
					"type": "function"
				},
				{
					"inputs": [
						{
							"internalType": "uint8",
							"name": "_team",
							"type": "uint8"
						}
					],
					"name": "setwinningteam",
					"outputs": [],
					"stateMutability": "nonpayable",
					"type": "function"
				},
				{
					"inputs": [],
					"name": "state",
					"outputs": [
						{
							"internalType": "enum Bettingcontract.bettingstate",
							"name": "",
							"type": "uint8"
						}
					],
					"stateMutability": "view",
					"type": "function"
				},
				{
					"inputs": [],
					"name": "winningteam",
					"outputs": [
						{
							"internalType": "uint8",
							"name": "",
							"type": "uint8"
						}
					],
					"stateMutability": "view",
					"type": "function"
				},
				{
					"inputs": [],
					"name": "withdraw",
					"outputs": [],
					"stateMutability": "payable",
					"type": "function"
				}
			],
			"devdoc": {
				"kind": "dev",
				"methods": {},
				"version": 1
			},
			"evm": {
				"assembly": "    /* \"lab-Betting contract.sol\":140:1533  contract Bettingcontract{... */\n  mstore(0x40, 0x80)\n  callvalue\n  dup1\n  iszero\n  tag_1\n  jumpi\n  revert(0x00, 0x00)\ntag_1:\n  pop\n  dataSize(sub_0)\n  dup1\n  dataOffset(sub_0)\n  0x00\n  codecopy\n  0x00\n  return\nstop\n\nsub_0: assembly {\n        /* \"lab-Betting contract.sol\":140:1533  contract Bettingcontract{... */\n      mstore(0x40, 0x80)\n      jumpi(tag_1, lt(calldatasize, 0x04))\n      shr(0xe0, calldataload(0x00))\n      dup1\n      0x0b9a6379\n      eq\n      tag_2\n      jumpi\n      dup1\n      0x3ccfd60b\n      eq\n      tag_3\n      jumpi\n      dup1\n      0x4b9419a7\n      eq\n      tag_4\n      jumpi\n      dup1\n      0x89a78f1a\n      eq\n      tag_5\n      jumpi\n      dup1\n      0x92b2090f\n      eq\n      tag_6\n      jumpi\n      dup1\n      0xc19d93fb\n      eq\n      tag_7\n      jumpi\n    tag_1:\n      revert(0x00, 0x00)\n        /* \"lab-Betting contract.sol\":472:869  function placebet(uint8 _team) external payable {... */\n    tag_2:\n      tag_8\n      0x04\n      dup1\n      calldatasize\n      sub\n      dup2\n      add\n      swap1\n      tag_9\n      swap2\n      swap1\n      tag_10\n      jump\t// in\n    tag_9:\n      tag_11\n      jump\t// in\n    tag_8:\n      stop\n        /* \"lab-Betting contract.sol\":1122:1530  function withdraw() external payable {... */\n    tag_3:\n      tag_12\n      tag_13\n      jump\t// in\n    tag_12:\n      stop\n        /* \"lab-Betting contract.sol\":871:1120  function setwinningteam(uint8 _team) external {... */\n    tag_4:\n      callvalue\n      dup1\n      iszero\n      tag_14\n      jumpi\n      revert(0x00, 0x00)\n    tag_14:\n      pop\n      tag_15\n      0x04\n      dup1\n      calldatasize\n      sub\n      dup2\n      add\n      swap1\n      tag_16\n      swap2\n      swap1\n      tag_10\n      jump\t// in\n    tag_16:\n      tag_17\n      jump\t// in\n    tag_15:\n      stop\n        /* \"lab-Betting contract.sol\":327:361  mapping (address=>Bet) public bets */\n    tag_5:\n      callvalue\n      dup1\n      iszero\n      tag_18\n      jumpi\n      revert(0x00, 0x00)\n    tag_18:\n      pop\n      tag_19\n      0x04\n      dup1\n      calldatasize\n      sub\n      dup2\n      add\n      swap1\n      tag_20\n      swap2\n      swap1\n      tag_21\n      jump\t// in\n    tag_20:\n      tag_22\n      jump\t// in\n    tag_19:\n      mload(0x40)\n      tag_23\n      swap3\n      swap2\n      swap1\n      tag_24\n      jump\t// in\n    tag_23:\n      mload(0x40)\n      dup1\n      swap2\n      sub\n      swap1\n      return\n        /* \"lab-Betting contract.sol\":248:272  uint8 public winningteam */\n    tag_6:\n      callvalue\n      dup1\n      iszero\n      tag_25\n      jumpi\n      revert(0x00, 0x00)\n    tag_25:\n      pop\n      tag_26\n      tag_27\n      jump\t// in\n    tag_26:\n      mload(0x40)\n      tag_28\n      swap2\n      swap1\n      tag_29\n      jump\t// in\n    tag_28:\n      mload(0x40)\n      dup1\n      swap2\n      sub\n      swap1\n      return\n        /* \"lab-Betting contract.sol\":216:241  bettingstate public state */\n    tag_7:\n      callvalue\n      dup1\n      iszero\n      tag_30\n      jumpi\n      revert(0x00, 0x00)\n    tag_30:\n      pop\n      tag_31\n      tag_32\n      jump\t// in\n    tag_31:\n      mload(0x40)\n      tag_33\n      swap2\n      swap1\n      tag_34\n      jump\t// in\n    tag_33:\n      mload(0x40)\n      dup1\n      swap2\n      sub\n      swap1\n      return\n        /* \"lab-Betting contract.sol\":472:869  function placebet(uint8 _team) external payable {... */\n    tag_11:\n        /* \"lab-Betting contract.sol\":542:559  bettingstate.open */\n      0x00\n        /* \"lab-Betting contract.sol\":535:559  state==bettingstate.open */\n      0x02\n      dup2\n      gt\n      iszero\n      tag_36\n      jumpi\n      tag_37\n      tag_38\n      jump\t// in\n    tag_37:\n    tag_36:\n        /* \"lab-Betting contract.sol\":535:540  state */\n      0x00\n      0x00\n      swap1\n      sload\n      swap1\n      0x0100\n      exp\n      swap1\n      div\n      0xff\n      and\n        /* \"lab-Betting contract.sol\":535:559  state==bettingstate.open */\n      0x02\n      dup2\n      gt\n      iszero\n      tag_39\n      jumpi\n      tag_40\n      tag_38\n      jump\t// in\n    tag_40:\n    tag_39:\n      eq\n        /* \"lab-Betting contract.sol\":527:596  require(state==bettingstate.open,\"sorry betting is currently closed\") */\n      tag_41\n      jumpi\n      mload(0x40)\n      0x08c379a000000000000000000000000000000000000000000000000000000000\n      dup2\n      mstore\n      0x04\n      add\n      tag_42\n      swap1\n      tag_43\n      jump\t// in\n    tag_42:\n      mload(0x40)\n      dup1\n      swap2\n      sub\n      swap1\n      revert\n    tag_41:\n        /* \"lab-Betting contract.sol\":621:622  0 */\n      0x00\n        /* \"lab-Betting contract.sol\":611:620  msg.value */\n      callvalue\n        /* \"lab-Betting contract.sol\":611:622  msg.value>0 */\n      gt\n        /* \"lab-Betting contract.sol\":603:662  require(msg.value>0,\"betting amount must be grater than 0\") */\n      tag_44\n      jumpi\n      mload(0x40)\n      0x08c379a000000000000000000000000000000000000000000000000000000000\n      dup2\n      mstore\n      0x04\n      add\n      tag_45\n      swap1\n      tag_46\n      jump\t// in\n    tag_45:\n      mload(0x40)\n      dup1\n      swap2\n      sub\n      swap1\n      revert\n    tag_44:\n        /* \"lab-Betting contract.sol\":684:685  0 */\n      0x00\n        /* \"lab-Betting contract.sol\":677:682  _team */\n      dup2\n        /* \"lab-Betting contract.sol\":677:685  _team==0 */\n      0xff\n      and\n      eq\n        /* \"lab-Betting contract.sol\":677:697  _team==0 || _team==1 */\n      dup1\n      tag_47\n      jumpi\n      pop\n        /* \"lab-Betting contract.sol\":696:697  1 */\n      0x01\n        /* \"lab-Betting contract.sol\":689:694  _team */\n      dup2\n        /* \"lab-Betting contract.sol\":689:697  _team==1 */\n      0xff\n      and\n      eq\n        /* \"lab-Betting contract.sol\":677:697  _team==0 || _team==1 */\n    tag_47:\n        /* \"lab-Betting contract.sol\":677:708  _team==0 || _team==1 ||_team==2 */\n      dup1\n      tag_48\n      jumpi\n      pop\n        /* \"lab-Betting contract.sol\":707:708  2 */\n      0x02\n        /* \"lab-Betting contract.sol\":700:705  _team */\n      dup2\n        /* \"lab-Betting contract.sol\":700:708  _team==2 */\n      0xff\n      and\n      eq\n        /* \"lab-Betting contract.sol\":677:708  _team==0 || _team==1 ||_team==2 */\n    tag_48:\n        /* \"lab-Betting contract.sol\":669:734  require(_team==0 || _team==1 ||_team==2,\"invalid team selection\") */\n      tag_49\n      jumpi\n      mload(0x40)\n      0x08c379a000000000000000000000000000000000000000000000000000000000\n      dup2\n      mstore\n      0x04\n      add\n      tag_50\n      swap1\n      tag_51\n      jump\t// in\n    tag_50:\n      mload(0x40)\n      dup1\n      swap2\n      sub\n      swap1\n      revert\n    tag_49:\n        /* \"lab-Betting contract.sol\":758:818  Bet({... */\n      mload(0x40)\n      dup1\n      0x40\n      add\n      0x40\n      mstore\n      dup1\n        /* \"lab-Betting contract.sol\":780:789  msg.value */\n      callvalue\n        /* \"lab-Betting contract.sol\":758:818  Bet({... */\n      dup2\n      mstore\n      0x20\n      add\n        /* \"lab-Betting contract.sol\":805:810  _team */\n      dup3\n        /* \"lab-Betting contract.sol\":758:818  Bet({... */\n      0xff\n      and\n      dup2\n      mstore\n      pop\n        /* \"lab-Betting contract.sol\":741:745  bets */\n      0x01\n        /* \"lab-Betting contract.sol\":741:757  bets[msg.sender] */\n      0x00\n        /* \"lab-Betting contract.sol\":746:756  msg.sender */\n      caller\n        /* \"lab-Betting contract.sol\":741:757  bets[msg.sender] */\n      0xffffffffffffffffffffffffffffffffffffffff\n      and\n      0xffffffffffffffffffffffffffffffffffffffff\n      and\n      dup2\n      mstore\n      0x20\n      add\n      swap1\n      dup2\n      mstore\n      0x20\n      add\n      0x00\n      keccak256\n        /* \"lab-Betting contract.sol\":741:818  bets[msg.sender]=Bet({... */\n      0x00\n      dup3\n      add\n      mload\n      dup2\n      0x00\n      add\n      sstore\n      0x20\n      dup3\n      add\n      mload\n      dup2\n      0x01\n      add\n      exp(0x0100, 0x00)\n      dup2\n      sload\n      dup2\n      0xff\n      mul\n      not\n      and\n      swap1\n      dup4\n      0xff\n      and\n      mul\n      or\n      swap1\n      sstore\n      pop\n      swap1\n      pop\n      pop\n        /* \"lab-Betting contract.sol\":836:846  msg.sender */\n      caller\n        /* \"lab-Betting contract.sol\":826:865  BetPlaced(msg.sender, msg.value, _team) */\n      0xffffffffffffffffffffffffffffffffffffffff\n      and\n      0x7df19a783369d9cefb06e18b396518f817b48766b74157758eda633a62f58fa7\n        /* \"lab-Betting contract.sol\":848:857  msg.value */\n      callvalue\n        /* \"lab-Betting contract.sol\":859:864  _team */\n      dup4\n        /* \"lab-Betting contract.sol\":826:865  BetPlaced(msg.sender, msg.value, _team) */\n      mload(0x40)\n      tag_52\n      swap3\n      swap2\n      swap1\n      tag_24\n      jump\t// in\n    tag_52:\n      mload(0x40)\n      dup1\n      swap2\n      sub\n      swap1\n      log2\n        /* \"lab-Betting contract.sol\":472:869  function placebet(uint8 _team) external payable {... */\n      pop\n      jump\t// out\n        /* \"lab-Betting contract.sol\":1122:1530  function withdraw() external payable {... */\n    tag_13:\n        /* \"lab-Betting contract.sol\":1181:1202  bettingstate.resolved */\n      0x02\n        /* \"lab-Betting contract.sol\":1174:1202  state==bettingstate.resolved */\n      dup1\n      dup2\n      gt\n      iszero\n      tag_54\n      jumpi\n      tag_55\n      tag_38\n      jump\t// in\n    tag_55:\n    tag_54:\n        /* \"lab-Betting contract.sol\":1174:1179  state */\n      0x00\n      0x00\n      swap1\n      sload\n      swap1\n      0x0100\n      exp\n      swap1\n      div\n      0xff\n      and\n        /* \"lab-Betting contract.sol\":1174:1202  state==bettingstate.resolved */\n      0x02\n      dup2\n      gt\n      iszero\n      tag_56\n      jumpi\n      tag_57\n      tag_38\n      jump\t// in\n    tag_57:\n    tag_56:\n      eq\n        /* \"lab-Betting contract.sol\":1166:1241  require(state==bettingstate.resolved,\"beting is not resolved.. in process\") */\n      tag_58\n      jumpi\n      mload(0x40)\n      0x08c379a000000000000000000000000000000000000000000000000000000000\n      dup2\n      mstore\n      0x04\n      add\n      tag_59\n      swap1\n      tag_60\n      jump\t// in\n    tag_59:\n      mload(0x40)\n      dup1\n      swap2\n      sub\n      swap1\n      revert\n    tag_58:\n        /* \"lab-Betting contract.sol\":1248:1267  Bet storage userbet */\n      0x00\n        /* \"lab-Betting contract.sol\":1268:1272  bets */\n      0x01\n        /* \"lab-Betting contract.sol\":1268:1284  bets[msg.sender] */\n      0x00\n        /* \"lab-Betting contract.sol\":1273:1283  msg.sender */\n      caller\n        /* \"lab-Betting contract.sol\":1268:1284  bets[msg.sender] */\n      0xffffffffffffffffffffffffffffffffffffffff\n      and\n      0xffffffffffffffffffffffffffffffffffffffff\n      and\n      dup2\n      mstore\n      0x20\n      add\n      swap1\n      dup2\n      mstore\n      0x20\n      add\n      0x00\n      keccak256\n        /* \"lab-Betting contract.sol\":1248:1284  Bet storage userbet=bets[msg.sender] */\n      swap1\n      pop\n        /* \"lab-Betting contract.sol\":1314:1315  0 */\n      0x00\n        /* \"lab-Betting contract.sol\":1299:1306  userbet */\n      dup2\n        /* \"lab-Betting contract.sol\":1299:1313  userbet.amount */\n      0x00\n      add\n      sload\n        /* \"lab-Betting contract.sol\":1299:1315  userbet.amount>0 */\n      gt\n        /* \"lab-Betting contract.sol\":1291:1339  require(userbet.amount>0,\"no any bet available\") */\n      tag_61\n      jumpi\n      mload(0x40)\n      0x08c379a000000000000000000000000000000000000000000000000000000000\n      dup2\n      mstore\n      0x04\n      add\n      tag_62\n      swap1\n      tag_63\n      jump\t// in\n    tag_62:\n      mload(0x40)\n      dup1\n      swap2\n      sub\n      swap1\n      revert\n    tag_61:\n        /* \"lab-Betting contract.sol\":1368:1379  winningteam */\n      0x00\n      0x01\n      swap1\n      sload\n      swap1\n      0x0100\n      exp\n      swap1\n      div\n      0xff\n      and\n        /* \"lab-Betting contract.sol\":1354:1379  userbet.team==winningteam */\n      0xff\n      and\n        /* \"lab-Betting contract.sol\":1354:1361  userbet */\n      dup2\n        /* \"lab-Betting contract.sol\":1354:1366  userbet.team */\n      0x01\n      add\n      0x00\n      swap1\n      sload\n      swap1\n      0x0100\n      exp\n      swap1\n      div\n      0xff\n      and\n        /* \"lab-Betting contract.sol\":1354:1379  userbet.team==winningteam */\n      0xff\n      and\n      eq\n        /* \"lab-Betting contract.sol\":1346:1419  require(userbet.team==winningteam,\"you did not bet on any winning team \") */\n      tag_64\n      jumpi\n      mload(0x40)\n      0x08c379a000000000000000000000000000000000000000000000000000000000\n      dup2\n      mstore\n      0x04\n      add\n      tag_65\n      swap1\n      tag_66\n      jump\t// in\n    tag_65:\n      mload(0x40)\n      dup1\n      swap2\n      sub\n      swap1\n      revert\n    tag_64:\n        /* \"lab-Betting contract.sol\":1426:1439  uint winnings */\n      0x00\n        /* \"lab-Betting contract.sol\":1456:1457  3 */\n      0x03\n        /* \"lab-Betting contract.sol\":1440:1447  userbet */\n      dup3\n        /* \"lab-Betting contract.sol\":1440:1454  userbet.amount */\n      0x00\n      add\n      sload\n        /* \"lab-Betting contract.sol\":1440:1457  userbet.amount* 3 */\n      tag_67\n      swap2\n      swap1\n      tag_68\n      jump\t// in\n    tag_67:\n        /* \"lab-Betting contract.sol\":1426:1457  uint winnings=userbet.amount* 3 */\n      swap1\n      pop\n        /* \"lab-Betting contract.sol\":1479:1480  0 */\n      0x00\n        /* \"lab-Betting contract.sol\":1464:1471  userbet */\n      dup3\n        /* \"lab-Betting contract.sol\":1464:1478  userbet.amount */\n      0x00\n      add\n        /* \"lab-Betting contract.sol\":1464:1480  userbet.amount=0 */\n      dup2\n      swap1\n      sstore\n      pop\n        /* \"lab-Betting contract.sol\":1496:1506  msg.sender */\n      caller\n        /* \"lab-Betting contract.sol\":1487:1516  payable (msg.sender).transfer */\n      0xffffffffffffffffffffffffffffffffffffffff\n      and\n        /* \"lab-Betting contract.sol\":1487:1526  payable (msg.sender).transfer(winnings) */\n      0x08fc\n        /* \"lab-Betting contract.sol\":1517:1525  winnings */\n      dup3\n        /* \"lab-Betting contract.sol\":1487:1526  payable (msg.sender).transfer(winnings) */\n      swap1\n      dup2\n      iszero\n      mul\n      swap1\n      mload(0x40)\n      0x00\n      mload(0x40)\n      dup1\n      dup4\n      sub\n      dup2\n      dup6\n      dup9\n      dup9\n      call\n      swap4\n      pop\n      pop\n      pop\n      pop\n      iszero\n      dup1\n      iszero\n      tag_70\n      jumpi\n      returndatacopy(0x00, 0x00, returndatasize)\n      revert(0x00, returndatasize)\n    tag_70:\n      pop\n        /* \"lab-Betting contract.sol\":1159:1530  {... */\n      pop\n      pop\n        /* \"lab-Betting contract.sol\":1122:1530  function withdraw() external payable {... */\n      jump\t// out\n        /* \"lab-Betting contract.sol\":871:1120  function setwinningteam(uint8 _team) external {... */\n    tag_17:\n        /* \"lab-Betting contract.sol\":939:956  bettingstate.open */\n      0x00\n        /* \"lab-Betting contract.sol\":932:956  state==bettingstate.open */\n      0x02\n      dup2\n      gt\n      iszero\n      tag_72\n      jumpi\n      tag_73\n      tag_38\n      jump\t// in\n    tag_73:\n    tag_72:\n        /* \"lab-Betting contract.sol\":932:937  state */\n      0x00\n      0x00\n      swap1\n      sload\n      swap1\n      0x0100\n      exp\n      swap1\n      div\n      0xff\n      and\n        /* \"lab-Betting contract.sol\":932:956  state==bettingstate.open */\n      0x02\n      dup2\n      gt\n      iszero\n      tag_74\n      jumpi\n      tag_75\n      tag_38\n      jump\t// in\n    tag_75:\n    tag_74:\n      eq\n        /* \"lab-Betting contract.sol\":924:977  require(state==bettingstate.open,\"betting is closed\") */\n      tag_76\n      jumpi\n      mload(0x40)\n      0x08c379a000000000000000000000000000000000000000000000000000000000\n      dup2\n      mstore\n      0x04\n      add\n      tag_77\n      swap1\n      tag_78\n      jump\t// in\n    tag_77:\n      mload(0x40)\n      dup1\n      swap2\n      sub\n      swap1\n      revert\n    tag_76:\n        /* \"lab-Betting contract.sol\":999:1000  0 */\n      0x00\n        /* \"lab-Betting contract.sol\":992:997  _team */\n      dup2\n        /* \"lab-Betting contract.sol\":992:1000  _team==0 */\n      0xff\n      and\n      eq\n        /* \"lab-Betting contract.sol\":992:1012  _team==0 || _team==1 */\n      dup1\n      tag_79\n      jumpi\n      pop\n        /* \"lab-Betting contract.sol\":1011:1012  1 */\n      0x01\n        /* \"lab-Betting contract.sol\":1004:1009  _team */\n      dup2\n        /* \"lab-Betting contract.sol\":1004:1012  _team==1 */\n      0xff\n      and\n      eq\n        /* \"lab-Betting contract.sol\":992:1012  _team==0 || _team==1 */\n    tag_79:\n        /* \"lab-Betting contract.sol\":984:1028  require(_team==0 || _team==1,\"invalid team\") */\n      tag_80\n      jumpi\n      mload(0x40)\n      0x08c379a000000000000000000000000000000000000000000000000000000000\n      dup2\n      mstore\n      0x04\n      add\n      tag_81\n      swap1\n      tag_82\n      jump\t// in\n    tag_81:\n      mload(0x40)\n      dup1\n      swap2\n      sub\n      swap1\n      revert\n    tag_80:\n        /* \"lab-Betting contract.sol\":1047:1052  _team */\n      dup1\n        /* \"lab-Betting contract.sol\":1035:1046  winningteam */\n      0x00\n      0x01\n        /* \"lab-Betting contract.sol\":1035:1052  winningteam=_team */\n      0x0100\n      exp\n      dup2\n      sload\n      dup2\n      0xff\n      mul\n      not\n      and\n      swap1\n      dup4\n      0xff\n      and\n      mul\n      or\n      swap1\n      sstore\n      pop\n        /* \"lab-Betting contract.sol\":1065:1086  bettingstate.resolved */\n      0x02\n        /* \"lab-Betting contract.sol\":1059:1064  state */\n      0x00\n      0x00\n        /* \"lab-Betting contract.sol\":1059:1086  state=bettingstate.resolved */\n      0x0100\n      exp\n      dup2\n      sload\n      dup2\n      0xff\n      mul\n      not\n      and\n      swap1\n      dup4\n      0x02\n      dup2\n      gt\n      iszero\n      tag_83\n      jumpi\n      tag_84\n      tag_38\n      jump\t// in\n    tag_84:\n    tag_83:\n      mul\n      or\n      swap1\n      sstore\n      pop\n        /* \"lab-Betting contract.sol\":1098:1116  BetResolved(_team) */\n      0xd6bcd4b6873d691163f1aff2d5585378623aef08e17513a5253eabe39c65dc50\n        /* \"lab-Betting contract.sol\":1110:1115  _team */\n      dup2\n        /* \"lab-Betting contract.sol\":1098:1116  BetResolved(_team) */\n      mload(0x40)\n      tag_85\n      swap2\n      swap1\n      tag_29\n      jump\t// in\n    tag_85:\n      mload(0x40)\n      dup1\n      swap2\n      sub\n      swap1\n      log1\n        /* \"lab-Betting contract.sol\":871:1120  function setwinningteam(uint8 _team) external {... */\n      pop\n      jump\t// out\n        /* \"lab-Betting contract.sol\":327:361  mapping (address=>Bet) public bets */\n    tag_22:\n      mstore(0x20, 0x01)\n      dup1\n      0x00\n      mstore\n      keccak256(0x00, 0x40)\n      0x00\n      swap2\n      pop\n      swap1\n      pop\n      dup1\n      0x00\n      add\n      sload\n      swap1\n      dup1\n      0x01\n      add\n      0x00\n      swap1\n      sload\n      swap1\n      0x0100\n      exp\n      swap1\n      div\n      0xff\n      and\n      swap1\n      pop\n      dup3\n      jump\t// out\n        /* \"lab-Betting contract.sol\":248:272  uint8 public winningteam */\n    tag_27:\n      0x00\n      0x01\n      swap1\n      sload\n      swap1\n      0x0100\n      exp\n      swap1\n      div\n      0xff\n      and\n      dup2\n      jump\t// out\n        /* \"lab-Betting contract.sol\":216:241  bettingstate public state */\n    tag_32:\n      0x00\n      0x00\n      swap1\n      sload\n      swap1\n      0x0100\n      exp\n      swap1\n      div\n      0xff\n      and\n      dup2\n      jump\t// out\n        /* \"#utility.yul\":88:205   */\n    tag_87:\n        /* \"#utility.yul\":197:198   */\n      0x00\n        /* \"#utility.yul\":194:195   */\n      0x00\n        /* \"#utility.yul\":187:199   */\n      revert\n        /* \"#utility.yul\":334:420   */\n    tag_89:\n        /* \"#utility.yul\":369:376   */\n      0x00\n        /* \"#utility.yul\":409:413   */\n      0xff\n        /* \"#utility.yul\":402:407   */\n      dup3\n        /* \"#utility.yul\":398:414   */\n      and\n        /* \"#utility.yul\":387:414   */\n      swap1\n      pop\n        /* \"#utility.yul\":334:420   */\n      swap2\n      swap1\n      pop\n      jump\t// out\n        /* \"#utility.yul\":426:544   */\n    tag_90:\n        /* \"#utility.yul\":497:519   */\n      tag_127\n        /* \"#utility.yul\":513:518   */\n      dup2\n        /* \"#utility.yul\":497:519   */\n      tag_89\n      jump\t// in\n    tag_127:\n        /* \"#utility.yul\":490:495   */\n      dup2\n        /* \"#utility.yul\":487:520   */\n      eq\n        /* \"#utility.yul\":477:538   */\n      tag_128\n      jumpi\n        /* \"#utility.yul\":534:535   */\n      0x00\n        /* \"#utility.yul\":531:532   */\n      0x00\n        /* \"#utility.yul\":524:536   */\n      revert\n        /* \"#utility.yul\":477:538   */\n    tag_128:\n        /* \"#utility.yul\":426:544   */\n      pop\n      jump\t// out\n        /* \"#utility.yul\":550:685   */\n    tag_91:\n        /* \"#utility.yul\":594:599   */\n      0x00\n        /* \"#utility.yul\":632:638   */\n      dup2\n        /* \"#utility.yul\":619:639   */\n      calldataload\n        /* \"#utility.yul\":610:639   */\n      swap1\n      pop\n        /* \"#utility.yul\":648:679   */\n      tag_130\n        /* \"#utility.yul\":673:678   */\n      dup2\n        /* \"#utility.yul\":648:679   */\n      tag_90\n      jump\t// in\n    tag_130:\n        /* \"#utility.yul\":550:685   */\n      swap3\n      swap2\n      pop\n      pop\n      jump\t// out\n        /* \"#utility.yul\":691:1016   */\n    tag_10:\n        /* \"#utility.yul\":748:754   */\n      0x00\n        /* \"#utility.yul\":797:799   */\n      0x20\n        /* \"#utility.yul\":785:794   */\n      dup3\n        /* \"#utility.yul\":776:783   */\n      dup5\n        /* \"#utility.yul\":772:795   */\n      sub\n        /* \"#utility.yul\":768:800   */\n      slt\n        /* \"#utility.yul\":765:884   */\n      iszero\n      tag_132\n      jumpi\n        /* \"#utility.yul\":803:882   */\n      tag_133\n      tag_87\n      jump\t// in\n    tag_133:\n        /* \"#utility.yul\":765:884   */\n    tag_132:\n        /* \"#utility.yul\":923:924   */\n      0x00\n        /* \"#utility.yul\":948:999   */\n      tag_134\n        /* \"#utility.yul\":991:998   */\n      dup5\n        /* \"#utility.yul\":982:988   */\n      dup3\n        /* \"#utility.yul\":971:980   */\n      dup6\n        /* \"#utility.yul\":967:989   */\n      add\n        /* \"#utility.yul\":948:999   */\n      tag_91\n      jump\t// in\n    tag_134:\n        /* \"#utility.yul\":938:999   */\n      swap2\n      pop\n        /* \"#utility.yul\":894:1009   */\n      pop\n        /* \"#utility.yul\":691:1016   */\n      swap3\n      swap2\n      pop\n      pop\n      jump\t// out\n        /* \"#utility.yul\":1022:1148   */\n    tag_92:\n        /* \"#utility.yul\":1059:1066   */\n      0x00\n        /* \"#utility.yul\":1099:1141   */\n      0xffffffffffffffffffffffffffffffffffffffff\n        /* \"#utility.yul\":1092:1097   */\n      dup3\n        /* \"#utility.yul\":1088:1142   */\n      and\n        /* \"#utility.yul\":1077:1142   */\n      swap1\n      pop\n        /* \"#utility.yul\":1022:1148   */\n      swap2\n      swap1\n      pop\n      jump\t// out\n        /* \"#utility.yul\":1154:1250   */\n    tag_93:\n        /* \"#utility.yul\":1191:1198   */\n      0x00\n        /* \"#utility.yul\":1220:1244   */\n      tag_137\n        /* \"#utility.yul\":1238:1243   */\n      dup3\n        /* \"#utility.yul\":1220:1244   */\n      tag_92\n      jump\t// in\n    tag_137:\n        /* \"#utility.yul\":1209:1244   */\n      swap1\n      pop\n        /* \"#utility.yul\":1154:1250   */\n      swap2\n      swap1\n      pop\n      jump\t// out\n        /* \"#utility.yul\":1256:1378   */\n    tag_94:\n        /* \"#utility.yul\":1329:1353   */\n      tag_139\n        /* \"#utility.yul\":1347:1352   */\n      dup2\n        /* \"#utility.yul\":1329:1353   */\n      tag_93\n      jump\t// in\n    tag_139:\n        /* \"#utility.yul\":1322:1327   */\n      dup2\n        /* \"#utility.yul\":1319:1354   */\n      eq\n        /* \"#utility.yul\":1309:1372   */\n      tag_140\n      jumpi\n        /* \"#utility.yul\":1368:1369   */\n      0x00\n        /* \"#utility.yul\":1365:1366   */\n      0x00\n        /* \"#utility.yul\":1358:1370   */\n      revert\n        /* \"#utility.yul\":1309:1372   */\n    tag_140:\n        /* \"#utility.yul\":1256:1378   */\n      pop\n      jump\t// out\n        /* \"#utility.yul\":1384:1523   */\n    tag_95:\n        /* \"#utility.yul\":1430:1435   */\n      0x00\n        /* \"#utility.yul\":1468:1474   */\n      dup2\n        /* \"#utility.yul\":1455:1475   */\n      calldataload\n        /* \"#utility.yul\":1446:1475   */\n      swap1\n      pop\n        /* \"#utility.yul\":1484:1517   */\n      tag_142\n        /* \"#utility.yul\":1511:1516   */\n      dup2\n        /* \"#utility.yul\":1484:1517   */\n      tag_94\n      jump\t// in\n    tag_142:\n        /* \"#utility.yul\":1384:1523   */\n      swap3\n      swap2\n      pop\n      pop\n      jump\t// out\n        /* \"#utility.yul\":1529:1858   */\n    tag_21:\n        /* \"#utility.yul\":1588:1594   */\n      0x00\n        /* \"#utility.yul\":1637:1639   */\n      0x20\n        /* \"#utility.yul\":1625:1634   */\n      dup3\n        /* \"#utility.yul\":1616:1623   */\n      dup5\n        /* \"#utility.yul\":1612:1635   */\n      sub\n        /* \"#utility.yul\":1608:1640   */\n      slt\n        /* \"#utility.yul\":1605:1724   */\n      iszero\n      tag_144\n      jumpi\n        /* \"#utility.yul\":1643:1722   */\n      tag_145\n      tag_87\n      jump\t// in\n    tag_145:\n        /* \"#utility.yul\":1605:1724   */\n    tag_144:\n        /* \"#utility.yul\":1763:1764   */\n      0x00\n        /* \"#utility.yul\":1788:1841   */\n      tag_146\n        /* \"#utility.yul\":1833:1840   */\n      dup5\n        /* \"#utility.yul\":1824:1830   */\n      dup3\n        /* \"#utility.yul\":1813:1822   */\n      dup6\n        /* \"#utility.yul\":1809:1831   */\n      add\n        /* \"#utility.yul\":1788:1841   */\n      tag_95\n      jump\t// in\n    tag_146:\n        /* \"#utility.yul\":1778:1841   */\n      swap2\n      pop\n        /* \"#utility.yul\":1734:1851   */\n      pop\n        /* \"#utility.yul\":1529:1858   */\n      swap3\n      swap2\n      pop\n      pop\n      jump\t// out\n        /* \"#utility.yul\":1864:1941   */\n    tag_96:\n        /* \"#utility.yul\":1901:1908   */\n      0x00\n        /* \"#utility.yul\":1930:1935   */\n      dup2\n        /* \"#utility.yul\":1919:1935   */\n      swap1\n      pop\n        /* \"#utility.yul\":1864:1941   */\n      swap2\n      swap1\n      pop\n      jump\t// out\n        /* \"#utility.yul\":1947:2065   */\n    tag_97:\n        /* \"#utility.yul\":2034:2058   */\n      tag_149\n        /* \"#utility.yul\":2052:2057   */\n      dup2\n        /* \"#utility.yul\":2034:2058   */\n      tag_96\n      jump\t// in\n    tag_149:\n        /* \"#utility.yul\":2029:2032   */\n      dup3\n        /* \"#utility.yul\":2022:2059   */\n      mstore\n        /* \"#utility.yul\":1947:2065   */\n      pop\n      pop\n      jump\t// out\n        /* \"#utility.yul\":2071:2183   */\n    tag_98:\n        /* \"#utility.yul\":2154:2176   */\n      tag_151\n        /* \"#utility.yul\":2170:2175   */\n      dup2\n        /* \"#utility.yul\":2154:2176   */\n      tag_89\n      jump\t// in\n    tag_151:\n        /* \"#utility.yul\":2149:2152   */\n      dup3\n        /* \"#utility.yul\":2142:2177   */\n      mstore\n        /* \"#utility.yul\":2071:2183   */\n      pop\n      pop\n      jump\t// out\n        /* \"#utility.yul\":2189:2513   */\n    tag_24:\n        /* \"#utility.yul\":2306:2310   */\n      0x00\n        /* \"#utility.yul\":2344:2346   */\n      0x40\n        /* \"#utility.yul\":2333:2342   */\n      dup3\n        /* \"#utility.yul\":2329:2347   */\n      add\n        /* \"#utility.yul\":2321:2347   */\n      swap1\n      pop\n        /* \"#utility.yul\":2357:2428   */\n      tag_153\n        /* \"#utility.yul\":2425:2426   */\n      0x00\n        /* \"#utility.yul\":2414:2423   */\n      dup4\n        /* \"#utility.yul\":2410:2427   */\n      add\n        /* \"#utility.yul\":2401:2407   */\n      dup6\n        /* \"#utility.yul\":2357:2428   */\n      tag_97\n      jump\t// in\n    tag_153:\n        /* \"#utility.yul\":2438:2506   */\n      tag_154\n        /* \"#utility.yul\":2502:2504   */\n      0x20\n        /* \"#utility.yul\":2491:2500   */\n      dup4\n        /* \"#utility.yul\":2487:2505   */\n      add\n        /* \"#utility.yul\":2478:2484   */\n      dup5\n        /* \"#utility.yul\":2438:2506   */\n      tag_98\n      jump\t// in\n    tag_154:\n        /* \"#utility.yul\":2189:2513   */\n      swap4\n      swap3\n      pop\n      pop\n      pop\n      jump\t// out\n        /* \"#utility.yul\":2519:2733   */\n    tag_29:\n        /* \"#utility.yul\":2608:2612   */\n      0x00\n        /* \"#utility.yul\":2646:2648   */\n      0x20\n        /* \"#utility.yul\":2635:2644   */\n      dup3\n        /* \"#utility.yul\":2631:2649   */\n      add\n        /* \"#utility.yul\":2623:2649   */\n      swap1\n      pop\n        /* \"#utility.yul\":2659:2726   */\n      tag_156\n        /* \"#utility.yul\":2723:2724   */\n      0x00\n        /* \"#utility.yul\":2712:2721   */\n      dup4\n        /* \"#utility.yul\":2708:2725   */\n      add\n        /* \"#utility.yul\":2699:2705   */\n      dup5\n        /* \"#utility.yul\":2659:2726   */\n      tag_98\n      jump\t// in\n    tag_156:\n        /* \"#utility.yul\":2519:2733   */\n      swap3\n      swap2\n      pop\n      pop\n      jump\t// out\n        /* \"#utility.yul\":2739:2919   */\n    tag_38:\n        /* \"#utility.yul\":2787:2864   */\n      0x4e487b7100000000000000000000000000000000000000000000000000000000\n        /* \"#utility.yul\":2784:2785   */\n      0x00\n        /* \"#utility.yul\":2777:2865   */\n      mstore\n        /* \"#utility.yul\":2884:2888   */\n      0x21\n        /* \"#utility.yul\":2881:2882   */\n      0x04\n        /* \"#utility.yul\":2874:2889   */\n      mstore\n        /* \"#utility.yul\":2908:2912   */\n      0x24\n        /* \"#utility.yul\":2905:2906   */\n      0x00\n        /* \"#utility.yul\":2898:2913   */\n      revert\n        /* \"#utility.yul\":2925:3044   */\n    tag_99:\n        /* \"#utility.yul\":3012:3013   */\n      0x03\n        /* \"#utility.yul\":3005:3010   */\n      dup2\n        /* \"#utility.yul\":3002:3014   */\n      lt\n        /* \"#utility.yul\":2992:3038   */\n      tag_159\n      jumpi\n        /* \"#utility.yul\":3018:3036   */\n      tag_160\n      tag_38\n      jump\t// in\n    tag_160:\n        /* \"#utility.yul\":2992:3038   */\n    tag_159:\n        /* \"#utility.yul\":2925:3044   */\n      pop\n      jump\t// out\n        /* \"#utility.yul\":3050:3189   */\n    tag_100:\n        /* \"#utility.yul\":3101:3108   */\n      0x00\n        /* \"#utility.yul\":3130:3135   */\n      dup2\n        /* \"#utility.yul\":3119:3135   */\n      swap1\n      pop\n        /* \"#utility.yul\":3136:3183   */\n      tag_162\n        /* \"#utility.yul\":3177:3182   */\n      dup3\n        /* \"#utility.yul\":3136:3183   */\n      tag_99\n      jump\t// in\n    tag_162:\n        /* \"#utility.yul\":3050:3189   */\n      swap2\n      swap1\n      pop\n      jump\t// out\n        /* \"#utility.yul\":3195:3334   */\n    tag_101:\n        /* \"#utility.yul\":3257:3266   */\n      0x00\n        /* \"#utility.yul\":3290:3328   */\n      tag_164\n        /* \"#utility.yul\":3322:3327   */\n      dup3\n        /* \"#utility.yul\":3290:3328   */\n      tag_100\n      jump\t// in\n    tag_164:\n        /* \"#utility.yul\":3277:3328   */\n      swap1\n      pop\n        /* \"#utility.yul\":3195:3334   */\n      swap2\n      swap1\n      pop\n      jump\t// out\n        /* \"#utility.yul\":3340:3495   */\n    tag_102:\n        /* \"#utility.yul\":3439:3488   */\n      tag_166\n        /* \"#utility.yul\":3482:3487   */\n      dup2\n        /* \"#utility.yul\":3439:3488   */\n      tag_101\n      jump\t// in\n    tag_166:\n        /* \"#utility.yul\":3434:3437   */\n      dup3\n        /* \"#utility.yul\":3427:3489   */\n      mstore\n        /* \"#utility.yul\":3340:3495   */\n      pop\n      pop\n      jump\t// out\n        /* \"#utility.yul\":3501:3747   */\n    tag_34:\n        /* \"#utility.yul\":3606:3610   */\n      0x00\n        /* \"#utility.yul\":3644:3646   */\n      0x20\n        /* \"#utility.yul\":3633:3642   */\n      dup3\n        /* \"#utility.yul\":3629:3647   */\n      add\n        /* \"#utility.yul\":3621:3647   */\n      swap1\n      pop\n        /* \"#utility.yul\":3657:3740   */\n      tag_168\n        /* \"#utility.yul\":3737:3738   */\n      0x00\n        /* \"#utility.yul\":3726:3735   */\n      dup4\n        /* \"#utility.yul\":3722:3739   */\n      add\n        /* \"#utility.yul\":3713:3719   */\n      dup5\n        /* \"#utility.yul\":3657:3740   */\n      tag_102\n      jump\t// in\n    tag_168:\n        /* \"#utility.yul\":3501:3747   */\n      swap3\n      swap2\n      pop\n      pop\n      jump\t// out\n        /* \"#utility.yul\":3753:3922   */\n    tag_103:\n        /* \"#utility.yul\":3837:3848   */\n      0x00\n        /* \"#utility.yul\":3871:3877   */\n      dup3\n        /* \"#utility.yul\":3866:3869   */\n      dup3\n        /* \"#utility.yul\":3859:3878   */\n      mstore\n        /* \"#utility.yul\":3911:3915   */\n      0x20\n        /* \"#utility.yul\":3906:3909   */\n      dup3\n        /* \"#utility.yul\":3902:3916   */\n      add\n        /* \"#utility.yul\":3887:3916   */\n      swap1\n      pop\n        /* \"#utility.yul\":3753:3922   */\n      swap3\n      swap2\n      pop\n      pop\n      jump\t// out\n        /* \"#utility.yul\":3928:4148   */\n    tag_104:\n        /* \"#utility.yul\":4068:4102   */\n      0x736f7272792062657474696e672069732063757272656e746c7920636c6f7365\n        /* \"#utility.yul\":4064:4065   */\n      0x00\n        /* \"#utility.yul\":4056:4062   */\n      dup3\n        /* \"#utility.yul\":4052:4066   */\n      add\n        /* \"#utility.yul\":4045:4103   */\n      mstore\n        /* \"#utility.yul\":4137:4140   */\n      0x6400000000000000000000000000000000000000000000000000000000000000\n        /* \"#utility.yul\":4132:4134   */\n      0x20\n        /* \"#utility.yul\":4124:4130   */\n      dup3\n        /* \"#utility.yul\":4120:4135   */\n      add\n        /* \"#utility.yul\":4113:4141   */\n      mstore\n        /* \"#utility.yul\":3928:4148   */\n      pop\n      jump\t// out\n        /* \"#utility.yul\":4154:4520   */\n    tag_105:\n        /* \"#utility.yul\":4296:4299   */\n      0x00\n        /* \"#utility.yul\":4317:4384   */\n      tag_172\n        /* \"#utility.yul\":4381:4383   */\n      0x21\n        /* \"#utility.yul\":4376:4379   */\n      dup4\n        /* \"#utility.yul\":4317:4384   */\n      tag_103\n      jump\t// in\n    tag_172:\n        /* \"#utility.yul\":4310:4384   */\n      swap2\n      pop\n        /* \"#utility.yul\":4393:4486   */\n      tag_173\n        /* \"#utility.yul\":4482:4485   */\n      dup3\n        /* \"#utility.yul\":4393:4486   */\n      tag_104\n      jump\t// in\n    tag_173:\n        /* \"#utility.yul\":4511:4513   */\n      0x40\n        /* \"#utility.yul\":4506:4509   */\n      dup3\n        /* \"#utility.yul\":4502:4514   */\n      add\n        /* \"#utility.yul\":4495:4514   */\n      swap1\n      pop\n        /* \"#utility.yul\":4154:4520   */\n      swap2\n      swap1\n      pop\n      jump\t// out\n        /* \"#utility.yul\":4526:4945   */\n    tag_43:\n        /* \"#utility.yul\":4692:4696   */\n      0x00\n        /* \"#utility.yul\":4730:4732   */\n      0x20\n        /* \"#utility.yul\":4719:4728   */\n      dup3\n        /* \"#utility.yul\":4715:4733   */\n      add\n        /* \"#utility.yul\":4707:4733   */\n      swap1\n      pop\n        /* \"#utility.yul\":4779:4788   */\n      dup2\n        /* \"#utility.yul\":4773:4777   */\n      dup2\n        /* \"#utility.yul\":4769:4789   */\n      sub\n        /* \"#utility.yul\":4765:4766   */\n      0x00\n        /* \"#utility.yul\":4754:4763   */\n      dup4\n        /* \"#utility.yul\":4750:4767   */\n      add\n        /* \"#utility.yul\":4743:4790   */\n      mstore\n        /* \"#utility.yul\":4807:4938   */\n      tag_175\n        /* \"#utility.yul\":4933:4937   */\n      dup2\n        /* \"#utility.yul\":4807:4938   */\n      tag_105\n      jump\t// in\n    tag_175:\n        /* \"#utility.yul\":4799:4938   */\n      swap1\n      pop\n        /* \"#utility.yul\":4526:4945   */\n      swap2\n      swap1\n      pop\n      jump\t// out\n        /* \"#utility.yul\":4951:5174   */\n    tag_106:\n        /* \"#utility.yul\":5091:5125   */\n      0x62657474696e6720616d6f756e74206d75737420626520677261746572207468\n        /* \"#utility.yul\":5087:5088   */\n      0x00\n        /* \"#utility.yul\":5079:5085   */\n      dup3\n        /* \"#utility.yul\":5075:5089   */\n      add\n        /* \"#utility.yul\":5068:5126   */\n      mstore\n        /* \"#utility.yul\":5160:5166   */\n      0x616e203000000000000000000000000000000000000000000000000000000000\n        /* \"#utility.yul\":5155:5157   */\n      0x20\n        /* \"#utility.yul\":5147:5153   */\n      dup3\n        /* \"#utility.yul\":5143:5158   */\n      add\n        /* \"#utility.yul\":5136:5167   */\n      mstore\n        /* \"#utility.yul\":4951:5174   */\n      pop\n      jump\t// out\n        /* \"#utility.yul\":5180:5546   */\n    tag_107:\n        /* \"#utility.yul\":5322:5325   */\n      0x00\n        /* \"#utility.yul\":5343:5410   */\n      tag_178\n        /* \"#utility.yul\":5407:5409   */\n      0x24\n        /* \"#utility.yul\":5402:5405   */\n      dup4\n        /* \"#utility.yul\":5343:5410   */\n      tag_103\n      jump\t// in\n    tag_178:\n        /* \"#utility.yul\":5336:5410   */\n      swap2\n      pop\n        /* \"#utility.yul\":5419:5512   */\n      tag_179\n        /* \"#utility.yul\":5508:5511   */\n      dup3\n        /* \"#utility.yul\":5419:5512   */\n      tag_106\n      jump\t// in\n    tag_179:\n        /* \"#utility.yul\":5537:5539   */\n      0x40\n        /* \"#utility.yul\":5532:5535   */\n      dup3\n        /* \"#utility.yul\":5528:5540   */\n      add\n        /* \"#utility.yul\":5521:5540   */\n      swap1\n      pop\n        /* \"#utility.yul\":5180:5546   */\n      swap2\n      swap1\n      pop\n      jump\t// out\n        /* \"#utility.yul\":5552:5971   */\n    tag_46:\n        /* \"#utility.yul\":5718:5722   */\n      0x00\n        /* \"#utility.yul\":5756:5758   */\n      0x20\n        /* \"#utility.yul\":5745:5754   */\n      dup3\n        /* \"#utility.yul\":5741:5759   */\n      add\n        /* \"#utility.yul\":5733:5759   */\n      swap1\n      pop\n        /* \"#utility.yul\":5805:5814   */\n      dup2\n        /* \"#utility.yul\":5799:5803   */\n      dup2\n        /* \"#utility.yul\":5795:5815   */\n      sub\n        /* \"#utility.yul\":5791:5792   */\n      0x00\n        /* \"#utility.yul\":5780:5789   */\n      dup4\n        /* \"#utility.yul\":5776:5793   */\n      add\n        /* \"#utility.yul\":5769:5816   */\n      mstore\n        /* \"#utility.yul\":5833:5964   */\n      tag_181\n        /* \"#utility.yul\":5959:5963   */\n      dup2\n        /* \"#utility.yul\":5833:5964   */\n      tag_107\n      jump\t// in\n    tag_181:\n        /* \"#utility.yul\":5825:5964   */\n      swap1\n      pop\n        /* \"#utility.yul\":5552:5971   */\n      swap2\n      swap1\n      pop\n      jump\t// out\n        /* \"#utility.yul\":5977:6149   */\n    tag_108:\n        /* \"#utility.yul\":6117:6141   */\n      0x696e76616c6964207465616d2073656c656374696f6e00000000000000000000\n        /* \"#utility.yul\":6113:6114   */\n      0x00\n        /* \"#utility.yul\":6105:6111   */\n      dup3\n        /* \"#utility.yul\":6101:6115   */\n      add\n        /* \"#utility.yul\":6094:6142   */\n      mstore\n        /* \"#utility.yul\":5977:6149   */\n      pop\n      jump\t// out\n        /* \"#utility.yul\":6155:6521   */\n    tag_109:\n        /* \"#utility.yul\":6297:6300   */\n      0x00\n        /* \"#utility.yul\":6318:6385   */\n      tag_184\n        /* \"#utility.yul\":6382:6384   */\n      0x16\n        /* \"#utility.yul\":6377:6380   */\n      dup4\n        /* \"#utility.yul\":6318:6385   */\n      tag_103\n      jump\t// in\n    tag_184:\n        /* \"#utility.yul\":6311:6385   */\n      swap2\n      pop\n        /* \"#utility.yul\":6394:6487   */\n      tag_185\n        /* \"#utility.yul\":6483:6486   */\n      dup3\n        /* \"#utility.yul\":6394:6487   */\n      tag_108\n      jump\t// in\n    tag_185:\n        /* \"#utility.yul\":6512:6514   */\n      0x20\n        /* \"#utility.yul\":6507:6510   */\n      dup3\n        /* \"#utility.yul\":6503:6515   */\n      add\n        /* \"#utility.yul\":6496:6515   */\n      swap1\n      pop\n        /* \"#utility.yul\":6155:6521   */\n      swap2\n      swap1\n      pop\n      jump\t// out\n        /* \"#utility.yul\":6527:6946   */\n    tag_51:\n        /* \"#utility.yul\":6693:6697   */\n      0x00\n        /* \"#utility.yul\":6731:6733   */\n      0x20\n        /* \"#utility.yul\":6720:6729   */\n      dup3\n        /* \"#utility.yul\":6716:6734   */\n      add\n        /* \"#utility.yul\":6708:6734   */\n      swap1\n      pop\n        /* \"#utility.yul\":6780:6789   */\n      dup2\n        /* \"#utility.yul\":6774:6778   */\n      dup2\n        /* \"#utility.yul\":6770:6790   */\n      sub\n        /* \"#utility.yul\":6766:6767   */\n      0x00\n        /* \"#utility.yul\":6755:6764   */\n      dup4\n        /* \"#utility.yul\":6751:6768   */\n      add\n        /* \"#utility.yul\":6744:6791   */\n      mstore\n        /* \"#utility.yul\":6808:6939   */\n      tag_187\n        /* \"#utility.yul\":6934:6938   */\n      dup2\n        /* \"#utility.yul\":6808:6939   */\n      tag_109\n      jump\t// in\n    tag_187:\n        /* \"#utility.yul\":6800:6939   */\n      swap1\n      pop\n        /* \"#utility.yul\":6527:6946   */\n      swap2\n      swap1\n      pop\n      jump\t// out\n        /* \"#utility.yul\":6952:7174   */\n    tag_110:\n        /* \"#utility.yul\":7092:7126   */\n      0x626574696e67206973206e6f74207265736f6c7665642e2e20696e2070726f63\n        /* \"#utility.yul\":7088:7089   */\n      0x00\n        /* \"#utility.yul\":7080:7086   */\n      dup3\n        /* \"#utility.yul\":7076:7090   */\n      add\n        /* \"#utility.yul\":7069:7127   */\n      mstore\n        /* \"#utility.yul\":7161:7166   */\n      0x6573730000000000000000000000000000000000000000000000000000000000\n        /* \"#utility.yul\":7156:7158   */\n      0x20\n        /* \"#utility.yul\":7148:7154   */\n      dup3\n        /* \"#utility.yul\":7144:7159   */\n      add\n        /* \"#utility.yul\":7137:7167   */\n      mstore\n        /* \"#utility.yul\":6952:7174   */\n      pop\n      jump\t// out\n        /* \"#utility.yul\":7180:7546   */\n    tag_111:\n        /* \"#utility.yul\":7322:7325   */\n      0x00\n        /* \"#utility.yul\":7343:7410   */\n      tag_190\n        /* \"#utility.yul\":7407:7409   */\n      0x23\n        /* \"#utility.yul\":7402:7405   */\n      dup4\n        /* \"#utility.yul\":7343:7410   */\n      tag_103\n      jump\t// in\n    tag_190:\n        /* \"#utility.yul\":7336:7410   */\n      swap2\n      pop\n        /* \"#utility.yul\":7419:7512   */\n      tag_191\n        /* \"#utility.yul\":7508:7511   */\n      dup3\n        /* \"#utility.yul\":7419:7512   */\n      tag_110\n      jump\t// in\n    tag_191:\n        /* \"#utility.yul\":7537:7539   */\n      0x40\n        /* \"#utility.yul\":7532:7535   */\n      dup3\n        /* \"#utility.yul\":7528:7540   */\n      add\n        /* \"#utility.yul\":7521:7540   */\n      swap1\n      pop\n        /* \"#utility.yul\":7180:7546   */\n      swap2\n      swap1\n      pop\n      jump\t// out\n        /* \"#utility.yul\":7552:7971   */\n    tag_60:\n        /* \"#utility.yul\":7718:7722   */\n      0x00\n        /* \"#utility.yul\":7756:7758   */\n      0x20\n        /* \"#utility.yul\":7745:7754   */\n      dup3\n        /* \"#utility.yul\":7741:7759   */\n      add\n        /* \"#utility.yul\":7733:7759   */\n      swap1\n      pop\n        /* \"#utility.yul\":7805:7814   */\n      dup2\n        /* \"#utility.yul\":7799:7803   */\n      dup2\n        /* \"#utility.yul\":7795:7815   */\n      sub\n        /* \"#utility.yul\":7791:7792   */\n      0x00\n        /* \"#utility.yul\":7780:7789   */\n      dup4\n        /* \"#utility.yul\":7776:7793   */\n      add\n        /* \"#utility.yul\":7769:7816   */\n      mstore\n        /* \"#utility.yul\":7833:7964   */\n      tag_193\n        /* \"#utility.yul\":7959:7963   */\n      dup2\n        /* \"#utility.yul\":7833:7964   */\n      tag_111\n      jump\t// in\n    tag_193:\n        /* \"#utility.yul\":7825:7964   */\n      swap1\n      pop\n        /* \"#utility.yul\":7552:7971   */\n      swap2\n      swap1\n      pop\n      jump\t// out\n        /* \"#utility.yul\":7977:8147   */\n    tag_112:\n        /* \"#utility.yul\":8117:8139   */\n      0x6e6f20616e792062657420617661696c61626c65000000000000000000000000\n        /* \"#utility.yul\":8113:8114   */\n      0x00\n        /* \"#utility.yul\":8105:8111   */\n      dup3\n        /* \"#utility.yul\":8101:8115   */\n      add\n        /* \"#utility.yul\":8094:8140   */\n      mstore\n        /* \"#utility.yul\":7977:8147   */\n      pop\n      jump\t// out\n        /* \"#utility.yul\":8153:8519   */\n    tag_113:\n        /* \"#utility.yul\":8295:8298   */\n      0x00\n        /* \"#utility.yul\":8316:8383   */\n      tag_196\n        /* \"#utility.yul\":8380:8382   */\n      0x14\n        /* \"#utility.yul\":8375:8378   */\n      dup4\n        /* \"#utility.yul\":8316:8383   */\n      tag_103\n      jump\t// in\n    tag_196:\n        /* \"#utility.yul\":8309:8383   */\n      swap2\n      pop\n        /* \"#utility.yul\":8392:8485   */\n      tag_197\n        /* \"#utility.yul\":8481:8484   */\n      dup3\n        /* \"#utility.yul\":8392:8485   */\n      tag_112\n      jump\t// in\n    tag_197:\n        /* \"#utility.yul\":8510:8512   */\n      0x20\n        /* \"#utility.yul\":8505:8508   */\n      dup3\n        /* \"#utility.yul\":8501:8513   */\n      add\n        /* \"#utility.yul\":8494:8513   */\n      swap1\n      pop\n        /* \"#utility.yul\":8153:8519   */\n      swap2\n      swap1\n      pop\n      jump\t// out\n        /* \"#utility.yul\":8525:8944   */\n    tag_63:\n        /* \"#utility.yul\":8691:8695   */\n      0x00\n        /* \"#utility.yul\":8729:8731   */\n      0x20\n        /* \"#utility.yul\":8718:8727   */\n      dup3\n        /* \"#utility.yul\":8714:8732   */\n      add\n        /* \"#utility.yul\":8706:8732   */\n      swap1\n      pop\n        /* \"#utility.yul\":8778:8787   */\n      dup2\n        /* \"#utility.yul\":8772:8776   */\n      dup2\n        /* \"#utility.yul\":8768:8788   */\n      sub\n        /* \"#utility.yul\":8764:8765   */\n      0x00\n        /* \"#utility.yul\":8753:8762   */\n      dup4\n        /* \"#utility.yul\":8749:8766   */\n      add\n        /* \"#utility.yul\":8742:8789   */\n      mstore\n        /* \"#utility.yul\":8806:8937   */\n      tag_199\n        /* \"#utility.yul\":8932:8936   */\n      dup2\n        /* \"#utility.yul\":8806:8937   */\n      tag_113\n      jump\t// in\n    tag_199:\n        /* \"#utility.yul\":8798:8937   */\n      swap1\n      pop\n        /* \"#utility.yul\":8525:8944   */\n      swap2\n      swap1\n      pop\n      jump\t// out\n        /* \"#utility.yul\":8950:9173   */\n    tag_114:\n        /* \"#utility.yul\":9090:9124   */\n      0x796f7520646964206e6f7420626574206f6e20616e792077696e6e696e672074\n        /* \"#utility.yul\":9086:9087   */\n      0x00\n        /* \"#utility.yul\":9078:9084   */\n      dup3\n        /* \"#utility.yul\":9074:9088   */\n      add\n        /* \"#utility.yul\":9067:9125   */\n      mstore\n        /* \"#utility.yul\":9159:9165   */\n      0x65616d2000000000000000000000000000000000000000000000000000000000\n        /* \"#utility.yul\":9154:9156   */\n      0x20\n        /* \"#utility.yul\":9146:9152   */\n      dup3\n        /* \"#utility.yul\":9142:9157   */\n      add\n        /* \"#utility.yul\":9135:9166   */\n      mstore\n        /* \"#utility.yul\":8950:9173   */\n      pop\n      jump\t// out\n        /* \"#utility.yul\":9179:9545   */\n    tag_115:\n        /* \"#utility.yul\":9321:9324   */\n      0x00\n        /* \"#utility.yul\":9342:9409   */\n      tag_202\n        /* \"#utility.yul\":9406:9408   */\n      0x24\n        /* \"#utility.yul\":9401:9404   */\n      dup4\n        /* \"#utility.yul\":9342:9409   */\n      tag_103\n      jump\t// in\n    tag_202:\n        /* \"#utility.yul\":9335:9409   */\n      swap2\n      pop\n        /* \"#utility.yul\":9418:9511   */\n      tag_203\n        /* \"#utility.yul\":9507:9510   */\n      dup3\n        /* \"#utility.yul\":9418:9511   */\n      tag_114\n      jump\t// in\n    tag_203:\n        /* \"#utility.yul\":9536:9538   */\n      0x40\n        /* \"#utility.yul\":9531:9534   */\n      dup3\n        /* \"#utility.yul\":9527:9539   */\n      add\n        /* \"#utility.yul\":9520:9539   */\n      swap1\n      pop\n        /* \"#utility.yul\":9179:9545   */\n      swap2\n      swap1\n      pop\n      jump\t// out\n        /* \"#utility.yul\":9551:9970   */\n    tag_66:\n        /* \"#utility.yul\":9717:9721   */\n      0x00\n        /* \"#utility.yul\":9755:9757   */\n      0x20\n        /* \"#utility.yul\":9744:9753   */\n      dup3\n        /* \"#utility.yul\":9740:9758   */\n      add\n        /* \"#utility.yul\":9732:9758   */\n      swap1\n      pop\n        /* \"#utility.yul\":9804:9813   */\n      dup2\n        /* \"#utility.yul\":9798:9802   */\n      dup2\n        /* \"#utility.yul\":9794:9814   */\n      sub\n        /* \"#utility.yul\":9790:9791   */\n      0x00\n        /* \"#utility.yul\":9779:9788   */\n      dup4\n        /* \"#utility.yul\":9775:9792   */\n      add\n        /* \"#utility.yul\":9768:9815   */\n      mstore\n        /* \"#utility.yul\":9832:9963   */\n      tag_205\n        /* \"#utility.yul\":9958:9962   */\n      dup2\n        /* \"#utility.yul\":9832:9963   */\n      tag_115\n      jump\t// in\n    tag_205:\n        /* \"#utility.yul\":9824:9963   */\n      swap1\n      pop\n        /* \"#utility.yul\":9551:9970   */\n      swap2\n      swap1\n      pop\n      jump\t// out\n        /* \"#utility.yul\":9976:10156   */\n    tag_116:\n        /* \"#utility.yul\":10024:10101   */\n      0x4e487b7100000000000000000000000000000000000000000000000000000000\n        /* \"#utility.yul\":10021:10022   */\n      0x00\n        /* \"#utility.yul\":10014:10102   */\n      mstore\n        /* \"#utility.yul\":10121:10125   */\n      0x11\n        /* \"#utility.yul\":10118:10119   */\n      0x04\n        /* \"#utility.yul\":10111:10126   */\n      mstore\n        /* \"#utility.yul\":10145:10149   */\n      0x24\n        /* \"#utility.yul\":10142:10143   */\n      0x00\n        /* \"#utility.yul\":10135:10150   */\n      revert\n        /* \"#utility.yul\":10162:10572   */\n    tag_68:\n        /* \"#utility.yul\":10202:10209   */\n      0x00\n        /* \"#utility.yul\":10225:10245   */\n      tag_208\n        /* \"#utility.yul\":10243:10244   */\n      dup3\n        /* \"#utility.yul\":10225:10245   */\n      tag_96\n      jump\t// in\n    tag_208:\n        /* \"#utility.yul\":10220:10245   */\n      swap2\n      pop\n        /* \"#utility.yul\":10259:10279   */\n      tag_209\n        /* \"#utility.yul\":10277:10278   */\n      dup4\n        /* \"#utility.yul\":10259:10279   */\n      tag_96\n      jump\t// in\n    tag_209:\n        /* \"#utility.yul\":10254:10279   */\n      swap3\n      pop\n        /* \"#utility.yul\":10314:10315   */\n      dup3\n        /* \"#utility.yul\":10311:10312   */\n      dup3\n        /* \"#utility.yul\":10307:10316   */\n      mul\n        /* \"#utility.yul\":10336:10366   */\n      tag_210\n        /* \"#utility.yul\":10354:10365   */\n      dup2\n        /* \"#utility.yul\":10336:10366   */\n      tag_96\n      jump\t// in\n    tag_210:\n        /* \"#utility.yul\":10325:10366   */\n      swap2\n      pop\n        /* \"#utility.yul\":10515:10516   */\n      dup3\n        /* \"#utility.yul\":10506:10513   */\n      dup3\n        /* \"#utility.yul\":10502:10517   */\n      div\n        /* \"#utility.yul\":10499:10500   */\n      dup5\n        /* \"#utility.yul\":10496:10518   */\n      eq\n        /* \"#utility.yul\":10476:10477   */\n      dup4\n        /* \"#utility.yul\":10469:10478   */\n      iszero\n        /* \"#utility.yul\":10449:10532   */\n      or\n        /* \"#utility.yul\":10426:10565   */\n      tag_211\n      jumpi\n        /* \"#utility.yul\":10545:10563   */\n      tag_212\n      tag_116\n      jump\t// in\n    tag_212:\n        /* \"#utility.yul\":10426:10565   */\n    tag_211:\n        /* \"#utility.yul\":10210:10572   */\n      pop\n        /* \"#utility.yul\":10162:10572   */\n      swap3\n      swap2\n      pop\n      pop\n      jump\t// out\n        /* \"#utility.yul\":10578:10745   */\n    tag_117:\n        /* \"#utility.yul\":10718:10737   */\n      0x62657474696e6720697320636c6f736564000000000000000000000000000000\n        /* \"#utility.yul\":10714:10715   */\n      0x00\n        /* \"#utility.yul\":10706:10712   */\n      dup3\n        /* \"#utility.yul\":10702:10716   */\n      add\n        /* \"#utility.yul\":10695:10738   */\n      mstore\n        /* \"#utility.yul\":10578:10745   */\n      pop\n      jump\t// out\n        /* \"#utility.yul\":10751:11117   */\n    tag_118:\n        /* \"#utility.yul\":10893:10896   */\n      0x00\n        /* \"#utility.yul\":10914:10981   */\n      tag_215\n        /* \"#utility.yul\":10978:10980   */\n      0x11\n        /* \"#utility.yul\":10973:10976   */\n      dup4\n        /* \"#utility.yul\":10914:10981   */\n      tag_103\n      jump\t// in\n    tag_215:\n        /* \"#utility.yul\":10907:10981   */\n      swap2\n      pop\n        /* \"#utility.yul\":10990:11083   */\n      tag_216\n        /* \"#utility.yul\":11079:11082   */\n      dup3\n        /* \"#utility.yul\":10990:11083   */\n      tag_117\n      jump\t// in\n    tag_216:\n        /* \"#utility.yul\":11108:11110   */\n      0x20\n        /* \"#utility.yul\":11103:11106   */\n      dup3\n        /* \"#utility.yul\":11099:11111   */\n      add\n        /* \"#utility.yul\":11092:11111   */\n      swap1\n      pop\n        /* \"#utility.yul\":10751:11117   */\n      swap2\n      swap1\n      pop\n      jump\t// out\n        /* \"#utility.yul\":11123:11542   */\n    tag_78:\n        /* \"#utility.yul\":11289:11293   */\n      0x00\n        /* \"#utility.yul\":11327:11329   */\n      0x20\n        /* \"#utility.yul\":11316:11325   */\n      dup3\n        /* \"#utility.yul\":11312:11330   */\n      add\n        /* \"#utility.yul\":11304:11330   */\n      swap1\n      pop\n        /* \"#utility.yul\":11376:11385   */\n      dup2\n        /* \"#utility.yul\":11370:11374   */\n      dup2\n        /* \"#utility.yul\":11366:11386   */\n      sub\n        /* \"#utility.yul\":11362:11363   */\n      0x00\n        /* \"#utility.yul\":11351:11360   */\n      dup4\n        /* \"#utility.yul\":11347:11364   */\n      add\n        /* \"#utility.yul\":11340:11387   */\n      mstore\n        /* \"#utility.yul\":11404:11535   */\n      tag_218\n        /* \"#utility.yul\":11530:11534   */\n      dup2\n        /* \"#utility.yul\":11404:11535   */\n      tag_118\n      jump\t// in\n    tag_218:\n        /* \"#utility.yul\":11396:11535   */\n      swap1\n      pop\n        /* \"#utility.yul\":11123:11542   */\n      swap2\n      swap1\n      pop\n      jump\t// out\n        /* \"#utility.yul\":11548:11710   */\n    tag_119:\n        /* \"#utility.yul\":11688:11702   */\n      0x696e76616c6964207465616d0000000000000000000000000000000000000000\n        /* \"#utility.yul\":11684:11685   */\n      0x00\n        /* \"#utility.yul\":11676:11682   */\n      dup3\n        /* \"#utility.yul\":11672:11686   */\n      add\n        /* \"#utility.yul\":11665:11703   */\n      mstore\n        /* \"#utility.yul\":11548:11710   */\n      pop\n      jump\t// out\n        /* \"#utility.yul\":11716:12082   */\n    tag_120:\n        /* \"#utility.yul\":11858:11861   */\n      0x00\n        /* \"#utility.yul\":11879:11946   */\n      tag_221\n        /* \"#utility.yul\":11943:11945   */\n      0x0c\n        /* \"#utility.yul\":11938:11941   */\n      dup4\n        /* \"#utility.yul\":11879:11946   */\n      tag_103\n      jump\t// in\n    tag_221:\n        /* \"#utility.yul\":11872:11946   */\n      swap2\n      pop\n        /* \"#utility.yul\":11955:12048   */\n      tag_222\n        /* \"#utility.yul\":12044:12047   */\n      dup3\n        /* \"#utility.yul\":11955:12048   */\n      tag_119\n      jump\t// in\n    tag_222:\n        /* \"#utility.yul\":12073:12075   */\n      0x20\n        /* \"#utility.yul\":12068:12071   */\n      dup3\n        /* \"#utility.yul\":12064:12076   */\n      add\n        /* \"#utility.yul\":12057:12076   */\n      swap1\n      pop\n        /* \"#utility.yul\":11716:12082   */\n      swap2\n      swap1\n      pop\n      jump\t// out\n        /* \"#utility.yul\":12088:12507   */\n    tag_82:\n        /* \"#utility.yul\":12254:12258   */\n      0x00\n        /* \"#utility.yul\":12292:12294   */\n      0x20\n        /* \"#utility.yul\":12281:12290   */\n      dup3\n        /* \"#utility.yul\":12277:12295   */\n      add\n        /* \"#utility.yul\":12269:12295   */\n      swap1\n      pop\n        /* \"#utility.yul\":12341:12350   */\n      dup2\n        /* \"#utility.yul\":12335:12339   */\n      dup2\n        /* \"#utility.yul\":12331:12351   */\n      sub\n        /* \"#utility.yul\":12327:12328   */\n      0x00\n        /* \"#utility.yul\":12316:12325   */\n      dup4\n        /* \"#utility.yul\":12312:12329   */\n      add\n        /* \"#utility.yul\":12305:12352   */\n      mstore\n        /* \"#utility.yul\":12369:12500   */\n      tag_224\n        /* \"#utility.yul\":12495:12499   */\n      dup2\n        /* \"#utility.yul\":12369:12500   */\n      tag_120\n      jump\t// in\n    tag_224:\n        /* \"#utility.yul\":12361:12500   */\n      swap1\n      pop\n        /* \"#utility.yul\":12088:12507   */\n      swap2\n      swap1\n      pop\n      jump\t// out\n\n    auxdata: 0xa26469706673582212208589a1113b9aa7c71e671ef144f5fbec8de974e8440f44bf08dcec42ce67ce2864736f6c634300081b0033\n}\n",
				"bytecode": {
					"linkReferences": {},
					"object": "6080604052348015600e575f5ffd5b50610cdc8061001c5f395ff3fe608060405260043610610054575f3560e01c80630b9a6379146100585780633ccfd60b146100745780634b9419a71461007e57806389a78f1a146100a657806392b2090f146100e3578063c19d93fb1461010d575b5f5ffd5b610072600480360381019061006d91906106ad565b610137565b005b61007c610320565b005b348015610089575f5ffd5b506100a4600480360381019061009f91906106ad565b6104e1565b005b3480156100b1575f5ffd5b506100cc60048036038101906100c79190610732565b610624565b6040516100da929190610784565b60405180910390f35b3480156100ee575f5ffd5b506100f7610650565b60405161010491906107ab565b60405180910390f35b348015610118575f5ffd5b50610121610662565b60405161012e9190610837565b60405180910390f35b5f600281111561014a576101496107c4565b5b5f5f9054906101000a900460ff16600281111561016a576101696107c4565b5b146101aa576040517f08c379a00000000000000000000000000000000000000000000000000000000081526004016101a1906108d0565b60405180910390fd5b5f34116101ec576040517f08c379a00000000000000000000000000000000000000000000000000000000081526004016101e39061095e565b60405180910390fd5b5f8160ff161480610200575060018160ff16145b8061020e575060028160ff16145b61024d576040517f08c379a0000000000000000000000000000000000000000000000000000000008152600401610244906109c6565b60405180910390fd5b60405180604001604052803481526020018260ff1681525060015f3373ffffffffffffffffffffffffffffffffffffffff1673ffffffffffffffffffffffffffffffffffffffff1681526020019081526020015f205f820151815f01556020820151816001015f6101000a81548160ff021916908360ff1602179055509050503373ffffffffffffffffffffffffffffffffffffffff167f7df19a783369d9cefb06e18b396518f817b48766b74157758eda633a62f58fa73483604051610315929190610784565b60405180910390a250565b600280811115610333576103326107c4565b5b5f5f9054906101000a900460ff166002811115610353576103526107c4565b5b14610393576040517f08c379a000000000000000000000000000000000000000000000000000000000815260040161038a90610a54565b60405180910390fd5b5f60015f3373ffffffffffffffffffffffffffffffffffffffff1673ffffffffffffffffffffffffffffffffffffffff1681526020019081526020015f2090505f815f015411610418576040517f08c379a000000000000000000000000000000000000000000000000000000000815260040161040f90610abc565b60405180910390fd5b5f60019054906101000a900460ff1660ff16816001015f9054906101000a900460ff1660ff161461047e576040517f08c379a000000000000000000000000000000000000000000000000000000000815260040161047590610b4a565b60405180910390fd5b5f6003825f015461048f9190610b95565b90505f825f01819055503373ffffffffffffffffffffffffffffffffffffffff166108fc8290811502906040515f60405180830381858888f193505050501580156104dc573d5f5f3e3d5ffd5b505050565b5f60028111156104f4576104f36107c4565b5b5f5f9054906101000a900460ff166002811115610514576105136107c4565b5b14610554576040517f08c379a000000000000000000000000000000000000000000000000000000000815260040161054b90610c20565b60405180910390fd5b5f8160ff161480610568575060018160ff16145b6105a7576040517f08c379a000000000000000000000000000000000000000000000000000000000815260040161059e90610c88565b60405180910390fd5b805f60016101000a81548160ff021916908360ff16021790555060025f5f6101000a81548160ff021916908360028111156105e5576105e46107c4565b5b02179055507fd6bcd4b6873d691163f1aff2d5585378623aef08e17513a5253eabe39c65dc508160405161061991906107ab565b60405180910390a150565b6001602052805f5260405f205f91509050805f015490806001015f9054906101000a900460ff16905082565b5f60019054906101000a900460ff1681565b5f5f9054906101000a900460ff1681565b5f5ffd5b5f60ff82169050919050565b61068c81610677565b8114610696575f5ffd5b50565b5f813590506106a781610683565b92915050565b5f602082840312156106c2576106c1610673565b5b5f6106cf84828501610699565b91505092915050565b5f73ffffffffffffffffffffffffffffffffffffffff82169050919050565b5f610701826106d8565b9050919050565b610711816106f7565b811461071b575f5ffd5b50565b5f8135905061072c81610708565b92915050565b5f6020828403121561074757610746610673565b5b5f6107548482850161071e565b91505092915050565b5f819050919050565b61076f8161075d565b82525050565b61077e81610677565b82525050565b5f6040820190506107975f830185610766565b6107a46020830184610775565b9392505050565b5f6020820190506107be5f830184610775565b92915050565b7f4e487b71000000000000000000000000000000000000000000000000000000005f52602160045260245ffd5b60038110610802576108016107c4565b5b50565b5f819050610812826107f1565b919050565b5f61082182610805565b9050919050565b61083181610817565b82525050565b5f60208201905061084a5f830184610828565b92915050565b5f82825260208201905092915050565b7f736f7272792062657474696e672069732063757272656e746c7920636c6f73655f8201527f6400000000000000000000000000000000000000000000000000000000000000602082015250565b5f6108ba602183610850565b91506108c582610860565b604082019050919050565b5f6020820190508181035f8301526108e7816108ae565b9050919050565b7f62657474696e6720616d6f756e74206d757374206265206772617465722074685f8201527f616e203000000000000000000000000000000000000000000000000000000000602082015250565b5f610948602483610850565b9150610953826108ee565b604082019050919050565b5f6020820190508181035f8301526109758161093c565b9050919050565b7f696e76616c6964207465616d2073656c656374696f6e000000000000000000005f82015250565b5f6109b0601683610850565b91506109bb8261097c565b602082019050919050565b5f6020820190508181035f8301526109dd816109a4565b9050919050565b7f626574696e67206973206e6f74207265736f6c7665642e2e20696e2070726f635f8201527f6573730000000000000000000000000000000000000000000000000000000000602082015250565b5f610a3e602383610850565b9150610a49826109e4565b604082019050919050565b5f6020820190508181035f830152610a6b81610a32565b9050919050565b7f6e6f20616e792062657420617661696c61626c650000000000000000000000005f82015250565b5f610aa6601483610850565b9150610ab182610a72565b602082019050919050565b5f6020820190508181035f830152610ad381610a9a565b9050919050565b7f796f7520646964206e6f7420626574206f6e20616e792077696e6e696e6720745f8201527f65616d2000000000000000000000000000000000000000000000000000000000602082015250565b5f610b34602483610850565b9150610b3f82610ada565b604082019050919050565b5f6020820190508181035f830152610b6181610b28565b9050919050565b7f4e487b71000000000000000000000000000000000000000000000000000000005f52601160045260245ffd5b5f610b9f8261075d565b9150610baa8361075d565b9250828202610bb88161075d565b91508282048414831517610bcf57610bce610b68565b5b5092915050565b7f62657474696e6720697320636c6f7365640000000000000000000000000000005f82015250565b5f610c0a601183610850565b9150610c1582610bd6565b602082019050919050565b5f6020820190508181035f830152610c3781610bfe565b9050919050565b7f696e76616c6964207465616d00000000000000000000000000000000000000005f82015250565b5f610c72600c83610850565b9150610c7d82610c3e565b602082019050919050565b5f6020820190508181035f830152610c9f81610c66565b905091905056fea26469706673582212208589a1113b9aa7c71e671ef144f5fbec8de974e8440f44bf08dcec42ce67ce2864736f6c634300081b0033",
					"opcodes": "PUSH1 0x80 PUSH1 0x40 MSTORE CALLVALUE DUP1 ISZERO PUSH1 0xE JUMPI PUSH0 PUSH0 REVERT JUMPDEST POP PUSH2 0xCDC DUP1 PUSH2 0x1C PUSH0 CODECOPY PUSH0 RETURN INVALID PUSH1 0x80 PUSH1 0x40 MSTORE PUSH1 0x4 CALLDATASIZE LT PUSH2 0x54 JUMPI PUSH0 CALLDATALOAD PUSH1 0xE0 SHR DUP1 PUSH4 0xB9A6379 EQ PUSH2 0x58 JUMPI DUP1 PUSH4 0x3CCFD60B EQ PUSH2 0x74 JUMPI DUP1 PUSH4 0x4B9419A7 EQ PUSH2 0x7E JUMPI DUP1 PUSH4 0x89A78F1A EQ PUSH2 0xA6 JUMPI DUP1 PUSH4 0x92B2090F EQ PUSH2 0xE3 JUMPI DUP1 PUSH4 0xC19D93FB EQ PUSH2 0x10D JUMPI JUMPDEST PUSH0 PUSH0 REVERT JUMPDEST PUSH2 0x72 PUSH1 0x4 DUP1 CALLDATASIZE SUB DUP2 ADD SWAP1 PUSH2 0x6D SWAP2 SWAP1 PUSH2 0x6AD JUMP JUMPDEST PUSH2 0x137 JUMP JUMPDEST STOP JUMPDEST PUSH2 0x7C PUSH2 0x320 JUMP JUMPDEST STOP JUMPDEST CALLVALUE DUP1 ISZERO PUSH2 0x89 JUMPI PUSH0 PUSH0 REVERT JUMPDEST POP PUSH2 0xA4 PUSH1 0x4 DUP1 CALLDATASIZE SUB DUP2 ADD SWAP1 PUSH2 0x9F SWAP2 SWAP1 PUSH2 0x6AD JUMP JUMPDEST PUSH2 0x4E1 JUMP JUMPDEST STOP JUMPDEST CALLVALUE DUP1 ISZERO PUSH2 0xB1 JUMPI PUSH0 PUSH0 REVERT JUMPDEST POP PUSH2 0xCC PUSH1 0x4 DUP1 CALLDATASIZE SUB DUP2 ADD SWAP1 PUSH2 0xC7 SWAP2 SWAP1 PUSH2 0x732 JUMP JUMPDEST PUSH2 0x624 JUMP JUMPDEST PUSH1 0x40 MLOAD PUSH2 0xDA SWAP3 SWAP2 SWAP1 PUSH2 0x784 JUMP JUMPDEST PUSH1 0x40 MLOAD DUP1 SWAP2 SUB SWAP1 RETURN JUMPDEST CALLVALUE DUP1 ISZERO PUSH2 0xEE JUMPI PUSH0 PUSH0 REVERT JUMPDEST POP PUSH2 0xF7 PUSH2 0x650 JUMP JUMPDEST PUSH1 0x40 MLOAD PUSH2 0x104 SWAP2 SWAP1 PUSH2 0x7AB JUMP JUMPDEST PUSH1 0x40 MLOAD DUP1 SWAP2 SUB SWAP1 RETURN JUMPDEST CALLVALUE DUP1 ISZERO PUSH2 0x118 JUMPI PUSH0 PUSH0 REVERT JUMPDEST POP PUSH2 0x121 PUSH2 0x662 JUMP JUMPDEST PUSH1 0x40 MLOAD PUSH2 0x12E SWAP2 SWAP1 PUSH2 0x837 JUMP JUMPDEST PUSH1 0x40 MLOAD DUP1 SWAP2 SUB SWAP1 RETURN JUMPDEST PUSH0 PUSH1 0x2 DUP2 GT ISZERO PUSH2 0x14A JUMPI PUSH2 0x149 PUSH2 0x7C4 JUMP JUMPDEST JUMPDEST PUSH0 PUSH0 SWAP1 SLOAD SWAP1 PUSH2 0x100 EXP SWAP1 DIV PUSH1 0xFF AND PUSH1 0x2 DUP2 GT ISZERO PUSH2 0x16A JUMPI PUSH2 0x169 PUSH2 0x7C4 JUMP JUMPDEST JUMPDEST EQ PUSH2 0x1AA JUMPI PUSH1 0x40 MLOAD PUSH32 0x8C379A000000000000000000000000000000000000000000000000000000000 DUP2 MSTORE PUSH1 0x4 ADD PUSH2 0x1A1 SWAP1 PUSH2 0x8D0 JUMP JUMPDEST PUSH1 0x40 MLOAD DUP1 SWAP2 SUB SWAP1 REVERT JUMPDEST PUSH0 CALLVALUE GT PUSH2 0x1EC JUMPI PUSH1 0x40 MLOAD PUSH32 0x8C379A000000000000000000000000000000000000000000000000000000000 DUP2 MSTORE PUSH1 0x4 ADD PUSH2 0x1E3 SWAP1 PUSH2 0x95E JUMP JUMPDEST PUSH1 0x40 MLOAD DUP1 SWAP2 SUB SWAP1 REVERT JUMPDEST PUSH0 DUP2 PUSH1 0xFF AND EQ DUP1 PUSH2 0x200 JUMPI POP PUSH1 0x1 DUP2 PUSH1 0xFF AND EQ JUMPDEST DUP1 PUSH2 0x20E JUMPI POP PUSH1 0x2 DUP2 PUSH1 0xFF AND EQ JUMPDEST PUSH2 0x24D JUMPI PUSH1 0x40 MLOAD PUSH32 0x8C379A000000000000000000000000000000000000000000000000000000000 DUP2 MSTORE PUSH1 0x4 ADD PUSH2 0x244 SWAP1 PUSH2 0x9C6 JUMP JUMPDEST PUSH1 0x40 MLOAD DUP1 SWAP2 SUB SWAP1 REVERT JUMPDEST PUSH1 0x40 MLOAD DUP1 PUSH1 0x40 ADD PUSH1 0x40 MSTORE DUP1 CALLVALUE DUP2 MSTORE PUSH1 0x20 ADD DUP3 PUSH1 0xFF AND DUP2 MSTORE POP PUSH1 0x1 PUSH0 CALLER PUSH20 0xFFFFFFFFFFFFFFFFFFFFFFFFFFFFFFFFFFFFFFFF AND PUSH20 0xFFFFFFFFFFFFFFFFFFFFFFFFFFFFFFFFFFFFFFFF AND DUP2 MSTORE PUSH1 0x20 ADD SWAP1 DUP2 MSTORE PUSH1 0x20 ADD PUSH0 KECCAK256 PUSH0 DUP3 ADD MLOAD DUP2 PUSH0 ADD SSTORE PUSH1 0x20 DUP3 ADD MLOAD DUP2 PUSH1 0x1 ADD PUSH0 PUSH2 0x100 EXP DUP2 SLOAD DUP2 PUSH1 0xFF MUL NOT AND SWAP1 DUP4 PUSH1 0xFF AND MUL OR SWAP1 SSTORE POP SWAP1 POP POP CALLER PUSH20 0xFFFFFFFFFFFFFFFFFFFFFFFFFFFFFFFFFFFFFFFF AND PUSH32 0x7DF19A783369D9CEFB06E18B396518F817B48766B74157758EDA633A62F58FA7 CALLVALUE DUP4 PUSH1 0x40 MLOAD PUSH2 0x315 SWAP3 SWAP2 SWAP1 PUSH2 0x784 JUMP JUMPDEST PUSH1 0x40 MLOAD DUP1 SWAP2 SUB SWAP1 LOG2 POP JUMP JUMPDEST PUSH1 0x2 DUP1 DUP2 GT ISZERO PUSH2 0x333 JUMPI PUSH2 0x332 PUSH2 0x7C4 JUMP JUMPDEST JUMPDEST PUSH0 PUSH0 SWAP1 SLOAD SWAP1 PUSH2 0x100 EXP SWAP1 DIV PUSH1 0xFF AND PUSH1 0x2 DUP2 GT ISZERO PUSH2 0x353 JUMPI PUSH2 0x352 PUSH2 0x7C4 JUMP JUMPDEST JUMPDEST EQ PUSH2 0x393 JUMPI PUSH1 0x40 MLOAD PUSH32 0x8C379A000000000000000000000000000000000000000000000000000000000 DUP2 MSTORE PUSH1 0x4 ADD PUSH2 0x38A SWAP1 PUSH2 0xA54 JUMP JUMPDEST PUSH1 0x40 MLOAD DUP1 SWAP2 SUB SWAP1 REVERT JUMPDEST PUSH0 PUSH1 0x1 PUSH0 CALLER PUSH20 0xFFFFFFFFFFFFFFFFFFFFFFFFFFFFFFFFFFFFFFFF AND PUSH20 0xFFFFFFFFFFFFFFFFFFFFFFFFFFFFFFFFFFFFFFFF AND DUP2 MSTORE PUSH1 0x20 ADD SWAP1 DUP2 MSTORE PUSH1 0x20 ADD PUSH0 KECCAK256 SWAP1 POP PUSH0 DUP2 PUSH0 ADD SLOAD GT PUSH2 0x418 JUMPI PUSH1 0x40 MLOAD PUSH32 0x8C379A000000000000000000000000000000000000000000000000000000000 DUP2 MSTORE PUSH1 0x4 ADD PUSH2 0x40F SWAP1 PUSH2 0xABC JUMP JUMPDEST PUSH1 0x40 MLOAD DUP1 SWAP2 SUB SWAP1 REVERT JUMPDEST PUSH0 PUSH1 0x1 SWAP1 SLOAD SWAP1 PUSH2 0x100 EXP SWAP1 DIV PUSH1 0xFF AND PUSH1 0xFF AND DUP2 PUSH1 0x1 ADD PUSH0 SWAP1 SLOAD SWAP1 PUSH2 0x100 EXP SWAP1 DIV PUSH1 0xFF AND PUSH1 0xFF AND EQ PUSH2 0x47E JUMPI PUSH1 0x40 MLOAD PUSH32 0x8C379A000000000000000000000000000000000000000000000000000000000 DUP2 MSTORE PUSH1 0x4 ADD PUSH2 0x475 SWAP1 PUSH2 0xB4A JUMP JUMPDEST PUSH1 0x40 MLOAD DUP1 SWAP2 SUB SWAP1 REVERT JUMPDEST PUSH0 PUSH1 0x3 DUP3 PUSH0 ADD SLOAD PUSH2 0x48F SWAP2 SWAP1 PUSH2 0xB95 JUMP JUMPDEST SWAP1 POP PUSH0 DUP3 PUSH0 ADD DUP2 SWAP1 SSTORE POP CALLER PUSH20 0xFFFFFFFFFFFFFFFFFFFFFFFFFFFFFFFFFFFFFFFF AND PUSH2 0x8FC DUP3 SWAP1 DUP2 ISZERO MUL SWAP1 PUSH1 0x40 MLOAD PUSH0 PUSH1 0x40 MLOAD DUP1 DUP4 SUB DUP2 DUP6 DUP9 DUP9 CALL SWAP4 POP POP POP POP ISZERO DUP1 ISZERO PUSH2 0x4DC JUMPI RETURNDATASIZE PUSH0 PUSH0 RETURNDATACOPY RETURNDATASIZE PUSH0 REVERT JUMPDEST POP POP POP JUMP JUMPDEST PUSH0 PUSH1 0x2 DUP2 GT ISZERO PUSH2 0x4F4 JUMPI PUSH2 0x4F3 PUSH2 0x7C4 JUMP JUMPDEST JUMPDEST PUSH0 PUSH0 SWAP1 SLOAD SWAP1 PUSH2 0x100 EXP SWAP1 DIV PUSH1 0xFF AND PUSH1 0x2 DUP2 GT ISZERO PUSH2 0x514 JUMPI PUSH2 0x513 PUSH2 0x7C4 JUMP JUMPDEST JUMPDEST EQ PUSH2 0x554 JUMPI PUSH1 0x40 MLOAD PUSH32 0x8C379A000000000000000000000000000000000000000000000000000000000 DUP2 MSTORE PUSH1 0x4 ADD PUSH2 0x54B SWAP1 PUSH2 0xC20 JUMP JUMPDEST PUSH1 0x40 MLOAD DUP1 SWAP2 SUB SWAP1 REVERT JUMPDEST PUSH0 DUP2 PUSH1 0xFF AND EQ DUP1 PUSH2 0x568 JUMPI POP PUSH1 0x1 DUP2 PUSH1 0xFF AND EQ JUMPDEST PUSH2 0x5A7 JUMPI PUSH1 0x40 MLOAD PUSH32 0x8C379A000000000000000000000000000000000000000000000000000000000 DUP2 MSTORE PUSH1 0x4 ADD PUSH2 0x59E SWAP1 PUSH2 0xC88 JUMP JUMPDEST PUSH1 0x40 MLOAD DUP1 SWAP2 SUB SWAP1 REVERT JUMPDEST DUP1 PUSH0 PUSH1 0x1 PUSH2 0x100 EXP DUP2 SLOAD DUP2 PUSH1 0xFF MUL NOT AND SWAP1 DUP4 PUSH1 0xFF AND MUL OR SWAP1 SSTORE POP PUSH1 0x2 PUSH0 PUSH0 PUSH2 0x100 EXP DUP2 SLOAD DUP2 PUSH1 0xFF MUL NOT AND SWAP1 DUP4 PUSH1 0x2 DUP2 GT ISZERO PUSH2 0x5E5 JUMPI PUSH2 0x5E4 PUSH2 0x7C4 JUMP JUMPDEST JUMPDEST MUL OR SWAP1 SSTORE POP PUSH32 0xD6BCD4B6873D691163F1AFF2D5585378623AEF08E17513A5253EABE39C65DC50 DUP2 PUSH1 0x40 MLOAD PUSH2 0x619 SWAP2 SWAP1 PUSH2 0x7AB JUMP JUMPDEST PUSH1 0x40 MLOAD DUP1 SWAP2 SUB SWAP1 LOG1 POP JUMP JUMPDEST PUSH1 0x1 PUSH1 0x20 MSTORE DUP1 PUSH0 MSTORE PUSH1 0x40 PUSH0 KECCAK256 PUSH0 SWAP2 POP SWAP1 POP DUP1 PUSH0 ADD SLOAD SWAP1 DUP1 PUSH1 0x1 ADD PUSH0 SWAP1 SLOAD SWAP1 PUSH2 0x100 EXP SWAP1 DIV PUSH1 0xFF AND SWAP1 POP DUP3 JUMP JUMPDEST PUSH0 PUSH1 0x1 SWAP1 SLOAD SWAP1 PUSH2 0x100 EXP SWAP1 DIV PUSH1 0xFF AND DUP2 JUMP JUMPDEST PUSH0 PUSH0 SWAP1 SLOAD SWAP1 PUSH2 0x100 EXP SWAP1 DIV PUSH1 0xFF AND DUP2 JUMP JUMPDEST PUSH0 PUSH0 REVERT JUMPDEST PUSH0 PUSH1 0xFF DUP3 AND SWAP1 POP SWAP2 SWAP1 POP JUMP JUMPDEST PUSH2 0x68C DUP2 PUSH2 0x677 JUMP JUMPDEST DUP2 EQ PUSH2 0x696 JUMPI PUSH0 PUSH0 REVERT JUMPDEST POP JUMP JUMPDEST PUSH0 DUP2 CALLDATALOAD SWAP1 POP PUSH2 0x6A7 DUP2 PUSH2 0x683 JUMP JUMPDEST SWAP3 SWAP2 POP POP JUMP JUMPDEST PUSH0 PUSH1 0x20 DUP3 DUP5 SUB SLT ISZERO PUSH2 0x6C2 JUMPI PUSH2 0x6C1 PUSH2 0x673 JUMP JUMPDEST JUMPDEST PUSH0 PUSH2 0x6CF DUP5 DUP3 DUP6 ADD PUSH2 0x699 JUMP JUMPDEST SWAP2 POP POP SWAP3 SWAP2 POP POP JUMP JUMPDEST PUSH0 PUSH20 0xFFFFFFFFFFFFFFFFFFFFFFFFFFFFFFFFFFFFFFFF DUP3 AND SWAP1 POP SWAP2 SWAP1 POP JUMP JUMPDEST PUSH0 PUSH2 0x701 DUP3 PUSH2 0x6D8 JUMP JUMPDEST SWAP1 POP SWAP2 SWAP1 POP JUMP JUMPDEST PUSH2 0x711 DUP2 PUSH2 0x6F7 JUMP JUMPDEST DUP2 EQ PUSH2 0x71B JUMPI PUSH0 PUSH0 REVERT JUMPDEST POP JUMP JUMPDEST PUSH0 DUP2 CALLDATALOAD SWAP1 POP PUSH2 0x72C DUP2 PUSH2 0x708 JUMP JUMPDEST SWAP3 SWAP2 POP POP JUMP JUMPDEST PUSH0 PUSH1 0x20 DUP3 DUP5 SUB SLT ISZERO PUSH2 0x747 JUMPI PUSH2 0x746 PUSH2 0x673 JUMP JUMPDEST JUMPDEST PUSH0 PUSH2 0x754 DUP5 DUP3 DUP6 ADD PUSH2 0x71E JUMP JUMPDEST SWAP2 POP POP SWAP3 SWAP2 POP POP JUMP JUMPDEST PUSH0 DUP2 SWAP1 POP SWAP2 SWAP1 POP JUMP JUMPDEST PUSH2 0x76F DUP2 PUSH2 0x75D JUMP JUMPDEST DUP3 MSTORE POP POP JUMP JUMPDEST PUSH2 0x77E DUP2 PUSH2 0x677 JUMP JUMPDEST DUP3 MSTORE POP POP JUMP JUMPDEST PUSH0 PUSH1 0x40 DUP3 ADD SWAP1 POP PUSH2 0x797 PUSH0 DUP4 ADD DUP6 PUSH2 0x766 JUMP JUMPDEST PUSH2 0x7A4 PUSH1 0x20 DUP4 ADD DUP5 PUSH2 0x775 JUMP JUMPDEST SWAP4 SWAP3 POP POP POP JUMP JUMPDEST PUSH0 PUSH1 0x20 DUP3 ADD SWAP1 POP PUSH2 0x7BE PUSH0 DUP4 ADD DUP5 PUSH2 0x775 JUMP JUMPDEST SWAP3 SWAP2 POP POP JUMP JUMPDEST PUSH32 0x4E487B7100000000000000000000000000000000000000000000000000000000 PUSH0 MSTORE PUSH1 0x21 PUSH1 0x4 MSTORE PUSH1 0x24 PUSH0 REVERT JUMPDEST PUSH1 0x3 DUP2 LT PUSH2 0x802 JUMPI PUSH2 0x801 PUSH2 0x7C4 JUMP JUMPDEST JUMPDEST POP JUMP JUMPDEST PUSH0 DUP2 SWAP1 POP PUSH2 0x812 DUP3 PUSH2 0x7F1 JUMP JUMPDEST SWAP2 SWAP1 POP JUMP JUMPDEST PUSH0 PUSH2 0x821 DUP3 PUSH2 0x805 JUMP JUMPDEST SWAP1 POP SWAP2 SWAP1 POP JUMP JUMPDEST PUSH2 0x831 DUP2 PUSH2 0x817 JUMP JUMPDEST DUP3 MSTORE POP POP JUMP JUMPDEST PUSH0 PUSH1 0x20 DUP3 ADD SWAP1 POP PUSH2 0x84A PUSH0 DUP4 ADD DUP5 PUSH2 0x828 JUMP JUMPDEST SWAP3 SWAP2 POP POP JUMP JUMPDEST PUSH0 DUP3 DUP3 MSTORE PUSH1 0x20 DUP3 ADD SWAP1 POP SWAP3 SWAP2 POP POP JUMP JUMPDEST PUSH32 0x736F7272792062657474696E672069732063757272656E746C7920636C6F7365 PUSH0 DUP3 ADD MSTORE PUSH32 0x6400000000000000000000000000000000000000000000000000000000000000 PUSH1 0x20 DUP3 ADD MSTORE POP JUMP JUMPDEST PUSH0 PUSH2 0x8BA PUSH1 0x21 DUP4 PUSH2 0x850 JUMP JUMPDEST SWAP2 POP PUSH2 0x8C5 DUP3 PUSH2 0x860 JUMP JUMPDEST PUSH1 0x40 DUP3 ADD SWAP1 POP SWAP2 SWAP1 POP JUMP JUMPDEST PUSH0 PUSH1 0x20 DUP3 ADD SWAP1 POP DUP2 DUP2 SUB PUSH0 DUP4 ADD MSTORE PUSH2 0x8E7 DUP2 PUSH2 0x8AE JUMP JUMPDEST SWAP1 POP SWAP2 SWAP1 POP JUMP JUMPDEST PUSH32 0x62657474696E6720616D6F756E74206D75737420626520677261746572207468 PUSH0 DUP3 ADD MSTORE PUSH32 0x616E203000000000000000000000000000000000000000000000000000000000 PUSH1 0x20 DUP3 ADD MSTORE POP JUMP JUMPDEST PUSH0 PUSH2 0x948 PUSH1 0x24 DUP4 PUSH2 0x850 JUMP JUMPDEST SWAP2 POP PUSH2 0x953 DUP3 PUSH2 0x8EE JUMP JUMPDEST PUSH1 0x40 DUP3 ADD SWAP1 POP SWAP2 SWAP1 POP JUMP JUMPDEST PUSH0 PUSH1 0x20 DUP3 ADD SWAP1 POP DUP2 DUP2 SUB PUSH0 DUP4 ADD MSTORE PUSH2 0x975 DUP2 PUSH2 0x93C JUMP JUMPDEST SWAP1 POP SWAP2 SWAP1 POP JUMP JUMPDEST PUSH32 0x696E76616C6964207465616D2073656C656374696F6E00000000000000000000 PUSH0 DUP3 ADD MSTORE POP JUMP JUMPDEST PUSH0 PUSH2 0x9B0 PUSH1 0x16 DUP4 PUSH2 0x850 JUMP JUMPDEST SWAP2 POP PUSH2 0x9BB DUP3 PUSH2 0x97C JUMP JUMPDEST PUSH1 0x20 DUP3 ADD SWAP1 POP SWAP2 SWAP1 POP JUMP JUMPDEST PUSH0 PUSH1 0x20 DUP3 ADD SWAP1 POP DUP2 DUP2 SUB PUSH0 DUP4 ADD MSTORE PUSH2 0x9DD DUP2 PUSH2 0x9A4 JUMP JUMPDEST SWAP1 POP SWAP2 SWAP1 POP JUMP JUMPDEST PUSH32 0x626574696E67206973206E6F74207265736F6C7665642E2E20696E2070726F63 PUSH0 DUP3 ADD MSTORE PUSH32 0x6573730000000000000000000000000000000000000000000000000000000000 PUSH1 0x20 DUP3 ADD MSTORE POP JUMP JUMPDEST PUSH0 PUSH2 0xA3E PUSH1 0x23 DUP4 PUSH2 0x850 JUMP JUMPDEST SWAP2 POP PUSH2 0xA49 DUP3 PUSH2 0x9E4 JUMP JUMPDEST PUSH1 0x40 DUP3 ADD SWAP1 POP SWAP2 SWAP1 POP JUMP JUMPDEST PUSH0 PUSH1 0x20 DUP3 ADD SWAP1 POP DUP2 DUP2 SUB PUSH0 DUP4 ADD MSTORE PUSH2 0xA6B DUP2 PUSH2 0xA32 JUMP JUMPDEST SWAP1 POP SWAP2 SWAP1 POP JUMP JUMPDEST PUSH32 0x6E6F20616E792062657420617661696C61626C65000000000000000000000000 PUSH0 DUP3 ADD MSTORE POP JUMP JUMPDEST PUSH0 PUSH2 0xAA6 PUSH1 0x14 DUP4 PUSH2 0x850 JUMP JUMPDEST SWAP2 POP PUSH2 0xAB1 DUP3 PUSH2 0xA72 JUMP JUMPDEST PUSH1 0x20 DUP3 ADD SWAP1 POP SWAP2 SWAP1 POP JUMP JUMPDEST PUSH0 PUSH1 0x20 DUP3 ADD SWAP1 POP DUP2 DUP2 SUB PUSH0 DUP4 ADD MSTORE PUSH2 0xAD3 DUP2 PUSH2 0xA9A JUMP JUMPDEST SWAP1 POP SWAP2 SWAP1 POP JUMP JUMPDEST PUSH32 0x796F7520646964206E6F7420626574206F6E20616E792077696E6E696E672074 PUSH0 DUP3 ADD MSTORE PUSH32 0x65616D2000000000000000000000000000000000000000000000000000000000 PUSH1 0x20 DUP3 ADD MSTORE POP JUMP JUMPDEST PUSH0 PUSH2 0xB34 PUSH1 0x24 DUP4 PUSH2 0x850 JUMP JUMPDEST SWAP2 POP PUSH2 0xB3F DUP3 PUSH2 0xADA JUMP JUMPDEST PUSH1 0x40 DUP3 ADD SWAP1 POP SWAP2 SWAP1 POP JUMP JUMPDEST PUSH0 PUSH1 0x20 DUP3 ADD SWAP1 POP DUP2 DUP2 SUB PUSH0 DUP4 ADD MSTORE PUSH2 0xB61 DUP2 PUSH2 0xB28 JUMP JUMPDEST SWAP1 POP SWAP2 SWAP1 POP JUMP JUMPDEST PUSH32 0x4E487B7100000000000000000000000000000000000000000000000000000000 PUSH0 MSTORE PUSH1 0x11 PUSH1 0x4 MSTORE PUSH1 0x24 PUSH0 REVERT JUMPDEST PUSH0 PUSH2 0xB9F DUP3 PUSH2 0x75D JUMP JUMPDEST SWAP2 POP PUSH2 0xBAA DUP4 PUSH2 0x75D JUMP JUMPDEST SWAP3 POP DUP3 DUP3 MUL PUSH2 0xBB8 DUP2 PUSH2 0x75D JUMP JUMPDEST SWAP2 POP DUP3 DUP3 DIV DUP5 EQ DUP4 ISZERO OR PUSH2 0xBCF JUMPI PUSH2 0xBCE PUSH2 0xB68 JUMP JUMPDEST JUMPDEST POP SWAP3 SWAP2 POP POP JUMP JUMPDEST PUSH32 0x62657474696E6720697320636C6F736564000000000000000000000000000000 PUSH0 DUP3 ADD MSTORE POP JUMP JUMPDEST PUSH0 PUSH2 0xC0A PUSH1 0x11 DUP4 PUSH2 0x850 JUMP JUMPDEST SWAP2 POP PUSH2 0xC15 DUP3 PUSH2 0xBD6 JUMP JUMPDEST PUSH1 0x20 DUP3 ADD SWAP1 POP SWAP2 SWAP1 POP JUMP JUMPDEST PUSH0 PUSH1 0x20 DUP3 ADD SWAP1 POP DUP2 DUP2 SUB PUSH0 DUP4 ADD MSTORE PUSH2 0xC37 DUP2 PUSH2 0xBFE JUMP JUMPDEST SWAP1 POP SWAP2 SWAP1 POP JUMP JUMPDEST PUSH32 0x696E76616C6964207465616D0000000000000000000000000000000000000000 PUSH0 DUP3 ADD MSTORE POP JUMP JUMPDEST PUSH0 PUSH2 0xC72 PUSH1 0xC DUP4 PUSH2 0x850 JUMP JUMPDEST SWAP2 POP PUSH2 0xC7D DUP3 PUSH2 0xC3E JUMP JUMPDEST PUSH1 0x20 DUP3 ADD SWAP1 POP SWAP2 SWAP1 POP JUMP JUMPDEST PUSH0 PUSH1 0x20 DUP3 ADD SWAP1 POP DUP2 DUP2 SUB PUSH0 DUP4 ADD MSTORE PUSH2 0xC9F DUP2 PUSH2 0xC66 JUMP JUMPDEST SWAP1 POP SWAP2 SWAP1 POP JUMP INVALID LOG2 PUSH5 0x6970667358 0x22 SLT KECCAK256 DUP6 DUP10 LOG1 GT EXTCODESIZE SWAP11 0xA7 0xC7 0x1E PUSH8 0x1EF144F5FBEC8DE9 PUSH21 0xE8440F44BF08DCEC42CE67CE2864736F6C63430008 SHL STOP CALLER "
				},
				"gasEstimates": {
					"creation": {
						"codeDepositCost": "658400",
						"executionCost": "687",
						"totalCost": "659087"
					},
					"external": {
						"bets(address)": "5111",
						"placebet(uint8)": "infinite",
						"setwinningteam(uint8)": "infinite",
						"state()": "2641",
						"winningteam()": "2582",
						"withdraw()": "infinite"
					}
				},
				"methodIdentifiers": {
					"bets(address)": "89a78f1a",
					"placebet(uint8)": "0b9a6379",
					"setwinningteam(uint8)": "4b9419a7",
					"state()": "c19d93fb",
					"winningteam()": "92b2090f",
					"withdraw()": "3ccfd60b"
				}
			},
			"storageLayout": {
				"storage": [
					{
						"astId": 8,
						"contract": "lab-Betting contract.sol:Bettingcontract",
						"label": "state",
						"offset": 0,
						"slot": "0",
						"type": "t_enum(bettingstate)5"
					},
					{
						"astId": 10,
						"contract": "lab-Betting contract.sol:Bettingcontract",
						"label": "winningteam",
						"offset": 1,
						"slot": "0",
						"type": "t_uint8"
					},
					{
						"astId": 20,
						"contract": "lab-Betting contract.sol:Bettingcontract",
						"label": "bets",
						"offset": 0,
						"slot": "1",
						"type": "t_mapping(t_address,t_struct(Bet)15_storage)"
					}
				],
				"types": {
					"t_address": {
						"encoding": "inplace",
						"label": "address",
						"numberOfBytes": "20"
					},
					"t_enum(bettingstate)5": {
						"encoding": "inplace",
						"label": "enum Bettingcontract.bettingstate",
						"numberOfBytes": "1"
					},
					"t_mapping(t_address,t_struct(Bet)15_storage)": {
						"encoding": "mapping",
						"key": "t_address",
						"label": "mapping(address => struct Bettingcontract.Bet)",
						"numberOfBytes": "32",
						"value": "t_struct(Bet)15_storage"
					},
					"t_struct(Bet)15_storage": {
						"encoding": "inplace",
						"label": "struct Bettingcontract.Bet",
						"members": [
							{
								"astId": 12,
								"contract": "lab-Betting contract.sol:Bettingcontract",
								"label": "amount",
								"offset": 0,
								"slot": "0",
								"type": "t_uint256"
							},
							{
								"astId": 14,
								"contract": "lab-Betting contract.sol:Bettingcontract",
								"label": "team",
								"offset": 0,
								"slot": "1",
								"type": "t_uint8"
							}
						],
						"numberOfBytes": "64"
					},
					"t_uint256": {
						"encoding": "inplace",
						"label": "uint256",
						"numberOfBytes": "32"
					},
					"t_uint8": {
						"encoding": "inplace",
						"label": "uint8",
						"numberOfBytes": "1"
					}
				}
			},
			"userdoc": {
				"kind": "user",
				"methods": {},
				"version": 1
			}
		}
	}
}