{
	"solidity_series.sol/BOOKINGSITE.sol": {
		"BOOKINGsite": {
			"abi": [
				{
					"inputs": [
						{
							"internalType": "uint256",
							"name": "_userid",
							"type": "uint256"
						},
						{
							"internalType": "string",
							"name": "_name",
							"type": "string"
						},
						{
							"internalType": "uint8",
							"name": "_age",
							"type": "uint8"
						},
						{
							"internalType": "string",
							"name": "_contactdetails",
							"type": "string"
						},
						{
							"internalType": "string",
							"name": "_busnumber",
							"type": "string"
						},
						{
							"internalType": "string",
							"name": "_origin",
							"type": "string"
						},
						{
							"internalType": "string",
							"name": "_destination",
							"type": "string"
						},
						{
							"internalType": "uint256",
							"name": "_dateofjourney",
							"type": "uint256"
						},
						{
							"internalType": "uint8",
							"name": "_seatnumber",
							"type": "uint8"
						}
					],
					"name": "bookBusTicket",
					"outputs": [],
					"stateMutability": "nonpayable",
					"type": "function"
				},
				{
					"inputs": [
						{
							"internalType": "uint256",
							"name": "_userid",
							"type": "uint256"
						},
						{
							"internalType": "string",
							"name": "_name",
							"type": "string"
						},
						{
							"internalType": "uint8",
							"name": "_age",
							"type": "uint8"
						},
						{
							"internalType": "string",
							"name": "contactdetails",
							"type": "string"
						},
						{
							"internalType": "string",
							"name": "_flightnumber",
							"type": "string"
						},
						{
							"internalType": "string",
							"name": "_origin",
							"type": "string"
						},
						{
							"internalType": "string",
							"name": "_destination",
							"type": "string"
						},
						{
							"internalType": "uint256",
							"name": "_dateofJourney",
							"type": "uint256"
						},
						{
							"internalType": "string",
							"name": "_seatclass",
							"type": "string"
						}
					],
					"name": "bookairlineticket",
					"outputs": [],
					"stateMutability": "nonpayable",
					"type": "function"
				},
				{
					"inputs": [
						{
							"internalType": "uint256",
							"name": "_userid",
							"type": "uint256"
						},
						{
							"internalType": "string",
							"name": "_name",
							"type": "string"
						},
						{
							"internalType": "uint8",
							"name": "_age",
							"type": "uint8"
						},
						{
							"internalType": "string",
							"name": "_contactdetails",
							"type": "string"
						},
						{
							"internalType": "string",
							"name": "_moviename",
							"type": "string"
						},
						{
							"internalType": "string",
							"name": "_cinemahall",
							"type": "string"
						},
						{
							"internalType": "uint256",
							"name": "_showtime",
							"type": "uint256"
						},
						{
							"internalType": "uint8",
							"name": "_seatnumber",
							"type": "uint8"
						}
					],
					"name": "bookcinematicket",
					"outputs": [],
					"stateMutability": "nonpayable",
					"type": "function"
				},
				{
					"inputs": [
						{
							"internalType": "uint256",
							"name": "_userid",
							"type": "uint256"
						},
						{
							"internalType": "string",
							"name": "_name",
							"type": "string"
						},
						{
							"internalType": "uint8",
							"name": "_age",
							"type": "uint8"
						},
						{
							"internalType": "string",
							"name": "_contactdetails",
							"type": "string"
						},
						{
							"internalType": "string",
							"name": "_matchdetails",
							"type": "string"
						},
						{
							"internalType": "string",
							"name": "_stadium",
							"type": "string"
						},
						{
							"internalType": "uint256",
							"name": "_matchdate",
							"type": "uint256"
						},
						{
							"internalType": "uint8",
							"name": "_seatnumber",
							"type": "uint8"
						}
					],
					"name": "bookcricketticket",
					"outputs": [],
					"stateMutability": "nonpayable",
					"type": "function"
				},
				{
					"inputs": [
						{
							"internalType": "uint256",
							"name": "",
							"type": "uint256"
						}
					],
					"name": "bookings",
					"outputs": [
						{
							"internalType": "uint256",
							"name": "bookingid",
							"type": "uint256"
						},
						{
							"internalType": "enum BOOKINGsite.bookingtype",
							"name": "Bookingtype",
							"type": "uint8"
						},
						{
							"components": [
								{
									"internalType": "uint256",
									"name": "userid",
									"type": "uint256"
								},
								{
									"internalType": "string",
									"name": "name",
									"type": "string"
								},
								{
									"internalType": "uint8",
									"name": "age",
									"type": "uint8"
								},
								{
									"internalType": "string",
									"name": "contactdetails",
									"type": "string"
								}
							],
							"internalType": "struct BOOKINGsite.user",
							"name": "User",
							"type": "tuple"
						},
						{
							"components": [
								{
									"internalType": "string",
									"name": "busorigin",
									"type": "string"
								},
								{
									"internalType": "string",
									"name": "busnumber",
									"type": "string"
								},
								{
									"internalType": "string",
									"name": "busdestination",
									"type": "string"
								},
								{
									"internalType": "uint256",
									"name": "dateofjourney",
									"type": "uint256"
								},
								{
									"internalType": "uint8",
									"name": "seatnumber",
									"type": "uint8"
								}
							],
							"internalType": "struct BOOKINGsite.busbooking",
							"name": "Busbooking",
							"type": "tuple"
						},
						{
							"components": [
								{
									"internalType": "string",
									"name": "moviename",
									"type": "string"
								},
								{
									"internalType": "string",
									"name": "cinemahall",
									"type": "string"
								},
								{
									"internalType": "uint256",
									"name": "showtime",
									"type": "uint256"
								},
								{
									"internalType": "uint8",
									"name": "seatnumber",
									"type": "uint8"
								}
							],
							"internalType": "struct BOOKINGsite.cinemabooking",
							"name": "Cinemabooking",
							"type": "tuple"
						},
						{
							"components": [
								{
									"internalType": "string",
									"name": "flightnumber",
									"type": "string"
								},
								{
									"internalType": "string",
									"name": "origin",
									"type": "string"
								},
								{
									"internalType": "string",
									"name": "destination",
									"type": "string"
								},
								{
									"internalType": "uint256",
									"name": "dateofJourney",
									"type": "uint256"
								},
								{
									"internalType": "string",
									"name": "seatclass",
									"type": "string"
								}
							],
							"internalType": "struct BOOKINGsite.airlinebooking",
							"name": "Airlinebooking",
							"type": "tuple"
						},
						{
							"components": [
								{
									"internalType": "string",
									"name": "trainnumber",
									"type": "string"
								},
								{
									"internalType": "string",
									"name": "origin",
									"type": "string"
								},
								{
									"internalType": "string",
									"name": "destination",
									"type": "string"
								},
								{
									"internalType": "uint256",
									"name": "dateofJourney",
									"type": "uint256"
								},
								{
									"internalType": "uint8",
									"name": "seatnumber",
									"type": "uint8"
								}
							],
							"internalType": "struct BOOKINGsite.railwaybooking",
							"name": "Railwaybooking",
							"type": "tuple"
						},
						{
							"components": [
								{
									"internalType": "string",
									"name": "matchdetails",
									"type": "string"
								},
								{
									"internalType": "string",
									"name": "stadium",
									"type": "string"
								},
								{
									"internalType": "uint256",
									"name": "matchdate",
									"type": "uint256"
								},
								{
									"internalType": "uint8",
									"name": "seatnumber",
									"type": "uint8"
								}
							],
							"internalType": "struct BOOKINGsite.cricketbooking",
							"name": "Cricketbooking",
							"type": "tuple"
						}
					],
					"stateMutability": "view",
					"type": "function"
				},
				{
					"inputs": [
						{
							"internalType": "uint256",
							"name": "_userid",
							"type": "uint256"
						},
						{
							"internalType": "string",
							"name": "_name",
							"type": "string"
						},
						{
							"internalType": "uint8",
							"name": "_age",
							"type": "uint8"
						},
						{
							"internalType": "string",
							"name": "_contactdetails",
							"type": "string"
						},
						{
							"internalType": "string",
							"name": "_trainnumber",
							"type": "string"
						},
						{
							"internalType": "string",
							"name": "_origin",
							"type": "string"
						},
						{
							"internalType": "string",
							"name": "_destination",
							"type": "string"
						},
						{
							"internalType": "uint256",
							"name": "_dateofJourney",
							"type": "uint256"
						},
						{
							"internalType": "uint8",
							"name": "_seatnumber",
							"type": "uint8"
						}
					],
					"name": "bookrailwayticket",
					"outputs": [],
					"stateMutability": "nonpayable",
					"type": "function"
				}
			],
			"devdoc": {
				"kind": "dev",
				"methods": {},
				"version": 1
			},
			"evm": {
				"assembly": "    /* \"solidity_series.sol/BOOKINGSITE.sol\":142:8159  contract BOOKINGsite {... */\n  mstore(0x40, 0x80)\n  callvalue\n  dup1\n  iszero\n  tag_1\n  jumpi\n  revert(0x00, 0x00)\ntag_1:\n  pop\n  dataSize(sub_0)\n  dup1\n  dataOffset(sub_0)\n  0x00\n  codecopy\n  0x00\n  return\nstop\n\nsub_0: assembly {\n        /* \"solidity_series.sol/BOOKINGSITE.sol\":142:8159  contract BOOKINGsite {... */\n      mstore(0x40, 0x80)\n      callvalue\n      dup1\n      iszero\n      tag_1\n      jumpi\n      revert(0x00, 0x00)\n    tag_1:\n      pop\n      jumpi(tag_2, lt(calldatasize, 0x04))\n      shr(0xe0, calldataload(0x00))\n      dup1\n      0x1dab301e\n      eq\n      tag_3\n      jumpi\n      dup1\n      0x2bf72580\n      eq\n      tag_4\n      jumpi\n      dup1\n      0x6621c583\n      eq\n      tag_5\n      jumpi\n      dup1\n      0xa51dd238\n      eq\n      tag_6\n      jumpi\n      dup1\n      0xea3f423e\n      eq\n      tag_7\n      jumpi\n      dup1\n      0xed1d25a4\n      eq\n      tag_8\n      jumpi\n    tag_2:\n      revert(0x00, 0x00)\n        /* \"solidity_series.sol/BOOKINGSITE.sol\":1578:1621  mapping(uint256 => booking) public bookings */\n    tag_3:\n      tag_9\n      0x04\n      dup1\n      calldatasize\n      sub\n      dup2\n      add\n      swap1\n      tag_10\n      swap2\n      swap1\n      tag_11\n      jump\t// in\n    tag_10:\n      tag_12\n      jump\t// in\n    tag_9:\n      mload(0x40)\n      tag_13\n      swap9\n      swap8\n      swap7\n      swap6\n      swap5\n      swap4\n      swap3\n      swap2\n      swap1\n      tag_14\n      jump\t// in\n    tag_13:\n      mload(0x40)\n      dup1\n      swap2\n      sub\n      swap1\n      return\n        /* \"solidity_series.sol/BOOKINGSITE.sol\":5537:6880  function bookrailwayticket(... */\n    tag_4:\n      tag_15\n      0x04\n      dup1\n      calldatasize\n      sub\n      dup2\n      add\n      swap1\n      tag_16\n      swap2\n      swap1\n      tag_17\n      jump\t// in\n    tag_16:\n      tag_18\n      jump\t// in\n    tag_15:\n      stop\n        /* \"solidity_series.sol/BOOKINGSITE.sol\":4176:5525  function bookairlineticket(... */\n    tag_5:\n      tag_19\n      0x04\n      dup1\n      calldatasize\n      sub\n      dup2\n      add\n      swap1\n      tag_20\n      swap2\n      swap1\n      tag_21\n      jump\t// in\n    tag_20:\n      tag_22\n      jump\t// in\n    tag_19:\n      stop\n        /* \"solidity_series.sol/BOOKINGSITE.sol\":2972:4170  function bookcinematicket(... */\n    tag_6:\n      tag_23\n      0x04\n      dup1\n      calldatasize\n      sub\n      dup2\n      add\n      swap1\n      tag_24\n      swap2\n      swap1\n      tag_25\n      jump\t// in\n    tag_24:\n      tag_26\n      jump\t// in\n    tag_23:\n      stop\n        /* \"solidity_series.sol/BOOKINGSITE.sol\":1634:2966  function bookBusTicket( ... */\n    tag_7:\n      tag_27\n      0x04\n      dup1\n      calldatasize\n      sub\n      dup2\n      add\n      swap1\n      tag_28\n      swap2\n      swap1\n      tag_17\n      jump\t// in\n    tag_28:\n      tag_29\n      jump\t// in\n    tag_27:\n      stop\n        /* \"solidity_series.sol/BOOKINGSITE.sol\":6892:8156  function bookcricketticket(... */\n    tag_8:\n      tag_30\n      0x04\n      dup1\n      calldatasize\n      sub\n      dup2\n      add\n      swap1\n      tag_31\n      swap2\n      swap1\n      tag_25\n      jump\t// in\n    tag_31:\n      tag_32\n      jump\t// in\n    tag_30:\n      stop\n        /* \"solidity_series.sol/BOOKINGSITE.sol\":1578:1621  mapping(uint256 => booking) public bookings */\n    tag_12:\n      mstore(0x20, 0x01)\n      dup1\n      0x00\n      mstore\n      keccak256(0x00, 0x40)\n      0x00\n      swap2\n      pop\n      swap1\n      pop\n      dup1\n      0x00\n      add\n      sload\n      swap1\n      dup1\n      0x01\n      add\n      0x00\n      swap1\n      sload\n      swap1\n      0x0100\n      exp\n      swap1\n      div\n      0xff\n      and\n      swap1\n      dup1\n      0x02\n      add\n      mload(0x40)\n      dup1\n      0x80\n      add\n      0x40\n      mstore\n      swap1\n      dup2\n      0x00\n      dup3\n      add\n      sload\n      dup2\n      mstore\n      0x20\n      add\n      0x01\n      dup3\n      add\n      dup1\n      sload\n      tag_33\n      swap1\n      tag_34\n      jump\t// in\n    tag_33:\n      dup1\n      0x1f\n      add\n      0x20\n      dup1\n      swap2\n      div\n      mul\n      0x20\n      add\n      mload(0x40)\n      swap1\n      dup2\n      add\n      0x40\n      mstore\n      dup1\n      swap3\n      swap2\n      swap1\n      dup2\n      dup2\n      mstore\n      0x20\n      add\n      dup3\n      dup1\n      sload\n      tag_35\n      swap1\n      tag_34\n      jump\t// in\n    tag_35:\n      dup1\n      iszero\n      tag_36\n      jumpi\n      dup1\n      0x1f\n      lt\n      tag_37\n      jumpi\n      0x0100\n      dup1\n      dup4\n      sload\n      div\n      mul\n      dup4\n      mstore\n      swap2\n      0x20\n      add\n      swap2\n      jump(tag_36)\n    tag_37:\n      dup3\n      add\n      swap2\n      swap1\n      0x00\n      mstore\n      keccak256(0x00, 0x20)\n      swap1\n    tag_38:\n      dup2\n      sload\n      dup2\n      mstore\n      swap1\n      0x01\n      add\n      swap1\n      0x20\n      add\n      dup1\n      dup4\n      gt\n      tag_38\n      jumpi\n      dup3\n      swap1\n      sub\n      0x1f\n      and\n      dup3\n      add\n      swap2\n    tag_36:\n      pop\n      pop\n      pop\n      pop\n      pop\n      dup2\n      mstore\n      0x20\n      add\n      0x02\n      dup3\n      add\n      0x00\n      swap1\n      sload\n      swap1\n      0x0100\n      exp\n      swap1\n      div\n      0xff\n      and\n      0xff\n      and\n      0xff\n      and\n      dup2\n      mstore\n      0x20\n      add\n      0x03\n      dup3\n      add\n      dup1\n      sload\n      tag_39\n      swap1\n      tag_34\n      jump\t// in\n    tag_39:\n      dup1\n      0x1f\n      add\n      0x20\n      dup1\n      swap2\n      div\n      mul\n      0x20\n      add\n      mload(0x40)\n      swap1\n      dup2\n      add\n      0x40\n      mstore\n      dup1\n      swap3\n      swap2\n      swap1\n      dup2\n      dup2\n      mstore\n      0x20\n      add\n      dup3\n      dup1\n      sload\n      tag_40\n      swap1\n      tag_34\n      jump\t// in\n    tag_40:\n      dup1\n      iszero\n      tag_41\n      jumpi\n      dup1\n      0x1f\n      lt\n      tag_42\n      jumpi\n      0x0100\n      dup1\n      dup4\n      sload\n      div\n      mul\n      dup4\n      mstore\n      swap2\n      0x20\n      add\n      swap2\n      jump(tag_41)\n    tag_42:\n      dup3\n      add\n      swap2\n      swap1\n      0x00\n      mstore\n      keccak256(0x00, 0x20)\n      swap1\n    tag_43:\n      dup2\n      sload\n      dup2\n      mstore\n      swap1\n      0x01\n      add\n      swap1\n      0x20\n      add\n      dup1\n      dup4\n      gt\n      tag_43\n      jumpi\n      dup3\n      swap1\n      sub\n      0x1f\n      and\n      dup3\n      add\n      swap2\n    tag_41:\n      pop\n      pop\n      pop\n      pop\n      pop\n      dup2\n      mstore\n      pop\n      pop\n      swap1\n      dup1\n      0x06\n      add\n      mload(0x40)\n      dup1\n      0xa0\n      add\n      0x40\n      mstore\n      swap1\n      dup2\n      0x00\n      dup3\n      add\n      dup1\n      sload\n      tag_44\n      swap1\n      tag_34\n      jump\t// in\n    tag_44:\n      dup1\n      0x1f\n      add\n      0x20\n      dup1\n      swap2\n      div\n      mul\n      0x20\n      add\n      mload(0x40)\n      swap1\n      dup2\n      add\n      0x40\n      mstore\n      dup1\n      swap3\n      swap2\n      swap1\n      dup2\n      dup2\n      mstore\n      0x20\n      add\n      dup3\n      dup1\n      sload\n      tag_45\n      swap1\n      tag_34\n      jump\t// in\n    tag_45:\n      dup1\n      iszero\n      tag_46\n      jumpi\n      dup1\n      0x1f\n      lt\n      tag_47\n      jumpi\n      0x0100\n      dup1\n      dup4\n      sload\n      div\n      mul\n      dup4\n      mstore\n      swap2\n      0x20\n      add\n      swap2\n      jump(tag_46)\n    tag_47:\n      dup3\n      add\n      swap2\n      swap1\n      0x00\n      mstore\n      keccak256(0x00, 0x20)\n      swap1\n    tag_48:\n      dup2\n      sload\n      dup2\n      mstore\n      swap1\n      0x01\n      add\n      swap1\n      0x20\n      add\n      dup1\n      dup4\n      gt\n      tag_48\n      jumpi\n      dup3\n      swap1\n      sub\n      0x1f\n      and\n      dup3\n      add\n      swap2\n    tag_46:\n      pop\n      pop\n      pop\n      pop\n      pop\n      dup2\n      mstore\n      0x20\n      add\n      0x01\n      dup3\n      add\n      dup1\n      sload\n      tag_49\n      swap1\n      tag_34\n      jump\t// in\n    tag_49:\n      dup1\n      0x1f\n      add\n      0x20\n      dup1\n      swap2\n      div\n      mul\n      0x20\n      add\n      mload(0x40)\n      swap1\n      dup2\n      add\n      0x40\n      mstore\n      dup1\n      swap3\n      swap2\n      swap1\n      dup2\n      dup2\n      mstore\n      0x20\n      add\n      dup3\n      dup1\n      sload\n      tag_50\n      swap1\n      tag_34\n      jump\t// in\n    tag_50:\n      dup1\n      iszero\n      tag_51\n      jumpi\n      dup1\n      0x1f\n      lt\n      tag_52\n      jumpi\n      0x0100\n      dup1\n      dup4\n      sload\n      div\n      mul\n      dup4\n      mstore\n      swap2\n      0x20\n      add\n      swap2\n      jump(tag_51)\n    tag_52:\n      dup3\n      add\n      swap2\n      swap1\n      0x00\n      mstore\n      keccak256(0x00, 0x20)\n      swap1\n    tag_53:\n      dup2\n      sload\n      dup2\n      mstore\n      swap1\n      0x01\n      add\n      swap1\n      0x20\n      add\n      dup1\n      dup4\n      gt\n      tag_53\n      jumpi\n      dup3\n      swap1\n      sub\n      0x1f\n      and\n      dup3\n      add\n      swap2\n    tag_51:\n      pop\n      pop\n      pop\n      pop\n      pop\n      dup2\n      mstore\n      0x20\n      add\n      0x02\n      dup3\n      add\n      dup1\n      sload\n      tag_54\n      swap1\n      tag_34\n      jump\t// in\n    tag_54:\n      dup1\n      0x1f\n      add\n      0x20\n      dup1\n      swap2\n      div\n      mul\n      0x20\n      add\n      mload(0x40)\n      swap1\n      dup2\n      add\n      0x40\n      mstore\n      dup1\n      swap3\n      swap2\n      swap1\n      dup2\n      dup2\n      mstore\n      0x20\n      add\n      dup3\n      dup1\n      sload\n      tag_55\n      swap1\n      tag_34\n      jump\t// in\n    tag_55:\n      dup1\n      iszero\n      tag_56\n      jumpi\n      dup1\n      0x1f\n      lt\n      tag_57\n      jumpi\n      0x0100\n      dup1\n      dup4\n      sload\n      div\n      mul\n      dup4\n      mstore\n      swap2\n      0x20\n      add\n      swap2\n      jump(tag_56)\n    tag_57:\n      dup3\n      add\n      swap2\n      swap1\n      0x00\n      mstore\n      keccak256(0x00, 0x20)\n      swap1\n    tag_58:\n      dup2\n      sload\n      dup2\n      mstore\n      swap1\n      0x01\n      add\n      swap1\n      0x20\n      add\n      dup1\n      dup4\n      gt\n      tag_58\n      jumpi\n      dup3\n      swap1\n      sub\n      0x1f\n      and\n      dup3\n      add\n      swap2\n    tag_56:\n      pop\n      pop\n      pop\n      pop\n      pop\n      dup2\n      mstore\n      0x20\n      add\n      0x03\n      dup3\n      add\n      sload\n      dup2\n      mstore\n      0x20\n      add\n      0x04\n      dup3\n      add\n      0x00\n      swap1\n      sload\n      swap1\n      0x0100\n      exp\n      swap1\n      div\n      0xff\n      and\n      0xff\n      and\n      0xff\n      and\n      dup2\n      mstore\n      pop\n      pop\n      swap1\n      dup1\n      0x0b\n      add\n      mload(0x40)\n      dup1\n      0x80\n      add\n      0x40\n      mstore\n      swap1\n      dup2\n      0x00\n      dup3\n      add\n      dup1\n      sload\n      tag_59\n      swap1\n      tag_34\n      jump\t// in\n    tag_59:\n      dup1\n      0x1f\n      add\n      0x20\n      dup1\n      swap2\n      div\n      mul\n      0x20\n      add\n      mload(0x40)\n      swap1\n      dup2\n      add\n      0x40\n      mstore\n      dup1\n      swap3\n      swap2\n      swap1\n      dup2\n      dup2\n      mstore\n      0x20\n      add\n      dup3\n      dup1\n      sload\n      tag_60\n      swap1\n      tag_34\n      jump\t// in\n    tag_60:\n      dup1\n      iszero\n      tag_61\n      jumpi\n      dup1\n      0x1f\n      lt\n      tag_62\n      jumpi\n      0x0100\n      dup1\n      dup4\n      sload\n      div\n      mul\n      dup4\n      mstore\n      swap2\n      0x20\n      add\n      swap2\n      jump(tag_61)\n    tag_62:\n      dup3\n      add\n      swap2\n      swap1\n      0x00\n      mstore\n      keccak256(0x00, 0x20)\n      swap1\n    tag_63:\n      dup2\n      sload\n      dup2\n      mstore\n      swap1\n      0x01\n      add\n      swap1\n      0x20\n      add\n      dup1\n      dup4\n      gt\n      tag_63\n      jumpi\n      dup3\n      swap1\n      sub\n      0x1f\n      and\n      dup3\n      add\n      swap2\n    tag_61:\n      pop\n      pop\n      pop\n      pop\n      pop\n      dup2\n      mstore\n      0x20\n      add\n      0x01\n      dup3\n      add\n      dup1\n      sload\n      tag_64\n      swap1\n      tag_34\n      jump\t// in\n    tag_64:\n      dup1\n      0x1f\n      add\n      0x20\n      dup1\n      swap2\n      div\n      mul\n      0x20\n      add\n      mload(0x40)\n      swap1\n      dup2\n      add\n      0x40\n      mstore\n      dup1\n      swap3\n      swap2\n      swap1\n      dup2\n      dup2\n      mstore\n      0x20\n      add\n      dup3\n      dup1\n      sload\n      tag_65\n      swap1\n      tag_34\n      jump\t// in\n    tag_65:\n      dup1\n      iszero\n      tag_66\n      jumpi\n      dup1\n      0x1f\n      lt\n      tag_67\n      jumpi\n      0x0100\n      dup1\n      dup4\n      sload\n      div\n      mul\n      dup4\n      mstore\n      swap2\n      0x20\n      add\n      swap2\n      jump(tag_66)\n    tag_67:\n      dup3\n      add\n      swap2\n      swap1\n      0x00\n      mstore\n      keccak256(0x00, 0x20)\n      swap1\n    tag_68:\n      dup2\n      sload\n      dup2\n      mstore\n      swap1\n      0x01\n      add\n      swap1\n      0x20\n      add\n      dup1\n      dup4\n      gt\n      tag_68\n      jumpi\n      dup3\n      swap1\n      sub\n      0x1f\n      and\n      dup3\n      add\n      swap2\n    tag_66:\n      pop\n      pop\n      pop\n      pop\n      pop\n      dup2\n      mstore\n      0x20\n      add\n      0x02\n      dup3\n      add\n      sload\n      dup2\n      mstore\n      0x20\n      add\n      0x03\n      dup3\n      add\n      0x00\n      swap1\n      sload\n      swap1\n      0x0100\n      exp\n      swap1\n      div\n      0xff\n      and\n      0xff\n      and\n      0xff\n      and\n      dup2\n      mstore\n      pop\n      pop\n      swap1\n      dup1\n      0x0f\n      add\n      mload(0x40)\n      dup1\n      0xa0\n      add\n      0x40\n      mstore\n      swap1\n      dup2\n      0x00\n      dup3\n      add\n      dup1\n      sload\n      tag_69\n      swap1\n      tag_34\n      jump\t// in\n    tag_69:\n      dup1\n      0x1f\n      add\n      0x20\n      dup1\n      swap2\n      div\n      mul\n      0x20\n      add\n      mload(0x40)\n      swap1\n      dup2\n      add\n      0x40\n      mstore\n      dup1\n      swap3\n      swap2\n      swap1\n      dup2\n      dup2\n      mstore\n      0x20\n      add\n      dup3\n      dup1\n      sload\n      tag_70\n      swap1\n      tag_34\n      jump\t// in\n    tag_70:\n      dup1\n      iszero\n      tag_71\n      jumpi\n      dup1\n      0x1f\n      lt\n      tag_72\n      jumpi\n      0x0100\n      dup1\n      dup4\n      sload\n      div\n      mul\n      dup4\n      mstore\n      swap2\n      0x20\n      add\n      swap2\n      jump(tag_71)\n    tag_72:\n      dup3\n      add\n      swap2\n      swap1\n      0x00\n      mstore\n      keccak256(0x00, 0x20)\n      swap1\n    tag_73:\n      dup2\n      sload\n      dup2\n      mstore\n      swap1\n      0x01\n      add\n      swap1\n      0x20\n      add\n      dup1\n      dup4\n      gt\n      tag_73\n      jumpi\n      dup3\n      swap1\n      sub\n      0x1f\n      and\n      dup3\n      add\n      swap2\n    tag_71:\n      pop\n      pop\n      pop\n      pop\n      pop\n      dup2\n      mstore\n      0x20\n      add\n      0x01\n      dup3\n      add\n      dup1\n      sload\n      tag_74\n      swap1\n      tag_34\n      jump\t// in\n    tag_74:\n      dup1\n      0x1f\n      add\n      0x20\n      dup1\n      swap2\n      div\n      mul\n      0x20\n      add\n      mload(0x40)\n      swap1\n      dup2\n      add\n      0x40\n      mstore\n      dup1\n      swap3\n      swap2\n      swap1\n      dup2\n      dup2\n      mstore\n      0x20\n      add\n      dup3\n      dup1\n      sload\n      tag_75\n      swap1\n      tag_34\n      jump\t// in\n    tag_75:\n      dup1\n      iszero\n      tag_76\n      jumpi\n      dup1\n      0x1f\n      lt\n      tag_77\n      jumpi\n      0x0100\n      dup1\n      dup4\n      sload\n      div\n      mul\n      dup4\n      mstore\n      swap2\n      0x20\n      add\n      swap2\n      jump(tag_76)\n    tag_77:\n      dup3\n      add\n      swap2\n      swap1\n      0x00\n      mstore\n      keccak256(0x00, 0x20)\n      swap1\n    tag_78:\n      dup2\n      sload\n      dup2\n      mstore\n      swap1\n      0x01\n      add\n      swap1\n      0x20\n      add\n      dup1\n      dup4\n      gt\n      tag_78\n      jumpi\n      dup3\n      swap1\n      sub\n      0x1f\n      and\n      dup3\n      add\n      swap2\n    tag_76:\n      pop\n      pop\n      pop\n      pop\n      pop\n      dup2\n      mstore\n      0x20\n      add\n      0x02\n      dup3\n      add\n      dup1\n      sload\n      tag_79\n      swap1\n      tag_34\n      jump\t// in\n    tag_79:\n      dup1\n      0x1f\n      add\n      0x20\n      dup1\n      swap2\n      div\n      mul\n      0x20\n      add\n      mload(0x40)\n      swap1\n      dup2\n      add\n      0x40\n      mstore\n      dup1\n      swap3\n      swap2\n      swap1\n      dup2\n      dup2\n      mstore\n      0x20\n      add\n      dup3\n      dup1\n      sload\n      tag_80\n      swap1\n      tag_34\n      jump\t// in\n    tag_80:\n      dup1\n      iszero\n      tag_81\n      jumpi\n      dup1\n      0x1f\n      lt\n      tag_82\n      jumpi\n      0x0100\n      dup1\n      dup4\n      sload\n      div\n      mul\n      dup4\n      mstore\n      swap2\n      0x20\n      add\n      swap2\n      jump(tag_81)\n    tag_82:\n      dup3\n      add\n      swap2\n      swap1\n      0x00\n      mstore\n      keccak256(0x00, 0x20)\n      swap1\n    tag_83:\n      dup2\n      sload\n      dup2\n      mstore\n      swap1\n      0x01\n      add\n      swap1\n      0x20\n      add\n      dup1\n      dup4\n      gt\n      tag_83\n      jumpi\n      dup3\n      swap1\n      sub\n      0x1f\n      and\n      dup3\n      add\n      swap2\n    tag_81:\n      pop\n      pop\n      pop\n      pop\n      pop\n      dup2\n      mstore\n      0x20\n      add\n      0x03\n      dup3\n      add\n      sload\n      dup2\n      mstore\n      0x20\n      add\n      0x04\n      dup3\n      add\n      dup1\n      sload\n      tag_84\n      swap1\n      tag_34\n      jump\t// in\n    tag_84:\n      dup1\n      0x1f\n      add\n      0x20\n      dup1\n      swap2\n      div\n      mul\n      0x20\n      add\n      mload(0x40)\n      swap1\n      dup2\n      add\n      0x40\n      mstore\n      dup1\n      swap3\n      swap2\n      swap1\n      dup2\n      dup2\n      mstore\n      0x20\n      add\n      dup3\n      dup1\n      sload\n      tag_85\n      swap1\n      tag_34\n      jump\t// in\n    tag_85:\n      dup1\n      iszero\n      tag_86\n      jumpi\n      dup1\n      0x1f\n      lt\n      tag_87\n      jumpi\n      0x0100\n      dup1\n      dup4\n      sload\n      div\n      mul\n      dup4\n      mstore\n      swap2\n      0x20\n      add\n      swap2\n      jump(tag_86)\n    tag_87:\n      dup3\n      add\n      swap2\n      swap1\n      0x00\n      mstore\n      keccak256(0x00, 0x20)\n      swap1\n    tag_88:\n      dup2\n      sload\n      dup2\n      mstore\n      swap1\n      0x01\n      add\n      swap1\n      0x20\n      add\n      dup1\n      dup4\n      gt\n      tag_88\n      jumpi\n      dup3\n      swap1\n      sub\n      0x1f\n      and\n      dup3\n      add\n      swap2\n    tag_86:\n      pop\n      pop\n      pop\n      pop\n      pop\n      dup2\n      mstore\n      pop\n      pop\n      swap1\n      dup1\n      0x14\n      add\n      mload(0x40)\n      dup1\n      0xa0\n      add\n      0x40\n      mstore\n      swap1\n      dup2\n      0x00\n      dup3\n      add\n      dup1\n      sload\n      tag_89\n      swap1\n      tag_34\n      jump\t// in\n    tag_89:\n      dup1\n      0x1f\n      add\n      0x20\n      dup1\n      swap2\n      div\n      mul\n      0x20\n      add\n      mload(0x40)\n      swap1\n      dup2\n      add\n      0x40\n      mstore\n      dup1\n      swap3\n      swap2\n      swap1\n      dup2\n      dup2\n      mstore\n      0x20\n      add\n      dup3\n      dup1\n      sload\n      tag_90\n      swap1\n      tag_34\n      jump\t// in\n    tag_90:\n      dup1\n      iszero\n      tag_91\n      jumpi\n      dup1\n      0x1f\n      lt\n      tag_92\n      jumpi\n      0x0100\n      dup1\n      dup4\n      sload\n      div\n      mul\n      dup4\n      mstore\n      swap2\n      0x20\n      add\n      swap2\n      jump(tag_91)\n    tag_92:\n      dup3\n      add\n      swap2\n      swap1\n      0x00\n      mstore\n      keccak256(0x00, 0x20)\n      swap1\n    tag_93:\n      dup2\n      sload\n      dup2\n      mstore\n      swap1\n      0x01\n      add\n      swap1\n      0x20\n      add\n      dup1\n      dup4\n      gt\n      tag_93\n      jumpi\n      dup3\n      swap1\n      sub\n      0x1f\n      and\n      dup3\n      add\n      swap2\n    tag_91:\n      pop\n      pop\n      pop\n      pop\n      pop\n      dup2\n      mstore\n      0x20\n      add\n      0x01\n      dup3\n      add\n      dup1\n      sload\n      tag_94\n      swap1\n      tag_34\n      jump\t// in\n    tag_94:\n      dup1\n      0x1f\n      add\n      0x20\n      dup1\n      swap2\n      div\n      mul\n      0x20\n      add\n      mload(0x40)\n      swap1\n      dup2\n      add\n      0x40\n      mstore\n      dup1\n      swap3\n      swap2\n      swap1\n      dup2\n      dup2\n      mstore\n      0x20\n      add\n      dup3\n      dup1\n      sload\n      tag_95\n      swap1\n      tag_34\n      jump\t// in\n    tag_95:\n      dup1\n      iszero\n      tag_96\n      jumpi\n      dup1\n      0x1f\n      lt\n      tag_97\n      jumpi\n      0x0100\n      dup1\n      dup4\n      sload\n      div\n      mul\n      dup4\n      mstore\n      swap2\n      0x20\n      add\n      swap2\n      jump(tag_96)\n    tag_97:\n      dup3\n      add\n      swap2\n      swap1\n      0x00\n      mstore\n      keccak256(0x00, 0x20)\n      swap1\n    tag_98:\n      dup2\n      sload\n      dup2\n      mstore\n      swap1\n      0x01\n      add\n      swap1\n      0x20\n      add\n      dup1\n      dup4\n      gt\n      tag_98\n      jumpi\n      dup3\n      swap1\n      sub\n      0x1f\n      and\n      dup3\n      add\n      swap2\n    tag_96:\n      pop\n      pop\n      pop\n      pop\n      pop\n      dup2\n      mstore\n      0x20\n      add\n      0x02\n      dup3\n      add\n      dup1\n      sload\n      tag_99\n      swap1\n      tag_34\n      jump\t// in\n    tag_99:\n      dup1\n      0x1f\n      add\n      0x20\n      dup1\n      swap2\n      div\n      mul\n      0x20\n      add\n      mload(0x40)\n      swap1\n      dup2\n      add\n      0x40\n      mstore\n      dup1\n      swap3\n      swap2\n      swap1\n      dup2\n      dup2\n      mstore\n      0x20\n      add\n      dup3\n      dup1\n      sload\n      tag_100\n      swap1\n      tag_34\n      jump\t// in\n    tag_100:\n      dup1\n      iszero\n      tag_101\n      jumpi\n      dup1\n      0x1f\n      lt\n      tag_102\n      jumpi\n      0x0100\n      dup1\n      dup4\n      sload\n      div\n      mul\n      dup4\n      mstore\n      swap2\n      0x20\n      add\n      swap2\n      jump(tag_101)\n    tag_102:\n      dup3\n      add\n      swap2\n      swap1\n      0x00\n      mstore\n      keccak256(0x00, 0x20)\n      swap1\n    tag_103:\n      dup2\n      sload\n      dup2\n      mstore\n      swap1\n      0x01\n      add\n      swap1\n      0x20\n      add\n      dup1\n      dup4\n      gt\n      tag_103\n      jumpi\n      dup3\n      swap1\n      sub\n      0x1f\n      and\n      dup3\n      add\n      swap2\n    tag_101:\n      pop\n      pop\n      pop\n      pop\n      pop\n      dup2\n      mstore\n      0x20\n      add\n      0x03\n      dup3\n      add\n      sload\n      dup2\n      mstore\n      0x20\n      add\n      0x04\n      dup3\n      add\n      0x00\n      swap1\n      sload\n      swap1\n      0x0100\n      exp\n      swap1\n      div\n      0xff\n      and\n      0xff\n      and\n      0xff\n      and\n      dup2\n      mstore\n      pop\n      pop\n      swap1\n      dup1\n      0x19\n      add\n      mload(0x40)\n      dup1\n      0x80\n      add\n      0x40\n      mstore\n      swap1\n      dup2\n      0x00\n      dup3\n      add\n      dup1\n      sload\n      tag_104\n      swap1\n      tag_34\n      jump\t// in\n    tag_104:\n      dup1\n      0x1f\n      add\n      0x20\n      dup1\n      swap2\n      div\n      mul\n      0x20\n      add\n      mload(0x40)\n      swap1\n      dup2\n      add\n      0x40\n      mstore\n      dup1\n      swap3\n      swap2\n      swap1\n      dup2\n      dup2\n      mstore\n      0x20\n      add\n      dup3\n      dup1\n      sload\n      tag_105\n      swap1\n      tag_34\n      jump\t// in\n    tag_105:\n      dup1\n      iszero\n      tag_106\n      jumpi\n      dup1\n      0x1f\n      lt\n      tag_107\n      jumpi\n      0x0100\n      dup1\n      dup4\n      sload\n      div\n      mul\n      dup4\n      mstore\n      swap2\n      0x20\n      add\n      swap2\n      jump(tag_106)\n    tag_107:\n      dup3\n      add\n      swap2\n      swap1\n      0x00\n      mstore\n      keccak256(0x00, 0x20)\n      swap1\n    tag_108:\n      dup2\n      sload\n      dup2\n      mstore\n      swap1\n      0x01\n      add\n      swap1\n      0x20\n      add\n      dup1\n      dup4\n      gt\n      tag_108\n      jumpi\n      dup3\n      swap1\n      sub\n      0x1f\n      and\n      dup3\n      add\n      swap2\n    tag_106:\n      pop\n      pop\n      pop\n      pop\n      pop\n      dup2\n      mstore\n      0x20\n      add\n      0x01\n      dup3\n      add\n      dup1\n      sload\n      tag_109\n      swap1\n      tag_34\n      jump\t// in\n    tag_109:\n      dup1\n      0x1f\n      add\n      0x20\n      dup1\n      swap2\n      div\n      mul\n      0x20\n      add\n      mload(0x40)\n      swap1\n      dup2\n      add\n      0x40\n      mstore\n      dup1\n      swap3\n      swap2\n      swap1\n      dup2\n      dup2\n      mstore\n      0x20\n      add\n      dup3\n      dup1\n      sload\n      tag_110\n      swap1\n      tag_34\n      jump\t// in\n    tag_110:\n      dup1\n      iszero\n      tag_111\n      jumpi\n      dup1\n      0x1f\n      lt\n      tag_112\n      jumpi\n      0x0100\n      dup1\n      dup4\n      sload\n      div\n      mul\n      dup4\n      mstore\n      swap2\n      0x20\n      add\n      swap2\n      jump(tag_111)\n    tag_112:\n      dup3\n      add\n      swap2\n      swap1\n      0x00\n      mstore\n      keccak256(0x00, 0x20)\n      swap1\n    tag_113:\n      dup2\n      sload\n      dup2\n      mstore\n      swap1\n      0x01\n      add\n      swap1\n      0x20\n      add\n      dup1\n      dup4\n      gt\n      tag_113\n      jumpi\n      dup3\n      swap1\n      sub\n      0x1f\n      and\n      dup3\n      add\n      swap2\n    tag_111:\n      pop\n      pop\n      pop\n      pop\n      pop\n      dup2\n      mstore\n      0x20\n      add\n      0x02\n      dup3\n      add\n      sload\n      dup2\n      mstore\n      0x20\n      add\n      0x03\n      dup3\n      add\n      0x00\n      swap1\n      sload\n      swap1\n      0x0100\n      exp\n      swap1\n      div\n      0xff\n      and\n      0xff\n      and\n      0xff\n      and\n      dup2\n      mstore\n      pop\n      pop\n      swap1\n      pop\n      dup9\n      jump\t// out\n        /* \"solidity_series.sol/BOOKINGSITE.sol\":5537:6880  function bookrailwayticket(... */\n    tag_18:\n        /* \"solidity_series.sol/BOOKINGSITE.sol\":5873:5887  bookingCounter */\n      0x00\n      0x00\n        /* \"solidity_series.sol/BOOKINGSITE.sol\":5873:5889  bookingCounter++ */\n      dup2\n      sload\n      dup1\n      swap3\n      swap2\n      swap1\n      tag_115\n      swap1\n      tag_116\n      jump\t// in\n    tag_115:\n      swap2\n      swap1\n      pop\n      sstore\n      pop\n        /* \"solidity_series.sol/BOOKINGSITE.sol\":5900:5919  user memory newuser */\n      0x00\n        /* \"solidity_series.sol/BOOKINGSITE.sol\":5922:6065  user({... */\n      mload(0x40)\n      dup1\n      0x80\n      add\n      0x40\n      mstore\n      dup1\n        /* \"solidity_series.sol/BOOKINGSITE.sol\":5950:5957  _userid */\n      dup12\n        /* \"solidity_series.sol/BOOKINGSITE.sol\":5922:6065  user({... */\n      dup2\n      mstore\n      0x20\n      add\n        /* \"solidity_series.sol/BOOKINGSITE.sol\":5978:5983  _name */\n      dup11\n        /* \"solidity_series.sol/BOOKINGSITE.sol\":5922:6065  user({... */\n      dup2\n      mstore\n      0x20\n      add\n        /* \"solidity_series.sol/BOOKINGSITE.sol\":6003:6007  _age */\n      dup10\n        /* \"solidity_series.sol/BOOKINGSITE.sol\":5922:6065  user({... */\n      0xff\n      and\n      dup2\n      mstore\n      0x20\n      add\n        /* \"solidity_series.sol/BOOKINGSITE.sol\":6038:6053  _contactdetails */\n      dup9\n        /* \"solidity_series.sol/BOOKINGSITE.sol\":5922:6065  user({... */\n      dup2\n      mstore\n      pop\n        /* \"solidity_series.sol/BOOKINGSITE.sol\":5900:6065  user memory newuser = user({... */\n      swap1\n      pop\n        /* \"solidity_series.sol/BOOKINGSITE.sol\":6086:6125  railwaybooking memory newrailwaybooking */\n      0x00\n        /* \"solidity_series.sol/BOOKINGSITE.sol\":6128:6347  railwaybooking({... */\n      mload(0x40)\n      dup1\n      0xa0\n      add\n      0x40\n      mstore\n      dup1\n        /* \"solidity_series.sol/BOOKINGSITE.sol\":6171:6183  _trainnumber */\n      dup9\n        /* \"solidity_series.sol/BOOKINGSITE.sol\":6128:6347  railwaybooking({... */\n      dup2\n      mstore\n      0x20\n      add\n        /* \"solidity_series.sol/BOOKINGSITE.sol\":6206:6213  _origin */\n      dup8\n        /* \"solidity_series.sol/BOOKINGSITE.sol\":6128:6347  railwaybooking({... */\n      dup2\n      mstore\n      0x20\n      add\n        /* \"solidity_series.sol/BOOKINGSITE.sol\":6241:6253  _destination */\n      dup7\n        /* \"solidity_series.sol/BOOKINGSITE.sol\":6128:6347  railwaybooking({... */\n      dup2\n      mstore\n      0x20\n      add\n        /* \"solidity_series.sol/BOOKINGSITE.sol\":6283:6297  _dateofJourney */\n      dup6\n        /* \"solidity_series.sol/BOOKINGSITE.sol\":6128:6347  railwaybooking({... */\n      dup2\n      mstore\n      0x20\n      add\n        /* \"solidity_series.sol/BOOKINGSITE.sol\":6324:6335  _seatnumber */\n      dup5\n        /* \"solidity_series.sol/BOOKINGSITE.sol\":6128:6347  railwaybooking({... */\n      0xff\n      and\n      dup2\n      mstore\n      pop\n        /* \"solidity_series.sol/BOOKINGSITE.sol\":6086:6347  railwaybooking memory newrailwaybooking = railwaybooking({... */\n      swap1\n      pop\n        /* \"solidity_series.sol/BOOKINGSITE.sol\":6368:6393  booking memory newbooking */\n      0x00\n        /* \"solidity_series.sol/BOOKINGSITE.sol\":6396:6814  booking({... */\n      mload(0x40)\n      dup1\n      0x0100\n      add\n      0x40\n      mstore\n      dup1\n        /* \"solidity_series.sol/BOOKINGSITE.sol\":6430:6444  bookingCounter */\n      sload(0x00)\n        /* \"solidity_series.sol/BOOKINGSITE.sol\":6396:6814  booking({... */\n      dup2\n      mstore\n      0x20\n      add\n        /* \"solidity_series.sol/BOOKINGSITE.sol\":6472:6491  bookingtype.railway */\n      0x03\n        /* \"solidity_series.sol/BOOKINGSITE.sol\":6396:6814  booking({... */\n      0x04\n      dup2\n      gt\n      iszero\n      tag_117\n      jumpi\n      tag_118\n      tag_119\n      jump\t// in\n    tag_118:\n    tag_117:\n      dup2\n      mstore\n      0x20\n      add\n        /* \"solidity_series.sol/BOOKINGSITE.sol\":6512:6519  newuser */\n      dup5\n        /* \"solidity_series.sol/BOOKINGSITE.sol\":6396:6814  booking({... */\n      dup2\n      mstore\n      0x20\n      add\n        /* \"solidity_series.sol/BOOKINGSITE.sol\":6546:6574  busbooking(\"\", \"\", \"\", 0, 0) */\n      mload(0x40)\n      dup1\n      0xa0\n      add\n      0x40\n      mstore\n      dup1\n      mload(0x40)\n      dup1\n      0x20\n      add\n      0x40\n      mstore\n      dup1\n      0x00\n      dup2\n      mstore\n      pop\n      dup2\n      mstore\n      0x20\n      add\n      mload(0x40)\n      dup1\n      0x20\n      add\n      0x40\n      mstore\n      dup1\n      0x00\n      dup2\n      mstore\n      pop\n      dup2\n      mstore\n      0x20\n      add\n      mload(0x40)\n      dup1\n      0x20\n      add\n      0x40\n      mstore\n      dup1\n      0x00\n      dup2\n      mstore\n      pop\n      dup2\n      mstore\n      0x20\n      add\n        /* \"solidity_series.sol/BOOKINGSITE.sol\":6569:6570  0 */\n      0x00\n        /* \"solidity_series.sol/BOOKINGSITE.sol\":6546:6574  busbooking(\"\", \"\", \"\", 0, 0) */\n      dup2\n      mstore\n      0x20\n      add\n        /* \"solidity_series.sol/BOOKINGSITE.sol\":6572:6573  0 */\n      0x00\n        /* \"solidity_series.sol/BOOKINGSITE.sol\":6546:6574  busbooking(\"\", \"\", \"\", 0, 0) */\n      0xff\n      and\n      dup2\n      mstore\n      pop\n        /* \"solidity_series.sol/BOOKINGSITE.sol\":6396:6814  booking({... */\n      dup2\n      mstore\n      0x20\n      add\n        /* \"solidity_series.sol/BOOKINGSITE.sol\":6604:6631  cinemabooking(\"\", \"\", 0, 0) */\n      mload(0x40)\n      dup1\n      0x80\n      add\n      0x40\n      mstore\n      dup1\n      mload(0x40)\n      dup1\n      0x20\n      add\n      0x40\n      mstore\n      dup1\n      0x00\n      dup2\n      mstore\n      pop\n      dup2\n      mstore\n      0x20\n      add\n      mload(0x40)\n      dup1\n      0x20\n      add\n      0x40\n      mstore\n      dup1\n      0x00\n      dup2\n      mstore\n      pop\n      dup2\n      mstore\n      0x20\n      add\n        /* \"solidity_series.sol/BOOKINGSITE.sol\":6626:6627  0 */\n      0x00\n        /* \"solidity_series.sol/BOOKINGSITE.sol\":6604:6631  cinemabooking(\"\", \"\", 0, 0) */\n      dup2\n      mstore\n      0x20\n      add\n        /* \"solidity_series.sol/BOOKINGSITE.sol\":6629:6630  0 */\n      0x00\n        /* \"solidity_series.sol/BOOKINGSITE.sol\":6604:6631  cinemabooking(\"\", \"\", 0, 0) */\n      0xff\n      and\n      dup2\n      mstore\n      pop\n        /* \"solidity_series.sol/BOOKINGSITE.sol\":6396:6814  booking({... */\n      dup2\n      mstore\n      0x20\n      add\n        /* \"solidity_series.sol/BOOKINGSITE.sol\":6662:6695  airlinebooking(\"\", \"\", \"\", 0, \"\") */\n      mload(0x40)\n      dup1\n      0xa0\n      add\n      0x40\n      mstore\n      dup1\n      mload(0x40)\n      dup1\n      0x20\n      add\n      0x40\n      mstore\n      dup1\n      0x00\n      dup2\n      mstore\n      pop\n      dup2\n      mstore\n      0x20\n      add\n      mload(0x40)\n      dup1\n      0x20\n      add\n      0x40\n      mstore\n      dup1\n      0x00\n      dup2\n      mstore\n      pop\n      dup2\n      mstore\n      0x20\n      add\n      mload(0x40)\n      dup1\n      0x20\n      add\n      0x40\n      mstore\n      dup1\n      0x00\n      dup2\n      mstore\n      pop\n      dup2\n      mstore\n      0x20\n      add\n        /* \"solidity_series.sol/BOOKINGSITE.sol\":6689:6690  0 */\n      0x00\n        /* \"solidity_series.sol/BOOKINGSITE.sol\":6662:6695  airlinebooking(\"\", \"\", \"\", 0, \"\") */\n      dup2\n      mstore\n      0x20\n      add\n      mload(0x40)\n      dup1\n      0x20\n      add\n      0x40\n      mstore\n      dup1\n      0x00\n      dup2\n      mstore\n      pop\n      dup2\n      mstore\n      pop\n        /* \"solidity_series.sol/BOOKINGSITE.sol\":6396:6814  booking({... */\n      dup2\n      mstore\n      0x20\n      add\n        /* \"solidity_series.sol/BOOKINGSITE.sol\":6726:6743  newrailwaybooking */\n      dup4\n        /* \"solidity_series.sol/BOOKINGSITE.sol\":6396:6814  booking({... */\n      dup2\n      mstore\n      0x20\n      add\n        /* \"solidity_series.sol/BOOKINGSITE.sol\":6774:6802  cricketbooking(\"\", \"\", 0, 0) */\n      mload(0x40)\n      dup1\n      0x80\n      add\n      0x40\n      mstore\n      dup1\n      mload(0x40)\n      dup1\n      0x20\n      add\n      0x40\n      mstore\n      dup1\n      0x00\n      dup2\n      mstore\n      pop\n      dup2\n      mstore\n      0x20\n      add\n      mload(0x40)\n      dup1\n      0x20\n      add\n      0x40\n      mstore\n      dup1\n      0x00\n      dup2\n      mstore\n      pop\n      dup2\n      mstore\n      0x20\n      add\n        /* \"solidity_series.sol/BOOKINGSITE.sol\":6797:6798  0 */\n      0x00\n        /* \"solidity_series.sol/BOOKINGSITE.sol\":6774:6802  cricketbooking(\"\", \"\", 0, 0) */\n      dup2\n      mstore\n      0x20\n      add\n        /* \"solidity_series.sol/BOOKINGSITE.sol\":6800:6801  0 */\n      0x00\n        /* \"solidity_series.sol/BOOKINGSITE.sol\":6774:6802  cricketbooking(\"\", \"\", 0, 0) */\n      0xff\n      and\n      dup2\n      mstore\n      pop\n        /* \"solidity_series.sol/BOOKINGSITE.sol\":6396:6814  booking({... */\n      dup2\n      mstore\n      pop\n        /* \"solidity_series.sol/BOOKINGSITE.sol\":6368:6814  booking memory newbooking = booking({... */\n      swap1\n      pop\n        /* \"solidity_series.sol/BOOKINGSITE.sol\":6862:6872  newbooking */\n      dup1\n        /* \"solidity_series.sol/BOOKINGSITE.sol\":6835:6843  bookings */\n      0x01\n        /* \"solidity_series.sol/BOOKINGSITE.sol\":6835:6859  bookings[bookingCounter] */\n      0x00\n        /* \"solidity_series.sol/BOOKINGSITE.sol\":6844:6858  bookingCounter */\n      sload(0x00)\n        /* \"solidity_series.sol/BOOKINGSITE.sol\":6835:6859  bookings[bookingCounter] */\n      dup2\n      mstore\n      0x20\n      add\n      swap1\n      dup2\n      mstore\n      0x20\n      add\n      0x00\n      keccak256\n        /* \"solidity_series.sol/BOOKINGSITE.sol\":6835:6872  bookings[bookingCounter] = newbooking */\n      0x00\n      dup3\n      add\n      mload\n      dup2\n      0x00\n      add\n      sstore\n      0x20\n      dup3\n      add\n      mload\n      dup2\n      0x01\n      add\n      exp(0x0100, 0x00)\n      dup2\n      sload\n      dup2\n      0xff\n      mul\n      not\n      and\n      swap1\n      dup4\n      0x04\n      dup2\n      gt\n      iszero\n      tag_120\n      jumpi\n      tag_121\n      tag_119\n      jump\t// in\n    tag_121:\n    tag_120:\n      mul\n      or\n      swap1\n      sstore\n      pop\n      0x40\n      dup3\n      add\n      mload\n      dup2\n      0x02\n      add\n      0x00\n      dup3\n      add\n      mload\n      dup2\n      0x00\n      add\n      sstore\n      0x20\n      dup3\n      add\n      mload\n      dup2\n      0x01\n      add\n      swap1\n      dup2\n      tag_122\n      swap2\n      swap1\n      tag_123\n      jump\t// in\n    tag_122:\n      pop\n      0x40\n      dup3\n      add\n      mload\n      dup2\n      0x02\n      add\n      exp(0x0100, 0x00)\n      dup2\n      sload\n      dup2\n      0xff\n      mul\n      not\n      and\n      swap1\n      dup4\n      0xff\n      and\n      mul\n      or\n      swap1\n      sstore\n      pop\n      0x60\n      dup3\n      add\n      mload\n      dup2\n      0x03\n      add\n      swap1\n      dup2\n      tag_124\n      swap2\n      swap1\n      tag_123\n      jump\t// in\n    tag_124:\n      pop\n      pop\n      pop\n      0x60\n      dup3\n      add\n      mload\n      dup2\n      0x06\n      add\n      0x00\n      dup3\n      add\n      mload\n      dup2\n      0x00\n      add\n      swap1\n      dup2\n      tag_125\n      swap2\n      swap1\n      tag_123\n      jump\t// in\n    tag_125:\n      pop\n      0x20\n      dup3\n      add\n      mload\n      dup2\n      0x01\n      add\n      swap1\n      dup2\n      tag_126\n      swap2\n      swap1\n      tag_123\n      jump\t// in\n    tag_126:\n      pop\n      0x40\n      dup3\n      add\n      mload\n      dup2\n      0x02\n      add\n      swap1\n      dup2\n      tag_127\n      swap2\n      swap1\n      tag_123\n      jump\t// in\n    tag_127:\n      pop\n      0x60\n      dup3\n      add\n      mload\n      dup2\n      0x03\n      add\n      sstore\n      0x80\n      dup3\n      add\n      mload\n      dup2\n      0x04\n      add\n      exp(0x0100, 0x00)\n      dup2\n      sload\n      dup2\n      0xff\n      mul\n      not\n      and\n      swap1\n      dup4\n      0xff\n      and\n      mul\n      or\n      swap1\n      sstore\n      pop\n      pop\n      pop\n      0x80\n      dup3\n      add\n      mload\n      dup2\n      0x0b\n      add\n      0x00\n      dup3\n      add\n      mload\n      dup2\n      0x00\n      add\n      swap1\n      dup2\n      tag_128\n      swap2\n      swap1\n      tag_123\n      jump\t// in\n    tag_128:\n      pop\n      0x20\n      dup3\n      add\n      mload\n      dup2\n      0x01\n      add\n      swap1\n      dup2\n      tag_129\n      swap2\n      swap1\n      tag_123\n      jump\t// in\n    tag_129:\n      pop\n      0x40\n      dup3\n      add\n      mload\n      dup2\n      0x02\n      add\n      sstore\n      0x60\n      dup3\n      add\n      mload\n      dup2\n      0x03\n      add\n      exp(0x0100, 0x00)\n      dup2\n      sload\n      dup2\n      0xff\n      mul\n      not\n      and\n      swap1\n      dup4\n      0xff\n      and\n      mul\n      or\n      swap1\n      sstore\n      pop\n      pop\n      pop\n      0xa0\n      dup3\n      add\n      mload\n      dup2\n      0x0f\n      add\n      0x00\n      dup3\n      add\n      mload\n      dup2\n      0x00\n      add\n      swap1\n      dup2\n      tag_130\n      swap2\n      swap1\n      tag_123\n      jump\t// in\n    tag_130:\n      pop\n      0x20\n      dup3\n      add\n      mload\n      dup2\n      0x01\n      add\n      swap1\n      dup2\n      tag_131\n      swap2\n      swap1\n      tag_123\n      jump\t// in\n    tag_131:\n      pop\n      0x40\n      dup3\n      add\n      mload\n      dup2\n      0x02\n      add\n      swap1\n      dup2\n      tag_132\n      swap2\n      swap1\n      tag_123\n      jump\t// in\n    tag_132:\n      pop\n      0x60\n      dup3\n      add\n      mload\n      dup2\n      0x03\n      add\n      sstore\n      0x80\n      dup3\n      add\n      mload\n      dup2\n      0x04\n      add\n      swap1\n      dup2\n      tag_133\n      swap2\n      swap1\n      tag_123\n      jump\t// in\n    tag_133:\n      pop\n      pop\n      pop\n      0xc0\n      dup3\n      add\n      mload\n      dup2\n      0x14\n      add\n      0x00\n      dup3\n      add\n      mload\n      dup2\n      0x00\n      add\n      swap1\n      dup2\n      tag_134\n      swap2\n      swap1\n      tag_123\n      jump\t// in\n    tag_134:\n      pop\n      0x20\n      dup3\n      add\n      mload\n      dup2\n      0x01\n      add\n      swap1\n      dup2\n      tag_135\n      swap2\n      swap1\n      tag_123\n      jump\t// in\n    tag_135:\n      pop\n      0x40\n      dup3\n      add\n      mload\n      dup2\n      0x02\n      add\n      swap1\n      dup2\n      tag_136\n      swap2\n      swap1\n      tag_123\n      jump\t// in\n    tag_136:\n      pop\n      0x60\n      dup3\n      add\n      mload\n      dup2\n      0x03\n      add\n      sstore\n      0x80\n      dup3\n      add\n      mload\n      dup2\n      0x04\n      add\n      exp(0x0100, 0x00)\n      dup2\n      sload\n      dup2\n      0xff\n      mul\n      not\n      and\n      swap1\n      dup4\n      0xff\n      and\n      mul\n      or\n      swap1\n      sstore\n      pop\n      pop\n      pop\n      0xe0\n      dup3\n      add\n      mload\n      dup2\n      0x19\n      add\n      0x00\n      dup3\n      add\n      mload\n      dup2\n      0x00\n      add\n      swap1\n      dup2\n      tag_137\n      swap2\n      swap1\n      tag_123\n      jump\t// in\n    tag_137:\n      pop\n      0x20\n      dup3\n      add\n      mload\n      dup2\n      0x01\n      add\n      swap1\n      dup2\n      tag_138\n      swap2\n      swap1\n      tag_123\n      jump\t// in\n    tag_138:\n      pop\n      0x40\n      dup3\n      add\n      mload\n      dup2\n      0x02\n      add\n      sstore\n      0x60\n      dup3\n      add\n      mload\n      dup2\n      0x03\n      add\n      exp(0x0100, 0x00)\n      dup2\n      sload\n      dup2\n      0xff\n      mul\n      not\n      and\n      swap1\n      dup4\n      0xff\n      and\n      mul\n      or\n      swap1\n      sstore\n      pop\n      pop\n      pop\n      swap1\n      pop\n      pop\n        /* \"solidity_series.sol/BOOKINGSITE.sol\":5862:6880  {... */\n      pop\n      pop\n      pop\n        /* \"solidity_series.sol/BOOKINGSITE.sol\":5537:6880  function bookrailwayticket(... */\n      pop\n      pop\n      pop\n      pop\n      pop\n      pop\n      pop\n      pop\n      pop\n      jump\t// out\n        /* \"solidity_series.sol/BOOKINGSITE.sol\":4176:5525  function bookairlineticket(... */\n    tag_22:\n        /* \"solidity_series.sol/BOOKINGSITE.sol\":4520:4534  bookingCounter */\n      0x00\n      0x00\n        /* \"solidity_series.sol/BOOKINGSITE.sol\":4520:4536  bookingCounter++ */\n      dup2\n      sload\n      dup1\n      swap3\n      swap2\n      swap1\n      tag_140\n      swap1\n      tag_116\n      jump\t// in\n    tag_140:\n      swap2\n      swap1\n      pop\n      sstore\n      pop\n        /* \"solidity_series.sol/BOOKINGSITE.sol\":4547:4566  user memory newuser */\n      0x00\n        /* \"solidity_series.sol/BOOKINGSITE.sol\":4569:4711  user({... */\n      mload(0x40)\n      dup1\n      0x80\n      add\n      0x40\n      mstore\n      dup1\n        /* \"solidity_series.sol/BOOKINGSITE.sol\":4597:4604  _userid */\n      dup12\n        /* \"solidity_series.sol/BOOKINGSITE.sol\":4569:4711  user({... */\n      dup2\n      mstore\n      0x20\n      add\n        /* \"solidity_series.sol/BOOKINGSITE.sol\":4625:4630  _name */\n      dup11\n        /* \"solidity_series.sol/BOOKINGSITE.sol\":4569:4711  user({... */\n      dup2\n      mstore\n      0x20\n      add\n        /* \"solidity_series.sol/BOOKINGSITE.sol\":4650:4654  _age */\n      dup10\n        /* \"solidity_series.sol/BOOKINGSITE.sol\":4569:4711  user({... */\n      0xff\n      and\n      dup2\n      mstore\n      0x20\n      add\n        /* \"solidity_series.sol/BOOKINGSITE.sol\":4685:4699  contactdetails */\n      dup9\n        /* \"solidity_series.sol/BOOKINGSITE.sol\":4569:4711  user({... */\n      dup2\n      mstore\n      pop\n        /* \"solidity_series.sol/BOOKINGSITE.sol\":4547:4711  user memory newuser = user({... */\n      swap1\n      pop\n        /* \"solidity_series.sol/BOOKINGSITE.sol\":4732:4771  airlinebooking memory newairlinebooking */\n      0x00\n        /* \"solidity_series.sol/BOOKINGSITE.sol\":4774:4993  airlinebooking({... */\n      mload(0x40)\n      dup1\n      0xa0\n      add\n      0x40\n      mstore\n      dup1\n        /* \"solidity_series.sol/BOOKINGSITE.sol\":4818:4831  _flightnumber */\n      dup9\n        /* \"solidity_series.sol/BOOKINGSITE.sol\":4774:4993  airlinebooking({... */\n      dup2\n      mstore\n      0x20\n      add\n        /* \"solidity_series.sol/BOOKINGSITE.sol\":4854:4861  _origin */\n      dup8\n        /* \"solidity_series.sol/BOOKINGSITE.sol\":4774:4993  airlinebooking({... */\n      dup2\n      mstore\n      0x20\n      add\n        /* \"solidity_series.sol/BOOKINGSITE.sol\":4889:4901  _destination */\n      dup7\n        /* \"solidity_series.sol/BOOKINGSITE.sol\":4774:4993  airlinebooking({... */\n      dup2\n      mstore\n      0x20\n      add\n        /* \"solidity_series.sol/BOOKINGSITE.sol\":4931:4945  _dateofJourney */\n      dup6\n        /* \"solidity_series.sol/BOOKINGSITE.sol\":4774:4993  airlinebooking({... */\n      dup2\n      mstore\n      0x20\n      add\n        /* \"solidity_series.sol/BOOKINGSITE.sol\":4971:4981  _seatclass */\n      dup5\n        /* \"solidity_series.sol/BOOKINGSITE.sol\":4774:4993  airlinebooking({... */\n      dup2\n      mstore\n      pop\n        /* \"solidity_series.sol/BOOKINGSITE.sol\":4732:4993  airlinebooking memory newairlinebooking = airlinebooking({... */\n      swap1\n      pop\n        /* \"solidity_series.sol/BOOKINGSITE.sol\":5014:5039  booking memory newbooking */\n      0x00\n        /* \"solidity_series.sol/BOOKINGSITE.sol\":5042:5459  booking({... */\n      mload(0x40)\n      dup1\n      0x0100\n      add\n      0x40\n      mstore\n      dup1\n        /* \"solidity_series.sol/BOOKINGSITE.sol\":5076:5090  bookingCounter */\n      sload(0x00)\n        /* \"solidity_series.sol/BOOKINGSITE.sol\":5042:5459  booking({... */\n      dup2\n      mstore\n      0x20\n      add\n        /* \"solidity_series.sol/BOOKINGSITE.sol\":5118:5137  bookingtype.airline */\n      0x02\n        /* \"solidity_series.sol/BOOKINGSITE.sol\":5042:5459  booking({... */\n      0x04\n      dup2\n      gt\n      iszero\n      tag_141\n      jumpi\n      tag_142\n      tag_119\n      jump\t// in\n    tag_142:\n    tag_141:\n      dup2\n      mstore\n      0x20\n      add\n        /* \"solidity_series.sol/BOOKINGSITE.sol\":5158:5165  newuser */\n      dup5\n        /* \"solidity_series.sol/BOOKINGSITE.sol\":5042:5459  booking({... */\n      dup2\n      mstore\n      0x20\n      add\n        /* \"solidity_series.sol/BOOKINGSITE.sol\":5192:5220  busbooking(\"\", \"\", \"\", 0, 0) */\n      mload(0x40)\n      dup1\n      0xa0\n      add\n      0x40\n      mstore\n      dup1\n      mload(0x40)\n      dup1\n      0x20\n      add\n      0x40\n      mstore\n      dup1\n      0x00\n      dup2\n      mstore\n      pop\n      dup2\n      mstore\n      0x20\n      add\n      mload(0x40)\n      dup1\n      0x20\n      add\n      0x40\n      mstore\n      dup1\n      0x00\n      dup2\n      mstore\n      pop\n      dup2\n      mstore\n      0x20\n      add\n      mload(0x40)\n      dup1\n      0x20\n      add\n      0x40\n      mstore\n      dup1\n      0x00\n      dup2\n      mstore\n      pop\n      dup2\n      mstore\n      0x20\n      add\n        /* \"solidity_series.sol/BOOKINGSITE.sol\":5215:5216  0 */\n      0x00\n        /* \"solidity_series.sol/BOOKINGSITE.sol\":5192:5220  busbooking(\"\", \"\", \"\", 0, 0) */\n      dup2\n      mstore\n      0x20\n      add\n        /* \"solidity_series.sol/BOOKINGSITE.sol\":5218:5219  0 */\n      0x00\n        /* \"solidity_series.sol/BOOKINGSITE.sol\":5192:5220  busbooking(\"\", \"\", \"\", 0, 0) */\n      0xff\n      and\n      dup2\n      mstore\n      pop\n        /* \"solidity_series.sol/BOOKINGSITE.sol\":5042:5459  booking({... */\n      dup2\n      mstore\n      0x20\n      add\n        /* \"solidity_series.sol/BOOKINGSITE.sol\":5250:5277  cinemabooking(\"\", \"\", 0, 0) */\n      mload(0x40)\n      dup1\n      0x80\n      add\n      0x40\n      mstore\n      dup1\n      mload(0x40)\n      dup1\n      0x20\n      add\n      0x40\n      mstore\n      dup1\n      0x00\n      dup2\n      mstore\n      pop\n      dup2\n      mstore\n      0x20\n      add\n      mload(0x40)\n      dup1\n      0x20\n      add\n      0x40\n      mstore\n      dup1\n      0x00\n      dup2\n      mstore\n      pop\n      dup2\n      mstore\n      0x20\n      add\n        /* \"solidity_series.sol/BOOKINGSITE.sol\":5272:5273  0 */\n      0x00\n        /* \"solidity_series.sol/BOOKINGSITE.sol\":5250:5277  cinemabooking(\"\", \"\", 0, 0) */\n      dup2\n      mstore\n      0x20\n      add\n        /* \"solidity_series.sol/BOOKINGSITE.sol\":5275:5276  0 */\n      0x00\n        /* \"solidity_series.sol/BOOKINGSITE.sol\":5250:5277  cinemabooking(\"\", \"\", 0, 0) */\n      0xff\n      and\n      dup2\n      mstore\n      pop\n        /* \"solidity_series.sol/BOOKINGSITE.sol\":5042:5459  booking({... */\n      dup2\n      mstore\n      0x20\n      add\n        /* \"solidity_series.sol/BOOKINGSITE.sol\":5308:5325  newairlinebooking */\n      dup4\n        /* \"solidity_series.sol/BOOKINGSITE.sol\":5042:5459  booking({... */\n      dup2\n      mstore\n      0x20\n      add\n        /* \"solidity_series.sol/BOOKINGSITE.sol\":5356:5388  railwaybooking(\"\", \"\", \"\", 0, 0) */\n      mload(0x40)\n      dup1\n      0xa0\n      add\n      0x40\n      mstore\n      dup1\n      mload(0x40)\n      dup1\n      0x20\n      add\n      0x40\n      mstore\n      dup1\n      0x00\n      dup2\n      mstore\n      pop\n      dup2\n      mstore\n      0x20\n      add\n      mload(0x40)\n      dup1\n      0x20\n      add\n      0x40\n      mstore\n      dup1\n      0x00\n      dup2\n      mstore\n      pop\n      dup2\n      mstore\n      0x20\n      add\n      mload(0x40)\n      dup1\n      0x20\n      add\n      0x40\n      mstore\n      dup1\n      0x00\n      dup2\n      mstore\n      pop\n      dup2\n      mstore\n      0x20\n      add\n        /* \"solidity_series.sol/BOOKINGSITE.sol\":5383:5384  0 */\n      0x00\n        /* \"solidity_series.sol/BOOKINGSITE.sol\":5356:5388  railwaybooking(\"\", \"\", \"\", 0, 0) */\n      dup2\n      mstore\n      0x20\n      add\n        /* \"solidity_series.sol/BOOKINGSITE.sol\":5386:5387  0 */\n      0x00\n        /* \"solidity_series.sol/BOOKINGSITE.sol\":5356:5388  railwaybooking(\"\", \"\", \"\", 0, 0) */\n      0xff\n      and\n      dup2\n      mstore\n      pop\n        /* \"solidity_series.sol/BOOKINGSITE.sol\":5042:5459  booking({... */\n      dup2\n      mstore\n      0x20\n      add\n        /* \"solidity_series.sol/BOOKINGSITE.sol\":5419:5447  cricketbooking(\"\", \"\", 0, 0) */\n      mload(0x40)\n      dup1\n      0x80\n      add\n      0x40\n      mstore\n      dup1\n      mload(0x40)\n      dup1\n      0x20\n      add\n      0x40\n      mstore\n      dup1\n      0x00\n      dup2\n      mstore\n      pop\n      dup2\n      mstore\n      0x20\n      add\n      mload(0x40)\n      dup1\n      0x20\n      add\n      0x40\n      mstore\n      dup1\n      0x00\n      dup2\n      mstore\n      pop\n      dup2\n      mstore\n      0x20\n      add\n        /* \"solidity_series.sol/BOOKINGSITE.sol\":5442:5443  0 */\n      0x00\n        /* \"solidity_series.sol/BOOKINGSITE.sol\":5419:5447  cricketbooking(\"\", \"\", 0, 0) */\n      dup2\n      mstore\n      0x20\n      add\n        /* \"solidity_series.sol/BOOKINGSITE.sol\":5445:5446  0 */\n      0x00\n        /* \"solidity_series.sol/BOOKINGSITE.sol\":5419:5447  cricketbooking(\"\", \"\", 0, 0) */\n      0xff\n      and\n      dup2\n      mstore\n      pop\n        /* \"solidity_series.sol/BOOKINGSITE.sol\":5042:5459  booking({... */\n      dup2\n      mstore\n      pop\n        /* \"solidity_series.sol/BOOKINGSITE.sol\":5014:5459  booking memory newbooking = booking({... */\n      swap1\n      pop\n        /* \"solidity_series.sol/BOOKINGSITE.sol\":5507:5517  newbooking */\n      dup1\n        /* \"solidity_series.sol/BOOKINGSITE.sol\":5480:5488  bookings */\n      0x01\n        /* \"solidity_series.sol/BOOKINGSITE.sol\":5480:5504  bookings[bookingCounter] */\n      0x00\n        /* \"solidity_series.sol/BOOKINGSITE.sol\":5489:5503  bookingCounter */\n      sload(0x00)\n        /* \"solidity_series.sol/BOOKINGSITE.sol\":5480:5504  bookings[bookingCounter] */\n      dup2\n      mstore\n      0x20\n      add\n      swap1\n      dup2\n      mstore\n      0x20\n      add\n      0x00\n      keccak256\n        /* \"solidity_series.sol/BOOKINGSITE.sol\":5480:5517  bookings[bookingCounter] = newbooking */\n      0x00\n      dup3\n      add\n      mload\n      dup2\n      0x00\n      add\n      sstore\n      0x20\n      dup3\n      add\n      mload\n      dup2\n      0x01\n      add\n      exp(0x0100, 0x00)\n      dup2\n      sload\n      dup2\n      0xff\n      mul\n      not\n      and\n      swap1\n      dup4\n      0x04\n      dup2\n      gt\n      iszero\n      tag_143\n      jumpi\n      tag_144\n      tag_119\n      jump\t// in\n    tag_144:\n    tag_143:\n      mul\n      or\n      swap1\n      sstore\n      pop\n      0x40\n      dup3\n      add\n      mload\n      dup2\n      0x02\n      add\n      0x00\n      dup3\n      add\n      mload\n      dup2\n      0x00\n      add\n      sstore\n      0x20\n      dup3\n      add\n      mload\n      dup2\n      0x01\n      add\n      swap1\n      dup2\n      tag_145\n      swap2\n      swap1\n      tag_123\n      jump\t// in\n    tag_145:\n      pop\n      0x40\n      dup3\n      add\n      mload\n      dup2\n      0x02\n      add\n      exp(0x0100, 0x00)\n      dup2\n      sload\n      dup2\n      0xff\n      mul\n      not\n      and\n      swap1\n      dup4\n      0xff\n      and\n      mul\n      or\n      swap1\n      sstore\n      pop\n      0x60\n      dup3\n      add\n      mload\n      dup2\n      0x03\n      add\n      swap1\n      dup2\n      tag_146\n      swap2\n      swap1\n      tag_123\n      jump\t// in\n    tag_146:\n      pop\n      pop\n      pop\n      0x60\n      dup3\n      add\n      mload\n      dup2\n      0x06\n      add\n      0x00\n      dup3\n      add\n      mload\n      dup2\n      0x00\n      add\n      swap1\n      dup2\n      tag_147\n      swap2\n      swap1\n      tag_123\n      jump\t// in\n    tag_147:\n      pop\n      0x20\n      dup3\n      add\n      mload\n      dup2\n      0x01\n      add\n      swap1\n      dup2\n      tag_148\n      swap2\n      swap1\n      tag_123\n      jump\t// in\n    tag_148:\n      pop\n      0x40\n      dup3\n      add\n      mload\n      dup2\n      0x02\n      add\n      swap1\n      dup2\n      tag_149\n      swap2\n      swap1\n      tag_123\n      jump\t// in\n    tag_149:\n      pop\n      0x60\n      dup3\n      add\n      mload\n      dup2\n      0x03\n      add\n      sstore\n      0x80\n      dup3\n      add\n      mload\n      dup2\n      0x04\n      add\n      exp(0x0100, 0x00)\n      dup2\n      sload\n      dup2\n      0xff\n      mul\n      not\n      and\n      swap1\n      dup4\n      0xff\n      and\n      mul\n      or\n      swap1\n      sstore\n      pop\n      pop\n      pop\n      0x80\n      dup3\n      add\n      mload\n      dup2\n      0x0b\n      add\n      0x00\n      dup3\n      add\n      mload\n      dup2\n      0x00\n      add\n      swap1\n      dup2\n      tag_150\n      swap2\n      swap1\n      tag_123\n      jump\t// in\n    tag_150:\n      pop\n      0x20\n      dup3\n      add\n      mload\n      dup2\n      0x01\n      add\n      swap1\n      dup2\n      tag_151\n      swap2\n      swap1\n      tag_123\n      jump\t// in\n    tag_151:\n      pop\n      0x40\n      dup3\n      add\n      mload\n      dup2\n      0x02\n      add\n      sstore\n      0x60\n      dup3\n      add\n      mload\n      dup2\n      0x03\n      add\n      exp(0x0100, 0x00)\n      dup2\n      sload\n      dup2\n      0xff\n      mul\n      not\n      and\n      swap1\n      dup4\n      0xff\n      and\n      mul\n      or\n      swap1\n      sstore\n      pop\n      pop\n      pop\n      0xa0\n      dup3\n      add\n      mload\n      dup2\n      0x0f\n      add\n      0x00\n      dup3\n      add\n      mload\n      dup2\n      0x00\n      add\n      swap1\n      dup2\n      tag_152\n      swap2\n      swap1\n      tag_123\n      jump\t// in\n    tag_152:\n      pop\n      0x20\n      dup3\n      add\n      mload\n      dup2\n      0x01\n      add\n      swap1\n      dup2\n      tag_153\n      swap2\n      swap1\n      tag_123\n      jump\t// in\n    tag_153:\n      pop\n      0x40\n      dup3\n      add\n      mload\n      dup2\n      0x02\n      add\n      swap1\n      dup2\n      tag_154\n      swap2\n      swap1\n      tag_123\n      jump\t// in\n    tag_154:\n      pop\n      0x60\n      dup3\n      add\n      mload\n      dup2\n      0x03\n      add\n      sstore\n      0x80\n      dup3\n      add\n      mload\n      dup2\n      0x04\n      add\n      swap1\n      dup2\n      tag_155\n      swap2\n      swap1\n      tag_123\n      jump\t// in\n    tag_155:\n      pop\n      pop\n      pop\n      0xc0\n      dup3\n      add\n      mload\n      dup2\n      0x14\n      add\n      0x00\n      dup3\n      add\n      mload\n      dup2\n      0x00\n      add\n      swap1\n      dup2\n      tag_156\n      swap2\n      swap1\n      tag_123\n      jump\t// in\n    tag_156:\n      pop\n      0x20\n      dup3\n      add\n      mload\n      dup2\n      0x01\n      add\n      swap1\n      dup2\n      tag_157\n      swap2\n      swap1\n      tag_123\n      jump\t// in\n    tag_157:\n      pop\n      0x40\n      dup3\n      add\n      mload\n      dup2\n      0x02\n      add\n      swap1\n      dup2\n      tag_158\n      swap2\n      swap1\n      tag_123\n      jump\t// in\n    tag_158:\n      pop\n      0x60\n      dup3\n      add\n      mload\n      dup2\n      0x03\n      add\n      sstore\n      0x80\n      dup3\n      add\n      mload\n      dup2\n      0x04\n      add\n      exp(0x0100, 0x00)\n      dup2\n      sload\n      dup2\n      0xff\n      mul\n      not\n      and\n      swap1\n      dup4\n      0xff\n      and\n      mul\n      or\n      swap1\n      sstore\n      pop\n      pop\n      pop\n      0xe0\n      dup3\n      add\n      mload\n      dup2\n      0x19\n      add\n      0x00\n      dup3\n      add\n      mload\n      dup2\n      0x00\n      add\n      swap1\n      dup2\n      tag_159\n      swap2\n      swap1\n      tag_123\n      jump\t// in\n    tag_159:\n      pop\n      0x20\n      dup3\n      add\n      mload\n      dup2\n      0x01\n      add\n      swap1\n      dup2\n      tag_160\n      swap2\n      swap1\n      tag_123\n      jump\t// in\n    tag_160:\n      pop\n      0x40\n      dup3\n      add\n      mload\n      dup2\n      0x02\n      add\n      sstore\n      0x60\n      dup3\n      add\n      mload\n      dup2\n      0x03\n      add\n      exp(0x0100, 0x00)\n      dup2\n      sload\n      dup2\n      0xff\n      mul\n      not\n      and\n      swap1\n      dup4\n      0xff\n      and\n      mul\n      or\n      swap1\n      sstore\n      pop\n      pop\n      pop\n      swap1\n      pop\n      pop\n        /* \"solidity_series.sol/BOOKINGSITE.sol\":4509:5525  {... */\n      pop\n      pop\n      pop\n        /* \"solidity_series.sol/BOOKINGSITE.sol\":4176:5525  function bookairlineticket(... */\n      pop\n      pop\n      pop\n      pop\n      pop\n      pop\n      pop\n      pop\n      pop\n      jump\t// out\n        /* \"solidity_series.sol/BOOKINGSITE.sol\":2972:4170  function bookcinematicket(... */\n    tag_26:\n        /* \"solidity_series.sol/BOOKINGSITE.sol\":3315:3329  bookingCounter */\n      0x00\n      0x00\n        /* \"solidity_series.sol/BOOKINGSITE.sol\":3315:3331  bookingCounter++ */\n      dup2\n      sload\n      dup1\n      swap3\n      swap2\n      swap1\n      tag_162\n      swap1\n      tag_116\n      jump\t// in\n    tag_162:\n      swap2\n      swap1\n      pop\n      sstore\n      pop\n        /* \"solidity_series.sol/BOOKINGSITE.sol\":3338:3357  user memory newuser */\n      0x00\n        /* \"solidity_series.sol/BOOKINGSITE.sol\":3358:3482  user({... */\n      mload(0x40)\n      dup1\n      0x80\n      add\n      0x40\n      mstore\n      dup1\n        /* \"solidity_series.sol/BOOKINGSITE.sol\":3383:3390  _userid */\n      dup11\n        /* \"solidity_series.sol/BOOKINGSITE.sol\":3358:3482  user({... */\n      dup2\n      mstore\n      0x20\n      add\n        /* \"solidity_series.sol/BOOKINGSITE.sol\":3407:3412  _name */\n      dup10\n        /* \"solidity_series.sol/BOOKINGSITE.sol\":3358:3482  user({... */\n      dup2\n      mstore\n      0x20\n      add\n        /* \"solidity_series.sol/BOOKINGSITE.sol\":3428:3432  _age */\n      dup9\n        /* \"solidity_series.sol/BOOKINGSITE.sol\":3358:3482  user({... */\n      0xff\n      and\n      dup2\n      mstore\n      0x20\n      add\n        /* \"solidity_series.sol/BOOKINGSITE.sol\":3459:3474  _contactdetails */\n      dup8\n        /* \"solidity_series.sol/BOOKINGSITE.sol\":3358:3482  user({... */\n      dup2\n      mstore\n      pop\n        /* \"solidity_series.sol/BOOKINGSITE.sol\":3338:3482  user memory newuser=user({... */\n      swap1\n      pop\n        /* \"solidity_series.sol/BOOKINGSITE.sol\":3489:3526  cinemabooking memory newcinemabooking */\n      0x00\n        /* \"solidity_series.sol/BOOKINGSITE.sol\":3527:3691  cinemabooking({... */\n      mload(0x40)\n      dup1\n      0x80\n      add\n      0x40\n      mstore\n      dup1\n        /* \"solidity_series.sol/BOOKINGSITE.sol\":3558:3568  _moviename */\n      dup8\n        /* \"solidity_series.sol/BOOKINGSITE.sol\":3527:3691  cinemabooking({... */\n      dup2\n      mstore\n      0x20\n      add\n        /* \"solidity_series.sol/BOOKINGSITE.sol\":3594:3605  _cinemahall */\n      dup7\n        /* \"solidity_series.sol/BOOKINGSITE.sol\":3527:3691  cinemabooking({... */\n      dup2\n      mstore\n      0x20\n      add\n        /* \"solidity_series.sol/BOOKINGSITE.sol\":3625:3634  _showtime */\n      dup6\n        /* \"solidity_series.sol/BOOKINGSITE.sol\":3527:3691  cinemabooking({... */\n      dup2\n      mstore\n      0x20\n      add\n        /* \"solidity_series.sol/BOOKINGSITE.sol\":3666:3677  _seatnumber */\n      dup5\n        /* \"solidity_series.sol/BOOKINGSITE.sol\":3527:3691  cinemabooking({... */\n      0xff\n      and\n      dup2\n      mstore\n      pop\n        /* \"solidity_series.sol/BOOKINGSITE.sol\":3489:3691  cinemabooking memory newcinemabooking=cinemabooking({... */\n      swap1\n      pop\n        /* \"solidity_series.sol/BOOKINGSITE.sol\":3698:3723  booking memory newbooking */\n      0x00\n        /* \"solidity_series.sol/BOOKINGSITE.sol\":3724:4122  booking({... */\n      mload(0x40)\n      dup1\n      0x0100\n      add\n      0x40\n      mstore\n      dup1\n        /* \"solidity_series.sol/BOOKINGSITE.sol\":3754:3768  bookingCounter */\n      sload(0x00)\n        /* \"solidity_series.sol/BOOKINGSITE.sol\":3724:4122  booking({... */\n      dup2\n      mstore\n      0x20\n      add\n        /* \"solidity_series.sol/BOOKINGSITE.sol\":3791:3809  bookingtype.cinema */\n      0x01\n        /* \"solidity_series.sol/BOOKINGSITE.sol\":3724:4122  booking({... */\n      0x04\n      dup2\n      gt\n      iszero\n      tag_163\n      jumpi\n      tag_164\n      tag_119\n      jump\t// in\n    tag_164:\n    tag_163:\n      dup2\n      mstore\n      0x20\n      add\n        /* \"solidity_series.sol/BOOKINGSITE.sol\":3825:3832  newuser */\n      dup5\n        /* \"solidity_series.sol/BOOKINGSITE.sol\":3724:4122  booking({... */\n      dup2\n      mstore\n      0x20\n      add\n        /* \"solidity_series.sol/BOOKINGSITE.sol\":3855:3883  busbooking(\"\", \"\", \"\", 0, 0) */\n      mload(0x40)\n      dup1\n      0xa0\n      add\n      0x40\n      mstore\n      dup1\n      mload(0x40)\n      dup1\n      0x20\n      add\n      0x40\n      mstore\n      dup1\n      0x00\n      dup2\n      mstore\n      pop\n      dup2\n      mstore\n      0x20\n      add\n      mload(0x40)\n      dup1\n      0x20\n      add\n      0x40\n      mstore\n      dup1\n      0x00\n      dup2\n      mstore\n      pop\n      dup2\n      mstore\n      0x20\n      add\n      mload(0x40)\n      dup1\n      0x20\n      add\n      0x40\n      mstore\n      dup1\n      0x00\n      dup2\n      mstore\n      pop\n      dup2\n      mstore\n      0x20\n      add\n        /* \"solidity_series.sol/BOOKINGSITE.sol\":3878:3879  0 */\n      0x00\n        /* \"solidity_series.sol/BOOKINGSITE.sol\":3855:3883  busbooking(\"\", \"\", \"\", 0, 0) */\n      dup2\n      mstore\n      0x20\n      add\n        /* \"solidity_series.sol/BOOKINGSITE.sol\":3881:3882  0 */\n      0x00\n        /* \"solidity_series.sol/BOOKINGSITE.sol\":3855:3883  busbooking(\"\", \"\", \"\", 0, 0) */\n      0xff\n      and\n      dup2\n      mstore\n      pop\n        /* \"solidity_series.sol/BOOKINGSITE.sol\":3724:4122  booking({... */\n      dup2\n      mstore\n      0x20\n      add\n        /* \"solidity_series.sol/BOOKINGSITE.sol\":3913:3929  newcinemabooking */\n      dup4\n        /* \"solidity_series.sol/BOOKINGSITE.sol\":3724:4122  booking({... */\n      dup2\n      mstore\n      0x20\n      add\n        /* \"solidity_series.sol/BOOKINGSITE.sol\":3959:3992  airlinebooking(\"\", \"\", \"\", 0, \"\") */\n      mload(0x40)\n      dup1\n      0xa0\n      add\n      0x40\n      mstore\n      dup1\n      mload(0x40)\n      dup1\n      0x20\n      add\n      0x40\n      mstore\n      dup1\n      0x00\n      dup2\n      mstore\n      pop\n      dup2\n      mstore\n      0x20\n      add\n      mload(0x40)\n      dup1\n      0x20\n      add\n      0x40\n      mstore\n      dup1\n      0x00\n      dup2\n      mstore\n      pop\n      dup2\n      mstore\n      0x20\n      add\n      mload(0x40)\n      dup1\n      0x20\n      add\n      0x40\n      mstore\n      dup1\n      0x00\n      dup2\n      mstore\n      pop\n      dup2\n      mstore\n      0x20\n      add\n        /* \"solidity_series.sol/BOOKINGSITE.sol\":3986:3987  0 */\n      0x00\n        /* \"solidity_series.sol/BOOKINGSITE.sol\":3959:3992  airlinebooking(\"\", \"\", \"\", 0, \"\") */\n      dup2\n      mstore\n      0x20\n      add\n      mload(0x40)\n      dup1\n      0x20\n      add\n      0x40\n      mstore\n      dup1\n      0x00\n      dup2\n      mstore\n      pop\n      dup2\n      mstore\n      pop\n        /* \"solidity_series.sol/BOOKINGSITE.sol\":3724:4122  booking({... */\n      dup2\n      mstore\n      0x20\n      add\n        /* \"solidity_series.sol/BOOKINGSITE.sol\":4023:4055  railwaybooking(\"\", \"\", \"\", 0, 0) */\n      mload(0x40)\n      dup1\n      0xa0\n      add\n      0x40\n      mstore\n      dup1\n      mload(0x40)\n      dup1\n      0x20\n      add\n      0x40\n      mstore\n      dup1\n      0x00\n      dup2\n      mstore\n      pop\n      dup2\n      mstore\n      0x20\n      add\n      mload(0x40)\n      dup1\n      0x20\n      add\n      0x40\n      mstore\n      dup1\n      0x00\n      dup2\n      mstore\n      pop\n      dup2\n      mstore\n      0x20\n      add\n      mload(0x40)\n      dup1\n      0x20\n      add\n      0x40\n      mstore\n      dup1\n      0x00\n      dup2\n      mstore\n      pop\n      dup2\n      mstore\n      0x20\n      add\n        /* \"solidity_series.sol/BOOKINGSITE.sol\":4050:4051  0 */\n      0x00\n        /* \"solidity_series.sol/BOOKINGSITE.sol\":4023:4055  railwaybooking(\"\", \"\", \"\", 0, 0) */\n      dup2\n      mstore\n      0x20\n      add\n        /* \"solidity_series.sol/BOOKINGSITE.sol\":4053:4054  0 */\n      0x00\n        /* \"solidity_series.sol/BOOKINGSITE.sol\":4023:4055  railwaybooking(\"\", \"\", \"\", 0, 0) */\n      0xff\n      and\n      dup2\n      mstore\n      pop\n        /* \"solidity_series.sol/BOOKINGSITE.sol\":3724:4122  booking({... */\n      dup2\n      mstore\n      0x20\n      add\n        /* \"solidity_series.sol/BOOKINGSITE.sol\":4086:4114  cricketbooking(\"\", \"\", 0, 0) */\n      mload(0x40)\n      dup1\n      0x80\n      add\n      0x40\n      mstore\n      dup1\n      mload(0x40)\n      dup1\n      0x20\n      add\n      0x40\n      mstore\n      dup1\n      0x00\n      dup2\n      mstore\n      pop\n      dup2\n      mstore\n      0x20\n      add\n      mload(0x40)\n      dup1\n      0x20\n      add\n      0x40\n      mstore\n      dup1\n      0x00\n      dup2\n      mstore\n      pop\n      dup2\n      mstore\n      0x20\n      add\n        /* \"solidity_series.sol/BOOKINGSITE.sol\":4109:4110  0 */\n      0x00\n        /* \"solidity_series.sol/BOOKINGSITE.sol\":4086:4114  cricketbooking(\"\", \"\", 0, 0) */\n      dup2\n      mstore\n      0x20\n      add\n        /* \"solidity_series.sol/BOOKINGSITE.sol\":4112:4113  0 */\n      0x00\n        /* \"solidity_series.sol/BOOKINGSITE.sol\":4086:4114  cricketbooking(\"\", \"\", 0, 0) */\n      0xff\n      and\n      dup2\n      mstore\n      pop\n        /* \"solidity_series.sol/BOOKINGSITE.sol\":3724:4122  booking({... */\n      dup2\n      mstore\n      pop\n        /* \"solidity_series.sol/BOOKINGSITE.sol\":3698:4122  booking memory newbooking=booking({... */\n      swap1\n      pop\n        /* \"solidity_series.sol/BOOKINGSITE.sol\":4154:4164  newbooking */\n      dup1\n        /* \"solidity_series.sol/BOOKINGSITE.sol\":4129:4137  bookings */\n      0x01\n        /* \"solidity_series.sol/BOOKINGSITE.sol\":4129:4153  bookings[bookingCounter] */\n      0x00\n        /* \"solidity_series.sol/BOOKINGSITE.sol\":4138:4152  bookingCounter */\n      sload(0x00)\n        /* \"solidity_series.sol/BOOKINGSITE.sol\":4129:4153  bookings[bookingCounter] */\n      dup2\n      mstore\n      0x20\n      add\n      swap1\n      dup2\n      mstore\n      0x20\n      add\n      0x00\n      keccak256\n        /* \"solidity_series.sol/BOOKINGSITE.sol\":4129:4164  bookings[bookingCounter]=newbooking */\n      0x00\n      dup3\n      add\n      mload\n      dup2\n      0x00\n      add\n      sstore\n      0x20\n      dup3\n      add\n      mload\n      dup2\n      0x01\n      add\n      exp(0x0100, 0x00)\n      dup2\n      sload\n      dup2\n      0xff\n      mul\n      not\n      and\n      swap1\n      dup4\n      0x04\n      dup2\n      gt\n      iszero\n      tag_165\n      jumpi\n      tag_166\n      tag_119\n      jump\t// in\n    tag_166:\n    tag_165:\n      mul\n      or\n      swap1\n      sstore\n      pop\n      0x40\n      dup3\n      add\n      mload\n      dup2\n      0x02\n      add\n      0x00\n      dup3\n      add\n      mload\n      dup2\n      0x00\n      add\n      sstore\n      0x20\n      dup3\n      add\n      mload\n      dup2\n      0x01\n      add\n      swap1\n      dup2\n      tag_167\n      swap2\n      swap1\n      tag_123\n      jump\t// in\n    tag_167:\n      pop\n      0x40\n      dup3\n      add\n      mload\n      dup2\n      0x02\n      add\n      exp(0x0100, 0x00)\n      dup2\n      sload\n      dup2\n      0xff\n      mul\n      not\n      and\n      swap1\n      dup4\n      0xff\n      and\n      mul\n      or\n      swap1\n      sstore\n      pop\n      0x60\n      dup3\n      add\n      mload\n      dup2\n      0x03\n      add\n      swap1\n      dup2\n      tag_168\n      swap2\n      swap1\n      tag_123\n      jump\t// in\n    tag_168:\n      pop\n      pop\n      pop\n      0x60\n      dup3\n      add\n      mload\n      dup2\n      0x06\n      add\n      0x00\n      dup3\n      add\n      mload\n      dup2\n      0x00\n      add\n      swap1\n      dup2\n      tag_169\n      swap2\n      swap1\n      tag_123\n      jump\t// in\n    tag_169:\n      pop\n      0x20\n      dup3\n      add\n      mload\n      dup2\n      0x01\n      add\n      swap1\n      dup2\n      tag_170\n      swap2\n      swap1\n      tag_123\n      jump\t// in\n    tag_170:\n      pop\n      0x40\n      dup3\n      add\n      mload\n      dup2\n      0x02\n      add\n      swap1\n      dup2\n      tag_171\n      swap2\n      swap1\n      tag_123\n      jump\t// in\n    tag_171:\n      pop\n      0x60\n      dup3\n      add\n      mload\n      dup2\n      0x03\n      add\n      sstore\n      0x80\n      dup3\n      add\n      mload\n      dup2\n      0x04\n      add\n      exp(0x0100, 0x00)\n      dup2\n      sload\n      dup2\n      0xff\n      mul\n      not\n      and\n      swap1\n      dup4\n      0xff\n      and\n      mul\n      or\n      swap1\n      sstore\n      pop\n      pop\n      pop\n      0x80\n      dup3\n      add\n      mload\n      dup2\n      0x0b\n      add\n      0x00\n      dup3\n      add\n      mload\n      dup2\n      0x00\n      add\n      swap1\n      dup2\n      tag_172\n      swap2\n      swap1\n      tag_123\n      jump\t// in\n    tag_172:\n      pop\n      0x20\n      dup3\n      add\n      mload\n      dup2\n      0x01\n      add\n      swap1\n      dup2\n      tag_173\n      swap2\n      swap1\n      tag_123\n      jump\t// in\n    tag_173:\n      pop\n      0x40\n      dup3\n      add\n      mload\n      dup2\n      0x02\n      add\n      sstore\n      0x60\n      dup3\n      add\n      mload\n      dup2\n      0x03\n      add\n      exp(0x0100, 0x00)\n      dup2\n      sload\n      dup2\n      0xff\n      mul\n      not\n      and\n      swap1\n      dup4\n      0xff\n      and\n      mul\n      or\n      swap1\n      sstore\n      pop\n      pop\n      pop\n      0xa0\n      dup3\n      add\n      mload\n      dup2\n      0x0f\n      add\n      0x00\n      dup3\n      add\n      mload\n      dup2\n      0x00\n      add\n      swap1\n      dup2\n      tag_174\n      swap2\n      swap1\n      tag_123\n      jump\t// in\n    tag_174:\n      pop\n      0x20\n      dup3\n      add\n      mload\n      dup2\n      0x01\n      add\n      swap1\n      dup2\n      tag_175\n      swap2\n      swap1\n      tag_123\n      jump\t// in\n    tag_175:\n      pop\n      0x40\n      dup3\n      add\n      mload\n      dup2\n      0x02\n      add\n      swap1\n      dup2\n      tag_176\n      swap2\n      swap1\n      tag_123\n      jump\t// in\n    tag_176:\n      pop\n      0x60\n      dup3\n      add\n      mload\n      dup2\n      0x03\n      add\n      sstore\n      0x80\n      dup3\n      add\n      mload\n      dup2\n      0x04\n      add\n      swap1\n      dup2\n      tag_177\n      swap2\n      swap1\n      tag_123\n      jump\t// in\n    tag_177:\n      pop\n      pop\n      pop\n      0xc0\n      dup3\n      add\n      mload\n      dup2\n      0x14\n      add\n      0x00\n      dup3\n      add\n      mload\n      dup2\n      0x00\n      add\n      swap1\n      dup2\n      tag_178\n      swap2\n      swap1\n      tag_123\n      jump\t// in\n    tag_178:\n      pop\n      0x20\n      dup3\n      add\n      mload\n      dup2\n      0x01\n      add\n      swap1\n      dup2\n      tag_179\n      swap2\n      swap1\n      tag_123\n      jump\t// in\n    tag_179:\n      pop\n      0x40\n      dup3\n      add\n      mload\n      dup2\n      0x02\n      add\n      swap1\n      dup2\n      tag_180\n      swap2\n      swap1\n      tag_123\n      jump\t// in\n    tag_180:\n      pop\n      0x60\n      dup3\n      add\n      mload\n      dup2\n      0x03\n      add\n      sstore\n      0x80\n      dup3\n      add\n      mload\n      dup2\n      0x04\n      add\n      exp(0x0100, 0x00)\n      dup2\n      sload\n      dup2\n      0xff\n      mul\n      not\n      and\n      swap1\n      dup4\n      0xff\n      and\n      mul\n      or\n      swap1\n      sstore\n      pop\n      pop\n      pop\n      0xe0\n      dup3\n      add\n      mload\n      dup2\n      0x19\n      add\n      0x00\n      dup3\n      add\n      mload\n      dup2\n      0x00\n      add\n      swap1\n      dup2\n      tag_181\n      swap2\n      swap1\n      tag_123\n      jump\t// in\n    tag_181:\n      pop\n      0x20\n      dup3\n      add\n      mload\n      dup2\n      0x01\n      add\n      swap1\n      dup2\n      tag_182\n      swap2\n      swap1\n      tag_123\n      jump\t// in\n    tag_182:\n      pop\n      0x40\n      dup3\n      add\n      mload\n      dup2\n      0x02\n      add\n      sstore\n      0x60\n      dup3\n      add\n      mload\n      dup2\n      0x03\n      add\n      exp(0x0100, 0x00)\n      dup2\n      sload\n      dup2\n      0xff\n      mul\n      not\n      and\n      swap1\n      dup4\n      0xff\n      and\n      mul\n      or\n      swap1\n      sstore\n      pop\n      pop\n      pop\n      swap1\n      pop\n      pop\n        /* \"solidity_series.sol/BOOKINGSITE.sol\":3308:4170  {... */\n      pop\n      pop\n      pop\n        /* \"solidity_series.sol/BOOKINGSITE.sol\":2972:4170  function bookcinematicket(... */\n      pop\n      pop\n      pop\n      pop\n      pop\n      pop\n      pop\n      pop\n      jump\t// out\n        /* \"solidity_series.sol/BOOKINGSITE.sol\":1634:2966  function bookBusTicket( ... */\n    tag_29:\n        /* \"solidity_series.sol/BOOKINGSITE.sol\":1973:1987  bookingCounter */\n      0x00\n      0x00\n        /* \"solidity_series.sol/BOOKINGSITE.sol\":1973:1989  bookingCounter++ */\n      dup2\n      sload\n      dup1\n      swap3\n      swap2\n      swap1\n      tag_184\n      swap1\n      tag_116\n      jump\t// in\n    tag_184:\n      swap2\n      swap1\n      pop\n      sstore\n      pop\n        /* \"solidity_series.sol/BOOKINGSITE.sol\":2000:2019  user memory newuser */\n      0x00\n        /* \"solidity_series.sol/BOOKINGSITE.sol\":2022:2165  user({... */\n      mload(0x40)\n      dup1\n      0x80\n      add\n      0x40\n      mstore\n      dup1\n        /* \"solidity_series.sol/BOOKINGSITE.sol\":2050:2057  _userid */\n      dup12\n        /* \"solidity_series.sol/BOOKINGSITE.sol\":2022:2165  user({... */\n      dup2\n      mstore\n      0x20\n      add\n        /* \"solidity_series.sol/BOOKINGSITE.sol\":2078:2083  _name */\n      dup11\n        /* \"solidity_series.sol/BOOKINGSITE.sol\":2022:2165  user({... */\n      dup2\n      mstore\n      0x20\n      add\n        /* \"solidity_series.sol/BOOKINGSITE.sol\":2103:2107  _age */\n      dup10\n        /* \"solidity_series.sol/BOOKINGSITE.sol\":2022:2165  user({... */\n      0xff\n      and\n      dup2\n      mstore\n      0x20\n      add\n        /* \"solidity_series.sol/BOOKINGSITE.sol\":2138:2153  _contactdetails */\n      dup9\n        /* \"solidity_series.sol/BOOKINGSITE.sol\":2022:2165  user({... */\n      dup2\n      mstore\n      pop\n        /* \"solidity_series.sol/BOOKINGSITE.sol\":2000:2165  user memory newuser = user({... */\n      swap1\n      pop\n        /* \"solidity_series.sol/BOOKINGSITE.sol\":2186:2217  busbooking memory newBusbooking */\n      0x00\n        /* \"solidity_series.sol/BOOKINGSITE.sol\":2220:2437  busbooking({... */\n      mload(0x40)\n      dup1\n      0xa0\n      add\n      0x40\n      mstore\n      dup1\n        /* \"solidity_series.sol/BOOKINGSITE.sol\":2257:2264  _origin */\n      dup8\n        /* \"solidity_series.sol/BOOKINGSITE.sol\":2220:2437  busbooking({... */\n      dup2\n      mstore\n      0x20\n      add\n        /* \"solidity_series.sol/BOOKINGSITE.sol\":2290:2300  _busnumber */\n      dup9\n        /* \"solidity_series.sol/BOOKINGSITE.sol\":2220:2437  busbooking({... */\n      dup2\n      mstore\n      0x20\n      add\n        /* \"solidity_series.sol/BOOKINGSITE.sol\":2331:2343  _destination */\n      dup7\n        /* \"solidity_series.sol/BOOKINGSITE.sol\":2220:2437  busbooking({... */\n      dup2\n      mstore\n      0x20\n      add\n        /* \"solidity_series.sol/BOOKINGSITE.sol\":2373:2387  _dateofjourney */\n      dup6\n        /* \"solidity_series.sol/BOOKINGSITE.sol\":2220:2437  busbooking({... */\n      dup2\n      mstore\n      0x20\n      add\n        /* \"solidity_series.sol/BOOKINGSITE.sol\":2414:2425  _seatnumber */\n      dup5\n        /* \"solidity_series.sol/BOOKINGSITE.sol\":2220:2437  busbooking({... */\n      0xff\n      and\n      dup2\n      mstore\n      pop\n        /* \"solidity_series.sol/BOOKINGSITE.sol\":2186:2437  busbooking memory newBusbooking = busbooking({... */\n      swap1\n      pop\n        /* \"solidity_series.sol/BOOKINGSITE.sol\":2458:2483  booking memory newbooking */\n      0x00\n        /* \"solidity_series.sol/BOOKINGSITE.sol\":2486:2900  booking({... */\n      mload(0x40)\n      dup1\n      0x0100\n      add\n      0x40\n      mstore\n      dup1\n        /* \"solidity_series.sol/BOOKINGSITE.sol\":2520:2534  bookingCounter */\n      sload(0x00)\n        /* \"solidity_series.sol/BOOKINGSITE.sol\":2486:2900  booking({... */\n      dup2\n      mstore\n      0x20\n      add\n        /* \"solidity_series.sol/BOOKINGSITE.sol\":2562:2577  bookingtype.bus */\n      0x00\n        /* \"solidity_series.sol/BOOKINGSITE.sol\":2486:2900  booking({... */\n      0x04\n      dup2\n      gt\n      iszero\n      tag_185\n      jumpi\n      tag_186\n      tag_119\n      jump\t// in\n    tag_186:\n    tag_185:\n      dup2\n      mstore\n      0x20\n      add\n        /* \"solidity_series.sol/BOOKINGSITE.sol\":2598:2605  newuser */\n      dup5\n        /* \"solidity_series.sol/BOOKINGSITE.sol\":2486:2900  booking({... */\n      dup2\n      mstore\n      0x20\n      add\n        /* \"solidity_series.sol/BOOKINGSITE.sol\":2632:2645  newBusbooking */\n      dup4\n        /* \"solidity_series.sol/BOOKINGSITE.sol\":2486:2900  booking({... */\n      dup2\n      mstore\n      0x20\n      add\n        /* \"solidity_series.sol/BOOKINGSITE.sol\":2675:2702  cinemabooking(\"\", \"\", 0, 0) */\n      mload(0x40)\n      dup1\n      0x80\n      add\n      0x40\n      mstore\n      dup1\n      mload(0x40)\n      dup1\n      0x20\n      add\n      0x40\n      mstore\n      dup1\n      0x00\n      dup2\n      mstore\n      pop\n      dup2\n      mstore\n      0x20\n      add\n      mload(0x40)\n      dup1\n      0x20\n      add\n      0x40\n      mstore\n      dup1\n      0x00\n      dup2\n      mstore\n      pop\n      dup2\n      mstore\n      0x20\n      add\n        /* \"solidity_series.sol/BOOKINGSITE.sol\":2697:2698  0 */\n      0x00\n        /* \"solidity_series.sol/BOOKINGSITE.sol\":2675:2702  cinemabooking(\"\", \"\", 0, 0) */\n      dup2\n      mstore\n      0x20\n      add\n        /* \"solidity_series.sol/BOOKINGSITE.sol\":2700:2701  0 */\n      0x00\n        /* \"solidity_series.sol/BOOKINGSITE.sol\":2675:2702  cinemabooking(\"\", \"\", 0, 0) */\n      0xff\n      and\n      dup2\n      mstore\n      pop\n        /* \"solidity_series.sol/BOOKINGSITE.sol\":2486:2900  booking({... */\n      dup2\n      mstore\n      0x20\n      add\n        /* \"solidity_series.sol/BOOKINGSITE.sol\":2733:2766  airlinebooking(\"\", \"\", \"\", 0, \"\") */\n      mload(0x40)\n      dup1\n      0xa0\n      add\n      0x40\n      mstore\n      dup1\n      mload(0x40)\n      dup1\n      0x20\n      add\n      0x40\n      mstore\n      dup1\n      0x00\n      dup2\n      mstore\n      pop\n      dup2\n      mstore\n      0x20\n      add\n      mload(0x40)\n      dup1\n      0x20\n      add\n      0x40\n      mstore\n      dup1\n      0x00\n      dup2\n      mstore\n      pop\n      dup2\n      mstore\n      0x20\n      add\n      mload(0x40)\n      dup1\n      0x20\n      add\n      0x40\n      mstore\n      dup1\n      0x00\n      dup2\n      mstore\n      pop\n      dup2\n      mstore\n      0x20\n      add\n        /* \"solidity_series.sol/BOOKINGSITE.sol\":2760:2761  0 */\n      0x00\n        /* \"solidity_series.sol/BOOKINGSITE.sol\":2733:2766  airlinebooking(\"\", \"\", \"\", 0, \"\") */\n      dup2\n      mstore\n      0x20\n      add\n      mload(0x40)\n      dup1\n      0x20\n      add\n      0x40\n      mstore\n      dup1\n      0x00\n      dup2\n      mstore\n      pop\n      dup2\n      mstore\n      pop\n        /* \"solidity_series.sol/BOOKINGSITE.sol\":2486:2900  booking({... */\n      dup2\n      mstore\n      0x20\n      add\n        /* \"solidity_series.sol/BOOKINGSITE.sol\":2797:2829  railwaybooking(\"\", \"\", \"\", 0, 0) */\n      mload(0x40)\n      dup1\n      0xa0\n      add\n      0x40\n      mstore\n      dup1\n      mload(0x40)\n      dup1\n      0x20\n      add\n      0x40\n      mstore\n      dup1\n      0x00\n      dup2\n      mstore\n      pop\n      dup2\n      mstore\n      0x20\n      add\n      mload(0x40)\n      dup1\n      0x20\n      add\n      0x40\n      mstore\n      dup1\n      0x00\n      dup2\n      mstore\n      pop\n      dup2\n      mstore\n      0x20\n      add\n      mload(0x40)\n      dup1\n      0x20\n      add\n      0x40\n      mstore\n      dup1\n      0x00\n      dup2\n      mstore\n      pop\n      dup2\n      mstore\n      0x20\n      add\n        /* \"solidity_series.sol/BOOKINGSITE.sol\":2824:2825  0 */\n      0x00\n        /* \"solidity_series.sol/BOOKINGSITE.sol\":2797:2829  railwaybooking(\"\", \"\", \"\", 0, 0) */\n      dup2\n      mstore\n      0x20\n      add\n        /* \"solidity_series.sol/BOOKINGSITE.sol\":2827:2828  0 */\n      0x00\n        /* \"solidity_series.sol/BOOKINGSITE.sol\":2797:2829  railwaybooking(\"\", \"\", \"\", 0, 0) */\n      0xff\n      and\n      dup2\n      mstore\n      pop\n        /* \"solidity_series.sol/BOOKINGSITE.sol\":2486:2900  booking({... */\n      dup2\n      mstore\n      0x20\n      add\n        /* \"solidity_series.sol/BOOKINGSITE.sol\":2860:2888  cricketbooking(\"\", \"\", 0, 0) */\n      mload(0x40)\n      dup1\n      0x80\n      add\n      0x40\n      mstore\n      dup1\n      mload(0x40)\n      dup1\n      0x20\n      add\n      0x40\n      mstore\n      dup1\n      0x00\n      dup2\n      mstore\n      pop\n      dup2\n      mstore\n      0x20\n      add\n      mload(0x40)\n      dup1\n      0x20\n      add\n      0x40\n      mstore\n      dup1\n      0x00\n      dup2\n      mstore\n      pop\n      dup2\n      mstore\n      0x20\n      add\n        /* \"solidity_series.sol/BOOKINGSITE.sol\":2883:2884  0 */\n      0x00\n        /* \"solidity_series.sol/BOOKINGSITE.sol\":2860:2888  cricketbooking(\"\", \"\", 0, 0) */\n      dup2\n      mstore\n      0x20\n      add\n        /* \"solidity_series.sol/BOOKINGSITE.sol\":2886:2887  0 */\n      0x00\n        /* \"solidity_series.sol/BOOKINGSITE.sol\":2860:2888  cricketbooking(\"\", \"\", 0, 0) */\n      0xff\n      and\n      dup2\n      mstore\n      pop\n        /* \"solidity_series.sol/BOOKINGSITE.sol\":2486:2900  booking({... */\n      dup2\n      mstore\n      pop\n        /* \"solidity_series.sol/BOOKINGSITE.sol\":2458:2900  booking memory newbooking = booking({... */\n      swap1\n      pop\n        /* \"solidity_series.sol/BOOKINGSITE.sol\":2948:2958  newbooking */\n      dup1\n        /* \"solidity_series.sol/BOOKINGSITE.sol\":2921:2929  bookings */\n      0x01\n        /* \"solidity_series.sol/BOOKINGSITE.sol\":2921:2945  bookings[bookingCounter] */\n      0x00\n        /* \"solidity_series.sol/BOOKINGSITE.sol\":2930:2944  bookingCounter */\n      sload(0x00)\n        /* \"solidity_series.sol/BOOKINGSITE.sol\":2921:2945  bookings[bookingCounter] */\n      dup2\n      mstore\n      0x20\n      add\n      swap1\n      dup2\n      mstore\n      0x20\n      add\n      0x00\n      keccak256\n        /* \"solidity_series.sol/BOOKINGSITE.sol\":2921:2958  bookings[bookingCounter] = newbooking */\n      0x00\n      dup3\n      add\n      mload\n      dup2\n      0x00\n      add\n      sstore\n      0x20\n      dup3\n      add\n      mload\n      dup2\n      0x01\n      add\n      exp(0x0100, 0x00)\n      dup2\n      sload\n      dup2\n      0xff\n      mul\n      not\n      and\n      swap1\n      dup4\n      0x04\n      dup2\n      gt\n      iszero\n      tag_187\n      jumpi\n      tag_188\n      tag_119\n      jump\t// in\n    tag_188:\n    tag_187:\n      mul\n      or\n      swap1\n      sstore\n      pop\n      0x40\n      dup3\n      add\n      mload\n      dup2\n      0x02\n      add\n      0x00\n      dup3\n      add\n      mload\n      dup2\n      0x00\n      add\n      sstore\n      0x20\n      dup3\n      add\n      mload\n      dup2\n      0x01\n      add\n      swap1\n      dup2\n      tag_189\n      swap2\n      swap1\n      tag_123\n      jump\t// in\n    tag_189:\n      pop\n      0x40\n      dup3\n      add\n      mload\n      dup2\n      0x02\n      add\n      exp(0x0100, 0x00)\n      dup2\n      sload\n      dup2\n      0xff\n      mul\n      not\n      and\n      swap1\n      dup4\n      0xff\n      and\n      mul\n      or\n      swap1\n      sstore\n      pop\n      0x60\n      dup3\n      add\n      mload\n      dup2\n      0x03\n      add\n      swap1\n      dup2\n      tag_190\n      swap2\n      swap1\n      tag_123\n      jump\t// in\n    tag_190:\n      pop\n      pop\n      pop\n      0x60\n      dup3\n      add\n      mload\n      dup2\n      0x06\n      add\n      0x00\n      dup3\n      add\n      mload\n      dup2\n      0x00\n      add\n      swap1\n      dup2\n      tag_191\n      swap2\n      swap1\n      tag_123\n      jump\t// in\n    tag_191:\n      pop\n      0x20\n      dup3\n      add\n      mload\n      dup2\n      0x01\n      add\n      swap1\n      dup2\n      tag_192\n      swap2\n      swap1\n      tag_123\n      jump\t// in\n    tag_192:\n      pop\n      0x40\n      dup3\n      add\n      mload\n      dup2\n      0x02\n      add\n      swap1\n      dup2\n      tag_193\n      swap2\n      swap1\n      tag_123\n      jump\t// in\n    tag_193:\n      pop\n      0x60\n      dup3\n      add\n      mload\n      dup2\n      0x03\n      add\n      sstore\n      0x80\n      dup3\n      add\n      mload\n      dup2\n      0x04\n      add\n      exp(0x0100, 0x00)\n      dup2\n      sload\n      dup2\n      0xff\n      mul\n      not\n      and\n      swap1\n      dup4\n      0xff\n      and\n      mul\n      or\n      swap1\n      sstore\n      pop\n      pop\n      pop\n      0x80\n      dup3\n      add\n      mload\n      dup2\n      0x0b\n      add\n      0x00\n      dup3\n      add\n      mload\n      dup2\n      0x00\n      add\n      swap1\n      dup2\n      tag_194\n      swap2\n      swap1\n      tag_123\n      jump\t// in\n    tag_194:\n      pop\n      0x20\n      dup3\n      add\n      mload\n      dup2\n      0x01\n      add\n      swap1\n      dup2\n      tag_195\n      swap2\n      swap1\n      tag_123\n      jump\t// in\n    tag_195:\n      pop\n      0x40\n      dup3\n      add\n      mload\n      dup2\n      0x02\n      add\n      sstore\n      0x60\n      dup3\n      add\n      mload\n      dup2\n      0x03\n      add\n      exp(0x0100, 0x00)\n      dup2\n      sload\n      dup2\n      0xff\n      mul\n      not\n      and\n      swap1\n      dup4\n      0xff\n      and\n      mul\n      or\n      swap1\n      sstore\n      pop\n      pop\n      pop\n      0xa0\n      dup3\n      add\n      mload\n      dup2\n      0x0f\n      add\n      0x00\n      dup3\n      add\n      mload\n      dup2\n      0x00\n      add\n      swap1\n      dup2\n      tag_196\n      swap2\n      swap1\n      tag_123\n      jump\t// in\n    tag_196:\n      pop\n      0x20\n      dup3\n      add\n      mload\n      dup2\n      0x01\n      add\n      swap1\n      dup2\n      tag_197\n      swap2\n      swap1\n      tag_123\n      jump\t// in\n    tag_197:\n      pop\n      0x40\n      dup3\n      add\n      mload\n      dup2\n      0x02\n      add\n      swap1\n      dup2\n      tag_198\n      swap2\n      swap1\n      tag_123\n      jump\t// in\n    tag_198:\n      pop\n      0x60\n      dup3\n      add\n      mload\n      dup2\n      0x03\n      add\n      sstore\n      0x80\n      dup3\n      add\n      mload\n      dup2\n      0x04\n      add\n      swap1\n      dup2\n      tag_199\n      swap2\n      swap1\n      tag_123\n      jump\t// in\n    tag_199:\n      pop\n      pop\n      pop\n      0xc0\n      dup3\n      add\n      mload\n      dup2\n      0x14\n      add\n      0x00\n      dup3\n      add\n      mload\n      dup2\n      0x00\n      add\n      swap1\n      dup2\n      tag_200\n      swap2\n      swap1\n      tag_123\n      jump\t// in\n    tag_200:\n      pop\n      0x20\n      dup3\n      add\n      mload\n      dup2\n      0x01\n      add\n      swap1\n      dup2\n      tag_201\n      swap2\n      swap1\n      tag_123\n      jump\t// in\n    tag_201:\n      pop\n      0x40\n      dup3\n      add\n      mload\n      dup2\n      0x02\n      add\n      swap1\n      dup2\n      tag_202\n      swap2\n      swap1\n      tag_123\n      jump\t// in\n    tag_202:\n      pop\n      0x60\n      dup3\n      add\n      mload\n      dup2\n      0x03\n      add\n      sstore\n      0x80\n      dup3\n      add\n      mload\n      dup2\n      0x04\n      add\n      exp(0x0100, 0x00)\n      dup2\n      sload\n      dup2\n      0xff\n      mul\n      not\n      and\n      swap1\n      dup4\n      0xff\n      and\n      mul\n      or\n      swap1\n      sstore\n      pop\n      pop\n      pop\n      0xe0\n      dup3\n      add\n      mload\n      dup2\n      0x19\n      add\n      0x00\n      dup3\n      add\n      mload\n      dup2\n      0x00\n      add\n      swap1\n      dup2\n      tag_203\n      swap2\n      swap1\n      tag_123\n      jump\t// in\n    tag_203:\n      pop\n      0x20\n      dup3\n      add\n      mload\n      dup2\n      0x01\n      add\n      swap1\n      dup2\n      tag_204\n      swap2\n      swap1\n      tag_123\n      jump\t// in\n    tag_204:\n      pop\n      0x40\n      dup3\n      add\n      mload\n      dup2\n      0x02\n      add\n      sstore\n      0x60\n      dup3\n      add\n      mload\n      dup2\n      0x03\n      add\n      exp(0x0100, 0x00)\n      dup2\n      sload\n      dup2\n      0xff\n      mul\n      not\n      and\n      swap1\n      dup4\n      0xff\n      and\n      mul\n      or\n      swap1\n      sstore\n      pop\n      pop\n      pop\n      swap1\n      pop\n      pop\n        /* \"solidity_series.sol/BOOKINGSITE.sol\":1962:2966  {... */\n      pop\n      pop\n      pop\n        /* \"solidity_series.sol/BOOKINGSITE.sol\":1634:2966  function bookBusTicket( ... */\n      pop\n      pop\n      pop\n      pop\n      pop\n      pop\n      pop\n      pop\n      pop\n      jump\t// out\n        /* \"solidity_series.sol/BOOKINGSITE.sol\":6892:8156  function bookcricketticket(... */\n    tag_32:\n        /* \"solidity_series.sol/BOOKINGSITE.sol\":7189:7203  bookingCounter */\n      0x00\n      0x00\n        /* \"solidity_series.sol/BOOKINGSITE.sol\":7189:7205  bookingCounter++ */\n      dup2\n      sload\n      dup1\n      swap3\n      swap2\n      swap1\n      tag_206\n      swap1\n      tag_116\n      jump\t// in\n    tag_206:\n      swap2\n      swap1\n      pop\n      sstore\n      pop\n        /* \"solidity_series.sol/BOOKINGSITE.sol\":7216:7235  user memory newuser */\n      0x00\n        /* \"solidity_series.sol/BOOKINGSITE.sol\":7238:7381  user({... */\n      mload(0x40)\n      dup1\n      0x80\n      add\n      0x40\n      mstore\n      dup1\n        /* \"solidity_series.sol/BOOKINGSITE.sol\":7266:7273  _userid */\n      dup11\n        /* \"solidity_series.sol/BOOKINGSITE.sol\":7238:7381  user({... */\n      dup2\n      mstore\n      0x20\n      add\n        /* \"solidity_series.sol/BOOKINGSITE.sol\":7294:7299  _name */\n      dup10\n        /* \"solidity_series.sol/BOOKINGSITE.sol\":7238:7381  user({... */\n      dup2\n      mstore\n      0x20\n      add\n        /* \"solidity_series.sol/BOOKINGSITE.sol\":7319:7323  _age */\n      dup9\n        /* \"solidity_series.sol/BOOKINGSITE.sol\":7238:7381  user({... */\n      0xff\n      and\n      dup2\n      mstore\n      0x20\n      add\n        /* \"solidity_series.sol/BOOKINGSITE.sol\":7354:7369  _contactdetails */\n      dup8\n        /* \"solidity_series.sol/BOOKINGSITE.sol\":7238:7381  user({... */\n      dup2\n      mstore\n      pop\n        /* \"solidity_series.sol/BOOKINGSITE.sol\":7216:7381  user memory newuser = user({... */\n      swap1\n      pop\n        /* \"solidity_series.sol/BOOKINGSITE.sol\":7402:7441  cricketbooking memory newcricketbooking */\n      0x00\n        /* \"solidity_series.sol/BOOKINGSITE.sol\":7444:7619  cricketbooking({... */\n      mload(0x40)\n      dup1\n      0x80\n      add\n      0x40\n      mstore\n      dup1\n        /* \"solidity_series.sol/BOOKINGSITE.sol\":7488:7501  _matchdetails */\n      dup8\n        /* \"solidity_series.sol/BOOKINGSITE.sol\":7444:7619  cricketbooking({... */\n      dup2\n      mstore\n      0x20\n      add\n        /* \"solidity_series.sol/BOOKINGSITE.sol\":7525:7533  _stadium */\n      dup7\n        /* \"solidity_series.sol/BOOKINGSITE.sol\":7444:7619  cricketbooking({... */\n      dup2\n      mstore\n      0x20\n      add\n        /* \"solidity_series.sol/BOOKINGSITE.sol\":7559:7569  _matchdate */\n      dup6\n        /* \"solidity_series.sol/BOOKINGSITE.sol\":7444:7619  cricketbooking({... */\n      dup2\n      mstore\n      0x20\n      add\n        /* \"solidity_series.sol/BOOKINGSITE.sol\":7596:7607  _seatnumber */\n      dup5\n        /* \"solidity_series.sol/BOOKINGSITE.sol\":7444:7619  cricketbooking({... */\n      0xff\n      and\n      dup2\n      mstore\n      pop\n        /* \"solidity_series.sol/BOOKINGSITE.sol\":7402:7619  cricketbooking memory newcricketbooking = cricketbooking({... */\n      swap1\n      pop\n        /* \"solidity_series.sol/BOOKINGSITE.sol\":7640:7665  booking memory newbooking */\n      0x00\n        /* \"solidity_series.sol/BOOKINGSITE.sol\":7668:8090  booking({... */\n      mload(0x40)\n      dup1\n      0x0100\n      add\n      0x40\n      mstore\n      dup1\n        /* \"solidity_series.sol/BOOKINGSITE.sol\":7702:7716  bookingCounter */\n      sload(0x00)\n        /* \"solidity_series.sol/BOOKINGSITE.sol\":7668:8090  booking({... */\n      dup2\n      mstore\n      0x20\n      add\n        /* \"solidity_series.sol/BOOKINGSITE.sol\":7744:7763  bookingtype.cricket */\n      0x04\n        /* \"solidity_series.sol/BOOKINGSITE.sol\":7668:8090  booking({... */\n      dup1\n      dup2\n      gt\n      iszero\n      tag_207\n      jumpi\n      tag_208\n      tag_119\n      jump\t// in\n    tag_208:\n    tag_207:\n      dup2\n      mstore\n      0x20\n      add\n        /* \"solidity_series.sol/BOOKINGSITE.sol\":7784:7791  newuser */\n      dup5\n        /* \"solidity_series.sol/BOOKINGSITE.sol\":7668:8090  booking({... */\n      dup2\n      mstore\n      0x20\n      add\n        /* \"solidity_series.sol/BOOKINGSITE.sol\":7818:7846  busbooking(\"\", \"\", \"\", 0, 0) */\n      mload(0x40)\n      dup1\n      0xa0\n      add\n      0x40\n      mstore\n      dup1\n      mload(0x40)\n      dup1\n      0x20\n      add\n      0x40\n      mstore\n      dup1\n      0x00\n      dup2\n      mstore\n      pop\n      dup2\n      mstore\n      0x20\n      add\n      mload(0x40)\n      dup1\n      0x20\n      add\n      0x40\n      mstore\n      dup1\n      0x00\n      dup2\n      mstore\n      pop\n      dup2\n      mstore\n      0x20\n      add\n      mload(0x40)\n      dup1\n      0x20\n      add\n      0x40\n      mstore\n      dup1\n      0x00\n      dup2\n      mstore\n      pop\n      dup2\n      mstore\n      0x20\n      add\n        /* \"solidity_series.sol/BOOKINGSITE.sol\":7841:7842  0 */\n      0x00\n        /* \"solidity_series.sol/BOOKINGSITE.sol\":7818:7846  busbooking(\"\", \"\", \"\", 0, 0) */\n      dup2\n      mstore\n      0x20\n      add\n        /* \"solidity_series.sol/BOOKINGSITE.sol\":7844:7845  0 */\n      0x00\n        /* \"solidity_series.sol/BOOKINGSITE.sol\":7818:7846  busbooking(\"\", \"\", \"\", 0, 0) */\n      0xff\n      and\n      dup2\n      mstore\n      pop\n        /* \"solidity_series.sol/BOOKINGSITE.sol\":7668:8090  booking({... */\n      dup2\n      mstore\n      0x20\n      add\n        /* \"solidity_series.sol/BOOKINGSITE.sol\":7876:7903  cinemabooking(\"\", \"\", 0, 0) */\n      mload(0x40)\n      dup1\n      0x80\n      add\n      0x40\n      mstore\n      dup1\n      mload(0x40)\n      dup1\n      0x20\n      add\n      0x40\n      mstore\n      dup1\n      0x00\n      dup2\n      mstore\n      pop\n      dup2\n      mstore\n      0x20\n      add\n      mload(0x40)\n      dup1\n      0x20\n      add\n      0x40\n      mstore\n      dup1\n      0x00\n      dup2\n      mstore\n      pop\n      dup2\n      mstore\n      0x20\n      add\n        /* \"solidity_series.sol/BOOKINGSITE.sol\":7898:7899  0 */\n      0x00\n        /* \"solidity_series.sol/BOOKINGSITE.sol\":7876:7903  cinemabooking(\"\", \"\", 0, 0) */\n      dup2\n      mstore\n      0x20\n      add\n        /* \"solidity_series.sol/BOOKINGSITE.sol\":7901:7902  0 */\n      0x00\n        /* \"solidity_series.sol/BOOKINGSITE.sol\":7876:7903  cinemabooking(\"\", \"\", 0, 0) */\n      0xff\n      and\n      dup2\n      mstore\n      pop\n        /* \"solidity_series.sol/BOOKINGSITE.sol\":7668:8090  booking({... */\n      dup2\n      mstore\n      0x20\n      add\n        /* \"solidity_series.sol/BOOKINGSITE.sol\":7934:7967  airlinebooking(\"\", \"\", \"\", 0, \"\") */\n      mload(0x40)\n      dup1\n      0xa0\n      add\n      0x40\n      mstore\n      dup1\n      mload(0x40)\n      dup1\n      0x20\n      add\n      0x40\n      mstore\n      dup1\n      0x00\n      dup2\n      mstore\n      pop\n      dup2\n      mstore\n      0x20\n      add\n      mload(0x40)\n      dup1\n      0x20\n      add\n      0x40\n      mstore\n      dup1\n      0x00\n      dup2\n      mstore\n      pop\n      dup2\n      mstore\n      0x20\n      add\n      mload(0x40)\n      dup1\n      0x20\n      add\n      0x40\n      mstore\n      dup1\n      0x00\n      dup2\n      mstore\n      pop\n      dup2\n      mstore\n      0x20\n      add\n        /* \"solidity_series.sol/BOOKINGSITE.sol\":7961:7962  0 */\n      0x00\n        /* \"solidity_series.sol/BOOKINGSITE.sol\":7934:7967  airlinebooking(\"\", \"\", \"\", 0, \"\") */\n      dup2\n      mstore\n      0x20\n      add\n      mload(0x40)\n      dup1\n      0x20\n      add\n      0x40\n      mstore\n      dup1\n      0x00\n      dup2\n      mstore\n      pop\n      dup2\n      mstore\n      pop\n        /* \"solidity_series.sol/BOOKINGSITE.sol\":7668:8090  booking({... */\n      dup2\n      mstore\n      0x20\n      add\n        /* \"solidity_series.sol/BOOKINGSITE.sol\":7998:8030  railwaybooking(\"\", \"\", \"\", 0, 0) */\n      mload(0x40)\n      dup1\n      0xa0\n      add\n      0x40\n      mstore\n      dup1\n      mload(0x40)\n      dup1\n      0x20\n      add\n      0x40\n      mstore\n      dup1\n      0x00\n      dup2\n      mstore\n      pop\n      dup2\n      mstore\n      0x20\n      add\n      mload(0x40)\n      dup1\n      0x20\n      add\n      0x40\n      mstore\n      dup1\n      0x00\n      dup2\n      mstore\n      pop\n      dup2\n      mstore\n      0x20\n      add\n      mload(0x40)\n      dup1\n      0x20\n      add\n      0x40\n      mstore\n      dup1\n      0x00\n      dup2\n      mstore\n      pop\n      dup2\n      mstore\n      0x20\n      add\n        /* \"solidity_series.sol/BOOKINGSITE.sol\":8025:8026  0 */\n      0x00\n        /* \"solidity_series.sol/BOOKINGSITE.sol\":7998:8030  railwaybooking(\"\", \"\", \"\", 0, 0) */\n      dup2\n      mstore\n      0x20\n      add\n        /* \"solidity_series.sol/BOOKINGSITE.sol\":8028:8029  0 */\n      0x00\n        /* \"solidity_series.sol/BOOKINGSITE.sol\":7998:8030  railwaybooking(\"\", \"\", \"\", 0, 0) */\n      0xff\n      and\n      dup2\n      mstore\n      pop\n        /* \"solidity_series.sol/BOOKINGSITE.sol\":7668:8090  booking({... */\n      dup2\n      mstore\n      0x20\n      add\n        /* \"solidity_series.sol/BOOKINGSITE.sol\":8061:8078  newcricketbooking */\n      dup4\n        /* \"solidity_series.sol/BOOKINGSITE.sol\":7668:8090  booking({... */\n      dup2\n      mstore\n      pop\n        /* \"solidity_series.sol/BOOKINGSITE.sol\":7640:8090  booking memory newbooking = booking({... */\n      swap1\n      pop\n        /* \"solidity_series.sol/BOOKINGSITE.sol\":8138:8148  newbooking */\n      dup1\n        /* \"solidity_series.sol/BOOKINGSITE.sol\":8111:8119  bookings */\n      0x01\n        /* \"solidity_series.sol/BOOKINGSITE.sol\":8111:8135  bookings[bookingCounter] */\n      0x00\n        /* \"solidity_series.sol/BOOKINGSITE.sol\":8120:8134  bookingCounter */\n      sload(0x00)\n        /* \"solidity_series.sol/BOOKINGSITE.sol\":8111:8135  bookings[bookingCounter] */\n      dup2\n      mstore\n      0x20\n      add\n      swap1\n      dup2\n      mstore\n      0x20\n      add\n      0x00\n      keccak256\n        /* \"solidity_series.sol/BOOKINGSITE.sol\":8111:8148  bookings[bookingCounter] = newbooking */\n      0x00\n      dup3\n      add\n      mload\n      dup2\n      0x00\n      add\n      sstore\n      0x20\n      dup3\n      add\n      mload\n      dup2\n      0x01\n      add\n      exp(0x0100, 0x00)\n      dup2\n      sload\n      dup2\n      0xff\n      mul\n      not\n      and\n      swap1\n      dup4\n      0x04\n      dup2\n      gt\n      iszero\n      tag_209\n      jumpi\n      tag_210\n      tag_119\n      jump\t// in\n    tag_210:\n    tag_209:\n      mul\n      or\n      swap1\n      sstore\n      pop\n      0x40\n      dup3\n      add\n      mload\n      dup2\n      0x02\n      add\n      0x00\n      dup3\n      add\n      mload\n      dup2\n      0x00\n      add\n      sstore\n      0x20\n      dup3\n      add\n      mload\n      dup2\n      0x01\n      add\n      swap1\n      dup2\n      tag_211\n      swap2\n      swap1\n      tag_123\n      jump\t// in\n    tag_211:\n      pop\n      0x40\n      dup3\n      add\n      mload\n      dup2\n      0x02\n      add\n      exp(0x0100, 0x00)\n      dup2\n      sload\n      dup2\n      0xff\n      mul\n      not\n      and\n      swap1\n      dup4\n      0xff\n      and\n      mul\n      or\n      swap1\n      sstore\n      pop\n      0x60\n      dup3\n      add\n      mload\n      dup2\n      0x03\n      add\n      swap1\n      dup2\n      tag_212\n      swap2\n      swap1\n      tag_123\n      jump\t// in\n    tag_212:\n      pop\n      pop\n      pop\n      0x60\n      dup3\n      add\n      mload\n      dup2\n      0x06\n      add\n      0x00\n      dup3\n      add\n      mload\n      dup2\n      0x00\n      add\n      swap1\n      dup2\n      tag_213\n      swap2\n      swap1\n      tag_123\n      jump\t// in\n    tag_213:\n      pop\n      0x20\n      dup3\n      add\n      mload\n      dup2\n      0x01\n      add\n      swap1\n      dup2\n      tag_214\n      swap2\n      swap1\n      tag_123\n      jump\t// in\n    tag_214:\n      pop\n      0x40\n      dup3\n      add\n      mload\n      dup2\n      0x02\n      add\n      swap1\n      dup2\n      tag_215\n      swap2\n      swap1\n      tag_123\n      jump\t// in\n    tag_215:\n      pop\n      0x60\n      dup3\n      add\n      mload\n      dup2\n      0x03\n      add\n      sstore\n      0x80\n      dup3\n      add\n      mload\n      dup2\n      0x04\n      add\n      exp(0x0100, 0x00)\n      dup2\n      sload\n      dup2\n      0xff\n      mul\n      not\n      and\n      swap1\n      dup4\n      0xff\n      and\n      mul\n      or\n      swap1\n      sstore\n      pop\n      pop\n      pop\n      0x80\n      dup3\n      add\n      mload\n      dup2\n      0x0b\n      add\n      0x00\n      dup3\n      add\n      mload\n      dup2\n      0x00\n      add\n      swap1\n      dup2\n      tag_216\n      swap2\n      swap1\n      tag_123\n      jump\t// in\n    tag_216:\n      pop\n      0x20\n      dup3\n      add\n      mload\n      dup2\n      0x01\n      add\n      swap1\n      dup2\n      tag_217\n      swap2\n      swap1\n      tag_123\n      jump\t// in\n    tag_217:\n      pop\n      0x40\n      dup3\n      add\n      mload\n      dup2\n      0x02\n      add\n      sstore\n      0x60\n      dup3\n      add\n      mload\n      dup2\n      0x03\n      add\n      exp(0x0100, 0x00)\n      dup2\n      sload\n      dup2\n      0xff\n      mul\n      not\n      and\n      swap1\n      dup4\n      0xff\n      and\n      mul\n      or\n      swap1\n      sstore\n      pop\n      pop\n      pop\n      0xa0\n      dup3\n      add\n      mload\n      dup2\n      0x0f\n      add\n      0x00\n      dup3\n      add\n      mload\n      dup2\n      0x00\n      add\n      swap1\n      dup2\n      tag_218\n      swap2\n      swap1\n      tag_123\n      jump\t// in\n    tag_218:\n      pop\n      0x20\n      dup3\n      add\n      mload\n      dup2\n      0x01\n      add\n      swap1\n      dup2\n      tag_219\n      swap2\n      swap1\n      tag_123\n      jump\t// in\n    tag_219:\n      pop\n      0x40\n      dup3\n      add\n      mload\n      dup2\n      0x02\n      add\n      swap1\n      dup2\n      tag_220\n      swap2\n      swap1\n      tag_123\n      jump\t// in\n    tag_220:\n      pop\n      0x60\n      dup3\n      add\n      mload\n      dup2\n      0x03\n      add\n      sstore\n      0x80\n      dup3\n      add\n      mload\n      dup2\n      0x04\n      add\n      swap1\n      dup2\n      tag_221\n      swap2\n      swap1\n      tag_123\n      jump\t// in\n    tag_221:\n      pop\n      pop\n      pop\n      0xc0\n      dup3\n      add\n      mload\n      dup2\n      0x14\n      add\n      0x00\n      dup3\n      add\n      mload\n      dup2\n      0x00\n      add\n      swap1\n      dup2\n      tag_222\n      swap2\n      swap1\n      tag_123\n      jump\t// in\n    tag_222:\n      pop\n      0x20\n      dup3\n      add\n      mload\n      dup2\n      0x01\n      add\n      swap1\n      dup2\n      tag_223\n      swap2\n      swap1\n      tag_123\n      jump\t// in\n    tag_223:\n      pop\n      0x40\n      dup3\n      add\n      mload\n      dup2\n      0x02\n      add\n      swap1\n      dup2\n      tag_224\n      swap2\n      swap1\n      tag_123\n      jump\t// in\n    tag_224:\n      pop\n      0x60\n      dup3\n      add\n      mload\n      dup2\n      0x03\n      add\n      sstore\n      0x80\n      dup3\n      add\n      mload\n      dup2\n      0x04\n      add\n      exp(0x0100, 0x00)\n      dup2\n      sload\n      dup2\n      0xff\n      mul\n      not\n      and\n      swap1\n      dup4\n      0xff\n      and\n      mul\n      or\n      swap1\n      sstore\n      pop\n      pop\n      pop\n      0xe0\n      dup3\n      add\n      mload\n      dup2\n      0x19\n      add\n      0x00\n      dup3\n      add\n      mload\n      dup2\n      0x00\n      add\n      swap1\n      dup2\n      tag_225\n      swap2\n      swap1\n      tag_123\n      jump\t// in\n    tag_225:\n      pop\n      0x20\n      dup3\n      add\n      mload\n      dup2\n      0x01\n      add\n      swap1\n      dup2\n      tag_226\n      swap2\n      swap1\n      tag_123\n      jump\t// in\n    tag_226:\n      pop\n      0x40\n      dup3\n      add\n      mload\n      dup2\n      0x02\n      add\n      sstore\n      0x60\n      dup3\n      add\n      mload\n      dup2\n      0x03\n      add\n      exp(0x0100, 0x00)\n      dup2\n      sload\n      dup2\n      0xff\n      mul\n      not\n      and\n      swap1\n      dup4\n      0xff\n      and\n      mul\n      or\n      swap1\n      sstore\n      pop\n      pop\n      pop\n      swap1\n      pop\n      pop\n        /* \"solidity_series.sol/BOOKINGSITE.sol\":7178:8156  {... */\n      pop\n      pop\n      pop\n        /* \"solidity_series.sol/BOOKINGSITE.sol\":6892:8156  function bookcricketticket(... */\n      pop\n      pop\n      pop\n      pop\n      pop\n      pop\n      pop\n      pop\n      jump\t// out\n        /* \"#utility.yul\":7:82   */\n    tag_227:\n        /* \"#utility.yul\":40:46   */\n      0x00\n        /* \"#utility.yul\":73:75   */\n      0x40\n        /* \"#utility.yul\":67:76   */\n      mload\n        /* \"#utility.yul\":57:76   */\n      swap1\n      pop\n        /* \"#utility.yul\":7:82   */\n      swap1\n      jump\t// out\n        /* \"#utility.yul\":88:205   */\n    tag_228:\n        /* \"#utility.yul\":197:198   */\n      0x00\n        /* \"#utility.yul\":194:195   */\n      0x00\n        /* \"#utility.yul\":187:199   */\n      revert\n        /* \"#utility.yul\":211:328   */\n    tag_229:\n        /* \"#utility.yul\":320:321   */\n      0x00\n        /* \"#utility.yul\":317:318   */\n      0x00\n        /* \"#utility.yul\":310:322   */\n      revert\n        /* \"#utility.yul\":334:411   */\n    tag_230:\n        /* \"#utility.yul\":371:378   */\n      0x00\n        /* \"#utility.yul\":400:405   */\n      dup2\n        /* \"#utility.yul\":389:405   */\n      swap1\n      pop\n        /* \"#utility.yul\":334:411   */\n      swap2\n      swap1\n      pop\n      jump\t// out\n        /* \"#utility.yul\":417:539   */\n    tag_231:\n        /* \"#utility.yul\":490:514   */\n      tag_286\n        /* \"#utility.yul\":508:513   */\n      dup2\n        /* \"#utility.yul\":490:514   */\n      tag_230\n      jump\t// in\n    tag_286:\n        /* \"#utility.yul\":483:488   */\n      dup2\n        /* \"#utility.yul\":480:515   */\n      eq\n        /* \"#utility.yul\":470:533   */\n      tag_287\n      jumpi\n        /* \"#utility.yul\":529:530   */\n      0x00\n        /* \"#utility.yul\":526:527   */\n      0x00\n        /* \"#utility.yul\":519:531   */\n      revert\n        /* \"#utility.yul\":470:533   */\n    tag_287:\n        /* \"#utility.yul\":417:539   */\n      pop\n      jump\t// out\n        /* \"#utility.yul\":545:684   */\n    tag_232:\n        /* \"#utility.yul\":591:596   */\n      0x00\n        /* \"#utility.yul\":629:635   */\n      dup2\n        /* \"#utility.yul\":616:636   */\n      calldataload\n        /* \"#utility.yul\":607:636   */\n      swap1\n      pop\n        /* \"#utility.yul\":645:678   */\n      tag_289\n        /* \"#utility.yul\":672:677   */\n      dup2\n        /* \"#utility.yul\":645:678   */\n      tag_231\n      jump\t// in\n    tag_289:\n        /* \"#utility.yul\":545:684   */\n      swap3\n      swap2\n      pop\n      pop\n      jump\t// out\n        /* \"#utility.yul\":690:1019   */\n    tag_11:\n        /* \"#utility.yul\":749:755   */\n      0x00\n        /* \"#utility.yul\":798:800   */\n      0x20\n        /* \"#utility.yul\":786:795   */\n      dup3\n        /* \"#utility.yul\":777:784   */\n      dup5\n        /* \"#utility.yul\":773:796   */\n      sub\n        /* \"#utility.yul\":769:801   */\n      slt\n        /* \"#utility.yul\":766:885   */\n      iszero\n      tag_291\n      jumpi\n        /* \"#utility.yul\":804:883   */\n      tag_292\n      tag_228\n      jump\t// in\n    tag_292:\n        /* \"#utility.yul\":766:885   */\n    tag_291:\n        /* \"#utility.yul\":924:925   */\n      0x00\n        /* \"#utility.yul\":949:1002   */\n      tag_293\n        /* \"#utility.yul\":994:1001   */\n      dup5\n        /* \"#utility.yul\":985:991   */\n      dup3\n        /* \"#utility.yul\":974:983   */\n      dup6\n        /* \"#utility.yul\":970:992   */\n      add\n        /* \"#utility.yul\":949:1002   */\n      tag_232\n      jump\t// in\n    tag_293:\n        /* \"#utility.yul\":939:1002   */\n      swap2\n      pop\n        /* \"#utility.yul\":895:1012   */\n      pop\n        /* \"#utility.yul\":690:1019   */\n      swap3\n      swap2\n      pop\n      pop\n      jump\t// out\n        /* \"#utility.yul\":1025:1143   */\n    tag_233:\n        /* \"#utility.yul\":1112:1136   */\n      tag_295\n        /* \"#utility.yul\":1130:1135   */\n      dup2\n        /* \"#utility.yul\":1112:1136   */\n      tag_230\n      jump\t// in\n    tag_295:\n        /* \"#utility.yul\":1107:1110   */\n      dup3\n        /* \"#utility.yul\":1100:1137   */\n      mstore\n        /* \"#utility.yul\":1025:1143   */\n      pop\n      pop\n      jump\t// out\n        /* \"#utility.yul\":1149:1329   */\n    tag_119:\n        /* \"#utility.yul\":1197:1274   */\n      0x4e487b7100000000000000000000000000000000000000000000000000000000\n        /* \"#utility.yul\":1194:1195   */\n      0x00\n        /* \"#utility.yul\":1187:1275   */\n      mstore\n        /* \"#utility.yul\":1294:1298   */\n      0x21\n        /* \"#utility.yul\":1291:1292   */\n      0x04\n        /* \"#utility.yul\":1284:1299   */\n      mstore\n        /* \"#utility.yul\":1318:1322   */\n      0x24\n        /* \"#utility.yul\":1315:1316   */\n      0x00\n        /* \"#utility.yul\":1308:1323   */\n      revert\n        /* \"#utility.yul\":1335:1453   */\n    tag_234:\n        /* \"#utility.yul\":1421:1422   */\n      0x05\n        /* \"#utility.yul\":1414:1419   */\n      dup2\n        /* \"#utility.yul\":1411:1423   */\n      lt\n        /* \"#utility.yul\":1401:1447   */\n      tag_298\n      jumpi\n        /* \"#utility.yul\":1427:1445   */\n      tag_299\n      tag_119\n      jump\t// in\n    tag_299:\n        /* \"#utility.yul\":1401:1447   */\n    tag_298:\n        /* \"#utility.yul\":1335:1453   */\n      pop\n      jump\t// out\n        /* \"#utility.yul\":1459:1596   */\n    tag_235:\n        /* \"#utility.yul\":1509:1516   */\n      0x00\n        /* \"#utility.yul\":1538:1543   */\n      dup2\n        /* \"#utility.yul\":1527:1543   */\n      swap1\n      pop\n        /* \"#utility.yul\":1544:1590   */\n      tag_301\n        /* \"#utility.yul\":1584:1589   */\n      dup3\n        /* \"#utility.yul\":1544:1590   */\n      tag_234\n      jump\t// in\n    tag_301:\n        /* \"#utility.yul\":1459:1596   */\n      swap2\n      swap1\n      pop\n      jump\t// out\n        /* \"#utility.yul\":1602:1739   */\n    tag_236:\n        /* \"#utility.yul\":1663:1672   */\n      0x00\n        /* \"#utility.yul\":1696:1733   */\n      tag_303\n        /* \"#utility.yul\":1727:1732   */\n      dup3\n        /* \"#utility.yul\":1696:1733   */\n      tag_235\n      jump\t// in\n    tag_303:\n        /* \"#utility.yul\":1683:1733   */\n      swap1\n      pop\n        /* \"#utility.yul\":1602:1739   */\n      swap2\n      swap1\n      pop\n      jump\t// out\n        /* \"#utility.yul\":1745:1898   */\n    tag_237:\n        /* \"#utility.yul\":1843:1891   */\n      tag_305\n        /* \"#utility.yul\":1885:1890   */\n      dup2\n        /* \"#utility.yul\":1843:1891   */\n      tag_236\n      jump\t// in\n    tag_305:\n        /* \"#utility.yul\":1838:1841   */\n      dup3\n        /* \"#utility.yul\":1831:1892   */\n      mstore\n        /* \"#utility.yul\":1745:1898   */\n      pop\n      pop\n      jump\t// out\n        /* \"#utility.yul\":1904:2012   */\n    tag_238:\n        /* \"#utility.yul\":1981:2005   */\n      tag_307\n        /* \"#utility.yul\":1999:2004   */\n      dup2\n        /* \"#utility.yul\":1981:2005   */\n      tag_230\n      jump\t// in\n    tag_307:\n        /* \"#utility.yul\":1976:1979   */\n      dup3\n        /* \"#utility.yul\":1969:2006   */\n      mstore\n        /* \"#utility.yul\":1904:2012   */\n      pop\n      pop\n      jump\t// out\n        /* \"#utility.yul\":2018:2117   */\n    tag_239:\n        /* \"#utility.yul\":2070:2076   */\n      0x00\n        /* \"#utility.yul\":2104:2109   */\n      dup2\n        /* \"#utility.yul\":2098:2110   */\n      mload\n        /* \"#utility.yul\":2088:2110   */\n      swap1\n      pop\n        /* \"#utility.yul\":2018:2117   */\n      swap2\n      swap1\n      pop\n      jump\t// out\n        /* \"#utility.yul\":2123:2282   */\n    tag_240:\n        /* \"#utility.yul\":2197:2208   */\n      0x00\n        /* \"#utility.yul\":2231:2237   */\n      dup3\n        /* \"#utility.yul\":2226:2229   */\n      dup3\n        /* \"#utility.yul\":2219:2238   */\n      mstore\n        /* \"#utility.yul\":2271:2275   */\n      0x20\n        /* \"#utility.yul\":2266:2269   */\n      dup3\n        /* \"#utility.yul\":2262:2276   */\n      add\n        /* \"#utility.yul\":2247:2276   */\n      swap1\n      pop\n        /* \"#utility.yul\":2123:2282   */\n      swap3\n      swap2\n      pop\n      pop\n      jump\t// out\n        /* \"#utility.yul\":2288:2427   */\n    tag_241:\n        /* \"#utility.yul\":2377:2383   */\n      dup3\n        /* \"#utility.yul\":2372:2375   */\n      dup2\n        /* \"#utility.yul\":2367:2370   */\n      dup4\n        /* \"#utility.yul\":2361:2384   */\n      mcopy\n        /* \"#utility.yul\":2418:2419   */\n      0x00\n        /* \"#utility.yul\":2409:2415   */\n      dup4\n        /* \"#utility.yul\":2404:2407   */\n      dup4\n        /* \"#utility.yul\":2400:2416   */\n      add\n        /* \"#utility.yul\":2393:2420   */\n      mstore\n        /* \"#utility.yul\":2288:2427   */\n      pop\n      pop\n      pop\n      jump\t// out\n        /* \"#utility.yul\":2433:2535   */\n    tag_242:\n        /* \"#utility.yul\":2474:2480   */\n      0x00\n        /* \"#utility.yul\":2525:2527   */\n      0x1f\n        /* \"#utility.yul\":2521:2528   */\n      not\n        /* \"#utility.yul\":2516:2518   */\n      0x1f\n        /* \"#utility.yul\":2509:2514   */\n      dup4\n        /* \"#utility.yul\":2505:2519   */\n      add\n        /* \"#utility.yul\":2501:2529   */\n      and\n        /* \"#utility.yul\":2491:2529   */\n      swap1\n      pop\n        /* \"#utility.yul\":2433:2535   */\n      swap2\n      swap1\n      pop\n      jump\t// out\n        /* \"#utility.yul\":2541:2898   */\n    tag_243:\n        /* \"#utility.yul\":2619:2622   */\n      0x00\n        /* \"#utility.yul\":2647:2686   */\n      tag_313\n        /* \"#utility.yul\":2680:2685   */\n      dup3\n        /* \"#utility.yul\":2647:2686   */\n      tag_239\n      jump\t// in\n    tag_313:\n        /* \"#utility.yul\":2702:2763   */\n      tag_314\n        /* \"#utility.yul\":2756:2762   */\n      dup2\n        /* \"#utility.yul\":2751:2754   */\n      dup6\n        /* \"#utility.yul\":2702:2763   */\n      tag_240\n      jump\t// in\n    tag_314:\n        /* \"#utility.yul\":2695:2763   */\n      swap4\n      pop\n        /* \"#utility.yul\":2772:2837   */\n      tag_315\n        /* \"#utility.yul\":2830:2836   */\n      dup2\n        /* \"#utility.yul\":2825:2828   */\n      dup6\n        /* \"#utility.yul\":2818:2822   */\n      0x20\n        /* \"#utility.yul\":2811:2816   */\n      dup7\n        /* \"#utility.yul\":2807:2823   */\n      add\n        /* \"#utility.yul\":2772:2837   */\n      tag_241\n      jump\t// in\n    tag_315:\n        /* \"#utility.yul\":2862:2891   */\n      tag_316\n        /* \"#utility.yul\":2884:2890   */\n      dup2\n        /* \"#utility.yul\":2862:2891   */\n      tag_242\n      jump\t// in\n    tag_316:\n        /* \"#utility.yul\":2857:2860   */\n      dup5\n        /* \"#utility.yul\":2853:2892   */\n      add\n        /* \"#utility.yul\":2846:2892   */\n      swap2\n      pop\n        /* \"#utility.yul\":2623:2898   */\n      pop\n        /* \"#utility.yul\":2541:2898   */\n      swap3\n      swap2\n      pop\n      pop\n      jump\t// out\n        /* \"#utility.yul\":2904:2990   */\n    tag_244:\n        /* \"#utility.yul\":2939:2946   */\n      0x00\n        /* \"#utility.yul\":2979:2983   */\n      0xff\n        /* \"#utility.yul\":2972:2977   */\n      dup3\n        /* \"#utility.yul\":2968:2984   */\n      and\n        /* \"#utility.yul\":2957:2984   */\n      swap1\n      pop\n        /* \"#utility.yul\":2904:2990   */\n      swap2\n      swap1\n      pop\n      jump\t// out\n        /* \"#utility.yul\":2996:3098   */\n    tag_245:\n        /* \"#utility.yul\":3069:3091   */\n      tag_319\n        /* \"#utility.yul\":3085:3090   */\n      dup2\n        /* \"#utility.yul\":3069:3091   */\n      tag_244\n      jump\t// in\n    tag_319:\n        /* \"#utility.yul\":3064:3067   */\n      dup3\n        /* \"#utility.yul\":3057:3092   */\n      mstore\n        /* \"#utility.yul\":2996:3098   */\n      pop\n      pop\n      jump\t// out\n        /* \"#utility.yul\":3162:4184   */\n    tag_246:\n        /* \"#utility.yul\":3271:3274   */\n      0x00\n        /* \"#utility.yul\":3307:3311   */\n      0x80\n        /* \"#utility.yul\":3302:3305   */\n      dup4\n        /* \"#utility.yul\":3298:3312   */\n      add\n        /* \"#utility.yul\":3396:3400   */\n      0x00\n        /* \"#utility.yul\":3389:3394   */\n      dup4\n        /* \"#utility.yul\":3385:3401   */\n      add\n        /* \"#utility.yul\":3379:3402   */\n      mload\n        /* \"#utility.yul\":3415:3478   */\n      tag_321\n        /* \"#utility.yul\":3472:3476   */\n      0x00\n        /* \"#utility.yul\":3467:3470   */\n      dup7\n        /* \"#utility.yul\":3463:3477   */\n      add\n        /* \"#utility.yul\":3449:3461   */\n      dup3\n        /* \"#utility.yul\":3415:3478   */\n      tag_238\n      jump\t// in\n    tag_321:\n        /* \"#utility.yul\":3322:3488   */\n      pop\n        /* \"#utility.yul\":3570:3574   */\n      0x20\n        /* \"#utility.yul\":3563:3568   */\n      dup4\n        /* \"#utility.yul\":3559:3575   */\n      add\n        /* \"#utility.yul\":3553:3576   */\n      mload\n        /* \"#utility.yul\":3623:3626   */\n      dup5\n        /* \"#utility.yul\":3617:3621   */\n      dup3\n        /* \"#utility.yul\":3613:3627   */\n      sub\n        /* \"#utility.yul\":3606:3610   */\n      0x20\n        /* \"#utility.yul\":3601:3604   */\n      dup7\n        /* \"#utility.yul\":3597:3611   */\n      add\n        /* \"#utility.yul\":3590:3628   */\n      mstore\n        /* \"#utility.yul\":3649:3722   */\n      tag_322\n        /* \"#utility.yul\":3717:3721   */\n      dup3\n        /* \"#utility.yul\":3703:3715   */\n      dup3\n        /* \"#utility.yul\":3649:3722   */\n      tag_243\n      jump\t// in\n    tag_322:\n        /* \"#utility.yul\":3641:3722   */\n      swap2\n      pop\n        /* \"#utility.yul\":3498:3733   */\n      pop\n        /* \"#utility.yul\":3814:3818   */\n      0x40\n        /* \"#utility.yul\":3807:3812   */\n      dup4\n        /* \"#utility.yul\":3803:3819   */\n      add\n        /* \"#utility.yul\":3797:3820   */\n      mload\n        /* \"#utility.yul\":3833:3892   */\n      tag_323\n        /* \"#utility.yul\":3886:3890   */\n      0x40\n        /* \"#utility.yul\":3881:3884   */\n      dup7\n        /* \"#utility.yul\":3877:3891   */\n      add\n        /* \"#utility.yul\":3863:3875   */\n      dup3\n        /* \"#utility.yul\":3833:3892   */\n      tag_245\n      jump\t// in\n    tag_323:\n        /* \"#utility.yul\":3743:3902   */\n      pop\n        /* \"#utility.yul\":3994:3998   */\n      0x60\n        /* \"#utility.yul\":3987:3992   */\n      dup4\n        /* \"#utility.yul\":3983:3999   */\n      add\n        /* \"#utility.yul\":3977:4000   */\n      mload\n        /* \"#utility.yul\":4047:4050   */\n      dup5\n        /* \"#utility.yul\":4041:4045   */\n      dup3\n        /* \"#utility.yul\":4037:4051   */\n      sub\n        /* \"#utility.yul\":4030:4034   */\n      0x60\n        /* \"#utility.yul\":4025:4028   */\n      dup7\n        /* \"#utility.yul\":4021:4035   */\n      add\n        /* \"#utility.yul\":4014:4052   */\n      mstore\n        /* \"#utility.yul\":4073:4146   */\n      tag_324\n        /* \"#utility.yul\":4141:4145   */\n      dup3\n        /* \"#utility.yul\":4127:4139   */\n      dup3\n        /* \"#utility.yul\":4073:4146   */\n      tag_243\n      jump\t// in\n    tag_324:\n        /* \"#utility.yul\":4065:4146   */\n      swap2\n      pop\n        /* \"#utility.yul\":3912:4157   */\n      pop\n        /* \"#utility.yul\":4174:4178   */\n      dup1\n        /* \"#utility.yul\":4167:4178   */\n      swap2\n      pop\n        /* \"#utility.yul\":3276:4184   */\n      pop\n        /* \"#utility.yul\":3162:4184   */\n      swap3\n      swap2\n      pop\n      pop\n      jump\t// out\n        /* \"#utility.yul\":4260:5563   */\n    tag_247:\n        /* \"#utility.yul\":4381:4384   */\n      0x00\n        /* \"#utility.yul\":4417:4421   */\n      0xa0\n        /* \"#utility.yul\":4412:4415   */\n      dup4\n        /* \"#utility.yul\":4408:4422   */\n      add\n        /* \"#utility.yul\":4509:4513   */\n      0x00\n        /* \"#utility.yul\":4502:4507   */\n      dup4\n        /* \"#utility.yul\":4498:4514   */\n      add\n        /* \"#utility.yul\":4492:4515   */\n      mload\n        /* \"#utility.yul\":4562:4565   */\n      dup5\n        /* \"#utility.yul\":4556:4560   */\n      dup3\n        /* \"#utility.yul\":4552:4566   */\n      sub\n        /* \"#utility.yul\":4545:4549   */\n      0x00\n        /* \"#utility.yul\":4540:4543   */\n      dup7\n        /* \"#utility.yul\":4536:4550   */\n      add\n        /* \"#utility.yul\":4529:4567   */\n      mstore\n        /* \"#utility.yul\":4588:4661   */\n      tag_326\n        /* \"#utility.yul\":4656:4660   */\n      dup3\n        /* \"#utility.yul\":4642:4654   */\n      dup3\n        /* \"#utility.yul\":4588:4661   */\n      tag_243\n      jump\t// in\n    tag_326:\n        /* \"#utility.yul\":4580:4661   */\n      swap2\n      pop\n        /* \"#utility.yul\":4432:4672   */\n      pop\n        /* \"#utility.yul\":4759:4763   */\n      0x20\n        /* \"#utility.yul\":4752:4757   */\n      dup4\n        /* \"#utility.yul\":4748:4764   */\n      add\n        /* \"#utility.yul\":4742:4765   */\n      mload\n        /* \"#utility.yul\":4812:4815   */\n      dup5\n        /* \"#utility.yul\":4806:4810   */\n      dup3\n        /* \"#utility.yul\":4802:4816   */\n      sub\n        /* \"#utility.yul\":4795:4799   */\n      0x20\n        /* \"#utility.yul\":4790:4793   */\n      dup7\n        /* \"#utility.yul\":4786:4800   */\n      add\n        /* \"#utility.yul\":4779:4817   */\n      mstore\n        /* \"#utility.yul\":4838:4911   */\n      tag_327\n        /* \"#utility.yul\":4906:4910   */\n      dup3\n        /* \"#utility.yul\":4892:4904   */\n      dup3\n        /* \"#utility.yul\":4838:4911   */\n      tag_243\n      jump\t// in\n    tag_327:\n        /* \"#utility.yul\":4830:4911   */\n      swap2\n      pop\n        /* \"#utility.yul\":4682:4922   */\n      pop\n        /* \"#utility.yul\":5014:5018   */\n      0x40\n        /* \"#utility.yul\":5007:5012   */\n      dup4\n        /* \"#utility.yul\":5003:5019   */\n      add\n        /* \"#utility.yul\":4997:5020   */\n      mload\n        /* \"#utility.yul\":5067:5070   */\n      dup5\n        /* \"#utility.yul\":5061:5065   */\n      dup3\n        /* \"#utility.yul\":5057:5071   */\n      sub\n        /* \"#utility.yul\":5050:5054   */\n      0x40\n        /* \"#utility.yul\":5045:5048   */\n      dup7\n        /* \"#utility.yul\":5041:5055   */\n      add\n        /* \"#utility.yul\":5034:5072   */\n      mstore\n        /* \"#utility.yul\":5093:5166   */\n      tag_328\n        /* \"#utility.yul\":5161:5165   */\n      dup3\n        /* \"#utility.yul\":5147:5159   */\n      dup3\n        /* \"#utility.yul\":5093:5166   */\n      tag_243\n      jump\t// in\n    tag_328:\n        /* \"#utility.yul\":5085:5166   */\n      swap2\n      pop\n        /* \"#utility.yul\":4932:5177   */\n      pop\n        /* \"#utility.yul\":5268:5272   */\n      0x60\n        /* \"#utility.yul\":5261:5266   */\n      dup4\n        /* \"#utility.yul\":5257:5273   */\n      add\n        /* \"#utility.yul\":5251:5274   */\n      mload\n        /* \"#utility.yul\":5287:5350   */\n      tag_329\n        /* \"#utility.yul\":5344:5348   */\n      0x60\n        /* \"#utility.yul\":5339:5342   */\n      dup7\n        /* \"#utility.yul\":5335:5349   */\n      add\n        /* \"#utility.yul\":5321:5333   */\n      dup3\n        /* \"#utility.yul\":5287:5350   */\n      tag_238\n      jump\t// in\n    tag_329:\n        /* \"#utility.yul\":5187:5360   */\n      pop\n        /* \"#utility.yul\":5448:5452   */\n      0x80\n        /* \"#utility.yul\":5441:5446   */\n      dup4\n        /* \"#utility.yul\":5437:5453   */\n      add\n        /* \"#utility.yul\":5431:5454   */\n      mload\n        /* \"#utility.yul\":5467:5526   */\n      tag_330\n        /* \"#utility.yul\":5520:5524   */\n      0x80\n        /* \"#utility.yul\":5515:5518   */\n      dup7\n        /* \"#utility.yul\":5511:5525   */\n      add\n        /* \"#utility.yul\":5497:5509   */\n      dup3\n        /* \"#utility.yul\":5467:5526   */\n      tag_245\n      jump\t// in\n    tag_330:\n        /* \"#utility.yul\":5370:5536   */\n      pop\n        /* \"#utility.yul\":5553:5557   */\n      dup1\n        /* \"#utility.yul\":5546:5557   */\n      swap2\n      pop\n        /* \"#utility.yul\":4386:5563   */\n      pop\n        /* \"#utility.yul\":4260:5563   */\n      swap3\n      swap2\n      pop\n      pop\n      jump\t// out\n        /* \"#utility.yul\":5645:6695   */\n    tag_248:\n        /* \"#utility.yul\":5772:5775   */\n      0x00\n        /* \"#utility.yul\":5808:5812   */\n      0x80\n        /* \"#utility.yul\":5803:5806   */\n      dup4\n        /* \"#utility.yul\":5799:5813   */\n      add\n        /* \"#utility.yul\":5900:5904   */\n      0x00\n        /* \"#utility.yul\":5893:5898   */\n      dup4\n        /* \"#utility.yul\":5889:5905   */\n      add\n        /* \"#utility.yul\":5883:5906   */\n      mload\n        /* \"#utility.yul\":5953:5956   */\n      dup5\n        /* \"#utility.yul\":5947:5951   */\n      dup3\n        /* \"#utility.yul\":5943:5957   */\n      sub\n        /* \"#utility.yul\":5936:5940   */\n      0x00\n        /* \"#utility.yul\":5931:5934   */\n      dup7\n        /* \"#utility.yul\":5927:5941   */\n      add\n        /* \"#utility.yul\":5920:5958   */\n      mstore\n        /* \"#utility.yul\":5979:6052   */\n      tag_332\n        /* \"#utility.yul\":6047:6051   */\n      dup3\n        /* \"#utility.yul\":6033:6045   */\n      dup3\n        /* \"#utility.yul\":5979:6052   */\n      tag_243\n      jump\t// in\n    tag_332:\n        /* \"#utility.yul\":5971:6052   */\n      swap2\n      pop\n        /* \"#utility.yul\":5823:6063   */\n      pop\n        /* \"#utility.yul\":6151:6155   */\n      0x20\n        /* \"#utility.yul\":6144:6149   */\n      dup4\n        /* \"#utility.yul\":6140:6156   */\n      add\n        /* \"#utility.yul\":6134:6157   */\n      mload\n        /* \"#utility.yul\":6204:6207   */\n      dup5\n        /* \"#utility.yul\":6198:6202   */\n      dup3\n        /* \"#utility.yul\":6194:6208   */\n      sub\n        /* \"#utility.yul\":6187:6191   */\n      0x20\n        /* \"#utility.yul\":6182:6185   */\n      dup7\n        /* \"#utility.yul\":6178:6192   */\n      add\n        /* \"#utility.yul\":6171:6209   */\n      mstore\n        /* \"#utility.yul\":6230:6303   */\n      tag_333\n        /* \"#utility.yul\":6298:6302   */\n      dup3\n        /* \"#utility.yul\":6284:6296   */\n      dup3\n        /* \"#utility.yul\":6230:6303   */\n      tag_243\n      jump\t// in\n    tag_333:\n        /* \"#utility.yul\":6222:6303   */\n      swap2\n      pop\n        /* \"#utility.yul\":6073:6314   */\n      pop\n        /* \"#utility.yul\":6400:6404   */\n      0x40\n        /* \"#utility.yul\":6393:6398   */\n      dup4\n        /* \"#utility.yul\":6389:6405   */\n      add\n        /* \"#utility.yul\":6383:6406   */\n      mload\n        /* \"#utility.yul\":6419:6482   */\n      tag_334\n        /* \"#utility.yul\":6476:6480   */\n      0x40\n        /* \"#utility.yul\":6471:6474   */\n      dup7\n        /* \"#utility.yul\":6467:6481   */\n      add\n        /* \"#utility.yul\":6453:6465   */\n      dup3\n        /* \"#utility.yul\":6419:6482   */\n      tag_238\n      jump\t// in\n    tag_334:\n        /* \"#utility.yul\":6324:6492   */\n      pop\n        /* \"#utility.yul\":6580:6584   */\n      0x60\n        /* \"#utility.yul\":6573:6578   */\n      dup4\n        /* \"#utility.yul\":6569:6585   */\n      add\n        /* \"#utility.yul\":6563:6586   */\n      mload\n        /* \"#utility.yul\":6599:6658   */\n      tag_335\n        /* \"#utility.yul\":6652:6656   */\n      0x60\n        /* \"#utility.yul\":6647:6650   */\n      dup7\n        /* \"#utility.yul\":6643:6657   */\n      add\n        /* \"#utility.yul\":6629:6641   */\n      dup3\n        /* \"#utility.yul\":6599:6658   */\n      tag_245\n      jump\t// in\n    tag_335:\n        /* \"#utility.yul\":6502:6668   */\n      pop\n        /* \"#utility.yul\":6685:6689   */\n      dup1\n        /* \"#utility.yul\":6678:6689   */\n      swap2\n      pop\n        /* \"#utility.yul\":5777:6695   */\n      pop\n        /* \"#utility.yul\":5645:6695   */\n      swap3\n      swap2\n      pop\n      pop\n      jump\t// out\n        /* \"#utility.yul\":6779:8161   */\n    tag_249:\n        /* \"#utility.yul\":6908:6911   */\n      0x00\n        /* \"#utility.yul\":6944:6948   */\n      0xa0\n        /* \"#utility.yul\":6939:6942   */\n      dup4\n        /* \"#utility.yul\":6935:6949   */\n      add\n        /* \"#utility.yul\":7039:7043   */\n      0x00\n        /* \"#utility.yul\":7032:7037   */\n      dup4\n        /* \"#utility.yul\":7028:7044   */\n      add\n        /* \"#utility.yul\":7022:7045   */\n      mload\n        /* \"#utility.yul\":7092:7095   */\n      dup5\n        /* \"#utility.yul\":7086:7090   */\n      dup3\n        /* \"#utility.yul\":7082:7096   */\n      sub\n        /* \"#utility.yul\":7075:7079   */\n      0x00\n        /* \"#utility.yul\":7070:7073   */\n      dup7\n        /* \"#utility.yul\":7066:7080   */\n      add\n        /* \"#utility.yul\":7059:7097   */\n      mstore\n        /* \"#utility.yul\":7118:7191   */\n      tag_337\n        /* \"#utility.yul\":7186:7190   */\n      dup3\n        /* \"#utility.yul\":7172:7184   */\n      dup3\n        /* \"#utility.yul\":7118:7191   */\n      tag_243\n      jump\t// in\n    tag_337:\n        /* \"#utility.yul\":7110:7191   */\n      swap2\n      pop\n        /* \"#utility.yul\":6959:7202   */\n      pop\n        /* \"#utility.yul\":7286:7290   */\n      0x20\n        /* \"#utility.yul\":7279:7284   */\n      dup4\n        /* \"#utility.yul\":7275:7291   */\n      add\n        /* \"#utility.yul\":7269:7292   */\n      mload\n        /* \"#utility.yul\":7339:7342   */\n      dup5\n        /* \"#utility.yul\":7333:7337   */\n      dup3\n        /* \"#utility.yul\":7329:7343   */\n      sub\n        /* \"#utility.yul\":7322:7326   */\n      0x20\n        /* \"#utility.yul\":7317:7320   */\n      dup7\n        /* \"#utility.yul\":7313:7327   */\n      add\n        /* \"#utility.yul\":7306:7344   */\n      mstore\n        /* \"#utility.yul\":7365:7438   */\n      tag_338\n        /* \"#utility.yul\":7433:7437   */\n      dup3\n        /* \"#utility.yul\":7419:7431   */\n      dup3\n        /* \"#utility.yul\":7365:7438   */\n      tag_243\n      jump\t// in\n    tag_338:\n        /* \"#utility.yul\":7357:7438   */\n      swap2\n      pop\n        /* \"#utility.yul\":7212:7449   */\n      pop\n        /* \"#utility.yul\":7538:7542   */\n      0x40\n        /* \"#utility.yul\":7531:7536   */\n      dup4\n        /* \"#utility.yul\":7527:7543   */\n      add\n        /* \"#utility.yul\":7521:7544   */\n      mload\n        /* \"#utility.yul\":7591:7594   */\n      dup5\n        /* \"#utility.yul\":7585:7589   */\n      dup3\n        /* \"#utility.yul\":7581:7595   */\n      sub\n        /* \"#utility.yul\":7574:7578   */\n      0x40\n        /* \"#utility.yul\":7569:7572   */\n      dup7\n        /* \"#utility.yul\":7565:7579   */\n      add\n        /* \"#utility.yul\":7558:7596   */\n      mstore\n        /* \"#utility.yul\":7617:7690   */\n      tag_339\n        /* \"#utility.yul\":7685:7689   */\n      dup3\n        /* \"#utility.yul\":7671:7683   */\n      dup3\n        /* \"#utility.yul\":7617:7690   */\n      tag_243\n      jump\t// in\n    tag_339:\n        /* \"#utility.yul\":7609:7690   */\n      swap2\n      pop\n        /* \"#utility.yul\":7459:7701   */\n      pop\n        /* \"#utility.yul\":7792:7796   */\n      0x60\n        /* \"#utility.yul\":7785:7790   */\n      dup4\n        /* \"#utility.yul\":7781:7797   */\n      add\n        /* \"#utility.yul\":7775:7798   */\n      mload\n        /* \"#utility.yul\":7811:7874   */\n      tag_340\n        /* \"#utility.yul\":7868:7872   */\n      0x60\n        /* \"#utility.yul\":7863:7866   */\n      dup7\n        /* \"#utility.yul\":7859:7873   */\n      add\n        /* \"#utility.yul\":7845:7857   */\n      dup3\n        /* \"#utility.yul\":7811:7874   */\n      tag_238\n      jump\t// in\n    tag_340:\n        /* \"#utility.yul\":7711:7884   */\n      pop\n        /* \"#utility.yul\":7971:7975   */\n      0x80\n        /* \"#utility.yul\":7964:7969   */\n      dup4\n        /* \"#utility.yul\":7960:7976   */\n      add\n        /* \"#utility.yul\":7954:7977   */\n      mload\n        /* \"#utility.yul\":8024:8027   */\n      dup5\n        /* \"#utility.yul\":8018:8022   */\n      dup3\n        /* \"#utility.yul\":8014:8028   */\n      sub\n        /* \"#utility.yul\":8007:8011   */\n      0x80\n        /* \"#utility.yul\":8002:8005   */\n      dup7\n        /* \"#utility.yul\":7998:8012   */\n      add\n        /* \"#utility.yul\":7991:8029   */\n      mstore\n        /* \"#utility.yul\":8050:8123   */\n      tag_341\n        /* \"#utility.yul\":8118:8122   */\n      dup3\n        /* \"#utility.yul\":8104:8116   */\n      dup3\n        /* \"#utility.yul\":8050:8123   */\n      tag_243\n      jump\t// in\n    tag_341:\n        /* \"#utility.yul\":8042:8123   */\n      swap2\n      pop\n        /* \"#utility.yul\":7894:8134   */\n      pop\n        /* \"#utility.yul\":8151:8155   */\n      dup1\n        /* \"#utility.yul\":8144:8155   */\n      swap2\n      pop\n        /* \"#utility.yul\":6913:8161   */\n      pop\n        /* \"#utility.yul\":6779:8161   */\n      swap3\n      swap2\n      pop\n      pop\n      jump\t// out\n        /* \"#utility.yul\":8245:9552   */\n    tag_250:\n        /* \"#utility.yul\":8374:8377   */\n      0x00\n        /* \"#utility.yul\":8410:8414   */\n      0xa0\n        /* \"#utility.yul\":8405:8408   */\n      dup4\n        /* \"#utility.yul\":8401:8415   */\n      add\n        /* \"#utility.yul\":8504:8508   */\n      0x00\n        /* \"#utility.yul\":8497:8502   */\n      dup4\n        /* \"#utility.yul\":8493:8509   */\n      add\n        /* \"#utility.yul\":8487:8510   */\n      mload\n        /* \"#utility.yul\":8557:8560   */\n      dup5\n        /* \"#utility.yul\":8551:8555   */\n      dup3\n        /* \"#utility.yul\":8547:8561   */\n      sub\n        /* \"#utility.yul\":8540:8544   */\n      0x00\n        /* \"#utility.yul\":8535:8538   */\n      dup7\n        /* \"#utility.yul\":8531:8545   */\n      add\n        /* \"#utility.yul\":8524:8562   */\n      mstore\n        /* \"#utility.yul\":8583:8656   */\n      tag_343\n        /* \"#utility.yul\":8651:8655   */\n      dup3\n        /* \"#utility.yul\":8637:8649   */\n      dup3\n        /* \"#utility.yul\":8583:8656   */\n      tag_243\n      jump\t// in\n    tag_343:\n        /* \"#utility.yul\":8575:8656   */\n      swap2\n      pop\n        /* \"#utility.yul\":8425:8667   */\n      pop\n        /* \"#utility.yul\":8751:8755   */\n      0x20\n        /* \"#utility.yul\":8744:8749   */\n      dup4\n        /* \"#utility.yul\":8740:8756   */\n      add\n        /* \"#utility.yul\":8734:8757   */\n      mload\n        /* \"#utility.yul\":8804:8807   */\n      dup5\n        /* \"#utility.yul\":8798:8802   */\n      dup3\n        /* \"#utility.yul\":8794:8808   */\n      sub\n        /* \"#utility.yul\":8787:8791   */\n      0x20\n        /* \"#utility.yul\":8782:8785   */\n      dup7\n        /* \"#utility.yul\":8778:8792   */\n      add\n        /* \"#utility.yul\":8771:8809   */\n      mstore\n        /* \"#utility.yul\":8830:8903   */\n      tag_344\n        /* \"#utility.yul\":8898:8902   */\n      dup3\n        /* \"#utility.yul\":8884:8896   */\n      dup3\n        /* \"#utility.yul\":8830:8903   */\n      tag_243\n      jump\t// in\n    tag_344:\n        /* \"#utility.yul\":8822:8903   */\n      swap2\n      pop\n        /* \"#utility.yul\":8677:8914   */\n      pop\n        /* \"#utility.yul\":9003:9007   */\n      0x40\n        /* \"#utility.yul\":8996:9001   */\n      dup4\n        /* \"#utility.yul\":8992:9008   */\n      add\n        /* \"#utility.yul\":8986:9009   */\n      mload\n        /* \"#utility.yul\":9056:9059   */\n      dup5\n        /* \"#utility.yul\":9050:9054   */\n      dup3\n        /* \"#utility.yul\":9046:9060   */\n      sub\n        /* \"#utility.yul\":9039:9043   */\n      0x40\n        /* \"#utility.yul\":9034:9037   */\n      dup7\n        /* \"#utility.yul\":9030:9044   */\n      add\n        /* \"#utility.yul\":9023:9061   */\n      mstore\n        /* \"#utility.yul\":9082:9155   */\n      tag_345\n        /* \"#utility.yul\":9150:9154   */\n      dup3\n        /* \"#utility.yul\":9136:9148   */\n      dup3\n        /* \"#utility.yul\":9082:9155   */\n      tag_243\n      jump\t// in\n    tag_345:\n        /* \"#utility.yul\":9074:9155   */\n      swap2\n      pop\n        /* \"#utility.yul\":8924:9166   */\n      pop\n        /* \"#utility.yul\":9257:9261   */\n      0x60\n        /* \"#utility.yul\":9250:9255   */\n      dup4\n        /* \"#utility.yul\":9246:9262   */\n      add\n        /* \"#utility.yul\":9240:9263   */\n      mload\n        /* \"#utility.yul\":9276:9339   */\n      tag_346\n        /* \"#utility.yul\":9333:9337   */\n      0x60\n        /* \"#utility.yul\":9328:9331   */\n      dup7\n        /* \"#utility.yul\":9324:9338   */\n      add\n        /* \"#utility.yul\":9310:9322   */\n      dup3\n        /* \"#utility.yul\":9276:9339   */\n      tag_238\n      jump\t// in\n    tag_346:\n        /* \"#utility.yul\":9176:9349   */\n      pop\n        /* \"#utility.yul\":9437:9441   */\n      0x80\n        /* \"#utility.yul\":9430:9435   */\n      dup4\n        /* \"#utility.yul\":9426:9442   */\n      add\n        /* \"#utility.yul\":9420:9443   */\n      mload\n        /* \"#utility.yul\":9456:9515   */\n      tag_347\n        /* \"#utility.yul\":9509:9513   */\n      0x80\n        /* \"#utility.yul\":9504:9507   */\n      dup7\n        /* \"#utility.yul\":9500:9514   */\n      add\n        /* \"#utility.yul\":9486:9498   */\n      dup3\n        /* \"#utility.yul\":9456:9515   */\n      tag_245\n      jump\t// in\n    tag_347:\n        /* \"#utility.yul\":9359:9525   */\n      pop\n        /* \"#utility.yul\":9542:9546   */\n      dup1\n        /* \"#utility.yul\":9535:9546   */\n      swap2\n      pop\n        /* \"#utility.yul\":8379:9552   */\n      pop\n        /* \"#utility.yul\":8245:9552   */\n      swap3\n      swap2\n      pop\n      pop\n      jump\t// out\n        /* \"#utility.yul\":9636:10689   */\n    tag_251:\n        /* \"#utility.yul\":9765:9768   */\n      0x00\n        /* \"#utility.yul\":9801:9805   */\n      0x80\n        /* \"#utility.yul\":9796:9799   */\n      dup4\n        /* \"#utility.yul\":9792:9806   */\n      add\n        /* \"#utility.yul\":9896:9900   */\n      0x00\n        /* \"#utility.yul\":9889:9894   */\n      dup4\n        /* \"#utility.yul\":9885:9901   */\n      add\n        /* \"#utility.yul\":9879:9902   */\n      mload\n        /* \"#utility.yul\":9949:9952   */\n      dup5\n        /* \"#utility.yul\":9943:9947   */\n      dup3\n        /* \"#utility.yul\":9939:9953   */\n      sub\n        /* \"#utility.yul\":9932:9936   */\n      0x00\n        /* \"#utility.yul\":9927:9930   */\n      dup7\n        /* \"#utility.yul\":9923:9937   */\n      add\n        /* \"#utility.yul\":9916:9954   */\n      mstore\n        /* \"#utility.yul\":9975:10048   */\n      tag_349\n        /* \"#utility.yul\":10043:10047   */\n      dup3\n        /* \"#utility.yul\":10029:10041   */\n      dup3\n        /* \"#utility.yul\":9975:10048   */\n      tag_243\n      jump\t// in\n    tag_349:\n        /* \"#utility.yul\":9967:10048   */\n      swap2\n      pop\n        /* \"#utility.yul\":9816:10059   */\n      pop\n        /* \"#utility.yul\":10144:10148   */\n      0x20\n        /* \"#utility.yul\":10137:10142   */\n      dup4\n        /* \"#utility.yul\":10133:10149   */\n      add\n        /* \"#utility.yul\":10127:10150   */\n      mload\n        /* \"#utility.yul\":10197:10200   */\n      dup5\n        /* \"#utility.yul\":10191:10195   */\n      dup3\n        /* \"#utility.yul\":10187:10201   */\n      sub\n        /* \"#utility.yul\":10180:10184   */\n      0x20\n        /* \"#utility.yul\":10175:10178   */\n      dup7\n        /* \"#utility.yul\":10171:10185   */\n      add\n        /* \"#utility.yul\":10164:10202   */\n      mstore\n        /* \"#utility.yul\":10223:10296   */\n      tag_350\n        /* \"#utility.yul\":10291:10295   */\n      dup3\n        /* \"#utility.yul\":10277:10289   */\n      dup3\n        /* \"#utility.yul\":10223:10296   */\n      tag_243\n      jump\t// in\n    tag_350:\n        /* \"#utility.yul\":10215:10296   */\n      swap2\n      pop\n        /* \"#utility.yul\":10069:10307   */\n      pop\n        /* \"#utility.yul\":10394:10398   */\n      0x40\n        /* \"#utility.yul\":10387:10392   */\n      dup4\n        /* \"#utility.yul\":10383:10399   */\n      add\n        /* \"#utility.yul\":10377:10400   */\n      mload\n        /* \"#utility.yul\":10413:10476   */\n      tag_351\n        /* \"#utility.yul\":10470:10474   */\n      0x40\n        /* \"#utility.yul\":10465:10468   */\n      dup7\n        /* \"#utility.yul\":10461:10475   */\n      add\n        /* \"#utility.yul\":10447:10459   */\n      dup3\n        /* \"#utility.yul\":10413:10476   */\n      tag_238\n      jump\t// in\n    tag_351:\n        /* \"#utility.yul\":10317:10486   */\n      pop\n        /* \"#utility.yul\":10574:10578   */\n      0x60\n        /* \"#utility.yul\":10567:10572   */\n      dup4\n        /* \"#utility.yul\":10563:10579   */\n      add\n        /* \"#utility.yul\":10557:10580   */\n      mload\n        /* \"#utility.yul\":10593:10652   */\n      tag_352\n        /* \"#utility.yul\":10646:10650   */\n      0x60\n        /* \"#utility.yul\":10641:10644   */\n      dup7\n        /* \"#utility.yul\":10637:10651   */\n      add\n        /* \"#utility.yul\":10623:10635   */\n      dup3\n        /* \"#utility.yul\":10593:10652   */\n      tag_245\n      jump\t// in\n    tag_352:\n        /* \"#utility.yul\":10496:10662   */\n      pop\n        /* \"#utility.yul\":10679:10683   */\n      dup1\n        /* \"#utility.yul\":10672:10683   */\n      swap2\n      pop\n        /* \"#utility.yul\":9770:10689   */\n      pop\n        /* \"#utility.yul\":9636:10689   */\n      swap3\n      swap2\n      pop\n      pop\n      jump\t// out\n        /* \"#utility.yul\":10695:12680   */\n    tag_14:\n        /* \"#utility.yul\":11325:11329   */\n      0x00\n        /* \"#utility.yul\":11363:11366   */\n      0x0100\n        /* \"#utility.yul\":11352:11361   */\n      dup3\n        /* \"#utility.yul\":11348:11367   */\n      add\n        /* \"#utility.yul\":11340:11367   */\n      swap1\n      pop\n        /* \"#utility.yul\":11377:11448   */\n      tag_354\n        /* \"#utility.yul\":11445:11446   */\n      0x00\n        /* \"#utility.yul\":11434:11443   */\n      dup4\n        /* \"#utility.yul\":11430:11447   */\n      add\n        /* \"#utility.yul\":11421:11427   */\n      dup12\n        /* \"#utility.yul\":11377:11448   */\n      tag_233\n      jump\t// in\n    tag_354:\n        /* \"#utility.yul\":11458:11541   */\n      tag_355\n        /* \"#utility.yul\":11537:11539   */\n      0x20\n        /* \"#utility.yul\":11526:11535   */\n      dup4\n        /* \"#utility.yul\":11522:11540   */\n      add\n        /* \"#utility.yul\":11513:11519   */\n      dup11\n        /* \"#utility.yul\":11458:11541   */\n      tag_237\n      jump\t// in\n    tag_355:\n        /* \"#utility.yul\":11588:11597   */\n      dup2\n        /* \"#utility.yul\":11582:11586   */\n      dup2\n        /* \"#utility.yul\":11578:11598   */\n      sub\n        /* \"#utility.yul\":11573:11575   */\n      0x40\n        /* \"#utility.yul\":11562:11571   */\n      dup4\n        /* \"#utility.yul\":11558:11576   */\n      add\n        /* \"#utility.yul\":11551:11599   */\n      mstore\n        /* \"#utility.yul\":11616:11714   */\n      tag_356\n        /* \"#utility.yul\":11709:11713   */\n      dup2\n        /* \"#utility.yul\":11700:11706   */\n      dup10\n        /* \"#utility.yul\":11616:11714   */\n      tag_246\n      jump\t// in\n    tag_356:\n        /* \"#utility.yul\":11608:11714   */\n      swap1\n      pop\n        /* \"#utility.yul\":11761:11770   */\n      dup2\n        /* \"#utility.yul\":11755:11759   */\n      dup2\n        /* \"#utility.yul\":11751:11771   */\n      sub\n        /* \"#utility.yul\":11746:11748   */\n      0x60\n        /* \"#utility.yul\":11735:11744   */\n      dup4\n        /* \"#utility.yul\":11731:11749   */\n      add\n        /* \"#utility.yul\":11724:11772   */\n      mstore\n        /* \"#utility.yul\":11789:11899   */\n      tag_357\n        /* \"#utility.yul\":11894:11898   */\n      dup2\n        /* \"#utility.yul\":11885:11891   */\n      dup9\n        /* \"#utility.yul\":11789:11899   */\n      tag_247\n      jump\t// in\n    tag_357:\n        /* \"#utility.yul\":11781:11899   */\n      swap1\n      pop\n        /* \"#utility.yul\":11947:11956   */\n      dup2\n        /* \"#utility.yul\":11941:11945   */\n      dup2\n        /* \"#utility.yul\":11937:11957   */\n      sub\n        /* \"#utility.yul\":11931:11934   */\n      0x80\n        /* \"#utility.yul\":11920:11929   */\n      dup4\n        /* \"#utility.yul\":11916:11935   */\n      add\n        /* \"#utility.yul\":11909:11958   */\n      mstore\n        /* \"#utility.yul\":11975:12091   */\n      tag_358\n        /* \"#utility.yul\":12086:12090   */\n      dup2\n        /* \"#utility.yul\":12077:12083   */\n      dup8\n        /* \"#utility.yul\":11975:12091   */\n      tag_248\n      jump\t// in\n    tag_358:\n        /* \"#utility.yul\":11967:12091   */\n      swap1\n      pop\n        /* \"#utility.yul\":12139:12148   */\n      dup2\n        /* \"#utility.yul\":12133:12137   */\n      dup2\n        /* \"#utility.yul\":12129:12149   */\n      sub\n        /* \"#utility.yul\":12123:12126   */\n      0xa0\n        /* \"#utility.yul\":12112:12121   */\n      dup4\n        /* \"#utility.yul\":12108:12127   */\n      add\n        /* \"#utility.yul\":12101:12150   */\n      mstore\n        /* \"#utility.yul\":12167:12285   */\n      tag_359\n        /* \"#utility.yul\":12280:12284   */\n      dup2\n        /* \"#utility.yul\":12271:12277   */\n      dup7\n        /* \"#utility.yul\":12167:12285   */\n      tag_249\n      jump\t// in\n    tag_359:\n        /* \"#utility.yul\":12159:12285   */\n      swap1\n      pop\n        /* \"#utility.yul\":12333:12342   */\n      dup2\n        /* \"#utility.yul\":12327:12331   */\n      dup2\n        /* \"#utility.yul\":12323:12343   */\n      sub\n        /* \"#utility.yul\":12317:12320   */\n      0xc0\n        /* \"#utility.yul\":12306:12315   */\n      dup4\n        /* \"#utility.yul\":12302:12321   */\n      add\n        /* \"#utility.yul\":12295:12344   */\n      mstore\n        /* \"#utility.yul\":12361:12479   */\n      tag_360\n        /* \"#utility.yul\":12474:12478   */\n      dup2\n        /* \"#utility.yul\":12465:12471   */\n      dup6\n        /* \"#utility.yul\":12361:12479   */\n      tag_250\n      jump\t// in\n    tag_360:\n        /* \"#utility.yul\":12353:12479   */\n      swap1\n      pop\n        /* \"#utility.yul\":12527:12536   */\n      dup2\n        /* \"#utility.yul\":12521:12525   */\n      dup2\n        /* \"#utility.yul\":12517:12537   */\n      sub\n        /* \"#utility.yul\":12511:12514   */\n      0xe0\n        /* \"#utility.yul\":12500:12509   */\n      dup4\n        /* \"#utility.yul\":12496:12515   */\n      add\n        /* \"#utility.yul\":12489:12538   */\n      mstore\n        /* \"#utility.yul\":12555:12673   */\n      tag_361\n        /* \"#utility.yul\":12668:12672   */\n      dup2\n        /* \"#utility.yul\":12659:12665   */\n      dup5\n        /* \"#utility.yul\":12555:12673   */\n      tag_251\n      jump\t// in\n    tag_361:\n        /* \"#utility.yul\":12547:12673   */\n      swap1\n      pop\n        /* \"#utility.yul\":10695:12680   */\n      swap10\n      swap9\n      pop\n      pop\n      pop\n      pop\n      pop\n      pop\n      pop\n      pop\n      pop\n      jump\t// out\n        /* \"#utility.yul\":12686:12803   */\n    tag_252:\n        /* \"#utility.yul\":12795:12796   */\n      0x00\n        /* \"#utility.yul\":12792:12793   */\n      0x00\n        /* \"#utility.yul\":12785:12797   */\n      revert\n        /* \"#utility.yul\":12809:12926   */\n    tag_253:\n        /* \"#utility.yul\":12918:12919   */\n      0x00\n        /* \"#utility.yul\":12915:12916   */\n      0x00\n        /* \"#utility.yul\":12908:12920   */\n      revert\n        /* \"#utility.yul\":12932:13112   */\n    tag_254:\n        /* \"#utility.yul\":12980:13057   */\n      0x4e487b7100000000000000000000000000000000000000000000000000000000\n        /* \"#utility.yul\":12977:12978   */\n      0x00\n        /* \"#utility.yul\":12970:13058   */\n      mstore\n        /* \"#utility.yul\":13077:13081   */\n      0x41\n        /* \"#utility.yul\":13074:13075   */\n      0x04\n        /* \"#utility.yul\":13067:13082   */\n      mstore\n        /* \"#utility.yul\":13101:13105   */\n      0x24\n        /* \"#utility.yul\":13098:13099   */\n      0x00\n        /* \"#utility.yul\":13091:13106   */\n      revert\n        /* \"#utility.yul\":13118:13399   */\n    tag_255:\n        /* \"#utility.yul\":13201:13228   */\n      tag_366\n        /* \"#utility.yul\":13223:13227   */\n      dup3\n        /* \"#utility.yul\":13201:13228   */\n      tag_242\n      jump\t// in\n    tag_366:\n        /* \"#utility.yul\":13193:13199   */\n      dup2\n        /* \"#utility.yul\":13189:13229   */\n      add\n        /* \"#utility.yul\":13331:13337   */\n      dup2\n        /* \"#utility.yul\":13319:13329   */\n      dup2\n        /* \"#utility.yul\":13316:13338   */\n      lt\n        /* \"#utility.yul\":13295:13313   */\n      0xffffffffffffffff\n        /* \"#utility.yul\":13283:13293   */\n      dup3\n        /* \"#utility.yul\":13280:13314   */\n      gt\n        /* \"#utility.yul\":13277:13339   */\n      or\n        /* \"#utility.yul\":13274:13362   */\n      iszero\n      tag_367\n      jumpi\n        /* \"#utility.yul\":13342:13360   */\n      tag_368\n      tag_254\n      jump\t// in\n    tag_368:\n        /* \"#utility.yul\":13274:13362   */\n    tag_367:\n        /* \"#utility.yul\":13382:13392   */\n      dup1\n        /* \"#utility.yul\":13378:13380   */\n      0x40\n        /* \"#utility.yul\":13371:13393   */\n      mstore\n        /* \"#utility.yul\":13161:13399   */\n      pop\n        /* \"#utility.yul\":13118:13399   */\n      pop\n      pop\n      jump\t// out\n        /* \"#utility.yul\":13405:13534   */\n    tag_256:\n        /* \"#utility.yul\":13439:13445   */\n      0x00\n        /* \"#utility.yul\":13466:13486   */\n      tag_370\n      tag_227\n      jump\t// in\n    tag_370:\n        /* \"#utility.yul\":13456:13486   */\n      swap1\n      pop\n        /* \"#utility.yul\":13495:13528   */\n      tag_371\n        /* \"#utility.yul\":13523:13527   */\n      dup3\n        /* \"#utility.yul\":13515:13521   */\n      dup3\n        /* \"#utility.yul\":13495:13528   */\n      tag_255\n      jump\t// in\n    tag_371:\n        /* \"#utility.yul\":13405:13534   */\n      swap2\n      swap1\n      pop\n      jump\t// out\n        /* \"#utility.yul\":13540:13848   */\n    tag_257:\n        /* \"#utility.yul\":13602:13606   */\n      0x00\n        /* \"#utility.yul\":13692:13710   */\n      0xffffffffffffffff\n        /* \"#utility.yul\":13684:13690   */\n      dup3\n        /* \"#utility.yul\":13681:13711   */\n      gt\n        /* \"#utility.yul\":13678:13734   */\n      iszero\n      tag_373\n      jumpi\n        /* \"#utility.yul\":13714:13732   */\n      tag_374\n      tag_254\n      jump\t// in\n    tag_374:\n        /* \"#utility.yul\":13678:13734   */\n    tag_373:\n        /* \"#utility.yul\":13752:13781   */\n      tag_375\n        /* \"#utility.yul\":13774:13780   */\n      dup3\n        /* \"#utility.yul\":13752:13781   */\n      tag_242\n      jump\t// in\n    tag_375:\n        /* \"#utility.yul\":13744:13781   */\n      swap1\n      pop\n        /* \"#utility.yul\":13836:13840   */\n      0x20\n        /* \"#utility.yul\":13830:13834   */\n      dup2\n        /* \"#utility.yul\":13826:13841   */\n      add\n        /* \"#utility.yul\":13818:13841   */\n      swap1\n      pop\n        /* \"#utility.yul\":13540:13848   */\n      swap2\n      swap1\n      pop\n      jump\t// out\n        /* \"#utility.yul\":13854:14002   */\n    tag_258:\n        /* \"#utility.yul\":13952:13958   */\n      dup3\n        /* \"#utility.yul\":13947:13950   */\n      dup2\n        /* \"#utility.yul\":13942:13945   */\n      dup4\n        /* \"#utility.yul\":13929:13959   */\n      calldatacopy\n        /* \"#utility.yul\":13993:13994   */\n      0x00\n        /* \"#utility.yul\":13984:13990   */\n      dup4\n        /* \"#utility.yul\":13979:13982   */\n      dup4\n        /* \"#utility.yul\":13975:13991   */\n      add\n        /* \"#utility.yul\":13968:13995   */\n      mstore\n        /* \"#utility.yul\":13854:14002   */\n      pop\n      pop\n      pop\n      jump\t// out\n        /* \"#utility.yul\":14008:14433   */\n    tag_259:\n        /* \"#utility.yul\":14086:14091   */\n      0x00\n        /* \"#utility.yul\":14111:14177   */\n      tag_378\n        /* \"#utility.yul\":14127:14176   */\n      tag_379\n        /* \"#utility.yul\":14169:14175   */\n      dup5\n        /* \"#utility.yul\":14127:14176   */\n      tag_257\n      jump\t// in\n    tag_379:\n        /* \"#utility.yul\":14111:14177   */\n      tag_256\n      jump\t// in\n    tag_378:\n        /* \"#utility.yul\":14102:14177   */\n      swap1\n      pop\n        /* \"#utility.yul\":14200:14206   */\n      dup3\n        /* \"#utility.yul\":14193:14198   */\n      dup2\n        /* \"#utility.yul\":14186:14207   */\n      mstore\n        /* \"#utility.yul\":14238:14242   */\n      0x20\n        /* \"#utility.yul\":14231:14236   */\n      dup2\n        /* \"#utility.yul\":14227:14243   */\n      add\n        /* \"#utility.yul\":14276:14279   */\n      dup5\n        /* \"#utility.yul\":14267:14273   */\n      dup5\n        /* \"#utility.yul\":14262:14265   */\n      dup5\n        /* \"#utility.yul\":14258:14274   */\n      add\n        /* \"#utility.yul\":14255:14280   */\n      gt\n        /* \"#utility.yul\":14252:14364   */\n      iszero\n      tag_380\n      jumpi\n        /* \"#utility.yul\":14283:14362   */\n      tag_381\n      tag_253\n      jump\t// in\n    tag_381:\n        /* \"#utility.yul\":14252:14364   */\n    tag_380:\n        /* \"#utility.yul\":14373:14427   */\n      tag_382\n        /* \"#utility.yul\":14420:14426   */\n      dup5\n        /* \"#utility.yul\":14415:14418   */\n      dup3\n        /* \"#utility.yul\":14410:14413   */\n      dup6\n        /* \"#utility.yul\":14373:14427   */\n      tag_258\n      jump\t// in\n    tag_382:\n        /* \"#utility.yul\":14092:14433   */\n      pop\n        /* \"#utility.yul\":14008:14433   */\n      swap4\n      swap3\n      pop\n      pop\n      pop\n      jump\t// out\n        /* \"#utility.yul\":14453:14793   */\n    tag_260:\n        /* \"#utility.yul\":14509:14514   */\n      0x00\n        /* \"#utility.yul\":14558:14561   */\n      dup3\n        /* \"#utility.yul\":14551:14555   */\n      0x1f\n        /* \"#utility.yul\":14543:14549   */\n      dup4\n        /* \"#utility.yul\":14539:14556   */\n      add\n        /* \"#utility.yul\":14535:14562   */\n      slt\n        /* \"#utility.yul\":14525:14647   */\n      tag_384\n      jumpi\n        /* \"#utility.yul\":14566:14645   */\n      tag_385\n      tag_252\n      jump\t// in\n    tag_385:\n        /* \"#utility.yul\":14525:14647   */\n    tag_384:\n        /* \"#utility.yul\":14683:14689   */\n      dup2\n        /* \"#utility.yul\":14670:14690   */\n      calldataload\n        /* \"#utility.yul\":14708:14787   */\n      tag_386\n        /* \"#utility.yul\":14783:14786   */\n      dup5\n        /* \"#utility.yul\":14775:14781   */\n      dup3\n        /* \"#utility.yul\":14768:14772   */\n      0x20\n        /* \"#utility.yul\":14760:14766   */\n      dup7\n        /* \"#utility.yul\":14756:14773   */\n      add\n        /* \"#utility.yul\":14708:14787   */\n      tag_259\n      jump\t// in\n    tag_386:\n        /* \"#utility.yul\":14699:14787   */\n      swap2\n      pop\n        /* \"#utility.yul\":14515:14793   */\n      pop\n        /* \"#utility.yul\":14453:14793   */\n      swap3\n      swap2\n      pop\n      pop\n      jump\t// out\n        /* \"#utility.yul\":14799:14917   */\n    tag_261:\n        /* \"#utility.yul\":14870:14892   */\n      tag_388\n        /* \"#utility.yul\":14886:14891   */\n      dup2\n        /* \"#utility.yul\":14870:14892   */\n      tag_244\n      jump\t// in\n    tag_388:\n        /* \"#utility.yul\":14863:14868   */\n      dup2\n        /* \"#utility.yul\":14860:14893   */\n      eq\n        /* \"#utility.yul\":14850:14911   */\n      tag_389\n      jumpi\n        /* \"#utility.yul\":14907:14908   */\n      0x00\n        /* \"#utility.yul\":14904:14905   */\n      0x00\n        /* \"#utility.yul\":14897:14909   */\n      revert\n        /* \"#utility.yul\":14850:14911   */\n    tag_389:\n        /* \"#utility.yul\":14799:14917   */\n      pop\n      jump\t// out\n        /* \"#utility.yul\":14923:15058   */\n    tag_262:\n        /* \"#utility.yul\":14967:14972   */\n      0x00\n        /* \"#utility.yul\":15005:15011   */\n      dup2\n        /* \"#utility.yul\":14992:15012   */\n      calldataload\n        /* \"#utility.yul\":14983:15012   */\n      swap1\n      pop\n        /* \"#utility.yul\":15021:15052   */\n      tag_391\n        /* \"#utility.yul\":15046:15051   */\n      dup2\n        /* \"#utility.yul\":15021:15052   */\n      tag_261\n      jump\t// in\n    tag_391:\n        /* \"#utility.yul\":14923:15058   */\n      swap3\n      swap2\n      pop\n      pop\n      jump\t// out\n        /* \"#utility.yul\":15064:17451   */\n    tag_17:\n        /* \"#utility.yul\":15241:15247   */\n      0x00\n        /* \"#utility.yul\":15249:15255   */\n      0x00\n        /* \"#utility.yul\":15257:15263   */\n      0x00\n        /* \"#utility.yul\":15265:15271   */\n      0x00\n        /* \"#utility.yul\":15273:15279   */\n      0x00\n        /* \"#utility.yul\":15281:15287   */\n      0x00\n        /* \"#utility.yul\":15289:15295   */\n      0x00\n        /* \"#utility.yul\":15297:15303   */\n      0x00\n        /* \"#utility.yul\":15305:15311   */\n      0x00\n        /* \"#utility.yul\":15354:15357   */\n      0x0120\n        /* \"#utility.yul\":15342:15351   */\n      dup11\n        /* \"#utility.yul\":15333:15340   */\n      dup13\n        /* \"#utility.yul\":15329:15352   */\n      sub\n        /* \"#utility.yul\":15325:15358   */\n      slt\n        /* \"#utility.yul\":15322:15442   */\n      iszero\n      tag_393\n      jumpi\n        /* \"#utility.yul\":15361:15440   */\n      tag_394\n      tag_228\n      jump\t// in\n    tag_394:\n        /* \"#utility.yul\":15322:15442   */\n    tag_393:\n        /* \"#utility.yul\":15481:15482   */\n      0x00\n        /* \"#utility.yul\":15506:15559   */\n      tag_395\n        /* \"#utility.yul\":15551:15558   */\n      dup13\n        /* \"#utility.yul\":15542:15548   */\n      dup3\n        /* \"#utility.yul\":15531:15540   */\n      dup14\n        /* \"#utility.yul\":15527:15549   */\n      add\n        /* \"#utility.yul\":15506:15559   */\n      tag_232\n      jump\t// in\n    tag_395:\n        /* \"#utility.yul\":15496:15559   */\n      swap10\n      pop\n        /* \"#utility.yul\":15452:15569   */\n      pop\n        /* \"#utility.yul\":15636:15638   */\n      0x20\n        /* \"#utility.yul\":15625:15634   */\n      dup11\n        /* \"#utility.yul\":15621:15639   */\n      add\n        /* \"#utility.yul\":15608:15640   */\n      calldataload\n        /* \"#utility.yul\":15667:15685   */\n      0xffffffffffffffff\n        /* \"#utility.yul\":15659:15665   */\n      dup2\n        /* \"#utility.yul\":15656:15686   */\n      gt\n        /* \"#utility.yul\":15653:15770   */\n      iszero\n      tag_396\n      jumpi\n        /* \"#utility.yul\":15689:15768   */\n      tag_397\n      tag_229\n      jump\t// in\n    tag_397:\n        /* \"#utility.yul\":15653:15770   */\n    tag_396:\n        /* \"#utility.yul\":15794:15857   */\n      tag_398\n        /* \"#utility.yul\":15849:15856   */\n      dup13\n        /* \"#utility.yul\":15840:15846   */\n      dup3\n        /* \"#utility.yul\":15829:15838   */\n      dup14\n        /* \"#utility.yul\":15825:15847   */\n      add\n        /* \"#utility.yul\":15794:15857   */\n      tag_260\n      jump\t// in\n    tag_398:\n        /* \"#utility.yul\":15784:15857   */\n      swap9\n      pop\n        /* \"#utility.yul\":15579:15867   */\n      pop\n        /* \"#utility.yul\":15906:15908   */\n      0x40\n        /* \"#utility.yul\":15932:15983   */\n      tag_399\n        /* \"#utility.yul\":15975:15982   */\n      dup13\n        /* \"#utility.yul\":15966:15972   */\n      dup3\n        /* \"#utility.yul\":15955:15964   */\n      dup14\n        /* \"#utility.yul\":15951:15973   */\n      add\n        /* \"#utility.yul\":15932:15983   */\n      tag_262\n      jump\t// in\n    tag_399:\n        /* \"#utility.yul\":15922:15983   */\n      swap8\n      pop\n        /* \"#utility.yul\":15877:15993   */\n      pop\n        /* \"#utility.yul\":16060:16062   */\n      0x60\n        /* \"#utility.yul\":16049:16058   */\n      dup11\n        /* \"#utility.yul\":16045:16063   */\n      add\n        /* \"#utility.yul\":16032:16064   */\n      calldataload\n        /* \"#utility.yul\":16091:16109   */\n      0xffffffffffffffff\n        /* \"#utility.yul\":16083:16089   */\n      dup2\n        /* \"#utility.yul\":16080:16110   */\n      gt\n        /* \"#utility.yul\":16077:16194   */\n      iszero\n      tag_400\n      jumpi\n        /* \"#utility.yul\":16113:16192   */\n      tag_401\n      tag_229\n      jump\t// in\n    tag_401:\n        /* \"#utility.yul\":16077:16194   */\n    tag_400:\n        /* \"#utility.yul\":16218:16281   */\n      tag_402\n        /* \"#utility.yul\":16273:16280   */\n      dup13\n        /* \"#utility.yul\":16264:16270   */\n      dup3\n        /* \"#utility.yul\":16253:16262   */\n      dup14\n        /* \"#utility.yul\":16249:16271   */\n      add\n        /* \"#utility.yul\":16218:16281   */\n      tag_260\n      jump\t// in\n    tag_402:\n        /* \"#utility.yul\":16208:16281   */\n      swap7\n      pop\n        /* \"#utility.yul\":16003:16291   */\n      pop\n        /* \"#utility.yul\":16358:16361   */\n      0x80\n        /* \"#utility.yul\":16347:16356   */\n      dup11\n        /* \"#utility.yul\":16343:16362   */\n      add\n        /* \"#utility.yul\":16330:16363   */\n      calldataload\n        /* \"#utility.yul\":16390:16408   */\n      0xffffffffffffffff\n        /* \"#utility.yul\":16382:16388   */\n      dup2\n        /* \"#utility.yul\":16379:16409   */\n      gt\n        /* \"#utility.yul\":16376:16493   */\n      iszero\n      tag_403\n      jumpi\n        /* \"#utility.yul\":16412:16491   */\n      tag_404\n      tag_229\n      jump\t// in\n    tag_404:\n        /* \"#utility.yul\":16376:16493   */\n    tag_403:\n        /* \"#utility.yul\":16517:16580   */\n      tag_405\n        /* \"#utility.yul\":16572:16579   */\n      dup13\n        /* \"#utility.yul\":16563:16569   */\n      dup3\n        /* \"#utility.yul\":16552:16561   */\n      dup14\n        /* \"#utility.yul\":16548:16570   */\n      add\n        /* \"#utility.yul\":16517:16580   */\n      tag_260\n      jump\t// in\n    tag_405:\n        /* \"#utility.yul\":16507:16580   */\n      swap6\n      pop\n        /* \"#utility.yul\":16301:16590   */\n      pop\n        /* \"#utility.yul\":16657:16660   */\n      0xa0\n        /* \"#utility.yul\":16646:16655   */\n      dup11\n        /* \"#utility.yul\":16642:16661   */\n      add\n        /* \"#utility.yul\":16629:16662   */\n      calldataload\n        /* \"#utility.yul\":16689:16707   */\n      0xffffffffffffffff\n        /* \"#utility.yul\":16681:16687   */\n      dup2\n        /* \"#utility.yul\":16678:16708   */\n      gt\n        /* \"#utility.yul\":16675:16792   */\n      iszero\n      tag_406\n      jumpi\n        /* \"#utility.yul\":16711:16790   */\n      tag_407\n      tag_229\n      jump\t// in\n    tag_407:\n        /* \"#utility.yul\":16675:16792   */\n    tag_406:\n        /* \"#utility.yul\":16816:16879   */\n      tag_408\n        /* \"#utility.yul\":16871:16878   */\n      dup13\n        /* \"#utility.yul\":16862:16868   */\n      dup3\n        /* \"#utility.yul\":16851:16860   */\n      dup14\n        /* \"#utility.yul\":16847:16869   */\n      add\n        /* \"#utility.yul\":16816:16879   */\n      tag_260\n      jump\t// in\n    tag_408:\n        /* \"#utility.yul\":16806:16879   */\n      swap5\n      pop\n        /* \"#utility.yul\":16600:16889   */\n      pop\n        /* \"#utility.yul\":16956:16959   */\n      0xc0\n        /* \"#utility.yul\":16945:16954   */\n      dup11\n        /* \"#utility.yul\":16941:16960   */\n      add\n        /* \"#utility.yul\":16928:16961   */\n      calldataload\n        /* \"#utility.yul\":16988:17006   */\n      0xffffffffffffffff\n        /* \"#utility.yul\":16980:16986   */\n      dup2\n        /* \"#utility.yul\":16977:17007   */\n      gt\n        /* \"#utility.yul\":16974:17091   */\n      iszero\n      tag_409\n      jumpi\n        /* \"#utility.yul\":17010:17089   */\n      tag_410\n      tag_229\n      jump\t// in\n    tag_410:\n        /* \"#utility.yul\":16974:17091   */\n    tag_409:\n        /* \"#utility.yul\":17115:17178   */\n      tag_411\n        /* \"#utility.yul\":17170:17177   */\n      dup13\n        /* \"#utility.yul\":17161:17167   */\n      dup3\n        /* \"#utility.yul\":17150:17159   */\n      dup14\n        /* \"#utility.yul\":17146:17168   */\n      add\n        /* \"#utility.yul\":17115:17178   */\n      tag_260\n      jump\t// in\n    tag_411:\n        /* \"#utility.yul\":17105:17178   */\n      swap4\n      pop\n        /* \"#utility.yul\":16899:17188   */\n      pop\n        /* \"#utility.yul\":17227:17230   */\n      0xe0\n        /* \"#utility.yul\":17254:17307   */\n      tag_412\n        /* \"#utility.yul\":17299:17306   */\n      dup13\n        /* \"#utility.yul\":17290:17296   */\n      dup3\n        /* \"#utility.yul\":17279:17288   */\n      dup14\n        /* \"#utility.yul\":17275:17297   */\n      add\n        /* \"#utility.yul\":17254:17307   */\n      tag_232\n      jump\t// in\n    tag_412:\n        /* \"#utility.yul\":17244:17307   */\n      swap3\n      pop\n        /* \"#utility.yul\":17198:17317   */\n      pop\n        /* \"#utility.yul\":17356:17359   */\n      0x0100\n        /* \"#utility.yul\":17383:17434   */\n      tag_413\n        /* \"#utility.yul\":17426:17433   */\n      dup13\n        /* \"#utility.yul\":17417:17423   */\n      dup3\n        /* \"#utility.yul\":17406:17415   */\n      dup14\n        /* \"#utility.yul\":17402:17424   */\n      add\n        /* \"#utility.yul\":17383:17434   */\n      tag_262\n      jump\t// in\n    tag_413:\n        /* \"#utility.yul\":17373:17434   */\n      swap2\n      pop\n        /* \"#utility.yul\":17327:17444   */\n      pop\n        /* \"#utility.yul\":15064:17451   */\n      swap3\n      swap6\n      swap9\n      pop\n      swap3\n      swap6\n      swap9\n      pop\n      swap3\n      swap6\n      swap9\n      jump\t// out\n        /* \"#utility.yul\":17457:20028   */\n    tag_21:\n        /* \"#utility.yul\":17646:17652   */\n      0x00\n        /* \"#utility.yul\":17654:17660   */\n      0x00\n        /* \"#utility.yul\":17662:17668   */\n      0x00\n        /* \"#utility.yul\":17670:17676   */\n      0x00\n        /* \"#utility.yul\":17678:17684   */\n      0x00\n        /* \"#utility.yul\":17686:17692   */\n      0x00\n        /* \"#utility.yul\":17694:17700   */\n      0x00\n        /* \"#utility.yul\":17702:17708   */\n      0x00\n        /* \"#utility.yul\":17710:17716   */\n      0x00\n        /* \"#utility.yul\":17759:17762   */\n      0x0120\n        /* \"#utility.yul\":17747:17756   */\n      dup11\n        /* \"#utility.yul\":17738:17745   */\n      dup13\n        /* \"#utility.yul\":17734:17757   */\n      sub\n        /* \"#utility.yul\":17730:17763   */\n      slt\n        /* \"#utility.yul\":17727:17847   */\n      iszero\n      tag_415\n      jumpi\n        /* \"#utility.yul\":17766:17845   */\n      tag_416\n      tag_228\n      jump\t// in\n    tag_416:\n        /* \"#utility.yul\":17727:17847   */\n    tag_415:\n        /* \"#utility.yul\":17886:17887   */\n      0x00\n        /* \"#utility.yul\":17911:17964   */\n      tag_417\n        /* \"#utility.yul\":17956:17963   */\n      dup13\n        /* \"#utility.yul\":17947:17953   */\n      dup3\n        /* \"#utility.yul\":17936:17945   */\n      dup14\n        /* \"#utility.yul\":17932:17954   */\n      add\n        /* \"#utility.yul\":17911:17964   */\n      tag_232\n      jump\t// in\n    tag_417:\n        /* \"#utility.yul\":17901:17964   */\n      swap10\n      pop\n        /* \"#utility.yul\":17857:17974   */\n      pop\n        /* \"#utility.yul\":18041:18043   */\n      0x20\n        /* \"#utility.yul\":18030:18039   */\n      dup11\n        /* \"#utility.yul\":18026:18044   */\n      add\n        /* \"#utility.yul\":18013:18045   */\n      calldataload\n        /* \"#utility.yul\":18072:18090   */\n      0xffffffffffffffff\n        /* \"#utility.yul\":18064:18070   */\n      dup2\n        /* \"#utility.yul\":18061:18091   */\n      gt\n        /* \"#utility.yul\":18058:18175   */\n      iszero\n      tag_418\n      jumpi\n        /* \"#utility.yul\":18094:18173   */\n      tag_419\n      tag_229\n      jump\t// in\n    tag_419:\n        /* \"#utility.yul\":18058:18175   */\n    tag_418:\n        /* \"#utility.yul\":18199:18262   */\n      tag_420\n        /* \"#utility.yul\":18254:18261   */\n      dup13\n        /* \"#utility.yul\":18245:18251   */\n      dup3\n        /* \"#utility.yul\":18234:18243   */\n      dup14\n        /* \"#utility.yul\":18230:18252   */\n      add\n        /* \"#utility.yul\":18199:18262   */\n      tag_260\n      jump\t// in\n    tag_420:\n        /* \"#utility.yul\":18189:18262   */\n      swap9\n      pop\n        /* \"#utility.yul\":17984:18272   */\n      pop\n        /* \"#utility.yul\":18311:18313   */\n      0x40\n        /* \"#utility.yul\":18337:18388   */\n      tag_421\n        /* \"#utility.yul\":18380:18387   */\n      dup13\n        /* \"#utility.yul\":18371:18377   */\n      dup3\n        /* \"#utility.yul\":18360:18369   */\n      dup14\n        /* \"#utility.yul\":18356:18378   */\n      add\n        /* \"#utility.yul\":18337:18388   */\n      tag_262\n      jump\t// in\n    tag_421:\n        /* \"#utility.yul\":18327:18388   */\n      swap8\n      pop\n        /* \"#utility.yul\":18282:18398   */\n      pop\n        /* \"#utility.yul\":18465:18467   */\n      0x60\n        /* \"#utility.yul\":18454:18463   */\n      dup11\n        /* \"#utility.yul\":18450:18468   */\n      add\n        /* \"#utility.yul\":18437:18469   */\n      calldataload\n        /* \"#utility.yul\":18496:18514   */\n      0xffffffffffffffff\n        /* \"#utility.yul\":18488:18494   */\n      dup2\n        /* \"#utility.yul\":18485:18515   */\n      gt\n        /* \"#utility.yul\":18482:18599   */\n      iszero\n      tag_422\n      jumpi\n        /* \"#utility.yul\":18518:18597   */\n      tag_423\n      tag_229\n      jump\t// in\n    tag_423:\n        /* \"#utility.yul\":18482:18599   */\n    tag_422:\n        /* \"#utility.yul\":18623:18686   */\n      tag_424\n        /* \"#utility.yul\":18678:18685   */\n      dup13\n        /* \"#utility.yul\":18669:18675   */\n      dup3\n        /* \"#utility.yul\":18658:18667   */\n      dup14\n        /* \"#utility.yul\":18654:18676   */\n      add\n        /* \"#utility.yul\":18623:18686   */\n      tag_260\n      jump\t// in\n    tag_424:\n        /* \"#utility.yul\":18613:18686   */\n      swap7\n      pop\n        /* \"#utility.yul\":18408:18696   */\n      pop\n        /* \"#utility.yul\":18763:18766   */\n      0x80\n        /* \"#utility.yul\":18752:18761   */\n      dup11\n        /* \"#utility.yul\":18748:18767   */\n      add\n        /* \"#utility.yul\":18735:18768   */\n      calldataload\n        /* \"#utility.yul\":18795:18813   */\n      0xffffffffffffffff\n        /* \"#utility.yul\":18787:18793   */\n      dup2\n        /* \"#utility.yul\":18784:18814   */\n      gt\n        /* \"#utility.yul\":18781:18898   */\n      iszero\n      tag_425\n      jumpi\n        /* \"#utility.yul\":18817:18896   */\n      tag_426\n      tag_229\n      jump\t// in\n    tag_426:\n        /* \"#utility.yul\":18781:18898   */\n    tag_425:\n        /* \"#utility.yul\":18922:18985   */\n      tag_427\n        /* \"#utility.yul\":18977:18984   */\n      dup13\n        /* \"#utility.yul\":18968:18974   */\n      dup3\n        /* \"#utility.yul\":18957:18966   */\n      dup14\n        /* \"#utility.yul\":18953:18975   */\n      add\n        /* \"#utility.yul\":18922:18985   */\n      tag_260\n      jump\t// in\n    tag_427:\n        /* \"#utility.yul\":18912:18985   */\n      swap6\n      pop\n        /* \"#utility.yul\":18706:18995   */\n      pop\n        /* \"#utility.yul\":19062:19065   */\n      0xa0\n        /* \"#utility.yul\":19051:19060   */\n      dup11\n        /* \"#utility.yul\":19047:19066   */\n      add\n        /* \"#utility.yul\":19034:19067   */\n      calldataload\n        /* \"#utility.yul\":19094:19112   */\n      0xffffffffffffffff\n        /* \"#utility.yul\":19086:19092   */\n      dup2\n        /* \"#utility.yul\":19083:19113   */\n      gt\n        /* \"#utility.yul\":19080:19197   */\n      iszero\n      tag_428\n      jumpi\n        /* \"#utility.yul\":19116:19195   */\n      tag_429\n      tag_229\n      jump\t// in\n    tag_429:\n        /* \"#utility.yul\":19080:19197   */\n    tag_428:\n        /* \"#utility.yul\":19221:19284   */\n      tag_430\n        /* \"#utility.yul\":19276:19283   */\n      dup13\n        /* \"#utility.yul\":19267:19273   */\n      dup3\n        /* \"#utility.yul\":19256:19265   */\n      dup14\n        /* \"#utility.yul\":19252:19274   */\n      add\n        /* \"#utility.yul\":19221:19284   */\n      tag_260\n      jump\t// in\n    tag_430:\n        /* \"#utility.yul\":19211:19284   */\n      swap5\n      pop\n        /* \"#utility.yul\":19005:19294   */\n      pop\n        /* \"#utility.yul\":19361:19364   */\n      0xc0\n        /* \"#utility.yul\":19350:19359   */\n      dup11\n        /* \"#utility.yul\":19346:19365   */\n      add\n        /* \"#utility.yul\":19333:19366   */\n      calldataload\n        /* \"#utility.yul\":19393:19411   */\n      0xffffffffffffffff\n        /* \"#utility.yul\":19385:19391   */\n      dup2\n        /* \"#utility.yul\":19382:19412   */\n      gt\n        /* \"#utility.yul\":19379:19496   */\n      iszero\n      tag_431\n      jumpi\n        /* \"#utility.yul\":19415:19494   */\n      tag_432\n      tag_229\n      jump\t// in\n    tag_432:\n        /* \"#utility.yul\":19379:19496   */\n    tag_431:\n        /* \"#utility.yul\":19520:19583   */\n      tag_433\n        /* \"#utility.yul\":19575:19582   */\n      dup13\n        /* \"#utility.yul\":19566:19572   */\n      dup3\n        /* \"#utility.yul\":19555:19564   */\n      dup14\n        /* \"#utility.yul\":19551:19573   */\n      add\n        /* \"#utility.yul\":19520:19583   */\n      tag_260\n      jump\t// in\n    tag_433:\n        /* \"#utility.yul\":19510:19583   */\n      swap4\n      pop\n        /* \"#utility.yul\":19304:19593   */\n      pop\n        /* \"#utility.yul\":19632:19635   */\n      0xe0\n        /* \"#utility.yul\":19659:19712   */\n      tag_434\n        /* \"#utility.yul\":19704:19711   */\n      dup13\n        /* \"#utility.yul\":19695:19701   */\n      dup3\n        /* \"#utility.yul\":19684:19693   */\n      dup14\n        /* \"#utility.yul\":19680:19702   */\n      add\n        /* \"#utility.yul\":19659:19712   */\n      tag_232\n      jump\t// in\n    tag_434:\n        /* \"#utility.yul\":19649:19712   */\n      swap3\n      pop\n        /* \"#utility.yul\":19603:19722   */\n      pop\n        /* \"#utility.yul\":19789:19792   */\n      0x0100\n        /* \"#utility.yul\":19778:19787   */\n      dup11\n        /* \"#utility.yul\":19774:19793   */\n      add\n        /* \"#utility.yul\":19761:19794   */\n      calldataload\n        /* \"#utility.yul\":19821:19839   */\n      0xffffffffffffffff\n        /* \"#utility.yul\":19813:19819   */\n      dup2\n        /* \"#utility.yul\":19810:19840   */\n      gt\n        /* \"#utility.yul\":19807:19924   */\n      iszero\n      tag_435\n      jumpi\n        /* \"#utility.yul\":19843:19922   */\n      tag_436\n      tag_229\n      jump\t// in\n    tag_436:\n        /* \"#utility.yul\":19807:19924   */\n    tag_435:\n        /* \"#utility.yul\":19948:20011   */\n      tag_437\n        /* \"#utility.yul\":20003:20010   */\n      dup13\n        /* \"#utility.yul\":19994:20000   */\n      dup3\n        /* \"#utility.yul\":19983:19992   */\n      dup14\n        /* \"#utility.yul\":19979:20001   */\n      add\n        /* \"#utility.yul\":19948:20011   */\n      tag_260\n      jump\t// in\n    tag_437:\n        /* \"#utility.yul\":19938:20011   */\n      swap2\n      pop\n        /* \"#utility.yul\":19732:20021   */\n      pop\n        /* \"#utility.yul\":17457:20028   */\n      swap3\n      swap6\n      swap9\n      pop\n      swap3\n      swap6\n      swap9\n      pop\n      swap3\n      swap6\n      swap9\n      jump\t// out\n        /* \"#utility.yul\":20034:22095   */\n    tag_25:\n        /* \"#utility.yul\":20192:20198   */\n      0x00\n        /* \"#utility.yul\":20200:20206   */\n      0x00\n        /* \"#utility.yul\":20208:20214   */\n      0x00\n        /* \"#utility.yul\":20216:20222   */\n      0x00\n        /* \"#utility.yul\":20224:20230   */\n      0x00\n        /* \"#utility.yul\":20232:20238   */\n      0x00\n        /* \"#utility.yul\":20240:20246   */\n      0x00\n        /* \"#utility.yul\":20248:20254   */\n      0x00\n        /* \"#utility.yul\":20297:20300   */\n      0x0100\n        /* \"#utility.yul\":20285:20294   */\n      dup10\n        /* \"#utility.yul\":20276:20283   */\n      dup12\n        /* \"#utility.yul\":20272:20295   */\n      sub\n        /* \"#utility.yul\":20268:20301   */\n      slt\n        /* \"#utility.yul\":20265:20385   */\n      iszero\n      tag_439\n      jumpi\n        /* \"#utility.yul\":20304:20383   */\n      tag_440\n      tag_228\n      jump\t// in\n    tag_440:\n        /* \"#utility.yul\":20265:20385   */\n    tag_439:\n        /* \"#utility.yul\":20424:20425   */\n      0x00\n        /* \"#utility.yul\":20449:20502   */\n      tag_441\n        /* \"#utility.yul\":20494:20501   */\n      dup12\n        /* \"#utility.yul\":20485:20491   */\n      dup3\n        /* \"#utility.yul\":20474:20483   */\n      dup13\n        /* \"#utility.yul\":20470:20492   */\n      add\n        /* \"#utility.yul\":20449:20502   */\n      tag_232\n      jump\t// in\n    tag_441:\n        /* \"#utility.yul\":20439:20502   */\n      swap9\n      pop\n        /* \"#utility.yul\":20395:20512   */\n      pop\n        /* \"#utility.yul\":20579:20581   */\n      0x20\n        /* \"#utility.yul\":20568:20577   */\n      dup10\n        /* \"#utility.yul\":20564:20582   */\n      add\n        /* \"#utility.yul\":20551:20583   */\n      calldataload\n        /* \"#utility.yul\":20610:20628   */\n      0xffffffffffffffff\n        /* \"#utility.yul\":20602:20608   */\n      dup2\n        /* \"#utility.yul\":20599:20629   */\n      gt\n        /* \"#utility.yul\":20596:20713   */\n      iszero\n      tag_442\n      jumpi\n        /* \"#utility.yul\":20632:20711   */\n      tag_443\n      tag_229\n      jump\t// in\n    tag_443:\n        /* \"#utility.yul\":20596:20713   */\n    tag_442:\n        /* \"#utility.yul\":20737:20800   */\n      tag_444\n        /* \"#utility.yul\":20792:20799   */\n      dup12\n        /* \"#utility.yul\":20783:20789   */\n      dup3\n        /* \"#utility.yul\":20772:20781   */\n      dup13\n        /* \"#utility.yul\":20768:20790   */\n      add\n        /* \"#utility.yul\":20737:20800   */\n      tag_260\n      jump\t// in\n    tag_444:\n        /* \"#utility.yul\":20727:20800   */\n      swap8\n      pop\n        /* \"#utility.yul\":20522:20810   */\n      pop\n        /* \"#utility.yul\":20849:20851   */\n      0x40\n        /* \"#utility.yul\":20875:20926   */\n      tag_445\n        /* \"#utility.yul\":20918:20925   */\n      dup12\n        /* \"#utility.yul\":20909:20915   */\n      dup3\n        /* \"#utility.yul\":20898:20907   */\n      dup13\n        /* \"#utility.yul\":20894:20916   */\n      add\n        /* \"#utility.yul\":20875:20926   */\n      tag_262\n      jump\t// in\n    tag_445:\n        /* \"#utility.yul\":20865:20926   */\n      swap7\n      pop\n        /* \"#utility.yul\":20820:20936   */\n      pop\n        /* \"#utility.yul\":21003:21005   */\n      0x60\n        /* \"#utility.yul\":20992:21001   */\n      dup10\n        /* \"#utility.yul\":20988:21006   */\n      add\n        /* \"#utility.yul\":20975:21007   */\n      calldataload\n        /* \"#utility.yul\":21034:21052   */\n      0xffffffffffffffff\n        /* \"#utility.yul\":21026:21032   */\n      dup2\n        /* \"#utility.yul\":21023:21053   */\n      gt\n        /* \"#utility.yul\":21020:21137   */\n      iszero\n      tag_446\n      jumpi\n        /* \"#utility.yul\":21056:21135   */\n      tag_447\n      tag_229\n      jump\t// in\n    tag_447:\n        /* \"#utility.yul\":21020:21137   */\n    tag_446:\n        /* \"#utility.yul\":21161:21224   */\n      tag_448\n        /* \"#utility.yul\":21216:21223   */\n      dup12\n        /* \"#utility.yul\":21207:21213   */\n      dup3\n        /* \"#utility.yul\":21196:21205   */\n      dup13\n        /* \"#utility.yul\":21192:21214   */\n      add\n        /* \"#utility.yul\":21161:21224   */\n      tag_260\n      jump\t// in\n    tag_448:\n        /* \"#utility.yul\":21151:21224   */\n      swap6\n      pop\n        /* \"#utility.yul\":20946:21234   */\n      pop\n        /* \"#utility.yul\":21301:21304   */\n      0x80\n        /* \"#utility.yul\":21290:21299   */\n      dup10\n        /* \"#utility.yul\":21286:21305   */\n      add\n        /* \"#utility.yul\":21273:21306   */\n      calldataload\n        /* \"#utility.yul\":21333:21351   */\n      0xffffffffffffffff\n        /* \"#utility.yul\":21325:21331   */\n      dup2\n        /* \"#utility.yul\":21322:21352   */\n      gt\n        /* \"#utility.yul\":21319:21436   */\n      iszero\n      tag_449\n      jumpi\n        /* \"#utility.yul\":21355:21434   */\n      tag_450\n      tag_229\n      jump\t// in\n    tag_450:\n        /* \"#utility.yul\":21319:21436   */\n    tag_449:\n        /* \"#utility.yul\":21460:21523   */\n      tag_451\n        /* \"#utility.yul\":21515:21522   */\n      dup12\n        /* \"#utility.yul\":21506:21512   */\n      dup3\n        /* \"#utility.yul\":21495:21504   */\n      dup13\n        /* \"#utility.yul\":21491:21513   */\n      add\n        /* \"#utility.yul\":21460:21523   */\n      tag_260\n      jump\t// in\n    tag_451:\n        /* \"#utility.yul\":21450:21523   */\n      swap5\n      pop\n        /* \"#utility.yul\":21244:21533   */\n      pop\n        /* \"#utility.yul\":21600:21603   */\n      0xa0\n        /* \"#utility.yul\":21589:21598   */\n      dup10\n        /* \"#utility.yul\":21585:21604   */\n      add\n        /* \"#utility.yul\":21572:21605   */\n      calldataload\n        /* \"#utility.yul\":21632:21650   */\n      0xffffffffffffffff\n        /* \"#utility.yul\":21624:21630   */\n      dup2\n        /* \"#utility.yul\":21621:21651   */\n      gt\n        /* \"#utility.yul\":21618:21735   */\n      iszero\n      tag_452\n      jumpi\n        /* \"#utility.yul\":21654:21733   */\n      tag_453\n      tag_229\n      jump\t// in\n    tag_453:\n        /* \"#utility.yul\":21618:21735   */\n    tag_452:\n        /* \"#utility.yul\":21759:21822   */\n      tag_454\n        /* \"#utility.yul\":21814:21821   */\n      dup12\n        /* \"#utility.yul\":21805:21811   */\n      dup3\n        /* \"#utility.yul\":21794:21803   */\n      dup13\n        /* \"#utility.yul\":21790:21812   */\n      add\n        /* \"#utility.yul\":21759:21822   */\n      tag_260\n      jump\t// in\n    tag_454:\n        /* \"#utility.yul\":21749:21822   */\n      swap4\n      pop\n        /* \"#utility.yul\":21543:21832   */\n      pop\n        /* \"#utility.yul\":21871:21874   */\n      0xc0\n        /* \"#utility.yul\":21898:21951   */\n      tag_455\n        /* \"#utility.yul\":21943:21950   */\n      dup12\n        /* \"#utility.yul\":21934:21940   */\n      dup3\n        /* \"#utility.yul\":21923:21932   */\n      dup13\n        /* \"#utility.yul\":21919:21941   */\n      add\n        /* \"#utility.yul\":21898:21951   */\n      tag_232\n      jump\t// in\n    tag_455:\n        /* \"#utility.yul\":21888:21951   */\n      swap3\n      pop\n        /* \"#utility.yul\":21842:21961   */\n      pop\n        /* \"#utility.yul\":22000:22003   */\n      0xe0\n        /* \"#utility.yul\":22027:22078   */\n      tag_456\n        /* \"#utility.yul\":22070:22077   */\n      dup12\n        /* \"#utility.yul\":22061:22067   */\n      dup3\n        /* \"#utility.yul\":22050:22059   */\n      dup13\n        /* \"#utility.yul\":22046:22068   */\n      add\n        /* \"#utility.yul\":22027:22078   */\n      tag_262\n      jump\t// in\n    tag_456:\n        /* \"#utility.yul\":22017:22078   */\n      swap2\n      pop\n        /* \"#utility.yul\":21971:22088   */\n      pop\n        /* \"#utility.yul\":20034:22095   */\n      swap3\n      swap6\n      swap9\n      pop\n      swap3\n      swap6\n      swap9\n      swap1\n      swap4\n      swap7\n      pop\n      jump\t// out\n        /* \"#utility.yul\":22101:22281   */\n    tag_263:\n        /* \"#utility.yul\":22149:22226   */\n      0x4e487b7100000000000000000000000000000000000000000000000000000000\n        /* \"#utility.yul\":22146:22147   */\n      0x00\n        /* \"#utility.yul\":22139:22227   */\n      mstore\n        /* \"#utility.yul\":22246:22250   */\n      0x22\n        /* \"#utility.yul\":22243:22244   */\n      0x04\n        /* \"#utility.yul\":22236:22251   */\n      mstore\n        /* \"#utility.yul\":22270:22274   */\n      0x24\n        /* \"#utility.yul\":22267:22268   */\n      0x00\n        /* \"#utility.yul\":22260:22275   */\n      revert\n        /* \"#utility.yul\":22287:22607   */\n    tag_34:\n        /* \"#utility.yul\":22331:22337   */\n      0x00\n        /* \"#utility.yul\":22368:22369   */\n      0x02\n        /* \"#utility.yul\":22362:22366   */\n      dup3\n        /* \"#utility.yul\":22358:22370   */\n      div\n        /* \"#utility.yul\":22348:22370   */\n      swap1\n      pop\n        /* \"#utility.yul\":22415:22416   */\n      0x01\n        /* \"#utility.yul\":22409:22413   */\n      dup3\n        /* \"#utility.yul\":22405:22417   */\n      and\n        /* \"#utility.yul\":22436:22454   */\n      dup1\n        /* \"#utility.yul\":22426:22507   */\n      tag_459\n      jumpi\n        /* \"#utility.yul\":22492:22496   */\n      0x7f\n        /* \"#utility.yul\":22484:22490   */\n      dup3\n        /* \"#utility.yul\":22480:22497   */\n      and\n        /* \"#utility.yul\":22470:22497   */\n      swap2\n      pop\n        /* \"#utility.yul\":22426:22507   */\n    tag_459:\n        /* \"#utility.yul\":22554:22556   */\n      0x20\n        /* \"#utility.yul\":22546:22552   */\n      dup3\n        /* \"#utility.yul\":22543:22557   */\n      lt\n        /* \"#utility.yul\":22523:22541   */\n      dup2\n        /* \"#utility.yul\":22520:22558   */\n      sub\n        /* \"#utility.yul\":22517:22601   */\n      tag_460\n      jumpi\n        /* \"#utility.yul\":22573:22591   */\n      tag_461\n      tag_263\n      jump\t// in\n    tag_461:\n        /* \"#utility.yul\":22517:22601   */\n    tag_460:\n        /* \"#utility.yul\":22338:22607   */\n      pop\n        /* \"#utility.yul\":22287:22607   */\n      swap2\n      swap1\n      pop\n      jump\t// out\n        /* \"#utility.yul\":22613:22793   */\n    tag_264:\n        /* \"#utility.yul\":22661:22738   */\n      0x4e487b7100000000000000000000000000000000000000000000000000000000\n        /* \"#utility.yul\":22658:22659   */\n      0x00\n        /* \"#utility.yul\":22651:22739   */\n      mstore\n        /* \"#utility.yul\":22758:22762   */\n      0x11\n        /* \"#utility.yul\":22755:22756   */\n      0x04\n        /* \"#utility.yul\":22748:22763   */\n      mstore\n        /* \"#utility.yul\":22782:22786   */\n      0x24\n        /* \"#utility.yul\":22779:22780   */\n      0x00\n        /* \"#utility.yul\":22772:22787   */\n      revert\n        /* \"#utility.yul\":22799:23032   */\n    tag_116:\n        /* \"#utility.yul\":22838:22841   */\n      0x00\n        /* \"#utility.yul\":22861:22885   */\n      tag_464\n        /* \"#utility.yul\":22879:22884   */\n      dup3\n        /* \"#utility.yul\":22861:22885   */\n      tag_230\n      jump\t// in\n    tag_464:\n        /* \"#utility.yul\":22852:22885   */\n      swap2\n      pop\n        /* \"#utility.yul\":22907:22973   */\n      0xffffffffffffffffffffffffffffffffffffffffffffffffffffffffffffffff\n        /* \"#utility.yul\":22900:22905   */\n      dup3\n        /* \"#utility.yul\":22897:22974   */\n      sub\n        /* \"#utility.yul\":22894:22997   */\n      tag_465\n      jumpi\n        /* \"#utility.yul\":22977:22995   */\n      tag_466\n      tag_264\n      jump\t// in\n    tag_466:\n        /* \"#utility.yul\":22894:22997   */\n    tag_465:\n        /* \"#utility.yul\":23024:23025   */\n      0x01\n        /* \"#utility.yul\":23017:23022   */\n      dup3\n        /* \"#utility.yul\":23013:23026   */\n      add\n        /* \"#utility.yul\":23006:23026   */\n      swap1\n      pop\n        /* \"#utility.yul\":22799:23032   */\n      swap2\n      swap1\n      pop\n      jump\t// out\n        /* \"#utility.yul\":23038:23179   */\n    tag_265:\n        /* \"#utility.yul\":23087:23091   */\n      0x00\n        /* \"#utility.yul\":23110:23113   */\n      dup2\n        /* \"#utility.yul\":23102:23113   */\n      swap1\n      pop\n        /* \"#utility.yul\":23133:23136   */\n      dup2\n        /* \"#utility.yul\":23130:23131   */\n      0x00\n        /* \"#utility.yul\":23123:23137   */\n      mstore\n        /* \"#utility.yul\":23167:23171   */\n      0x20\n        /* \"#utility.yul\":23164:23165   */\n      0x00\n        /* \"#utility.yul\":23154:23172   */\n      keccak256\n        /* \"#utility.yul\":23146:23172   */\n      swap1\n      pop\n        /* \"#utility.yul\":23038:23179   */\n      swap2\n      swap1\n      pop\n      jump\t// out\n        /* \"#utility.yul\":23185:23278   */\n    tag_266:\n        /* \"#utility.yul\":23222:23228   */\n      0x00\n        /* \"#utility.yul\":23269:23271   */\n      0x20\n        /* \"#utility.yul\":23264:23266   */\n      0x1f\n        /* \"#utility.yul\":23257:23262   */\n      dup4\n        /* \"#utility.yul\":23253:23267   */\n      add\n        /* \"#utility.yul\":23249:23272   */\n      div\n        /* \"#utility.yul\":23239:23272   */\n      swap1\n      pop\n        /* \"#utility.yul\":23185:23278   */\n      swap2\n      swap1\n      pop\n      jump\t// out\n        /* \"#utility.yul\":23284:23391   */\n    tag_267:\n        /* \"#utility.yul\":23328:23336   */\n      0x00\n        /* \"#utility.yul\":23378:23383   */\n      dup3\n        /* \"#utility.yul\":23372:23376   */\n      dup3\n        /* \"#utility.yul\":23368:23384   */\n      shl\n        /* \"#utility.yul\":23347:23384   */\n      swap1\n      pop\n        /* \"#utility.yul\":23284:23391   */\n      swap3\n      swap2\n      pop\n      pop\n      jump\t// out\n        /* \"#utility.yul\":23397:23790   */\n    tag_268:\n        /* \"#utility.yul\":23466:23472   */\n      0x00\n        /* \"#utility.yul\":23516:23517   */\n      0x08\n        /* \"#utility.yul\":23504:23514   */\n      dup4\n        /* \"#utility.yul\":23500:23518   */\n      mul\n        /* \"#utility.yul\":23539:23636   */\n      tag_471\n        /* \"#utility.yul\":23569:23635   */\n      0xffffffffffffffffffffffffffffffffffffffffffffffffffffffffffffffff\n        /* \"#utility.yul\":23558:23567   */\n      dup3\n        /* \"#utility.yul\":23539:23636   */\n      tag_267\n      jump\t// in\n    tag_471:\n        /* \"#utility.yul\":23657:23696   */\n      tag_472\n        /* \"#utility.yul\":23687:23695   */\n      dup7\n        /* \"#utility.yul\":23676:23685   */\n      dup4\n        /* \"#utility.yul\":23657:23696   */\n      tag_267\n      jump\t// in\n    tag_472:\n        /* \"#utility.yul\":23645:23696   */\n      swap6\n      pop\n        /* \"#utility.yul\":23729:23733   */\n      dup1\n        /* \"#utility.yul\":23725:23734   */\n      not\n        /* \"#utility.yul\":23718:23723   */\n      dup5\n        /* \"#utility.yul\":23714:23735   */\n      and\n        /* \"#utility.yul\":23705:23735   */\n      swap4\n      pop\n        /* \"#utility.yul\":23778:23782   */\n      dup1\n        /* \"#utility.yul\":23768:23776   */\n      dup7\n        /* \"#utility.yul\":23764:23783   */\n      and\n        /* \"#utility.yul\":23757:23762   */\n      dup5\n        /* \"#utility.yul\":23754:23784   */\n      or\n        /* \"#utility.yul\":23744:23784   */\n      swap3\n      pop\n        /* \"#utility.yul\":23473:23790   */\n      pop\n      pop\n        /* \"#utility.yul\":23397:23790   */\n      swap4\n      swap3\n      pop\n      pop\n      pop\n      jump\t// out\n        /* \"#utility.yul\":23796:23856   */\n    tag_269:\n        /* \"#utility.yul\":23824:23827   */\n      0x00\n        /* \"#utility.yul\":23845:23850   */\n      dup2\n        /* \"#utility.yul\":23838:23850   */\n      swap1\n      pop\n        /* \"#utility.yul\":23796:23856   */\n      swap2\n      swap1\n      pop\n      jump\t// out\n        /* \"#utility.yul\":23862:24004   */\n    tag_270:\n        /* \"#utility.yul\":23912:23921   */\n      0x00\n        /* \"#utility.yul\":23945:23998   */\n      tag_475\n        /* \"#utility.yul\":23963:23997   */\n      tag_476\n        /* \"#utility.yul\":23972:23996   */\n      tag_477\n        /* \"#utility.yul\":23990:23995   */\n      dup5\n        /* \"#utility.yul\":23972:23996   */\n      tag_230\n      jump\t// in\n    tag_477:\n        /* \"#utility.yul\":23963:23997   */\n      tag_269\n      jump\t// in\n    tag_476:\n        /* \"#utility.yul\":23945:23998   */\n      tag_230\n      jump\t// in\n    tag_475:\n        /* \"#utility.yul\":23932:23998   */\n      swap1\n      pop\n        /* \"#utility.yul\":23862:24004   */\n      swap2\n      swap1\n      pop\n      jump\t// out\n        /* \"#utility.yul\":24010:24085   */\n    tag_271:\n        /* \"#utility.yul\":24053:24056   */\n      0x00\n        /* \"#utility.yul\":24074:24079   */\n      dup2\n        /* \"#utility.yul\":24067:24079   */\n      swap1\n      pop\n        /* \"#utility.yul\":24010:24085   */\n      swap2\n      swap1\n      pop\n      jump\t// out\n        /* \"#utility.yul\":24091:24360   */\n    tag_272:\n        /* \"#utility.yul\":24201:24240   */\n      tag_480\n        /* \"#utility.yul\":24232:24239   */\n      dup4\n        /* \"#utility.yul\":24201:24240   */\n      tag_270\n      jump\t// in\n    tag_480:\n        /* \"#utility.yul\":24262:24353   */\n      tag_481\n        /* \"#utility.yul\":24311:24352   */\n      tag_482\n        /* \"#utility.yul\":24335:24351   */\n      dup3\n        /* \"#utility.yul\":24311:24352   */\n      tag_271\n      jump\t// in\n    tag_482:\n        /* \"#utility.yul\":24303:24309   */\n      dup5\n        /* \"#utility.yul\":24296:24300   */\n      dup5\n        /* \"#utility.yul\":24290:24301   */\n      sload\n        /* \"#utility.yul\":24262:24353   */\n      tag_268\n      jump\t// in\n    tag_481:\n        /* \"#utility.yul\":24256:24260   */\n      dup3\n        /* \"#utility.yul\":24249:24354   */\n      sstore\n        /* \"#utility.yul\":24167:24360   */\n      pop\n        /* \"#utility.yul\":24091:24360   */\n      pop\n      pop\n      pop\n      jump\t// out\n        /* \"#utility.yul\":24366:24439   */\n    tag_273:\n        /* \"#utility.yul\":24411:24414   */\n      0x00\n        /* \"#utility.yul\":24432:24433   */\n      0x00\n        /* \"#utility.yul\":24425:24433   */\n      swap1\n      pop\n        /* \"#utility.yul\":24366:24439   */\n      swap1\n      jump\t// out\n        /* \"#utility.yul\":24445:24634   */\n    tag_274:\n        /* \"#utility.yul\":24522:24554   */\n      tag_485\n      tag_273\n      jump\t// in\n    tag_485:\n        /* \"#utility.yul\":24563:24628   */\n      tag_486\n        /* \"#utility.yul\":24621:24627   */\n      dup2\n        /* \"#utility.yul\":24613:24619   */\n      dup5\n        /* \"#utility.yul\":24607:24611   */\n      dup5\n        /* \"#utility.yul\":24563:24628   */\n      tag_272\n      jump\t// in\n    tag_486:\n        /* \"#utility.yul\":24498:24634   */\n      pop\n        /* \"#utility.yul\":24445:24634   */\n      pop\n      pop\n      jump\t// out\n        /* \"#utility.yul\":24640:24826   */\n    tag_275:\n        /* \"#utility.yul\":24700:24820   */\n    tag_488:\n        /* \"#utility.yul\":24717:24720   */\n      dup2\n        /* \"#utility.yul\":24710:24715   */\n      dup2\n        /* \"#utility.yul\":24707:24721   */\n      lt\n        /* \"#utility.yul\":24700:24820   */\n      iszero\n      tag_490\n      jumpi\n        /* \"#utility.yul\":24771:24810   */\n      tag_491\n        /* \"#utility.yul\":24808:24809   */\n      0x00\n        /* \"#utility.yul\":24801:24806   */\n      dup3\n        /* \"#utility.yul\":24771:24810   */\n      tag_274\n      jump\t// in\n    tag_491:\n        /* \"#utility.yul\":24744:24745   */\n      0x01\n        /* \"#utility.yul\":24737:24742   */\n      dup2\n        /* \"#utility.yul\":24733:24746   */\n      add\n        /* \"#utility.yul\":24724:24746   */\n      swap1\n      pop\n        /* \"#utility.yul\":24700:24820   */\n      jump(tag_488)\n    tag_490:\n        /* \"#utility.yul\":24640:24826   */\n      pop\n      pop\n      jump\t// out\n        /* \"#utility.yul\":24832:25375   */\n    tag_276:\n        /* \"#utility.yul\":24933:24935   */\n      0x1f\n        /* \"#utility.yul\":24928:24931   */\n      dup3\n        /* \"#utility.yul\":24925:24936   */\n      gt\n        /* \"#utility.yul\":24922:25368   */\n      iszero\n      tag_493\n      jumpi\n        /* \"#utility.yul\":24967:25005   */\n      tag_494\n        /* \"#utility.yul\":24999:25004   */\n      dup2\n        /* \"#utility.yul\":24967:25005   */\n      tag_265\n      jump\t// in\n    tag_494:\n        /* \"#utility.yul\":25051:25080   */\n      tag_495\n        /* \"#utility.yul\":25069:25079   */\n      dup5\n        /* \"#utility.yul\":25051:25080   */\n      tag_266\n      jump\t// in\n    tag_495:\n        /* \"#utility.yul\":25041:25049   */\n      dup2\n        /* \"#utility.yul\":25037:25081   */\n      add\n        /* \"#utility.yul\":25234:25236   */\n      0x20\n        /* \"#utility.yul\":25222:25232   */\n      dup6\n        /* \"#utility.yul\":25219:25237   */\n      lt\n        /* \"#utility.yul\":25216:25265   */\n      iszero\n      tag_496\n      jumpi\n        /* \"#utility.yul\":25255:25263   */\n      dup2\n        /* \"#utility.yul\":25240:25263   */\n      swap1\n      pop\n        /* \"#utility.yul\":25216:25265   */\n    tag_496:\n        /* \"#utility.yul\":25278:25358   */\n      tag_497\n        /* \"#utility.yul\":25334:25356   */\n      tag_498\n        /* \"#utility.yul\":25352:25355   */\n      dup6\n        /* \"#utility.yul\":25334:25356   */\n      tag_266\n      jump\t// in\n    tag_498:\n        /* \"#utility.yul\":25324:25332   */\n      dup4\n        /* \"#utility.yul\":25320:25357   */\n      add\n        /* \"#utility.yul\":25307:25318   */\n      dup3\n        /* \"#utility.yul\":25278:25358   */\n      tag_275\n      jump\t// in\n    tag_497:\n        /* \"#utility.yul\":24937:25368   */\n      pop\n      pop\n        /* \"#utility.yul\":24922:25368   */\n    tag_493:\n        /* \"#utility.yul\":24832:25375   */\n      pop\n      pop\n      pop\n      jump\t// out\n        /* \"#utility.yul\":25381:25498   */\n    tag_277:\n        /* \"#utility.yul\":25435:25443   */\n      0x00\n        /* \"#utility.yul\":25485:25490   */\n      dup3\n        /* \"#utility.yul\":25479:25483   */\n      dup3\n        /* \"#utility.yul\":25475:25491   */\n      shr\n        /* \"#utility.yul\":25454:25491   */\n      swap1\n      pop\n        /* \"#utility.yul\":25381:25498   */\n      swap3\n      swap2\n      pop\n      pop\n      jump\t// out\n        /* \"#utility.yul\":25504:25673   */\n    tag_278:\n        /* \"#utility.yul\":25548:25554   */\n      0x00\n        /* \"#utility.yul\":25581:25632   */\n      tag_501\n        /* \"#utility.yul\":25629:25630   */\n      0x00\n        /* \"#utility.yul\":25625:25631   */\n      not\n        /* \"#utility.yul\":25617:25622   */\n      dup5\n        /* \"#utility.yul\":25614:25615   */\n      0x08\n        /* \"#utility.yul\":25610:25623   */\n      mul\n        /* \"#utility.yul\":25581:25632   */\n      tag_277\n      jump\t// in\n    tag_501:\n        /* \"#utility.yul\":25577:25633   */\n      not\n        /* \"#utility.yul\":25662:25666   */\n      dup1\n        /* \"#utility.yul\":25656:25660   */\n      dup4\n        /* \"#utility.yul\":25652:25667   */\n      and\n        /* \"#utility.yul\":25642:25667   */\n      swap2\n      pop\n        /* \"#utility.yul\":25555:25673   */\n      pop\n        /* \"#utility.yul\":25504:25673   */\n      swap3\n      swap2\n      pop\n      pop\n      jump\t// out\n        /* \"#utility.yul\":25678:25973   */\n    tag_279:\n        /* \"#utility.yul\":25754:25758   */\n      0x00\n        /* \"#utility.yul\":25900:25929   */\n      tag_503\n        /* \"#utility.yul\":25925:25928   */\n      dup4\n        /* \"#utility.yul\":25919:25923   */\n      dup4\n        /* \"#utility.yul\":25900:25929   */\n      tag_278\n      jump\t// in\n    tag_503:\n        /* \"#utility.yul\":25892:25929   */\n      swap2\n      pop\n        /* \"#utility.yul\":25962:25965   */\n      dup3\n        /* \"#utility.yul\":25959:25960   */\n      0x02\n        /* \"#utility.yul\":25955:25966   */\n      mul\n        /* \"#utility.yul\":25949:25953   */\n      dup3\n        /* \"#utility.yul\":25946:25967   */\n      or\n        /* \"#utility.yul\":25938:25967   */\n      swap1\n      pop\n        /* \"#utility.yul\":25678:25973   */\n      swap3\n      swap2\n      pop\n      pop\n      jump\t// out\n        /* \"#utility.yul\":25978:27373   */\n    tag_123:\n        /* \"#utility.yul\":26095:26132   */\n      tag_505\n        /* \"#utility.yul\":26128:26131   */\n      dup3\n        /* \"#utility.yul\":26095:26132   */\n      tag_239\n      jump\t// in\n    tag_505:\n        /* \"#utility.yul\":26197:26215   */\n      0xffffffffffffffff\n        /* \"#utility.yul\":26189:26195   */\n      dup2\n        /* \"#utility.yul\":26186:26216   */\n      gt\n        /* \"#utility.yul\":26183:26239   */\n      iszero\n      tag_506\n      jumpi\n        /* \"#utility.yul\":26219:26237   */\n      tag_507\n      tag_254\n      jump\t// in\n    tag_507:\n        /* \"#utility.yul\":26183:26239   */\n    tag_506:\n        /* \"#utility.yul\":26263:26301   */\n      tag_508\n        /* \"#utility.yul\":26295:26299   */\n      dup3\n        /* \"#utility.yul\":26289:26300   */\n      sload\n        /* \"#utility.yul\":26263:26301   */\n      tag_34\n      jump\t// in\n    tag_508:\n        /* \"#utility.yul\":26348:26415   */\n      tag_509\n        /* \"#utility.yul\":26408:26414   */\n      dup3\n        /* \"#utility.yul\":26400:26406   */\n      dup3\n        /* \"#utility.yul\":26394:26398   */\n      dup6\n        /* \"#utility.yul\":26348:26415   */\n      tag_276\n      jump\t// in\n    tag_509:\n        /* \"#utility.yul\":26442:26443   */\n      0x00\n        /* \"#utility.yul\":26466:26470   */\n      0x20\n        /* \"#utility.yul\":26453:26470   */\n      swap1\n      pop\n        /* \"#utility.yul\":26498:26500   */\n      0x1f\n        /* \"#utility.yul\":26490:26496   */\n      dup4\n        /* \"#utility.yul\":26487:26501   */\n      gt\n        /* \"#utility.yul\":26515:26516   */\n      0x01\n        /* \"#utility.yul\":26510:27128   */\n      dup2\n      eq\n      tag_511\n      jumpi\n        /* \"#utility.yul\":27172:27173   */\n      0x00\n        /* \"#utility.yul\":27189:27195   */\n      dup5\n        /* \"#utility.yul\":27186:27263   */\n      iszero\n      tag_512\n      jumpi\n        /* \"#utility.yul\":27238:27247   */\n      dup3\n        /* \"#utility.yul\":27233:27236   */\n      dup8\n        /* \"#utility.yul\":27229:27248   */\n      add\n        /* \"#utility.yul\":27223:27249   */\n      mload\n        /* \"#utility.yul\":27214:27249   */\n      swap1\n      pop\n        /* \"#utility.yul\":27186:27263   */\n    tag_512:\n        /* \"#utility.yul\":27289:27356   */\n      tag_513\n        /* \"#utility.yul\":27349:27355   */\n      dup6\n        /* \"#utility.yul\":27342:27347   */\n      dup3\n        /* \"#utility.yul\":27289:27356   */\n      tag_279\n      jump\t// in\n    tag_513:\n        /* \"#utility.yul\":27283:27287   */\n      dup7\n        /* \"#utility.yul\":27276:27357   */\n      sstore\n        /* \"#utility.yul\":27145:27367   */\n      pop\n        /* \"#utility.yul\":26480:27367   */\n      jump(tag_510)\n        /* \"#utility.yul\":26510:27128   */\n    tag_511:\n        /* \"#utility.yul\":26562:26566   */\n      0x1f\n        /* \"#utility.yul\":26558:26567   */\n      not\n        /* \"#utility.yul\":26550:26556   */\n      dup5\n        /* \"#utility.yul\":26546:26568   */\n      and\n        /* \"#utility.yul\":26596:26633   */\n      tag_514\n        /* \"#utility.yul\":26628:26632   */\n      dup7\n        /* \"#utility.yul\":26596:26633   */\n      tag_265\n      jump\t// in\n    tag_514:\n        /* \"#utility.yul\":26655:26656   */\n      0x00\n        /* \"#utility.yul\":26669:26877   */\n    tag_515:\n        /* \"#utility.yul\":26683:26690   */\n      dup3\n        /* \"#utility.yul\":26680:26681   */\n      dup2\n        /* \"#utility.yul\":26677:26691   */\n      lt\n        /* \"#utility.yul\":26669:26877   */\n      iszero\n      tag_517\n      jumpi\n        /* \"#utility.yul\":26762:26771   */\n      dup5\n        /* \"#utility.yul\":26757:26760   */\n      dup10\n        /* \"#utility.yul\":26753:26772   */\n      add\n        /* \"#utility.yul\":26747:26773   */\n      mload\n        /* \"#utility.yul\":26739:26745   */\n      dup3\n        /* \"#utility.yul\":26732:26774   */\n      sstore\n        /* \"#utility.yul\":26813:26814   */\n      0x01\n        /* \"#utility.yul\":26805:26811   */\n      dup3\n        /* \"#utility.yul\":26801:26815   */\n      add\n        /* \"#utility.yul\":26791:26815   */\n      swap2\n      pop\n        /* \"#utility.yul\":26860:26862   */\n      0x20\n        /* \"#utility.yul\":26849:26858   */\n      dup6\n        /* \"#utility.yul\":26845:26863   */\n      add\n        /* \"#utility.yul\":26832:26863   */\n      swap5\n      pop\n        /* \"#utility.yul\":26706:26710   */\n      0x20\n        /* \"#utility.yul\":26703:26704   */\n      dup2\n        /* \"#utility.yul\":26699:26711   */\n      add\n        /* \"#utility.yul\":26694:26711   */\n      swap1\n      pop\n        /* \"#utility.yul\":26669:26877   */\n      jump(tag_515)\n    tag_517:\n        /* \"#utility.yul\":26905:26911   */\n      dup7\n        /* \"#utility.yul\":26896:26903   */\n      dup4\n        /* \"#utility.yul\":26893:26912   */\n      lt\n        /* \"#utility.yul\":26890:27069   */\n      iszero\n      tag_518\n      jumpi\n        /* \"#utility.yul\":26963:26972   */\n      dup5\n        /* \"#utility.yul\":26958:26961   */\n      dup10\n        /* \"#utility.yul\":26954:26973   */\n      add\n        /* \"#utility.yul\":26948:26974   */\n      mload\n        /* \"#utility.yul\":27006:27054   */\n      tag_519\n        /* \"#utility.yul\":27048:27052   */\n      0x1f\n        /* \"#utility.yul\":27040:27046   */\n      dup10\n        /* \"#utility.yul\":27036:27053   */\n      and\n        /* \"#utility.yul\":27025:27034   */\n      dup3\n        /* \"#utility.yul\":27006:27054   */\n      tag_278\n      jump\t// in\n    tag_519:\n        /* \"#utility.yul\":26998:27004   */\n      dup4\n        /* \"#utility.yul\":26991:27055   */\n      sstore\n        /* \"#utility.yul\":26913:27069   */\n      pop\n        /* \"#utility.yul\":26890:27069   */\n    tag_518:\n        /* \"#utility.yul\":27115:27116   */\n      0x01\n        /* \"#utility.yul\":27111:27112   */\n      0x02\n        /* \"#utility.yul\":27103:27109   */\n      dup9\n        /* \"#utility.yul\":27099:27113   */\n      mul\n        /* \"#utility.yul\":27095:27117   */\n      add\n        /* \"#utility.yul\":27089:27093   */\n      dup9\n        /* \"#utility.yul\":27082:27118   */\n      sstore\n        /* \"#utility.yul\":26517:27128   */\n      pop\n      pop\n      pop\n        /* \"#utility.yul\":26480:27367   */\n    tag_510:\n      pop\n        /* \"#utility.yul\":26070:27373   */\n      pop\n      pop\n      pop\n        /* \"#utility.yul\":25978:27373   */\n      pop\n      pop\n      jump\t// out\n\n    auxdata: 0xa26469706673582212203e2a98d58e7da6554ca0467726956e8695ac3312af80e4a04c7d50f8298f690d64736f6c634300081b0033\n}\n",
				"bytecode": {
					"linkReferences": {},
					"object": "6080604052348015600e575f5ffd5b506130ab8061001c5f395ff3fe608060405234801561000f575f5ffd5b5060043610610060575f3560e01c80631dab301e146100645780632bf725801461009b5780636621c583146100b7578063a51dd238146100d3578063ea3f423e146100ef578063ed1d25a41461010b575b5f5ffd5b61007e60048036038101906100799190612356565b610127565b60405161009298979695949392919061275c565b60405180910390f35b6100b560048036038101906100b09190612958565b610b75565b005b6100d160048036038101906100cc9190612aa8565b61102c565b005b6100ed60048036038101906100e89190612c14565b6114d5565b005b61010960048036038101906101049190612958565b611999565b005b61012560048036038101906101209190612c14565b611e4f565b005b6001602052805f5260405f205f91509050805f015490806001015f9054906101000a900460ff1690806002016040518060800160405290815f820154815260200160018201805461017790612d62565b80601f01602080910402602001604051908101604052809291908181526020018280546101a390612d62565b80156101ee5780601f106101c5576101008083540402835291602001916101ee565b820191905f5260205f20905b8154815290600101906020018083116101d157829003601f168201915b50505050508152602001600282015f9054906101000a900460ff1660ff1660ff16815260200160038201805461022390612d62565b80601f016020809104026020016040519081016040528092919081815260200182805461024f90612d62565b801561029a5780601f106102715761010080835404028352916020019161029a565b820191905f5260205f20905b81548152906001019060200180831161027d57829003601f168201915b50505050508152505090806006016040518060a00160405290815f820180546102c290612d62565b80601f01602080910402602001604051908101604052809291908181526020018280546102ee90612d62565b80156103395780601f1061031057610100808354040283529160200191610339565b820191905f5260205f20905b81548152906001019060200180831161031c57829003601f168201915b5050505050815260200160018201805461035290612d62565b80601f016020809104026020016040519081016040528092919081815260200182805461037e90612d62565b80156103c95780601f106103a0576101008083540402835291602001916103c9565b820191905f5260205f20905b8154815290600101906020018083116103ac57829003601f168201915b505050505081526020016002820180546103e290612d62565b80601f016020809104026020016040519081016040528092919081815260200182805461040e90612d62565b80156104595780601f1061043057610100808354040283529160200191610459565b820191905f5260205f20905b81548152906001019060200180831161043c57829003601f168201915b5050505050815260200160038201548152602001600482015f9054906101000a900460ff1660ff1660ff16815250509080600b016040518060800160405290815f820180546104a790612d62565b80601f01602080910402602001604051908101604052809291908181526020018280546104d390612d62565b801561051e5780601f106104f55761010080835404028352916020019161051e565b820191905f5260205f20905b81548152906001019060200180831161050157829003601f168201915b5050505050815260200160018201805461053790612d62565b80601f016020809104026020016040519081016040528092919081815260200182805461056390612d62565b80156105ae5780601f10610585576101008083540402835291602001916105ae565b820191905f5260205f20905b81548152906001019060200180831161059157829003601f168201915b5050505050815260200160028201548152602001600382015f9054906101000a900460ff1660ff1660ff16815250509080600f016040518060a00160405290815f820180546105fc90612d62565b80601f016020809104026020016040519081016040528092919081815260200182805461062890612d62565b80156106735780601f1061064a57610100808354040283529160200191610673565b820191905f5260205f20905b81548152906001019060200180831161065657829003601f168201915b5050505050815260200160018201805461068c90612d62565b80601f01602080910402602001604051908101604052809291908181526020018280546106b890612d62565b80156107035780601f106106da57610100808354040283529160200191610703565b820191905f5260205f20905b8154815290600101906020018083116106e657829003601f168201915b5050505050815260200160028201805461071c90612d62565b80601f016020809104026020016040519081016040528092919081815260200182805461074890612d62565b80156107935780601f1061076a57610100808354040283529160200191610793565b820191905f5260205f20905b81548152906001019060200180831161077657829003601f168201915b50505050508152602001600382015481526020016004820180546107b690612d62565b80601f01602080910402602001604051908101604052809291908181526020018280546107e290612d62565b801561082d5780601f106108045761010080835404028352916020019161082d565b820191905f5260205f20905b81548152906001019060200180831161081057829003601f168201915b50505050508152505090806014016040518060a00160405290815f8201805461085590612d62565b80601f016020809104026020016040519081016040528092919081815260200182805461088190612d62565b80156108cc5780601f106108a3576101008083540402835291602001916108cc565b820191905f5260205f20905b8154815290600101906020018083116108af57829003601f168201915b505050505081526020016001820180546108e590612d62565b80601f016020809104026020016040519081016040528092919081815260200182805461091190612d62565b801561095c5780601f106109335761010080835404028352916020019161095c565b820191905f5260205f20905b81548152906001019060200180831161093f57829003601f168201915b5050505050815260200160028201805461097590612d62565b80601f01602080910402602001604051908101604052809291908181526020018280546109a190612d62565b80156109ec5780601f106109c3576101008083540402835291602001916109ec565b820191905f5260205f20905b8154815290600101906020018083116109cf57829003601f168201915b5050505050815260200160038201548152602001600482015f9054906101000a900460ff1660ff1660ff168152505090806019016040518060800160405290815f82018054610a3a90612d62565b80601f0160208091040260200160405190810160405280929190818152602001828054610a6690612d62565b8015610ab15780601f10610a8857610100808354040283529160200191610ab1565b820191905f5260205f20905b815481529060010190602001808311610a9457829003601f168201915b50505050508152602001600182018054610aca90612d62565b80601f0160208091040260200160405190810160405280929190818152602001828054610af690612d62565b8015610b415780601f10610b1857610100808354040283529160200191610b41565b820191905f5260205f20905b815481529060010190602001808311610b2457829003601f168201915b5050505050815260200160028201548152602001600382015f9054906101000a900460ff1660ff1660ff1681525050905088565b5f5f815480929190610b8690612dbf565b91905055505f60405180608001604052808b81526020018a81526020018960ff1681526020018881525090505f6040518060a001604052808881526020018781526020018681526020018581526020018460ff1681525090505f6040518061010001604052805f54815260200160036004811115610c0757610c06612390565b5b81526020018481526020016040518060a0016040528060405180602001604052805f815250815260200160405180602001604052805f815250815260200160405180602001604052805f81525081526020015f81526020015f60ff168152508152602001604051806080016040528060405180602001604052805f815250815260200160405180602001604052805f81525081526020015f81526020015f60ff1681525081526020016040518060a0016040528060405180602001604052805f815250815260200160405180602001604052805f815250815260200160405180602001604052805f81525081526020015f815260200160405180602001604052805f8152508152508152602001838152602001604051806080016040528060405180602001604052805f815250815260200160405180602001604052805f81525081526020015f81526020015f60ff1681525081525090508060015f5f5481526020019081526020015f205f820151815f01556020820151816001015f6101000a81548160ff02191690836004811115610da457610da3612390565b5b02179055506040820151816002015f820151815f01556020820151816001019081610dcf9190612fa6565b506040820151816002015f6101000a81548160ff021916908360ff1602179055506060820151816003019081610e059190612fa6565b5050506060820151816006015f820151815f019081610e249190612fa6565b506020820151816001019081610e3a9190612fa6565b506040820151816002019081610e509190612fa6565b50606082015181600301556080820151816004015f6101000a81548160ff021916908360ff1602179055505050608082015181600b015f820151815f019081610e999190612fa6565b506020820151816001019081610eaf9190612fa6565b50604082015181600201556060820151816003015f6101000a81548160ff021916908360ff160217905550505060a082015181600f015f820151815f019081610ef89190612fa6565b506020820151816001019081610f0e9190612fa6565b506040820151816002019081610f249190612fa6565b50606082015181600301556080820151816004019081610f449190612fa6565b50505060c0820151816014015f820151815f019081610f639190612fa6565b506020820151816001019081610f799190612fa6565b506040820151816002019081610f8f9190612fa6565b50606082015181600301556080820151816004015f6101000a81548160ff021916908360ff160217905550505060e0820151816019015f820151815f019081610fd89190612fa6565b506020820151816001019081610fee9190612fa6565b50604082015181600201556060820151816003015f6101000a81548160ff021916908360ff1602179055505050905050505050505050505050505050565b5f5f81548092919061103d90612dbf565b91905055505f60405180608001604052808b81526020018a81526020018960ff1681526020018881525090505f6040518060a001604052808881526020018781526020018681526020018581526020018481525090505f6040518061010001604052805f548152602001600260048111156110bb576110ba612390565b5b81526020018481526020016040518060a0016040528060405180602001604052805f815250815260200160405180602001604052805f815250815260200160405180602001604052805f81525081526020015f81526020015f60ff168152508152602001604051806080016040528060405180602001604052805f815250815260200160405180602001604052805f81525081526020015f81526020015f60ff1681525081526020018381526020016040518060a0016040528060405180602001604052805f815250815260200160405180602001604052805f815250815260200160405180602001604052805f81525081526020015f81526020015f60ff168152508152602001604051806080016040528060405180602001604052805f815250815260200160405180602001604052805f81525081526020015f81526020015f60ff1681525081525090508060015f5f5481526020019081526020015f205f820151815f01556020820151816001015f6101000a81548160ff0219169083600481111561124d5761124c612390565b5b02179055506040820151816002015f820151815f015560208201518160010190816112789190612fa6565b506040820151816002015f6101000a81548160ff021916908360ff16021790555060608201518160030190816112ae9190612fa6565b5050506060820151816006015f820151815f0190816112cd9190612fa6565b5060208201518160010190816112e39190612fa6565b5060408201518160020190816112f99190612fa6565b50606082015181600301556080820151816004015f6101000a81548160ff021916908360ff1602179055505050608082015181600b015f820151815f0190816113429190612fa6565b5060208201518160010190816113589190612fa6565b50604082015181600201556060820151816003015f6101000a81548160ff021916908360ff160217905550505060a082015181600f015f820151815f0190816113a19190612fa6565b5060208201518160010190816113b79190612fa6565b5060408201518160020190816113cd9190612fa6565b506060820151816003015560808201518160040190816113ed9190612fa6565b50505060c0820151816014015f820151815f01908161140c9190612fa6565b5060208201518160010190816114229190612fa6565b5060408201518160020190816114389190612fa6565b50606082015181600301556080820151816004015f6101000a81548160ff021916908360ff160217905550505060e0820151816019015f820151815f0190816114819190612fa6565b5060208201518160010190816114979190612fa6565b50604082015181600201556060820151816003015f6101000a81548160ff021916908360ff1602179055505050905050505050505050505050505050565b5f5f8154809291906114e690612dbf565b91905055505f60405180608001604052808a81526020018981526020018860ff1681526020018781525090505f60405180608001604052808781526020018681526020018581526020018460ff1681525090505f6040518061010001604052805f5481526020016001600481111561156157611560612390565b5b81526020018481526020016040518060a0016040528060405180602001604052805f815250815260200160405180602001604052805f815250815260200160405180602001604052805f81525081526020015f81526020015f60ff1681525081526020018381526020016040518060a0016040528060405180602001604052805f815250815260200160405180602001604052805f815250815260200160405180602001604052805f81525081526020015f815260200160405180602001604052805f81525081525081526020016040518060a0016040528060405180602001604052805f815250815260200160405180602001604052805f815250815260200160405180602001604052805f81525081526020015f81526020015f60ff168152508152602001604051806080016040528060405180602001604052805f815250815260200160405180602001604052805f81525081526020015f81526020015f60ff1681525081525090508060015f5f5481526020019081526020015f205f820151815f01556020820151816001015f6101000a81548160ff0219169083600481111561171257611711612390565b5b02179055506040820151816002015f820151815f0155602082015181600101908161173d9190612fa6565b506040820151816002015f6101000a81548160ff021916908360ff16021790555060608201518160030190816117739190612fa6565b5050506060820151816006015f820151815f0190816117929190612fa6565b5060208201518160010190816117a89190612fa6565b5060408201518160020190816117be9190612fa6565b50606082015181600301556080820151816004015f6101000a81548160ff021916908360ff1602179055505050608082015181600b015f820151815f0190816118079190612fa6565b50602082015181600101908161181d9190612fa6565b50604082015181600201556060820151816003015f6101000a81548160ff021916908360ff160217905550505060a082015181600f015f820151815f0190816118669190612fa6565b50602082015181600101908161187c9190612fa6565b5060408201518160020190816118929190612fa6565b506060820151816003015560808201518160040190816118b29190612fa6565b50505060c0820151816014015f820151815f0190816118d19190612fa6565b5060208201518160010190816118e79190612fa6565b5060408201518160020190816118fd9190612fa6565b50606082015181600301556080820151816004015f6101000a81548160ff021916908360ff160217905550505060e0820151816019015f820151815f0190816119469190612fa6565b50602082015181600101908161195c9190612fa6565b50604082015181600201556060820151816003015f6101000a81548160ff021916908360ff16021790555050509050505050505050505050505050565b5f5f8154809291906119aa90612dbf565b91905055505f60405180608001604052808b81526020018a81526020018960ff1681526020018881525090505f6040518060a001604052808781526020018881526020018681526020018581526020018460ff1681525090505f6040518061010001604052805f5481526020015f6004811115611a2a57611a29612390565b5b8152602001848152602001838152602001604051806080016040528060405180602001604052805f815250815260200160405180602001604052805f81525081526020015f81526020015f60ff1681525081526020016040518060a0016040528060405180602001604052805f815250815260200160405180602001604052805f815250815260200160405180602001604052805f81525081526020015f815260200160405180602001604052805f81525081525081526020016040518060a0016040528060405180602001604052805f815250815260200160405180602001604052805f815250815260200160405180602001604052805f81525081526020015f81526020015f60ff168152508152602001604051806080016040528060405180602001604052805f815250815260200160405180602001604052805f81525081526020015f81526020015f60ff1681525081525090508060015f5f5481526020019081526020015f205f820151815f01556020820151816001015f6101000a81548160ff02191690836004811115611bc757611bc6612390565b5b02179055506040820151816002015f820151815f01556020820151816001019081611bf29190612fa6565b506040820151816002015f6101000a81548160ff021916908360ff1602179055506060820151816003019081611c289190612fa6565b5050506060820151816006015f820151815f019081611c479190612fa6565b506020820151816001019081611c5d9190612fa6565b506040820151816002019081611c739190612fa6565b50606082015181600301556080820151816004015f6101000a81548160ff021916908360ff1602179055505050608082015181600b015f820151815f019081611cbc9190612fa6565b506020820151816001019081611cd29190612fa6565b50604082015181600201556060820151816003015f6101000a81548160ff021916908360ff160217905550505060a082015181600f015f820151815f019081611d1b9190612fa6565b506020820151816001019081611d319190612fa6565b506040820151816002019081611d479190612fa6565b50606082015181600301556080820151816004019081611d679190612fa6565b50505060c0820151816014015f820151815f019081611d869190612fa6565b506020820151816001019081611d9c9190612fa6565b506040820151816002019081611db29190612fa6565b50606082015181600301556080820151816004015f6101000a81548160ff021916908360ff160217905550505060e0820151816019015f820151815f019081611dfb9190612fa6565b506020820151816001019081611e119190612fa6565b50604082015181600201556060820151816003015f6101000a81548160ff021916908360ff1602179055505050905050505050505050505050505050565b5f5f815480929190611e6090612dbf565b91905055505f60405180608001604052808a81526020018981526020018860ff1681526020018781525090505f60405180608001604052808781526020018681526020018581526020018460ff1681525090505f6040518061010001604052805f548152602001600480811115611eda57611ed9612390565b5b81526020018481526020016040518060a0016040528060405180602001604052805f815250815260200160405180602001604052805f815250815260200160405180602001604052805f81525081526020015f81526020015f60ff168152508152602001604051806080016040528060405180602001604052805f815250815260200160405180602001604052805f81525081526020015f81526020015f60ff1681525081526020016040518060a0016040528060405180602001604052805f815250815260200160405180602001604052805f815250815260200160405180602001604052805f81525081526020015f815260200160405180602001604052805f81525081525081526020016040518060a0016040528060405180602001604052805f815250815260200160405180602001604052805f815250815260200160405180602001604052805f81525081526020015f81526020015f60ff1681525081526020018381525090508060015f5f5481526020019081526020015f205f820151815f01556020820151816001015f6101000a81548160ff0219169083600481111561208b5761208a612390565b5b02179055506040820151816002015f820151815f015560208201518160010190816120b69190612fa6565b506040820151816002015f6101000a81548160ff021916908360ff16021790555060608201518160030190816120ec9190612fa6565b5050506060820151816006015f820151815f01908161210b9190612fa6565b5060208201518160010190816121219190612fa6565b5060408201518160020190816121379190612fa6565b50606082015181600301556080820151816004015f6101000a81548160ff021916908360ff1602179055505050608082015181600b015f820151815f0190816121809190612fa6565b5060208201518160010190816121969190612fa6565b50604082015181600201556060820151816003015f6101000a81548160ff021916908360ff160217905550505060a082015181600f015f820151815f0190816121df9190612fa6565b5060208201518160010190816121f59190612fa6565b50604082015181600201908161220b9190612fa6565b5060608201518160030155608082015181600401908161222b9190612fa6565b50505060c0820151816014015f820151815f01908161224a9190612fa6565b5060208201518160010190816122609190612fa6565b5060408201518160020190816122769190612fa6565b50606082015181600301556080820151816004015f6101000a81548160ff021916908360ff160217905550505060e0820151816019015f820151815f0190816122bf9190612fa6565b5060208201518160010190816122d59190612fa6565b50604082015181600201556060820151816003015f6101000a81548160ff021916908360ff16021790555050509050505050505050505050505050565b5f604051905090565b5f5ffd5b5f5ffd5b5f819050919050565b61233581612323565b811461233f575f5ffd5b50565b5f813590506123508161232c565b92915050565b5f6020828403121561236b5761236a61231b565b5b5f61237884828501612342565b91505092915050565b61238a81612323565b82525050565b7f4e487b71000000000000000000000000000000000000000000000000000000005f52602160045260245ffd5b600581106123ce576123cd612390565b5b50565b5f8190506123de826123bd565b919050565b5f6123ed826123d1565b9050919050565b6123fd816123e3565b82525050565b61240c81612323565b82525050565b5f81519050919050565b5f82825260208201905092915050565b8281835e5f83830152505050565b5f601f19601f8301169050919050565b5f61245482612412565b61245e818561241c565b935061246e81856020860161242c565b6124778161243a565b840191505092915050565b5f60ff82169050919050565b61249781612482565b82525050565b5f608083015f8301516124b25f860182612403565b50602083015184820360208601526124ca828261244a565b91505060408301516124df604086018261248e565b50606083015184820360608601526124f7828261244a565b9150508091505092915050565b5f60a083015f8301518482035f86015261251e828261244a565b91505060208301518482036020860152612538828261244a565b91505060408301518482036040860152612552828261244a565b91505060608301516125676060860182612403565b50608083015161257a608086018261248e565b508091505092915050565b5f608083015f8301518482035f86015261259f828261244a565b915050602083015184820360208601526125b9828261244a565b91505060408301516125ce6040860182612403565b5060608301516125e1606086018261248e565b508091505092915050565b5f60a083015f8301518482035f860152612606828261244a565b91505060208301518482036020860152612620828261244a565b9150506040830151848203604086015261263a828261244a565b915050606083015161264f6060860182612403565b5060808301518482036080860152612667828261244a565b9150508091505092915050565b5f60a083015f8301518482035f86015261268e828261244a565b915050602083015184820360208601526126a8828261244a565b915050604083015184820360408601526126c2828261244a565b91505060608301516126d76060860182612403565b5060808301516126ea608086018261248e565b508091505092915050565b5f608083015f8301518482035f86015261270f828261244a565b91505060208301518482036020860152612729828261244a565b915050604083015161273e6040860182612403565b506060830151612751606086018261248e565b508091505092915050565b5f610100820190506127705f83018b612381565b61277d602083018a6123f4565b818103604083015261278f818961249d565b905081810360608301526127a38188612504565b905081810360808301526127b78187612585565b905081810360a08301526127cb81866125ec565b905081810360c08301526127df8185612674565b905081810360e08301526127f381846126f5565b90509998505050505050505050565b5f5ffd5b5f5ffd5b7f4e487b71000000000000000000000000000000000000000000000000000000005f52604160045260245ffd5b6128408261243a565b810181811067ffffffffffffffff8211171561285f5761285e61280a565b5b80604052505050565b5f612871612312565b905061287d8282612837565b919050565b5f67ffffffffffffffff82111561289c5761289b61280a565b5b6128a58261243a565b9050602081019050919050565b828183375f83830152505050565b5f6128d26128cd84612882565b612868565b9050828152602081018484840111156128ee576128ed612806565b5b6128f98482856128b2565b509392505050565b5f82601f83011261291557612914612802565b5b81356129258482602086016128c0565b91505092915050565b61293781612482565b8114612941575f5ffd5b50565b5f813590506129528161292e565b92915050565b5f5f5f5f5f5f5f5f5f6101208a8c0312156129765761297561231b565b5b5f6129838c828d01612342565b99505060208a013567ffffffffffffffff8111156129a4576129a361231f565b5b6129b08c828d01612901565b98505060406129c18c828d01612944565b97505060608a013567ffffffffffffffff8111156129e2576129e161231f565b5b6129ee8c828d01612901565b96505060808a013567ffffffffffffffff811115612a0f57612a0e61231f565b5b612a1b8c828d01612901565b95505060a08a013567ffffffffffffffff811115612a3c57612a3b61231f565b5b612a488c828d01612901565b94505060c08a013567ffffffffffffffff811115612a6957612a6861231f565b5b612a758c828d01612901565b93505060e0612a868c828d01612342565b925050610100612a988c828d01612944565b9150509295985092959850929598565b5f5f5f5f5f5f5f5f5f6101208a8c031215612ac657612ac561231b565b5b5f612ad38c828d01612342565b99505060208a013567ffffffffffffffff811115612af457612af361231f565b5b612b008c828d01612901565b9850506040612b118c828d01612944565b97505060608a013567ffffffffffffffff811115612b3257612b3161231f565b5b612b3e8c828d01612901565b96505060808a013567ffffffffffffffff811115612b5f57612b5e61231f565b5b612b6b8c828d01612901565b95505060a08a013567ffffffffffffffff811115612b8c57612b8b61231f565b5b612b988c828d01612901565b94505060c08a013567ffffffffffffffff811115612bb957612bb861231f565b5b612bc58c828d01612901565b93505060e0612bd68c828d01612342565b9250506101008a013567ffffffffffffffff811115612bf857612bf761231f565b5b612c048c828d01612901565b9150509295985092959850929598565b5f5f5f5f5f5f5f5f610100898b031215612c3157612c3061231b565b5b5f612c3e8b828c01612342565b985050602089013567ffffffffffffffff811115612c5f57612c5e61231f565b5b612c6b8b828c01612901565b9750506040612c7c8b828c01612944565b965050606089013567ffffffffffffffff811115612c9d57612c9c61231f565b5b612ca98b828c01612901565b955050608089013567ffffffffffffffff811115612cca57612cc961231f565b5b612cd68b828c01612901565b94505060a089013567ffffffffffffffff811115612cf757612cf661231f565b5b612d038b828c01612901565b93505060c0612d148b828c01612342565b92505060e0612d258b828c01612944565b9150509295985092959890939650565b7f4e487b71000000000000000000000000000000000000000000000000000000005f52602260045260245ffd5b5f6002820490506001821680612d7957607f821691505b602082108103612d8c57612d8b612d35565b5b50919050565b7f4e487b71000000000000000000000000000000000000000000000000000000005f52601160045260245ffd5b5f612dc982612323565b91507fffffffffffffffffffffffffffffffffffffffffffffffffffffffffffffffff8203612dfb57612dfa612d92565b5b600182019050919050565b5f819050815f5260205f209050919050565b5f6020601f8301049050919050565b5f82821b905092915050565b5f60088302612e627fffffffffffffffffffffffffffffffffffffffffffffffffffffffffffffffff82612e27565b612e6c8683612e27565b95508019841693508086168417925050509392505050565b5f819050919050565b5f612ea7612ea2612e9d84612323565b612e84565b612323565b9050919050565b5f819050919050565b612ec083612e8d565b612ed4612ecc82612eae565b848454612e33565b825550505050565b5f5f905090565b612eeb612edc565b612ef6818484612eb7565b505050565b5b81811015612f1957612f0e5f82612ee3565b600181019050612efc565b5050565b601f821115612f5e57612f2f81612e06565b612f3884612e18565b81016020851015612f47578190505b612f5b612f5385612e18565b830182612efb565b50505b505050565b5f82821c905092915050565b5f612f7e5f1984600802612f63565b1980831691505092915050565b5f612f968383612f6f565b9150826002028217905092915050565b612faf82612412565b67ffffffffffffffff811115612fc857612fc761280a565b5b612fd28254612d62565b612fdd828285612f1d565b5f60209050601f83116001811461300e575f8415612ffc578287015190505b6130068582612f8b565b86555061306d565b601f19841661301c86612e06565b5f5b828110156130435784890151825560018201915060208501945060208101905061301e565b86831015613060578489015161305c601f891682612f6f565b8355505b6001600288020188555050505b50505050505056fea26469706673582212203e2a98d58e7da6554ca0467726956e8695ac3312af80e4a04c7d50f8298f690d64736f6c634300081b0033",
					"opcodes": "PUSH1 0x80 PUSH1 0x40 MSTORE CALLVALUE DUP1 ISZERO PUSH1 0xE JUMPI PUSH0 PUSH0 REVERT JUMPDEST POP PUSH2 0x30AB DUP1 PUSH2 0x1C PUSH0 CODECOPY PUSH0 RETURN INVALID PUSH1 0x80 PUSH1 0x40 MSTORE CALLVALUE DUP1 ISZERO PUSH2 0xF JUMPI PUSH0 PUSH0 REVERT JUMPDEST POP PUSH1 0x4 CALLDATASIZE LT PUSH2 0x60 JUMPI PUSH0 CALLDATALOAD PUSH1 0xE0 SHR DUP1 PUSH4 0x1DAB301E EQ PUSH2 0x64 JUMPI DUP1 PUSH4 0x2BF72580 EQ PUSH2 0x9B JUMPI DUP1 PUSH4 0x6621C583 EQ PUSH2 0xB7 JUMPI DUP1 PUSH4 0xA51DD238 EQ PUSH2 0xD3 JUMPI DUP1 PUSH4 0xEA3F423E EQ PUSH2 0xEF JUMPI DUP1 PUSH4 0xED1D25A4 EQ PUSH2 0x10B JUMPI JUMPDEST PUSH0 PUSH0 REVERT JUMPDEST PUSH2 0x7E PUSH1 0x4 DUP1 CALLDATASIZE SUB DUP2 ADD SWAP1 PUSH2 0x79 SWAP2 SWAP1 PUSH2 0x2356 JUMP JUMPDEST PUSH2 0x127 JUMP JUMPDEST PUSH1 0x40 MLOAD PUSH2 0x92 SWAP9 SWAP8 SWAP7 SWAP6 SWAP5 SWAP4 SWAP3 SWAP2 SWAP1 PUSH2 0x275C JUMP JUMPDEST PUSH1 0x40 MLOAD DUP1 SWAP2 SUB SWAP1 RETURN JUMPDEST PUSH2 0xB5 PUSH1 0x4 DUP1 CALLDATASIZE SUB DUP2 ADD SWAP1 PUSH2 0xB0 SWAP2 SWAP1 PUSH2 0x2958 JUMP JUMPDEST PUSH2 0xB75 JUMP JUMPDEST STOP JUMPDEST PUSH2 0xD1 PUSH1 0x4 DUP1 CALLDATASIZE SUB DUP2 ADD SWAP1 PUSH2 0xCC SWAP2 SWAP1 PUSH2 0x2AA8 JUMP JUMPDEST PUSH2 0x102C JUMP JUMPDEST STOP JUMPDEST PUSH2 0xED PUSH1 0x4 DUP1 CALLDATASIZE SUB DUP2 ADD SWAP1 PUSH2 0xE8 SWAP2 SWAP1 PUSH2 0x2C14 JUMP JUMPDEST PUSH2 0x14D5 JUMP JUMPDEST STOP JUMPDEST PUSH2 0x109 PUSH1 0x4 DUP1 CALLDATASIZE SUB DUP2 ADD SWAP1 PUSH2 0x104 SWAP2 SWAP1 PUSH2 0x2958 JUMP JUMPDEST PUSH2 0x1999 JUMP JUMPDEST STOP JUMPDEST PUSH2 0x125 PUSH1 0x4 DUP1 CALLDATASIZE SUB DUP2 ADD SWAP1 PUSH2 0x120 SWAP2 SWAP1 PUSH2 0x2C14 JUMP JUMPDEST PUSH2 0x1E4F JUMP JUMPDEST STOP JUMPDEST PUSH1 0x1 PUSH1 0x20 MSTORE DUP1 PUSH0 MSTORE PUSH1 0x40 PUSH0 KECCAK256 PUSH0 SWAP2 POP SWAP1 POP DUP1 PUSH0 ADD SLOAD SWAP1 DUP1 PUSH1 0x1 ADD PUSH0 SWAP1 SLOAD SWAP1 PUSH2 0x100 EXP SWAP1 DIV PUSH1 0xFF AND SWAP1 DUP1 PUSH1 0x2 ADD PUSH1 0x40 MLOAD DUP1 PUSH1 0x80 ADD PUSH1 0x40 MSTORE SWAP1 DUP2 PUSH0 DUP3 ADD SLOAD DUP2 MSTORE PUSH1 0x20 ADD PUSH1 0x1 DUP3 ADD DUP1 SLOAD PUSH2 0x177 SWAP1 PUSH2 0x2D62 JUMP JUMPDEST DUP1 PUSH1 0x1F ADD PUSH1 0x20 DUP1 SWAP2 DIV MUL PUSH1 0x20 ADD PUSH1 0x40 MLOAD SWAP1 DUP2 ADD PUSH1 0x40 MSTORE DUP1 SWAP3 SWAP2 SWAP1 DUP2 DUP2 MSTORE PUSH1 0x20 ADD DUP3 DUP1 SLOAD PUSH2 0x1A3 SWAP1 PUSH2 0x2D62 JUMP JUMPDEST DUP1 ISZERO PUSH2 0x1EE JUMPI DUP1 PUSH1 0x1F LT PUSH2 0x1C5 JUMPI PUSH2 0x100 DUP1 DUP4 SLOAD DIV MUL DUP4 MSTORE SWAP2 PUSH1 0x20 ADD SWAP2 PUSH2 0x1EE JUMP JUMPDEST DUP3 ADD SWAP2 SWAP1 PUSH0 MSTORE PUSH1 0x20 PUSH0 KECCAK256 SWAP1 JUMPDEST DUP2 SLOAD DUP2 MSTORE SWAP1 PUSH1 0x1 ADD SWAP1 PUSH1 0x20 ADD DUP1 DUP4 GT PUSH2 0x1D1 JUMPI DUP3 SWAP1 SUB PUSH1 0x1F AND DUP3 ADD SWAP2 JUMPDEST POP POP POP POP POP DUP2 MSTORE PUSH1 0x20 ADD PUSH1 0x2 DUP3 ADD PUSH0 SWAP1 SLOAD SWAP1 PUSH2 0x100 EXP SWAP1 DIV PUSH1 0xFF AND PUSH1 0xFF AND PUSH1 0xFF AND DUP2 MSTORE PUSH1 0x20 ADD PUSH1 0x3 DUP3 ADD DUP1 SLOAD PUSH2 0x223 SWAP1 PUSH2 0x2D62 JUMP JUMPDEST DUP1 PUSH1 0x1F ADD PUSH1 0x20 DUP1 SWAP2 DIV MUL PUSH1 0x20 ADD PUSH1 0x40 MLOAD SWAP1 DUP2 ADD PUSH1 0x40 MSTORE DUP1 SWAP3 SWAP2 SWAP1 DUP2 DUP2 MSTORE PUSH1 0x20 ADD DUP3 DUP1 SLOAD PUSH2 0x24F SWAP1 PUSH2 0x2D62 JUMP JUMPDEST DUP1 ISZERO PUSH2 0x29A JUMPI DUP1 PUSH1 0x1F LT PUSH2 0x271 JUMPI PUSH2 0x100 DUP1 DUP4 SLOAD DIV MUL DUP4 MSTORE SWAP2 PUSH1 0x20 ADD SWAP2 PUSH2 0x29A JUMP JUMPDEST DUP3 ADD SWAP2 SWAP1 PUSH0 MSTORE PUSH1 0x20 PUSH0 KECCAK256 SWAP1 JUMPDEST DUP2 SLOAD DUP2 MSTORE SWAP1 PUSH1 0x1 ADD SWAP1 PUSH1 0x20 ADD DUP1 DUP4 GT PUSH2 0x27D JUMPI DUP3 SWAP1 SUB PUSH1 0x1F AND DUP3 ADD SWAP2 JUMPDEST POP POP POP POP POP DUP2 MSTORE POP POP SWAP1 DUP1 PUSH1 0x6 ADD PUSH1 0x40 MLOAD DUP1 PUSH1 0xA0 ADD PUSH1 0x40 MSTORE SWAP1 DUP2 PUSH0 DUP3 ADD DUP1 SLOAD PUSH2 0x2C2 SWAP1 PUSH2 0x2D62 JUMP JUMPDEST DUP1 PUSH1 0x1F ADD PUSH1 0x20 DUP1 SWAP2 DIV MUL PUSH1 0x20 ADD PUSH1 0x40 MLOAD SWAP1 DUP2 ADD PUSH1 0x40 MSTORE DUP1 SWAP3 SWAP2 SWAP1 DUP2 DUP2 MSTORE PUSH1 0x20 ADD DUP3 DUP1 SLOAD PUSH2 0x2EE SWAP1 PUSH2 0x2D62 JUMP JUMPDEST DUP1 ISZERO PUSH2 0x339 JUMPI DUP1 PUSH1 0x1F LT PUSH2 0x310 JUMPI PUSH2 0x100 DUP1 DUP4 SLOAD DIV MUL DUP4 MSTORE SWAP2 PUSH1 0x20 ADD SWAP2 PUSH2 0x339 JUMP JUMPDEST DUP3 ADD SWAP2 SWAP1 PUSH0 MSTORE PUSH1 0x20 PUSH0 KECCAK256 SWAP1 JUMPDEST DUP2 SLOAD DUP2 MSTORE SWAP1 PUSH1 0x1 ADD SWAP1 PUSH1 0x20 ADD DUP1 DUP4 GT PUSH2 0x31C JUMPI DUP3 SWAP1 SUB PUSH1 0x1F AND DUP3 ADD SWAP2 JUMPDEST POP POP POP POP POP DUP2 MSTORE PUSH1 0x20 ADD PUSH1 0x1 DUP3 ADD DUP1 SLOAD PUSH2 0x352 SWAP1 PUSH2 0x2D62 JUMP JUMPDEST DUP1 PUSH1 0x1F ADD PUSH1 0x20 DUP1 SWAP2 DIV MUL PUSH1 0x20 ADD PUSH1 0x40 MLOAD SWAP1 DUP2 ADD PUSH1 0x40 MSTORE DUP1 SWAP3 SWAP2 SWAP1 DUP2 DUP2 MSTORE PUSH1 0x20 ADD DUP3 DUP1 SLOAD PUSH2 0x37E SWAP1 PUSH2 0x2D62 JUMP JUMPDEST DUP1 ISZERO PUSH2 0x3C9 JUMPI DUP1 PUSH1 0x1F LT PUSH2 0x3A0 JUMPI PUSH2 0x100 DUP1 DUP4 SLOAD DIV MUL DUP4 MSTORE SWAP2 PUSH1 0x20 ADD SWAP2 PUSH2 0x3C9 JUMP JUMPDEST DUP3 ADD SWAP2 SWAP1 PUSH0 MSTORE PUSH1 0x20 PUSH0 KECCAK256 SWAP1 JUMPDEST DUP2 SLOAD DUP2 MSTORE SWAP1 PUSH1 0x1 ADD SWAP1 PUSH1 0x20 ADD DUP1 DUP4 GT PUSH2 0x3AC JUMPI DUP3 SWAP1 SUB PUSH1 0x1F AND DUP3 ADD SWAP2 JUMPDEST POP POP POP POP POP DUP2 MSTORE PUSH1 0x20 ADD PUSH1 0x2 DUP3 ADD DUP1 SLOAD PUSH2 0x3E2 SWAP1 PUSH2 0x2D62 JUMP JUMPDEST DUP1 PUSH1 0x1F ADD PUSH1 0x20 DUP1 SWAP2 DIV MUL PUSH1 0x20 ADD PUSH1 0x40 MLOAD SWAP1 DUP2 ADD PUSH1 0x40 MSTORE DUP1 SWAP3 SWAP2 SWAP1 DUP2 DUP2 MSTORE PUSH1 0x20 ADD DUP3 DUP1 SLOAD PUSH2 0x40E SWAP1 PUSH2 0x2D62 JUMP JUMPDEST DUP1 ISZERO PUSH2 0x459 JUMPI DUP1 PUSH1 0x1F LT PUSH2 0x430 JUMPI PUSH2 0x100 DUP1 DUP4 SLOAD DIV MUL DUP4 MSTORE SWAP2 PUSH1 0x20 ADD SWAP2 PUSH2 0x459 JUMP JUMPDEST DUP3 ADD SWAP2 SWAP1 PUSH0 MSTORE PUSH1 0x20 PUSH0 KECCAK256 SWAP1 JUMPDEST DUP2 SLOAD DUP2 MSTORE SWAP1 PUSH1 0x1 ADD SWAP1 PUSH1 0x20 ADD DUP1 DUP4 GT PUSH2 0x43C JUMPI DUP3 SWAP1 SUB PUSH1 0x1F AND DUP3 ADD SWAP2 JUMPDEST POP POP POP POP POP DUP2 MSTORE PUSH1 0x20 ADD PUSH1 0x3 DUP3 ADD SLOAD DUP2 MSTORE PUSH1 0x20 ADD PUSH1 0x4 DUP3 ADD PUSH0 SWAP1 SLOAD SWAP1 PUSH2 0x100 EXP SWAP1 DIV PUSH1 0xFF AND PUSH1 0xFF AND PUSH1 0xFF AND DUP2 MSTORE POP POP SWAP1 DUP1 PUSH1 0xB ADD PUSH1 0x40 MLOAD DUP1 PUSH1 0x80 ADD PUSH1 0x40 MSTORE SWAP1 DUP2 PUSH0 DUP3 ADD DUP1 SLOAD PUSH2 0x4A7 SWAP1 PUSH2 0x2D62 JUMP JUMPDEST DUP1 PUSH1 0x1F ADD PUSH1 0x20 DUP1 SWAP2 DIV MUL PUSH1 0x20 ADD PUSH1 0x40 MLOAD SWAP1 DUP2 ADD PUSH1 0x40 MSTORE DUP1 SWAP3 SWAP2 SWAP1 DUP2 DUP2 MSTORE PUSH1 0x20 ADD DUP3 DUP1 SLOAD PUSH2 0x4D3 SWAP1 PUSH2 0x2D62 JUMP JUMPDEST DUP1 ISZERO PUSH2 0x51E JUMPI DUP1 PUSH1 0x1F LT PUSH2 0x4F5 JUMPI PUSH2 0x100 DUP1 DUP4 SLOAD DIV MUL DUP4 MSTORE SWAP2 PUSH1 0x20 ADD SWAP2 PUSH2 0x51E JUMP JUMPDEST DUP3 ADD SWAP2 SWAP1 PUSH0 MSTORE PUSH1 0x20 PUSH0 KECCAK256 SWAP1 JUMPDEST DUP2 SLOAD DUP2 MSTORE SWAP1 PUSH1 0x1 ADD SWAP1 PUSH1 0x20 ADD DUP1 DUP4 GT PUSH2 0x501 JUMPI DUP3 SWAP1 SUB PUSH1 0x1F AND DUP3 ADD SWAP2 JUMPDEST POP POP POP POP POP DUP2 MSTORE PUSH1 0x20 ADD PUSH1 0x1 DUP3 ADD DUP1 SLOAD PUSH2 0x537 SWAP1 PUSH2 0x2D62 JUMP JUMPDEST DUP1 PUSH1 0x1F ADD PUSH1 0x20 DUP1 SWAP2 DIV MUL PUSH1 0x20 ADD PUSH1 0x40 MLOAD SWAP1 DUP2 ADD PUSH1 0x40 MSTORE DUP1 SWAP3 SWAP2 SWAP1 DUP2 DUP2 MSTORE PUSH1 0x20 ADD DUP3 DUP1 SLOAD PUSH2 0x563 SWAP1 PUSH2 0x2D62 JUMP JUMPDEST DUP1 ISZERO PUSH2 0x5AE JUMPI DUP1 PUSH1 0x1F LT PUSH2 0x585 JUMPI PUSH2 0x100 DUP1 DUP4 SLOAD DIV MUL DUP4 MSTORE SWAP2 PUSH1 0x20 ADD SWAP2 PUSH2 0x5AE JUMP JUMPDEST DUP3 ADD SWAP2 SWAP1 PUSH0 MSTORE PUSH1 0x20 PUSH0 KECCAK256 SWAP1 JUMPDEST DUP2 SLOAD DUP2 MSTORE SWAP1 PUSH1 0x1 ADD SWAP1 PUSH1 0x20 ADD DUP1 DUP4 GT PUSH2 0x591 JUMPI DUP3 SWAP1 SUB PUSH1 0x1F AND DUP3 ADD SWAP2 JUMPDEST POP POP POP POP POP DUP2 MSTORE PUSH1 0x20 ADD PUSH1 0x2 DUP3 ADD SLOAD DUP2 MSTORE PUSH1 0x20 ADD PUSH1 0x3 DUP3 ADD PUSH0 SWAP1 SLOAD SWAP1 PUSH2 0x100 EXP SWAP1 DIV PUSH1 0xFF AND PUSH1 0xFF AND PUSH1 0xFF AND DUP2 MSTORE POP POP SWAP1 DUP1 PUSH1 0xF ADD PUSH1 0x40 MLOAD DUP1 PUSH1 0xA0 ADD PUSH1 0x40 MSTORE SWAP1 DUP2 PUSH0 DUP3 ADD DUP1 SLOAD PUSH2 0x5FC SWAP1 PUSH2 0x2D62 JUMP JUMPDEST DUP1 PUSH1 0x1F ADD PUSH1 0x20 DUP1 SWAP2 DIV MUL PUSH1 0x20 ADD PUSH1 0x40 MLOAD SWAP1 DUP2 ADD PUSH1 0x40 MSTORE DUP1 SWAP3 SWAP2 SWAP1 DUP2 DUP2 MSTORE PUSH1 0x20 ADD DUP3 DUP1 SLOAD PUSH2 0x628 SWAP1 PUSH2 0x2D62 JUMP JUMPDEST DUP1 ISZERO PUSH2 0x673 JUMPI DUP1 PUSH1 0x1F LT PUSH2 0x64A JUMPI PUSH2 0x100 DUP1 DUP4 SLOAD DIV MUL DUP4 MSTORE SWAP2 PUSH1 0x20 ADD SWAP2 PUSH2 0x673 JUMP JUMPDEST DUP3 ADD SWAP2 SWAP1 PUSH0 MSTORE PUSH1 0x20 PUSH0 KECCAK256 SWAP1 JUMPDEST DUP2 SLOAD DUP2 MSTORE SWAP1 PUSH1 0x1 ADD SWAP1 PUSH1 0x20 ADD DUP1 DUP4 GT PUSH2 0x656 JUMPI DUP3 SWAP1 SUB PUSH1 0x1F AND DUP3 ADD SWAP2 JUMPDEST POP POP POP POP POP DUP2 MSTORE PUSH1 0x20 ADD PUSH1 0x1 DUP3 ADD DUP1 SLOAD PUSH2 0x68C SWAP1 PUSH2 0x2D62 JUMP JUMPDEST DUP1 PUSH1 0x1F ADD PUSH1 0x20 DUP1 SWAP2 DIV MUL PUSH1 0x20 ADD PUSH1 0x40 MLOAD SWAP1 DUP2 ADD PUSH1 0x40 MSTORE DUP1 SWAP3 SWAP2 SWAP1 DUP2 DUP2 MSTORE PUSH1 0x20 ADD DUP3 DUP1 SLOAD PUSH2 0x6B8 SWAP1 PUSH2 0x2D62 JUMP JUMPDEST DUP1 ISZERO PUSH2 0x703 JUMPI DUP1 PUSH1 0x1F LT PUSH2 0x6DA JUMPI PUSH2 0x100 DUP1 DUP4 SLOAD DIV MUL DUP4 MSTORE SWAP2 PUSH1 0x20 ADD SWAP2 PUSH2 0x703 JUMP JUMPDEST DUP3 ADD SWAP2 SWAP1 PUSH0 MSTORE PUSH1 0x20 PUSH0 KECCAK256 SWAP1 JUMPDEST DUP2 SLOAD DUP2 MSTORE SWAP1 PUSH1 0x1 ADD SWAP1 PUSH1 0x20 ADD DUP1 DUP4 GT PUSH2 0x6E6 JUMPI DUP3 SWAP1 SUB PUSH1 0x1F AND DUP3 ADD SWAP2 JUMPDEST POP POP POP POP POP DUP2 MSTORE PUSH1 0x20 ADD PUSH1 0x2 DUP3 ADD DUP1 SLOAD PUSH2 0x71C SWAP1 PUSH2 0x2D62 JUMP JUMPDEST DUP1 PUSH1 0x1F ADD PUSH1 0x20 DUP1 SWAP2 DIV MUL PUSH1 0x20 ADD PUSH1 0x40 MLOAD SWAP1 DUP2 ADD PUSH1 0x40 MSTORE DUP1 SWAP3 SWAP2 SWAP1 DUP2 DUP2 MSTORE PUSH1 0x20 ADD DUP3 DUP1 SLOAD PUSH2 0x748 SWAP1 PUSH2 0x2D62 JUMP JUMPDEST DUP1 ISZERO PUSH2 0x793 JUMPI DUP1 PUSH1 0x1F LT PUSH2 0x76A JUMPI PUSH2 0x100 DUP1 DUP4 SLOAD DIV MUL DUP4 MSTORE SWAP2 PUSH1 0x20 ADD SWAP2 PUSH2 0x793 JUMP JUMPDEST DUP3 ADD SWAP2 SWAP1 PUSH0 MSTORE PUSH1 0x20 PUSH0 KECCAK256 SWAP1 JUMPDEST DUP2 SLOAD DUP2 MSTORE SWAP1 PUSH1 0x1 ADD SWAP1 PUSH1 0x20 ADD DUP1 DUP4 GT PUSH2 0x776 JUMPI DUP3 SWAP1 SUB PUSH1 0x1F AND DUP3 ADD SWAP2 JUMPDEST POP POP POP POP POP DUP2 MSTORE PUSH1 0x20 ADD PUSH1 0x3 DUP3 ADD SLOAD DUP2 MSTORE PUSH1 0x20 ADD PUSH1 0x4 DUP3 ADD DUP1 SLOAD PUSH2 0x7B6 SWAP1 PUSH2 0x2D62 JUMP JUMPDEST DUP1 PUSH1 0x1F ADD PUSH1 0x20 DUP1 SWAP2 DIV MUL PUSH1 0x20 ADD PUSH1 0x40 MLOAD SWAP1 DUP2 ADD PUSH1 0x40 MSTORE DUP1 SWAP3 SWAP2 SWAP1 DUP2 DUP2 MSTORE PUSH1 0x20 ADD DUP3 DUP1 SLOAD PUSH2 0x7E2 SWAP1 PUSH2 0x2D62 JUMP JUMPDEST DUP1 ISZERO PUSH2 0x82D JUMPI DUP1 PUSH1 0x1F LT PUSH2 0x804 JUMPI PUSH2 0x100 DUP1 DUP4 SLOAD DIV MUL DUP4 MSTORE SWAP2 PUSH1 0x20 ADD SWAP2 PUSH2 0x82D JUMP JUMPDEST DUP3 ADD SWAP2 SWAP1 PUSH0 MSTORE PUSH1 0x20 PUSH0 KECCAK256 SWAP1 JUMPDEST DUP2 SLOAD DUP2 MSTORE SWAP1 PUSH1 0x1 ADD SWAP1 PUSH1 0x20 ADD DUP1 DUP4 GT PUSH2 0x810 JUMPI DUP3 SWAP1 SUB PUSH1 0x1F AND DUP3 ADD SWAP2 JUMPDEST POP POP POP POP POP DUP2 MSTORE POP POP SWAP1 DUP1 PUSH1 0x14 ADD PUSH1 0x40 MLOAD DUP1 PUSH1 0xA0 ADD PUSH1 0x40 MSTORE SWAP1 DUP2 PUSH0 DUP3 ADD DUP1 SLOAD PUSH2 0x855 SWAP1 PUSH2 0x2D62 JUMP JUMPDEST DUP1 PUSH1 0x1F ADD PUSH1 0x20 DUP1 SWAP2 DIV MUL PUSH1 0x20 ADD PUSH1 0x40 MLOAD SWAP1 DUP2 ADD PUSH1 0x40 MSTORE DUP1 SWAP3 SWAP2 SWAP1 DUP2 DUP2 MSTORE PUSH1 0x20 ADD DUP3 DUP1 SLOAD PUSH2 0x881 SWAP1 PUSH2 0x2D62 JUMP JUMPDEST DUP1 ISZERO PUSH2 0x8CC JUMPI DUP1 PUSH1 0x1F LT PUSH2 0x8A3 JUMPI PUSH2 0x100 DUP1 DUP4 SLOAD DIV MUL DUP4 MSTORE SWAP2 PUSH1 0x20 ADD SWAP2 PUSH2 0x8CC JUMP JUMPDEST DUP3 ADD SWAP2 SWAP1 PUSH0 MSTORE PUSH1 0x20 PUSH0 KECCAK256 SWAP1 JUMPDEST DUP2 SLOAD DUP2 MSTORE SWAP1 PUSH1 0x1 ADD SWAP1 PUSH1 0x20 ADD DUP1 DUP4 GT PUSH2 0x8AF JUMPI DUP3 SWAP1 SUB PUSH1 0x1F AND DUP3 ADD SWAP2 JUMPDEST POP POP POP POP POP DUP2 MSTORE PUSH1 0x20 ADD PUSH1 0x1 DUP3 ADD DUP1 SLOAD PUSH2 0x8E5 SWAP1 PUSH2 0x2D62 JUMP JUMPDEST DUP1 PUSH1 0x1F ADD PUSH1 0x20 DUP1 SWAP2 DIV MUL PUSH1 0x20 ADD PUSH1 0x40 MLOAD SWAP1 DUP2 ADD PUSH1 0x40 MSTORE DUP1 SWAP3 SWAP2 SWAP1 DUP2 DUP2 MSTORE PUSH1 0x20 ADD DUP3 DUP1 SLOAD PUSH2 0x911 SWAP1 PUSH2 0x2D62 JUMP JUMPDEST DUP1 ISZERO PUSH2 0x95C JUMPI DUP1 PUSH1 0x1F LT PUSH2 0x933 JUMPI PUSH2 0x100 DUP1 DUP4 SLOAD DIV MUL DUP4 MSTORE SWAP2 PUSH1 0x20 ADD SWAP2 PUSH2 0x95C JUMP JUMPDEST DUP3 ADD SWAP2 SWAP1 PUSH0 MSTORE PUSH1 0x20 PUSH0 KECCAK256 SWAP1 JUMPDEST DUP2 SLOAD DUP2 MSTORE SWAP1 PUSH1 0x1 ADD SWAP1 PUSH1 0x20 ADD DUP1 DUP4 GT PUSH2 0x93F JUMPI DUP3 SWAP1 SUB PUSH1 0x1F AND DUP3 ADD SWAP2 JUMPDEST POP POP POP POP POP DUP2 MSTORE PUSH1 0x20 ADD PUSH1 0x2 DUP3 ADD DUP1 SLOAD PUSH2 0x975 SWAP1 PUSH2 0x2D62 JUMP JUMPDEST DUP1 PUSH1 0x1F ADD PUSH1 0x20 DUP1 SWAP2 DIV MUL PUSH1 0x20 ADD PUSH1 0x40 MLOAD SWAP1 DUP2 ADD PUSH1 0x40 MSTORE DUP1 SWAP3 SWAP2 SWAP1 DUP2 DUP2 MSTORE PUSH1 0x20 ADD DUP3 DUP1 SLOAD PUSH2 0x9A1 SWAP1 PUSH2 0x2D62 JUMP JUMPDEST DUP1 ISZERO PUSH2 0x9EC JUMPI DUP1 PUSH1 0x1F LT PUSH2 0x9C3 JUMPI PUSH2 0x100 DUP1 DUP4 SLOAD DIV MUL DUP4 MSTORE SWAP2 PUSH1 0x20 ADD SWAP2 PUSH2 0x9EC JUMP JUMPDEST DUP3 ADD SWAP2 SWAP1 PUSH0 MSTORE PUSH1 0x20 PUSH0 KECCAK256 SWAP1 JUMPDEST DUP2 SLOAD DUP2 MSTORE SWAP1 PUSH1 0x1 ADD SWAP1 PUSH1 0x20 ADD DUP1 DUP4 GT PUSH2 0x9CF JUMPI DUP3 SWAP1 SUB PUSH1 0x1F AND DUP3 ADD SWAP2 JUMPDEST POP POP POP POP POP DUP2 MSTORE PUSH1 0x20 ADD PUSH1 0x3 DUP3 ADD SLOAD DUP2 MSTORE PUSH1 0x20 ADD PUSH1 0x4 DUP3 ADD PUSH0 SWAP1 SLOAD SWAP1 PUSH2 0x100 EXP SWAP1 DIV PUSH1 0xFF AND PUSH1 0xFF AND PUSH1 0xFF AND DUP2 MSTORE POP POP SWAP1 DUP1 PUSH1 0x19 ADD PUSH1 0x40 MLOAD DUP1 PUSH1 0x80 ADD PUSH1 0x40 MSTORE SWAP1 DUP2 PUSH0 DUP3 ADD DUP1 SLOAD PUSH2 0xA3A SWAP1 PUSH2 0x2D62 JUMP JUMPDEST DUP1 PUSH1 0x1F ADD PUSH1 0x20 DUP1 SWAP2 DIV MUL PUSH1 0x20 ADD PUSH1 0x40 MLOAD SWAP1 DUP2 ADD PUSH1 0x40 MSTORE DUP1 SWAP3 SWAP2 SWAP1 DUP2 DUP2 MSTORE PUSH1 0x20 ADD DUP3 DUP1 SLOAD PUSH2 0xA66 SWAP1 PUSH2 0x2D62 JUMP JUMPDEST DUP1 ISZERO PUSH2 0xAB1 JUMPI DUP1 PUSH1 0x1F LT PUSH2 0xA88 JUMPI PUSH2 0x100 DUP1 DUP4 SLOAD DIV MUL DUP4 MSTORE SWAP2 PUSH1 0x20 ADD SWAP2 PUSH2 0xAB1 JUMP JUMPDEST DUP3 ADD SWAP2 SWAP1 PUSH0 MSTORE PUSH1 0x20 PUSH0 KECCAK256 SWAP1 JUMPDEST DUP2 SLOAD DUP2 MSTORE SWAP1 PUSH1 0x1 ADD SWAP1 PUSH1 0x20 ADD DUP1 DUP4 GT PUSH2 0xA94 JUMPI DUP3 SWAP1 SUB PUSH1 0x1F AND DUP3 ADD SWAP2 JUMPDEST POP POP POP POP POP DUP2 MSTORE PUSH1 0x20 ADD PUSH1 0x1 DUP3 ADD DUP1 SLOAD PUSH2 0xACA SWAP1 PUSH2 0x2D62 JUMP JUMPDEST DUP1 PUSH1 0x1F ADD PUSH1 0x20 DUP1 SWAP2 DIV MUL PUSH1 0x20 ADD PUSH1 0x40 MLOAD SWAP1 DUP2 ADD PUSH1 0x40 MSTORE DUP1 SWAP3 SWAP2 SWAP1 DUP2 DUP2 MSTORE PUSH1 0x20 ADD DUP3 DUP1 SLOAD PUSH2 0xAF6 SWAP1 PUSH2 0x2D62 JUMP JUMPDEST DUP1 ISZERO PUSH2 0xB41 JUMPI DUP1 PUSH1 0x1F LT PUSH2 0xB18 JUMPI PUSH2 0x100 DUP1 DUP4 SLOAD DIV MUL DUP4 MSTORE SWAP2 PUSH1 0x20 ADD SWAP2 PUSH2 0xB41 JUMP JUMPDEST DUP3 ADD SWAP2 SWAP1 PUSH0 MSTORE PUSH1 0x20 PUSH0 KECCAK256 SWAP1 JUMPDEST DUP2 SLOAD DUP2 MSTORE SWAP1 PUSH1 0x1 ADD SWAP1 PUSH1 0x20 ADD DUP1 DUP4 GT PUSH2 0xB24 JUMPI DUP3 SWAP1 SUB PUSH1 0x1F AND DUP3 ADD SWAP2 JUMPDEST POP POP POP POP POP DUP2 MSTORE PUSH1 0x20 ADD PUSH1 0x2 DUP3 ADD SLOAD DUP2 MSTORE PUSH1 0x20 ADD PUSH1 0x3 DUP3 ADD PUSH0 SWAP1 SLOAD SWAP1 PUSH2 0x100 EXP SWAP1 DIV PUSH1 0xFF AND PUSH1 0xFF AND PUSH1 0xFF AND DUP2 MSTORE POP POP SWAP1 POP DUP9 JUMP JUMPDEST PUSH0 PUSH0 DUP2 SLOAD DUP1 SWAP3 SWAP2 SWAP1 PUSH2 0xB86 SWAP1 PUSH2 0x2DBF JUMP JUMPDEST SWAP2 SWAP1 POP SSTORE POP PUSH0 PUSH1 0x40 MLOAD DUP1 PUSH1 0x80 ADD PUSH1 0x40 MSTORE DUP1 DUP12 DUP2 MSTORE PUSH1 0x20 ADD DUP11 DUP2 MSTORE PUSH1 0x20 ADD DUP10 PUSH1 0xFF AND DUP2 MSTORE PUSH1 0x20 ADD DUP9 DUP2 MSTORE POP SWAP1 POP PUSH0 PUSH1 0x40 MLOAD DUP1 PUSH1 0xA0 ADD PUSH1 0x40 MSTORE DUP1 DUP9 DUP2 MSTORE PUSH1 0x20 ADD DUP8 DUP2 MSTORE PUSH1 0x20 ADD DUP7 DUP2 MSTORE PUSH1 0x20 ADD DUP6 DUP2 MSTORE PUSH1 0x20 ADD DUP5 PUSH1 0xFF AND DUP2 MSTORE POP SWAP1 POP PUSH0 PUSH1 0x40 MLOAD DUP1 PUSH2 0x100 ADD PUSH1 0x40 MSTORE DUP1 PUSH0 SLOAD DUP2 MSTORE PUSH1 0x20 ADD PUSH1 0x3 PUSH1 0x4 DUP2 GT ISZERO PUSH2 0xC07 JUMPI PUSH2 0xC06 PUSH2 0x2390 JUMP JUMPDEST JUMPDEST DUP2 MSTORE PUSH1 0x20 ADD DUP5 DUP2 MSTORE PUSH1 0x20 ADD PUSH1 0x40 MLOAD DUP1 PUSH1 0xA0 ADD PUSH1 0x40 MSTORE DUP1 PUSH1 0x40 MLOAD DUP1 PUSH1 0x20 ADD PUSH1 0x40 MSTORE DUP1 PUSH0 DUP2 MSTORE POP DUP2 MSTORE PUSH1 0x20 ADD PUSH1 0x40 MLOAD DUP1 PUSH1 0x20 ADD PUSH1 0x40 MSTORE DUP1 PUSH0 DUP2 MSTORE POP DUP2 MSTORE PUSH1 0x20 ADD PUSH1 0x40 MLOAD DUP1 PUSH1 0x20 ADD PUSH1 0x40 MSTORE DUP1 PUSH0 DUP2 MSTORE POP DUP2 MSTORE PUSH1 0x20 ADD PUSH0 DUP2 MSTORE PUSH1 0x20 ADD PUSH0 PUSH1 0xFF AND DUP2 MSTORE POP DUP2 MSTORE PUSH1 0x20 ADD PUSH1 0x40 MLOAD DUP1 PUSH1 0x80 ADD PUSH1 0x40 MSTORE DUP1 PUSH1 0x40 MLOAD DUP1 PUSH1 0x20 ADD PUSH1 0x40 MSTORE DUP1 PUSH0 DUP2 MSTORE POP DUP2 MSTORE PUSH1 0x20 ADD PUSH1 0x40 MLOAD DUP1 PUSH1 0x20 ADD PUSH1 0x40 MSTORE DUP1 PUSH0 DUP2 MSTORE POP DUP2 MSTORE PUSH1 0x20 ADD PUSH0 DUP2 MSTORE PUSH1 0x20 ADD PUSH0 PUSH1 0xFF AND DUP2 MSTORE POP DUP2 MSTORE PUSH1 0x20 ADD PUSH1 0x40 MLOAD DUP1 PUSH1 0xA0 ADD PUSH1 0x40 MSTORE DUP1 PUSH1 0x40 MLOAD DUP1 PUSH1 0x20 ADD PUSH1 0x40 MSTORE DUP1 PUSH0 DUP2 MSTORE POP DUP2 MSTORE PUSH1 0x20 ADD PUSH1 0x40 MLOAD DUP1 PUSH1 0x20 ADD PUSH1 0x40 MSTORE DUP1 PUSH0 DUP2 MSTORE POP DUP2 MSTORE PUSH1 0x20 ADD PUSH1 0x40 MLOAD DUP1 PUSH1 0x20 ADD PUSH1 0x40 MSTORE DUP1 PUSH0 DUP2 MSTORE POP DUP2 MSTORE PUSH1 0x20 ADD PUSH0 DUP2 MSTORE PUSH1 0x20 ADD PUSH1 0x40 MLOAD DUP1 PUSH1 0x20 ADD PUSH1 0x40 MSTORE DUP1 PUSH0 DUP2 MSTORE POP DUP2 MSTORE POP DUP2 MSTORE PUSH1 0x20 ADD DUP4 DUP2 MSTORE PUSH1 0x20 ADD PUSH1 0x40 MLOAD DUP1 PUSH1 0x80 ADD PUSH1 0x40 MSTORE DUP1 PUSH1 0x40 MLOAD DUP1 PUSH1 0x20 ADD PUSH1 0x40 MSTORE DUP1 PUSH0 DUP2 MSTORE POP DUP2 MSTORE PUSH1 0x20 ADD PUSH1 0x40 MLOAD DUP1 PUSH1 0x20 ADD PUSH1 0x40 MSTORE DUP1 PUSH0 DUP2 MSTORE POP DUP2 MSTORE PUSH1 0x20 ADD PUSH0 DUP2 MSTORE PUSH1 0x20 ADD PUSH0 PUSH1 0xFF AND DUP2 MSTORE POP DUP2 MSTORE POP SWAP1 POP DUP1 PUSH1 0x1 PUSH0 PUSH0 SLOAD DUP2 MSTORE PUSH1 0x20 ADD SWAP1 DUP2 MSTORE PUSH1 0x20 ADD PUSH0 KECCAK256 PUSH0 DUP3 ADD MLOAD DUP2 PUSH0 ADD SSTORE PUSH1 0x20 DUP3 ADD MLOAD DUP2 PUSH1 0x1 ADD PUSH0 PUSH2 0x100 EXP DUP2 SLOAD DUP2 PUSH1 0xFF MUL NOT AND SWAP1 DUP4 PUSH1 0x4 DUP2 GT ISZERO PUSH2 0xDA4 JUMPI PUSH2 0xDA3 PUSH2 0x2390 JUMP JUMPDEST JUMPDEST MUL OR SWAP1 SSTORE POP PUSH1 0x40 DUP3 ADD MLOAD DUP2 PUSH1 0x2 ADD PUSH0 DUP3 ADD MLOAD DUP2 PUSH0 ADD SSTORE PUSH1 0x20 DUP3 ADD MLOAD DUP2 PUSH1 0x1 ADD SWAP1 DUP2 PUSH2 0xDCF SWAP2 SWAP1 PUSH2 0x2FA6 JUMP JUMPDEST POP PUSH1 0x40 DUP3 ADD MLOAD DUP2 PUSH1 0x2 ADD PUSH0 PUSH2 0x100 EXP DUP2 SLOAD DUP2 PUSH1 0xFF MUL NOT AND SWAP1 DUP4 PUSH1 0xFF AND MUL OR SWAP1 SSTORE POP PUSH1 0x60 DUP3 ADD MLOAD DUP2 PUSH1 0x3 ADD SWAP1 DUP2 PUSH2 0xE05 SWAP2 SWAP1 PUSH2 0x2FA6 JUMP JUMPDEST POP POP POP PUSH1 0x60 DUP3 ADD MLOAD DUP2 PUSH1 0x6 ADD PUSH0 DUP3 ADD MLOAD DUP2 PUSH0 ADD SWAP1 DUP2 PUSH2 0xE24 SWAP2 SWAP1 PUSH2 0x2FA6 JUMP JUMPDEST POP PUSH1 0x20 DUP3 ADD MLOAD DUP2 PUSH1 0x1 ADD SWAP1 DUP2 PUSH2 0xE3A SWAP2 SWAP1 PUSH2 0x2FA6 JUMP JUMPDEST POP PUSH1 0x40 DUP3 ADD MLOAD DUP2 PUSH1 0x2 ADD SWAP1 DUP2 PUSH2 0xE50 SWAP2 SWAP1 PUSH2 0x2FA6 JUMP JUMPDEST POP PUSH1 0x60 DUP3 ADD MLOAD DUP2 PUSH1 0x3 ADD SSTORE PUSH1 0x80 DUP3 ADD MLOAD DUP2 PUSH1 0x4 ADD PUSH0 PUSH2 0x100 EXP DUP2 SLOAD DUP2 PUSH1 0xFF MUL NOT AND SWAP1 DUP4 PUSH1 0xFF AND MUL OR SWAP1 SSTORE POP POP POP PUSH1 0x80 DUP3 ADD MLOAD DUP2 PUSH1 0xB ADD PUSH0 DUP3 ADD MLOAD DUP2 PUSH0 ADD SWAP1 DUP2 PUSH2 0xE99 SWAP2 SWAP1 PUSH2 0x2FA6 JUMP JUMPDEST POP PUSH1 0x20 DUP3 ADD MLOAD DUP2 PUSH1 0x1 ADD SWAP1 DUP2 PUSH2 0xEAF SWAP2 SWAP1 PUSH2 0x2FA6 JUMP JUMPDEST POP PUSH1 0x40 DUP3 ADD MLOAD DUP2 PUSH1 0x2 ADD SSTORE PUSH1 0x60 DUP3 ADD MLOAD DUP2 PUSH1 0x3 ADD PUSH0 PUSH2 0x100 EXP DUP2 SLOAD DUP2 PUSH1 0xFF MUL NOT AND SWAP1 DUP4 PUSH1 0xFF AND MUL OR SWAP1 SSTORE POP POP POP PUSH1 0xA0 DUP3 ADD MLOAD DUP2 PUSH1 0xF ADD PUSH0 DUP3 ADD MLOAD DUP2 PUSH0 ADD SWAP1 DUP2 PUSH2 0xEF8 SWAP2 SWAP1 PUSH2 0x2FA6 JUMP JUMPDEST POP PUSH1 0x20 DUP3 ADD MLOAD DUP2 PUSH1 0x1 ADD SWAP1 DUP2 PUSH2 0xF0E SWAP2 SWAP1 PUSH2 0x2FA6 JUMP JUMPDEST POP PUSH1 0x40 DUP3 ADD MLOAD DUP2 PUSH1 0x2 ADD SWAP1 DUP2 PUSH2 0xF24 SWAP2 SWAP1 PUSH2 0x2FA6 JUMP JUMPDEST POP PUSH1 0x60 DUP3 ADD MLOAD DUP2 PUSH1 0x3 ADD SSTORE PUSH1 0x80 DUP3 ADD MLOAD DUP2 PUSH1 0x4 ADD SWAP1 DUP2 PUSH2 0xF44 SWAP2 SWAP1 PUSH2 0x2FA6 JUMP JUMPDEST POP POP POP PUSH1 0xC0 DUP3 ADD MLOAD DUP2 PUSH1 0x14 ADD PUSH0 DUP3 ADD MLOAD DUP2 PUSH0 ADD SWAP1 DUP2 PUSH2 0xF63 SWAP2 SWAP1 PUSH2 0x2FA6 JUMP JUMPDEST POP PUSH1 0x20 DUP3 ADD MLOAD DUP2 PUSH1 0x1 ADD SWAP1 DUP2 PUSH2 0xF79 SWAP2 SWAP1 PUSH2 0x2FA6 JUMP JUMPDEST POP PUSH1 0x40 DUP3 ADD MLOAD DUP2 PUSH1 0x2 ADD SWAP1 DUP2 PUSH2 0xF8F SWAP2 SWAP1 PUSH2 0x2FA6 JUMP JUMPDEST POP PUSH1 0x60 DUP3 ADD MLOAD DUP2 PUSH1 0x3 ADD SSTORE PUSH1 0x80 DUP3 ADD MLOAD DUP2 PUSH1 0x4 ADD PUSH0 PUSH2 0x100 EXP DUP2 SLOAD DUP2 PUSH1 0xFF MUL NOT AND SWAP1 DUP4 PUSH1 0xFF AND MUL OR SWAP1 SSTORE POP POP POP PUSH1 0xE0 DUP3 ADD MLOAD DUP2 PUSH1 0x19 ADD PUSH0 DUP3 ADD MLOAD DUP2 PUSH0 ADD SWAP1 DUP2 PUSH2 0xFD8 SWAP2 SWAP1 PUSH2 0x2FA6 JUMP JUMPDEST POP PUSH1 0x20 DUP3 ADD MLOAD DUP2 PUSH1 0x1 ADD SWAP1 DUP2 PUSH2 0xFEE SWAP2 SWAP1 PUSH2 0x2FA6 JUMP JUMPDEST POP PUSH1 0x40 DUP3 ADD MLOAD DUP2 PUSH1 0x2 ADD SSTORE PUSH1 0x60 DUP3 ADD MLOAD DUP2 PUSH1 0x3 ADD PUSH0 PUSH2 0x100 EXP DUP2 SLOAD DUP2 PUSH1 0xFF MUL NOT AND SWAP1 DUP4 PUSH1 0xFF AND MUL OR SWAP1 SSTORE POP POP POP SWAP1 POP POP POP POP POP POP POP POP POP POP POP POP POP POP JUMP JUMPDEST PUSH0 PUSH0 DUP2 SLOAD DUP1 SWAP3 SWAP2 SWAP1 PUSH2 0x103D SWAP1 PUSH2 0x2DBF JUMP JUMPDEST SWAP2 SWAP1 POP SSTORE POP PUSH0 PUSH1 0x40 MLOAD DUP1 PUSH1 0x80 ADD PUSH1 0x40 MSTORE DUP1 DUP12 DUP2 MSTORE PUSH1 0x20 ADD DUP11 DUP2 MSTORE PUSH1 0x20 ADD DUP10 PUSH1 0xFF AND DUP2 MSTORE PUSH1 0x20 ADD DUP9 DUP2 MSTORE POP SWAP1 POP PUSH0 PUSH1 0x40 MLOAD DUP1 PUSH1 0xA0 ADD PUSH1 0x40 MSTORE DUP1 DUP9 DUP2 MSTORE PUSH1 0x20 ADD DUP8 DUP2 MSTORE PUSH1 0x20 ADD DUP7 DUP2 MSTORE PUSH1 0x20 ADD DUP6 DUP2 MSTORE PUSH1 0x20 ADD DUP5 DUP2 MSTORE POP SWAP1 POP PUSH0 PUSH1 0x40 MLOAD DUP1 PUSH2 0x100 ADD PUSH1 0x40 MSTORE DUP1 PUSH0 SLOAD DUP2 MSTORE PUSH1 0x20 ADD PUSH1 0x2 PUSH1 0x4 DUP2 GT ISZERO PUSH2 0x10BB JUMPI PUSH2 0x10BA PUSH2 0x2390 JUMP JUMPDEST JUMPDEST DUP2 MSTORE PUSH1 0x20 ADD DUP5 DUP2 MSTORE PUSH1 0x20 ADD PUSH1 0x40 MLOAD DUP1 PUSH1 0xA0 ADD PUSH1 0x40 MSTORE DUP1 PUSH1 0x40 MLOAD DUP1 PUSH1 0x20 ADD PUSH1 0x40 MSTORE DUP1 PUSH0 DUP2 MSTORE POP DUP2 MSTORE PUSH1 0x20 ADD PUSH1 0x40 MLOAD DUP1 PUSH1 0x20 ADD PUSH1 0x40 MSTORE DUP1 PUSH0 DUP2 MSTORE POP DUP2 MSTORE PUSH1 0x20 ADD PUSH1 0x40 MLOAD DUP1 PUSH1 0x20 ADD PUSH1 0x40 MSTORE DUP1 PUSH0 DUP2 MSTORE POP DUP2 MSTORE PUSH1 0x20 ADD PUSH0 DUP2 MSTORE PUSH1 0x20 ADD PUSH0 PUSH1 0xFF AND DUP2 MSTORE POP DUP2 MSTORE PUSH1 0x20 ADD PUSH1 0x40 MLOAD DUP1 PUSH1 0x80 ADD PUSH1 0x40 MSTORE DUP1 PUSH1 0x40 MLOAD DUP1 PUSH1 0x20 ADD PUSH1 0x40 MSTORE DUP1 PUSH0 DUP2 MSTORE POP DUP2 MSTORE PUSH1 0x20 ADD PUSH1 0x40 MLOAD DUP1 PUSH1 0x20 ADD PUSH1 0x40 MSTORE DUP1 PUSH0 DUP2 MSTORE POP DUP2 MSTORE PUSH1 0x20 ADD PUSH0 DUP2 MSTORE PUSH1 0x20 ADD PUSH0 PUSH1 0xFF AND DUP2 MSTORE POP DUP2 MSTORE PUSH1 0x20 ADD DUP4 DUP2 MSTORE PUSH1 0x20 ADD PUSH1 0x40 MLOAD DUP1 PUSH1 0xA0 ADD PUSH1 0x40 MSTORE DUP1 PUSH1 0x40 MLOAD DUP1 PUSH1 0x20 ADD PUSH1 0x40 MSTORE DUP1 PUSH0 DUP2 MSTORE POP DUP2 MSTORE PUSH1 0x20 ADD PUSH1 0x40 MLOAD DUP1 PUSH1 0x20 ADD PUSH1 0x40 MSTORE DUP1 PUSH0 DUP2 MSTORE POP DUP2 MSTORE PUSH1 0x20 ADD PUSH1 0x40 MLOAD DUP1 PUSH1 0x20 ADD PUSH1 0x40 MSTORE DUP1 PUSH0 DUP2 MSTORE POP DUP2 MSTORE PUSH1 0x20 ADD PUSH0 DUP2 MSTORE PUSH1 0x20 ADD PUSH0 PUSH1 0xFF AND DUP2 MSTORE POP DUP2 MSTORE PUSH1 0x20 ADD PUSH1 0x40 MLOAD DUP1 PUSH1 0x80 ADD PUSH1 0x40 MSTORE DUP1 PUSH1 0x40 MLOAD DUP1 PUSH1 0x20 ADD PUSH1 0x40 MSTORE DUP1 PUSH0 DUP2 MSTORE POP DUP2 MSTORE PUSH1 0x20 ADD PUSH1 0x40 MLOAD DUP1 PUSH1 0x20 ADD PUSH1 0x40 MSTORE DUP1 PUSH0 DUP2 MSTORE POP DUP2 MSTORE PUSH1 0x20 ADD PUSH0 DUP2 MSTORE PUSH1 0x20 ADD PUSH0 PUSH1 0xFF AND DUP2 MSTORE POP DUP2 MSTORE POP SWAP1 POP DUP1 PUSH1 0x1 PUSH0 PUSH0 SLOAD DUP2 MSTORE PUSH1 0x20 ADD SWAP1 DUP2 MSTORE PUSH1 0x20 ADD PUSH0 KECCAK256 PUSH0 DUP3 ADD MLOAD DUP2 PUSH0 ADD SSTORE PUSH1 0x20 DUP3 ADD MLOAD DUP2 PUSH1 0x1 ADD PUSH0 PUSH2 0x100 EXP DUP2 SLOAD DUP2 PUSH1 0xFF MUL NOT AND SWAP1 DUP4 PUSH1 0x4 DUP2 GT ISZERO PUSH2 0x124D JUMPI PUSH2 0x124C PUSH2 0x2390 JUMP JUMPDEST JUMPDEST MUL OR SWAP1 SSTORE POP PUSH1 0x40 DUP3 ADD MLOAD DUP2 PUSH1 0x2 ADD PUSH0 DUP3 ADD MLOAD DUP2 PUSH0 ADD SSTORE PUSH1 0x20 DUP3 ADD MLOAD DUP2 PUSH1 0x1 ADD SWAP1 DUP2 PUSH2 0x1278 SWAP2 SWAP1 PUSH2 0x2FA6 JUMP JUMPDEST POP PUSH1 0x40 DUP3 ADD MLOAD DUP2 PUSH1 0x2 ADD PUSH0 PUSH2 0x100 EXP DUP2 SLOAD DUP2 PUSH1 0xFF MUL NOT AND SWAP1 DUP4 PUSH1 0xFF AND MUL OR SWAP1 SSTORE POP PUSH1 0x60 DUP3 ADD MLOAD DUP2 PUSH1 0x3 ADD SWAP1 DUP2 PUSH2 0x12AE SWAP2 SWAP1 PUSH2 0x2FA6 JUMP JUMPDEST POP POP POP PUSH1 0x60 DUP3 ADD MLOAD DUP2 PUSH1 0x6 ADD PUSH0 DUP3 ADD MLOAD DUP2 PUSH0 ADD SWAP1 DUP2 PUSH2 0x12CD SWAP2 SWAP1 PUSH2 0x2FA6 JUMP JUMPDEST POP PUSH1 0x20 DUP3 ADD MLOAD DUP2 PUSH1 0x1 ADD SWAP1 DUP2 PUSH2 0x12E3 SWAP2 SWAP1 PUSH2 0x2FA6 JUMP JUMPDEST POP PUSH1 0x40 DUP3 ADD MLOAD DUP2 PUSH1 0x2 ADD SWAP1 DUP2 PUSH2 0x12F9 SWAP2 SWAP1 PUSH2 0x2FA6 JUMP JUMPDEST POP PUSH1 0x60 DUP3 ADD MLOAD DUP2 PUSH1 0x3 ADD SSTORE PUSH1 0x80 DUP3 ADD MLOAD DUP2 PUSH1 0x4 ADD PUSH0 PUSH2 0x100 EXP DUP2 SLOAD DUP2 PUSH1 0xFF MUL NOT AND SWAP1 DUP4 PUSH1 0xFF AND MUL OR SWAP1 SSTORE POP POP POP PUSH1 0x80 DUP3 ADD MLOAD DUP2 PUSH1 0xB ADD PUSH0 DUP3 ADD MLOAD DUP2 PUSH0 ADD SWAP1 DUP2 PUSH2 0x1342 SWAP2 SWAP1 PUSH2 0x2FA6 JUMP JUMPDEST POP PUSH1 0x20 DUP3 ADD MLOAD DUP2 PUSH1 0x1 ADD SWAP1 DUP2 PUSH2 0x1358 SWAP2 SWAP1 PUSH2 0x2FA6 JUMP JUMPDEST POP PUSH1 0x40 DUP3 ADD MLOAD DUP2 PUSH1 0x2 ADD SSTORE PUSH1 0x60 DUP3 ADD MLOAD DUP2 PUSH1 0x3 ADD PUSH0 PUSH2 0x100 EXP DUP2 SLOAD DUP2 PUSH1 0xFF MUL NOT AND SWAP1 DUP4 PUSH1 0xFF AND MUL OR SWAP1 SSTORE POP POP POP PUSH1 0xA0 DUP3 ADD MLOAD DUP2 PUSH1 0xF ADD PUSH0 DUP3 ADD MLOAD DUP2 PUSH0 ADD SWAP1 DUP2 PUSH2 0x13A1 SWAP2 SWAP1 PUSH2 0x2FA6 JUMP JUMPDEST POP PUSH1 0x20 DUP3 ADD MLOAD DUP2 PUSH1 0x1 ADD SWAP1 DUP2 PUSH2 0x13B7 SWAP2 SWAP1 PUSH2 0x2FA6 JUMP JUMPDEST POP PUSH1 0x40 DUP3 ADD MLOAD DUP2 PUSH1 0x2 ADD SWAP1 DUP2 PUSH2 0x13CD SWAP2 SWAP1 PUSH2 0x2FA6 JUMP JUMPDEST POP PUSH1 0x60 DUP3 ADD MLOAD DUP2 PUSH1 0x3 ADD SSTORE PUSH1 0x80 DUP3 ADD MLOAD DUP2 PUSH1 0x4 ADD SWAP1 DUP2 PUSH2 0x13ED SWAP2 SWAP1 PUSH2 0x2FA6 JUMP JUMPDEST POP POP POP PUSH1 0xC0 DUP3 ADD MLOAD DUP2 PUSH1 0x14 ADD PUSH0 DUP3 ADD MLOAD DUP2 PUSH0 ADD SWAP1 DUP2 PUSH2 0x140C SWAP2 SWAP1 PUSH2 0x2FA6 JUMP JUMPDEST POP PUSH1 0x20 DUP3 ADD MLOAD DUP2 PUSH1 0x1 ADD SWAP1 DUP2 PUSH2 0x1422 SWAP2 SWAP1 PUSH2 0x2FA6 JUMP JUMPDEST POP PUSH1 0x40 DUP3 ADD MLOAD DUP2 PUSH1 0x2 ADD SWAP1 DUP2 PUSH2 0x1438 SWAP2 SWAP1 PUSH2 0x2FA6 JUMP JUMPDEST POP PUSH1 0x60 DUP3 ADD MLOAD DUP2 PUSH1 0x3 ADD SSTORE PUSH1 0x80 DUP3 ADD MLOAD DUP2 PUSH1 0x4 ADD PUSH0 PUSH2 0x100 EXP DUP2 SLOAD DUP2 PUSH1 0xFF MUL NOT AND SWAP1 DUP4 PUSH1 0xFF AND MUL OR SWAP1 SSTORE POP POP POP PUSH1 0xE0 DUP3 ADD MLOAD DUP2 PUSH1 0x19 ADD PUSH0 DUP3 ADD MLOAD DUP2 PUSH0 ADD SWAP1 DUP2 PUSH2 0x1481 SWAP2 SWAP1 PUSH2 0x2FA6 JUMP JUMPDEST POP PUSH1 0x20 DUP3 ADD MLOAD DUP2 PUSH1 0x1 ADD SWAP1 DUP2 PUSH2 0x1497 SWAP2 SWAP1 PUSH2 0x2FA6 JUMP JUMPDEST POP PUSH1 0x40 DUP3 ADD MLOAD DUP2 PUSH1 0x2 ADD SSTORE PUSH1 0x60 DUP3 ADD MLOAD DUP2 PUSH1 0x3 ADD PUSH0 PUSH2 0x100 EXP DUP2 SLOAD DUP2 PUSH1 0xFF MUL NOT AND SWAP1 DUP4 PUSH1 0xFF AND MUL OR SWAP1 SSTORE POP POP POP SWAP1 POP POP POP POP POP POP POP POP POP POP POP POP POP POP JUMP JUMPDEST PUSH0 PUSH0 DUP2 SLOAD DUP1 SWAP3 SWAP2 SWAP1 PUSH2 0x14E6 SWAP1 PUSH2 0x2DBF JUMP JUMPDEST SWAP2 SWAP1 POP SSTORE POP PUSH0 PUSH1 0x40 MLOAD DUP1 PUSH1 0x80 ADD PUSH1 0x40 MSTORE DUP1 DUP11 DUP2 MSTORE PUSH1 0x20 ADD DUP10 DUP2 MSTORE PUSH1 0x20 ADD DUP9 PUSH1 0xFF AND DUP2 MSTORE PUSH1 0x20 ADD DUP8 DUP2 MSTORE POP SWAP1 POP PUSH0 PUSH1 0x40 MLOAD DUP1 PUSH1 0x80 ADD PUSH1 0x40 MSTORE DUP1 DUP8 DUP2 MSTORE PUSH1 0x20 ADD DUP7 DUP2 MSTORE PUSH1 0x20 ADD DUP6 DUP2 MSTORE PUSH1 0x20 ADD DUP5 PUSH1 0xFF AND DUP2 MSTORE POP SWAP1 POP PUSH0 PUSH1 0x40 MLOAD DUP1 PUSH2 0x100 ADD PUSH1 0x40 MSTORE DUP1 PUSH0 SLOAD DUP2 MSTORE PUSH1 0x20 ADD PUSH1 0x1 PUSH1 0x4 DUP2 GT ISZERO PUSH2 0x1561 JUMPI PUSH2 0x1560 PUSH2 0x2390 JUMP JUMPDEST JUMPDEST DUP2 MSTORE PUSH1 0x20 ADD DUP5 DUP2 MSTORE PUSH1 0x20 ADD PUSH1 0x40 MLOAD DUP1 PUSH1 0xA0 ADD PUSH1 0x40 MSTORE DUP1 PUSH1 0x40 MLOAD DUP1 PUSH1 0x20 ADD PUSH1 0x40 MSTORE DUP1 PUSH0 DUP2 MSTORE POP DUP2 MSTORE PUSH1 0x20 ADD PUSH1 0x40 MLOAD DUP1 PUSH1 0x20 ADD PUSH1 0x40 MSTORE DUP1 PUSH0 DUP2 MSTORE POP DUP2 MSTORE PUSH1 0x20 ADD PUSH1 0x40 MLOAD DUP1 PUSH1 0x20 ADD PUSH1 0x40 MSTORE DUP1 PUSH0 DUP2 MSTORE POP DUP2 MSTORE PUSH1 0x20 ADD PUSH0 DUP2 MSTORE PUSH1 0x20 ADD PUSH0 PUSH1 0xFF AND DUP2 MSTORE POP DUP2 MSTORE PUSH1 0x20 ADD DUP4 DUP2 MSTORE PUSH1 0x20 ADD PUSH1 0x40 MLOAD DUP1 PUSH1 0xA0 ADD PUSH1 0x40 MSTORE DUP1 PUSH1 0x40 MLOAD DUP1 PUSH1 0x20 ADD PUSH1 0x40 MSTORE DUP1 PUSH0 DUP2 MSTORE POP DUP2 MSTORE PUSH1 0x20 ADD PUSH1 0x40 MLOAD DUP1 PUSH1 0x20 ADD PUSH1 0x40 MSTORE DUP1 PUSH0 DUP2 MSTORE POP DUP2 MSTORE PUSH1 0x20 ADD PUSH1 0x40 MLOAD DUP1 PUSH1 0x20 ADD PUSH1 0x40 MSTORE DUP1 PUSH0 DUP2 MSTORE POP DUP2 MSTORE PUSH1 0x20 ADD PUSH0 DUP2 MSTORE PUSH1 0x20 ADD PUSH1 0x40 MLOAD DUP1 PUSH1 0x20 ADD PUSH1 0x40 MSTORE DUP1 PUSH0 DUP2 MSTORE POP DUP2 MSTORE POP DUP2 MSTORE PUSH1 0x20 ADD PUSH1 0x40 MLOAD DUP1 PUSH1 0xA0 ADD PUSH1 0x40 MSTORE DUP1 PUSH1 0x40 MLOAD DUP1 PUSH1 0x20 ADD PUSH1 0x40 MSTORE DUP1 PUSH0 DUP2 MSTORE POP DUP2 MSTORE PUSH1 0x20 ADD PUSH1 0x40 MLOAD DUP1 PUSH1 0x20 ADD PUSH1 0x40 MSTORE DUP1 PUSH0 DUP2 MSTORE POP DUP2 MSTORE PUSH1 0x20 ADD PUSH1 0x40 MLOAD DUP1 PUSH1 0x20 ADD PUSH1 0x40 MSTORE DUP1 PUSH0 DUP2 MSTORE POP DUP2 MSTORE PUSH1 0x20 ADD PUSH0 DUP2 MSTORE PUSH1 0x20 ADD PUSH0 PUSH1 0xFF AND DUP2 MSTORE POP DUP2 MSTORE PUSH1 0x20 ADD PUSH1 0x40 MLOAD DUP1 PUSH1 0x80 ADD PUSH1 0x40 MSTORE DUP1 PUSH1 0x40 MLOAD DUP1 PUSH1 0x20 ADD PUSH1 0x40 MSTORE DUP1 PUSH0 DUP2 MSTORE POP DUP2 MSTORE PUSH1 0x20 ADD PUSH1 0x40 MLOAD DUP1 PUSH1 0x20 ADD PUSH1 0x40 MSTORE DUP1 PUSH0 DUP2 MSTORE POP DUP2 MSTORE PUSH1 0x20 ADD PUSH0 DUP2 MSTORE PUSH1 0x20 ADD PUSH0 PUSH1 0xFF AND DUP2 MSTORE POP DUP2 MSTORE POP SWAP1 POP DUP1 PUSH1 0x1 PUSH0 PUSH0 SLOAD DUP2 MSTORE PUSH1 0x20 ADD SWAP1 DUP2 MSTORE PUSH1 0x20 ADD PUSH0 KECCAK256 PUSH0 DUP3 ADD MLOAD DUP2 PUSH0 ADD SSTORE PUSH1 0x20 DUP3 ADD MLOAD DUP2 PUSH1 0x1 ADD PUSH0 PUSH2 0x100 EXP DUP2 SLOAD DUP2 PUSH1 0xFF MUL NOT AND SWAP1 DUP4 PUSH1 0x4 DUP2 GT ISZERO PUSH2 0x1712 JUMPI PUSH2 0x1711 PUSH2 0x2390 JUMP JUMPDEST JUMPDEST MUL OR SWAP1 SSTORE POP PUSH1 0x40 DUP3 ADD MLOAD DUP2 PUSH1 0x2 ADD PUSH0 DUP3 ADD MLOAD DUP2 PUSH0 ADD SSTORE PUSH1 0x20 DUP3 ADD MLOAD DUP2 PUSH1 0x1 ADD SWAP1 DUP2 PUSH2 0x173D SWAP2 SWAP1 PUSH2 0x2FA6 JUMP JUMPDEST POP PUSH1 0x40 DUP3 ADD MLOAD DUP2 PUSH1 0x2 ADD PUSH0 PUSH2 0x100 EXP DUP2 SLOAD DUP2 PUSH1 0xFF MUL NOT AND SWAP1 DUP4 PUSH1 0xFF AND MUL OR SWAP1 SSTORE POP PUSH1 0x60 DUP3 ADD MLOAD DUP2 PUSH1 0x3 ADD SWAP1 DUP2 PUSH2 0x1773 SWAP2 SWAP1 PUSH2 0x2FA6 JUMP JUMPDEST POP POP POP PUSH1 0x60 DUP3 ADD MLOAD DUP2 PUSH1 0x6 ADD PUSH0 DUP3 ADD MLOAD DUP2 PUSH0 ADD SWAP1 DUP2 PUSH2 0x1792 SWAP2 SWAP1 PUSH2 0x2FA6 JUMP JUMPDEST POP PUSH1 0x20 DUP3 ADD MLOAD DUP2 PUSH1 0x1 ADD SWAP1 DUP2 PUSH2 0x17A8 SWAP2 SWAP1 PUSH2 0x2FA6 JUMP JUMPDEST POP PUSH1 0x40 DUP3 ADD MLOAD DUP2 PUSH1 0x2 ADD SWAP1 DUP2 PUSH2 0x17BE SWAP2 SWAP1 PUSH2 0x2FA6 JUMP JUMPDEST POP PUSH1 0x60 DUP3 ADD MLOAD DUP2 PUSH1 0x3 ADD SSTORE PUSH1 0x80 DUP3 ADD MLOAD DUP2 PUSH1 0x4 ADD PUSH0 PUSH2 0x100 EXP DUP2 SLOAD DUP2 PUSH1 0xFF MUL NOT AND SWAP1 DUP4 PUSH1 0xFF AND MUL OR SWAP1 SSTORE POP POP POP PUSH1 0x80 DUP3 ADD MLOAD DUP2 PUSH1 0xB ADD PUSH0 DUP3 ADD MLOAD DUP2 PUSH0 ADD SWAP1 DUP2 PUSH2 0x1807 SWAP2 SWAP1 PUSH2 0x2FA6 JUMP JUMPDEST POP PUSH1 0x20 DUP3 ADD MLOAD DUP2 PUSH1 0x1 ADD SWAP1 DUP2 PUSH2 0x181D SWAP2 SWAP1 PUSH2 0x2FA6 JUMP JUMPDEST POP PUSH1 0x40 DUP3 ADD MLOAD DUP2 PUSH1 0x2 ADD SSTORE PUSH1 0x60 DUP3 ADD MLOAD DUP2 PUSH1 0x3 ADD PUSH0 PUSH2 0x100 EXP DUP2 SLOAD DUP2 PUSH1 0xFF MUL NOT AND SWAP1 DUP4 PUSH1 0xFF AND MUL OR SWAP1 SSTORE POP POP POP PUSH1 0xA0 DUP3 ADD MLOAD DUP2 PUSH1 0xF ADD PUSH0 DUP3 ADD MLOAD DUP2 PUSH0 ADD SWAP1 DUP2 PUSH2 0x1866 SWAP2 SWAP1 PUSH2 0x2FA6 JUMP JUMPDEST POP PUSH1 0x20 DUP3 ADD MLOAD DUP2 PUSH1 0x1 ADD SWAP1 DUP2 PUSH2 0x187C SWAP2 SWAP1 PUSH2 0x2FA6 JUMP JUMPDEST POP PUSH1 0x40 DUP3 ADD MLOAD DUP2 PUSH1 0x2 ADD SWAP1 DUP2 PUSH2 0x1892 SWAP2 SWAP1 PUSH2 0x2FA6 JUMP JUMPDEST POP PUSH1 0x60 DUP3 ADD MLOAD DUP2 PUSH1 0x3 ADD SSTORE PUSH1 0x80 DUP3 ADD MLOAD DUP2 PUSH1 0x4 ADD SWAP1 DUP2 PUSH2 0x18B2 SWAP2 SWAP1 PUSH2 0x2FA6 JUMP JUMPDEST POP POP POP PUSH1 0xC0 DUP3 ADD MLOAD DUP2 PUSH1 0x14 ADD PUSH0 DUP3 ADD MLOAD DUP2 PUSH0 ADD SWAP1 DUP2 PUSH2 0x18D1 SWAP2 SWAP1 PUSH2 0x2FA6 JUMP JUMPDEST POP PUSH1 0x20 DUP3 ADD MLOAD DUP2 PUSH1 0x1 ADD SWAP1 DUP2 PUSH2 0x18E7 SWAP2 SWAP1 PUSH2 0x2FA6 JUMP JUMPDEST POP PUSH1 0x40 DUP3 ADD MLOAD DUP2 PUSH1 0x2 ADD SWAP1 DUP2 PUSH2 0x18FD SWAP2 SWAP1 PUSH2 0x2FA6 JUMP JUMPDEST POP PUSH1 0x60 DUP3 ADD MLOAD DUP2 PUSH1 0x3 ADD SSTORE PUSH1 0x80 DUP3 ADD MLOAD DUP2 PUSH1 0x4 ADD PUSH0 PUSH2 0x100 EXP DUP2 SLOAD DUP2 PUSH1 0xFF MUL NOT AND SWAP1 DUP4 PUSH1 0xFF AND MUL OR SWAP1 SSTORE POP POP POP PUSH1 0xE0 DUP3 ADD MLOAD DUP2 PUSH1 0x19 ADD PUSH0 DUP3 ADD MLOAD DUP2 PUSH0 ADD SWAP1 DUP2 PUSH2 0x1946 SWAP2 SWAP1 PUSH2 0x2FA6 JUMP JUMPDEST POP PUSH1 0x20 DUP3 ADD MLOAD DUP2 PUSH1 0x1 ADD SWAP1 DUP2 PUSH2 0x195C SWAP2 SWAP1 PUSH2 0x2FA6 JUMP JUMPDEST POP PUSH1 0x40 DUP3 ADD MLOAD DUP2 PUSH1 0x2 ADD SSTORE PUSH1 0x60 DUP3 ADD MLOAD DUP2 PUSH1 0x3 ADD PUSH0 PUSH2 0x100 EXP DUP2 SLOAD DUP2 PUSH1 0xFF MUL NOT AND SWAP1 DUP4 PUSH1 0xFF AND MUL OR SWAP1 SSTORE POP POP POP SWAP1 POP POP POP POP POP POP POP POP POP POP POP POP POP JUMP JUMPDEST PUSH0 PUSH0 DUP2 SLOAD DUP1 SWAP3 SWAP2 SWAP1 PUSH2 0x19AA SWAP1 PUSH2 0x2DBF JUMP JUMPDEST SWAP2 SWAP1 POP SSTORE POP PUSH0 PUSH1 0x40 MLOAD DUP1 PUSH1 0x80 ADD PUSH1 0x40 MSTORE DUP1 DUP12 DUP2 MSTORE PUSH1 0x20 ADD DUP11 DUP2 MSTORE PUSH1 0x20 ADD DUP10 PUSH1 0xFF AND DUP2 MSTORE PUSH1 0x20 ADD DUP9 DUP2 MSTORE POP SWAP1 POP PUSH0 PUSH1 0x40 MLOAD DUP1 PUSH1 0xA0 ADD PUSH1 0x40 MSTORE DUP1 DUP8 DUP2 MSTORE PUSH1 0x20 ADD DUP9 DUP2 MSTORE PUSH1 0x20 ADD DUP7 DUP2 MSTORE PUSH1 0x20 ADD DUP6 DUP2 MSTORE PUSH1 0x20 ADD DUP5 PUSH1 0xFF AND DUP2 MSTORE POP SWAP1 POP PUSH0 PUSH1 0x40 MLOAD DUP1 PUSH2 0x100 ADD PUSH1 0x40 MSTORE DUP1 PUSH0 SLOAD DUP2 MSTORE PUSH1 0x20 ADD PUSH0 PUSH1 0x4 DUP2 GT ISZERO PUSH2 0x1A2A JUMPI PUSH2 0x1A29 PUSH2 0x2390 JUMP JUMPDEST JUMPDEST DUP2 MSTORE PUSH1 0x20 ADD DUP5 DUP2 MSTORE PUSH1 0x20 ADD DUP4 DUP2 MSTORE PUSH1 0x20 ADD PUSH1 0x40 MLOAD DUP1 PUSH1 0x80 ADD PUSH1 0x40 MSTORE DUP1 PUSH1 0x40 MLOAD DUP1 PUSH1 0x20 ADD PUSH1 0x40 MSTORE DUP1 PUSH0 DUP2 MSTORE POP DUP2 MSTORE PUSH1 0x20 ADD PUSH1 0x40 MLOAD DUP1 PUSH1 0x20 ADD PUSH1 0x40 MSTORE DUP1 PUSH0 DUP2 MSTORE POP DUP2 MSTORE PUSH1 0x20 ADD PUSH0 DUP2 MSTORE PUSH1 0x20 ADD PUSH0 PUSH1 0xFF AND DUP2 MSTORE POP DUP2 MSTORE PUSH1 0x20 ADD PUSH1 0x40 MLOAD DUP1 PUSH1 0xA0 ADD PUSH1 0x40 MSTORE DUP1 PUSH1 0x40 MLOAD DUP1 PUSH1 0x20 ADD PUSH1 0x40 MSTORE DUP1 PUSH0 DUP2 MSTORE POP DUP2 MSTORE PUSH1 0x20 ADD PUSH1 0x40 MLOAD DUP1 PUSH1 0x20 ADD PUSH1 0x40 MSTORE DUP1 PUSH0 DUP2 MSTORE POP DUP2 MSTORE PUSH1 0x20 ADD PUSH1 0x40 MLOAD DUP1 PUSH1 0x20 ADD PUSH1 0x40 MSTORE DUP1 PUSH0 DUP2 MSTORE POP DUP2 MSTORE PUSH1 0x20 ADD PUSH0 DUP2 MSTORE PUSH1 0x20 ADD PUSH1 0x40 MLOAD DUP1 PUSH1 0x20 ADD PUSH1 0x40 MSTORE DUP1 PUSH0 DUP2 MSTORE POP DUP2 MSTORE POP DUP2 MSTORE PUSH1 0x20 ADD PUSH1 0x40 MLOAD DUP1 PUSH1 0xA0 ADD PUSH1 0x40 MSTORE DUP1 PUSH1 0x40 MLOAD DUP1 PUSH1 0x20 ADD PUSH1 0x40 MSTORE DUP1 PUSH0 DUP2 MSTORE POP DUP2 MSTORE PUSH1 0x20 ADD PUSH1 0x40 MLOAD DUP1 PUSH1 0x20 ADD PUSH1 0x40 MSTORE DUP1 PUSH0 DUP2 MSTORE POP DUP2 MSTORE PUSH1 0x20 ADD PUSH1 0x40 MLOAD DUP1 PUSH1 0x20 ADD PUSH1 0x40 MSTORE DUP1 PUSH0 DUP2 MSTORE POP DUP2 MSTORE PUSH1 0x20 ADD PUSH0 DUP2 MSTORE PUSH1 0x20 ADD PUSH0 PUSH1 0xFF AND DUP2 MSTORE POP DUP2 MSTORE PUSH1 0x20 ADD PUSH1 0x40 MLOAD DUP1 PUSH1 0x80 ADD PUSH1 0x40 MSTORE DUP1 PUSH1 0x40 MLOAD DUP1 PUSH1 0x20 ADD PUSH1 0x40 MSTORE DUP1 PUSH0 DUP2 MSTORE POP DUP2 MSTORE PUSH1 0x20 ADD PUSH1 0x40 MLOAD DUP1 PUSH1 0x20 ADD PUSH1 0x40 MSTORE DUP1 PUSH0 DUP2 MSTORE POP DUP2 MSTORE PUSH1 0x20 ADD PUSH0 DUP2 MSTORE PUSH1 0x20 ADD PUSH0 PUSH1 0xFF AND DUP2 MSTORE POP DUP2 MSTORE POP SWAP1 POP DUP1 PUSH1 0x1 PUSH0 PUSH0 SLOAD DUP2 MSTORE PUSH1 0x20 ADD SWAP1 DUP2 MSTORE PUSH1 0x20 ADD PUSH0 KECCAK256 PUSH0 DUP3 ADD MLOAD DUP2 PUSH0 ADD SSTORE PUSH1 0x20 DUP3 ADD MLOAD DUP2 PUSH1 0x1 ADD PUSH0 PUSH2 0x100 EXP DUP2 SLOAD DUP2 PUSH1 0xFF MUL NOT AND SWAP1 DUP4 PUSH1 0x4 DUP2 GT ISZERO PUSH2 0x1BC7 JUMPI PUSH2 0x1BC6 PUSH2 0x2390 JUMP JUMPDEST JUMPDEST MUL OR SWAP1 SSTORE POP PUSH1 0x40 DUP3 ADD MLOAD DUP2 PUSH1 0x2 ADD PUSH0 DUP3 ADD MLOAD DUP2 PUSH0 ADD SSTORE PUSH1 0x20 DUP3 ADD MLOAD DUP2 PUSH1 0x1 ADD SWAP1 DUP2 PUSH2 0x1BF2 SWAP2 SWAP1 PUSH2 0x2FA6 JUMP JUMPDEST POP PUSH1 0x40 DUP3 ADD MLOAD DUP2 PUSH1 0x2 ADD PUSH0 PUSH2 0x100 EXP DUP2 SLOAD DUP2 PUSH1 0xFF MUL NOT AND SWAP1 DUP4 PUSH1 0xFF AND MUL OR SWAP1 SSTORE POP PUSH1 0x60 DUP3 ADD MLOAD DUP2 PUSH1 0x3 ADD SWAP1 DUP2 PUSH2 0x1C28 SWAP2 SWAP1 PUSH2 0x2FA6 JUMP JUMPDEST POP POP POP PUSH1 0x60 DUP3 ADD MLOAD DUP2 PUSH1 0x6 ADD PUSH0 DUP3 ADD MLOAD DUP2 PUSH0 ADD SWAP1 DUP2 PUSH2 0x1C47 SWAP2 SWAP1 PUSH2 0x2FA6 JUMP JUMPDEST POP PUSH1 0x20 DUP3 ADD MLOAD DUP2 PUSH1 0x1 ADD SWAP1 DUP2 PUSH2 0x1C5D SWAP2 SWAP1 PUSH2 0x2FA6 JUMP JUMPDEST POP PUSH1 0x40 DUP3 ADD MLOAD DUP2 PUSH1 0x2 ADD SWAP1 DUP2 PUSH2 0x1C73 SWAP2 SWAP1 PUSH2 0x2FA6 JUMP JUMPDEST POP PUSH1 0x60 DUP3 ADD MLOAD DUP2 PUSH1 0x3 ADD SSTORE PUSH1 0x80 DUP3 ADD MLOAD DUP2 PUSH1 0x4 ADD PUSH0 PUSH2 0x100 EXP DUP2 SLOAD DUP2 PUSH1 0xFF MUL NOT AND SWAP1 DUP4 PUSH1 0xFF AND MUL OR SWAP1 SSTORE POP POP POP PUSH1 0x80 DUP3 ADD MLOAD DUP2 PUSH1 0xB ADD PUSH0 DUP3 ADD MLOAD DUP2 PUSH0 ADD SWAP1 DUP2 PUSH2 0x1CBC SWAP2 SWAP1 PUSH2 0x2FA6 JUMP JUMPDEST POP PUSH1 0x20 DUP3 ADD MLOAD DUP2 PUSH1 0x1 ADD SWAP1 DUP2 PUSH2 0x1CD2 SWAP2 SWAP1 PUSH2 0x2FA6 JUMP JUMPDEST POP PUSH1 0x40 DUP3 ADD MLOAD DUP2 PUSH1 0x2 ADD SSTORE PUSH1 0x60 DUP3 ADD MLOAD DUP2 PUSH1 0x3 ADD PUSH0 PUSH2 0x100 EXP DUP2 SLOAD DUP2 PUSH1 0xFF MUL NOT AND SWAP1 DUP4 PUSH1 0xFF AND MUL OR SWAP1 SSTORE POP POP POP PUSH1 0xA0 DUP3 ADD MLOAD DUP2 PUSH1 0xF ADD PUSH0 DUP3 ADD MLOAD DUP2 PUSH0 ADD SWAP1 DUP2 PUSH2 0x1D1B SWAP2 SWAP1 PUSH2 0x2FA6 JUMP JUMPDEST POP PUSH1 0x20 DUP3 ADD MLOAD DUP2 PUSH1 0x1 ADD SWAP1 DUP2 PUSH2 0x1D31 SWAP2 SWAP1 PUSH2 0x2FA6 JUMP JUMPDEST POP PUSH1 0x40 DUP3 ADD MLOAD DUP2 PUSH1 0x2 ADD SWAP1 DUP2 PUSH2 0x1D47 SWAP2 SWAP1 PUSH2 0x2FA6 JUMP JUMPDEST POP PUSH1 0x60 DUP3 ADD MLOAD DUP2 PUSH1 0x3 ADD SSTORE PUSH1 0x80 DUP3 ADD MLOAD DUP2 PUSH1 0x4 ADD SWAP1 DUP2 PUSH2 0x1D67 SWAP2 SWAP1 PUSH2 0x2FA6 JUMP JUMPDEST POP POP POP PUSH1 0xC0 DUP3 ADD MLOAD DUP2 PUSH1 0x14 ADD PUSH0 DUP3 ADD MLOAD DUP2 PUSH0 ADD SWAP1 DUP2 PUSH2 0x1D86 SWAP2 SWAP1 PUSH2 0x2FA6 JUMP JUMPDEST POP PUSH1 0x20 DUP3 ADD MLOAD DUP2 PUSH1 0x1 ADD SWAP1 DUP2 PUSH2 0x1D9C SWAP2 SWAP1 PUSH2 0x2FA6 JUMP JUMPDEST POP PUSH1 0x40 DUP3 ADD MLOAD DUP2 PUSH1 0x2 ADD SWAP1 DUP2 PUSH2 0x1DB2 SWAP2 SWAP1 PUSH2 0x2FA6 JUMP JUMPDEST POP PUSH1 0x60 DUP3 ADD MLOAD DUP2 PUSH1 0x3 ADD SSTORE PUSH1 0x80 DUP3 ADD MLOAD DUP2 PUSH1 0x4 ADD PUSH0 PUSH2 0x100 EXP DUP2 SLOAD DUP2 PUSH1 0xFF MUL NOT AND SWAP1 DUP4 PUSH1 0xFF AND MUL OR SWAP1 SSTORE POP POP POP PUSH1 0xE0 DUP3 ADD MLOAD DUP2 PUSH1 0x19 ADD PUSH0 DUP3 ADD MLOAD DUP2 PUSH0 ADD SWAP1 DUP2 PUSH2 0x1DFB SWAP2 SWAP1 PUSH2 0x2FA6 JUMP JUMPDEST POP PUSH1 0x20 DUP3 ADD MLOAD DUP2 PUSH1 0x1 ADD SWAP1 DUP2 PUSH2 0x1E11 SWAP2 SWAP1 PUSH2 0x2FA6 JUMP JUMPDEST POP PUSH1 0x40 DUP3 ADD MLOAD DUP2 PUSH1 0x2 ADD SSTORE PUSH1 0x60 DUP3 ADD MLOAD DUP2 PUSH1 0x3 ADD PUSH0 PUSH2 0x100 EXP DUP2 SLOAD DUP2 PUSH1 0xFF MUL NOT AND SWAP1 DUP4 PUSH1 0xFF AND MUL OR SWAP1 SSTORE POP POP POP SWAP1 POP POP POP POP POP POP POP POP POP POP POP POP POP POP JUMP JUMPDEST PUSH0 PUSH0 DUP2 SLOAD DUP1 SWAP3 SWAP2 SWAP1 PUSH2 0x1E60 SWAP1 PUSH2 0x2DBF JUMP JUMPDEST SWAP2 SWAP1 POP SSTORE POP PUSH0 PUSH1 0x40 MLOAD DUP1 PUSH1 0x80 ADD PUSH1 0x40 MSTORE DUP1 DUP11 DUP2 MSTORE PUSH1 0x20 ADD DUP10 DUP2 MSTORE PUSH1 0x20 ADD DUP9 PUSH1 0xFF AND DUP2 MSTORE PUSH1 0x20 ADD DUP8 DUP2 MSTORE POP SWAP1 POP PUSH0 PUSH1 0x40 MLOAD DUP1 PUSH1 0x80 ADD PUSH1 0x40 MSTORE DUP1 DUP8 DUP2 MSTORE PUSH1 0x20 ADD DUP7 DUP2 MSTORE PUSH1 0x20 ADD DUP6 DUP2 MSTORE PUSH1 0x20 ADD DUP5 PUSH1 0xFF AND DUP2 MSTORE POP SWAP1 POP PUSH0 PUSH1 0x40 MLOAD DUP1 PUSH2 0x100 ADD PUSH1 0x40 MSTORE DUP1 PUSH0 SLOAD DUP2 MSTORE PUSH1 0x20 ADD PUSH1 0x4 DUP1 DUP2 GT ISZERO PUSH2 0x1EDA JUMPI PUSH2 0x1ED9 PUSH2 0x2390 JUMP JUMPDEST JUMPDEST DUP2 MSTORE PUSH1 0x20 ADD DUP5 DUP2 MSTORE PUSH1 0x20 ADD PUSH1 0x40 MLOAD DUP1 PUSH1 0xA0 ADD PUSH1 0x40 MSTORE DUP1 PUSH1 0x40 MLOAD DUP1 PUSH1 0x20 ADD PUSH1 0x40 MSTORE DUP1 PUSH0 DUP2 MSTORE POP DUP2 MSTORE PUSH1 0x20 ADD PUSH1 0x40 MLOAD DUP1 PUSH1 0x20 ADD PUSH1 0x40 MSTORE DUP1 PUSH0 DUP2 MSTORE POP DUP2 MSTORE PUSH1 0x20 ADD PUSH1 0x40 MLOAD DUP1 PUSH1 0x20 ADD PUSH1 0x40 MSTORE DUP1 PUSH0 DUP2 MSTORE POP DUP2 MSTORE PUSH1 0x20 ADD PUSH0 DUP2 MSTORE PUSH1 0x20 ADD PUSH0 PUSH1 0xFF AND DUP2 MSTORE POP DUP2 MSTORE PUSH1 0x20 ADD PUSH1 0x40 MLOAD DUP1 PUSH1 0x80 ADD PUSH1 0x40 MSTORE DUP1 PUSH1 0x40 MLOAD DUP1 PUSH1 0x20 ADD PUSH1 0x40 MSTORE DUP1 PUSH0 DUP2 MSTORE POP DUP2 MSTORE PUSH1 0x20 ADD PUSH1 0x40 MLOAD DUP1 PUSH1 0x20 ADD PUSH1 0x40 MSTORE DUP1 PUSH0 DUP2 MSTORE POP DUP2 MSTORE PUSH1 0x20 ADD PUSH0 DUP2 MSTORE PUSH1 0x20 ADD PUSH0 PUSH1 0xFF AND DUP2 MSTORE POP DUP2 MSTORE PUSH1 0x20 ADD PUSH1 0x40 MLOAD DUP1 PUSH1 0xA0 ADD PUSH1 0x40 MSTORE DUP1 PUSH1 0x40 MLOAD DUP1 PUSH1 0x20 ADD PUSH1 0x40 MSTORE DUP1 PUSH0 DUP2 MSTORE POP DUP2 MSTORE PUSH1 0x20 ADD PUSH1 0x40 MLOAD DUP1 PUSH1 0x20 ADD PUSH1 0x40 MSTORE DUP1 PUSH0 DUP2 MSTORE POP DUP2 MSTORE PUSH1 0x20 ADD PUSH1 0x40 MLOAD DUP1 PUSH1 0x20 ADD PUSH1 0x40 MSTORE DUP1 PUSH0 DUP2 MSTORE POP DUP2 MSTORE PUSH1 0x20 ADD PUSH0 DUP2 MSTORE PUSH1 0x20 ADD PUSH1 0x40 MLOAD DUP1 PUSH1 0x20 ADD PUSH1 0x40 MSTORE DUP1 PUSH0 DUP2 MSTORE POP DUP2 MSTORE POP DUP2 MSTORE PUSH1 0x20 ADD PUSH1 0x40 MLOAD DUP1 PUSH1 0xA0 ADD PUSH1 0x40 MSTORE DUP1 PUSH1 0x40 MLOAD DUP1 PUSH1 0x20 ADD PUSH1 0x40 MSTORE DUP1 PUSH0 DUP2 MSTORE POP DUP2 MSTORE PUSH1 0x20 ADD PUSH1 0x40 MLOAD DUP1 PUSH1 0x20 ADD PUSH1 0x40 MSTORE DUP1 PUSH0 DUP2 MSTORE POP DUP2 MSTORE PUSH1 0x20 ADD PUSH1 0x40 MLOAD DUP1 PUSH1 0x20 ADD PUSH1 0x40 MSTORE DUP1 PUSH0 DUP2 MSTORE POP DUP2 MSTORE PUSH1 0x20 ADD PUSH0 DUP2 MSTORE PUSH1 0x20 ADD PUSH0 PUSH1 0xFF AND DUP2 MSTORE POP DUP2 MSTORE PUSH1 0x20 ADD DUP4 DUP2 MSTORE POP SWAP1 POP DUP1 PUSH1 0x1 PUSH0 PUSH0 SLOAD DUP2 MSTORE PUSH1 0x20 ADD SWAP1 DUP2 MSTORE PUSH1 0x20 ADD PUSH0 KECCAK256 PUSH0 DUP3 ADD MLOAD DUP2 PUSH0 ADD SSTORE PUSH1 0x20 DUP3 ADD MLOAD DUP2 PUSH1 0x1 ADD PUSH0 PUSH2 0x100 EXP DUP2 SLOAD DUP2 PUSH1 0xFF MUL NOT AND SWAP1 DUP4 PUSH1 0x4 DUP2 GT ISZERO PUSH2 0x208B JUMPI PUSH2 0x208A PUSH2 0x2390 JUMP JUMPDEST JUMPDEST MUL OR SWAP1 SSTORE POP PUSH1 0x40 DUP3 ADD MLOAD DUP2 PUSH1 0x2 ADD PUSH0 DUP3 ADD MLOAD DUP2 PUSH0 ADD SSTORE PUSH1 0x20 DUP3 ADD MLOAD DUP2 PUSH1 0x1 ADD SWAP1 DUP2 PUSH2 0x20B6 SWAP2 SWAP1 PUSH2 0x2FA6 JUMP JUMPDEST POP PUSH1 0x40 DUP3 ADD MLOAD DUP2 PUSH1 0x2 ADD PUSH0 PUSH2 0x100 EXP DUP2 SLOAD DUP2 PUSH1 0xFF MUL NOT AND SWAP1 DUP4 PUSH1 0xFF AND MUL OR SWAP1 SSTORE POP PUSH1 0x60 DUP3 ADD MLOAD DUP2 PUSH1 0x3 ADD SWAP1 DUP2 PUSH2 0x20EC SWAP2 SWAP1 PUSH2 0x2FA6 JUMP JUMPDEST POP POP POP PUSH1 0x60 DUP3 ADD MLOAD DUP2 PUSH1 0x6 ADD PUSH0 DUP3 ADD MLOAD DUP2 PUSH0 ADD SWAP1 DUP2 PUSH2 0x210B SWAP2 SWAP1 PUSH2 0x2FA6 JUMP JUMPDEST POP PUSH1 0x20 DUP3 ADD MLOAD DUP2 PUSH1 0x1 ADD SWAP1 DUP2 PUSH2 0x2121 SWAP2 SWAP1 PUSH2 0x2FA6 JUMP JUMPDEST POP PUSH1 0x40 DUP3 ADD MLOAD DUP2 PUSH1 0x2 ADD SWAP1 DUP2 PUSH2 0x2137 SWAP2 SWAP1 PUSH2 0x2FA6 JUMP JUMPDEST POP PUSH1 0x60 DUP3 ADD MLOAD DUP2 PUSH1 0x3 ADD SSTORE PUSH1 0x80 DUP3 ADD MLOAD DUP2 PUSH1 0x4 ADD PUSH0 PUSH2 0x100 EXP DUP2 SLOAD DUP2 PUSH1 0xFF MUL NOT AND SWAP1 DUP4 PUSH1 0xFF AND MUL OR SWAP1 SSTORE POP POP POP PUSH1 0x80 DUP3 ADD MLOAD DUP2 PUSH1 0xB ADD PUSH0 DUP3 ADD MLOAD DUP2 PUSH0 ADD SWAP1 DUP2 PUSH2 0x2180 SWAP2 SWAP1 PUSH2 0x2FA6 JUMP JUMPDEST POP PUSH1 0x20 DUP3 ADD MLOAD DUP2 PUSH1 0x1 ADD SWAP1 DUP2 PUSH2 0x2196 SWAP2 SWAP1 PUSH2 0x2FA6 JUMP JUMPDEST POP PUSH1 0x40 DUP3 ADD MLOAD DUP2 PUSH1 0x2 ADD SSTORE PUSH1 0x60 DUP3 ADD MLOAD DUP2 PUSH1 0x3 ADD PUSH0 PUSH2 0x100 EXP DUP2 SLOAD DUP2 PUSH1 0xFF MUL NOT AND SWAP1 DUP4 PUSH1 0xFF AND MUL OR SWAP1 SSTORE POP POP POP PUSH1 0xA0 DUP3 ADD MLOAD DUP2 PUSH1 0xF ADD PUSH0 DUP3 ADD MLOAD DUP2 PUSH0 ADD SWAP1 DUP2 PUSH2 0x21DF SWAP2 SWAP1 PUSH2 0x2FA6 JUMP JUMPDEST POP PUSH1 0x20 DUP3 ADD MLOAD DUP2 PUSH1 0x1 ADD SWAP1 DUP2 PUSH2 0x21F5 SWAP2 SWAP1 PUSH2 0x2FA6 JUMP JUMPDEST POP PUSH1 0x40 DUP3 ADD MLOAD DUP2 PUSH1 0x2 ADD SWAP1 DUP2 PUSH2 0x220B SWAP2 SWAP1 PUSH2 0x2FA6 JUMP JUMPDEST POP PUSH1 0x60 DUP3 ADD MLOAD DUP2 PUSH1 0x3 ADD SSTORE PUSH1 0x80 DUP3 ADD MLOAD DUP2 PUSH1 0x4 ADD SWAP1 DUP2 PUSH2 0x222B SWAP2 SWAP1 PUSH2 0x2FA6 JUMP JUMPDEST POP POP POP PUSH1 0xC0 DUP3 ADD MLOAD DUP2 PUSH1 0x14 ADD PUSH0 DUP3 ADD MLOAD DUP2 PUSH0 ADD SWAP1 DUP2 PUSH2 0x224A SWAP2 SWAP1 PUSH2 0x2FA6 JUMP JUMPDEST POP PUSH1 0x20 DUP3 ADD MLOAD DUP2 PUSH1 0x1 ADD SWAP1 DUP2 PUSH2 0x2260 SWAP2 SWAP1 PUSH2 0x2FA6 JUMP JUMPDEST POP PUSH1 0x40 DUP3 ADD MLOAD DUP2 PUSH1 0x2 ADD SWAP1 DUP2 PUSH2 0x2276 SWAP2 SWAP1 PUSH2 0x2FA6 JUMP JUMPDEST POP PUSH1 0x60 DUP3 ADD MLOAD DUP2 PUSH1 0x3 ADD SSTORE PUSH1 0x80 DUP3 ADD MLOAD DUP2 PUSH1 0x4 ADD PUSH0 PUSH2 0x100 EXP DUP2 SLOAD DUP2 PUSH1 0xFF MUL NOT AND SWAP1 DUP4 PUSH1 0xFF AND MUL OR SWAP1 SSTORE POP POP POP PUSH1 0xE0 DUP3 ADD MLOAD DUP2 PUSH1 0x19 ADD PUSH0 DUP3 ADD MLOAD DUP2 PUSH0 ADD SWAP1 DUP2 PUSH2 0x22BF SWAP2 SWAP1 PUSH2 0x2FA6 JUMP JUMPDEST POP PUSH1 0x20 DUP3 ADD MLOAD DUP2 PUSH1 0x1 ADD SWAP1 DUP2 PUSH2 0x22D5 SWAP2 SWAP1 PUSH2 0x2FA6 JUMP JUMPDEST POP PUSH1 0x40 DUP3 ADD MLOAD DUP2 PUSH1 0x2 ADD SSTORE PUSH1 0x60 DUP3 ADD MLOAD DUP2 PUSH1 0x3 ADD PUSH0 PUSH2 0x100 EXP DUP2 SLOAD DUP2 PUSH1 0xFF MUL NOT AND SWAP1 DUP4 PUSH1 0xFF AND MUL OR SWAP1 SSTORE POP POP POP SWAP1 POP POP POP POP POP POP POP POP POP POP POP POP POP JUMP JUMPDEST PUSH0 PUSH1 0x40 MLOAD SWAP1 POP SWAP1 JUMP JUMPDEST PUSH0 PUSH0 REVERT JUMPDEST PUSH0 PUSH0 REVERT JUMPDEST PUSH0 DUP2 SWAP1 POP SWAP2 SWAP1 POP JUMP JUMPDEST PUSH2 0x2335 DUP2 PUSH2 0x2323 JUMP JUMPDEST DUP2 EQ PUSH2 0x233F JUMPI PUSH0 PUSH0 REVERT JUMPDEST POP JUMP JUMPDEST PUSH0 DUP2 CALLDATALOAD SWAP1 POP PUSH2 0x2350 DUP2 PUSH2 0x232C JUMP JUMPDEST SWAP3 SWAP2 POP POP JUMP JUMPDEST PUSH0 PUSH1 0x20 DUP3 DUP5 SUB SLT ISZERO PUSH2 0x236B JUMPI PUSH2 0x236A PUSH2 0x231B JUMP JUMPDEST JUMPDEST PUSH0 PUSH2 0x2378 DUP5 DUP3 DUP6 ADD PUSH2 0x2342 JUMP JUMPDEST SWAP2 POP POP SWAP3 SWAP2 POP POP JUMP JUMPDEST PUSH2 0x238A DUP2 PUSH2 0x2323 JUMP JUMPDEST DUP3 MSTORE POP POP JUMP JUMPDEST PUSH32 0x4E487B7100000000000000000000000000000000000000000000000000000000 PUSH0 MSTORE PUSH1 0x21 PUSH1 0x4 MSTORE PUSH1 0x24 PUSH0 REVERT JUMPDEST PUSH1 0x5 DUP2 LT PUSH2 0x23CE JUMPI PUSH2 0x23CD PUSH2 0x2390 JUMP JUMPDEST JUMPDEST POP JUMP JUMPDEST PUSH0 DUP2 SWAP1 POP PUSH2 0x23DE DUP3 PUSH2 0x23BD JUMP JUMPDEST SWAP2 SWAP1 POP JUMP JUMPDEST PUSH0 PUSH2 0x23ED DUP3 PUSH2 0x23D1 JUMP JUMPDEST SWAP1 POP SWAP2 SWAP1 POP JUMP JUMPDEST PUSH2 0x23FD DUP2 PUSH2 0x23E3 JUMP JUMPDEST DUP3 MSTORE POP POP JUMP JUMPDEST PUSH2 0x240C DUP2 PUSH2 0x2323 JUMP JUMPDEST DUP3 MSTORE POP POP JUMP JUMPDEST PUSH0 DUP2 MLOAD SWAP1 POP SWAP2 SWAP1 POP JUMP JUMPDEST PUSH0 DUP3 DUP3 MSTORE PUSH1 0x20 DUP3 ADD SWAP1 POP SWAP3 SWAP2 POP POP JUMP JUMPDEST DUP3 DUP2 DUP4 MCOPY PUSH0 DUP4 DUP4 ADD MSTORE POP POP POP JUMP JUMPDEST PUSH0 PUSH1 0x1F NOT PUSH1 0x1F DUP4 ADD AND SWAP1 POP SWAP2 SWAP1 POP JUMP JUMPDEST PUSH0 PUSH2 0x2454 DUP3 PUSH2 0x2412 JUMP JUMPDEST PUSH2 0x245E DUP2 DUP6 PUSH2 0x241C JUMP JUMPDEST SWAP4 POP PUSH2 0x246E DUP2 DUP6 PUSH1 0x20 DUP7 ADD PUSH2 0x242C JUMP JUMPDEST PUSH2 0x2477 DUP2 PUSH2 0x243A JUMP JUMPDEST DUP5 ADD SWAP2 POP POP SWAP3 SWAP2 POP POP JUMP JUMPDEST PUSH0 PUSH1 0xFF DUP3 AND SWAP1 POP SWAP2 SWAP1 POP JUMP JUMPDEST PUSH2 0x2497 DUP2 PUSH2 0x2482 JUMP JUMPDEST DUP3 MSTORE POP POP JUMP JUMPDEST PUSH0 PUSH1 0x80 DUP4 ADD PUSH0 DUP4 ADD MLOAD PUSH2 0x24B2 PUSH0 DUP7 ADD DUP3 PUSH2 0x2403 JUMP JUMPDEST POP PUSH1 0x20 DUP4 ADD MLOAD DUP5 DUP3 SUB PUSH1 0x20 DUP7 ADD MSTORE PUSH2 0x24CA DUP3 DUP3 PUSH2 0x244A JUMP JUMPDEST SWAP2 POP POP PUSH1 0x40 DUP4 ADD MLOAD PUSH2 0x24DF PUSH1 0x40 DUP7 ADD DUP3 PUSH2 0x248E JUMP JUMPDEST POP PUSH1 0x60 DUP4 ADD MLOAD DUP5 DUP3 SUB PUSH1 0x60 DUP7 ADD MSTORE PUSH2 0x24F7 DUP3 DUP3 PUSH2 0x244A JUMP JUMPDEST SWAP2 POP POP DUP1 SWAP2 POP POP SWAP3 SWAP2 POP POP JUMP JUMPDEST PUSH0 PUSH1 0xA0 DUP4 ADD PUSH0 DUP4 ADD MLOAD DUP5 DUP3 SUB PUSH0 DUP7 ADD MSTORE PUSH2 0x251E DUP3 DUP3 PUSH2 0x244A JUMP JUMPDEST SWAP2 POP POP PUSH1 0x20 DUP4 ADD MLOAD DUP5 DUP3 SUB PUSH1 0x20 DUP7 ADD MSTORE PUSH2 0x2538 DUP3 DUP3 PUSH2 0x244A JUMP JUMPDEST SWAP2 POP POP PUSH1 0x40 DUP4 ADD MLOAD DUP5 DUP3 SUB PUSH1 0x40 DUP7 ADD MSTORE PUSH2 0x2552 DUP3 DUP3 PUSH2 0x244A JUMP JUMPDEST SWAP2 POP POP PUSH1 0x60 DUP4 ADD MLOAD PUSH2 0x2567 PUSH1 0x60 DUP7 ADD DUP3 PUSH2 0x2403 JUMP JUMPDEST POP PUSH1 0x80 DUP4 ADD MLOAD PUSH2 0x257A PUSH1 0x80 DUP7 ADD DUP3 PUSH2 0x248E JUMP JUMPDEST POP DUP1 SWAP2 POP POP SWAP3 SWAP2 POP POP JUMP JUMPDEST PUSH0 PUSH1 0x80 DUP4 ADD PUSH0 DUP4 ADD MLOAD DUP5 DUP3 SUB PUSH0 DUP7 ADD MSTORE PUSH2 0x259F DUP3 DUP3 PUSH2 0x244A JUMP JUMPDEST SWAP2 POP POP PUSH1 0x20 DUP4 ADD MLOAD DUP5 DUP3 SUB PUSH1 0x20 DUP7 ADD MSTORE PUSH2 0x25B9 DUP3 DUP3 PUSH2 0x244A JUMP JUMPDEST SWAP2 POP POP PUSH1 0x40 DUP4 ADD MLOAD PUSH2 0x25CE PUSH1 0x40 DUP7 ADD DUP3 PUSH2 0x2403 JUMP JUMPDEST POP PUSH1 0x60 DUP4 ADD MLOAD PUSH2 0x25E1 PUSH1 0x60 DUP7 ADD DUP3 PUSH2 0x248E JUMP JUMPDEST POP DUP1 SWAP2 POP POP SWAP3 SWAP2 POP POP JUMP JUMPDEST PUSH0 PUSH1 0xA0 DUP4 ADD PUSH0 DUP4 ADD MLOAD DUP5 DUP3 SUB PUSH0 DUP7 ADD MSTORE PUSH2 0x2606 DUP3 DUP3 PUSH2 0x244A JUMP JUMPDEST SWAP2 POP POP PUSH1 0x20 DUP4 ADD MLOAD DUP5 DUP3 SUB PUSH1 0x20 DUP7 ADD MSTORE PUSH2 0x2620 DUP3 DUP3 PUSH2 0x244A JUMP JUMPDEST SWAP2 POP POP PUSH1 0x40 DUP4 ADD MLOAD DUP5 DUP3 SUB PUSH1 0x40 DUP7 ADD MSTORE PUSH2 0x263A DUP3 DUP3 PUSH2 0x244A JUMP JUMPDEST SWAP2 POP POP PUSH1 0x60 DUP4 ADD MLOAD PUSH2 0x264F PUSH1 0x60 DUP7 ADD DUP3 PUSH2 0x2403 JUMP JUMPDEST POP PUSH1 0x80 DUP4 ADD MLOAD DUP5 DUP3 SUB PUSH1 0x80 DUP7 ADD MSTORE PUSH2 0x2667 DUP3 DUP3 PUSH2 0x244A JUMP JUMPDEST SWAP2 POP POP DUP1 SWAP2 POP POP SWAP3 SWAP2 POP POP JUMP JUMPDEST PUSH0 PUSH1 0xA0 DUP4 ADD PUSH0 DUP4 ADD MLOAD DUP5 DUP3 SUB PUSH0 DUP7 ADD MSTORE PUSH2 0x268E DUP3 DUP3 PUSH2 0x244A JUMP JUMPDEST SWAP2 POP POP PUSH1 0x20 DUP4 ADD MLOAD DUP5 DUP3 SUB PUSH1 0x20 DUP7 ADD MSTORE PUSH2 0x26A8 DUP3 DUP3 PUSH2 0x244A JUMP JUMPDEST SWAP2 POP POP PUSH1 0x40 DUP4 ADD MLOAD DUP5 DUP3 SUB PUSH1 0x40 DUP7 ADD MSTORE PUSH2 0x26C2 DUP3 DUP3 PUSH2 0x244A JUMP JUMPDEST SWAP2 POP POP PUSH1 0x60 DUP4 ADD MLOAD PUSH2 0x26D7 PUSH1 0x60 DUP7 ADD DUP3 PUSH2 0x2403 JUMP JUMPDEST POP PUSH1 0x80 DUP4 ADD MLOAD PUSH2 0x26EA PUSH1 0x80 DUP7 ADD DUP3 PUSH2 0x248E JUMP JUMPDEST POP DUP1 SWAP2 POP POP SWAP3 SWAP2 POP POP JUMP JUMPDEST PUSH0 PUSH1 0x80 DUP4 ADD PUSH0 DUP4 ADD MLOAD DUP5 DUP3 SUB PUSH0 DUP7 ADD MSTORE PUSH2 0x270F DUP3 DUP3 PUSH2 0x244A JUMP JUMPDEST SWAP2 POP POP PUSH1 0x20 DUP4 ADD MLOAD DUP5 DUP3 SUB PUSH1 0x20 DUP7 ADD MSTORE PUSH2 0x2729 DUP3 DUP3 PUSH2 0x244A JUMP JUMPDEST SWAP2 POP POP PUSH1 0x40 DUP4 ADD MLOAD PUSH2 0x273E PUSH1 0x40 DUP7 ADD DUP3 PUSH2 0x2403 JUMP JUMPDEST POP PUSH1 0x60 DUP4 ADD MLOAD PUSH2 0x2751 PUSH1 0x60 DUP7 ADD DUP3 PUSH2 0x248E JUMP JUMPDEST POP DUP1 SWAP2 POP POP SWAP3 SWAP2 POP POP JUMP JUMPDEST PUSH0 PUSH2 0x100 DUP3 ADD SWAP1 POP PUSH2 0x2770 PUSH0 DUP4 ADD DUP12 PUSH2 0x2381 JUMP JUMPDEST PUSH2 0x277D PUSH1 0x20 DUP4 ADD DUP11 PUSH2 0x23F4 JUMP JUMPDEST DUP2 DUP2 SUB PUSH1 0x40 DUP4 ADD MSTORE PUSH2 0x278F DUP2 DUP10 PUSH2 0x249D JUMP JUMPDEST SWAP1 POP DUP2 DUP2 SUB PUSH1 0x60 DUP4 ADD MSTORE PUSH2 0x27A3 DUP2 DUP9 PUSH2 0x2504 JUMP JUMPDEST SWAP1 POP DUP2 DUP2 SUB PUSH1 0x80 DUP4 ADD MSTORE PUSH2 0x27B7 DUP2 DUP8 PUSH2 0x2585 JUMP JUMPDEST SWAP1 POP DUP2 DUP2 SUB PUSH1 0xA0 DUP4 ADD MSTORE PUSH2 0x27CB DUP2 DUP7 PUSH2 0x25EC JUMP JUMPDEST SWAP1 POP DUP2 DUP2 SUB PUSH1 0xC0 DUP4 ADD MSTORE PUSH2 0x27DF DUP2 DUP6 PUSH2 0x2674 JUMP JUMPDEST SWAP1 POP DUP2 DUP2 SUB PUSH1 0xE0 DUP4 ADD MSTORE PUSH2 0x27F3 DUP2 DUP5 PUSH2 0x26F5 JUMP JUMPDEST SWAP1 POP SWAP10 SWAP9 POP POP POP POP POP POP POP POP POP JUMP JUMPDEST PUSH0 PUSH0 REVERT JUMPDEST PUSH0 PUSH0 REVERT JUMPDEST PUSH32 0x4E487B7100000000000000000000000000000000000000000000000000000000 PUSH0 MSTORE PUSH1 0x41 PUSH1 0x4 MSTORE PUSH1 0x24 PUSH0 REVERT JUMPDEST PUSH2 0x2840 DUP3 PUSH2 0x243A JUMP JUMPDEST DUP2 ADD DUP2 DUP2 LT PUSH8 0xFFFFFFFFFFFFFFFF DUP3 GT OR ISZERO PUSH2 0x285F JUMPI PUSH2 0x285E PUSH2 0x280A JUMP JUMPDEST JUMPDEST DUP1 PUSH1 0x40 MSTORE POP POP POP JUMP JUMPDEST PUSH0 PUSH2 0x2871 PUSH2 0x2312 JUMP JUMPDEST SWAP1 POP PUSH2 0x287D DUP3 DUP3 PUSH2 0x2837 JUMP JUMPDEST SWAP2 SWAP1 POP JUMP JUMPDEST PUSH0 PUSH8 0xFFFFFFFFFFFFFFFF DUP3 GT ISZERO PUSH2 0x289C JUMPI PUSH2 0x289B PUSH2 0x280A JUMP JUMPDEST JUMPDEST PUSH2 0x28A5 DUP3 PUSH2 0x243A JUMP JUMPDEST SWAP1 POP PUSH1 0x20 DUP2 ADD SWAP1 POP SWAP2 SWAP1 POP JUMP JUMPDEST DUP3 DUP2 DUP4 CALLDATACOPY PUSH0 DUP4 DUP4 ADD MSTORE POP POP POP JUMP JUMPDEST PUSH0 PUSH2 0x28D2 PUSH2 0x28CD DUP5 PUSH2 0x2882 JUMP JUMPDEST PUSH2 0x2868 JUMP JUMPDEST SWAP1 POP DUP3 DUP2 MSTORE PUSH1 0x20 DUP2 ADD DUP5 DUP5 DUP5 ADD GT ISZERO PUSH2 0x28EE JUMPI PUSH2 0x28ED PUSH2 0x2806 JUMP JUMPDEST JUMPDEST PUSH2 0x28F9 DUP5 DUP3 DUP6 PUSH2 0x28B2 JUMP JUMPDEST POP SWAP4 SWAP3 POP POP POP JUMP JUMPDEST PUSH0 DUP3 PUSH1 0x1F DUP4 ADD SLT PUSH2 0x2915 JUMPI PUSH2 0x2914 PUSH2 0x2802 JUMP JUMPDEST JUMPDEST DUP2 CALLDATALOAD PUSH2 0x2925 DUP5 DUP3 PUSH1 0x20 DUP7 ADD PUSH2 0x28C0 JUMP JUMPDEST SWAP2 POP POP SWAP3 SWAP2 POP POP JUMP JUMPDEST PUSH2 0x2937 DUP2 PUSH2 0x2482 JUMP JUMPDEST DUP2 EQ PUSH2 0x2941 JUMPI PUSH0 PUSH0 REVERT JUMPDEST POP JUMP JUMPDEST PUSH0 DUP2 CALLDATALOAD SWAP1 POP PUSH2 0x2952 DUP2 PUSH2 0x292E JUMP JUMPDEST SWAP3 SWAP2 POP POP JUMP JUMPDEST PUSH0 PUSH0 PUSH0 PUSH0 PUSH0 PUSH0 PUSH0 PUSH0 PUSH0 PUSH2 0x120 DUP11 DUP13 SUB SLT ISZERO PUSH2 0x2976 JUMPI PUSH2 0x2975 PUSH2 0x231B JUMP JUMPDEST JUMPDEST PUSH0 PUSH2 0x2983 DUP13 DUP3 DUP14 ADD PUSH2 0x2342 JUMP JUMPDEST SWAP10 POP POP PUSH1 0x20 DUP11 ADD CALLDATALOAD PUSH8 0xFFFFFFFFFFFFFFFF DUP2 GT ISZERO PUSH2 0x29A4 JUMPI PUSH2 0x29A3 PUSH2 0x231F JUMP JUMPDEST JUMPDEST PUSH2 0x29B0 DUP13 DUP3 DUP14 ADD PUSH2 0x2901 JUMP JUMPDEST SWAP9 POP POP PUSH1 0x40 PUSH2 0x29C1 DUP13 DUP3 DUP14 ADD PUSH2 0x2944 JUMP JUMPDEST SWAP8 POP POP PUSH1 0x60 DUP11 ADD CALLDATALOAD PUSH8 0xFFFFFFFFFFFFFFFF DUP2 GT ISZERO PUSH2 0x29E2 JUMPI PUSH2 0x29E1 PUSH2 0x231F JUMP JUMPDEST JUMPDEST PUSH2 0x29EE DUP13 DUP3 DUP14 ADD PUSH2 0x2901 JUMP JUMPDEST SWAP7 POP POP PUSH1 0x80 DUP11 ADD CALLDATALOAD PUSH8 0xFFFFFFFFFFFFFFFF DUP2 GT ISZERO PUSH2 0x2A0F JUMPI PUSH2 0x2A0E PUSH2 0x231F JUMP JUMPDEST JUMPDEST PUSH2 0x2A1B DUP13 DUP3 DUP14 ADD PUSH2 0x2901 JUMP JUMPDEST SWAP6 POP POP PUSH1 0xA0 DUP11 ADD CALLDATALOAD PUSH8 0xFFFFFFFFFFFFFFFF DUP2 GT ISZERO PUSH2 0x2A3C JUMPI PUSH2 0x2A3B PUSH2 0x231F JUMP JUMPDEST JUMPDEST PUSH2 0x2A48 DUP13 DUP3 DUP14 ADD PUSH2 0x2901 JUMP JUMPDEST SWAP5 POP POP PUSH1 0xC0 DUP11 ADD CALLDATALOAD PUSH8 0xFFFFFFFFFFFFFFFF DUP2 GT ISZERO PUSH2 0x2A69 JUMPI PUSH2 0x2A68 PUSH2 0x231F JUMP JUMPDEST JUMPDEST PUSH2 0x2A75 DUP13 DUP3 DUP14 ADD PUSH2 0x2901 JUMP JUMPDEST SWAP4 POP POP PUSH1 0xE0 PUSH2 0x2A86 DUP13 DUP3 DUP14 ADD PUSH2 0x2342 JUMP JUMPDEST SWAP3 POP POP PUSH2 0x100 PUSH2 0x2A98 DUP13 DUP3 DUP14 ADD PUSH2 0x2944 JUMP JUMPDEST SWAP2 POP POP SWAP3 SWAP6 SWAP9 POP SWAP3 SWAP6 SWAP9 POP SWAP3 SWAP6 SWAP9 JUMP JUMPDEST PUSH0 PUSH0 PUSH0 PUSH0 PUSH0 PUSH0 PUSH0 PUSH0 PUSH0 PUSH2 0x120 DUP11 DUP13 SUB SLT ISZERO PUSH2 0x2AC6 JUMPI PUSH2 0x2AC5 PUSH2 0x231B JUMP JUMPDEST JUMPDEST PUSH0 PUSH2 0x2AD3 DUP13 DUP3 DUP14 ADD PUSH2 0x2342 JUMP JUMPDEST SWAP10 POP POP PUSH1 0x20 DUP11 ADD CALLDATALOAD PUSH8 0xFFFFFFFFFFFFFFFF DUP2 GT ISZERO PUSH2 0x2AF4 JUMPI PUSH2 0x2AF3 PUSH2 0x231F JUMP JUMPDEST JUMPDEST PUSH2 0x2B00 DUP13 DUP3 DUP14 ADD PUSH2 0x2901 JUMP JUMPDEST SWAP9 POP POP PUSH1 0x40 PUSH2 0x2B11 DUP13 DUP3 DUP14 ADD PUSH2 0x2944 JUMP JUMPDEST SWAP8 POP POP PUSH1 0x60 DUP11 ADD CALLDATALOAD PUSH8 0xFFFFFFFFFFFFFFFF DUP2 GT ISZERO PUSH2 0x2B32 JUMPI PUSH2 0x2B31 PUSH2 0x231F JUMP JUMPDEST JUMPDEST PUSH2 0x2B3E DUP13 DUP3 DUP14 ADD PUSH2 0x2901 JUMP JUMPDEST SWAP7 POP POP PUSH1 0x80 DUP11 ADD CALLDATALOAD PUSH8 0xFFFFFFFFFFFFFFFF DUP2 GT ISZERO PUSH2 0x2B5F JUMPI PUSH2 0x2B5E PUSH2 0x231F JUMP JUMPDEST JUMPDEST PUSH2 0x2B6B DUP13 DUP3 DUP14 ADD PUSH2 0x2901 JUMP JUMPDEST SWAP6 POP POP PUSH1 0xA0 DUP11 ADD CALLDATALOAD PUSH8 0xFFFFFFFFFFFFFFFF DUP2 GT ISZERO PUSH2 0x2B8C JUMPI PUSH2 0x2B8B PUSH2 0x231F JUMP JUMPDEST JUMPDEST PUSH2 0x2B98 DUP13 DUP3 DUP14 ADD PUSH2 0x2901 JUMP JUMPDEST SWAP5 POP POP PUSH1 0xC0 DUP11 ADD CALLDATALOAD PUSH8 0xFFFFFFFFFFFFFFFF DUP2 GT ISZERO PUSH2 0x2BB9 JUMPI PUSH2 0x2BB8 PUSH2 0x231F JUMP JUMPDEST JUMPDEST PUSH2 0x2BC5 DUP13 DUP3 DUP14 ADD PUSH2 0x2901 JUMP JUMPDEST SWAP4 POP POP PUSH1 0xE0 PUSH2 0x2BD6 DUP13 DUP3 DUP14 ADD PUSH2 0x2342 JUMP JUMPDEST SWAP3 POP POP PUSH2 0x100 DUP11 ADD CALLDATALOAD PUSH8 0xFFFFFFFFFFFFFFFF DUP2 GT ISZERO PUSH2 0x2BF8 JUMPI PUSH2 0x2BF7 PUSH2 0x231F JUMP JUMPDEST JUMPDEST PUSH2 0x2C04 DUP13 DUP3 DUP14 ADD PUSH2 0x2901 JUMP JUMPDEST SWAP2 POP POP SWAP3 SWAP6 SWAP9 POP SWAP3 SWAP6 SWAP9 POP SWAP3 SWAP6 SWAP9 JUMP JUMPDEST PUSH0 PUSH0 PUSH0 PUSH0 PUSH0 PUSH0 PUSH0 PUSH0 PUSH2 0x100 DUP10 DUP12 SUB SLT ISZERO PUSH2 0x2C31 JUMPI PUSH2 0x2C30 PUSH2 0x231B JUMP JUMPDEST JUMPDEST PUSH0 PUSH2 0x2C3E DUP12 DUP3 DUP13 ADD PUSH2 0x2342 JUMP JUMPDEST SWAP9 POP POP PUSH1 0x20 DUP10 ADD CALLDATALOAD PUSH8 0xFFFFFFFFFFFFFFFF DUP2 GT ISZERO PUSH2 0x2C5F JUMPI PUSH2 0x2C5E PUSH2 0x231F JUMP JUMPDEST JUMPDEST PUSH2 0x2C6B DUP12 DUP3 DUP13 ADD PUSH2 0x2901 JUMP JUMPDEST SWAP8 POP POP PUSH1 0x40 PUSH2 0x2C7C DUP12 DUP3 DUP13 ADD PUSH2 0x2944 JUMP JUMPDEST SWAP7 POP POP PUSH1 0x60 DUP10 ADD CALLDATALOAD PUSH8 0xFFFFFFFFFFFFFFFF DUP2 GT ISZERO PUSH2 0x2C9D JUMPI PUSH2 0x2C9C PUSH2 0x231F JUMP JUMPDEST JUMPDEST PUSH2 0x2CA9 DUP12 DUP3 DUP13 ADD PUSH2 0x2901 JUMP JUMPDEST SWAP6 POP POP PUSH1 0x80 DUP10 ADD CALLDATALOAD PUSH8 0xFFFFFFFFFFFFFFFF DUP2 GT ISZERO PUSH2 0x2CCA JUMPI PUSH2 0x2CC9 PUSH2 0x231F JUMP JUMPDEST JUMPDEST PUSH2 0x2CD6 DUP12 DUP3 DUP13 ADD PUSH2 0x2901 JUMP JUMPDEST SWAP5 POP POP PUSH1 0xA0 DUP10 ADD CALLDATALOAD PUSH8 0xFFFFFFFFFFFFFFFF DUP2 GT ISZERO PUSH2 0x2CF7 JUMPI PUSH2 0x2CF6 PUSH2 0x231F JUMP JUMPDEST JUMPDEST PUSH2 0x2D03 DUP12 DUP3 DUP13 ADD PUSH2 0x2901 JUMP JUMPDEST SWAP4 POP POP PUSH1 0xC0 PUSH2 0x2D14 DUP12 DUP3 DUP13 ADD PUSH2 0x2342 JUMP JUMPDEST SWAP3 POP POP PUSH1 0xE0 PUSH2 0x2D25 DUP12 DUP3 DUP13 ADD PUSH2 0x2944 JUMP JUMPDEST SWAP2 POP POP SWAP3 SWAP6 SWAP9 POP SWAP3 SWAP6 SWAP9 SWAP1 SWAP4 SWAP7 POP JUMP JUMPDEST PUSH32 0x4E487B7100000000000000000000000000000000000000000000000000000000 PUSH0 MSTORE PUSH1 0x22 PUSH1 0x4 MSTORE PUSH1 0x24 PUSH0 REVERT JUMPDEST PUSH0 PUSH1 0x2 DUP3 DIV SWAP1 POP PUSH1 0x1 DUP3 AND DUP1 PUSH2 0x2D79 JUMPI PUSH1 0x7F DUP3 AND SWAP2 POP JUMPDEST PUSH1 0x20 DUP3 LT DUP2 SUB PUSH2 0x2D8C JUMPI PUSH2 0x2D8B PUSH2 0x2D35 JUMP JUMPDEST JUMPDEST POP SWAP2 SWAP1 POP JUMP JUMPDEST PUSH32 0x4E487B7100000000000000000000000000000000000000000000000000000000 PUSH0 MSTORE PUSH1 0x11 PUSH1 0x4 MSTORE PUSH1 0x24 PUSH0 REVERT JUMPDEST PUSH0 PUSH2 0x2DC9 DUP3 PUSH2 0x2323 JUMP JUMPDEST SWAP2 POP PUSH32 0xFFFFFFFFFFFFFFFFFFFFFFFFFFFFFFFFFFFFFFFFFFFFFFFFFFFFFFFFFFFFFFFF DUP3 SUB PUSH2 0x2DFB JUMPI PUSH2 0x2DFA PUSH2 0x2D92 JUMP JUMPDEST JUMPDEST PUSH1 0x1 DUP3 ADD SWAP1 POP SWAP2 SWAP1 POP JUMP JUMPDEST PUSH0 DUP2 SWAP1 POP DUP2 PUSH0 MSTORE PUSH1 0x20 PUSH0 KECCAK256 SWAP1 POP SWAP2 SWAP1 POP JUMP JUMPDEST PUSH0 PUSH1 0x20 PUSH1 0x1F DUP4 ADD DIV SWAP1 POP SWAP2 SWAP1 POP JUMP JUMPDEST PUSH0 DUP3 DUP3 SHL SWAP1 POP SWAP3 SWAP2 POP POP JUMP JUMPDEST PUSH0 PUSH1 0x8 DUP4 MUL PUSH2 0x2E62 PUSH32 0xFFFFFFFFFFFFFFFFFFFFFFFFFFFFFFFFFFFFFFFFFFFFFFFFFFFFFFFFFFFFFFFF DUP3 PUSH2 0x2E27 JUMP JUMPDEST PUSH2 0x2E6C DUP7 DUP4 PUSH2 0x2E27 JUMP JUMPDEST SWAP6 POP DUP1 NOT DUP5 AND SWAP4 POP DUP1 DUP7 AND DUP5 OR SWAP3 POP POP POP SWAP4 SWAP3 POP POP POP JUMP JUMPDEST PUSH0 DUP2 SWAP1 POP SWAP2 SWAP1 POP JUMP JUMPDEST PUSH0 PUSH2 0x2EA7 PUSH2 0x2EA2 PUSH2 0x2E9D DUP5 PUSH2 0x2323 JUMP JUMPDEST PUSH2 0x2E84 JUMP JUMPDEST PUSH2 0x2323 JUMP JUMPDEST SWAP1 POP SWAP2 SWAP1 POP JUMP JUMPDEST PUSH0 DUP2 SWAP1 POP SWAP2 SWAP1 POP JUMP JUMPDEST PUSH2 0x2EC0 DUP4 PUSH2 0x2E8D JUMP JUMPDEST PUSH2 0x2ED4 PUSH2 0x2ECC DUP3 PUSH2 0x2EAE JUMP JUMPDEST DUP5 DUP5 SLOAD PUSH2 0x2E33 JUMP JUMPDEST DUP3 SSTORE POP POP POP POP JUMP JUMPDEST PUSH0 PUSH0 SWAP1 POP SWAP1 JUMP JUMPDEST PUSH2 0x2EEB PUSH2 0x2EDC JUMP JUMPDEST PUSH2 0x2EF6 DUP2 DUP5 DUP5 PUSH2 0x2EB7 JUMP JUMPDEST POP POP POP JUMP JUMPDEST JUMPDEST DUP2 DUP2 LT ISZERO PUSH2 0x2F19 JUMPI PUSH2 0x2F0E PUSH0 DUP3 PUSH2 0x2EE3 JUMP JUMPDEST PUSH1 0x1 DUP2 ADD SWAP1 POP PUSH2 0x2EFC JUMP JUMPDEST POP POP JUMP JUMPDEST PUSH1 0x1F DUP3 GT ISZERO PUSH2 0x2F5E JUMPI PUSH2 0x2F2F DUP2 PUSH2 0x2E06 JUMP JUMPDEST PUSH2 0x2F38 DUP5 PUSH2 0x2E18 JUMP JUMPDEST DUP2 ADD PUSH1 0x20 DUP6 LT ISZERO PUSH2 0x2F47 JUMPI DUP2 SWAP1 POP JUMPDEST PUSH2 0x2F5B PUSH2 0x2F53 DUP6 PUSH2 0x2E18 JUMP JUMPDEST DUP4 ADD DUP3 PUSH2 0x2EFB JUMP JUMPDEST POP POP JUMPDEST POP POP POP JUMP JUMPDEST PUSH0 DUP3 DUP3 SHR SWAP1 POP SWAP3 SWAP2 POP POP JUMP JUMPDEST PUSH0 PUSH2 0x2F7E PUSH0 NOT DUP5 PUSH1 0x8 MUL PUSH2 0x2F63 JUMP JUMPDEST NOT DUP1 DUP4 AND SWAP2 POP POP SWAP3 SWAP2 POP POP JUMP JUMPDEST PUSH0 PUSH2 0x2F96 DUP4 DUP4 PUSH2 0x2F6F JUMP JUMPDEST SWAP2 POP DUP3 PUSH1 0x2 MUL DUP3 OR SWAP1 POP SWAP3 SWAP2 POP POP JUMP JUMPDEST PUSH2 0x2FAF DUP3 PUSH2 0x2412 JUMP JUMPDEST PUSH8 0xFFFFFFFFFFFFFFFF DUP2 GT ISZERO PUSH2 0x2FC8 JUMPI PUSH2 0x2FC7 PUSH2 0x280A JUMP JUMPDEST JUMPDEST PUSH2 0x2FD2 DUP3 SLOAD PUSH2 0x2D62 JUMP JUMPDEST PUSH2 0x2FDD DUP3 DUP3 DUP6 PUSH2 0x2F1D JUMP JUMPDEST PUSH0 PUSH1 0x20 SWAP1 POP PUSH1 0x1F DUP4 GT PUSH1 0x1 DUP2 EQ PUSH2 0x300E JUMPI PUSH0 DUP5 ISZERO PUSH2 0x2FFC JUMPI DUP3 DUP8 ADD MLOAD SWAP1 POP JUMPDEST PUSH2 0x3006 DUP6 DUP3 PUSH2 0x2F8B JUMP JUMPDEST DUP7 SSTORE POP PUSH2 0x306D JUMP JUMPDEST PUSH1 0x1F NOT DUP5 AND PUSH2 0x301C DUP7 PUSH2 0x2E06 JUMP JUMPDEST PUSH0 JUMPDEST DUP3 DUP2 LT ISZERO PUSH2 0x3043 JUMPI DUP5 DUP10 ADD MLOAD DUP3 SSTORE PUSH1 0x1 DUP3 ADD SWAP2 POP PUSH1 0x20 DUP6 ADD SWAP5 POP PUSH1 0x20 DUP2 ADD SWAP1 POP PUSH2 0x301E JUMP JUMPDEST DUP7 DUP4 LT ISZERO PUSH2 0x3060 JUMPI DUP5 DUP10 ADD MLOAD PUSH2 0x305C PUSH1 0x1F DUP10 AND DUP3 PUSH2 0x2F6F JUMP JUMPDEST DUP4 SSTORE POP JUMPDEST PUSH1 0x1 PUSH1 0x2 DUP9 MUL ADD DUP9 SSTORE POP POP POP JUMPDEST POP POP POP POP POP POP JUMP INVALID LOG2 PUSH5 0x6970667358 0x22 SLT KECCAK256 RETURNDATACOPY 0x2A SWAP9 0xD5 DUP15 PUSH30 0xA6554CA0467726956E8695AC3312AF80E4A04C7D50F8298F690D64736F6C PUSH4 0x4300081B STOP CALLER "
				},
				"gasEstimates": {
					"creation": {
						"codeDepositCost": "2491800",
						"executionCost": "2686",
						"totalCost": "2494486"
					},
					"external": {
						"bookBusTicket(uint256,string,uint8,string,string,string,string,uint256,uint8)": "infinite",
						"bookairlineticket(uint256,string,uint8,string,string,string,string,uint256,string)": "infinite",
						"bookcinematicket(uint256,string,uint8,string,string,string,uint256,uint8)": "infinite",
						"bookcricketticket(uint256,string,uint8,string,string,string,uint256,uint8)": "infinite",
						"bookings(uint256)": "infinite",
						"bookrailwayticket(uint256,string,uint8,string,string,string,string,uint256,uint8)": "infinite"
					}
				},
				"methodIdentifiers": {
					"bookBusTicket(uint256,string,uint8,string,string,string,string,uint256,uint8)": "ea3f423e",
					"bookairlineticket(uint256,string,uint8,string,string,string,string,uint256,string)": "6621c583",
					"bookcinematicket(uint256,string,uint8,string,string,string,uint256,uint8)": "a51dd238",
					"bookcricketticket(uint256,string,uint8,string,string,string,uint256,uint8)": "ed1d25a4",
					"bookings(uint256)": "1dab301e",
					"bookrailwayticket(uint256,string,uint8,string,string,string,string,uint256,uint8)": "2bf72580"
				}
			},
			"storageLayout": {
				"storage": [
					{
						"astId": 93,
						"contract": "solidity_series.sol/BOOKINGSITE.sol:BOOKINGsite",
						"label": "bookingCounter",
						"offset": 0,
						"slot": "0",
						"type": "t_uint256"
					},
					{
						"astId": 98,
						"contract": "solidity_series.sol/BOOKINGSITE.sol:BOOKINGsite",
						"label": "bookings",
						"offset": 0,
						"slot": "1",
						"type": "t_mapping(t_uint256,t_struct(booking)91_storage)"
					}
				],
				"types": {
					"t_enum(bookingtype)7": {
						"encoding": "inplace",
						"label": "enum BOOKINGsite.bookingtype",
						"numberOfBytes": "1"
					},
					"t_mapping(t_uint256,t_struct(booking)91_storage)": {
						"encoding": "mapping",
						"key": "t_uint256",
						"label": "mapping(uint256 => struct BOOKINGsite.booking)",
						"numberOfBytes": "32",
						"value": "t_struct(booking)91_storage"
					},
					"t_string_storage": {
						"encoding": "bytes",
						"label": "string",
						"numberOfBytes": "32"
					},
					"t_struct(airlinebooking)47_storage": {
						"encoding": "inplace",
						"label": "struct BOOKINGsite.airlinebooking",
						"members": [
							{
								"astId": 38,
								"contract": "solidity_series.sol/BOOKINGSITE.sol:BOOKINGsite",
								"label": "flightnumber",
								"offset": 0,
								"slot": "0",
								"type": "t_string_storage"
							},
							{
								"astId": 40,
								"contract": "solidity_series.sol/BOOKINGSITE.sol:BOOKINGsite",
								"label": "origin",
								"offset": 0,
								"slot": "1",
								"type": "t_string_storage"
							},
							{
								"astId": 42,
								"contract": "solidity_series.sol/BOOKINGSITE.sol:BOOKINGsite",
								"label": "destination",
								"offset": 0,
								"slot": "2",
								"type": "t_string_storage"
							},
							{
								"astId": 44,
								"contract": "solidity_series.sol/BOOKINGSITE.sol:BOOKINGsite",
								"label": "dateofJourney",
								"offset": 0,
								"slot": "3",
								"type": "t_uint256"
							},
							{
								"astId": 46,
								"contract": "solidity_series.sol/BOOKINGSITE.sol:BOOKINGsite",
								"label": "seatclass",
								"offset": 0,
								"slot": "4",
								"type": "t_string_storage"
							}
						],
						"numberOfBytes": "160"
					},
					"t_struct(booking)91_storage": {
						"encoding": "inplace",
						"label": "struct BOOKINGsite.booking",
						"members": [
							{
								"astId": 69,
								"contract": "solidity_series.sol/BOOKINGSITE.sol:BOOKINGsite",
								"label": "bookingid",
								"offset": 0,
								"slot": "0",
								"type": "t_uint256"
							},
							{
								"astId": 72,
								"contract": "solidity_series.sol/BOOKINGSITE.sol:BOOKINGsite",
								"label": "Bookingtype",
								"offset": 0,
								"slot": "1",
								"type": "t_enum(bookingtype)7"
							},
							{
								"astId": 75,
								"contract": "solidity_series.sol/BOOKINGSITE.sol:BOOKINGsite",
								"label": "User",
								"offset": 0,
								"slot": "2",
								"type": "t_struct(user)16_storage"
							},
							{
								"astId": 78,
								"contract": "solidity_series.sol/BOOKINGSITE.sol:BOOKINGsite",
								"label": "Busbooking",
								"offset": 0,
								"slot": "6",
								"type": "t_struct(busbooking)27_storage"
							},
							{
								"astId": 81,
								"contract": "solidity_series.sol/BOOKINGSITE.sol:BOOKINGsite",
								"label": "Cinemabooking",
								"offset": 0,
								"slot": "11",
								"type": "t_struct(cinemabooking)36_storage"
							},
							{
								"astId": 84,
								"contract": "solidity_series.sol/BOOKINGSITE.sol:BOOKINGsite",
								"label": "Airlinebooking",
								"offset": 0,
								"slot": "15",
								"type": "t_struct(airlinebooking)47_storage"
							},
							{
								"astId": 87,
								"contract": "solidity_series.sol/BOOKINGSITE.sol:BOOKINGsite",
								"label": "Railwaybooking",
								"offset": 0,
								"slot": "20",
								"type": "t_struct(railwaybooking)58_storage"
							},
							{
								"astId": 90,
								"contract": "solidity_series.sol/BOOKINGSITE.sol:BOOKINGsite",
								"label": "Cricketbooking",
								"offset": 0,
								"slot": "25",
								"type": "t_struct(cricketbooking)67_storage"
							}
						],
						"numberOfBytes": "928"
					},
					"t_struct(busbooking)27_storage": {
						"encoding": "inplace",
						"label": "struct BOOKINGsite.busbooking",
						"members": [
							{
								"astId": 18,
								"contract": "solidity_series.sol/BOOKINGSITE.sol:BOOKINGsite",
								"label": "busorigin",
								"offset": 0,
								"slot": "0",
								"type": "t_string_storage"
							},
							{
								"astId": 20,
								"contract": "solidity_series.sol/BOOKINGSITE.sol:BOOKINGsite",
								"label": "busnumber",
								"offset": 0,
								"slot": "1",
								"type": "t_string_storage"
							},
							{
								"astId": 22,
								"contract": "solidity_series.sol/BOOKINGSITE.sol:BOOKINGsite",
								"label": "busdestination",
								"offset": 0,
								"slot": "2",
								"type": "t_string_storage"
							},
							{
								"astId": 24,
								"contract": "solidity_series.sol/BOOKINGSITE.sol:BOOKINGsite",
								"label": "dateofjourney",
								"offset": 0,
								"slot": "3",
								"type": "t_uint256"
							},
							{
								"astId": 26,
								"contract": "solidity_series.sol/BOOKINGSITE.sol:BOOKINGsite",
								"label": "seatnumber",
								"offset": 0,
								"slot": "4",
								"type": "t_uint8"
							}
						],
						"numberOfBytes": "160"
					},
					"t_struct(cinemabooking)36_storage": {
						"encoding": "inplace",
						"label": "struct BOOKINGsite.cinemabooking",
						"members": [
							{
								"astId": 29,
								"contract": "solidity_series.sol/BOOKINGSITE.sol:BOOKINGsite",
								"label": "moviename",
								"offset": 0,
								"slot": "0",
								"type": "t_string_storage"
							},
							{
								"astId": 31,
								"contract": "solidity_series.sol/BOOKINGSITE.sol:BOOKINGsite",
								"label": "cinemahall",
								"offset": 0,
								"slot": "1",
								"type": "t_string_storage"
							},
							{
								"astId": 33,
								"contract": "solidity_series.sol/BOOKINGSITE.sol:BOOKINGsite",
								"label": "showtime",
								"offset": 0,
								"slot": "2",
								"type": "t_uint256"
							},
							{
								"astId": 35,
								"contract": "solidity_series.sol/BOOKINGSITE.sol:BOOKINGsite",
								"label": "seatnumber",
								"offset": 0,
								"slot": "3",
								"type": "t_uint8"
							}
						],
						"numberOfBytes": "128"
					},
					"t_struct(cricketbooking)67_storage": {
						"encoding": "inplace",
						"label": "struct BOOKINGsite.cricketbooking",
						"members": [
							{
								"astId": 60,
								"contract": "solidity_series.sol/BOOKINGSITE.sol:BOOKINGsite",
								"label": "matchdetails",
								"offset": 0,
								"slot": "0",
								"type": "t_string_storage"
							},
							{
								"astId": 62,
								"contract": "solidity_series.sol/BOOKINGSITE.sol:BOOKINGsite",
								"label": "stadium",
								"offset": 0,
								"slot": "1",
								"type": "t_string_storage"
							},
							{
								"astId": 64,
								"contract": "solidity_series.sol/BOOKINGSITE.sol:BOOKINGsite",
								"label": "matchdate",
								"offset": 0,
								"slot": "2",
								"type": "t_uint256"
							},
							{
								"astId": 66,
								"contract": "solidity_series.sol/BOOKINGSITE.sol:BOOKINGsite",
								"label": "seatnumber",
								"offset": 0,
								"slot": "3",
								"type": "t_uint8"
							}
						],
						"numberOfBytes": "128"
					},
					"t_struct(railwaybooking)58_storage": {
						"encoding": "inplace",
						"label": "struct BOOKINGsite.railwaybooking",
						"members": [
							{
								"astId": 49,
								"contract": "solidity_series.sol/BOOKINGSITE.sol:BOOKINGsite",
								"label": "trainnumber",
								"offset": 0,
								"slot": "0",
								"type": "t_string_storage"
							},
							{
								"astId": 51,
								"contract": "solidity_series.sol/BOOKINGSITE.sol:BOOKINGsite",
								"label": "origin",
								"offset": 0,
								"slot": "1",
								"type": "t_string_storage"
							},
							{
								"astId": 53,
								"contract": "solidity_series.sol/BOOKINGSITE.sol:BOOKINGsite",
								"label": "destination",
								"offset": 0,
								"slot": "2",
								"type": "t_string_storage"
							},
							{
								"astId": 55,
								"contract": "solidity_series.sol/BOOKINGSITE.sol:BOOKINGsite",
								"label": "dateofJourney",
								"offset": 0,
								"slot": "3",
								"type": "t_uint256"
							},
							{
								"astId": 57,
								"contract": "solidity_series.sol/BOOKINGSITE.sol:BOOKINGsite",
								"label": "seatnumber",
								"offset": 0,
								"slot": "4",
								"type": "t_uint8"
							}
						],
						"numberOfBytes": "160"
					},
					"t_struct(user)16_storage": {
						"encoding": "inplace",
						"label": "struct BOOKINGsite.user",
						"members": [
							{
								"astId": 9,
								"contract": "solidity_series.sol/BOOKINGSITE.sol:BOOKINGsite",
								"label": "userid",
								"offset": 0,
								"slot": "0",
								"type": "t_uint256"
							},
							{
								"astId": 11,
								"contract": "solidity_series.sol/BOOKINGSITE.sol:BOOKINGsite",
								"label": "name",
								"offset": 0,
								"slot": "1",
								"type": "t_string_storage"
							},
							{
								"astId": 13,
								"contract": "solidity_series.sol/BOOKINGSITE.sol:BOOKINGsite",
								"label": "age",
								"offset": 0,
								"slot": "2",
								"type": "t_uint8"
							},
							{
								"astId": 15,
								"contract": "solidity_series.sol/BOOKINGSITE.sol:BOOKINGsite",
								"label": "contactdetails",
								"offset": 0,
								"slot": "3",
								"type": "t_string_storage"
							}
						],
						"numberOfBytes": "128"
					},
					"t_uint256": {
						"encoding": "inplace",
						"label": "uint256",
						"numberOfBytes": "32"
					},
					"t_uint8": {
						"encoding": "inplace",
						"label": "uint8",
						"numberOfBytes": "1"
					}
				}
			},
			"userdoc": {
				"kind": "user",
				"methods": {},
				"version": 1
			}
		}
	}
}