{
	"solidity_series.sol/bookingsite.sol": {
		"BOOKINGsite": {
			"abi": [
				{
					"inputs": [
						{
							"internalType": "uint256",
							"name": "_userid",
							"type": "uint256"
						},
						{
							"internalType": "string",
							"name": "_name",
							"type": "string"
						},
						{
							"internalType": "uint8",
							"name": "_age",
							"type": "uint8"
						},
						{
							"internalType": "string",
							"name": "_contactdetails",
							"type": "string"
						},
						{
							"internalType": "string",
							"name": "_busnumber",
							"type": "string"
						},
						{
							"internalType": "string",
							"name": "_origin",
							"type": "string"
						},
						{
							"internalType": "string",
							"name": "_destination",
							"type": "string"
						},
						{
							"internalType": "uint256",
							"name": "_dateofjourney",
							"type": "uint256"
						},
						{
							"internalType": "uint8",
							"name": "_seatnumber",
							"type": "uint8"
						}
					],
					"name": "bookBusTicket",
					"outputs": [],
					"stateMutability": "nonpayable",
					"type": "function"
				},
				{
					"inputs": [
						{
							"internalType": "uint256",
							"name": "_userid",
							"type": "uint256"
						},
						{
							"internalType": "string",
							"name": "_name",
							"type": "string"
						},
						{
							"internalType": "uint8",
							"name": "_age",
							"type": "uint8"
						},
						{
							"internalType": "string",
							"name": "contactdetails",
							"type": "string"
						},
						{
							"internalType": "string",
							"name": "_flightnumber",
							"type": "string"
						},
						{
							"internalType": "string",
							"name": "_origin",
							"type": "string"
						},
						{
							"internalType": "string",
							"name": "_destination",
							"type": "string"
						},
						{
							"internalType": "uint256",
							"name": "_dateOfJourney",
							"type": "uint256"
						},
						{
							"internalType": "string",
							"name": "_seatclass",
							"type": "string"
						}
					],
					"name": "bookairlineticket",
					"outputs": [],
					"stateMutability": "nonpayable",
					"type": "function"
				},
				{
					"inputs": [
						{
							"internalType": "uint256",
							"name": "",
							"type": "uint256"
						}
					],
					"name": "bookings",
					"outputs": [
						{
							"internalType": "uint256",
							"name": "bookingid",
							"type": "uint256"
						},
						{
							"internalType": "enum BOOKINGsite.bookingtype",
							"name": "Bookingtype",
							"type": "uint8"
						},
						{
							"components": [
								{
									"internalType": "uint256",
									"name": "userid",
									"type": "uint256"
								},
								{
									"internalType": "string",
									"name": "name",
									"type": "string"
								},
								{
									"internalType": "uint8",
									"name": "age",
									"type": "uint8"
								},
								{
									"internalType": "string",
									"name": "contactdetails",
									"type": "string"
								}
							],
							"internalType": "struct BOOKINGsite.user",
							"name": "User",
							"type": "tuple"
						},
						{
							"components": [
								{
									"internalType": "string",
									"name": "busorigin",
									"type": "string"
								},
								{
									"internalType": "string",
									"name": "busnumber",
									"type": "string"
								},
								{
									"internalType": "string",
									"name": "busdestination",
									"type": "string"
								},
								{
									"internalType": "uint256",
									"name": "dateofjourney",
									"type": "uint256"
								},
								{
									"internalType": "uint8",
									"name": "seatnumber",
									"type": "uint8"
								}
							],
							"internalType": "struct BOOKINGsite.busbooking",
							"name": "Busbooking",
							"type": "tuple"
						},
						{
							"components": [
								{
									"internalType": "string",
									"name": "moviename",
									"type": "string"
								},
								{
									"internalType": "string",
									"name": "cinemahall",
									"type": "string"
								},
								{
									"internalType": "uint256",
									"name": "showtime",
									"type": "uint256"
								},
								{
									"internalType": "uint8",
									"name": "seatnumber",
									"type": "uint8"
								}
							],
							"internalType": "struct BOOKINGsite.cinemabooking",
							"name": "Cinemabooking",
							"type": "tuple"
						},
						{
							"components": [
								{
									"internalType": "string",
									"name": "flightnumber",
									"type": "string"
								},
								{
									"internalType": "string",
									"name": "origin",
									"type": "string"
								},
								{
									"internalType": "string",
									"name": "destination",
									"type": "string"
								},
								{
									"internalType": "uint256",
									"name": "dateOfJourney",
									"type": "uint256"
								},
								{
									"internalType": "string",
									"name": "seatclass",
									"type": "string"
								}
							],
							"internalType": "struct BOOKINGsite.airlinebooking",
							"name": "Airlinebooking",
							"type": "tuple"
						},
						{
							"components": [
								{
									"internalType": "string",
									"name": "trainnumber",
									"type": "string"
								},
								{
									"internalType": "string",
									"name": "origin",
									"type": "string"
								},
								{
									"internalType": "string",
									"name": "destination",
									"type": "string"
								},
								{
									"internalType": "uint256",
									"name": "dateOfJourney",
									"type": "uint256"
								},
								{
									"internalType": "uint8",
									"name": "seatnumber",
									"type": "uint8"
								}
							],
							"internalType": "struct BOOKINGsite.railwaybooking",
							"name": "Railwaybooking",
							"type": "tuple"
						},
						{
							"components": [
								{
									"internalType": "string",
									"name": "matchdetails",
									"type": "string"
								},
								{
									"internalType": "string",
									"name": "stadium",
									"type": "string"
								},
								{
									"internalType": "uint256",
									"name": "matchdate",
									"type": "uint256"
								},
								{
									"internalType": "uint8",
									"name": "seatnumber",
									"type": "uint8"
								}
							],
							"internalType": "struct BOOKINGsite.cricketbooking",
							"name": "Cricketbooking",
							"type": "tuple"
						}
					],
					"stateMutability": "view",
					"type": "function"
				}
			],
			"devdoc": {
				"kind": "dev",
				"methods": {},
				"version": 1
			},
			"evm": {
				"assembly": "    /* \"solidity_series.sol/bookingsite.sol\":140:2820  contract BOOKINGsite{... */\n  mstore(0x40, 0x80)\n  callvalue\n  dup1\n  iszero\n  tag_1\n  jumpi\n  revert(0x00, 0x00)\ntag_1:\n  pop\n  dataSize(sub_0)\n  dup1\n  dataOffset(sub_0)\n  0x00\n  codecopy\n  0x00\n  return\nstop\n\nsub_0: assembly {\n        /* \"solidity_series.sol/bookingsite.sol\":140:2820  contract BOOKINGsite{... */\n      mstore(0x40, 0x80)\n      callvalue\n      dup1\n      iszero\n      tag_1\n      jumpi\n      revert(0x00, 0x00)\n    tag_1:\n      pop\n      jumpi(tag_2, lt(calldatasize, 0x04))\n      shr(0xe0, calldataload(0x00))\n      dup1\n      0x1dab301e\n      eq\n      tag_3\n      jumpi\n      dup1\n      0x6621c583\n      eq\n      tag_4\n      jumpi\n      dup1\n      0xea3f423e\n      eq\n      tag_5\n      jumpi\n    tag_2:\n      revert(0x00, 0x00)\n        /* \"solidity_series.sol/bookingsite.sol\":1451:1494  mapping(uint256 => booking) public bookings */\n    tag_3:\n      tag_6\n      0x04\n      dup1\n      calldatasize\n      sub\n      dup2\n      add\n      swap1\n      tag_7\n      swap2\n      swap1\n      tag_8\n      jump\t// in\n    tag_7:\n      tag_9\n      jump\t// in\n    tag_6:\n      mload(0x40)\n      tag_10\n      swap9\n      swap8\n      swap7\n      swap6\n      swap5\n      swap4\n      swap3\n      swap2\n      swap1\n      tag_11\n      jump\t// in\n    tag_10:\n      mload(0x40)\n      dup1\n      swap2\n      sub\n      swap1\n      return\n        /* \"solidity_series.sol/bookingsite.sol\":2520:2813  function bookairlineticket(... */\n    tag_4:\n      tag_12\n      0x04\n      dup1\n      calldatasize\n      sub\n      dup2\n      add\n      swap1\n      tag_13\n      swap2\n      swap1\n      tag_14\n      jump\t// in\n    tag_13:\n      tag_15\n      jump\t// in\n    tag_12:\n      stop\n        /* \"solidity_series.sol/bookingsite.sol\":1499:2518  function bookBusTicket( uint256 _userid,string memory _name,uint8 _age,... */\n    tag_5:\n      tag_16\n      0x04\n      dup1\n      calldatasize\n      sub\n      dup2\n      add\n      swap1\n      tag_17\n      swap2\n      swap1\n      tag_18\n      jump\t// in\n    tag_17:\n      tag_19\n      jump\t// in\n    tag_16:\n      stop\n        /* \"solidity_series.sol/bookingsite.sol\":1451:1494  mapping(uint256 => booking) public bookings */\n    tag_9:\n      mstore(0x20, 0x01)\n      dup1\n      0x00\n      mstore\n      keccak256(0x00, 0x40)\n      0x00\n      swap2\n      pop\n      swap1\n      pop\n      dup1\n      0x00\n      add\n      sload\n      swap1\n      dup1\n      0x01\n      add\n      0x00\n      swap1\n      sload\n      swap1\n      0x0100\n      exp\n      swap1\n      div\n      0xff\n      and\n      swap1\n      dup1\n      0x02\n      add\n      mload(0x40)\n      dup1\n      0x80\n      add\n      0x40\n      mstore\n      swap1\n      dup2\n      0x00\n      dup3\n      add\n      sload\n      dup2\n      mstore\n      0x20\n      add\n      0x01\n      dup3\n      add\n      dup1\n      sload\n      tag_20\n      swap1\n      tag_21\n      jump\t// in\n    tag_20:\n      dup1\n      0x1f\n      add\n      0x20\n      dup1\n      swap2\n      div\n      mul\n      0x20\n      add\n      mload(0x40)\n      swap1\n      dup2\n      add\n      0x40\n      mstore\n      dup1\n      swap3\n      swap2\n      swap1\n      dup2\n      dup2\n      mstore\n      0x20\n      add\n      dup3\n      dup1\n      sload\n      tag_22\n      swap1\n      tag_21\n      jump\t// in\n    tag_22:\n      dup1\n      iszero\n      tag_23\n      jumpi\n      dup1\n      0x1f\n      lt\n      tag_24\n      jumpi\n      0x0100\n      dup1\n      dup4\n      sload\n      div\n      mul\n      dup4\n      mstore\n      swap2\n      0x20\n      add\n      swap2\n      jump(tag_23)\n    tag_24:\n      dup3\n      add\n      swap2\n      swap1\n      0x00\n      mstore\n      keccak256(0x00, 0x20)\n      swap1\n    tag_25:\n      dup2\n      sload\n      dup2\n      mstore\n      swap1\n      0x01\n      add\n      swap1\n      0x20\n      add\n      dup1\n      dup4\n      gt\n      tag_25\n      jumpi\n      dup3\n      swap1\n      sub\n      0x1f\n      and\n      dup3\n      add\n      swap2\n    tag_23:\n      pop\n      pop\n      pop\n      pop\n      pop\n      dup2\n      mstore\n      0x20\n      add\n      0x02\n      dup3\n      add\n      0x00\n      swap1\n      sload\n      swap1\n      0x0100\n      exp\n      swap1\n      div\n      0xff\n      and\n      0xff\n      and\n      0xff\n      and\n      dup2\n      mstore\n      0x20\n      add\n      0x03\n      dup3\n      add\n      dup1\n      sload\n      tag_26\n      swap1\n      tag_21\n      jump\t// in\n    tag_26:\n      dup1\n      0x1f\n      add\n      0x20\n      dup1\n      swap2\n      div\n      mul\n      0x20\n      add\n      mload(0x40)\n      swap1\n      dup2\n      add\n      0x40\n      mstore\n      dup1\n      swap3\n      swap2\n      swap1\n      dup2\n      dup2\n      mstore\n      0x20\n      add\n      dup3\n      dup1\n      sload\n      tag_27\n      swap1\n      tag_21\n      jump\t// in\n    tag_27:\n      dup1\n      iszero\n      tag_28\n      jumpi\n      dup1\n      0x1f\n      lt\n      tag_29\n      jumpi\n      0x0100\n      dup1\n      dup4\n      sload\n      div\n      mul\n      dup4\n      mstore\n      swap2\n      0x20\n      add\n      swap2\n      jump(tag_28)\n    tag_29:\n      dup3\n      add\n      swap2\n      swap1\n      0x00\n      mstore\n      keccak256(0x00, 0x20)\n      swap1\n    tag_30:\n      dup2\n      sload\n      dup2\n      mstore\n      swap1\n      0x01\n      add\n      swap1\n      0x20\n      add\n      dup1\n      dup4\n      gt\n      tag_30\n      jumpi\n      dup3\n      swap1\n      sub\n      0x1f\n      and\n      dup3\n      add\n      swap2\n    tag_28:\n      pop\n      pop\n      pop\n      pop\n      pop\n      dup2\n      mstore\n      pop\n      pop\n      swap1\n      dup1\n      0x06\n      add\n      mload(0x40)\n      dup1\n      0xa0\n      add\n      0x40\n      mstore\n      swap1\n      dup2\n      0x00\n      dup3\n      add\n      dup1\n      sload\n      tag_31\n      swap1\n      tag_21\n      jump\t// in\n    tag_31:\n      dup1\n      0x1f\n      add\n      0x20\n      dup1\n      swap2\n      div\n      mul\n      0x20\n      add\n      mload(0x40)\n      swap1\n      dup2\n      add\n      0x40\n      mstore\n      dup1\n      swap3\n      swap2\n      swap1\n      dup2\n      dup2\n      mstore\n      0x20\n      add\n      dup3\n      dup1\n      sload\n      tag_32\n      swap1\n      tag_21\n      jump\t// in\n    tag_32:\n      dup1\n      iszero\n      tag_33\n      jumpi\n      dup1\n      0x1f\n      lt\n      tag_34\n      jumpi\n      0x0100\n      dup1\n      dup4\n      sload\n      div\n      mul\n      dup4\n      mstore\n      swap2\n      0x20\n      add\n      swap2\n      jump(tag_33)\n    tag_34:\n      dup3\n      add\n      swap2\n      swap1\n      0x00\n      mstore\n      keccak256(0x00, 0x20)\n      swap1\n    tag_35:\n      dup2\n      sload\n      dup2\n      mstore\n      swap1\n      0x01\n      add\n      swap1\n      0x20\n      add\n      dup1\n      dup4\n      gt\n      tag_35\n      jumpi\n      dup3\n      swap1\n      sub\n      0x1f\n      and\n      dup3\n      add\n      swap2\n    tag_33:\n      pop\n      pop\n      pop\n      pop\n      pop\n      dup2\n      mstore\n      0x20\n      add\n      0x01\n      dup3\n      add\n      dup1\n      sload\n      tag_36\n      swap1\n      tag_21\n      jump\t// in\n    tag_36:\n      dup1\n      0x1f\n      add\n      0x20\n      dup1\n      swap2\n      div\n      mul\n      0x20\n      add\n      mload(0x40)\n      swap1\n      dup2\n      add\n      0x40\n      mstore\n      dup1\n      swap3\n      swap2\n      swap1\n      dup2\n      dup2\n      mstore\n      0x20\n      add\n      dup3\n      dup1\n      sload\n      tag_37\n      swap1\n      tag_21\n      jump\t// in\n    tag_37:\n      dup1\n      iszero\n      tag_38\n      jumpi\n      dup1\n      0x1f\n      lt\n      tag_39\n      jumpi\n      0x0100\n      dup1\n      dup4\n      sload\n      div\n      mul\n      dup4\n      mstore\n      swap2\n      0x20\n      add\n      swap2\n      jump(tag_38)\n    tag_39:\n      dup3\n      add\n      swap2\n      swap1\n      0x00\n      mstore\n      keccak256(0x00, 0x20)\n      swap1\n    tag_40:\n      dup2\n      sload\n      dup2\n      mstore\n      swap1\n      0x01\n      add\n      swap1\n      0x20\n      add\n      dup1\n      dup4\n      gt\n      tag_40\n      jumpi\n      dup3\n      swap1\n      sub\n      0x1f\n      and\n      dup3\n      add\n      swap2\n    tag_38:\n      pop\n      pop\n      pop\n      pop\n      pop\n      dup2\n      mstore\n      0x20\n      add\n      0x02\n      dup3\n      add\n      dup1\n      sload\n      tag_41\n      swap1\n      tag_21\n      jump\t// in\n    tag_41:\n      dup1\n      0x1f\n      add\n      0x20\n      dup1\n      swap2\n      div\n      mul\n      0x20\n      add\n      mload(0x40)\n      swap1\n      dup2\n      add\n      0x40\n      mstore\n      dup1\n      swap3\n      swap2\n      swap1\n      dup2\n      dup2\n      mstore\n      0x20\n      add\n      dup3\n      dup1\n      sload\n      tag_42\n      swap1\n      tag_21\n      jump\t// in\n    tag_42:\n      dup1\n      iszero\n      tag_43\n      jumpi\n      dup1\n      0x1f\n      lt\n      tag_44\n      jumpi\n      0x0100\n      dup1\n      dup4\n      sload\n      div\n      mul\n      dup4\n      mstore\n      swap2\n      0x20\n      add\n      swap2\n      jump(tag_43)\n    tag_44:\n      dup3\n      add\n      swap2\n      swap1\n      0x00\n      mstore\n      keccak256(0x00, 0x20)\n      swap1\n    tag_45:\n      dup2\n      sload\n      dup2\n      mstore\n      swap1\n      0x01\n      add\n      swap1\n      0x20\n      add\n      dup1\n      dup4\n      gt\n      tag_45\n      jumpi\n      dup3\n      swap1\n      sub\n      0x1f\n      and\n      dup3\n      add\n      swap2\n    tag_43:\n      pop\n      pop\n      pop\n      pop\n      pop\n      dup2\n      mstore\n      0x20\n      add\n      0x03\n      dup3\n      add\n      sload\n      dup2\n      mstore\n      0x20\n      add\n      0x04\n      dup3\n      add\n      0x00\n      swap1\n      sload\n      swap1\n      0x0100\n      exp\n      swap1\n      div\n      0xff\n      and\n      0xff\n      and\n      0xff\n      and\n      dup2\n      mstore\n      pop\n      pop\n      swap1\n      dup1\n      0x0b\n      add\n      mload(0x40)\n      dup1\n      0x80\n      add\n      0x40\n      mstore\n      swap1\n      dup2\n      0x00\n      dup3\n      add\n      dup1\n      sload\n      tag_46\n      swap1\n      tag_21\n      jump\t// in\n    tag_46:\n      dup1\n      0x1f\n      add\n      0x20\n      dup1\n      swap2\n      div\n      mul\n      0x20\n      add\n      mload(0x40)\n      swap1\n      dup2\n      add\n      0x40\n      mstore\n      dup1\n      swap3\n      swap2\n      swap1\n      dup2\n      dup2\n      mstore\n      0x20\n      add\n      dup3\n      dup1\n      sload\n      tag_47\n      swap1\n      tag_21\n      jump\t// in\n    tag_47:\n      dup1\n      iszero\n      tag_48\n      jumpi\n      dup1\n      0x1f\n      lt\n      tag_49\n      jumpi\n      0x0100\n      dup1\n      dup4\n      sload\n      div\n      mul\n      dup4\n      mstore\n      swap2\n      0x20\n      add\n      swap2\n      jump(tag_48)\n    tag_49:\n      dup3\n      add\n      swap2\n      swap1\n      0x00\n      mstore\n      keccak256(0x00, 0x20)\n      swap1\n    tag_50:\n      dup2\n      sload\n      dup2\n      mstore\n      swap1\n      0x01\n      add\n      swap1\n      0x20\n      add\n      dup1\n      dup4\n      gt\n      tag_50\n      jumpi\n      dup3\n      swap1\n      sub\n      0x1f\n      and\n      dup3\n      add\n      swap2\n    tag_48:\n      pop\n      pop\n      pop\n      pop\n      pop\n      dup2\n      mstore\n      0x20\n      add\n      0x01\n      dup3\n      add\n      dup1\n      sload\n      tag_51\n      swap1\n      tag_21\n      jump\t// in\n    tag_51:\n      dup1\n      0x1f\n      add\n      0x20\n      dup1\n      swap2\n      div\n      mul\n      0x20\n      add\n      mload(0x40)\n      swap1\n      dup2\n      add\n      0x40\n      mstore\n      dup1\n      swap3\n      swap2\n      swap1\n      dup2\n      dup2\n      mstore\n      0x20\n      add\n      dup3\n      dup1\n      sload\n      tag_52\n      swap1\n      tag_21\n      jump\t// in\n    tag_52:\n      dup1\n      iszero\n      tag_53\n      jumpi\n      dup1\n      0x1f\n      lt\n      tag_54\n      jumpi\n      0x0100\n      dup1\n      dup4\n      sload\n      div\n      mul\n      dup4\n      mstore\n      swap2\n      0x20\n      add\n      swap2\n      jump(tag_53)\n    tag_54:\n      dup3\n      add\n      swap2\n      swap1\n      0x00\n      mstore\n      keccak256(0x00, 0x20)\n      swap1\n    tag_55:\n      dup2\n      sload\n      dup2\n      mstore\n      swap1\n      0x01\n      add\n      swap1\n      0x20\n      add\n      dup1\n      dup4\n      gt\n      tag_55\n      jumpi\n      dup3\n      swap1\n      sub\n      0x1f\n      and\n      dup3\n      add\n      swap2\n    tag_53:\n      pop\n      pop\n      pop\n      pop\n      pop\n      dup2\n      mstore\n      0x20\n      add\n      0x02\n      dup3\n      add\n      sload\n      dup2\n      mstore\n      0x20\n      add\n      0x03\n      dup3\n      add\n      0x00\n      swap1\n      sload\n      swap1\n      0x0100\n      exp\n      swap1\n      div\n      0xff\n      and\n      0xff\n      and\n      0xff\n      and\n      dup2\n      mstore\n      pop\n      pop\n      swap1\n      dup1\n      0x0f\n      add\n      mload(0x40)\n      dup1\n      0xa0\n      add\n      0x40\n      mstore\n      swap1\n      dup2\n      0x00\n      dup3\n      add\n      dup1\n      sload\n      tag_56\n      swap1\n      tag_21\n      jump\t// in\n    tag_56:\n      dup1\n      0x1f\n      add\n      0x20\n      dup1\n      swap2\n      div\n      mul\n      0x20\n      add\n      mload(0x40)\n      swap1\n      dup2\n      add\n      0x40\n      mstore\n      dup1\n      swap3\n      swap2\n      swap1\n      dup2\n      dup2\n      mstore\n      0x20\n      add\n      dup3\n      dup1\n      sload\n      tag_57\n      swap1\n      tag_21\n      jump\t// in\n    tag_57:\n      dup1\n      iszero\n      tag_58\n      jumpi\n      dup1\n      0x1f\n      lt\n      tag_59\n      jumpi\n      0x0100\n      dup1\n      dup4\n      sload\n      div\n      mul\n      dup4\n      mstore\n      swap2\n      0x20\n      add\n      swap2\n      jump(tag_58)\n    tag_59:\n      dup3\n      add\n      swap2\n      swap1\n      0x00\n      mstore\n      keccak256(0x00, 0x20)\n      swap1\n    tag_60:\n      dup2\n      sload\n      dup2\n      mstore\n      swap1\n      0x01\n      add\n      swap1\n      0x20\n      add\n      dup1\n      dup4\n      gt\n      tag_60\n      jumpi\n      dup3\n      swap1\n      sub\n      0x1f\n      and\n      dup3\n      add\n      swap2\n    tag_58:\n      pop\n      pop\n      pop\n      pop\n      pop\n      dup2\n      mstore\n      0x20\n      add\n      0x01\n      dup3\n      add\n      dup1\n      sload\n      tag_61\n      swap1\n      tag_21\n      jump\t// in\n    tag_61:\n      dup1\n      0x1f\n      add\n      0x20\n      dup1\n      swap2\n      div\n      mul\n      0x20\n      add\n      mload(0x40)\n      swap1\n      dup2\n      add\n      0x40\n      mstore\n      dup1\n      swap3\n      swap2\n      swap1\n      dup2\n      dup2\n      mstore\n      0x20\n      add\n      dup3\n      dup1\n      sload\n      tag_62\n      swap1\n      tag_21\n      jump\t// in\n    tag_62:\n      dup1\n      iszero\n      tag_63\n      jumpi\n      dup1\n      0x1f\n      lt\n      tag_64\n      jumpi\n      0x0100\n      dup1\n      dup4\n      sload\n      div\n      mul\n      dup4\n      mstore\n      swap2\n      0x20\n      add\n      swap2\n      jump(tag_63)\n    tag_64:\n      dup3\n      add\n      swap2\n      swap1\n      0x00\n      mstore\n      keccak256(0x00, 0x20)\n      swap1\n    tag_65:\n      dup2\n      sload\n      dup2\n      mstore\n      swap1\n      0x01\n      add\n      swap1\n      0x20\n      add\n      dup1\n      dup4\n      gt\n      tag_65\n      jumpi\n      dup3\n      swap1\n      sub\n      0x1f\n      and\n      dup3\n      add\n      swap2\n    tag_63:\n      pop\n      pop\n      pop\n      pop\n      pop\n      dup2\n      mstore\n      0x20\n      add\n      0x02\n      dup3\n      add\n      dup1\n      sload\n      tag_66\n      swap1\n      tag_21\n      jump\t// in\n    tag_66:\n      dup1\n      0x1f\n      add\n      0x20\n      dup1\n      swap2\n      div\n      mul\n      0x20\n      add\n      mload(0x40)\n      swap1\n      dup2\n      add\n      0x40\n      mstore\n      dup1\n      swap3\n      swap2\n      swap1\n      dup2\n      dup2\n      mstore\n      0x20\n      add\n      dup3\n      dup1\n      sload\n      tag_67\n      swap1\n      tag_21\n      jump\t// in\n    tag_67:\n      dup1\n      iszero\n      tag_68\n      jumpi\n      dup1\n      0x1f\n      lt\n      tag_69\n      jumpi\n      0x0100\n      dup1\n      dup4\n      sload\n      div\n      mul\n      dup4\n      mstore\n      swap2\n      0x20\n      add\n      swap2\n      jump(tag_68)\n    tag_69:\n      dup3\n      add\n      swap2\n      swap1\n      0x00\n      mstore\n      keccak256(0x00, 0x20)\n      swap1\n    tag_70:\n      dup2\n      sload\n      dup2\n      mstore\n      swap1\n      0x01\n      add\n      swap1\n      0x20\n      add\n      dup1\n      dup4\n      gt\n      tag_70\n      jumpi\n      dup3\n      swap1\n      sub\n      0x1f\n      and\n      dup3\n      add\n      swap2\n    tag_68:\n      pop\n      pop\n      pop\n      pop\n      pop\n      dup2\n      mstore\n      0x20\n      add\n      0x03\n      dup3\n      add\n      sload\n      dup2\n      mstore\n      0x20\n      add\n      0x04\n      dup3\n      add\n      dup1\n      sload\n      tag_71\n      swap1\n      tag_21\n      jump\t// in\n    tag_71:\n      dup1\n      0x1f\n      add\n      0x20\n      dup1\n      swap2\n      div\n      mul\n      0x20\n      add\n      mload(0x40)\n      swap1\n      dup2\n      add\n      0x40\n      mstore\n      dup1\n      swap3\n      swap2\n      swap1\n      dup2\n      dup2\n      mstore\n      0x20\n      add\n      dup3\n      dup1\n      sload\n      tag_72\n      swap1\n      tag_21\n      jump\t// in\n    tag_72:\n      dup1\n      iszero\n      tag_73\n      jumpi\n      dup1\n      0x1f\n      lt\n      tag_74\n      jumpi\n      0x0100\n      dup1\n      dup4\n      sload\n      div\n      mul\n      dup4\n      mstore\n      swap2\n      0x20\n      add\n      swap2\n      jump(tag_73)\n    tag_74:\n      dup3\n      add\n      swap2\n      swap1\n      0x00\n      mstore\n      keccak256(0x00, 0x20)\n      swap1\n    tag_75:\n      dup2\n      sload\n      dup2\n      mstore\n      swap1\n      0x01\n      add\n      swap1\n      0x20\n      add\n      dup1\n      dup4\n      gt\n      tag_75\n      jumpi\n      dup3\n      swap1\n      sub\n      0x1f\n      and\n      dup3\n      add\n      swap2\n    tag_73:\n      pop\n      pop\n      pop\n      pop\n      pop\n      dup2\n      mstore\n      pop\n      pop\n      swap1\n      dup1\n      0x14\n      add\n      mload(0x40)\n      dup1\n      0xa0\n      add\n      0x40\n      mstore\n      swap1\n      dup2\n      0x00\n      dup3\n      add\n      dup1\n      sload\n      tag_76\n      swap1\n      tag_21\n      jump\t// in\n    tag_76:\n      dup1\n      0x1f\n      add\n      0x20\n      dup1\n      swap2\n      div\n      mul\n      0x20\n      add\n      mload(0x40)\n      swap1\n      dup2\n      add\n      0x40\n      mstore\n      dup1\n      swap3\n      swap2\n      swap1\n      dup2\n      dup2\n      mstore\n      0x20\n      add\n      dup3\n      dup1\n      sload\n      tag_77\n      swap1\n      tag_21\n      jump\t// in\n    tag_77:\n      dup1\n      iszero\n      tag_78\n      jumpi\n      dup1\n      0x1f\n      lt\n      tag_79\n      jumpi\n      0x0100\n      dup1\n      dup4\n      sload\n      div\n      mul\n      dup4\n      mstore\n      swap2\n      0x20\n      add\n      swap2\n      jump(tag_78)\n    tag_79:\n      dup3\n      add\n      swap2\n      swap1\n      0x00\n      mstore\n      keccak256(0x00, 0x20)\n      swap1\n    tag_80:\n      dup2\n      sload\n      dup2\n      mstore\n      swap1\n      0x01\n      add\n      swap1\n      0x20\n      add\n      dup1\n      dup4\n      gt\n      tag_80\n      jumpi\n      dup3\n      swap1\n      sub\n      0x1f\n      and\n      dup3\n      add\n      swap2\n    tag_78:\n      pop\n      pop\n      pop\n      pop\n      pop\n      dup2\n      mstore\n      0x20\n      add\n      0x01\n      dup3\n      add\n      dup1\n      sload\n      tag_81\n      swap1\n      tag_21\n      jump\t// in\n    tag_81:\n      dup1\n      0x1f\n      add\n      0x20\n      dup1\n      swap2\n      div\n      mul\n      0x20\n      add\n      mload(0x40)\n      swap1\n      dup2\n      add\n      0x40\n      mstore\n      dup1\n      swap3\n      swap2\n      swap1\n      dup2\n      dup2\n      mstore\n      0x20\n      add\n      dup3\n      dup1\n      sload\n      tag_82\n      swap1\n      tag_21\n      jump\t// in\n    tag_82:\n      dup1\n      iszero\n      tag_83\n      jumpi\n      dup1\n      0x1f\n      lt\n      tag_84\n      jumpi\n      0x0100\n      dup1\n      dup4\n      sload\n      div\n      mul\n      dup4\n      mstore\n      swap2\n      0x20\n      add\n      swap2\n      jump(tag_83)\n    tag_84:\n      dup3\n      add\n      swap2\n      swap1\n      0x00\n      mstore\n      keccak256(0x00, 0x20)\n      swap1\n    tag_85:\n      dup2\n      sload\n      dup2\n      mstore\n      swap1\n      0x01\n      add\n      swap1\n      0x20\n      add\n      dup1\n      dup4\n      gt\n      tag_85\n      jumpi\n      dup3\n      swap1\n      sub\n      0x1f\n      and\n      dup3\n      add\n      swap2\n    tag_83:\n      pop\n      pop\n      pop\n      pop\n      pop\n      dup2\n      mstore\n      0x20\n      add\n      0x02\n      dup3\n      add\n      dup1\n      sload\n      tag_86\n      swap1\n      tag_21\n      jump\t// in\n    tag_86:\n      dup1\n      0x1f\n      add\n      0x20\n      dup1\n      swap2\n      div\n      mul\n      0x20\n      add\n      mload(0x40)\n      swap1\n      dup2\n      add\n      0x40\n      mstore\n      dup1\n      swap3\n      swap2\n      swap1\n      dup2\n      dup2\n      mstore\n      0x20\n      add\n      dup3\n      dup1\n      sload\n      tag_87\n      swap1\n      tag_21\n      jump\t// in\n    tag_87:\n      dup1\n      iszero\n      tag_88\n      jumpi\n      dup1\n      0x1f\n      lt\n      tag_89\n      jumpi\n      0x0100\n      dup1\n      dup4\n      sload\n      div\n      mul\n      dup4\n      mstore\n      swap2\n      0x20\n      add\n      swap2\n      jump(tag_88)\n    tag_89:\n      dup3\n      add\n      swap2\n      swap1\n      0x00\n      mstore\n      keccak256(0x00, 0x20)\n      swap1\n    tag_90:\n      dup2\n      sload\n      dup2\n      mstore\n      swap1\n      0x01\n      add\n      swap1\n      0x20\n      add\n      dup1\n      dup4\n      gt\n      tag_90\n      jumpi\n      dup3\n      swap1\n      sub\n      0x1f\n      and\n      dup3\n      add\n      swap2\n    tag_88:\n      pop\n      pop\n      pop\n      pop\n      pop\n      dup2\n      mstore\n      0x20\n      add\n      0x03\n      dup3\n      add\n      sload\n      dup2\n      mstore\n      0x20\n      add\n      0x04\n      dup3\n      add\n      0x00\n      swap1\n      sload\n      swap1\n      0x0100\n      exp\n      swap1\n      div\n      0xff\n      and\n      0xff\n      and\n      0xff\n      and\n      dup2\n      mstore\n      pop\n      pop\n      swap1\n      dup1\n      0x19\n      add\n      mload(0x40)\n      dup1\n      0x80\n      add\n      0x40\n      mstore\n      swap1\n      dup2\n      0x00\n      dup3\n      add\n      dup1\n      sload\n      tag_91\n      swap1\n      tag_21\n      jump\t// in\n    tag_91:\n      dup1\n      0x1f\n      add\n      0x20\n      dup1\n      swap2\n      div\n      mul\n      0x20\n      add\n      mload(0x40)\n      swap1\n      dup2\n      add\n      0x40\n      mstore\n      dup1\n      swap3\n      swap2\n      swap1\n      dup2\n      dup2\n      mstore\n      0x20\n      add\n      dup3\n      dup1\n      sload\n      tag_92\n      swap1\n      tag_21\n      jump\t// in\n    tag_92:\n      dup1\n      iszero\n      tag_93\n      jumpi\n      dup1\n      0x1f\n      lt\n      tag_94\n      jumpi\n      0x0100\n      dup1\n      dup4\n      sload\n      div\n      mul\n      dup4\n      mstore\n      swap2\n      0x20\n      add\n      swap2\n      jump(tag_93)\n    tag_94:\n      dup3\n      add\n      swap2\n      swap1\n      0x00\n      mstore\n      keccak256(0x00, 0x20)\n      swap1\n    tag_95:\n      dup2\n      sload\n      dup2\n      mstore\n      swap1\n      0x01\n      add\n      swap1\n      0x20\n      add\n      dup1\n      dup4\n      gt\n      tag_95\n      jumpi\n      dup3\n      swap1\n      sub\n      0x1f\n      and\n      dup3\n      add\n      swap2\n    tag_93:\n      pop\n      pop\n      pop\n      pop\n      pop\n      dup2\n      mstore\n      0x20\n      add\n      0x01\n      dup3\n      add\n      dup1\n      sload\n      tag_96\n      swap1\n      tag_21\n      jump\t// in\n    tag_96:\n      dup1\n      0x1f\n      add\n      0x20\n      dup1\n      swap2\n      div\n      mul\n      0x20\n      add\n      mload(0x40)\n      swap1\n      dup2\n      add\n      0x40\n      mstore\n      dup1\n      swap3\n      swap2\n      swap1\n      dup2\n      dup2\n      mstore\n      0x20\n      add\n      dup3\n      dup1\n      sload\n      tag_97\n      swap1\n      tag_21\n      jump\t// in\n    tag_97:\n      dup1\n      iszero\n      tag_98\n      jumpi\n      dup1\n      0x1f\n      lt\n      tag_99\n      jumpi\n      0x0100\n      dup1\n      dup4\n      sload\n      div\n      mul\n      dup4\n      mstore\n      swap2\n      0x20\n      add\n      swap2\n      jump(tag_98)\n    tag_99:\n      dup3\n      add\n      swap2\n      swap1\n      0x00\n      mstore\n      keccak256(0x00, 0x20)\n      swap1\n    tag_100:\n      dup2\n      sload\n      dup2\n      mstore\n      swap1\n      0x01\n      add\n      swap1\n      0x20\n      add\n      dup1\n      dup4\n      gt\n      tag_100\n      jumpi\n      dup3\n      swap1\n      sub\n      0x1f\n      and\n      dup3\n      add\n      swap2\n    tag_98:\n      pop\n      pop\n      pop\n      pop\n      pop\n      dup2\n      mstore\n      0x20\n      add\n      0x02\n      dup3\n      add\n      sload\n      dup2\n      mstore\n      0x20\n      add\n      0x03\n      dup3\n      add\n      0x00\n      swap1\n      sload\n      swap1\n      0x0100\n      exp\n      swap1\n      div\n      0xff\n      and\n      0xff\n      and\n      0xff\n      and\n      dup2\n      mstore\n      pop\n      pop\n      swap1\n      pop\n      dup9\n      jump\t// out\n        /* \"solidity_series.sol/bookingsite.sol\":2520:2813  function bookairlineticket(... */\n    tag_15:\n        /* \"solidity_series.sol/bookingsite.sol\":2785:2799  bookingCounter */\n      0x00\n      0x00\n        /* \"solidity_series.sol/bookingsite.sol\":2785:2801  bookingCounter++ */\n      dup2\n      sload\n      dup1\n      swap3\n      swap2\n      swap1\n      tag_102\n      swap1\n      tag_103\n      jump\t// in\n    tag_102:\n      swap2\n      swap1\n      pop\n      sstore\n      pop\n        /* \"solidity_series.sol/bookingsite.sol\":2520:2813  function bookairlineticket(... */\n      pop\n      pop\n      pop\n      pop\n      pop\n      pop\n      pop\n      pop\n      pop\n      jump\t// out\n        /* \"solidity_series.sol/bookingsite.sol\":1499:2518  function bookBusTicket( uint256 _userid,string memory _name,uint8 _age,... */\n    tag_19:\n        /* \"solidity_series.sol/bookingsite.sol\":1731:1745  bookingCounter */\n      0x00\n      0x00\n        /* \"solidity_series.sol/bookingsite.sol\":1731:1747  bookingCounter++ */\n      dup2\n      sload\n      dup1\n      swap3\n      swap2\n      swap1\n      tag_105\n      swap1\n      tag_103\n      jump\t// in\n    tag_105:\n      swap2\n      swap1\n      pop\n      sstore\n      pop\n        /* \"solidity_series.sol/bookingsite.sol\":1750:1769  user memory newuser */\n      0x00\n        /* \"solidity_series.sol/bookingsite.sol\":1770:1865  user({... */\n      mload(0x40)\n      dup1\n      0x80\n      add\n      0x40\n      mstore\n      dup1\n        /* \"solidity_series.sol/bookingsite.sol\":1789:1796  _userid */\n      dup12\n        /* \"solidity_series.sol/bookingsite.sol\":1770:1865  user({... */\n      dup2\n      mstore\n      0x20\n      add\n        /* \"solidity_series.sol/bookingsite.sol\":1808:1813  _name */\n      dup11\n        /* \"solidity_series.sol/bookingsite.sol\":1770:1865  user({... */\n      dup2\n      mstore\n      0x20\n      add\n        /* \"solidity_series.sol/bookingsite.sol\":1824:1828  _age */\n      dup10\n        /* \"solidity_series.sol/bookingsite.sol\":1770:1865  user({... */\n      0xff\n      and\n      dup2\n      mstore\n      0x20\n      add\n        /* \"solidity_series.sol/bookingsite.sol\":1846:1861  _contactdetails */\n      dup9\n        /* \"solidity_series.sol/bookingsite.sol\":1770:1865  user({... */\n      dup2\n      mstore\n      pop\n        /* \"solidity_series.sol/bookingsite.sol\":1750:1865  user memory newuser=user({... */\n      swap1\n      pop\n        /* \"solidity_series.sol/bookingsite.sol\":1869:1900  busbooking memory newBusbooking */\n      0x00\n        /* \"solidity_series.sol/bookingsite.sol\":1903:2120  busbooking({... */\n      mload(0x40)\n      dup1\n      0xa0\n      add\n      0x40\n      mstore\n      dup1\n        /* \"solidity_series.sol/bookingsite.sol\":1940:1947  _origin */\n      dup8\n        /* \"solidity_series.sol/bookingsite.sol\":1903:2120  busbooking({... */\n      dup2\n      mstore\n      0x20\n      add\n        /* \"solidity_series.sol/bookingsite.sol\":1973:1983  _busnumber */\n      dup9\n        /* \"solidity_series.sol/bookingsite.sol\":1903:2120  busbooking({... */\n      dup2\n      mstore\n      0x20\n      add\n        /* \"solidity_series.sol/bookingsite.sol\":2014:2026  _destination */\n      dup7\n        /* \"solidity_series.sol/bookingsite.sol\":1903:2120  busbooking({... */\n      dup2\n      mstore\n      0x20\n      add\n        /* \"solidity_series.sol/bookingsite.sol\":2056:2070  _dateofjourney */\n      dup6\n        /* \"solidity_series.sol/bookingsite.sol\":1903:2120  busbooking({... */\n      dup2\n      mstore\n      0x20\n      add\n        /* \"solidity_series.sol/bookingsite.sol\":2097:2108  _seatnumber */\n      dup5\n        /* \"solidity_series.sol/bookingsite.sol\":1903:2120  busbooking({... */\n      0xff\n      and\n      dup2\n      mstore\n      pop\n        /* \"solidity_series.sol/bookingsite.sol\":1869:2120  busbooking memory newBusbooking = busbooking({... */\n      swap1\n      pop\n        /* \"solidity_series.sol/bookingsite.sol\":2127:2152  booking memory newbooking */\n      0x00\n        /* \"solidity_series.sol/bookingsite.sol\":2153:2476  booking({... */\n      mload(0x40)\n      dup1\n      0x0100\n      add\n      0x40\n      mstore\n      dup1\n        /* \"solidity_series.sol/bookingsite.sol\":2178:2192  bookingCounter */\n      sload(0x00)\n        /* \"solidity_series.sol/bookingsite.sol\":2153:2476  booking({... */\n      dup2\n      mstore\n      0x20\n      add\n        /* \"solidity_series.sol/bookingsite.sol\":2211:2226  bookingtype.bus */\n      0x00\n        /* \"solidity_series.sol/bookingsite.sol\":2153:2476  booking({... */\n      0x04\n      dup2\n      gt\n      iszero\n      tag_106\n      jumpi\n      tag_107\n      tag_108\n      jump\t// in\n    tag_107:\n    tag_106:\n      dup2\n      mstore\n      0x20\n      add\n        /* \"solidity_series.sol/bookingsite.sol\":2238:2245  newuser */\n      dup5\n        /* \"solidity_series.sol/bookingsite.sol\":2153:2476  booking({... */\n      dup2\n      mstore\n      0x20\n      add\n        /* \"solidity_series.sol/bookingsite.sol\":2263:2276  newBusbooking */\n      dup4\n        /* \"solidity_series.sol/bookingsite.sol\":2153:2476  booking({... */\n      dup2\n      mstore\n      0x20\n      add\n        /* \"solidity_series.sol/bookingsite.sol\":2297:2324  cinemabooking(\"\", \"\", 0, 0) */\n      mload(0x40)\n      dup1\n      0x80\n      add\n      0x40\n      mstore\n      dup1\n      mload(0x40)\n      dup1\n      0x20\n      add\n      0x40\n      mstore\n      dup1\n      0x00\n      dup2\n      mstore\n      pop\n      dup2\n      mstore\n      0x20\n      add\n      mload(0x40)\n      dup1\n      0x20\n      add\n      0x40\n      mstore\n      dup1\n      0x00\n      dup2\n      mstore\n      pop\n      dup2\n      mstore\n      0x20\n      add\n        /* \"solidity_series.sol/bookingsite.sol\":2319:2320  0 */\n      0x00\n        /* \"solidity_series.sol/bookingsite.sol\":2297:2324  cinemabooking(\"\", \"\", 0, 0) */\n      dup2\n      mstore\n      0x20\n      add\n        /* \"solidity_series.sol/bookingsite.sol\":2322:2323  0 */\n      0x00\n        /* \"solidity_series.sol/bookingsite.sol\":2297:2324  cinemabooking(\"\", \"\", 0, 0) */\n      0xff\n      and\n      dup2\n      mstore\n      pop\n        /* \"solidity_series.sol/bookingsite.sol\":2153:2476  booking({... */\n      dup2\n      mstore\n      0x20\n      add\n        /* \"solidity_series.sol/bookingsite.sol\":2346:2375  airlinebooking(\"\",\"\",\"\",0,\"\") */\n      mload(0x40)\n      dup1\n      0xa0\n      add\n      0x40\n      mstore\n      dup1\n      mload(0x40)\n      dup1\n      0x20\n      add\n      0x40\n      mstore\n      dup1\n      0x00\n      dup2\n      mstore\n      pop\n      dup2\n      mstore\n      0x20\n      add\n      mload(0x40)\n      dup1\n      0x20\n      add\n      0x40\n      mstore\n      dup1\n      0x00\n      dup2\n      mstore\n      pop\n      dup2\n      mstore\n      0x20\n      add\n      mload(0x40)\n      dup1\n      0x20\n      add\n      0x40\n      mstore\n      dup1\n      0x00\n      dup2\n      mstore\n      pop\n      dup2\n      mstore\n      0x20\n      add\n        /* \"solidity_series.sol/bookingsite.sol\":2370:2371  0 */\n      0x00\n        /* \"solidity_series.sol/bookingsite.sol\":2346:2375  airlinebooking(\"\",\"\",\"\",0,\"\") */\n      dup2\n      mstore\n      0x20\n      add\n      mload(0x40)\n      dup1\n      0x20\n      add\n      0x40\n      mstore\n      dup1\n      0x00\n      dup2\n      mstore\n      pop\n      dup2\n      mstore\n      pop\n        /* \"solidity_series.sol/bookingsite.sol\":2153:2476  booking({... */\n      dup2\n      mstore\n      0x20\n      add\n        /* \"solidity_series.sol/bookingsite.sol\":2397:2425  railwaybooking(\"\",\"\",\"\",0,0) */\n      mload(0x40)\n      dup1\n      0xa0\n      add\n      0x40\n      mstore\n      dup1\n      mload(0x40)\n      dup1\n      0x20\n      add\n      0x40\n      mstore\n      dup1\n      0x00\n      dup2\n      mstore\n      pop\n      dup2\n      mstore\n      0x20\n      add\n      mload(0x40)\n      dup1\n      0x20\n      add\n      0x40\n      mstore\n      dup1\n      0x00\n      dup2\n      mstore\n      pop\n      dup2\n      mstore\n      0x20\n      add\n      mload(0x40)\n      dup1\n      0x20\n      add\n      0x40\n      mstore\n      dup1\n      0x00\n      dup2\n      mstore\n      pop\n      dup2\n      mstore\n      0x20\n      add\n        /* \"solidity_series.sol/bookingsite.sol\":2421:2422  0 */\n      0x00\n        /* \"solidity_series.sol/bookingsite.sol\":2397:2425  railwaybooking(\"\",\"\",\"\",0,0) */\n      dup2\n      mstore\n      0x20\n      add\n        /* \"solidity_series.sol/bookingsite.sol\":2423:2424  0 */\n      0x00\n        /* \"solidity_series.sol/bookingsite.sol\":2397:2425  railwaybooking(\"\",\"\",\"\",0,0) */\n      0xff\n      and\n      dup2\n      mstore\n      pop\n        /* \"solidity_series.sol/bookingsite.sol\":2153:2476  booking({... */\n      dup2\n      mstore\n      0x20\n      add\n        /* \"solidity_series.sol/bookingsite.sol\":2447:2472  cricketbooking(\"\",\"\",0,0) */\n      mload(0x40)\n      dup1\n      0x80\n      add\n      0x40\n      mstore\n      dup1\n      mload(0x40)\n      dup1\n      0x20\n      add\n      0x40\n      mstore\n      dup1\n      0x00\n      dup2\n      mstore\n      pop\n      dup2\n      mstore\n      0x20\n      add\n      mload(0x40)\n      dup1\n      0x20\n      add\n      0x40\n      mstore\n      dup1\n      0x00\n      dup2\n      mstore\n      pop\n      dup2\n      mstore\n      0x20\n      add\n        /* \"solidity_series.sol/bookingsite.sol\":2468:2469  0 */\n      0x00\n        /* \"solidity_series.sol/bookingsite.sol\":2447:2472  cricketbooking(\"\",\"\",0,0) */\n      dup2\n      mstore\n      0x20\n      add\n        /* \"solidity_series.sol/bookingsite.sol\":2470:2471  0 */\n      0x00\n        /* \"solidity_series.sol/bookingsite.sol\":2447:2472  cricketbooking(\"\",\"\",0,0) */\n      0xff\n      and\n      dup2\n      mstore\n      pop\n        /* \"solidity_series.sol/bookingsite.sol\":2153:2476  booking({... */\n      dup2\n      mstore\n      pop\n        /* \"solidity_series.sol/bookingsite.sol\":2127:2476  booking memory newbooking=booking({... */\n      swap1\n      pop\n        /* \"solidity_series.sol/bookingsite.sol\":2504:2514  newbooking */\n      dup1\n        /* \"solidity_series.sol/bookingsite.sol\":2479:2487  bookings */\n      0x01\n        /* \"solidity_series.sol/bookingsite.sol\":2479:2503  bookings[bookingCounter] */\n      0x00\n        /* \"solidity_series.sol/bookingsite.sol\":2488:2502  bookingCounter */\n      sload(0x00)\n        /* \"solidity_series.sol/bookingsite.sol\":2479:2503  bookings[bookingCounter] */\n      dup2\n      mstore\n      0x20\n      add\n      swap1\n      dup2\n      mstore\n      0x20\n      add\n      0x00\n      keccak256\n        /* \"solidity_series.sol/bookingsite.sol\":2479:2514  bookings[bookingCounter]=newbooking */\n      0x00\n      dup3\n      add\n      mload\n      dup2\n      0x00\n      add\n      sstore\n      0x20\n      dup3\n      add\n      mload\n      dup2\n      0x01\n      add\n      exp(0x0100, 0x00)\n      dup2\n      sload\n      dup2\n      0xff\n      mul\n      not\n      and\n      swap1\n      dup4\n      0x04\n      dup2\n      gt\n      iszero\n      tag_109\n      jumpi\n      tag_110\n      tag_108\n      jump\t// in\n    tag_110:\n    tag_109:\n      mul\n      or\n      swap1\n      sstore\n      pop\n      0x40\n      dup3\n      add\n      mload\n      dup2\n      0x02\n      add\n      0x00\n      dup3\n      add\n      mload\n      dup2\n      0x00\n      add\n      sstore\n      0x20\n      dup3\n      add\n      mload\n      dup2\n      0x01\n      add\n      swap1\n      dup2\n      tag_111\n      swap2\n      swap1\n      tag_112\n      jump\t// in\n    tag_111:\n      pop\n      0x40\n      dup3\n      add\n      mload\n      dup2\n      0x02\n      add\n      exp(0x0100, 0x00)\n      dup2\n      sload\n      dup2\n      0xff\n      mul\n      not\n      and\n      swap1\n      dup4\n      0xff\n      and\n      mul\n      or\n      swap1\n      sstore\n      pop\n      0x60\n      dup3\n      add\n      mload\n      dup2\n      0x03\n      add\n      swap1\n      dup2\n      tag_113\n      swap2\n      swap1\n      tag_112\n      jump\t// in\n    tag_113:\n      pop\n      pop\n      pop\n      0x60\n      dup3\n      add\n      mload\n      dup2\n      0x06\n      add\n      0x00\n      dup3\n      add\n      mload\n      dup2\n      0x00\n      add\n      swap1\n      dup2\n      tag_114\n      swap2\n      swap1\n      tag_112\n      jump\t// in\n    tag_114:\n      pop\n      0x20\n      dup3\n      add\n      mload\n      dup2\n      0x01\n      add\n      swap1\n      dup2\n      tag_115\n      swap2\n      swap1\n      tag_112\n      jump\t// in\n    tag_115:\n      pop\n      0x40\n      dup3\n      add\n      mload\n      dup2\n      0x02\n      add\n      swap1\n      dup2\n      tag_116\n      swap2\n      swap1\n      tag_112\n      jump\t// in\n    tag_116:\n      pop\n      0x60\n      dup3\n      add\n      mload\n      dup2\n      0x03\n      add\n      sstore\n      0x80\n      dup3\n      add\n      mload\n      dup2\n      0x04\n      add\n      exp(0x0100, 0x00)\n      dup2\n      sload\n      dup2\n      0xff\n      mul\n      not\n      and\n      swap1\n      dup4\n      0xff\n      and\n      mul\n      or\n      swap1\n      sstore\n      pop\n      pop\n      pop\n      0x80\n      dup3\n      add\n      mload\n      dup2\n      0x0b\n      add\n      0x00\n      dup3\n      add\n      mload\n      dup2\n      0x00\n      add\n      swap1\n      dup2\n      tag_117\n      swap2\n      swap1\n      tag_112\n      jump\t// in\n    tag_117:\n      pop\n      0x20\n      dup3\n      add\n      mload\n      dup2\n      0x01\n      add\n      swap1\n      dup2\n      tag_118\n      swap2\n      swap1\n      tag_112\n      jump\t// in\n    tag_118:\n      pop\n      0x40\n      dup3\n      add\n      mload\n      dup2\n      0x02\n      add\n      sstore\n      0x60\n      dup3\n      add\n      mload\n      dup2\n      0x03\n      add\n      exp(0x0100, 0x00)\n      dup2\n      sload\n      dup2\n      0xff\n      mul\n      not\n      and\n      swap1\n      dup4\n      0xff\n      and\n      mul\n      or\n      swap1\n      sstore\n      pop\n      pop\n      pop\n      0xa0\n      dup3\n      add\n      mload\n      dup2\n      0x0f\n      add\n      0x00\n      dup3\n      add\n      mload\n      dup2\n      0x00\n      add\n      swap1\n      dup2\n      tag_119\n      swap2\n      swap1\n      tag_112\n      jump\t// in\n    tag_119:\n      pop\n      0x20\n      dup3\n      add\n      mload\n      dup2\n      0x01\n      add\n      swap1\n      dup2\n      tag_120\n      swap2\n      swap1\n      tag_112\n      jump\t// in\n    tag_120:\n      pop\n      0x40\n      dup3\n      add\n      mload\n      dup2\n      0x02\n      add\n      swap1\n      dup2\n      tag_121\n      swap2\n      swap1\n      tag_112\n      jump\t// in\n    tag_121:\n      pop\n      0x60\n      dup3\n      add\n      mload\n      dup2\n      0x03\n      add\n      sstore\n      0x80\n      dup3\n      add\n      mload\n      dup2\n      0x04\n      add\n      swap1\n      dup2\n      tag_122\n      swap2\n      swap1\n      tag_112\n      jump\t// in\n    tag_122:\n      pop\n      pop\n      pop\n      0xc0\n      dup3\n      add\n      mload\n      dup2\n      0x14\n      add\n      0x00\n      dup3\n      add\n      mload\n      dup2\n      0x00\n      add\n      swap1\n      dup2\n      tag_123\n      swap2\n      swap1\n      tag_112\n      jump\t// in\n    tag_123:\n      pop\n      0x20\n      dup3\n      add\n      mload\n      dup2\n      0x01\n      add\n      swap1\n      dup2\n      tag_124\n      swap2\n      swap1\n      tag_112\n      jump\t// in\n    tag_124:\n      pop\n      0x40\n      dup3\n      add\n      mload\n      dup2\n      0x02\n      add\n      swap1\n      dup2\n      tag_125\n      swap2\n      swap1\n      tag_112\n      jump\t// in\n    tag_125:\n      pop\n      0x60\n      dup3\n      add\n      mload\n      dup2\n      0x03\n      add\n      sstore\n      0x80\n      dup3\n      add\n      mload\n      dup2\n      0x04\n      add\n      exp(0x0100, 0x00)\n      dup2\n      sload\n      dup2\n      0xff\n      mul\n      not\n      and\n      swap1\n      dup4\n      0xff\n      and\n      mul\n      or\n      swap1\n      sstore\n      pop\n      pop\n      pop\n      0xe0\n      dup3\n      add\n      mload\n      dup2\n      0x19\n      add\n      0x00\n      dup3\n      add\n      mload\n      dup2\n      0x00\n      add\n      swap1\n      dup2\n      tag_126\n      swap2\n      swap1\n      tag_112\n      jump\t// in\n    tag_126:\n      pop\n      0x20\n      dup3\n      add\n      mload\n      dup2\n      0x01\n      add\n      swap1\n      dup2\n      tag_127\n      swap2\n      swap1\n      tag_112\n      jump\t// in\n    tag_127:\n      pop\n      0x40\n      dup3\n      add\n      mload\n      dup2\n      0x02\n      add\n      sstore\n      0x60\n      dup3\n      add\n      mload\n      dup2\n      0x03\n      add\n      exp(0x0100, 0x00)\n      dup2\n      sload\n      dup2\n      0xff\n      mul\n      not\n      and\n      swap1\n      dup4\n      0xff\n      and\n      mul\n      or\n      swap1\n      sstore\n      pop\n      pop\n      pop\n      swap1\n      pop\n      pop\n        /* \"solidity_series.sol/bookingsite.sol\":1728:2518  {... */\n      pop\n      pop\n      pop\n        /* \"solidity_series.sol/bookingsite.sol\":1499:2518  function bookBusTicket( uint256 _userid,string memory _name,uint8 _age,... */\n      pop\n      pop\n      pop\n      pop\n      pop\n      pop\n      pop\n      pop\n      pop\n      jump\t// out\n        /* \"#utility.yul\":7:82   */\n    tag_128:\n        /* \"#utility.yul\":40:46   */\n      0x00\n        /* \"#utility.yul\":73:75   */\n      0x40\n        /* \"#utility.yul\":67:76   */\n      mload\n        /* \"#utility.yul\":57:76   */\n      swap1\n      pop\n        /* \"#utility.yul\":7:82   */\n      swap1\n      jump\t// out\n        /* \"#utility.yul\":88:205   */\n    tag_129:\n        /* \"#utility.yul\":197:198   */\n      0x00\n        /* \"#utility.yul\":194:195   */\n      0x00\n        /* \"#utility.yul\":187:199   */\n      revert\n        /* \"#utility.yul\":211:328   */\n    tag_130:\n        /* \"#utility.yul\":320:321   */\n      0x00\n        /* \"#utility.yul\":317:318   */\n      0x00\n        /* \"#utility.yul\":310:322   */\n      revert\n        /* \"#utility.yul\":334:411   */\n    tag_131:\n        /* \"#utility.yul\":371:378   */\n      0x00\n        /* \"#utility.yul\":400:405   */\n      dup2\n        /* \"#utility.yul\":389:405   */\n      swap1\n      pop\n        /* \"#utility.yul\":334:411   */\n      swap2\n      swap1\n      pop\n      jump\t// out\n        /* \"#utility.yul\":417:539   */\n    tag_132:\n        /* \"#utility.yul\":490:514   */\n      tag_187\n        /* \"#utility.yul\":508:513   */\n      dup2\n        /* \"#utility.yul\":490:514   */\n      tag_131\n      jump\t// in\n    tag_187:\n        /* \"#utility.yul\":483:488   */\n      dup2\n        /* \"#utility.yul\":480:515   */\n      eq\n        /* \"#utility.yul\":470:533   */\n      tag_188\n      jumpi\n        /* \"#utility.yul\":529:530   */\n      0x00\n        /* \"#utility.yul\":526:527   */\n      0x00\n        /* \"#utility.yul\":519:531   */\n      revert\n        /* \"#utility.yul\":470:533   */\n    tag_188:\n        /* \"#utility.yul\":417:539   */\n      pop\n      jump\t// out\n        /* \"#utility.yul\":545:684   */\n    tag_133:\n        /* \"#utility.yul\":591:596   */\n      0x00\n        /* \"#utility.yul\":629:635   */\n      dup2\n        /* \"#utility.yul\":616:636   */\n      calldataload\n        /* \"#utility.yul\":607:636   */\n      swap1\n      pop\n        /* \"#utility.yul\":645:678   */\n      tag_190\n        /* \"#utility.yul\":672:677   */\n      dup2\n        /* \"#utility.yul\":645:678   */\n      tag_132\n      jump\t// in\n    tag_190:\n        /* \"#utility.yul\":545:684   */\n      swap3\n      swap2\n      pop\n      pop\n      jump\t// out\n        /* \"#utility.yul\":690:1019   */\n    tag_8:\n        /* \"#utility.yul\":749:755   */\n      0x00\n        /* \"#utility.yul\":798:800   */\n      0x20\n        /* \"#utility.yul\":786:795   */\n      dup3\n        /* \"#utility.yul\":777:784   */\n      dup5\n        /* \"#utility.yul\":773:796   */\n      sub\n        /* \"#utility.yul\":769:801   */\n      slt\n        /* \"#utility.yul\":766:885   */\n      iszero\n      tag_192\n      jumpi\n        /* \"#utility.yul\":804:883   */\n      tag_193\n      tag_129\n      jump\t// in\n    tag_193:\n        /* \"#utility.yul\":766:885   */\n    tag_192:\n        /* \"#utility.yul\":924:925   */\n      0x00\n        /* \"#utility.yul\":949:1002   */\n      tag_194\n        /* \"#utility.yul\":994:1001   */\n      dup5\n        /* \"#utility.yul\":985:991   */\n      dup3\n        /* \"#utility.yul\":974:983   */\n      dup6\n        /* \"#utility.yul\":970:992   */\n      add\n        /* \"#utility.yul\":949:1002   */\n      tag_133\n      jump\t// in\n    tag_194:\n        /* \"#utility.yul\":939:1002   */\n      swap2\n      pop\n        /* \"#utility.yul\":895:1012   */\n      pop\n        /* \"#utility.yul\":690:1019   */\n      swap3\n      swap2\n      pop\n      pop\n      jump\t// out\n        /* \"#utility.yul\":1025:1143   */\n    tag_134:\n        /* \"#utility.yul\":1112:1136   */\n      tag_196\n        /* \"#utility.yul\":1130:1135   */\n      dup2\n        /* \"#utility.yul\":1112:1136   */\n      tag_131\n      jump\t// in\n    tag_196:\n        /* \"#utility.yul\":1107:1110   */\n      dup3\n        /* \"#utility.yul\":1100:1137   */\n      mstore\n        /* \"#utility.yul\":1025:1143   */\n      pop\n      pop\n      jump\t// out\n        /* \"#utility.yul\":1149:1329   */\n    tag_108:\n        /* \"#utility.yul\":1197:1274   */\n      0x4e487b7100000000000000000000000000000000000000000000000000000000\n        /* \"#utility.yul\":1194:1195   */\n      0x00\n        /* \"#utility.yul\":1187:1275   */\n      mstore\n        /* \"#utility.yul\":1294:1298   */\n      0x21\n        /* \"#utility.yul\":1291:1292   */\n      0x04\n        /* \"#utility.yul\":1284:1299   */\n      mstore\n        /* \"#utility.yul\":1318:1322   */\n      0x24\n        /* \"#utility.yul\":1315:1316   */\n      0x00\n        /* \"#utility.yul\":1308:1323   */\n      revert\n        /* \"#utility.yul\":1335:1453   */\n    tag_135:\n        /* \"#utility.yul\":1421:1422   */\n      0x05\n        /* \"#utility.yul\":1414:1419   */\n      dup2\n        /* \"#utility.yul\":1411:1423   */\n      lt\n        /* \"#utility.yul\":1401:1447   */\n      tag_199\n      jumpi\n        /* \"#utility.yul\":1427:1445   */\n      tag_200\n      tag_108\n      jump\t// in\n    tag_200:\n        /* \"#utility.yul\":1401:1447   */\n    tag_199:\n        /* \"#utility.yul\":1335:1453   */\n      pop\n      jump\t// out\n        /* \"#utility.yul\":1459:1596   */\n    tag_136:\n        /* \"#utility.yul\":1509:1516   */\n      0x00\n        /* \"#utility.yul\":1538:1543   */\n      dup2\n        /* \"#utility.yul\":1527:1543   */\n      swap1\n      pop\n        /* \"#utility.yul\":1544:1590   */\n      tag_202\n        /* \"#utility.yul\":1584:1589   */\n      dup3\n        /* \"#utility.yul\":1544:1590   */\n      tag_135\n      jump\t// in\n    tag_202:\n        /* \"#utility.yul\":1459:1596   */\n      swap2\n      swap1\n      pop\n      jump\t// out\n        /* \"#utility.yul\":1602:1739   */\n    tag_137:\n        /* \"#utility.yul\":1663:1672   */\n      0x00\n        /* \"#utility.yul\":1696:1733   */\n      tag_204\n        /* \"#utility.yul\":1727:1732   */\n      dup3\n        /* \"#utility.yul\":1696:1733   */\n      tag_136\n      jump\t// in\n    tag_204:\n        /* \"#utility.yul\":1683:1733   */\n      swap1\n      pop\n        /* \"#utility.yul\":1602:1739   */\n      swap2\n      swap1\n      pop\n      jump\t// out\n        /* \"#utility.yul\":1745:1898   */\n    tag_138:\n        /* \"#utility.yul\":1843:1891   */\n      tag_206\n        /* \"#utility.yul\":1885:1890   */\n      dup2\n        /* \"#utility.yul\":1843:1891   */\n      tag_137\n      jump\t// in\n    tag_206:\n        /* \"#utility.yul\":1838:1841   */\n      dup3\n        /* \"#utility.yul\":1831:1892   */\n      mstore\n        /* \"#utility.yul\":1745:1898   */\n      pop\n      pop\n      jump\t// out\n        /* \"#utility.yul\":1904:2012   */\n    tag_139:\n        /* \"#utility.yul\":1981:2005   */\n      tag_208\n        /* \"#utility.yul\":1999:2004   */\n      dup2\n        /* \"#utility.yul\":1981:2005   */\n      tag_131\n      jump\t// in\n    tag_208:\n        /* \"#utility.yul\":1976:1979   */\n      dup3\n        /* \"#utility.yul\":1969:2006   */\n      mstore\n        /* \"#utility.yul\":1904:2012   */\n      pop\n      pop\n      jump\t// out\n        /* \"#utility.yul\":2018:2117   */\n    tag_140:\n        /* \"#utility.yul\":2070:2076   */\n      0x00\n        /* \"#utility.yul\":2104:2109   */\n      dup2\n        /* \"#utility.yul\":2098:2110   */\n      mload\n        /* \"#utility.yul\":2088:2110   */\n      swap1\n      pop\n        /* \"#utility.yul\":2018:2117   */\n      swap2\n      swap1\n      pop\n      jump\t// out\n        /* \"#utility.yul\":2123:2282   */\n    tag_141:\n        /* \"#utility.yul\":2197:2208   */\n      0x00\n        /* \"#utility.yul\":2231:2237   */\n      dup3\n        /* \"#utility.yul\":2226:2229   */\n      dup3\n        /* \"#utility.yul\":2219:2238   */\n      mstore\n        /* \"#utility.yul\":2271:2275   */\n      0x20\n        /* \"#utility.yul\":2266:2269   */\n      dup3\n        /* \"#utility.yul\":2262:2276   */\n      add\n        /* \"#utility.yul\":2247:2276   */\n      swap1\n      pop\n        /* \"#utility.yul\":2123:2282   */\n      swap3\n      swap2\n      pop\n      pop\n      jump\t// out\n        /* \"#utility.yul\":2288:2427   */\n    tag_142:\n        /* \"#utility.yul\":2377:2383   */\n      dup3\n        /* \"#utility.yul\":2372:2375   */\n      dup2\n        /* \"#utility.yul\":2367:2370   */\n      dup4\n        /* \"#utility.yul\":2361:2384   */\n      mcopy\n        /* \"#utility.yul\":2418:2419   */\n      0x00\n        /* \"#utility.yul\":2409:2415   */\n      dup4\n        /* \"#utility.yul\":2404:2407   */\n      dup4\n        /* \"#utility.yul\":2400:2416   */\n      add\n        /* \"#utility.yul\":2393:2420   */\n      mstore\n        /* \"#utility.yul\":2288:2427   */\n      pop\n      pop\n      pop\n      jump\t// out\n        /* \"#utility.yul\":2433:2535   */\n    tag_143:\n        /* \"#utility.yul\":2474:2480   */\n      0x00\n        /* \"#utility.yul\":2525:2527   */\n      0x1f\n        /* \"#utility.yul\":2521:2528   */\n      not\n        /* \"#utility.yul\":2516:2518   */\n      0x1f\n        /* \"#utility.yul\":2509:2514   */\n      dup4\n        /* \"#utility.yul\":2505:2519   */\n      add\n        /* \"#utility.yul\":2501:2529   */\n      and\n        /* \"#utility.yul\":2491:2529   */\n      swap1\n      pop\n        /* \"#utility.yul\":2433:2535   */\n      swap2\n      swap1\n      pop\n      jump\t// out\n        /* \"#utility.yul\":2541:2898   */\n    tag_144:\n        /* \"#utility.yul\":2619:2622   */\n      0x00\n        /* \"#utility.yul\":2647:2686   */\n      tag_214\n        /* \"#utility.yul\":2680:2685   */\n      dup3\n        /* \"#utility.yul\":2647:2686   */\n      tag_140\n      jump\t// in\n    tag_214:\n        /* \"#utility.yul\":2702:2763   */\n      tag_215\n        /* \"#utility.yul\":2756:2762   */\n      dup2\n        /* \"#utility.yul\":2751:2754   */\n      dup6\n        /* \"#utility.yul\":2702:2763   */\n      tag_141\n      jump\t// in\n    tag_215:\n        /* \"#utility.yul\":2695:2763   */\n      swap4\n      pop\n        /* \"#utility.yul\":2772:2837   */\n      tag_216\n        /* \"#utility.yul\":2830:2836   */\n      dup2\n        /* \"#utility.yul\":2825:2828   */\n      dup6\n        /* \"#utility.yul\":2818:2822   */\n      0x20\n        /* \"#utility.yul\":2811:2816   */\n      dup7\n        /* \"#utility.yul\":2807:2823   */\n      add\n        /* \"#utility.yul\":2772:2837   */\n      tag_142\n      jump\t// in\n    tag_216:\n        /* \"#utility.yul\":2862:2891   */\n      tag_217\n        /* \"#utility.yul\":2884:2890   */\n      dup2\n        /* \"#utility.yul\":2862:2891   */\n      tag_143\n      jump\t// in\n    tag_217:\n        /* \"#utility.yul\":2857:2860   */\n      dup5\n        /* \"#utility.yul\":2853:2892   */\n      add\n        /* \"#utility.yul\":2846:2892   */\n      swap2\n      pop\n        /* \"#utility.yul\":2623:2898   */\n      pop\n        /* \"#utility.yul\":2541:2898   */\n      swap3\n      swap2\n      pop\n      pop\n      jump\t// out\n        /* \"#utility.yul\":2904:2990   */\n    tag_145:\n        /* \"#utility.yul\":2939:2946   */\n      0x00\n        /* \"#utility.yul\":2979:2983   */\n      0xff\n        /* \"#utility.yul\":2972:2977   */\n      dup3\n        /* \"#utility.yul\":2968:2984   */\n      and\n        /* \"#utility.yul\":2957:2984   */\n      swap1\n      pop\n        /* \"#utility.yul\":2904:2990   */\n      swap2\n      swap1\n      pop\n      jump\t// out\n        /* \"#utility.yul\":2996:3098   */\n    tag_146:\n        /* \"#utility.yul\":3069:3091   */\n      tag_220\n        /* \"#utility.yul\":3085:3090   */\n      dup2\n        /* \"#utility.yul\":3069:3091   */\n      tag_145\n      jump\t// in\n    tag_220:\n        /* \"#utility.yul\":3064:3067   */\n      dup3\n        /* \"#utility.yul\":3057:3092   */\n      mstore\n        /* \"#utility.yul\":2996:3098   */\n      pop\n      pop\n      jump\t// out\n        /* \"#utility.yul\":3162:4184   */\n    tag_147:\n        /* \"#utility.yul\":3271:3274   */\n      0x00\n        /* \"#utility.yul\":3307:3311   */\n      0x80\n        /* \"#utility.yul\":3302:3305   */\n      dup4\n        /* \"#utility.yul\":3298:3312   */\n      add\n        /* \"#utility.yul\":3396:3400   */\n      0x00\n        /* \"#utility.yul\":3389:3394   */\n      dup4\n        /* \"#utility.yul\":3385:3401   */\n      add\n        /* \"#utility.yul\":3379:3402   */\n      mload\n        /* \"#utility.yul\":3415:3478   */\n      tag_222\n        /* \"#utility.yul\":3472:3476   */\n      0x00\n        /* \"#utility.yul\":3467:3470   */\n      dup7\n        /* \"#utility.yul\":3463:3477   */\n      add\n        /* \"#utility.yul\":3449:3461   */\n      dup3\n        /* \"#utility.yul\":3415:3478   */\n      tag_139\n      jump\t// in\n    tag_222:\n        /* \"#utility.yul\":3322:3488   */\n      pop\n        /* \"#utility.yul\":3570:3574   */\n      0x20\n        /* \"#utility.yul\":3563:3568   */\n      dup4\n        /* \"#utility.yul\":3559:3575   */\n      add\n        /* \"#utility.yul\":3553:3576   */\n      mload\n        /* \"#utility.yul\":3623:3626   */\n      dup5\n        /* \"#utility.yul\":3617:3621   */\n      dup3\n        /* \"#utility.yul\":3613:3627   */\n      sub\n        /* \"#utility.yul\":3606:3610   */\n      0x20\n        /* \"#utility.yul\":3601:3604   */\n      dup7\n        /* \"#utility.yul\":3597:3611   */\n      add\n        /* \"#utility.yul\":3590:3628   */\n      mstore\n        /* \"#utility.yul\":3649:3722   */\n      tag_223\n        /* \"#utility.yul\":3717:3721   */\n      dup3\n        /* \"#utility.yul\":3703:3715   */\n      dup3\n        /* \"#utility.yul\":3649:3722   */\n      tag_144\n      jump\t// in\n    tag_223:\n        /* \"#utility.yul\":3641:3722   */\n      swap2\n      pop\n        /* \"#utility.yul\":3498:3733   */\n      pop\n        /* \"#utility.yul\":3814:3818   */\n      0x40\n        /* \"#utility.yul\":3807:3812   */\n      dup4\n        /* \"#utility.yul\":3803:3819   */\n      add\n        /* \"#utility.yul\":3797:3820   */\n      mload\n        /* \"#utility.yul\":3833:3892   */\n      tag_224\n        /* \"#utility.yul\":3886:3890   */\n      0x40\n        /* \"#utility.yul\":3881:3884   */\n      dup7\n        /* \"#utility.yul\":3877:3891   */\n      add\n        /* \"#utility.yul\":3863:3875   */\n      dup3\n        /* \"#utility.yul\":3833:3892   */\n      tag_146\n      jump\t// in\n    tag_224:\n        /* \"#utility.yul\":3743:3902   */\n      pop\n        /* \"#utility.yul\":3994:3998   */\n      0x60\n        /* \"#utility.yul\":3987:3992   */\n      dup4\n        /* \"#utility.yul\":3983:3999   */\n      add\n        /* \"#utility.yul\":3977:4000   */\n      mload\n        /* \"#utility.yul\":4047:4050   */\n      dup5\n        /* \"#utility.yul\":4041:4045   */\n      dup3\n        /* \"#utility.yul\":4037:4051   */\n      sub\n        /* \"#utility.yul\":4030:4034   */\n      0x60\n        /* \"#utility.yul\":4025:4028   */\n      dup7\n        /* \"#utility.yul\":4021:4035   */\n      add\n        /* \"#utility.yul\":4014:4052   */\n      mstore\n        /* \"#utility.yul\":4073:4146   */\n      tag_225\n        /* \"#utility.yul\":4141:4145   */\n      dup3\n        /* \"#utility.yul\":4127:4139   */\n      dup3\n        /* \"#utility.yul\":4073:4146   */\n      tag_144\n      jump\t// in\n    tag_225:\n        /* \"#utility.yul\":4065:4146   */\n      swap2\n      pop\n        /* \"#utility.yul\":3912:4157   */\n      pop\n        /* \"#utility.yul\":4174:4178   */\n      dup1\n        /* \"#utility.yul\":4167:4178   */\n      swap2\n      pop\n        /* \"#utility.yul\":3276:4184   */\n      pop\n        /* \"#utility.yul\":3162:4184   */\n      swap3\n      swap2\n      pop\n      pop\n      jump\t// out\n        /* \"#utility.yul\":4260:5563   */\n    tag_148:\n        /* \"#utility.yul\":4381:4384   */\n      0x00\n        /* \"#utility.yul\":4417:4421   */\n      0xa0\n        /* \"#utility.yul\":4412:4415   */\n      dup4\n        /* \"#utility.yul\":4408:4422   */\n      add\n        /* \"#utility.yul\":4509:4513   */\n      0x00\n        /* \"#utility.yul\":4502:4507   */\n      dup4\n        /* \"#utility.yul\":4498:4514   */\n      add\n        /* \"#utility.yul\":4492:4515   */\n      mload\n        /* \"#utility.yul\":4562:4565   */\n      dup5\n        /* \"#utility.yul\":4556:4560   */\n      dup3\n        /* \"#utility.yul\":4552:4566   */\n      sub\n        /* \"#utility.yul\":4545:4549   */\n      0x00\n        /* \"#utility.yul\":4540:4543   */\n      dup7\n        /* \"#utility.yul\":4536:4550   */\n      add\n        /* \"#utility.yul\":4529:4567   */\n      mstore\n        /* \"#utility.yul\":4588:4661   */\n      tag_227\n        /* \"#utility.yul\":4656:4660   */\n      dup3\n        /* \"#utility.yul\":4642:4654   */\n      dup3\n        /* \"#utility.yul\":4588:4661   */\n      tag_144\n      jump\t// in\n    tag_227:\n        /* \"#utility.yul\":4580:4661   */\n      swap2\n      pop\n        /* \"#utility.yul\":4432:4672   */\n      pop\n        /* \"#utility.yul\":4759:4763   */\n      0x20\n        /* \"#utility.yul\":4752:4757   */\n      dup4\n        /* \"#utility.yul\":4748:4764   */\n      add\n        /* \"#utility.yul\":4742:4765   */\n      mload\n        /* \"#utility.yul\":4812:4815   */\n      dup5\n        /* \"#utility.yul\":4806:4810   */\n      dup3\n        /* \"#utility.yul\":4802:4816   */\n      sub\n        /* \"#utility.yul\":4795:4799   */\n      0x20\n        /* \"#utility.yul\":4790:4793   */\n      dup7\n        /* \"#utility.yul\":4786:4800   */\n      add\n        /* \"#utility.yul\":4779:4817   */\n      mstore\n        /* \"#utility.yul\":4838:4911   */\n      tag_228\n        /* \"#utility.yul\":4906:4910   */\n      dup3\n        /* \"#utility.yul\":4892:4904   */\n      dup3\n        /* \"#utility.yul\":4838:4911   */\n      tag_144\n      jump\t// in\n    tag_228:\n        /* \"#utility.yul\":4830:4911   */\n      swap2\n      pop\n        /* \"#utility.yul\":4682:4922   */\n      pop\n        /* \"#utility.yul\":5014:5018   */\n      0x40\n        /* \"#utility.yul\":5007:5012   */\n      dup4\n        /* \"#utility.yul\":5003:5019   */\n      add\n        /* \"#utility.yul\":4997:5020   */\n      mload\n        /* \"#utility.yul\":5067:5070   */\n      dup5\n        /* \"#utility.yul\":5061:5065   */\n      dup3\n        /* \"#utility.yul\":5057:5071   */\n      sub\n        /* \"#utility.yul\":5050:5054   */\n      0x40\n        /* \"#utility.yul\":5045:5048   */\n      dup7\n        /* \"#utility.yul\":5041:5055   */\n      add\n        /* \"#utility.yul\":5034:5072   */\n      mstore\n        /* \"#utility.yul\":5093:5166   */\n      tag_229\n        /* \"#utility.yul\":5161:5165   */\n      dup3\n        /* \"#utility.yul\":5147:5159   */\n      dup3\n        /* \"#utility.yul\":5093:5166   */\n      tag_144\n      jump\t// in\n    tag_229:\n        /* \"#utility.yul\":5085:5166   */\n      swap2\n      pop\n        /* \"#utility.yul\":4932:5177   */\n      pop\n        /* \"#utility.yul\":5268:5272   */\n      0x60\n        /* \"#utility.yul\":5261:5266   */\n      dup4\n        /* \"#utility.yul\":5257:5273   */\n      add\n        /* \"#utility.yul\":5251:5274   */\n      mload\n        /* \"#utility.yul\":5287:5350   */\n      tag_230\n        /* \"#utility.yul\":5344:5348   */\n      0x60\n        /* \"#utility.yul\":5339:5342   */\n      dup7\n        /* \"#utility.yul\":5335:5349   */\n      add\n        /* \"#utility.yul\":5321:5333   */\n      dup3\n        /* \"#utility.yul\":5287:5350   */\n      tag_139\n      jump\t// in\n    tag_230:\n        /* \"#utility.yul\":5187:5360   */\n      pop\n        /* \"#utility.yul\":5448:5452   */\n      0x80\n        /* \"#utility.yul\":5441:5446   */\n      dup4\n        /* \"#utility.yul\":5437:5453   */\n      add\n        /* \"#utility.yul\":5431:5454   */\n      mload\n        /* \"#utility.yul\":5467:5526   */\n      tag_231\n        /* \"#utility.yul\":5520:5524   */\n      0x80\n        /* \"#utility.yul\":5515:5518   */\n      dup7\n        /* \"#utility.yul\":5511:5525   */\n      add\n        /* \"#utility.yul\":5497:5509   */\n      dup3\n        /* \"#utility.yul\":5467:5526   */\n      tag_146\n      jump\t// in\n    tag_231:\n        /* \"#utility.yul\":5370:5536   */\n      pop\n        /* \"#utility.yul\":5553:5557   */\n      dup1\n        /* \"#utility.yul\":5546:5557   */\n      swap2\n      pop\n        /* \"#utility.yul\":4386:5563   */\n      pop\n        /* \"#utility.yul\":4260:5563   */\n      swap3\n      swap2\n      pop\n      pop\n      jump\t// out\n        /* \"#utility.yul\":5645:6695   */\n    tag_149:\n        /* \"#utility.yul\":5772:5775   */\n      0x00\n        /* \"#utility.yul\":5808:5812   */\n      0x80\n        /* \"#utility.yul\":5803:5806   */\n      dup4\n        /* \"#utility.yul\":5799:5813   */\n      add\n        /* \"#utility.yul\":5900:5904   */\n      0x00\n        /* \"#utility.yul\":5893:5898   */\n      dup4\n        /* \"#utility.yul\":5889:5905   */\n      add\n        /* \"#utility.yul\":5883:5906   */\n      mload\n        /* \"#utility.yul\":5953:5956   */\n      dup5\n        /* \"#utility.yul\":5947:5951   */\n      dup3\n        /* \"#utility.yul\":5943:5957   */\n      sub\n        /* \"#utility.yul\":5936:5940   */\n      0x00\n        /* \"#utility.yul\":5931:5934   */\n      dup7\n        /* \"#utility.yul\":5927:5941   */\n      add\n        /* \"#utility.yul\":5920:5958   */\n      mstore\n        /* \"#utility.yul\":5979:6052   */\n      tag_233\n        /* \"#utility.yul\":6047:6051   */\n      dup3\n        /* \"#utility.yul\":6033:6045   */\n      dup3\n        /* \"#utility.yul\":5979:6052   */\n      tag_144\n      jump\t// in\n    tag_233:\n        /* \"#utility.yul\":5971:6052   */\n      swap2\n      pop\n        /* \"#utility.yul\":5823:6063   */\n      pop\n        /* \"#utility.yul\":6151:6155   */\n      0x20\n        /* \"#utility.yul\":6144:6149   */\n      dup4\n        /* \"#utility.yul\":6140:6156   */\n      add\n        /* \"#utility.yul\":6134:6157   */\n      mload\n        /* \"#utility.yul\":6204:6207   */\n      dup5\n        /* \"#utility.yul\":6198:6202   */\n      dup3\n        /* \"#utility.yul\":6194:6208   */\n      sub\n        /* \"#utility.yul\":6187:6191   */\n      0x20\n        /* \"#utility.yul\":6182:6185   */\n      dup7\n        /* \"#utility.yul\":6178:6192   */\n      add\n        /* \"#utility.yul\":6171:6209   */\n      mstore\n        /* \"#utility.yul\":6230:6303   */\n      tag_234\n        /* \"#utility.yul\":6298:6302   */\n      dup3\n        /* \"#utility.yul\":6284:6296   */\n      dup3\n        /* \"#utility.yul\":6230:6303   */\n      tag_144\n      jump\t// in\n    tag_234:\n        /* \"#utility.yul\":6222:6303   */\n      swap2\n      pop\n        /* \"#utility.yul\":6073:6314   */\n      pop\n        /* \"#utility.yul\":6400:6404   */\n      0x40\n        /* \"#utility.yul\":6393:6398   */\n      dup4\n        /* \"#utility.yul\":6389:6405   */\n      add\n        /* \"#utility.yul\":6383:6406   */\n      mload\n        /* \"#utility.yul\":6419:6482   */\n      tag_235\n        /* \"#utility.yul\":6476:6480   */\n      0x40\n        /* \"#utility.yul\":6471:6474   */\n      dup7\n        /* \"#utility.yul\":6467:6481   */\n      add\n        /* \"#utility.yul\":6453:6465   */\n      dup3\n        /* \"#utility.yul\":6419:6482   */\n      tag_139\n      jump\t// in\n    tag_235:\n        /* \"#utility.yul\":6324:6492   */\n      pop\n        /* \"#utility.yul\":6580:6584   */\n      0x60\n        /* \"#utility.yul\":6573:6578   */\n      dup4\n        /* \"#utility.yul\":6569:6585   */\n      add\n        /* \"#utility.yul\":6563:6586   */\n      mload\n        /* \"#utility.yul\":6599:6658   */\n      tag_236\n        /* \"#utility.yul\":6652:6656   */\n      0x60\n        /* \"#utility.yul\":6647:6650   */\n      dup7\n        /* \"#utility.yul\":6643:6657   */\n      add\n        /* \"#utility.yul\":6629:6641   */\n      dup3\n        /* \"#utility.yul\":6599:6658   */\n      tag_146\n      jump\t// in\n    tag_236:\n        /* \"#utility.yul\":6502:6668   */\n      pop\n        /* \"#utility.yul\":6685:6689   */\n      dup1\n        /* \"#utility.yul\":6678:6689   */\n      swap2\n      pop\n        /* \"#utility.yul\":5777:6695   */\n      pop\n        /* \"#utility.yul\":5645:6695   */\n      swap3\n      swap2\n      pop\n      pop\n      jump\t// out\n        /* \"#utility.yul\":6779:8161   */\n    tag_150:\n        /* \"#utility.yul\":6908:6911   */\n      0x00\n        /* \"#utility.yul\":6944:6948   */\n      0xa0\n        /* \"#utility.yul\":6939:6942   */\n      dup4\n        /* \"#utility.yul\":6935:6949   */\n      add\n        /* \"#utility.yul\":7039:7043   */\n      0x00\n        /* \"#utility.yul\":7032:7037   */\n      dup4\n        /* \"#utility.yul\":7028:7044   */\n      add\n        /* \"#utility.yul\":7022:7045   */\n      mload\n        /* \"#utility.yul\":7092:7095   */\n      dup5\n        /* \"#utility.yul\":7086:7090   */\n      dup3\n        /* \"#utility.yul\":7082:7096   */\n      sub\n        /* \"#utility.yul\":7075:7079   */\n      0x00\n        /* \"#utility.yul\":7070:7073   */\n      dup7\n        /* \"#utility.yul\":7066:7080   */\n      add\n        /* \"#utility.yul\":7059:7097   */\n      mstore\n        /* \"#utility.yul\":7118:7191   */\n      tag_238\n        /* \"#utility.yul\":7186:7190   */\n      dup3\n        /* \"#utility.yul\":7172:7184   */\n      dup3\n        /* \"#utility.yul\":7118:7191   */\n      tag_144\n      jump\t// in\n    tag_238:\n        /* \"#utility.yul\":7110:7191   */\n      swap2\n      pop\n        /* \"#utility.yul\":6959:7202   */\n      pop\n        /* \"#utility.yul\":7286:7290   */\n      0x20\n        /* \"#utility.yul\":7279:7284   */\n      dup4\n        /* \"#utility.yul\":7275:7291   */\n      add\n        /* \"#utility.yul\":7269:7292   */\n      mload\n        /* \"#utility.yul\":7339:7342   */\n      dup5\n        /* \"#utility.yul\":7333:7337   */\n      dup3\n        /* \"#utility.yul\":7329:7343   */\n      sub\n        /* \"#utility.yul\":7322:7326   */\n      0x20\n        /* \"#utility.yul\":7317:7320   */\n      dup7\n        /* \"#utility.yul\":7313:7327   */\n      add\n        /* \"#utility.yul\":7306:7344   */\n      mstore\n        /* \"#utility.yul\":7365:7438   */\n      tag_239\n        /* \"#utility.yul\":7433:7437   */\n      dup3\n        /* \"#utility.yul\":7419:7431   */\n      dup3\n        /* \"#utility.yul\":7365:7438   */\n      tag_144\n      jump\t// in\n    tag_239:\n        /* \"#utility.yul\":7357:7438   */\n      swap2\n      pop\n        /* \"#utility.yul\":7212:7449   */\n      pop\n        /* \"#utility.yul\":7538:7542   */\n      0x40\n        /* \"#utility.yul\":7531:7536   */\n      dup4\n        /* \"#utility.yul\":7527:7543   */\n      add\n        /* \"#utility.yul\":7521:7544   */\n      mload\n        /* \"#utility.yul\":7591:7594   */\n      dup5\n        /* \"#utility.yul\":7585:7589   */\n      dup3\n        /* \"#utility.yul\":7581:7595   */\n      sub\n        /* \"#utility.yul\":7574:7578   */\n      0x40\n        /* \"#utility.yul\":7569:7572   */\n      dup7\n        /* \"#utility.yul\":7565:7579   */\n      add\n        /* \"#utility.yul\":7558:7596   */\n      mstore\n        /* \"#utility.yul\":7617:7690   */\n      tag_240\n        /* \"#utility.yul\":7685:7689   */\n      dup3\n        /* \"#utility.yul\":7671:7683   */\n      dup3\n        /* \"#utility.yul\":7617:7690   */\n      tag_144\n      jump\t// in\n    tag_240:\n        /* \"#utility.yul\":7609:7690   */\n      swap2\n      pop\n        /* \"#utility.yul\":7459:7701   */\n      pop\n        /* \"#utility.yul\":7792:7796   */\n      0x60\n        /* \"#utility.yul\":7785:7790   */\n      dup4\n        /* \"#utility.yul\":7781:7797   */\n      add\n        /* \"#utility.yul\":7775:7798   */\n      mload\n        /* \"#utility.yul\":7811:7874   */\n      tag_241\n        /* \"#utility.yul\":7868:7872   */\n      0x60\n        /* \"#utility.yul\":7863:7866   */\n      dup7\n        /* \"#utility.yul\":7859:7873   */\n      add\n        /* \"#utility.yul\":7845:7857   */\n      dup3\n        /* \"#utility.yul\":7811:7874   */\n      tag_139\n      jump\t// in\n    tag_241:\n        /* \"#utility.yul\":7711:7884   */\n      pop\n        /* \"#utility.yul\":7971:7975   */\n      0x80\n        /* \"#utility.yul\":7964:7969   */\n      dup4\n        /* \"#utility.yul\":7960:7976   */\n      add\n        /* \"#utility.yul\":7954:7977   */\n      mload\n        /* \"#utility.yul\":8024:8027   */\n      dup5\n        /* \"#utility.yul\":8018:8022   */\n      dup3\n        /* \"#utility.yul\":8014:8028   */\n      sub\n        /* \"#utility.yul\":8007:8011   */\n      0x80\n        /* \"#utility.yul\":8002:8005   */\n      dup7\n        /* \"#utility.yul\":7998:8012   */\n      add\n        /* \"#utility.yul\":7991:8029   */\n      mstore\n        /* \"#utility.yul\":8050:8123   */\n      tag_242\n        /* \"#utility.yul\":8118:8122   */\n      dup3\n        /* \"#utility.yul\":8104:8116   */\n      dup3\n        /* \"#utility.yul\":8050:8123   */\n      tag_144\n      jump\t// in\n    tag_242:\n        /* \"#utility.yul\":8042:8123   */\n      swap2\n      pop\n        /* \"#utility.yul\":7894:8134   */\n      pop\n        /* \"#utility.yul\":8151:8155   */\n      dup1\n        /* \"#utility.yul\":8144:8155   */\n      swap2\n      pop\n        /* \"#utility.yul\":6913:8161   */\n      pop\n        /* \"#utility.yul\":6779:8161   */\n      swap3\n      swap2\n      pop\n      pop\n      jump\t// out\n        /* \"#utility.yul\":8245:9552   */\n    tag_151:\n        /* \"#utility.yul\":8374:8377   */\n      0x00\n        /* \"#utility.yul\":8410:8414   */\n      0xa0\n        /* \"#utility.yul\":8405:8408   */\n      dup4\n        /* \"#utility.yul\":8401:8415   */\n      add\n        /* \"#utility.yul\":8504:8508   */\n      0x00\n        /* \"#utility.yul\":8497:8502   */\n      dup4\n        /* \"#utility.yul\":8493:8509   */\n      add\n        /* \"#utility.yul\":8487:8510   */\n      mload\n        /* \"#utility.yul\":8557:8560   */\n      dup5\n        /* \"#utility.yul\":8551:8555   */\n      dup3\n        /* \"#utility.yul\":8547:8561   */\n      sub\n        /* \"#utility.yul\":8540:8544   */\n      0x00\n        /* \"#utility.yul\":8535:8538   */\n      dup7\n        /* \"#utility.yul\":8531:8545   */\n      add\n        /* \"#utility.yul\":8524:8562   */\n      mstore\n        /* \"#utility.yul\":8583:8656   */\n      tag_244\n        /* \"#utility.yul\":8651:8655   */\n      dup3\n        /* \"#utility.yul\":8637:8649   */\n      dup3\n        /* \"#utility.yul\":8583:8656   */\n      tag_144\n      jump\t// in\n    tag_244:\n        /* \"#utility.yul\":8575:8656   */\n      swap2\n      pop\n        /* \"#utility.yul\":8425:8667   */\n      pop\n        /* \"#utility.yul\":8751:8755   */\n      0x20\n        /* \"#utility.yul\":8744:8749   */\n      dup4\n        /* \"#utility.yul\":8740:8756   */\n      add\n        /* \"#utility.yul\":8734:8757   */\n      mload\n        /* \"#utility.yul\":8804:8807   */\n      dup5\n        /* \"#utility.yul\":8798:8802   */\n      dup3\n        /* \"#utility.yul\":8794:8808   */\n      sub\n        /* \"#utility.yul\":8787:8791   */\n      0x20\n        /* \"#utility.yul\":8782:8785   */\n      dup7\n        /* \"#utility.yul\":8778:8792   */\n      add\n        /* \"#utility.yul\":8771:8809   */\n      mstore\n        /* \"#utility.yul\":8830:8903   */\n      tag_245\n        /* \"#utility.yul\":8898:8902   */\n      dup3\n        /* \"#utility.yul\":8884:8896   */\n      dup3\n        /* \"#utility.yul\":8830:8903   */\n      tag_144\n      jump\t// in\n    tag_245:\n        /* \"#utility.yul\":8822:8903   */\n      swap2\n      pop\n        /* \"#utility.yul\":8677:8914   */\n      pop\n        /* \"#utility.yul\":9003:9007   */\n      0x40\n        /* \"#utility.yul\":8996:9001   */\n      dup4\n        /* \"#utility.yul\":8992:9008   */\n      add\n        /* \"#utility.yul\":8986:9009   */\n      mload\n        /* \"#utility.yul\":9056:9059   */\n      dup5\n        /* \"#utility.yul\":9050:9054   */\n      dup3\n        /* \"#utility.yul\":9046:9060   */\n      sub\n        /* \"#utility.yul\":9039:9043   */\n      0x40\n        /* \"#utility.yul\":9034:9037   */\n      dup7\n        /* \"#utility.yul\":9030:9044   */\n      add\n        /* \"#utility.yul\":9023:9061   */\n      mstore\n        /* \"#utility.yul\":9082:9155   */\n      tag_246\n        /* \"#utility.yul\":9150:9154   */\n      dup3\n        /* \"#utility.yul\":9136:9148   */\n      dup3\n        /* \"#utility.yul\":9082:9155   */\n      tag_144\n      jump\t// in\n    tag_246:\n        /* \"#utility.yul\":9074:9155   */\n      swap2\n      pop\n        /* \"#utility.yul\":8924:9166   */\n      pop\n        /* \"#utility.yul\":9257:9261   */\n      0x60\n        /* \"#utility.yul\":9250:9255   */\n      dup4\n        /* \"#utility.yul\":9246:9262   */\n      add\n        /* \"#utility.yul\":9240:9263   */\n      mload\n        /* \"#utility.yul\":9276:9339   */\n      tag_247\n        /* \"#utility.yul\":9333:9337   */\n      0x60\n        /* \"#utility.yul\":9328:9331   */\n      dup7\n        /* \"#utility.yul\":9324:9338   */\n      add\n        /* \"#utility.yul\":9310:9322   */\n      dup3\n        /* \"#utility.yul\":9276:9339   */\n      tag_139\n      jump\t// in\n    tag_247:\n        /* \"#utility.yul\":9176:9349   */\n      pop\n        /* \"#utility.yul\":9437:9441   */\n      0x80\n        /* \"#utility.yul\":9430:9435   */\n      dup4\n        /* \"#utility.yul\":9426:9442   */\n      add\n        /* \"#utility.yul\":9420:9443   */\n      mload\n        /* \"#utility.yul\":9456:9515   */\n      tag_248\n        /* \"#utility.yul\":9509:9513   */\n      0x80\n        /* \"#utility.yul\":9504:9507   */\n      dup7\n        /* \"#utility.yul\":9500:9514   */\n      add\n        /* \"#utility.yul\":9486:9498   */\n      dup3\n        /* \"#utility.yul\":9456:9515   */\n      tag_146\n      jump\t// in\n    tag_248:\n        /* \"#utility.yul\":9359:9525   */\n      pop\n        /* \"#utility.yul\":9542:9546   */\n      dup1\n        /* \"#utility.yul\":9535:9546   */\n      swap2\n      pop\n        /* \"#utility.yul\":8379:9552   */\n      pop\n        /* \"#utility.yul\":8245:9552   */\n      swap3\n      swap2\n      pop\n      pop\n      jump\t// out\n        /* \"#utility.yul\":9636:10689   */\n    tag_152:\n        /* \"#utility.yul\":9765:9768   */\n      0x00\n        /* \"#utility.yul\":9801:9805   */\n      0x80\n        /* \"#utility.yul\":9796:9799   */\n      dup4\n        /* \"#utility.yul\":9792:9806   */\n      add\n        /* \"#utility.yul\":9896:9900   */\n      0x00\n        /* \"#utility.yul\":9889:9894   */\n      dup4\n        /* \"#utility.yul\":9885:9901   */\n      add\n        /* \"#utility.yul\":9879:9902   */\n      mload\n        /* \"#utility.yul\":9949:9952   */\n      dup5\n        /* \"#utility.yul\":9943:9947   */\n      dup3\n        /* \"#utility.yul\":9939:9953   */\n      sub\n        /* \"#utility.yul\":9932:9936   */\n      0x00\n        /* \"#utility.yul\":9927:9930   */\n      dup7\n        /* \"#utility.yul\":9923:9937   */\n      add\n        /* \"#utility.yul\":9916:9954   */\n      mstore\n        /* \"#utility.yul\":9975:10048   */\n      tag_250\n        /* \"#utility.yul\":10043:10047   */\n      dup3\n        /* \"#utility.yul\":10029:10041   */\n      dup3\n        /* \"#utility.yul\":9975:10048   */\n      tag_144\n      jump\t// in\n    tag_250:\n        /* \"#utility.yul\":9967:10048   */\n      swap2\n      pop\n        /* \"#utility.yul\":9816:10059   */\n      pop\n        /* \"#utility.yul\":10144:10148   */\n      0x20\n        /* \"#utility.yul\":10137:10142   */\n      dup4\n        /* \"#utility.yul\":10133:10149   */\n      add\n        /* \"#utility.yul\":10127:10150   */\n      mload\n        /* \"#utility.yul\":10197:10200   */\n      dup5\n        /* \"#utility.yul\":10191:10195   */\n      dup3\n        /* \"#utility.yul\":10187:10201   */\n      sub\n        /* \"#utility.yul\":10180:10184   */\n      0x20\n        /* \"#utility.yul\":10175:10178   */\n      dup7\n        /* \"#utility.yul\":10171:10185   */\n      add\n        /* \"#utility.yul\":10164:10202   */\n      mstore\n        /* \"#utility.yul\":10223:10296   */\n      tag_251\n        /* \"#utility.yul\":10291:10295   */\n      dup3\n        /* \"#utility.yul\":10277:10289   */\n      dup3\n        /* \"#utility.yul\":10223:10296   */\n      tag_144\n      jump\t// in\n    tag_251:\n        /* \"#utility.yul\":10215:10296   */\n      swap2\n      pop\n        /* \"#utility.yul\":10069:10307   */\n      pop\n        /* \"#utility.yul\":10394:10398   */\n      0x40\n        /* \"#utility.yul\":10387:10392   */\n      dup4\n        /* \"#utility.yul\":10383:10399   */\n      add\n        /* \"#utility.yul\":10377:10400   */\n      mload\n        /* \"#utility.yul\":10413:10476   */\n      tag_252\n        /* \"#utility.yul\":10470:10474   */\n      0x40\n        /* \"#utility.yul\":10465:10468   */\n      dup7\n        /* \"#utility.yul\":10461:10475   */\n      add\n        /* \"#utility.yul\":10447:10459   */\n      dup3\n        /* \"#utility.yul\":10413:10476   */\n      tag_139\n      jump\t// in\n    tag_252:\n        /* \"#utility.yul\":10317:10486   */\n      pop\n        /* \"#utility.yul\":10574:10578   */\n      0x60\n        /* \"#utility.yul\":10567:10572   */\n      dup4\n        /* \"#utility.yul\":10563:10579   */\n      add\n        /* \"#utility.yul\":10557:10580   */\n      mload\n        /* \"#utility.yul\":10593:10652   */\n      tag_253\n        /* \"#utility.yul\":10646:10650   */\n      0x60\n        /* \"#utility.yul\":10641:10644   */\n      dup7\n        /* \"#utility.yul\":10637:10651   */\n      add\n        /* \"#utility.yul\":10623:10635   */\n      dup3\n        /* \"#utility.yul\":10593:10652   */\n      tag_146\n      jump\t// in\n    tag_253:\n        /* \"#utility.yul\":10496:10662   */\n      pop\n        /* \"#utility.yul\":10679:10683   */\n      dup1\n        /* \"#utility.yul\":10672:10683   */\n      swap2\n      pop\n        /* \"#utility.yul\":9770:10689   */\n      pop\n        /* \"#utility.yul\":9636:10689   */\n      swap3\n      swap2\n      pop\n      pop\n      jump\t// out\n        /* \"#utility.yul\":10695:12680   */\n    tag_11:\n        /* \"#utility.yul\":11325:11329   */\n      0x00\n        /* \"#utility.yul\":11363:11366   */\n      0x0100\n        /* \"#utility.yul\":11352:11361   */\n      dup3\n        /* \"#utility.yul\":11348:11367   */\n      add\n        /* \"#utility.yul\":11340:11367   */\n      swap1\n      pop\n        /* \"#utility.yul\":11377:11448   */\n      tag_255\n        /* \"#utility.yul\":11445:11446   */\n      0x00\n        /* \"#utility.yul\":11434:11443   */\n      dup4\n        /* \"#utility.yul\":11430:11447   */\n      add\n        /* \"#utility.yul\":11421:11427   */\n      dup12\n        /* \"#utility.yul\":11377:11448   */\n      tag_134\n      jump\t// in\n    tag_255:\n        /* \"#utility.yul\":11458:11541   */\n      tag_256\n        /* \"#utility.yul\":11537:11539   */\n      0x20\n        /* \"#utility.yul\":11526:11535   */\n      dup4\n        /* \"#utility.yul\":11522:11540   */\n      add\n        /* \"#utility.yul\":11513:11519   */\n      dup11\n        /* \"#utility.yul\":11458:11541   */\n      tag_138\n      jump\t// in\n    tag_256:\n        /* \"#utility.yul\":11588:11597   */\n      dup2\n        /* \"#utility.yul\":11582:11586   */\n      dup2\n        /* \"#utility.yul\":11578:11598   */\n      sub\n        /* \"#utility.yul\":11573:11575   */\n      0x40\n        /* \"#utility.yul\":11562:11571   */\n      dup4\n        /* \"#utility.yul\":11558:11576   */\n      add\n        /* \"#utility.yul\":11551:11599   */\n      mstore\n        /* \"#utility.yul\":11616:11714   */\n      tag_257\n        /* \"#utility.yul\":11709:11713   */\n      dup2\n        /* \"#utility.yul\":11700:11706   */\n      dup10\n        /* \"#utility.yul\":11616:11714   */\n      tag_147\n      jump\t// in\n    tag_257:\n        /* \"#utility.yul\":11608:11714   */\n      swap1\n      pop\n        /* \"#utility.yul\":11761:11770   */\n      dup2\n        /* \"#utility.yul\":11755:11759   */\n      dup2\n        /* \"#utility.yul\":11751:11771   */\n      sub\n        /* \"#utility.yul\":11746:11748   */\n      0x60\n        /* \"#utility.yul\":11735:11744   */\n      dup4\n        /* \"#utility.yul\":11731:11749   */\n      add\n        /* \"#utility.yul\":11724:11772   */\n      mstore\n        /* \"#utility.yul\":11789:11899   */\n      tag_258\n        /* \"#utility.yul\":11894:11898   */\n      dup2\n        /* \"#utility.yul\":11885:11891   */\n      dup9\n        /* \"#utility.yul\":11789:11899   */\n      tag_148\n      jump\t// in\n    tag_258:\n        /* \"#utility.yul\":11781:11899   */\n      swap1\n      pop\n        /* \"#utility.yul\":11947:11956   */\n      dup2\n        /* \"#utility.yul\":11941:11945   */\n      dup2\n        /* \"#utility.yul\":11937:11957   */\n      sub\n        /* \"#utility.yul\":11931:11934   */\n      0x80\n        /* \"#utility.yul\":11920:11929   */\n      dup4\n        /* \"#utility.yul\":11916:11935   */\n      add\n        /* \"#utility.yul\":11909:11958   */\n      mstore\n        /* \"#utility.yul\":11975:12091   */\n      tag_259\n        /* \"#utility.yul\":12086:12090   */\n      dup2\n        /* \"#utility.yul\":12077:12083   */\n      dup8\n        /* \"#utility.yul\":11975:12091   */\n      tag_149\n      jump\t// in\n    tag_259:\n        /* \"#utility.yul\":11967:12091   */\n      swap1\n      pop\n        /* \"#utility.yul\":12139:12148   */\n      dup2\n        /* \"#utility.yul\":12133:12137   */\n      dup2\n        /* \"#utility.yul\":12129:12149   */\n      sub\n        /* \"#utility.yul\":12123:12126   */\n      0xa0\n        /* \"#utility.yul\":12112:12121   */\n      dup4\n        /* \"#utility.yul\":12108:12127   */\n      add\n        /* \"#utility.yul\":12101:12150   */\n      mstore\n        /* \"#utility.yul\":12167:12285   */\n      tag_260\n        /* \"#utility.yul\":12280:12284   */\n      dup2\n        /* \"#utility.yul\":12271:12277   */\n      dup7\n        /* \"#utility.yul\":12167:12285   */\n      tag_150\n      jump\t// in\n    tag_260:\n        /* \"#utility.yul\":12159:12285   */\n      swap1\n      pop\n        /* \"#utility.yul\":12333:12342   */\n      dup2\n        /* \"#utility.yul\":12327:12331   */\n      dup2\n        /* \"#utility.yul\":12323:12343   */\n      sub\n        /* \"#utility.yul\":12317:12320   */\n      0xc0\n        /* \"#utility.yul\":12306:12315   */\n      dup4\n        /* \"#utility.yul\":12302:12321   */\n      add\n        /* \"#utility.yul\":12295:12344   */\n      mstore\n        /* \"#utility.yul\":12361:12479   */\n      tag_261\n        /* \"#utility.yul\":12474:12478   */\n      dup2\n        /* \"#utility.yul\":12465:12471   */\n      dup6\n        /* \"#utility.yul\":12361:12479   */\n      tag_151\n      jump\t// in\n    tag_261:\n        /* \"#utility.yul\":12353:12479   */\n      swap1\n      pop\n        /* \"#utility.yul\":12527:12536   */\n      dup2\n        /* \"#utility.yul\":12521:12525   */\n      dup2\n        /* \"#utility.yul\":12517:12537   */\n      sub\n        /* \"#utility.yul\":12511:12514   */\n      0xe0\n        /* \"#utility.yul\":12500:12509   */\n      dup4\n        /* \"#utility.yul\":12496:12515   */\n      add\n        /* \"#utility.yul\":12489:12538   */\n      mstore\n        /* \"#utility.yul\":12555:12673   */\n      tag_262\n        /* \"#utility.yul\":12668:12672   */\n      dup2\n        /* \"#utility.yul\":12659:12665   */\n      dup5\n        /* \"#utility.yul\":12555:12673   */\n      tag_152\n      jump\t// in\n    tag_262:\n        /* \"#utility.yul\":12547:12673   */\n      swap1\n      pop\n        /* \"#utility.yul\":10695:12680   */\n      swap10\n      swap9\n      pop\n      pop\n      pop\n      pop\n      pop\n      pop\n      pop\n      pop\n      pop\n      jump\t// out\n        /* \"#utility.yul\":12686:12803   */\n    tag_153:\n        /* \"#utility.yul\":12795:12796   */\n      0x00\n        /* \"#utility.yul\":12792:12793   */\n      0x00\n        /* \"#utility.yul\":12785:12797   */\n      revert\n        /* \"#utility.yul\":12809:12926   */\n    tag_154:\n        /* \"#utility.yul\":12918:12919   */\n      0x00\n        /* \"#utility.yul\":12915:12916   */\n      0x00\n        /* \"#utility.yul\":12908:12920   */\n      revert\n        /* \"#utility.yul\":12932:13112   */\n    tag_155:\n        /* \"#utility.yul\":12980:13057   */\n      0x4e487b7100000000000000000000000000000000000000000000000000000000\n        /* \"#utility.yul\":12977:12978   */\n      0x00\n        /* \"#utility.yul\":12970:13058   */\n      mstore\n        /* \"#utility.yul\":13077:13081   */\n      0x41\n        /* \"#utility.yul\":13074:13075   */\n      0x04\n        /* \"#utility.yul\":13067:13082   */\n      mstore\n        /* \"#utility.yul\":13101:13105   */\n      0x24\n        /* \"#utility.yul\":13098:13099   */\n      0x00\n        /* \"#utility.yul\":13091:13106   */\n      revert\n        /* \"#utility.yul\":13118:13399   */\n    tag_156:\n        /* \"#utility.yul\":13201:13228   */\n      tag_267\n        /* \"#utility.yul\":13223:13227   */\n      dup3\n        /* \"#utility.yul\":13201:13228   */\n      tag_143\n      jump\t// in\n    tag_267:\n        /* \"#utility.yul\":13193:13199   */\n      dup2\n        /* \"#utility.yul\":13189:13229   */\n      add\n        /* \"#utility.yul\":13331:13337   */\n      dup2\n        /* \"#utility.yul\":13319:13329   */\n      dup2\n        /* \"#utility.yul\":13316:13338   */\n      lt\n        /* \"#utility.yul\":13295:13313   */\n      0xffffffffffffffff\n        /* \"#utility.yul\":13283:13293   */\n      dup3\n        /* \"#utility.yul\":13280:13314   */\n      gt\n        /* \"#utility.yul\":13277:13339   */\n      or\n        /* \"#utility.yul\":13274:13362   */\n      iszero\n      tag_268\n      jumpi\n        /* \"#utility.yul\":13342:13360   */\n      tag_269\n      tag_155\n      jump\t// in\n    tag_269:\n        /* \"#utility.yul\":13274:13362   */\n    tag_268:\n        /* \"#utility.yul\":13382:13392   */\n      dup1\n        /* \"#utility.yul\":13378:13380   */\n      0x40\n        /* \"#utility.yul\":13371:13393   */\n      mstore\n        /* \"#utility.yul\":13161:13399   */\n      pop\n        /* \"#utility.yul\":13118:13399   */\n      pop\n      pop\n      jump\t// out\n        /* \"#utility.yul\":13405:13534   */\n    tag_157:\n        /* \"#utility.yul\":13439:13445   */\n      0x00\n        /* \"#utility.yul\":13466:13486   */\n      tag_271\n      tag_128\n      jump\t// in\n    tag_271:\n        /* \"#utility.yul\":13456:13486   */\n      swap1\n      pop\n        /* \"#utility.yul\":13495:13528   */\n      tag_272\n        /* \"#utility.yul\":13523:13527   */\n      dup3\n        /* \"#utility.yul\":13515:13521   */\n      dup3\n        /* \"#utility.yul\":13495:13528   */\n      tag_156\n      jump\t// in\n    tag_272:\n        /* \"#utility.yul\":13405:13534   */\n      swap2\n      swap1\n      pop\n      jump\t// out\n        /* \"#utility.yul\":13540:13848   */\n    tag_158:\n        /* \"#utility.yul\":13602:13606   */\n      0x00\n        /* \"#utility.yul\":13692:13710   */\n      0xffffffffffffffff\n        /* \"#utility.yul\":13684:13690   */\n      dup3\n        /* \"#utility.yul\":13681:13711   */\n      gt\n        /* \"#utility.yul\":13678:13734   */\n      iszero\n      tag_274\n      jumpi\n        /* \"#utility.yul\":13714:13732   */\n      tag_275\n      tag_155\n      jump\t// in\n    tag_275:\n        /* \"#utility.yul\":13678:13734   */\n    tag_274:\n        /* \"#utility.yul\":13752:13781   */\n      tag_276\n        /* \"#utility.yul\":13774:13780   */\n      dup3\n        /* \"#utility.yul\":13752:13781   */\n      tag_143\n      jump\t// in\n    tag_276:\n        /* \"#utility.yul\":13744:13781   */\n      swap1\n      pop\n        /* \"#utility.yul\":13836:13840   */\n      0x20\n        /* \"#utility.yul\":13830:13834   */\n      dup2\n        /* \"#utility.yul\":13826:13841   */\n      add\n        /* \"#utility.yul\":13818:13841   */\n      swap1\n      pop\n        /* \"#utility.yul\":13540:13848   */\n      swap2\n      swap1\n      pop\n      jump\t// out\n        /* \"#utility.yul\":13854:14002   */\n    tag_159:\n        /* \"#utility.yul\":13952:13958   */\n      dup3\n        /* \"#utility.yul\":13947:13950   */\n      dup2\n        /* \"#utility.yul\":13942:13945   */\n      dup4\n        /* \"#utility.yul\":13929:13959   */\n      calldatacopy\n        /* \"#utility.yul\":13993:13994   */\n      0x00\n        /* \"#utility.yul\":13984:13990   */\n      dup4\n        /* \"#utility.yul\":13979:13982   */\n      dup4\n        /* \"#utility.yul\":13975:13991   */\n      add\n        /* \"#utility.yul\":13968:13995   */\n      mstore\n        /* \"#utility.yul\":13854:14002   */\n      pop\n      pop\n      pop\n      jump\t// out\n        /* \"#utility.yul\":14008:14433   */\n    tag_160:\n        /* \"#utility.yul\":14086:14091   */\n      0x00\n        /* \"#utility.yul\":14111:14177   */\n      tag_279\n        /* \"#utility.yul\":14127:14176   */\n      tag_280\n        /* \"#utility.yul\":14169:14175   */\n      dup5\n        /* \"#utility.yul\":14127:14176   */\n      tag_158\n      jump\t// in\n    tag_280:\n        /* \"#utility.yul\":14111:14177   */\n      tag_157\n      jump\t// in\n    tag_279:\n        /* \"#utility.yul\":14102:14177   */\n      swap1\n      pop\n        /* \"#utility.yul\":14200:14206   */\n      dup3\n        /* \"#utility.yul\":14193:14198   */\n      dup2\n        /* \"#utility.yul\":14186:14207   */\n      mstore\n        /* \"#utility.yul\":14238:14242   */\n      0x20\n        /* \"#utility.yul\":14231:14236   */\n      dup2\n        /* \"#utility.yul\":14227:14243   */\n      add\n        /* \"#utility.yul\":14276:14279   */\n      dup5\n        /* \"#utility.yul\":14267:14273   */\n      dup5\n        /* \"#utility.yul\":14262:14265   */\n      dup5\n        /* \"#utility.yul\":14258:14274   */\n      add\n        /* \"#utility.yul\":14255:14280   */\n      gt\n        /* \"#utility.yul\":14252:14364   */\n      iszero\n      tag_281\n      jumpi\n        /* \"#utility.yul\":14283:14362   */\n      tag_282\n      tag_154\n      jump\t// in\n    tag_282:\n        /* \"#utility.yul\":14252:14364   */\n    tag_281:\n        /* \"#utility.yul\":14373:14427   */\n      tag_283\n        /* \"#utility.yul\":14420:14426   */\n      dup5\n        /* \"#utility.yul\":14415:14418   */\n      dup3\n        /* \"#utility.yul\":14410:14413   */\n      dup6\n        /* \"#utility.yul\":14373:14427   */\n      tag_159\n      jump\t// in\n    tag_283:\n        /* \"#utility.yul\":14092:14433   */\n      pop\n        /* \"#utility.yul\":14008:14433   */\n      swap4\n      swap3\n      pop\n      pop\n      pop\n      jump\t// out\n        /* \"#utility.yul\":14453:14793   */\n    tag_161:\n        /* \"#utility.yul\":14509:14514   */\n      0x00\n        /* \"#utility.yul\":14558:14561   */\n      dup3\n        /* \"#utility.yul\":14551:14555   */\n      0x1f\n        /* \"#utility.yul\":14543:14549   */\n      dup4\n        /* \"#utility.yul\":14539:14556   */\n      add\n        /* \"#utility.yul\":14535:14562   */\n      slt\n        /* \"#utility.yul\":14525:14647   */\n      tag_285\n      jumpi\n        /* \"#utility.yul\":14566:14645   */\n      tag_286\n      tag_153\n      jump\t// in\n    tag_286:\n        /* \"#utility.yul\":14525:14647   */\n    tag_285:\n        /* \"#utility.yul\":14683:14689   */\n      dup2\n        /* \"#utility.yul\":14670:14690   */\n      calldataload\n        /* \"#utility.yul\":14708:14787   */\n      tag_287\n        /* \"#utility.yul\":14783:14786   */\n      dup5\n        /* \"#utility.yul\":14775:14781   */\n      dup3\n        /* \"#utility.yul\":14768:14772   */\n      0x20\n        /* \"#utility.yul\":14760:14766   */\n      dup7\n        /* \"#utility.yul\":14756:14773   */\n      add\n        /* \"#utility.yul\":14708:14787   */\n      tag_160\n      jump\t// in\n    tag_287:\n        /* \"#utility.yul\":14699:14787   */\n      swap2\n      pop\n        /* \"#utility.yul\":14515:14793   */\n      pop\n        /* \"#utility.yul\":14453:14793   */\n      swap3\n      swap2\n      pop\n      pop\n      jump\t// out\n        /* \"#utility.yul\":14799:14917   */\n    tag_162:\n        /* \"#utility.yul\":14870:14892   */\n      tag_289\n        /* \"#utility.yul\":14886:14891   */\n      dup2\n        /* \"#utility.yul\":14870:14892   */\n      tag_145\n      jump\t// in\n    tag_289:\n        /* \"#utility.yul\":14863:14868   */\n      dup2\n        /* \"#utility.yul\":14860:14893   */\n      eq\n        /* \"#utility.yul\":14850:14911   */\n      tag_290\n      jumpi\n        /* \"#utility.yul\":14907:14908   */\n      0x00\n        /* \"#utility.yul\":14904:14905   */\n      0x00\n        /* \"#utility.yul\":14897:14909   */\n      revert\n        /* \"#utility.yul\":14850:14911   */\n    tag_290:\n        /* \"#utility.yul\":14799:14917   */\n      pop\n      jump\t// out\n        /* \"#utility.yul\":14923:15058   */\n    tag_163:\n        /* \"#utility.yul\":14967:14972   */\n      0x00\n        /* \"#utility.yul\":15005:15011   */\n      dup2\n        /* \"#utility.yul\":14992:15012   */\n      calldataload\n        /* \"#utility.yul\":14983:15012   */\n      swap1\n      pop\n        /* \"#utility.yul\":15021:15052   */\n      tag_292\n        /* \"#utility.yul\":15046:15051   */\n      dup2\n        /* \"#utility.yul\":15021:15052   */\n      tag_162\n      jump\t// in\n    tag_292:\n        /* \"#utility.yul\":14923:15058   */\n      swap3\n      swap2\n      pop\n      pop\n      jump\t// out\n        /* \"#utility.yul\":15064:17635   */\n    tag_14:\n        /* \"#utility.yul\":15253:15259   */\n      0x00\n        /* \"#utility.yul\":15261:15267   */\n      0x00\n        /* \"#utility.yul\":15269:15275   */\n      0x00\n        /* \"#utility.yul\":15277:15283   */\n      0x00\n        /* \"#utility.yul\":15285:15291   */\n      0x00\n        /* \"#utility.yul\":15293:15299   */\n      0x00\n        /* \"#utility.yul\":15301:15307   */\n      0x00\n        /* \"#utility.yul\":15309:15315   */\n      0x00\n        /* \"#utility.yul\":15317:15323   */\n      0x00\n        /* \"#utility.yul\":15366:15369   */\n      0x0120\n        /* \"#utility.yul\":15354:15363   */\n      dup11\n        /* \"#utility.yul\":15345:15352   */\n      dup13\n        /* \"#utility.yul\":15341:15364   */\n      sub\n        /* \"#utility.yul\":15337:15370   */\n      slt\n        /* \"#utility.yul\":15334:15454   */\n      iszero\n      tag_294\n      jumpi\n        /* \"#utility.yul\":15373:15452   */\n      tag_295\n      tag_129\n      jump\t// in\n    tag_295:\n        /* \"#utility.yul\":15334:15454   */\n    tag_294:\n        /* \"#utility.yul\":15493:15494   */\n      0x00\n        /* \"#utility.yul\":15518:15571   */\n      tag_296\n        /* \"#utility.yul\":15563:15570   */\n      dup13\n        /* \"#utility.yul\":15554:15560   */\n      dup3\n        /* \"#utility.yul\":15543:15552   */\n      dup14\n        /* \"#utility.yul\":15539:15561   */\n      add\n        /* \"#utility.yul\":15518:15571   */\n      tag_133\n      jump\t// in\n    tag_296:\n        /* \"#utility.yul\":15508:15571   */\n      swap10\n      pop\n        /* \"#utility.yul\":15464:15581   */\n      pop\n        /* \"#utility.yul\":15648:15650   */\n      0x20\n        /* \"#utility.yul\":15637:15646   */\n      dup11\n        /* \"#utility.yul\":15633:15651   */\n      add\n        /* \"#utility.yul\":15620:15652   */\n      calldataload\n        /* \"#utility.yul\":15679:15697   */\n      0xffffffffffffffff\n        /* \"#utility.yul\":15671:15677   */\n      dup2\n        /* \"#utility.yul\":15668:15698   */\n      gt\n        /* \"#utility.yul\":15665:15782   */\n      iszero\n      tag_297\n      jumpi\n        /* \"#utility.yul\":15701:15780   */\n      tag_298\n      tag_130\n      jump\t// in\n    tag_298:\n        /* \"#utility.yul\":15665:15782   */\n    tag_297:\n        /* \"#utility.yul\":15806:15869   */\n      tag_299\n        /* \"#utility.yul\":15861:15868   */\n      dup13\n        /* \"#utility.yul\":15852:15858   */\n      dup3\n        /* \"#utility.yul\":15841:15850   */\n      dup14\n        /* \"#utility.yul\":15837:15859   */\n      add\n        /* \"#utility.yul\":15806:15869   */\n      tag_161\n      jump\t// in\n    tag_299:\n        /* \"#utility.yul\":15796:15869   */\n      swap9\n      pop\n        /* \"#utility.yul\":15591:15879   */\n      pop\n        /* \"#utility.yul\":15918:15920   */\n      0x40\n        /* \"#utility.yul\":15944:15995   */\n      tag_300\n        /* \"#utility.yul\":15987:15994   */\n      dup13\n        /* \"#utility.yul\":15978:15984   */\n      dup3\n        /* \"#utility.yul\":15967:15976   */\n      dup14\n        /* \"#utility.yul\":15963:15985   */\n      add\n        /* \"#utility.yul\":15944:15995   */\n      tag_163\n      jump\t// in\n    tag_300:\n        /* \"#utility.yul\":15934:15995   */\n      swap8\n      pop\n        /* \"#utility.yul\":15889:16005   */\n      pop\n        /* \"#utility.yul\":16072:16074   */\n      0x60\n        /* \"#utility.yul\":16061:16070   */\n      dup11\n        /* \"#utility.yul\":16057:16075   */\n      add\n        /* \"#utility.yul\":16044:16076   */\n      calldataload\n        /* \"#utility.yul\":16103:16121   */\n      0xffffffffffffffff\n        /* \"#utility.yul\":16095:16101   */\n      dup2\n        /* \"#utility.yul\":16092:16122   */\n      gt\n        /* \"#utility.yul\":16089:16206   */\n      iszero\n      tag_301\n      jumpi\n        /* \"#utility.yul\":16125:16204   */\n      tag_302\n      tag_130\n      jump\t// in\n    tag_302:\n        /* \"#utility.yul\":16089:16206   */\n    tag_301:\n        /* \"#utility.yul\":16230:16293   */\n      tag_303\n        /* \"#utility.yul\":16285:16292   */\n      dup13\n        /* \"#utility.yul\":16276:16282   */\n      dup3\n        /* \"#utility.yul\":16265:16274   */\n      dup14\n        /* \"#utility.yul\":16261:16283   */\n      add\n        /* \"#utility.yul\":16230:16293   */\n      tag_161\n      jump\t// in\n    tag_303:\n        /* \"#utility.yul\":16220:16293   */\n      swap7\n      pop\n        /* \"#utility.yul\":16015:16303   */\n      pop\n        /* \"#utility.yul\":16370:16373   */\n      0x80\n        /* \"#utility.yul\":16359:16368   */\n      dup11\n        /* \"#utility.yul\":16355:16374   */\n      add\n        /* \"#utility.yul\":16342:16375   */\n      calldataload\n        /* \"#utility.yul\":16402:16420   */\n      0xffffffffffffffff\n        /* \"#utility.yul\":16394:16400   */\n      dup2\n        /* \"#utility.yul\":16391:16421   */\n      gt\n        /* \"#utility.yul\":16388:16505   */\n      iszero\n      tag_304\n      jumpi\n        /* \"#utility.yul\":16424:16503   */\n      tag_305\n      tag_130\n      jump\t// in\n    tag_305:\n        /* \"#utility.yul\":16388:16505   */\n    tag_304:\n        /* \"#utility.yul\":16529:16592   */\n      tag_306\n        /* \"#utility.yul\":16584:16591   */\n      dup13\n        /* \"#utility.yul\":16575:16581   */\n      dup3\n        /* \"#utility.yul\":16564:16573   */\n      dup14\n        /* \"#utility.yul\":16560:16582   */\n      add\n        /* \"#utility.yul\":16529:16592   */\n      tag_161\n      jump\t// in\n    tag_306:\n        /* \"#utility.yul\":16519:16592   */\n      swap6\n      pop\n        /* \"#utility.yul\":16313:16602   */\n      pop\n        /* \"#utility.yul\":16669:16672   */\n      0xa0\n        /* \"#utility.yul\":16658:16667   */\n      dup11\n        /* \"#utility.yul\":16654:16673   */\n      add\n        /* \"#utility.yul\":16641:16674   */\n      calldataload\n        /* \"#utility.yul\":16701:16719   */\n      0xffffffffffffffff\n        /* \"#utility.yul\":16693:16699   */\n      dup2\n        /* \"#utility.yul\":16690:16720   */\n      gt\n        /* \"#utility.yul\":16687:16804   */\n      iszero\n      tag_307\n      jumpi\n        /* \"#utility.yul\":16723:16802   */\n      tag_308\n      tag_130\n      jump\t// in\n    tag_308:\n        /* \"#utility.yul\":16687:16804   */\n    tag_307:\n        /* \"#utility.yul\":16828:16891   */\n      tag_309\n        /* \"#utility.yul\":16883:16890   */\n      dup13\n        /* \"#utility.yul\":16874:16880   */\n      dup3\n        /* \"#utility.yul\":16863:16872   */\n      dup14\n        /* \"#utility.yul\":16859:16881   */\n      add\n        /* \"#utility.yul\":16828:16891   */\n      tag_161\n      jump\t// in\n    tag_309:\n        /* \"#utility.yul\":16818:16891   */\n      swap5\n      pop\n        /* \"#utility.yul\":16612:16901   */\n      pop\n        /* \"#utility.yul\":16968:16971   */\n      0xc0\n        /* \"#utility.yul\":16957:16966   */\n      dup11\n        /* \"#utility.yul\":16953:16972   */\n      add\n        /* \"#utility.yul\":16940:16973   */\n      calldataload\n        /* \"#utility.yul\":17000:17018   */\n      0xffffffffffffffff\n        /* \"#utility.yul\":16992:16998   */\n      dup2\n        /* \"#utility.yul\":16989:17019   */\n      gt\n        /* \"#utility.yul\":16986:17103   */\n      iszero\n      tag_310\n      jumpi\n        /* \"#utility.yul\":17022:17101   */\n      tag_311\n      tag_130\n      jump\t// in\n    tag_311:\n        /* \"#utility.yul\":16986:17103   */\n    tag_310:\n        /* \"#utility.yul\":17127:17190   */\n      tag_312\n        /* \"#utility.yul\":17182:17189   */\n      dup13\n        /* \"#utility.yul\":17173:17179   */\n      dup3\n        /* \"#utility.yul\":17162:17171   */\n      dup14\n        /* \"#utility.yul\":17158:17180   */\n      add\n        /* \"#utility.yul\":17127:17190   */\n      tag_161\n      jump\t// in\n    tag_312:\n        /* \"#utility.yul\":17117:17190   */\n      swap4\n      pop\n        /* \"#utility.yul\":16911:17200   */\n      pop\n        /* \"#utility.yul\":17239:17242   */\n      0xe0\n        /* \"#utility.yul\":17266:17319   */\n      tag_313\n        /* \"#utility.yul\":17311:17318   */\n      dup13\n        /* \"#utility.yul\":17302:17308   */\n      dup3\n        /* \"#utility.yul\":17291:17300   */\n      dup14\n        /* \"#utility.yul\":17287:17309   */\n      add\n        /* \"#utility.yul\":17266:17319   */\n      tag_133\n      jump\t// in\n    tag_313:\n        /* \"#utility.yul\":17256:17319   */\n      swap3\n      pop\n        /* \"#utility.yul\":17210:17329   */\n      pop\n        /* \"#utility.yul\":17396:17399   */\n      0x0100\n        /* \"#utility.yul\":17385:17394   */\n      dup11\n        /* \"#utility.yul\":17381:17400   */\n      add\n        /* \"#utility.yul\":17368:17401   */\n      calldataload\n        /* \"#utility.yul\":17428:17446   */\n      0xffffffffffffffff\n        /* \"#utility.yul\":17420:17426   */\n      dup2\n        /* \"#utility.yul\":17417:17447   */\n      gt\n        /* \"#utility.yul\":17414:17531   */\n      iszero\n      tag_314\n      jumpi\n        /* \"#utility.yul\":17450:17529   */\n      tag_315\n      tag_130\n      jump\t// in\n    tag_315:\n        /* \"#utility.yul\":17414:17531   */\n    tag_314:\n        /* \"#utility.yul\":17555:17618   */\n      tag_316\n        /* \"#utility.yul\":17610:17617   */\n      dup13\n        /* \"#utility.yul\":17601:17607   */\n      dup3\n        /* \"#utility.yul\":17590:17599   */\n      dup14\n        /* \"#utility.yul\":17586:17608   */\n      add\n        /* \"#utility.yul\":17555:17618   */\n      tag_161\n      jump\t// in\n    tag_316:\n        /* \"#utility.yul\":17545:17618   */\n      swap2\n      pop\n        /* \"#utility.yul\":17339:17628   */\n      pop\n        /* \"#utility.yul\":15064:17635   */\n      swap3\n      swap6\n      swap9\n      pop\n      swap3\n      swap6\n      swap9\n      pop\n      swap3\n      swap6\n      swap9\n      jump\t// out\n        /* \"#utility.yul\":17641:20028   */\n    tag_18:\n        /* \"#utility.yul\":17818:17824   */\n      0x00\n        /* \"#utility.yul\":17826:17832   */\n      0x00\n        /* \"#utility.yul\":17834:17840   */\n      0x00\n        /* \"#utility.yul\":17842:17848   */\n      0x00\n        /* \"#utility.yul\":17850:17856   */\n      0x00\n        /* \"#utility.yul\":17858:17864   */\n      0x00\n        /* \"#utility.yul\":17866:17872   */\n      0x00\n        /* \"#utility.yul\":17874:17880   */\n      0x00\n        /* \"#utility.yul\":17882:17888   */\n      0x00\n        /* \"#utility.yul\":17931:17934   */\n      0x0120\n        /* \"#utility.yul\":17919:17928   */\n      dup11\n        /* \"#utility.yul\":17910:17917   */\n      dup13\n        /* \"#utility.yul\":17906:17929   */\n      sub\n        /* \"#utility.yul\":17902:17935   */\n      slt\n        /* \"#utility.yul\":17899:18019   */\n      iszero\n      tag_318\n      jumpi\n        /* \"#utility.yul\":17938:18017   */\n      tag_319\n      tag_129\n      jump\t// in\n    tag_319:\n        /* \"#utility.yul\":17899:18019   */\n    tag_318:\n        /* \"#utility.yul\":18058:18059   */\n      0x00\n        /* \"#utility.yul\":18083:18136   */\n      tag_320\n        /* \"#utility.yul\":18128:18135   */\n      dup13\n        /* \"#utility.yul\":18119:18125   */\n      dup3\n        /* \"#utility.yul\":18108:18117   */\n      dup14\n        /* \"#utility.yul\":18104:18126   */\n      add\n        /* \"#utility.yul\":18083:18136   */\n      tag_133\n      jump\t// in\n    tag_320:\n        /* \"#utility.yul\":18073:18136   */\n      swap10\n      pop\n        /* \"#utility.yul\":18029:18146   */\n      pop\n        /* \"#utility.yul\":18213:18215   */\n      0x20\n        /* \"#utility.yul\":18202:18211   */\n      dup11\n        /* \"#utility.yul\":18198:18216   */\n      add\n        /* \"#utility.yul\":18185:18217   */\n      calldataload\n        /* \"#utility.yul\":18244:18262   */\n      0xffffffffffffffff\n        /* \"#utility.yul\":18236:18242   */\n      dup2\n        /* \"#utility.yul\":18233:18263   */\n      gt\n        /* \"#utility.yul\":18230:18347   */\n      iszero\n      tag_321\n      jumpi\n        /* \"#utility.yul\":18266:18345   */\n      tag_322\n      tag_130\n      jump\t// in\n    tag_322:\n        /* \"#utility.yul\":18230:18347   */\n    tag_321:\n        /* \"#utility.yul\":18371:18434   */\n      tag_323\n        /* \"#utility.yul\":18426:18433   */\n      dup13\n        /* \"#utility.yul\":18417:18423   */\n      dup3\n        /* \"#utility.yul\":18406:18415   */\n      dup14\n        /* \"#utility.yul\":18402:18424   */\n      add\n        /* \"#utility.yul\":18371:18434   */\n      tag_161\n      jump\t// in\n    tag_323:\n        /* \"#utility.yul\":18361:18434   */\n      swap9\n      pop\n        /* \"#utility.yul\":18156:18444   */\n      pop\n        /* \"#utility.yul\":18483:18485   */\n      0x40\n        /* \"#utility.yul\":18509:18560   */\n      tag_324\n        /* \"#utility.yul\":18552:18559   */\n      dup13\n        /* \"#utility.yul\":18543:18549   */\n      dup3\n        /* \"#utility.yul\":18532:18541   */\n      dup14\n        /* \"#utility.yul\":18528:18550   */\n      add\n        /* \"#utility.yul\":18509:18560   */\n      tag_163\n      jump\t// in\n    tag_324:\n        /* \"#utility.yul\":18499:18560   */\n      swap8\n      pop\n        /* \"#utility.yul\":18454:18570   */\n      pop\n        /* \"#utility.yul\":18637:18639   */\n      0x60\n        /* \"#utility.yul\":18626:18635   */\n      dup11\n        /* \"#utility.yul\":18622:18640   */\n      add\n        /* \"#utility.yul\":18609:18641   */\n      calldataload\n        /* \"#utility.yul\":18668:18686   */\n      0xffffffffffffffff\n        /* \"#utility.yul\":18660:18666   */\n      dup2\n        /* \"#utility.yul\":18657:18687   */\n      gt\n        /* \"#utility.yul\":18654:18771   */\n      iszero\n      tag_325\n      jumpi\n        /* \"#utility.yul\":18690:18769   */\n      tag_326\n      tag_130\n      jump\t// in\n    tag_326:\n        /* \"#utility.yul\":18654:18771   */\n    tag_325:\n        /* \"#utility.yul\":18795:18858   */\n      tag_327\n        /* \"#utility.yul\":18850:18857   */\n      dup13\n        /* \"#utility.yul\":18841:18847   */\n      dup3\n        /* \"#utility.yul\":18830:18839   */\n      dup14\n        /* \"#utility.yul\":18826:18848   */\n      add\n        /* \"#utility.yul\":18795:18858   */\n      tag_161\n      jump\t// in\n    tag_327:\n        /* \"#utility.yul\":18785:18858   */\n      swap7\n      pop\n        /* \"#utility.yul\":18580:18868   */\n      pop\n        /* \"#utility.yul\":18935:18938   */\n      0x80\n        /* \"#utility.yul\":18924:18933   */\n      dup11\n        /* \"#utility.yul\":18920:18939   */\n      add\n        /* \"#utility.yul\":18907:18940   */\n      calldataload\n        /* \"#utility.yul\":18967:18985   */\n      0xffffffffffffffff\n        /* \"#utility.yul\":18959:18965   */\n      dup2\n        /* \"#utility.yul\":18956:18986   */\n      gt\n        /* \"#utility.yul\":18953:19070   */\n      iszero\n      tag_328\n      jumpi\n        /* \"#utility.yul\":18989:19068   */\n      tag_329\n      tag_130\n      jump\t// in\n    tag_329:\n        /* \"#utility.yul\":18953:19070   */\n    tag_328:\n        /* \"#utility.yul\":19094:19157   */\n      tag_330\n        /* \"#utility.yul\":19149:19156   */\n      dup13\n        /* \"#utility.yul\":19140:19146   */\n      dup3\n        /* \"#utility.yul\":19129:19138   */\n      dup14\n        /* \"#utility.yul\":19125:19147   */\n      add\n        /* \"#utility.yul\":19094:19157   */\n      tag_161\n      jump\t// in\n    tag_330:\n        /* \"#utility.yul\":19084:19157   */\n      swap6\n      pop\n        /* \"#utility.yul\":18878:19167   */\n      pop\n        /* \"#utility.yul\":19234:19237   */\n      0xa0\n        /* \"#utility.yul\":19223:19232   */\n      dup11\n        /* \"#utility.yul\":19219:19238   */\n      add\n        /* \"#utility.yul\":19206:19239   */\n      calldataload\n        /* \"#utility.yul\":19266:19284   */\n      0xffffffffffffffff\n        /* \"#utility.yul\":19258:19264   */\n      dup2\n        /* \"#utility.yul\":19255:19285   */\n      gt\n        /* \"#utility.yul\":19252:19369   */\n      iszero\n      tag_331\n      jumpi\n        /* \"#utility.yul\":19288:19367   */\n      tag_332\n      tag_130\n      jump\t// in\n    tag_332:\n        /* \"#utility.yul\":19252:19369   */\n    tag_331:\n        /* \"#utility.yul\":19393:19456   */\n      tag_333\n        /* \"#utility.yul\":19448:19455   */\n      dup13\n        /* \"#utility.yul\":19439:19445   */\n      dup3\n        /* \"#utility.yul\":19428:19437   */\n      dup14\n        /* \"#utility.yul\":19424:19446   */\n      add\n        /* \"#utility.yul\":19393:19456   */\n      tag_161\n      jump\t// in\n    tag_333:\n        /* \"#utility.yul\":19383:19456   */\n      swap5\n      pop\n        /* \"#utility.yul\":19177:19466   */\n      pop\n        /* \"#utility.yul\":19533:19536   */\n      0xc0\n        /* \"#utility.yul\":19522:19531   */\n      dup11\n        /* \"#utility.yul\":19518:19537   */\n      add\n        /* \"#utility.yul\":19505:19538   */\n      calldataload\n        /* \"#utility.yul\":19565:19583   */\n      0xffffffffffffffff\n        /* \"#utility.yul\":19557:19563   */\n      dup2\n        /* \"#utility.yul\":19554:19584   */\n      gt\n        /* \"#utility.yul\":19551:19668   */\n      iszero\n      tag_334\n      jumpi\n        /* \"#utility.yul\":19587:19666   */\n      tag_335\n      tag_130\n      jump\t// in\n    tag_335:\n        /* \"#utility.yul\":19551:19668   */\n    tag_334:\n        /* \"#utility.yul\":19692:19755   */\n      tag_336\n        /* \"#utility.yul\":19747:19754   */\n      dup13\n        /* \"#utility.yul\":19738:19744   */\n      dup3\n        /* \"#utility.yul\":19727:19736   */\n      dup14\n        /* \"#utility.yul\":19723:19745   */\n      add\n        /* \"#utility.yul\":19692:19755   */\n      tag_161\n      jump\t// in\n    tag_336:\n        /* \"#utility.yul\":19682:19755   */\n      swap4\n      pop\n        /* \"#utility.yul\":19476:19765   */\n      pop\n        /* \"#utility.yul\":19804:19807   */\n      0xe0\n        /* \"#utility.yul\":19831:19884   */\n      tag_337\n        /* \"#utility.yul\":19876:19883   */\n      dup13\n        /* \"#utility.yul\":19867:19873   */\n      dup3\n        /* \"#utility.yul\":19856:19865   */\n      dup14\n        /* \"#utility.yul\":19852:19874   */\n      add\n        /* \"#utility.yul\":19831:19884   */\n      tag_133\n      jump\t// in\n    tag_337:\n        /* \"#utility.yul\":19821:19884   */\n      swap3\n      pop\n        /* \"#utility.yul\":19775:19894   */\n      pop\n        /* \"#utility.yul\":19933:19936   */\n      0x0100\n        /* \"#utility.yul\":19960:20011   */\n      tag_338\n        /* \"#utility.yul\":20003:20010   */\n      dup13\n        /* \"#utility.yul\":19994:20000   */\n      dup3\n        /* \"#utility.yul\":19983:19992   */\n      dup14\n        /* \"#utility.yul\":19979:20001   */\n      add\n        /* \"#utility.yul\":19960:20011   */\n      tag_163\n      jump\t// in\n    tag_338:\n        /* \"#utility.yul\":19950:20011   */\n      swap2\n      pop\n        /* \"#utility.yul\":19904:20021   */\n      pop\n        /* \"#utility.yul\":17641:20028   */\n      swap3\n      swap6\n      swap9\n      pop\n      swap3\n      swap6\n      swap9\n      pop\n      swap3\n      swap6\n      swap9\n      jump\t// out\n        /* \"#utility.yul\":20034:20214   */\n    tag_164:\n        /* \"#utility.yul\":20082:20159   */\n      0x4e487b7100000000000000000000000000000000000000000000000000000000\n        /* \"#utility.yul\":20079:20080   */\n      0x00\n        /* \"#utility.yul\":20072:20160   */\n      mstore\n        /* \"#utility.yul\":20179:20183   */\n      0x22\n        /* \"#utility.yul\":20176:20177   */\n      0x04\n        /* \"#utility.yul\":20169:20184   */\n      mstore\n        /* \"#utility.yul\":20203:20207   */\n      0x24\n        /* \"#utility.yul\":20200:20201   */\n      0x00\n        /* \"#utility.yul\":20193:20208   */\n      revert\n        /* \"#utility.yul\":20220:20540   */\n    tag_21:\n        /* \"#utility.yul\":20264:20270   */\n      0x00\n        /* \"#utility.yul\":20301:20302   */\n      0x02\n        /* \"#utility.yul\":20295:20299   */\n      dup3\n        /* \"#utility.yul\":20291:20303   */\n      div\n        /* \"#utility.yul\":20281:20303   */\n      swap1\n      pop\n        /* \"#utility.yul\":20348:20349   */\n      0x01\n        /* \"#utility.yul\":20342:20346   */\n      dup3\n        /* \"#utility.yul\":20338:20350   */\n      and\n        /* \"#utility.yul\":20369:20387   */\n      dup1\n        /* \"#utility.yul\":20359:20440   */\n      tag_341\n      jumpi\n        /* \"#utility.yul\":20425:20429   */\n      0x7f\n        /* \"#utility.yul\":20417:20423   */\n      dup3\n        /* \"#utility.yul\":20413:20430   */\n      and\n        /* \"#utility.yul\":20403:20430   */\n      swap2\n      pop\n        /* \"#utility.yul\":20359:20440   */\n    tag_341:\n        /* \"#utility.yul\":20487:20489   */\n      0x20\n        /* \"#utility.yul\":20479:20485   */\n      dup3\n        /* \"#utility.yul\":20476:20490   */\n      lt\n        /* \"#utility.yul\":20456:20474   */\n      dup2\n        /* \"#utility.yul\":20453:20491   */\n      sub\n        /* \"#utility.yul\":20450:20534   */\n      tag_342\n      jumpi\n        /* \"#utility.yul\":20506:20524   */\n      tag_343\n      tag_164\n      jump\t// in\n    tag_343:\n        /* \"#utility.yul\":20450:20534   */\n    tag_342:\n        /* \"#utility.yul\":20271:20540   */\n      pop\n        /* \"#utility.yul\":20220:20540   */\n      swap2\n      swap1\n      pop\n      jump\t// out\n        /* \"#utility.yul\":20546:20726   */\n    tag_165:\n        /* \"#utility.yul\":20594:20671   */\n      0x4e487b7100000000000000000000000000000000000000000000000000000000\n        /* \"#utility.yul\":20591:20592   */\n      0x00\n        /* \"#utility.yul\":20584:20672   */\n      mstore\n        /* \"#utility.yul\":20691:20695   */\n      0x11\n        /* \"#utility.yul\":20688:20689   */\n      0x04\n        /* \"#utility.yul\":20681:20696   */\n      mstore\n        /* \"#utility.yul\":20715:20719   */\n      0x24\n        /* \"#utility.yul\":20712:20713   */\n      0x00\n        /* \"#utility.yul\":20705:20720   */\n      revert\n        /* \"#utility.yul\":20732:20965   */\n    tag_103:\n        /* \"#utility.yul\":20771:20774   */\n      0x00\n        /* \"#utility.yul\":20794:20818   */\n      tag_346\n        /* \"#utility.yul\":20812:20817   */\n      dup3\n        /* \"#utility.yul\":20794:20818   */\n      tag_131\n      jump\t// in\n    tag_346:\n        /* \"#utility.yul\":20785:20818   */\n      swap2\n      pop\n        /* \"#utility.yul\":20840:20906   */\n      0xffffffffffffffffffffffffffffffffffffffffffffffffffffffffffffffff\n        /* \"#utility.yul\":20833:20838   */\n      dup3\n        /* \"#utility.yul\":20830:20907   */\n      sub\n        /* \"#utility.yul\":20827:20930   */\n      tag_347\n      jumpi\n        /* \"#utility.yul\":20910:20928   */\n      tag_348\n      tag_165\n      jump\t// in\n    tag_348:\n        /* \"#utility.yul\":20827:20930   */\n    tag_347:\n        /* \"#utility.yul\":20957:20958   */\n      0x01\n        /* \"#utility.yul\":20950:20955   */\n      dup3\n        /* \"#utility.yul\":20946:20959   */\n      add\n        /* \"#utility.yul\":20939:20959   */\n      swap1\n      pop\n        /* \"#utility.yul\":20732:20965   */\n      swap2\n      swap1\n      pop\n      jump\t// out\n        /* \"#utility.yul\":20971:21112   */\n    tag_166:\n        /* \"#utility.yul\":21020:21024   */\n      0x00\n        /* \"#utility.yul\":21043:21046   */\n      dup2\n        /* \"#utility.yul\":21035:21046   */\n      swap1\n      pop\n        /* \"#utility.yul\":21066:21069   */\n      dup2\n        /* \"#utility.yul\":21063:21064   */\n      0x00\n        /* \"#utility.yul\":21056:21070   */\n      mstore\n        /* \"#utility.yul\":21100:21104   */\n      0x20\n        /* \"#utility.yul\":21097:21098   */\n      0x00\n        /* \"#utility.yul\":21087:21105   */\n      keccak256\n        /* \"#utility.yul\":21079:21105   */\n      swap1\n      pop\n        /* \"#utility.yul\":20971:21112   */\n      swap2\n      swap1\n      pop\n      jump\t// out\n        /* \"#utility.yul\":21118:21211   */\n    tag_167:\n        /* \"#utility.yul\":21155:21161   */\n      0x00\n        /* \"#utility.yul\":21202:21204   */\n      0x20\n        /* \"#utility.yul\":21197:21199   */\n      0x1f\n        /* \"#utility.yul\":21190:21195   */\n      dup4\n        /* \"#utility.yul\":21186:21200   */\n      add\n        /* \"#utility.yul\":21182:21205   */\n      div\n        /* \"#utility.yul\":21172:21205   */\n      swap1\n      pop\n        /* \"#utility.yul\":21118:21211   */\n      swap2\n      swap1\n      pop\n      jump\t// out\n        /* \"#utility.yul\":21217:21324   */\n    tag_168:\n        /* \"#utility.yul\":21261:21269   */\n      0x00\n        /* \"#utility.yul\":21311:21316   */\n      dup3\n        /* \"#utility.yul\":21305:21309   */\n      dup3\n        /* \"#utility.yul\":21301:21317   */\n      shl\n        /* \"#utility.yul\":21280:21317   */\n      swap1\n      pop\n        /* \"#utility.yul\":21217:21324   */\n      swap3\n      swap2\n      pop\n      pop\n      jump\t// out\n        /* \"#utility.yul\":21330:21723   */\n    tag_169:\n        /* \"#utility.yul\":21399:21405   */\n      0x00\n        /* \"#utility.yul\":21449:21450   */\n      0x08\n        /* \"#utility.yul\":21437:21447   */\n      dup4\n        /* \"#utility.yul\":21433:21451   */\n      mul\n        /* \"#utility.yul\":21472:21569   */\n      tag_353\n        /* \"#utility.yul\":21502:21568   */\n      0xffffffffffffffffffffffffffffffffffffffffffffffffffffffffffffffff\n        /* \"#utility.yul\":21491:21500   */\n      dup3\n        /* \"#utility.yul\":21472:21569   */\n      tag_168\n      jump\t// in\n    tag_353:\n        /* \"#utility.yul\":21590:21629   */\n      tag_354\n        /* \"#utility.yul\":21620:21628   */\n      dup7\n        /* \"#utility.yul\":21609:21618   */\n      dup4\n        /* \"#utility.yul\":21590:21629   */\n      tag_168\n      jump\t// in\n    tag_354:\n        /* \"#utility.yul\":21578:21629   */\n      swap6\n      pop\n        /* \"#utility.yul\":21662:21666   */\n      dup1\n        /* \"#utility.yul\":21658:21667   */\n      not\n        /* \"#utility.yul\":21651:21656   */\n      dup5\n        /* \"#utility.yul\":21647:21668   */\n      and\n        /* \"#utility.yul\":21638:21668   */\n      swap4\n      pop\n        /* \"#utility.yul\":21711:21715   */\n      dup1\n        /* \"#utility.yul\":21701:21709   */\n      dup7\n        /* \"#utility.yul\":21697:21716   */\n      and\n        /* \"#utility.yul\":21690:21695   */\n      dup5\n        /* \"#utility.yul\":21687:21717   */\n      or\n        /* \"#utility.yul\":21677:21717   */\n      swap3\n      pop\n        /* \"#utility.yul\":21406:21723   */\n      pop\n      pop\n        /* \"#utility.yul\":21330:21723   */\n      swap4\n      swap3\n      pop\n      pop\n      pop\n      jump\t// out\n        /* \"#utility.yul\":21729:21789   */\n    tag_170:\n        /* \"#utility.yul\":21757:21760   */\n      0x00\n        /* \"#utility.yul\":21778:21783   */\n      dup2\n        /* \"#utility.yul\":21771:21783   */\n      swap1\n      pop\n        /* \"#utility.yul\":21729:21789   */\n      swap2\n      swap1\n      pop\n      jump\t// out\n        /* \"#utility.yul\":21795:21937   */\n    tag_171:\n        /* \"#utility.yul\":21845:21854   */\n      0x00\n        /* \"#utility.yul\":21878:21931   */\n      tag_357\n        /* \"#utility.yul\":21896:21930   */\n      tag_358\n        /* \"#utility.yul\":21905:21929   */\n      tag_359\n        /* \"#utility.yul\":21923:21928   */\n      dup5\n        /* \"#utility.yul\":21905:21929   */\n      tag_131\n      jump\t// in\n    tag_359:\n        /* \"#utility.yul\":21896:21930   */\n      tag_170\n      jump\t// in\n    tag_358:\n        /* \"#utility.yul\":21878:21931   */\n      tag_131\n      jump\t// in\n    tag_357:\n        /* \"#utility.yul\":21865:21931   */\n      swap1\n      pop\n        /* \"#utility.yul\":21795:21937   */\n      swap2\n      swap1\n      pop\n      jump\t// out\n        /* \"#utility.yul\":21943:22018   */\n    tag_172:\n        /* \"#utility.yul\":21986:21989   */\n      0x00\n        /* \"#utility.yul\":22007:22012   */\n      dup2\n        /* \"#utility.yul\":22000:22012   */\n      swap1\n      pop\n        /* \"#utility.yul\":21943:22018   */\n      swap2\n      swap1\n      pop\n      jump\t// out\n        /* \"#utility.yul\":22024:22293   */\n    tag_173:\n        /* \"#utility.yul\":22134:22173   */\n      tag_362\n        /* \"#utility.yul\":22165:22172   */\n      dup4\n        /* \"#utility.yul\":22134:22173   */\n      tag_171\n      jump\t// in\n    tag_362:\n        /* \"#utility.yul\":22195:22286   */\n      tag_363\n        /* \"#utility.yul\":22244:22285   */\n      tag_364\n        /* \"#utility.yul\":22268:22284   */\n      dup3\n        /* \"#utility.yul\":22244:22285   */\n      tag_172\n      jump\t// in\n    tag_364:\n        /* \"#utility.yul\":22236:22242   */\n      dup5\n        /* \"#utility.yul\":22229:22233   */\n      dup5\n        /* \"#utility.yul\":22223:22234   */\n      sload\n        /* \"#utility.yul\":22195:22286   */\n      tag_169\n      jump\t// in\n    tag_363:\n        /* \"#utility.yul\":22189:22193   */\n      dup3\n        /* \"#utility.yul\":22182:22287   */\n      sstore\n        /* \"#utility.yul\":22100:22293   */\n      pop\n        /* \"#utility.yul\":22024:22293   */\n      pop\n      pop\n      pop\n      jump\t// out\n        /* \"#utility.yul\":22299:22372   */\n    tag_174:\n        /* \"#utility.yul\":22344:22347   */\n      0x00\n        /* \"#utility.yul\":22365:22366   */\n      0x00\n        /* \"#utility.yul\":22358:22366   */\n      swap1\n      pop\n        /* \"#utility.yul\":22299:22372   */\n      swap1\n      jump\t// out\n        /* \"#utility.yul\":22378:22567   */\n    tag_175:\n        /* \"#utility.yul\":22455:22487   */\n      tag_367\n      tag_174\n      jump\t// in\n    tag_367:\n        /* \"#utility.yul\":22496:22561   */\n      tag_368\n        /* \"#utility.yul\":22554:22560   */\n      dup2\n        /* \"#utility.yul\":22546:22552   */\n      dup5\n        /* \"#utility.yul\":22540:22544   */\n      dup5\n        /* \"#utility.yul\":22496:22561   */\n      tag_173\n      jump\t// in\n    tag_368:\n        /* \"#utility.yul\":22431:22567   */\n      pop\n        /* \"#utility.yul\":22378:22567   */\n      pop\n      pop\n      jump\t// out\n        /* \"#utility.yul\":22573:22759   */\n    tag_176:\n        /* \"#utility.yul\":22633:22753   */\n    tag_370:\n        /* \"#utility.yul\":22650:22653   */\n      dup2\n        /* \"#utility.yul\":22643:22648   */\n      dup2\n        /* \"#utility.yul\":22640:22654   */\n      lt\n        /* \"#utility.yul\":22633:22753   */\n      iszero\n      tag_372\n      jumpi\n        /* \"#utility.yul\":22704:22743   */\n      tag_373\n        /* \"#utility.yul\":22741:22742   */\n      0x00\n        /* \"#utility.yul\":22734:22739   */\n      dup3\n        /* \"#utility.yul\":22704:22743   */\n      tag_175\n      jump\t// in\n    tag_373:\n        /* \"#utility.yul\":22677:22678   */\n      0x01\n        /* \"#utility.yul\":22670:22675   */\n      dup2\n        /* \"#utility.yul\":22666:22679   */\n      add\n        /* \"#utility.yul\":22657:22679   */\n      swap1\n      pop\n        /* \"#utility.yul\":22633:22753   */\n      jump(tag_370)\n    tag_372:\n        /* \"#utility.yul\":22573:22759   */\n      pop\n      pop\n      jump\t// out\n        /* \"#utility.yul\":22765:23308   */\n    tag_177:\n        /* \"#utility.yul\":22866:22868   */\n      0x1f\n        /* \"#utility.yul\":22861:22864   */\n      dup3\n        /* \"#utility.yul\":22858:22869   */\n      gt\n        /* \"#utility.yul\":22855:23301   */\n      iszero\n      tag_375\n      jumpi\n        /* \"#utility.yul\":22900:22938   */\n      tag_376\n        /* \"#utility.yul\":22932:22937   */\n      dup2\n        /* \"#utility.yul\":22900:22938   */\n      tag_166\n      jump\t// in\n    tag_376:\n        /* \"#utility.yul\":22984:23013   */\n      tag_377\n        /* \"#utility.yul\":23002:23012   */\n      dup5\n        /* \"#utility.yul\":22984:23013   */\n      tag_167\n      jump\t// in\n    tag_377:\n        /* \"#utility.yul\":22974:22982   */\n      dup2\n        /* \"#utility.yul\":22970:23014   */\n      add\n        /* \"#utility.yul\":23167:23169   */\n      0x20\n        /* \"#utility.yul\":23155:23165   */\n      dup6\n        /* \"#utility.yul\":23152:23170   */\n      lt\n        /* \"#utility.yul\":23149:23198   */\n      iszero\n      tag_378\n      jumpi\n        /* \"#utility.yul\":23188:23196   */\n      dup2\n        /* \"#utility.yul\":23173:23196   */\n      swap1\n      pop\n        /* \"#utility.yul\":23149:23198   */\n    tag_378:\n        /* \"#utility.yul\":23211:23291   */\n      tag_379\n        /* \"#utility.yul\":23267:23289   */\n      tag_380\n        /* \"#utility.yul\":23285:23288   */\n      dup6\n        /* \"#utility.yul\":23267:23289   */\n      tag_167\n      jump\t// in\n    tag_380:\n        /* \"#utility.yul\":23257:23265   */\n      dup4\n        /* \"#utility.yul\":23253:23290   */\n      add\n        /* \"#utility.yul\":23240:23251   */\n      dup3\n        /* \"#utility.yul\":23211:23291   */\n      tag_176\n      jump\t// in\n    tag_379:\n        /* \"#utility.yul\":22870:23301   */\n      pop\n      pop\n        /* \"#utility.yul\":22855:23301   */\n    tag_375:\n        /* \"#utility.yul\":22765:23308   */\n      pop\n      pop\n      pop\n      jump\t// out\n        /* \"#utility.yul\":23314:23431   */\n    tag_178:\n        /* \"#utility.yul\":23368:23376   */\n      0x00\n        /* \"#utility.yul\":23418:23423   */\n      dup3\n        /* \"#utility.yul\":23412:23416   */\n      dup3\n        /* \"#utility.yul\":23408:23424   */\n      shr\n        /* \"#utility.yul\":23387:23424   */\n      swap1\n      pop\n        /* \"#utility.yul\":23314:23431   */\n      swap3\n      swap2\n      pop\n      pop\n      jump\t// out\n        /* \"#utility.yul\":23437:23606   */\n    tag_179:\n        /* \"#utility.yul\":23481:23487   */\n      0x00\n        /* \"#utility.yul\":23514:23565   */\n      tag_383\n        /* \"#utility.yul\":23562:23563   */\n      0x00\n        /* \"#utility.yul\":23558:23564   */\n      not\n        /* \"#utility.yul\":23550:23555   */\n      dup5\n        /* \"#utility.yul\":23547:23548   */\n      0x08\n        /* \"#utility.yul\":23543:23556   */\n      mul\n        /* \"#utility.yul\":23514:23565   */\n      tag_178\n      jump\t// in\n    tag_383:\n        /* \"#utility.yul\":23510:23566   */\n      not\n        /* \"#utility.yul\":23595:23599   */\n      dup1\n        /* \"#utility.yul\":23589:23593   */\n      dup4\n        /* \"#utility.yul\":23585:23600   */\n      and\n        /* \"#utility.yul\":23575:23600   */\n      swap2\n      pop\n        /* \"#utility.yul\":23488:23606   */\n      pop\n        /* \"#utility.yul\":23437:23606   */\n      swap3\n      swap2\n      pop\n      pop\n      jump\t// out\n        /* \"#utility.yul\":23611:23906   */\n    tag_180:\n        /* \"#utility.yul\":23687:23691   */\n      0x00\n        /* \"#utility.yul\":23833:23862   */\n      tag_385\n        /* \"#utility.yul\":23858:23861   */\n      dup4\n        /* \"#utility.yul\":23852:23856   */\n      dup4\n        /* \"#utility.yul\":23833:23862   */\n      tag_179\n      jump\t// in\n    tag_385:\n        /* \"#utility.yul\":23825:23862   */\n      swap2\n      pop\n        /* \"#utility.yul\":23895:23898   */\n      dup3\n        /* \"#utility.yul\":23892:23893   */\n      0x02\n        /* \"#utility.yul\":23888:23899   */\n      mul\n        /* \"#utility.yul\":23882:23886   */\n      dup3\n        /* \"#utility.yul\":23879:23900   */\n      or\n        /* \"#utility.yul\":23871:23900   */\n      swap1\n      pop\n        /* \"#utility.yul\":23611:23906   */\n      swap3\n      swap2\n      pop\n      pop\n      jump\t// out\n        /* \"#utility.yul\":23911:25306   */\n    tag_112:\n        /* \"#utility.yul\":24028:24065   */\n      tag_387\n        /* \"#utility.yul\":24061:24064   */\n      dup3\n        /* \"#utility.yul\":24028:24065   */\n      tag_140\n      jump\t// in\n    tag_387:\n        /* \"#utility.yul\":24130:24148   */\n      0xffffffffffffffff\n        /* \"#utility.yul\":24122:24128   */\n      dup2\n        /* \"#utility.yul\":24119:24149   */\n      gt\n        /* \"#utility.yul\":24116:24172   */\n      iszero\n      tag_388\n      jumpi\n        /* \"#utility.yul\":24152:24170   */\n      tag_389\n      tag_155\n      jump\t// in\n    tag_389:\n        /* \"#utility.yul\":24116:24172   */\n    tag_388:\n        /* \"#utility.yul\":24196:24234   */\n      tag_390\n        /* \"#utility.yul\":24228:24232   */\n      dup3\n        /* \"#utility.yul\":24222:24233   */\n      sload\n        /* \"#utility.yul\":24196:24234   */\n      tag_21\n      jump\t// in\n    tag_390:\n        /* \"#utility.yul\":24281:24348   */\n      tag_391\n        /* \"#utility.yul\":24341:24347   */\n      dup3\n        /* \"#utility.yul\":24333:24339   */\n      dup3\n        /* \"#utility.yul\":24327:24331   */\n      dup6\n        /* \"#utility.yul\":24281:24348   */\n      tag_177\n      jump\t// in\n    tag_391:\n        /* \"#utility.yul\":24375:24376   */\n      0x00\n        /* \"#utility.yul\":24399:24403   */\n      0x20\n        /* \"#utility.yul\":24386:24403   */\n      swap1\n      pop\n        /* \"#utility.yul\":24431:24433   */\n      0x1f\n        /* \"#utility.yul\":24423:24429   */\n      dup4\n        /* \"#utility.yul\":24420:24434   */\n      gt\n        /* \"#utility.yul\":24448:24449   */\n      0x01\n        /* \"#utility.yul\":24443:25061   */\n      dup2\n      eq\n      tag_393\n      jumpi\n        /* \"#utility.yul\":25105:25106   */\n      0x00\n        /* \"#utility.yul\":25122:25128   */\n      dup5\n        /* \"#utility.yul\":25119:25196   */\n      iszero\n      tag_394\n      jumpi\n        /* \"#utility.yul\":25171:25180   */\n      dup3\n        /* \"#utility.yul\":25166:25169   */\n      dup8\n        /* \"#utility.yul\":25162:25181   */\n      add\n        /* \"#utility.yul\":25156:25182   */\n      mload\n        /* \"#utility.yul\":25147:25182   */\n      swap1\n      pop\n        /* \"#utility.yul\":25119:25196   */\n    tag_394:\n        /* \"#utility.yul\":25222:25289   */\n      tag_395\n        /* \"#utility.yul\":25282:25288   */\n      dup6\n        /* \"#utility.yul\":25275:25280   */\n      dup3\n        /* \"#utility.yul\":25222:25289   */\n      tag_180\n      jump\t// in\n    tag_395:\n        /* \"#utility.yul\":25216:25220   */\n      dup7\n        /* \"#utility.yul\":25209:25290   */\n      sstore\n        /* \"#utility.yul\":25078:25300   */\n      pop\n        /* \"#utility.yul\":24413:25300   */\n      jump(tag_392)\n        /* \"#utility.yul\":24443:25061   */\n    tag_393:\n        /* \"#utility.yul\":24495:24499   */\n      0x1f\n        /* \"#utility.yul\":24491:24500   */\n      not\n        /* \"#utility.yul\":24483:24489   */\n      dup5\n        /* \"#utility.yul\":24479:24501   */\n      and\n        /* \"#utility.yul\":24529:24566   */\n      tag_396\n        /* \"#utility.yul\":24561:24565   */\n      dup7\n        /* \"#utility.yul\":24529:24566   */\n      tag_166\n      jump\t// in\n    tag_396:\n        /* \"#utility.yul\":24588:24589   */\n      0x00\n        /* \"#utility.yul\":24602:24810   */\n    tag_397:\n        /* \"#utility.yul\":24616:24623   */\n      dup3\n        /* \"#utility.yul\":24613:24614   */\n      dup2\n        /* \"#utility.yul\":24610:24624   */\n      lt\n        /* \"#utility.yul\":24602:24810   */\n      iszero\n      tag_399\n      jumpi\n        /* \"#utility.yul\":24695:24704   */\n      dup5\n        /* \"#utility.yul\":24690:24693   */\n      dup10\n        /* \"#utility.yul\":24686:24705   */\n      add\n        /* \"#utility.yul\":24680:24706   */\n      mload\n        /* \"#utility.yul\":24672:24678   */\n      dup3\n        /* \"#utility.yul\":24665:24707   */\n      sstore\n        /* \"#utility.yul\":24746:24747   */\n      0x01\n        /* \"#utility.yul\":24738:24744   */\n      dup3\n        /* \"#utility.yul\":24734:24748   */\n      add\n        /* \"#utility.yul\":24724:24748   */\n      swap2\n      pop\n        /* \"#utility.yul\":24793:24795   */\n      0x20\n        /* \"#utility.yul\":24782:24791   */\n      dup6\n        /* \"#utility.yul\":24778:24796   */\n      add\n        /* \"#utility.yul\":24765:24796   */\n      swap5\n      pop\n        /* \"#utility.yul\":24639:24643   */\n      0x20\n        /* \"#utility.yul\":24636:24637   */\n      dup2\n        /* \"#utility.yul\":24632:24644   */\n      add\n        /* \"#utility.yul\":24627:24644   */\n      swap1\n      pop\n        /* \"#utility.yul\":24602:24810   */\n      jump(tag_397)\n    tag_399:\n        /* \"#utility.yul\":24838:24844   */\n      dup7\n        /* \"#utility.yul\":24829:24836   */\n      dup4\n        /* \"#utility.yul\":24826:24845   */\n      lt\n        /* \"#utility.yul\":24823:25002   */\n      iszero\n      tag_400\n      jumpi\n        /* \"#utility.yul\":24896:24905   */\n      dup5\n        /* \"#utility.yul\":24891:24894   */\n      dup10\n        /* \"#utility.yul\":24887:24906   */\n      add\n        /* \"#utility.yul\":24881:24907   */\n      mload\n        /* \"#utility.yul\":24939:24987   */\n      tag_401\n        /* \"#utility.yul\":24981:24985   */\n      0x1f\n        /* \"#utility.yul\":24973:24979   */\n      dup10\n        /* \"#utility.yul\":24969:24986   */\n      and\n        /* \"#utility.yul\":24958:24967   */\n      dup3\n        /* \"#utility.yul\":24939:24987   */\n      tag_179\n      jump\t// in\n    tag_401:\n        /* \"#utility.yul\":24931:24937   */\n      dup4\n        /* \"#utility.yul\":24924:24988   */\n      sstore\n        /* \"#utility.yul\":24846:25002   */\n      pop\n        /* \"#utility.yul\":24823:25002   */\n    tag_400:\n        /* \"#utility.yul\":25048:25049   */\n      0x01\n        /* \"#utility.yul\":25044:25045   */\n      0x02\n        /* \"#utility.yul\":25036:25042   */\n      dup9\n        /* \"#utility.yul\":25032:25046   */\n      mul\n        /* \"#utility.yul\":25028:25050   */\n      add\n        /* \"#utility.yul\":25022:25026   */\n      dup9\n        /* \"#utility.yul\":25015:25051   */\n      sstore\n        /* \"#utility.yul\":24450:25061   */\n      pop\n      pop\n      pop\n        /* \"#utility.yul\":24413:25300   */\n    tag_392:\n      pop\n        /* \"#utility.yul\":24003:25306   */\n      pop\n      pop\n      pop\n        /* \"#utility.yul\":23911:25306   */\n      pop\n      pop\n      jump\t// out\n\n    auxdata: 0xa26469706673582212209777b670be47fb02262a345ffa767ebd1ca0e5ca60bf5eed3b45a35d2439090064736f6c634300081b0033\n}\n",
				"bytecode": {
					"linkReferences": {},
					"object": "6080604052348015600e575f5ffd5b50611c4f8061001c5f395ff3fe608060405234801561000f575f5ffd5b506004361061003f575f3560e01c80631dab301e146100435780636621c5831461007a578063ea3f423e14610096575b5f5ffd5b61005d6004803603810190610058919061101b565b6100b2565b604051610071989796959493929190611421565b60405180910390f35b610094600480360381019061008f919061161d565b610b00565b005b6100b060048036038101906100ab9190611789565b610b21565b005b6001602052805f5260405f205f91509050805f015490806001015f9054906101000a900460ff1690806002016040518060800160405290815f820154815260200160018201805461010290611906565b80601f016020809104026020016040519081016040528092919081815260200182805461012e90611906565b80156101795780601f1061015057610100808354040283529160200191610179565b820191905f5260205f20905b81548152906001019060200180831161015c57829003601f168201915b50505050508152602001600282015f9054906101000a900460ff1660ff1660ff1681526020016003820180546101ae90611906565b80601f01602080910402602001604051908101604052809291908181526020018280546101da90611906565b80156102255780601f106101fc57610100808354040283529160200191610225565b820191905f5260205f20905b81548152906001019060200180831161020857829003601f168201915b50505050508152505090806006016040518060a00160405290815f8201805461024d90611906565b80601f016020809104026020016040519081016040528092919081815260200182805461027990611906565b80156102c45780601f1061029b576101008083540402835291602001916102c4565b820191905f5260205f20905b8154815290600101906020018083116102a757829003601f168201915b505050505081526020016001820180546102dd90611906565b80601f016020809104026020016040519081016040528092919081815260200182805461030990611906565b80156103545780601f1061032b57610100808354040283529160200191610354565b820191905f5260205f20905b81548152906001019060200180831161033757829003601f168201915b5050505050815260200160028201805461036d90611906565b80601f016020809104026020016040519081016040528092919081815260200182805461039990611906565b80156103e45780601f106103bb576101008083540402835291602001916103e4565b820191905f5260205f20905b8154815290600101906020018083116103c757829003601f168201915b5050505050815260200160038201548152602001600482015f9054906101000a900460ff1660ff1660ff16815250509080600b016040518060800160405290815f8201805461043290611906565b80601f016020809104026020016040519081016040528092919081815260200182805461045e90611906565b80156104a95780601f10610480576101008083540402835291602001916104a9565b820191905f5260205f20905b81548152906001019060200180831161048c57829003601f168201915b505050505081526020016001820180546104c290611906565b80601f01602080910402602001604051908101604052809291908181526020018280546104ee90611906565b80156105395780601f1061051057610100808354040283529160200191610539565b820191905f5260205f20905b81548152906001019060200180831161051c57829003601f168201915b5050505050815260200160028201548152602001600382015f9054906101000a900460ff1660ff1660ff16815250509080600f016040518060a00160405290815f8201805461058790611906565b80601f01602080910402602001604051908101604052809291908181526020018280546105b390611906565b80156105fe5780601f106105d5576101008083540402835291602001916105fe565b820191905f5260205f20905b8154815290600101906020018083116105e157829003601f168201915b5050505050815260200160018201805461061790611906565b80601f016020809104026020016040519081016040528092919081815260200182805461064390611906565b801561068e5780601f106106655761010080835404028352916020019161068e565b820191905f5260205f20905b81548152906001019060200180831161067157829003601f168201915b505050505081526020016002820180546106a790611906565b80601f01602080910402602001604051908101604052809291908181526020018280546106d390611906565b801561071e5780601f106106f55761010080835404028352916020019161071e565b820191905f5260205f20905b81548152906001019060200180831161070157829003601f168201915b505050505081526020016003820154815260200160048201805461074190611906565b80601f016020809104026020016040519081016040528092919081815260200182805461076d90611906565b80156107b85780601f1061078f576101008083540402835291602001916107b8565b820191905f5260205f20905b81548152906001019060200180831161079b57829003601f168201915b50505050508152505090806014016040518060a00160405290815f820180546107e090611906565b80601f016020809104026020016040519081016040528092919081815260200182805461080c90611906565b80156108575780601f1061082e57610100808354040283529160200191610857565b820191905f5260205f20905b81548152906001019060200180831161083a57829003601f168201915b5050505050815260200160018201805461087090611906565b80601f016020809104026020016040519081016040528092919081815260200182805461089c90611906565b80156108e75780601f106108be576101008083540402835291602001916108e7565b820191905f5260205f20905b8154815290600101906020018083116108ca57829003601f168201915b5050505050815260200160028201805461090090611906565b80601f016020809104026020016040519081016040528092919081815260200182805461092c90611906565b80156109775780601f1061094e57610100808354040283529160200191610977565b820191905f5260205f20905b81548152906001019060200180831161095a57829003601f168201915b5050505050815260200160038201548152602001600482015f9054906101000a900460ff1660ff1660ff168152505090806019016040518060800160405290815f820180546109c590611906565b80601f01602080910402602001604051908101604052809291908181526020018280546109f190611906565b8015610a3c5780601f10610a1357610100808354040283529160200191610a3c565b820191905f5260205f20905b815481529060010190602001808311610a1f57829003601f168201915b50505050508152602001600182018054610a5590611906565b80601f0160208091040260200160405190810160405280929190818152602001828054610a8190611906565b8015610acc5780601f10610aa357610100808354040283529160200191610acc565b820191905f5260205f20905b815481529060010190602001808311610aaf57829003601f168201915b5050505050815260200160028201548152602001600382015f9054906101000a900460ff1660ff1660ff1681525050905088565b5f5f815480929190610b1190611963565b9190505550505050505050505050565b5f5f815480929190610b3290611963565b91905055505f60405180608001604052808b81526020018a81526020018960ff1681526020018881525090505f6040518060a001604052808781526020018881526020018681526020018581526020018460ff1681525090505f6040518061010001604052805f5481526020015f6004811115610bb257610bb1611055565b5b8152602001848152602001838152602001604051806080016040528060405180602001604052805f815250815260200160405180602001604052805f81525081526020015f81526020015f60ff1681525081526020016040518060a0016040528060405180602001604052805f815250815260200160405180602001604052805f815250815260200160405180602001604052805f81525081526020015f815260200160405180602001604052805f81525081525081526020016040518060a0016040528060405180602001604052805f815250815260200160405180602001604052805f815250815260200160405180602001604052805f81525081526020015f81526020015f60ff168152508152602001604051806080016040528060405180602001604052805f815250815260200160405180602001604052805f81525081526020015f81526020015f60ff1681525081525090508060015f5f5481526020019081526020015f205f820151815f01556020820151816001015f6101000a81548160ff02191690836004811115610d4f57610d4e611055565b5b02179055506040820151816002015f820151815f01556020820151816001019081610d7a9190611b4a565b506040820151816002015f6101000a81548160ff021916908360ff1602179055506060820151816003019081610db09190611b4a565b5050506060820151816006015f820151815f019081610dcf9190611b4a565b506020820151816001019081610de59190611b4a565b506040820151816002019081610dfb9190611b4a565b50606082015181600301556080820151816004015f6101000a81548160ff021916908360ff1602179055505050608082015181600b015f820151815f019081610e449190611b4a565b506020820151816001019081610e5a9190611b4a565b50604082015181600201556060820151816003015f6101000a81548160ff021916908360ff160217905550505060a082015181600f015f820151815f019081610ea39190611b4a565b506020820151816001019081610eb99190611b4a565b506040820151816002019081610ecf9190611b4a565b50606082015181600301556080820151816004019081610eef9190611b4a565b50505060c0820151816014015f820151815f019081610f0e9190611b4a565b506020820151816001019081610f249190611b4a565b506040820151816002019081610f3a9190611b4a565b50606082015181600301556080820151816004015f6101000a81548160ff021916908360ff160217905550505060e0820151816019015f820151815f019081610f839190611b4a565b506020820151816001019081610f999190611b4a565b50604082015181600201556060820151816003015f6101000a81548160ff021916908360ff1602179055505050905050505050505050505050505050565b5f604051905090565b5f5ffd5b5f5ffd5b5f819050919050565b610ffa81610fe8565b8114611004575f5ffd5b50565b5f8135905061101581610ff1565b92915050565b5f602082840312156110305761102f610fe0565b5b5f61103d84828501611007565b91505092915050565b61104f81610fe8565b82525050565b7f4e487b71000000000000000000000000000000000000000000000000000000005f52602160045260245ffd5b6005811061109357611092611055565b5b50565b5f8190506110a382611082565b919050565b5f6110b282611096565b9050919050565b6110c2816110a8565b82525050565b6110d181610fe8565b82525050565b5f81519050919050565b5f82825260208201905092915050565b8281835e5f83830152505050565b5f601f19601f8301169050919050565b5f611119826110d7565b61112381856110e1565b93506111338185602086016110f1565b61113c816110ff565b840191505092915050565b5f60ff82169050919050565b61115c81611147565b82525050565b5f608083015f8301516111775f8601826110c8565b506020830151848203602086015261118f828261110f565b91505060408301516111a46040860182611153565b50606083015184820360608601526111bc828261110f565b9150508091505092915050565b5f60a083015f8301518482035f8601526111e3828261110f565b915050602083015184820360208601526111fd828261110f565b91505060408301518482036040860152611217828261110f565b915050606083015161122c60608601826110c8565b50608083015161123f6080860182611153565b508091505092915050565b5f608083015f8301518482035f860152611264828261110f565b9150506020830151848203602086015261127e828261110f565b915050604083015161129360408601826110c8565b5060608301516112a66060860182611153565b508091505092915050565b5f60a083015f8301518482035f8601526112cb828261110f565b915050602083015184820360208601526112e5828261110f565b915050604083015184820360408601526112ff828261110f565b915050606083015161131460608601826110c8565b506080830151848203608086015261132c828261110f565b9150508091505092915050565b5f60a083015f8301518482035f860152611353828261110f565b9150506020830151848203602086015261136d828261110f565b91505060408301518482036040860152611387828261110f565b915050606083015161139c60608601826110c8565b5060808301516113af6080860182611153565b508091505092915050565b5f608083015f8301518482035f8601526113d4828261110f565b915050602083015184820360208601526113ee828261110f565b915050604083015161140360408601826110c8565b5060608301516114166060860182611153565b508091505092915050565b5f610100820190506114355f83018b611046565b611442602083018a6110b9565b81810360408301526114548189611162565b9050818103606083015261146881886111c9565b9050818103608083015261147c818761124a565b905081810360a083015261149081866112b1565b905081810360c08301526114a48185611339565b905081810360e08301526114b881846113ba565b90509998505050505050505050565b5f5ffd5b5f5ffd5b7f4e487b71000000000000000000000000000000000000000000000000000000005f52604160045260245ffd5b611505826110ff565b810181811067ffffffffffffffff82111715611524576115236114cf565b5b80604052505050565b5f611536610fd7565b905061154282826114fc565b919050565b5f67ffffffffffffffff821115611561576115606114cf565b5b61156a826110ff565b9050602081019050919050565b828183375f83830152505050565b5f61159761159284611547565b61152d565b9050828152602081018484840111156115b3576115b26114cb565b5b6115be848285611577565b509392505050565b5f82601f8301126115da576115d96114c7565b5b81356115ea848260208601611585565b91505092915050565b6115fc81611147565b8114611606575f5ffd5b50565b5f81359050611617816115f3565b92915050565b5f5f5f5f5f5f5f5f5f6101208a8c03121561163b5761163a610fe0565b5b5f6116488c828d01611007565b99505060208a013567ffffffffffffffff81111561166957611668610fe4565b5b6116758c828d016115c6565b98505060406116868c828d01611609565b97505060608a013567ffffffffffffffff8111156116a7576116a6610fe4565b5b6116b38c828d016115c6565b96505060808a013567ffffffffffffffff8111156116d4576116d3610fe4565b5b6116e08c828d016115c6565b95505060a08a013567ffffffffffffffff81111561170157611700610fe4565b5b61170d8c828d016115c6565b94505060c08a013567ffffffffffffffff81111561172e5761172d610fe4565b5b61173a8c828d016115c6565b93505060e061174b8c828d01611007565b9250506101008a013567ffffffffffffffff81111561176d5761176c610fe4565b5b6117798c828d016115c6565b9150509295985092959850929598565b5f5f5f5f5f5f5f5f5f6101208a8c0312156117a7576117a6610fe0565b5b5f6117b48c828d01611007565b99505060208a013567ffffffffffffffff8111156117d5576117d4610fe4565b5b6117e18c828d016115c6565b98505060406117f28c828d01611609565b97505060608a013567ffffffffffffffff81111561181357611812610fe4565b5b61181f8c828d016115c6565b96505060808a013567ffffffffffffffff8111156118405761183f610fe4565b5b61184c8c828d016115c6565b95505060a08a013567ffffffffffffffff81111561186d5761186c610fe4565b5b6118798c828d016115c6565b94505060c08a013567ffffffffffffffff81111561189a57611899610fe4565b5b6118a68c828d016115c6565b93505060e06118b78c828d01611007565b9250506101006118c98c828d01611609565b9150509295985092959850929598565b7f4e487b71000000000000000000000000000000000000000000000000000000005f52602260045260245ffd5b5f600282049050600182168061191d57607f821691505b6020821081036119305761192f6118d9565b5b50919050565b7f4e487b71000000000000000000000000000000000000000000000000000000005f52601160045260245ffd5b5f61196d82610fe8565b91507fffffffffffffffffffffffffffffffffffffffffffffffffffffffffffffffff820361199f5761199e611936565b5b600182019050919050565b5f819050815f5260205f209050919050565b5f6020601f8301049050919050565b5f82821b905092915050565b5f60088302611a067fffffffffffffffffffffffffffffffffffffffffffffffffffffffffffffffff826119cb565b611a1086836119cb565b95508019841693508086168417925050509392505050565b5f819050919050565b5f611a4b611a46611a4184610fe8565b611a28565b610fe8565b9050919050565b5f819050919050565b611a6483611a31565b611a78611a7082611a52565b8484546119d7565b825550505050565b5f5f905090565b611a8f611a80565b611a9a818484611a5b565b505050565b5b81811015611abd57611ab25f82611a87565b600181019050611aa0565b5050565b601f821115611b0257611ad3816119aa565b611adc846119bc565b81016020851015611aeb578190505b611aff611af7856119bc565b830182611a9f565b50505b505050565b5f82821c905092915050565b5f611b225f1984600802611b07565b1980831691505092915050565b5f611b3a8383611b13565b9150826002028217905092915050565b611b53826110d7565b67ffffffffffffffff811115611b6c57611b6b6114cf565b5b611b768254611906565b611b81828285611ac1565b5f60209050601f831160018114611bb2575f8415611ba0578287015190505b611baa8582611b2f565b865550611c11565b601f198416611bc0866119aa565b5f5b82811015611be757848901518255600182019150602085019450602081019050611bc2565b86831015611c045784890151611c00601f891682611b13565b8355505b6001600288020188555050505b50505050505056fea26469706673582212209777b670be47fb02262a345ffa767ebd1ca0e5ca60bf5eed3b45a35d2439090064736f6c634300081b0033",
					"opcodes": "PUSH1 0x80 PUSH1 0x40 MSTORE CALLVALUE DUP1 ISZERO PUSH1 0xE JUMPI PUSH0 PUSH0 REVERT JUMPDEST POP PUSH2 0x1C4F DUP1 PUSH2 0x1C PUSH0 CODECOPY PUSH0 RETURN INVALID PUSH1 0x80 PUSH1 0x40 MSTORE CALLVALUE DUP1 ISZERO PUSH2 0xF JUMPI PUSH0 PUSH0 REVERT JUMPDEST POP PUSH1 0x4 CALLDATASIZE LT PUSH2 0x3F JUMPI PUSH0 CALLDATALOAD PUSH1 0xE0 SHR DUP1 PUSH4 0x1DAB301E EQ PUSH2 0x43 JUMPI DUP1 PUSH4 0x6621C583 EQ PUSH2 0x7A JUMPI DUP1 PUSH4 0xEA3F423E EQ PUSH2 0x96 JUMPI JUMPDEST PUSH0 PUSH0 REVERT JUMPDEST PUSH2 0x5D PUSH1 0x4 DUP1 CALLDATASIZE SUB DUP2 ADD SWAP1 PUSH2 0x58 SWAP2 SWAP1 PUSH2 0x101B JUMP JUMPDEST PUSH2 0xB2 JUMP JUMPDEST PUSH1 0x40 MLOAD PUSH2 0x71 SWAP9 SWAP8 SWAP7 SWAP6 SWAP5 SWAP4 SWAP3 SWAP2 SWAP1 PUSH2 0x1421 JUMP JUMPDEST PUSH1 0x40 MLOAD DUP1 SWAP2 SUB SWAP1 RETURN JUMPDEST PUSH2 0x94 PUSH1 0x4 DUP1 CALLDATASIZE SUB DUP2 ADD SWAP1 PUSH2 0x8F SWAP2 SWAP1 PUSH2 0x161D JUMP JUMPDEST PUSH2 0xB00 JUMP JUMPDEST STOP JUMPDEST PUSH2 0xB0 PUSH1 0x4 DUP1 CALLDATASIZE SUB DUP2 ADD SWAP1 PUSH2 0xAB SWAP2 SWAP1 PUSH2 0x1789 JUMP JUMPDEST PUSH2 0xB21 JUMP JUMPDEST STOP JUMPDEST PUSH1 0x1 PUSH1 0x20 MSTORE DUP1 PUSH0 MSTORE PUSH1 0x40 PUSH0 KECCAK256 PUSH0 SWAP2 POP SWAP1 POP DUP1 PUSH0 ADD SLOAD SWAP1 DUP1 PUSH1 0x1 ADD PUSH0 SWAP1 SLOAD SWAP1 PUSH2 0x100 EXP SWAP1 DIV PUSH1 0xFF AND SWAP1 DUP1 PUSH1 0x2 ADD PUSH1 0x40 MLOAD DUP1 PUSH1 0x80 ADD PUSH1 0x40 MSTORE SWAP1 DUP2 PUSH0 DUP3 ADD SLOAD DUP2 MSTORE PUSH1 0x20 ADD PUSH1 0x1 DUP3 ADD DUP1 SLOAD PUSH2 0x102 SWAP1 PUSH2 0x1906 JUMP JUMPDEST DUP1 PUSH1 0x1F ADD PUSH1 0x20 DUP1 SWAP2 DIV MUL PUSH1 0x20 ADD PUSH1 0x40 MLOAD SWAP1 DUP2 ADD PUSH1 0x40 MSTORE DUP1 SWAP3 SWAP2 SWAP1 DUP2 DUP2 MSTORE PUSH1 0x20 ADD DUP3 DUP1 SLOAD PUSH2 0x12E SWAP1 PUSH2 0x1906 JUMP JUMPDEST DUP1 ISZERO PUSH2 0x179 JUMPI DUP1 PUSH1 0x1F LT PUSH2 0x150 JUMPI PUSH2 0x100 DUP1 DUP4 SLOAD DIV MUL DUP4 MSTORE SWAP2 PUSH1 0x20 ADD SWAP2 PUSH2 0x179 JUMP JUMPDEST DUP3 ADD SWAP2 SWAP1 PUSH0 MSTORE PUSH1 0x20 PUSH0 KECCAK256 SWAP1 JUMPDEST DUP2 SLOAD DUP2 MSTORE SWAP1 PUSH1 0x1 ADD SWAP1 PUSH1 0x20 ADD DUP1 DUP4 GT PUSH2 0x15C JUMPI DUP3 SWAP1 SUB PUSH1 0x1F AND DUP3 ADD SWAP2 JUMPDEST POP POP POP POP POP DUP2 MSTORE PUSH1 0x20 ADD PUSH1 0x2 DUP3 ADD PUSH0 SWAP1 SLOAD SWAP1 PUSH2 0x100 EXP SWAP1 DIV PUSH1 0xFF AND PUSH1 0xFF AND PUSH1 0xFF AND DUP2 MSTORE PUSH1 0x20 ADD PUSH1 0x3 DUP3 ADD DUP1 SLOAD PUSH2 0x1AE SWAP1 PUSH2 0x1906 JUMP JUMPDEST DUP1 PUSH1 0x1F ADD PUSH1 0x20 DUP1 SWAP2 DIV MUL PUSH1 0x20 ADD PUSH1 0x40 MLOAD SWAP1 DUP2 ADD PUSH1 0x40 MSTORE DUP1 SWAP3 SWAP2 SWAP1 DUP2 DUP2 MSTORE PUSH1 0x20 ADD DUP3 DUP1 SLOAD PUSH2 0x1DA SWAP1 PUSH2 0x1906 JUMP JUMPDEST DUP1 ISZERO PUSH2 0x225 JUMPI DUP1 PUSH1 0x1F LT PUSH2 0x1FC JUMPI PUSH2 0x100 DUP1 DUP4 SLOAD DIV MUL DUP4 MSTORE SWAP2 PUSH1 0x20 ADD SWAP2 PUSH2 0x225 JUMP JUMPDEST DUP3 ADD SWAP2 SWAP1 PUSH0 MSTORE PUSH1 0x20 PUSH0 KECCAK256 SWAP1 JUMPDEST DUP2 SLOAD DUP2 MSTORE SWAP1 PUSH1 0x1 ADD SWAP1 PUSH1 0x20 ADD DUP1 DUP4 GT PUSH2 0x208 JUMPI DUP3 SWAP1 SUB PUSH1 0x1F AND DUP3 ADD SWAP2 JUMPDEST POP POP POP POP POP DUP2 MSTORE POP POP SWAP1 DUP1 PUSH1 0x6 ADD PUSH1 0x40 MLOAD DUP1 PUSH1 0xA0 ADD PUSH1 0x40 MSTORE SWAP1 DUP2 PUSH0 DUP3 ADD DUP1 SLOAD PUSH2 0x24D SWAP1 PUSH2 0x1906 JUMP JUMPDEST DUP1 PUSH1 0x1F ADD PUSH1 0x20 DUP1 SWAP2 DIV MUL PUSH1 0x20 ADD PUSH1 0x40 MLOAD SWAP1 DUP2 ADD PUSH1 0x40 MSTORE DUP1 SWAP3 SWAP2 SWAP1 DUP2 DUP2 MSTORE PUSH1 0x20 ADD DUP3 DUP1 SLOAD PUSH2 0x279 SWAP1 PUSH2 0x1906 JUMP JUMPDEST DUP1 ISZERO PUSH2 0x2C4 JUMPI DUP1 PUSH1 0x1F LT PUSH2 0x29B JUMPI PUSH2 0x100 DUP1 DUP4 SLOAD DIV MUL DUP4 MSTORE SWAP2 PUSH1 0x20 ADD SWAP2 PUSH2 0x2C4 JUMP JUMPDEST DUP3 ADD SWAP2 SWAP1 PUSH0 MSTORE PUSH1 0x20 PUSH0 KECCAK256 SWAP1 JUMPDEST DUP2 SLOAD DUP2 MSTORE SWAP1 PUSH1 0x1 ADD SWAP1 PUSH1 0x20 ADD DUP1 DUP4 GT PUSH2 0x2A7 JUMPI DUP3 SWAP1 SUB PUSH1 0x1F AND DUP3 ADD SWAP2 JUMPDEST POP POP POP POP POP DUP2 MSTORE PUSH1 0x20 ADD PUSH1 0x1 DUP3 ADD DUP1 SLOAD PUSH2 0x2DD SWAP1 PUSH2 0x1906 JUMP JUMPDEST DUP1 PUSH1 0x1F ADD PUSH1 0x20 DUP1 SWAP2 DIV MUL PUSH1 0x20 ADD PUSH1 0x40 MLOAD SWAP1 DUP2 ADD PUSH1 0x40 MSTORE DUP1 SWAP3 SWAP2 SWAP1 DUP2 DUP2 MSTORE PUSH1 0x20 ADD DUP3 DUP1 SLOAD PUSH2 0x309 SWAP1 PUSH2 0x1906 JUMP JUMPDEST DUP1 ISZERO PUSH2 0x354 JUMPI DUP1 PUSH1 0x1F LT PUSH2 0x32B JUMPI PUSH2 0x100 DUP1 DUP4 SLOAD DIV MUL DUP4 MSTORE SWAP2 PUSH1 0x20 ADD SWAP2 PUSH2 0x354 JUMP JUMPDEST DUP3 ADD SWAP2 SWAP1 PUSH0 MSTORE PUSH1 0x20 PUSH0 KECCAK256 SWAP1 JUMPDEST DUP2 SLOAD DUP2 MSTORE SWAP1 PUSH1 0x1 ADD SWAP1 PUSH1 0x20 ADD DUP1 DUP4 GT PUSH2 0x337 JUMPI DUP3 SWAP1 SUB PUSH1 0x1F AND DUP3 ADD SWAP2 JUMPDEST POP POP POP POP POP DUP2 MSTORE PUSH1 0x20 ADD PUSH1 0x2 DUP3 ADD DUP1 SLOAD PUSH2 0x36D SWAP1 PUSH2 0x1906 JUMP JUMPDEST DUP1 PUSH1 0x1F ADD PUSH1 0x20 DUP1 SWAP2 DIV MUL PUSH1 0x20 ADD PUSH1 0x40 MLOAD SWAP1 DUP2 ADD PUSH1 0x40 MSTORE DUP1 SWAP3 SWAP2 SWAP1 DUP2 DUP2 MSTORE PUSH1 0x20 ADD DUP3 DUP1 SLOAD PUSH2 0x399 SWAP1 PUSH2 0x1906 JUMP JUMPDEST DUP1 ISZERO PUSH2 0x3E4 JUMPI DUP1 PUSH1 0x1F LT PUSH2 0x3BB JUMPI PUSH2 0x100 DUP1 DUP4 SLOAD DIV MUL DUP4 MSTORE SWAP2 PUSH1 0x20 ADD SWAP2 PUSH2 0x3E4 JUMP JUMPDEST DUP3 ADD SWAP2 SWAP1 PUSH0 MSTORE PUSH1 0x20 PUSH0 KECCAK256 SWAP1 JUMPDEST DUP2 SLOAD DUP2 MSTORE SWAP1 PUSH1 0x1 ADD SWAP1 PUSH1 0x20 ADD DUP1 DUP4 GT PUSH2 0x3C7 JUMPI DUP3 SWAP1 SUB PUSH1 0x1F AND DUP3 ADD SWAP2 JUMPDEST POP POP POP POP POP DUP2 MSTORE PUSH1 0x20 ADD PUSH1 0x3 DUP3 ADD SLOAD DUP2 MSTORE PUSH1 0x20 ADD PUSH1 0x4 DUP3 ADD PUSH0 SWAP1 SLOAD SWAP1 PUSH2 0x100 EXP SWAP1 DIV PUSH1 0xFF AND PUSH1 0xFF AND PUSH1 0xFF AND DUP2 MSTORE POP POP SWAP1 DUP1 PUSH1 0xB ADD PUSH1 0x40 MLOAD DUP1 PUSH1 0x80 ADD PUSH1 0x40 MSTORE SWAP1 DUP2 PUSH0 DUP3 ADD DUP1 SLOAD PUSH2 0x432 SWAP1 PUSH2 0x1906 JUMP JUMPDEST DUP1 PUSH1 0x1F ADD PUSH1 0x20 DUP1 SWAP2 DIV MUL PUSH1 0x20 ADD PUSH1 0x40 MLOAD SWAP1 DUP2 ADD PUSH1 0x40 MSTORE DUP1 SWAP3 SWAP2 SWAP1 DUP2 DUP2 MSTORE PUSH1 0x20 ADD DUP3 DUP1 SLOAD PUSH2 0x45E SWAP1 PUSH2 0x1906 JUMP JUMPDEST DUP1 ISZERO PUSH2 0x4A9 JUMPI DUP1 PUSH1 0x1F LT PUSH2 0x480 JUMPI PUSH2 0x100 DUP1 DUP4 SLOAD DIV MUL DUP4 MSTORE SWAP2 PUSH1 0x20 ADD SWAP2 PUSH2 0x4A9 JUMP JUMPDEST DUP3 ADD SWAP2 SWAP1 PUSH0 MSTORE PUSH1 0x20 PUSH0 KECCAK256 SWAP1 JUMPDEST DUP2 SLOAD DUP2 MSTORE SWAP1 PUSH1 0x1 ADD SWAP1 PUSH1 0x20 ADD DUP1 DUP4 GT PUSH2 0x48C JUMPI DUP3 SWAP1 SUB PUSH1 0x1F AND DUP3 ADD SWAP2 JUMPDEST POP POP POP POP POP DUP2 MSTORE PUSH1 0x20 ADD PUSH1 0x1 DUP3 ADD DUP1 SLOAD PUSH2 0x4C2 SWAP1 PUSH2 0x1906 JUMP JUMPDEST DUP1 PUSH1 0x1F ADD PUSH1 0x20 DUP1 SWAP2 DIV MUL PUSH1 0x20 ADD PUSH1 0x40 MLOAD SWAP1 DUP2 ADD PUSH1 0x40 MSTORE DUP1 SWAP3 SWAP2 SWAP1 DUP2 DUP2 MSTORE PUSH1 0x20 ADD DUP3 DUP1 SLOAD PUSH2 0x4EE SWAP1 PUSH2 0x1906 JUMP JUMPDEST DUP1 ISZERO PUSH2 0x539 JUMPI DUP1 PUSH1 0x1F LT PUSH2 0x510 JUMPI PUSH2 0x100 DUP1 DUP4 SLOAD DIV MUL DUP4 MSTORE SWAP2 PUSH1 0x20 ADD SWAP2 PUSH2 0x539 JUMP JUMPDEST DUP3 ADD SWAP2 SWAP1 PUSH0 MSTORE PUSH1 0x20 PUSH0 KECCAK256 SWAP1 JUMPDEST DUP2 SLOAD DUP2 MSTORE SWAP1 PUSH1 0x1 ADD SWAP1 PUSH1 0x20 ADD DUP1 DUP4 GT PUSH2 0x51C JUMPI DUP3 SWAP1 SUB PUSH1 0x1F AND DUP3 ADD SWAP2 JUMPDEST POP POP POP POP POP DUP2 MSTORE PUSH1 0x20 ADD PUSH1 0x2 DUP3 ADD SLOAD DUP2 MSTORE PUSH1 0x20 ADD PUSH1 0x3 DUP3 ADD PUSH0 SWAP1 SLOAD SWAP1 PUSH2 0x100 EXP SWAP1 DIV PUSH1 0xFF AND PUSH1 0xFF AND PUSH1 0xFF AND DUP2 MSTORE POP POP SWAP1 DUP1 PUSH1 0xF ADD PUSH1 0x40 MLOAD DUP1 PUSH1 0xA0 ADD PUSH1 0x40 MSTORE SWAP1 DUP2 PUSH0 DUP3 ADD DUP1 SLOAD PUSH2 0x587 SWAP1 PUSH2 0x1906 JUMP JUMPDEST DUP1 PUSH1 0x1F ADD PUSH1 0x20 DUP1 SWAP2 DIV MUL PUSH1 0x20 ADD PUSH1 0x40 MLOAD SWAP1 DUP2 ADD PUSH1 0x40 MSTORE DUP1 SWAP3 SWAP2 SWAP1 DUP2 DUP2 MSTORE PUSH1 0x20 ADD DUP3 DUP1 SLOAD PUSH2 0x5B3 SWAP1 PUSH2 0x1906 JUMP JUMPDEST DUP1 ISZERO PUSH2 0x5FE JUMPI DUP1 PUSH1 0x1F LT PUSH2 0x5D5 JUMPI PUSH2 0x100 DUP1 DUP4 SLOAD DIV MUL DUP4 MSTORE SWAP2 PUSH1 0x20 ADD SWAP2 PUSH2 0x5FE JUMP JUMPDEST DUP3 ADD SWAP2 SWAP1 PUSH0 MSTORE PUSH1 0x20 PUSH0 KECCAK256 SWAP1 JUMPDEST DUP2 SLOAD DUP2 MSTORE SWAP1 PUSH1 0x1 ADD SWAP1 PUSH1 0x20 ADD DUP1 DUP4 GT PUSH2 0x5E1 JUMPI DUP3 SWAP1 SUB PUSH1 0x1F AND DUP3 ADD SWAP2 JUMPDEST POP POP POP POP POP DUP2 MSTORE PUSH1 0x20 ADD PUSH1 0x1 DUP3 ADD DUP1 SLOAD PUSH2 0x617 SWAP1 PUSH2 0x1906 JUMP JUMPDEST DUP1 PUSH1 0x1F ADD PUSH1 0x20 DUP1 SWAP2 DIV MUL PUSH1 0x20 ADD PUSH1 0x40 MLOAD SWAP1 DUP2 ADD PUSH1 0x40 MSTORE DUP1 SWAP3 SWAP2 SWAP1 DUP2 DUP2 MSTORE PUSH1 0x20 ADD DUP3 DUP1 SLOAD PUSH2 0x643 SWAP1 PUSH2 0x1906 JUMP JUMPDEST DUP1 ISZERO PUSH2 0x68E JUMPI DUP1 PUSH1 0x1F LT PUSH2 0x665 JUMPI PUSH2 0x100 DUP1 DUP4 SLOAD DIV MUL DUP4 MSTORE SWAP2 PUSH1 0x20 ADD SWAP2 PUSH2 0x68E JUMP JUMPDEST DUP3 ADD SWAP2 SWAP1 PUSH0 MSTORE PUSH1 0x20 PUSH0 KECCAK256 SWAP1 JUMPDEST DUP2 SLOAD DUP2 MSTORE SWAP1 PUSH1 0x1 ADD SWAP1 PUSH1 0x20 ADD DUP1 DUP4 GT PUSH2 0x671 JUMPI DUP3 SWAP1 SUB PUSH1 0x1F AND DUP3 ADD SWAP2 JUMPDEST POP POP POP POP POP DUP2 MSTORE PUSH1 0x20 ADD PUSH1 0x2 DUP3 ADD DUP1 SLOAD PUSH2 0x6A7 SWAP1 PUSH2 0x1906 JUMP JUMPDEST DUP1 PUSH1 0x1F ADD PUSH1 0x20 DUP1 SWAP2 DIV MUL PUSH1 0x20 ADD PUSH1 0x40 MLOAD SWAP1 DUP2 ADD PUSH1 0x40 MSTORE DUP1 SWAP3 SWAP2 SWAP1 DUP2 DUP2 MSTORE PUSH1 0x20 ADD DUP3 DUP1 SLOAD PUSH2 0x6D3 SWAP1 PUSH2 0x1906 JUMP JUMPDEST DUP1 ISZERO PUSH2 0x71E JUMPI DUP1 PUSH1 0x1F LT PUSH2 0x6F5 JUMPI PUSH2 0x100 DUP1 DUP4 SLOAD DIV MUL DUP4 MSTORE SWAP2 PUSH1 0x20 ADD SWAP2 PUSH2 0x71E JUMP JUMPDEST DUP3 ADD SWAP2 SWAP1 PUSH0 MSTORE PUSH1 0x20 PUSH0 KECCAK256 SWAP1 JUMPDEST DUP2 SLOAD DUP2 MSTORE SWAP1 PUSH1 0x1 ADD SWAP1 PUSH1 0x20 ADD DUP1 DUP4 GT PUSH2 0x701 JUMPI DUP3 SWAP1 SUB PUSH1 0x1F AND DUP3 ADD SWAP2 JUMPDEST POP POP POP POP POP DUP2 MSTORE PUSH1 0x20 ADD PUSH1 0x3 DUP3 ADD SLOAD DUP2 MSTORE PUSH1 0x20 ADD PUSH1 0x4 DUP3 ADD DUP1 SLOAD PUSH2 0x741 SWAP1 PUSH2 0x1906 JUMP JUMPDEST DUP1 PUSH1 0x1F ADD PUSH1 0x20 DUP1 SWAP2 DIV MUL PUSH1 0x20 ADD PUSH1 0x40 MLOAD SWAP1 DUP2 ADD PUSH1 0x40 MSTORE DUP1 SWAP3 SWAP2 SWAP1 DUP2 DUP2 MSTORE PUSH1 0x20 ADD DUP3 DUP1 SLOAD PUSH2 0x76D SWAP1 PUSH2 0x1906 JUMP JUMPDEST DUP1 ISZERO PUSH2 0x7B8 JUMPI DUP1 PUSH1 0x1F LT PUSH2 0x78F JUMPI PUSH2 0x100 DUP1 DUP4 SLOAD DIV MUL DUP4 MSTORE SWAP2 PUSH1 0x20 ADD SWAP2 PUSH2 0x7B8 JUMP JUMPDEST DUP3 ADD SWAP2 SWAP1 PUSH0 MSTORE PUSH1 0x20 PUSH0 KECCAK256 SWAP1 JUMPDEST DUP2 SLOAD DUP2 MSTORE SWAP1 PUSH1 0x1 ADD SWAP1 PUSH1 0x20 ADD DUP1 DUP4 GT PUSH2 0x79B JUMPI DUP3 SWAP1 SUB PUSH1 0x1F AND DUP3 ADD SWAP2 JUMPDEST POP POP POP POP POP DUP2 MSTORE POP POP SWAP1 DUP1 PUSH1 0x14 ADD PUSH1 0x40 MLOAD DUP1 PUSH1 0xA0 ADD PUSH1 0x40 MSTORE SWAP1 DUP2 PUSH0 DUP3 ADD DUP1 SLOAD PUSH2 0x7E0 SWAP1 PUSH2 0x1906 JUMP JUMPDEST DUP1 PUSH1 0x1F ADD PUSH1 0x20 DUP1 SWAP2 DIV MUL PUSH1 0x20 ADD PUSH1 0x40 MLOAD SWAP1 DUP2 ADD PUSH1 0x40 MSTORE DUP1 SWAP3 SWAP2 SWAP1 DUP2 DUP2 MSTORE PUSH1 0x20 ADD DUP3 DUP1 SLOAD PUSH2 0x80C SWAP1 PUSH2 0x1906 JUMP JUMPDEST DUP1 ISZERO PUSH2 0x857 JUMPI DUP1 PUSH1 0x1F LT PUSH2 0x82E JUMPI PUSH2 0x100 DUP1 DUP4 SLOAD DIV MUL DUP4 MSTORE SWAP2 PUSH1 0x20 ADD SWAP2 PUSH2 0x857 JUMP JUMPDEST DUP3 ADD SWAP2 SWAP1 PUSH0 MSTORE PUSH1 0x20 PUSH0 KECCAK256 SWAP1 JUMPDEST DUP2 SLOAD DUP2 MSTORE SWAP1 PUSH1 0x1 ADD SWAP1 PUSH1 0x20 ADD DUP1 DUP4 GT PUSH2 0x83A JUMPI DUP3 SWAP1 SUB PUSH1 0x1F AND DUP3 ADD SWAP2 JUMPDEST POP POP POP POP POP DUP2 MSTORE PUSH1 0x20 ADD PUSH1 0x1 DUP3 ADD DUP1 SLOAD PUSH2 0x870 SWAP1 PUSH2 0x1906 JUMP JUMPDEST DUP1 PUSH1 0x1F ADD PUSH1 0x20 DUP1 SWAP2 DIV MUL PUSH1 0x20 ADD PUSH1 0x40 MLOAD SWAP1 DUP2 ADD PUSH1 0x40 MSTORE DUP1 SWAP3 SWAP2 SWAP1 DUP2 DUP2 MSTORE PUSH1 0x20 ADD DUP3 DUP1 SLOAD PUSH2 0x89C SWAP1 PUSH2 0x1906 JUMP JUMPDEST DUP1 ISZERO PUSH2 0x8E7 JUMPI DUP1 PUSH1 0x1F LT PUSH2 0x8BE JUMPI PUSH2 0x100 DUP1 DUP4 SLOAD DIV MUL DUP4 MSTORE SWAP2 PUSH1 0x20 ADD SWAP2 PUSH2 0x8E7 JUMP JUMPDEST DUP3 ADD SWAP2 SWAP1 PUSH0 MSTORE PUSH1 0x20 PUSH0 KECCAK256 SWAP1 JUMPDEST DUP2 SLOAD DUP2 MSTORE SWAP1 PUSH1 0x1 ADD SWAP1 PUSH1 0x20 ADD DUP1 DUP4 GT PUSH2 0x8CA JUMPI DUP3 SWAP1 SUB PUSH1 0x1F AND DUP3 ADD SWAP2 JUMPDEST POP POP POP POP POP DUP2 MSTORE PUSH1 0x20 ADD PUSH1 0x2 DUP3 ADD DUP1 SLOAD PUSH2 0x900 SWAP1 PUSH2 0x1906 JUMP JUMPDEST DUP1 PUSH1 0x1F ADD PUSH1 0x20 DUP1 SWAP2 DIV MUL PUSH1 0x20 ADD PUSH1 0x40 MLOAD SWAP1 DUP2 ADD PUSH1 0x40 MSTORE DUP1 SWAP3 SWAP2 SWAP1 DUP2 DUP2 MSTORE PUSH1 0x20 ADD DUP3 DUP1 SLOAD PUSH2 0x92C SWAP1 PUSH2 0x1906 JUMP JUMPDEST DUP1 ISZERO PUSH2 0x977 JUMPI DUP1 PUSH1 0x1F LT PUSH2 0x94E JUMPI PUSH2 0x100 DUP1 DUP4 SLOAD DIV MUL DUP4 MSTORE SWAP2 PUSH1 0x20 ADD SWAP2 PUSH2 0x977 JUMP JUMPDEST DUP3 ADD SWAP2 SWAP1 PUSH0 MSTORE PUSH1 0x20 PUSH0 KECCAK256 SWAP1 JUMPDEST DUP2 SLOAD DUP2 MSTORE SWAP1 PUSH1 0x1 ADD SWAP1 PUSH1 0x20 ADD DUP1 DUP4 GT PUSH2 0x95A JUMPI DUP3 SWAP1 SUB PUSH1 0x1F AND DUP3 ADD SWAP2 JUMPDEST POP POP POP POP POP DUP2 MSTORE PUSH1 0x20 ADD PUSH1 0x3 DUP3 ADD SLOAD DUP2 MSTORE PUSH1 0x20 ADD PUSH1 0x4 DUP3 ADD PUSH0 SWAP1 SLOAD SWAP1 PUSH2 0x100 EXP SWAP1 DIV PUSH1 0xFF AND PUSH1 0xFF AND PUSH1 0xFF AND DUP2 MSTORE POP POP SWAP1 DUP1 PUSH1 0x19 ADD PUSH1 0x40 MLOAD DUP1 PUSH1 0x80 ADD PUSH1 0x40 MSTORE SWAP1 DUP2 PUSH0 DUP3 ADD DUP1 SLOAD PUSH2 0x9C5 SWAP1 PUSH2 0x1906 JUMP JUMPDEST DUP1 PUSH1 0x1F ADD PUSH1 0x20 DUP1 SWAP2 DIV MUL PUSH1 0x20 ADD PUSH1 0x40 MLOAD SWAP1 DUP2 ADD PUSH1 0x40 MSTORE DUP1 SWAP3 SWAP2 SWAP1 DUP2 DUP2 MSTORE PUSH1 0x20 ADD DUP3 DUP1 SLOAD PUSH2 0x9F1 SWAP1 PUSH2 0x1906 JUMP JUMPDEST DUP1 ISZERO PUSH2 0xA3C JUMPI DUP1 PUSH1 0x1F LT PUSH2 0xA13 JUMPI PUSH2 0x100 DUP1 DUP4 SLOAD DIV MUL DUP4 MSTORE SWAP2 PUSH1 0x20 ADD SWAP2 PUSH2 0xA3C JUMP JUMPDEST DUP3 ADD SWAP2 SWAP1 PUSH0 MSTORE PUSH1 0x20 PUSH0 KECCAK256 SWAP1 JUMPDEST DUP2 SLOAD DUP2 MSTORE SWAP1 PUSH1 0x1 ADD SWAP1 PUSH1 0x20 ADD DUP1 DUP4 GT PUSH2 0xA1F JUMPI DUP3 SWAP1 SUB PUSH1 0x1F AND DUP3 ADD SWAP2 JUMPDEST POP POP POP POP POP DUP2 MSTORE PUSH1 0x20 ADD PUSH1 0x1 DUP3 ADD DUP1 SLOAD PUSH2 0xA55 SWAP1 PUSH2 0x1906 JUMP JUMPDEST DUP1 PUSH1 0x1F ADD PUSH1 0x20 DUP1 SWAP2 DIV MUL PUSH1 0x20 ADD PUSH1 0x40 MLOAD SWAP1 DUP2 ADD PUSH1 0x40 MSTORE DUP1 SWAP3 SWAP2 SWAP1 DUP2 DUP2 MSTORE PUSH1 0x20 ADD DUP3 DUP1 SLOAD PUSH2 0xA81 SWAP1 PUSH2 0x1906 JUMP JUMPDEST DUP1 ISZERO PUSH2 0xACC JUMPI DUP1 PUSH1 0x1F LT PUSH2 0xAA3 JUMPI PUSH2 0x100 DUP1 DUP4 SLOAD DIV MUL DUP4 MSTORE SWAP2 PUSH1 0x20 ADD SWAP2 PUSH2 0xACC JUMP JUMPDEST DUP3 ADD SWAP2 SWAP1 PUSH0 MSTORE PUSH1 0x20 PUSH0 KECCAK256 SWAP1 JUMPDEST DUP2 SLOAD DUP2 MSTORE SWAP1 PUSH1 0x1 ADD SWAP1 PUSH1 0x20 ADD DUP1 DUP4 GT PUSH2 0xAAF JUMPI DUP3 SWAP1 SUB PUSH1 0x1F AND DUP3 ADD SWAP2 JUMPDEST POP POP POP POP POP DUP2 MSTORE PUSH1 0x20 ADD PUSH1 0x2 DUP3 ADD SLOAD DUP2 MSTORE PUSH1 0x20 ADD PUSH1 0x3 DUP3 ADD PUSH0 SWAP1 SLOAD SWAP1 PUSH2 0x100 EXP SWAP1 DIV PUSH1 0xFF AND PUSH1 0xFF AND PUSH1 0xFF AND DUP2 MSTORE POP POP SWAP1 POP DUP9 JUMP JUMPDEST PUSH0 PUSH0 DUP2 SLOAD DUP1 SWAP3 SWAP2 SWAP1 PUSH2 0xB11 SWAP1 PUSH2 0x1963 JUMP JUMPDEST SWAP2 SWAP1 POP SSTORE POP POP POP POP POP POP POP POP POP POP JUMP JUMPDEST PUSH0 PUSH0 DUP2 SLOAD DUP1 SWAP3 SWAP2 SWAP1 PUSH2 0xB32 SWAP1 PUSH2 0x1963 JUMP JUMPDEST SWAP2 SWAP1 POP SSTORE POP PUSH0 PUSH1 0x40 MLOAD DUP1 PUSH1 0x80 ADD PUSH1 0x40 MSTORE DUP1 DUP12 DUP2 MSTORE PUSH1 0x20 ADD DUP11 DUP2 MSTORE PUSH1 0x20 ADD DUP10 PUSH1 0xFF AND DUP2 MSTORE PUSH1 0x20 ADD DUP9 DUP2 MSTORE POP SWAP1 POP PUSH0 PUSH1 0x40 MLOAD DUP1 PUSH1 0xA0 ADD PUSH1 0x40 MSTORE DUP1 DUP8 DUP2 MSTORE PUSH1 0x20 ADD DUP9 DUP2 MSTORE PUSH1 0x20 ADD DUP7 DUP2 MSTORE PUSH1 0x20 ADD DUP6 DUP2 MSTORE PUSH1 0x20 ADD DUP5 PUSH1 0xFF AND DUP2 MSTORE POP SWAP1 POP PUSH0 PUSH1 0x40 MLOAD DUP1 PUSH2 0x100 ADD PUSH1 0x40 MSTORE DUP1 PUSH0 SLOAD DUP2 MSTORE PUSH1 0x20 ADD PUSH0 PUSH1 0x4 DUP2 GT ISZERO PUSH2 0xBB2 JUMPI PUSH2 0xBB1 PUSH2 0x1055 JUMP JUMPDEST JUMPDEST DUP2 MSTORE PUSH1 0x20 ADD DUP5 DUP2 MSTORE PUSH1 0x20 ADD DUP4 DUP2 MSTORE PUSH1 0x20 ADD PUSH1 0x40 MLOAD DUP1 PUSH1 0x80 ADD PUSH1 0x40 MSTORE DUP1 PUSH1 0x40 MLOAD DUP1 PUSH1 0x20 ADD PUSH1 0x40 MSTORE DUP1 PUSH0 DUP2 MSTORE POP DUP2 MSTORE PUSH1 0x20 ADD PUSH1 0x40 MLOAD DUP1 PUSH1 0x20 ADD PUSH1 0x40 MSTORE DUP1 PUSH0 DUP2 MSTORE POP DUP2 MSTORE PUSH1 0x20 ADD PUSH0 DUP2 MSTORE PUSH1 0x20 ADD PUSH0 PUSH1 0xFF AND DUP2 MSTORE POP DUP2 MSTORE PUSH1 0x20 ADD PUSH1 0x40 MLOAD DUP1 PUSH1 0xA0 ADD PUSH1 0x40 MSTORE DUP1 PUSH1 0x40 MLOAD DUP1 PUSH1 0x20 ADD PUSH1 0x40 MSTORE DUP1 PUSH0 DUP2 MSTORE POP DUP2 MSTORE PUSH1 0x20 ADD PUSH1 0x40 MLOAD DUP1 PUSH1 0x20 ADD PUSH1 0x40 MSTORE DUP1 PUSH0 DUP2 MSTORE POP DUP2 MSTORE PUSH1 0x20 ADD PUSH1 0x40 MLOAD DUP1 PUSH1 0x20 ADD PUSH1 0x40 MSTORE DUP1 PUSH0 DUP2 MSTORE POP DUP2 MSTORE PUSH1 0x20 ADD PUSH0 DUP2 MSTORE PUSH1 0x20 ADD PUSH1 0x40 MLOAD DUP1 PUSH1 0x20 ADD PUSH1 0x40 MSTORE DUP1 PUSH0 DUP2 MSTORE POP DUP2 MSTORE POP DUP2 MSTORE PUSH1 0x20 ADD PUSH1 0x40 MLOAD DUP1 PUSH1 0xA0 ADD PUSH1 0x40 MSTORE DUP1 PUSH1 0x40 MLOAD DUP1 PUSH1 0x20 ADD PUSH1 0x40 MSTORE DUP1 PUSH0 DUP2 MSTORE POP DUP2 MSTORE PUSH1 0x20 ADD PUSH1 0x40 MLOAD DUP1 PUSH1 0x20 ADD PUSH1 0x40 MSTORE DUP1 PUSH0 DUP2 MSTORE POP DUP2 MSTORE PUSH1 0x20 ADD PUSH1 0x40 MLOAD DUP1 PUSH1 0x20 ADD PUSH1 0x40 MSTORE DUP1 PUSH0 DUP2 MSTORE POP DUP2 MSTORE PUSH1 0x20 ADD PUSH0 DUP2 MSTORE PUSH1 0x20 ADD PUSH0 PUSH1 0xFF AND DUP2 MSTORE POP DUP2 MSTORE PUSH1 0x20 ADD PUSH1 0x40 MLOAD DUP1 PUSH1 0x80 ADD PUSH1 0x40 MSTORE DUP1 PUSH1 0x40 MLOAD DUP1 PUSH1 0x20 ADD PUSH1 0x40 MSTORE DUP1 PUSH0 DUP2 MSTORE POP DUP2 MSTORE PUSH1 0x20 ADD PUSH1 0x40 MLOAD DUP1 PUSH1 0x20 ADD PUSH1 0x40 MSTORE DUP1 PUSH0 DUP2 MSTORE POP DUP2 MSTORE PUSH1 0x20 ADD PUSH0 DUP2 MSTORE PUSH1 0x20 ADD PUSH0 PUSH1 0xFF AND DUP2 MSTORE POP DUP2 MSTORE POP SWAP1 POP DUP1 PUSH1 0x1 PUSH0 PUSH0 SLOAD DUP2 MSTORE PUSH1 0x20 ADD SWAP1 DUP2 MSTORE PUSH1 0x20 ADD PUSH0 KECCAK256 PUSH0 DUP3 ADD MLOAD DUP2 PUSH0 ADD SSTORE PUSH1 0x20 DUP3 ADD MLOAD DUP2 PUSH1 0x1 ADD PUSH0 PUSH2 0x100 EXP DUP2 SLOAD DUP2 PUSH1 0xFF MUL NOT AND SWAP1 DUP4 PUSH1 0x4 DUP2 GT ISZERO PUSH2 0xD4F JUMPI PUSH2 0xD4E PUSH2 0x1055 JUMP JUMPDEST JUMPDEST MUL OR SWAP1 SSTORE POP PUSH1 0x40 DUP3 ADD MLOAD DUP2 PUSH1 0x2 ADD PUSH0 DUP3 ADD MLOAD DUP2 PUSH0 ADD SSTORE PUSH1 0x20 DUP3 ADD MLOAD DUP2 PUSH1 0x1 ADD SWAP1 DUP2 PUSH2 0xD7A SWAP2 SWAP1 PUSH2 0x1B4A JUMP JUMPDEST POP PUSH1 0x40 DUP3 ADD MLOAD DUP2 PUSH1 0x2 ADD PUSH0 PUSH2 0x100 EXP DUP2 SLOAD DUP2 PUSH1 0xFF MUL NOT AND SWAP1 DUP4 PUSH1 0xFF AND MUL OR SWAP1 SSTORE POP PUSH1 0x60 DUP3 ADD MLOAD DUP2 PUSH1 0x3 ADD SWAP1 DUP2 PUSH2 0xDB0 SWAP2 SWAP1 PUSH2 0x1B4A JUMP JUMPDEST POP POP POP PUSH1 0x60 DUP3 ADD MLOAD DUP2 PUSH1 0x6 ADD PUSH0 DUP3 ADD MLOAD DUP2 PUSH0 ADD SWAP1 DUP2 PUSH2 0xDCF SWAP2 SWAP1 PUSH2 0x1B4A JUMP JUMPDEST POP PUSH1 0x20 DUP3 ADD MLOAD DUP2 PUSH1 0x1 ADD SWAP1 DUP2 PUSH2 0xDE5 SWAP2 SWAP1 PUSH2 0x1B4A JUMP JUMPDEST POP PUSH1 0x40 DUP3 ADD MLOAD DUP2 PUSH1 0x2 ADD SWAP1 DUP2 PUSH2 0xDFB SWAP2 SWAP1 PUSH2 0x1B4A JUMP JUMPDEST POP PUSH1 0x60 DUP3 ADD MLOAD DUP2 PUSH1 0x3 ADD SSTORE PUSH1 0x80 DUP3 ADD MLOAD DUP2 PUSH1 0x4 ADD PUSH0 PUSH2 0x100 EXP DUP2 SLOAD DUP2 PUSH1 0xFF MUL NOT AND SWAP1 DUP4 PUSH1 0xFF AND MUL OR SWAP1 SSTORE POP POP POP PUSH1 0x80 DUP3 ADD MLOAD DUP2 PUSH1 0xB ADD PUSH0 DUP3 ADD MLOAD DUP2 PUSH0 ADD SWAP1 DUP2 PUSH2 0xE44 SWAP2 SWAP1 PUSH2 0x1B4A JUMP JUMPDEST POP PUSH1 0x20 DUP3 ADD MLOAD DUP2 PUSH1 0x1 ADD SWAP1 DUP2 PUSH2 0xE5A SWAP2 SWAP1 PUSH2 0x1B4A JUMP JUMPDEST POP PUSH1 0x40 DUP3 ADD MLOAD DUP2 PUSH1 0x2 ADD SSTORE PUSH1 0x60 DUP3 ADD MLOAD DUP2 PUSH1 0x3 ADD PUSH0 PUSH2 0x100 EXP DUP2 SLOAD DUP2 PUSH1 0xFF MUL NOT AND SWAP1 DUP4 PUSH1 0xFF AND MUL OR SWAP1 SSTORE POP POP POP PUSH1 0xA0 DUP3 ADD MLOAD DUP2 PUSH1 0xF ADD PUSH0 DUP3 ADD MLOAD DUP2 PUSH0 ADD SWAP1 DUP2 PUSH2 0xEA3 SWAP2 SWAP1 PUSH2 0x1B4A JUMP JUMPDEST POP PUSH1 0x20 DUP3 ADD MLOAD DUP2 PUSH1 0x1 ADD SWAP1 DUP2 PUSH2 0xEB9 SWAP2 SWAP1 PUSH2 0x1B4A JUMP JUMPDEST POP PUSH1 0x40 DUP3 ADD MLOAD DUP2 PUSH1 0x2 ADD SWAP1 DUP2 PUSH2 0xECF SWAP2 SWAP1 PUSH2 0x1B4A JUMP JUMPDEST POP PUSH1 0x60 DUP3 ADD MLOAD DUP2 PUSH1 0x3 ADD SSTORE PUSH1 0x80 DUP3 ADD MLOAD DUP2 PUSH1 0x4 ADD SWAP1 DUP2 PUSH2 0xEEF SWAP2 SWAP1 PUSH2 0x1B4A JUMP JUMPDEST POP POP POP PUSH1 0xC0 DUP3 ADD MLOAD DUP2 PUSH1 0x14 ADD PUSH0 DUP3 ADD MLOAD DUP2 PUSH0 ADD SWAP1 DUP2 PUSH2 0xF0E SWAP2 SWAP1 PUSH2 0x1B4A JUMP JUMPDEST POP PUSH1 0x20 DUP3 ADD MLOAD DUP2 PUSH1 0x1 ADD SWAP1 DUP2 PUSH2 0xF24 SWAP2 SWAP1 PUSH2 0x1B4A JUMP JUMPDEST POP PUSH1 0x40 DUP3 ADD MLOAD DUP2 PUSH1 0x2 ADD SWAP1 DUP2 PUSH2 0xF3A SWAP2 SWAP1 PUSH2 0x1B4A JUMP JUMPDEST POP PUSH1 0x60 DUP3 ADD MLOAD DUP2 PUSH1 0x3 ADD SSTORE PUSH1 0x80 DUP3 ADD MLOAD DUP2 PUSH1 0x4 ADD PUSH0 PUSH2 0x100 EXP DUP2 SLOAD DUP2 PUSH1 0xFF MUL NOT AND SWAP1 DUP4 PUSH1 0xFF AND MUL OR SWAP1 SSTORE POP POP POP PUSH1 0xE0 DUP3 ADD MLOAD DUP2 PUSH1 0x19 ADD PUSH0 DUP3 ADD MLOAD DUP2 PUSH0 ADD SWAP1 DUP2 PUSH2 0xF83 SWAP2 SWAP1 PUSH2 0x1B4A JUMP JUMPDEST POP PUSH1 0x20 DUP3 ADD MLOAD DUP2 PUSH1 0x1 ADD SWAP1 DUP2 PUSH2 0xF99 SWAP2 SWAP1 PUSH2 0x1B4A JUMP JUMPDEST POP PUSH1 0x40 DUP3 ADD MLOAD DUP2 PUSH1 0x2 ADD SSTORE PUSH1 0x60 DUP3 ADD MLOAD DUP2 PUSH1 0x3 ADD PUSH0 PUSH2 0x100 EXP DUP2 SLOAD DUP2 PUSH1 0xFF MUL NOT AND SWAP1 DUP4 PUSH1 0xFF AND MUL OR SWAP1 SSTORE POP POP POP SWAP1 POP POP POP POP POP POP POP POP POP POP POP POP POP POP JUMP JUMPDEST PUSH0 PUSH1 0x40 MLOAD SWAP1 POP SWAP1 JUMP JUMPDEST PUSH0 PUSH0 REVERT JUMPDEST PUSH0 PUSH0 REVERT JUMPDEST PUSH0 DUP2 SWAP1 POP SWAP2 SWAP1 POP JUMP JUMPDEST PUSH2 0xFFA DUP2 PUSH2 0xFE8 JUMP JUMPDEST DUP2 EQ PUSH2 0x1004 JUMPI PUSH0 PUSH0 REVERT JUMPDEST POP JUMP JUMPDEST PUSH0 DUP2 CALLDATALOAD SWAP1 POP PUSH2 0x1015 DUP2 PUSH2 0xFF1 JUMP JUMPDEST SWAP3 SWAP2 POP POP JUMP JUMPDEST PUSH0 PUSH1 0x20 DUP3 DUP5 SUB SLT ISZERO PUSH2 0x1030 JUMPI PUSH2 0x102F PUSH2 0xFE0 JUMP JUMPDEST JUMPDEST PUSH0 PUSH2 0x103D DUP5 DUP3 DUP6 ADD PUSH2 0x1007 JUMP JUMPDEST SWAP2 POP POP SWAP3 SWAP2 POP POP JUMP JUMPDEST PUSH2 0x104F DUP2 PUSH2 0xFE8 JUMP JUMPDEST DUP3 MSTORE POP POP JUMP JUMPDEST PUSH32 0x4E487B7100000000000000000000000000000000000000000000000000000000 PUSH0 MSTORE PUSH1 0x21 PUSH1 0x4 MSTORE PUSH1 0x24 PUSH0 REVERT JUMPDEST PUSH1 0x5 DUP2 LT PUSH2 0x1093 JUMPI PUSH2 0x1092 PUSH2 0x1055 JUMP JUMPDEST JUMPDEST POP JUMP JUMPDEST PUSH0 DUP2 SWAP1 POP PUSH2 0x10A3 DUP3 PUSH2 0x1082 JUMP JUMPDEST SWAP2 SWAP1 POP JUMP JUMPDEST PUSH0 PUSH2 0x10B2 DUP3 PUSH2 0x1096 JUMP JUMPDEST SWAP1 POP SWAP2 SWAP1 POP JUMP JUMPDEST PUSH2 0x10C2 DUP2 PUSH2 0x10A8 JUMP JUMPDEST DUP3 MSTORE POP POP JUMP JUMPDEST PUSH2 0x10D1 DUP2 PUSH2 0xFE8 JUMP JUMPDEST DUP3 MSTORE POP POP JUMP JUMPDEST PUSH0 DUP2 MLOAD SWAP1 POP SWAP2 SWAP1 POP JUMP JUMPDEST PUSH0 DUP3 DUP3 MSTORE PUSH1 0x20 DUP3 ADD SWAP1 POP SWAP3 SWAP2 POP POP JUMP JUMPDEST DUP3 DUP2 DUP4 MCOPY PUSH0 DUP4 DUP4 ADD MSTORE POP POP POP JUMP JUMPDEST PUSH0 PUSH1 0x1F NOT PUSH1 0x1F DUP4 ADD AND SWAP1 POP SWAP2 SWAP1 POP JUMP JUMPDEST PUSH0 PUSH2 0x1119 DUP3 PUSH2 0x10D7 JUMP JUMPDEST PUSH2 0x1123 DUP2 DUP6 PUSH2 0x10E1 JUMP JUMPDEST SWAP4 POP PUSH2 0x1133 DUP2 DUP6 PUSH1 0x20 DUP7 ADD PUSH2 0x10F1 JUMP JUMPDEST PUSH2 0x113C DUP2 PUSH2 0x10FF JUMP JUMPDEST DUP5 ADD SWAP2 POP POP SWAP3 SWAP2 POP POP JUMP JUMPDEST PUSH0 PUSH1 0xFF DUP3 AND SWAP1 POP SWAP2 SWAP1 POP JUMP JUMPDEST PUSH2 0x115C DUP2 PUSH2 0x1147 JUMP JUMPDEST DUP3 MSTORE POP POP JUMP JUMPDEST PUSH0 PUSH1 0x80 DUP4 ADD PUSH0 DUP4 ADD MLOAD PUSH2 0x1177 PUSH0 DUP7 ADD DUP3 PUSH2 0x10C8 JUMP JUMPDEST POP PUSH1 0x20 DUP4 ADD MLOAD DUP5 DUP3 SUB PUSH1 0x20 DUP7 ADD MSTORE PUSH2 0x118F DUP3 DUP3 PUSH2 0x110F JUMP JUMPDEST SWAP2 POP POP PUSH1 0x40 DUP4 ADD MLOAD PUSH2 0x11A4 PUSH1 0x40 DUP7 ADD DUP3 PUSH2 0x1153 JUMP JUMPDEST POP PUSH1 0x60 DUP4 ADD MLOAD DUP5 DUP3 SUB PUSH1 0x60 DUP7 ADD MSTORE PUSH2 0x11BC DUP3 DUP3 PUSH2 0x110F JUMP JUMPDEST SWAP2 POP POP DUP1 SWAP2 POP POP SWAP3 SWAP2 POP POP JUMP JUMPDEST PUSH0 PUSH1 0xA0 DUP4 ADD PUSH0 DUP4 ADD MLOAD DUP5 DUP3 SUB PUSH0 DUP7 ADD MSTORE PUSH2 0x11E3 DUP3 DUP3 PUSH2 0x110F JUMP JUMPDEST SWAP2 POP POP PUSH1 0x20 DUP4 ADD MLOAD DUP5 DUP3 SUB PUSH1 0x20 DUP7 ADD MSTORE PUSH2 0x11FD DUP3 DUP3 PUSH2 0x110F JUMP JUMPDEST SWAP2 POP POP PUSH1 0x40 DUP4 ADD MLOAD DUP5 DUP3 SUB PUSH1 0x40 DUP7 ADD MSTORE PUSH2 0x1217 DUP3 DUP3 PUSH2 0x110F JUMP JUMPDEST SWAP2 POP POP PUSH1 0x60 DUP4 ADD MLOAD PUSH2 0x122C PUSH1 0x60 DUP7 ADD DUP3 PUSH2 0x10C8 JUMP JUMPDEST POP PUSH1 0x80 DUP4 ADD MLOAD PUSH2 0x123F PUSH1 0x80 DUP7 ADD DUP3 PUSH2 0x1153 JUMP JUMPDEST POP DUP1 SWAP2 POP POP SWAP3 SWAP2 POP POP JUMP JUMPDEST PUSH0 PUSH1 0x80 DUP4 ADD PUSH0 DUP4 ADD MLOAD DUP5 DUP3 SUB PUSH0 DUP7 ADD MSTORE PUSH2 0x1264 DUP3 DUP3 PUSH2 0x110F JUMP JUMPDEST SWAP2 POP POP PUSH1 0x20 DUP4 ADD MLOAD DUP5 DUP3 SUB PUSH1 0x20 DUP7 ADD MSTORE PUSH2 0x127E DUP3 DUP3 PUSH2 0x110F JUMP JUMPDEST SWAP2 POP POP PUSH1 0x40 DUP4 ADD MLOAD PUSH2 0x1293 PUSH1 0x40 DUP7 ADD DUP3 PUSH2 0x10C8 JUMP JUMPDEST POP PUSH1 0x60 DUP4 ADD MLOAD PUSH2 0x12A6 PUSH1 0x60 DUP7 ADD DUP3 PUSH2 0x1153 JUMP JUMPDEST POP DUP1 SWAP2 POP POP SWAP3 SWAP2 POP POP JUMP JUMPDEST PUSH0 PUSH1 0xA0 DUP4 ADD PUSH0 DUP4 ADD MLOAD DUP5 DUP3 SUB PUSH0 DUP7 ADD MSTORE PUSH2 0x12CB DUP3 DUP3 PUSH2 0x110F JUMP JUMPDEST SWAP2 POP POP PUSH1 0x20 DUP4 ADD MLOAD DUP5 DUP3 SUB PUSH1 0x20 DUP7 ADD MSTORE PUSH2 0x12E5 DUP3 DUP3 PUSH2 0x110F JUMP JUMPDEST SWAP2 POP POP PUSH1 0x40 DUP4 ADD MLOAD DUP5 DUP3 SUB PUSH1 0x40 DUP7 ADD MSTORE PUSH2 0x12FF DUP3 DUP3 PUSH2 0x110F JUMP JUMPDEST SWAP2 POP POP PUSH1 0x60 DUP4 ADD MLOAD PUSH2 0x1314 PUSH1 0x60 DUP7 ADD DUP3 PUSH2 0x10C8 JUMP JUMPDEST POP PUSH1 0x80 DUP4 ADD MLOAD DUP5 DUP3 SUB PUSH1 0x80 DUP7 ADD MSTORE PUSH2 0x132C DUP3 DUP3 PUSH2 0x110F JUMP JUMPDEST SWAP2 POP POP DUP1 SWAP2 POP POP SWAP3 SWAP2 POP POP JUMP JUMPDEST PUSH0 PUSH1 0xA0 DUP4 ADD PUSH0 DUP4 ADD MLOAD DUP5 DUP3 SUB PUSH0 DUP7 ADD MSTORE PUSH2 0x1353 DUP3 DUP3 PUSH2 0x110F JUMP JUMPDEST SWAP2 POP POP PUSH1 0x20 DUP4 ADD MLOAD DUP5 DUP3 SUB PUSH1 0x20 DUP7 ADD MSTORE PUSH2 0x136D DUP3 DUP3 PUSH2 0x110F JUMP JUMPDEST SWAP2 POP POP PUSH1 0x40 DUP4 ADD MLOAD DUP5 DUP3 SUB PUSH1 0x40 DUP7 ADD MSTORE PUSH2 0x1387 DUP3 DUP3 PUSH2 0x110F JUMP JUMPDEST SWAP2 POP POP PUSH1 0x60 DUP4 ADD MLOAD PUSH2 0x139C PUSH1 0x60 DUP7 ADD DUP3 PUSH2 0x10C8 JUMP JUMPDEST POP PUSH1 0x80 DUP4 ADD MLOAD PUSH2 0x13AF PUSH1 0x80 DUP7 ADD DUP3 PUSH2 0x1153 JUMP JUMPDEST POP DUP1 SWAP2 POP POP SWAP3 SWAP2 POP POP JUMP JUMPDEST PUSH0 PUSH1 0x80 DUP4 ADD PUSH0 DUP4 ADD MLOAD DUP5 DUP3 SUB PUSH0 DUP7 ADD MSTORE PUSH2 0x13D4 DUP3 DUP3 PUSH2 0x110F JUMP JUMPDEST SWAP2 POP POP PUSH1 0x20 DUP4 ADD MLOAD DUP5 DUP3 SUB PUSH1 0x20 DUP7 ADD MSTORE PUSH2 0x13EE DUP3 DUP3 PUSH2 0x110F JUMP JUMPDEST SWAP2 POP POP PUSH1 0x40 DUP4 ADD MLOAD PUSH2 0x1403 PUSH1 0x40 DUP7 ADD DUP3 PUSH2 0x10C8 JUMP JUMPDEST POP PUSH1 0x60 DUP4 ADD MLOAD PUSH2 0x1416 PUSH1 0x60 DUP7 ADD DUP3 PUSH2 0x1153 JUMP JUMPDEST POP DUP1 SWAP2 POP POP SWAP3 SWAP2 POP POP JUMP JUMPDEST PUSH0 PUSH2 0x100 DUP3 ADD SWAP1 POP PUSH2 0x1435 PUSH0 DUP4 ADD DUP12 PUSH2 0x1046 JUMP JUMPDEST PUSH2 0x1442 PUSH1 0x20 DUP4 ADD DUP11 PUSH2 0x10B9 JUMP JUMPDEST DUP2 DUP2 SUB PUSH1 0x40 DUP4 ADD MSTORE PUSH2 0x1454 DUP2 DUP10 PUSH2 0x1162 JUMP JUMPDEST SWAP1 POP DUP2 DUP2 SUB PUSH1 0x60 DUP4 ADD MSTORE PUSH2 0x1468 DUP2 DUP9 PUSH2 0x11C9 JUMP JUMPDEST SWAP1 POP DUP2 DUP2 SUB PUSH1 0x80 DUP4 ADD MSTORE PUSH2 0x147C DUP2 DUP8 PUSH2 0x124A JUMP JUMPDEST SWAP1 POP DUP2 DUP2 SUB PUSH1 0xA0 DUP4 ADD MSTORE PUSH2 0x1490 DUP2 DUP7 PUSH2 0x12B1 JUMP JUMPDEST SWAP1 POP DUP2 DUP2 SUB PUSH1 0xC0 DUP4 ADD MSTORE PUSH2 0x14A4 DUP2 DUP6 PUSH2 0x1339 JUMP JUMPDEST SWAP1 POP DUP2 DUP2 SUB PUSH1 0xE0 DUP4 ADD MSTORE PUSH2 0x14B8 DUP2 DUP5 PUSH2 0x13BA JUMP JUMPDEST SWAP1 POP SWAP10 SWAP9 POP POP POP POP POP POP POP POP POP JUMP JUMPDEST PUSH0 PUSH0 REVERT JUMPDEST PUSH0 PUSH0 REVERT JUMPDEST PUSH32 0x4E487B7100000000000000000000000000000000000000000000000000000000 PUSH0 MSTORE PUSH1 0x41 PUSH1 0x4 MSTORE PUSH1 0x24 PUSH0 REVERT JUMPDEST PUSH2 0x1505 DUP3 PUSH2 0x10FF JUMP JUMPDEST DUP2 ADD DUP2 DUP2 LT PUSH8 0xFFFFFFFFFFFFFFFF DUP3 GT OR ISZERO PUSH2 0x1524 JUMPI PUSH2 0x1523 PUSH2 0x14CF JUMP JUMPDEST JUMPDEST DUP1 PUSH1 0x40 MSTORE POP POP POP JUMP JUMPDEST PUSH0 PUSH2 0x1536 PUSH2 0xFD7 JUMP JUMPDEST SWAP1 POP PUSH2 0x1542 DUP3 DUP3 PUSH2 0x14FC JUMP JUMPDEST SWAP2 SWAP1 POP JUMP JUMPDEST PUSH0 PUSH8 0xFFFFFFFFFFFFFFFF DUP3 GT ISZERO PUSH2 0x1561 JUMPI PUSH2 0x1560 PUSH2 0x14CF JUMP JUMPDEST JUMPDEST PUSH2 0x156A DUP3 PUSH2 0x10FF JUMP JUMPDEST SWAP1 POP PUSH1 0x20 DUP2 ADD SWAP1 POP SWAP2 SWAP1 POP JUMP JUMPDEST DUP3 DUP2 DUP4 CALLDATACOPY PUSH0 DUP4 DUP4 ADD MSTORE POP POP POP JUMP JUMPDEST PUSH0 PUSH2 0x1597 PUSH2 0x1592 DUP5 PUSH2 0x1547 JUMP JUMPDEST PUSH2 0x152D JUMP JUMPDEST SWAP1 POP DUP3 DUP2 MSTORE PUSH1 0x20 DUP2 ADD DUP5 DUP5 DUP5 ADD GT ISZERO PUSH2 0x15B3 JUMPI PUSH2 0x15B2 PUSH2 0x14CB JUMP JUMPDEST JUMPDEST PUSH2 0x15BE DUP5 DUP3 DUP6 PUSH2 0x1577 JUMP JUMPDEST POP SWAP4 SWAP3 POP POP POP JUMP JUMPDEST PUSH0 DUP3 PUSH1 0x1F DUP4 ADD SLT PUSH2 0x15DA JUMPI PUSH2 0x15D9 PUSH2 0x14C7 JUMP JUMPDEST JUMPDEST DUP2 CALLDATALOAD PUSH2 0x15EA DUP5 DUP3 PUSH1 0x20 DUP7 ADD PUSH2 0x1585 JUMP JUMPDEST SWAP2 POP POP SWAP3 SWAP2 POP POP JUMP JUMPDEST PUSH2 0x15FC DUP2 PUSH2 0x1147 JUMP JUMPDEST DUP2 EQ PUSH2 0x1606 JUMPI PUSH0 PUSH0 REVERT JUMPDEST POP JUMP JUMPDEST PUSH0 DUP2 CALLDATALOAD SWAP1 POP PUSH2 0x1617 DUP2 PUSH2 0x15F3 JUMP JUMPDEST SWAP3 SWAP2 POP POP JUMP JUMPDEST PUSH0 PUSH0 PUSH0 PUSH0 PUSH0 PUSH0 PUSH0 PUSH0 PUSH0 PUSH2 0x120 DUP11 DUP13 SUB SLT ISZERO PUSH2 0x163B JUMPI PUSH2 0x163A PUSH2 0xFE0 JUMP JUMPDEST JUMPDEST PUSH0 PUSH2 0x1648 DUP13 DUP3 DUP14 ADD PUSH2 0x1007 JUMP JUMPDEST SWAP10 POP POP PUSH1 0x20 DUP11 ADD CALLDATALOAD PUSH8 0xFFFFFFFFFFFFFFFF DUP2 GT ISZERO PUSH2 0x1669 JUMPI PUSH2 0x1668 PUSH2 0xFE4 JUMP JUMPDEST JUMPDEST PUSH2 0x1675 DUP13 DUP3 DUP14 ADD PUSH2 0x15C6 JUMP JUMPDEST SWAP9 POP POP PUSH1 0x40 PUSH2 0x1686 DUP13 DUP3 DUP14 ADD PUSH2 0x1609 JUMP JUMPDEST SWAP8 POP POP PUSH1 0x60 DUP11 ADD CALLDATALOAD PUSH8 0xFFFFFFFFFFFFFFFF DUP2 GT ISZERO PUSH2 0x16A7 JUMPI PUSH2 0x16A6 PUSH2 0xFE4 JUMP JUMPDEST JUMPDEST PUSH2 0x16B3 DUP13 DUP3 DUP14 ADD PUSH2 0x15C6 JUMP JUMPDEST SWAP7 POP POP PUSH1 0x80 DUP11 ADD CALLDATALOAD PUSH8 0xFFFFFFFFFFFFFFFF DUP2 GT ISZERO PUSH2 0x16D4 JUMPI PUSH2 0x16D3 PUSH2 0xFE4 JUMP JUMPDEST JUMPDEST PUSH2 0x16E0 DUP13 DUP3 DUP14 ADD PUSH2 0x15C6 JUMP JUMPDEST SWAP6 POP POP PUSH1 0xA0 DUP11 ADD CALLDATALOAD PUSH8 0xFFFFFFFFFFFFFFFF DUP2 GT ISZERO PUSH2 0x1701 JUMPI PUSH2 0x1700 PUSH2 0xFE4 JUMP JUMPDEST JUMPDEST PUSH2 0x170D DUP13 DUP3 DUP14 ADD PUSH2 0x15C6 JUMP JUMPDEST SWAP5 POP POP PUSH1 0xC0 DUP11 ADD CALLDATALOAD PUSH8 0xFFFFFFFFFFFFFFFF DUP2 GT ISZERO PUSH2 0x172E JUMPI PUSH2 0x172D PUSH2 0xFE4 JUMP JUMPDEST JUMPDEST PUSH2 0x173A DUP13 DUP3 DUP14 ADD PUSH2 0x15C6 JUMP JUMPDEST SWAP4 POP POP PUSH1 0xE0 PUSH2 0x174B DUP13 DUP3 DUP14 ADD PUSH2 0x1007 JUMP JUMPDEST SWAP3 POP POP PUSH2 0x100 DUP11 ADD CALLDATALOAD PUSH8 0xFFFFFFFFFFFFFFFF DUP2 GT ISZERO PUSH2 0x176D JUMPI PUSH2 0x176C PUSH2 0xFE4 JUMP JUMPDEST JUMPDEST PUSH2 0x1779 DUP13 DUP3 DUP14 ADD PUSH2 0x15C6 JUMP JUMPDEST SWAP2 POP POP SWAP3 SWAP6 SWAP9 POP SWAP3 SWAP6 SWAP9 POP SWAP3 SWAP6 SWAP9 JUMP JUMPDEST PUSH0 PUSH0 PUSH0 PUSH0 PUSH0 PUSH0 PUSH0 PUSH0 PUSH0 PUSH2 0x120 DUP11 DUP13 SUB SLT ISZERO PUSH2 0x17A7 JUMPI PUSH2 0x17A6 PUSH2 0xFE0 JUMP JUMPDEST JUMPDEST PUSH0 PUSH2 0x17B4 DUP13 DUP3 DUP14 ADD PUSH2 0x1007 JUMP JUMPDEST SWAP10 POP POP PUSH1 0x20 DUP11 ADD CALLDATALOAD PUSH8 0xFFFFFFFFFFFFFFFF DUP2 GT ISZERO PUSH2 0x17D5 JUMPI PUSH2 0x17D4 PUSH2 0xFE4 JUMP JUMPDEST JUMPDEST PUSH2 0x17E1 DUP13 DUP3 DUP14 ADD PUSH2 0x15C6 JUMP JUMPDEST SWAP9 POP POP PUSH1 0x40 PUSH2 0x17F2 DUP13 DUP3 DUP14 ADD PUSH2 0x1609 JUMP JUMPDEST SWAP8 POP POP PUSH1 0x60 DUP11 ADD CALLDATALOAD PUSH8 0xFFFFFFFFFFFFFFFF DUP2 GT ISZERO PUSH2 0x1813 JUMPI PUSH2 0x1812 PUSH2 0xFE4 JUMP JUMPDEST JUMPDEST PUSH2 0x181F DUP13 DUP3 DUP14 ADD PUSH2 0x15C6 JUMP JUMPDEST SWAP7 POP POP PUSH1 0x80 DUP11 ADD CALLDATALOAD PUSH8 0xFFFFFFFFFFFFFFFF DUP2 GT ISZERO PUSH2 0x1840 JUMPI PUSH2 0x183F PUSH2 0xFE4 JUMP JUMPDEST JUMPDEST PUSH2 0x184C DUP13 DUP3 DUP14 ADD PUSH2 0x15C6 JUMP JUMPDEST SWAP6 POP POP PUSH1 0xA0 DUP11 ADD CALLDATALOAD PUSH8 0xFFFFFFFFFFFFFFFF DUP2 GT ISZERO PUSH2 0x186D JUMPI PUSH2 0x186C PUSH2 0xFE4 JUMP JUMPDEST JUMPDEST PUSH2 0x1879 DUP13 DUP3 DUP14 ADD PUSH2 0x15C6 JUMP JUMPDEST SWAP5 POP POP PUSH1 0xC0 DUP11 ADD CALLDATALOAD PUSH8 0xFFFFFFFFFFFFFFFF DUP2 GT ISZERO PUSH2 0x189A JUMPI PUSH2 0x1899 PUSH2 0xFE4 JUMP JUMPDEST JUMPDEST PUSH2 0x18A6 DUP13 DUP3 DUP14 ADD PUSH2 0x15C6 JUMP JUMPDEST SWAP4 POP POP PUSH1 0xE0 PUSH2 0x18B7 DUP13 DUP3 DUP14 ADD PUSH2 0x1007 JUMP JUMPDEST SWAP3 POP POP PUSH2 0x100 PUSH2 0x18C9 DUP13 DUP3 DUP14 ADD PUSH2 0x1609 JUMP JUMPDEST SWAP2 POP POP SWAP3 SWAP6 SWAP9 POP SWAP3 SWAP6 SWAP9 POP SWAP3 SWAP6 SWAP9 JUMP JUMPDEST PUSH32 0x4E487B7100000000000000000000000000000000000000000000000000000000 PUSH0 MSTORE PUSH1 0x22 PUSH1 0x4 MSTORE PUSH1 0x24 PUSH0 REVERT JUMPDEST PUSH0 PUSH1 0x2 DUP3 DIV SWAP1 POP PUSH1 0x1 DUP3 AND DUP1 PUSH2 0x191D JUMPI PUSH1 0x7F DUP3 AND SWAP2 POP JUMPDEST PUSH1 0x20 DUP3 LT DUP2 SUB PUSH2 0x1930 JUMPI PUSH2 0x192F PUSH2 0x18D9 JUMP JUMPDEST JUMPDEST POP SWAP2 SWAP1 POP JUMP JUMPDEST PUSH32 0x4E487B7100000000000000000000000000000000000000000000000000000000 PUSH0 MSTORE PUSH1 0x11 PUSH1 0x4 MSTORE PUSH1 0x24 PUSH0 REVERT JUMPDEST PUSH0 PUSH2 0x196D DUP3 PUSH2 0xFE8 JUMP JUMPDEST SWAP2 POP PUSH32 0xFFFFFFFFFFFFFFFFFFFFFFFFFFFFFFFFFFFFFFFFFFFFFFFFFFFFFFFFFFFFFFFF DUP3 SUB PUSH2 0x199F JUMPI PUSH2 0x199E PUSH2 0x1936 JUMP JUMPDEST JUMPDEST PUSH1 0x1 DUP3 ADD SWAP1 POP SWAP2 SWAP1 POP JUMP JUMPDEST PUSH0 DUP2 SWAP1 POP DUP2 PUSH0 MSTORE PUSH1 0x20 PUSH0 KECCAK256 SWAP1 POP SWAP2 SWAP1 POP JUMP JUMPDEST PUSH0 PUSH1 0x20 PUSH1 0x1F DUP4 ADD DIV SWAP1 POP SWAP2 SWAP1 POP JUMP JUMPDEST PUSH0 DUP3 DUP3 SHL SWAP1 POP SWAP3 SWAP2 POP POP JUMP JUMPDEST PUSH0 PUSH1 0x8 DUP4 MUL PUSH2 0x1A06 PUSH32 0xFFFFFFFFFFFFFFFFFFFFFFFFFFFFFFFFFFFFFFFFFFFFFFFFFFFFFFFFFFFFFFFF DUP3 PUSH2 0x19CB JUMP JUMPDEST PUSH2 0x1A10 DUP7 DUP4 PUSH2 0x19CB JUMP JUMPDEST SWAP6 POP DUP1 NOT DUP5 AND SWAP4 POP DUP1 DUP7 AND DUP5 OR SWAP3 POP POP POP SWAP4 SWAP3 POP POP POP JUMP JUMPDEST PUSH0 DUP2 SWAP1 POP SWAP2 SWAP1 POP JUMP JUMPDEST PUSH0 PUSH2 0x1A4B PUSH2 0x1A46 PUSH2 0x1A41 DUP5 PUSH2 0xFE8 JUMP JUMPDEST PUSH2 0x1A28 JUMP JUMPDEST PUSH2 0xFE8 JUMP JUMPDEST SWAP1 POP SWAP2 SWAP1 POP JUMP JUMPDEST PUSH0 DUP2 SWAP1 POP SWAP2 SWAP1 POP JUMP JUMPDEST PUSH2 0x1A64 DUP4 PUSH2 0x1A31 JUMP JUMPDEST PUSH2 0x1A78 PUSH2 0x1A70 DUP3 PUSH2 0x1A52 JUMP JUMPDEST DUP5 DUP5 SLOAD PUSH2 0x19D7 JUMP JUMPDEST DUP3 SSTORE POP POP POP POP JUMP JUMPDEST PUSH0 PUSH0 SWAP1 POP SWAP1 JUMP JUMPDEST PUSH2 0x1A8F PUSH2 0x1A80 JUMP JUMPDEST PUSH2 0x1A9A DUP2 DUP5 DUP5 PUSH2 0x1A5B JUMP JUMPDEST POP POP POP JUMP JUMPDEST JUMPDEST DUP2 DUP2 LT ISZERO PUSH2 0x1ABD JUMPI PUSH2 0x1AB2 PUSH0 DUP3 PUSH2 0x1A87 JUMP JUMPDEST PUSH1 0x1 DUP2 ADD SWAP1 POP PUSH2 0x1AA0 JUMP JUMPDEST POP POP JUMP JUMPDEST PUSH1 0x1F DUP3 GT ISZERO PUSH2 0x1B02 JUMPI PUSH2 0x1AD3 DUP2 PUSH2 0x19AA JUMP JUMPDEST PUSH2 0x1ADC DUP5 PUSH2 0x19BC JUMP JUMPDEST DUP2 ADD PUSH1 0x20 DUP6 LT ISZERO PUSH2 0x1AEB JUMPI DUP2 SWAP1 POP JUMPDEST PUSH2 0x1AFF PUSH2 0x1AF7 DUP6 PUSH2 0x19BC JUMP JUMPDEST DUP4 ADD DUP3 PUSH2 0x1A9F JUMP JUMPDEST POP POP JUMPDEST POP POP POP JUMP JUMPDEST PUSH0 DUP3 DUP3 SHR SWAP1 POP SWAP3 SWAP2 POP POP JUMP JUMPDEST PUSH0 PUSH2 0x1B22 PUSH0 NOT DUP5 PUSH1 0x8 MUL PUSH2 0x1B07 JUMP JUMPDEST NOT DUP1 DUP4 AND SWAP2 POP POP SWAP3 SWAP2 POP POP JUMP JUMPDEST PUSH0 PUSH2 0x1B3A DUP4 DUP4 PUSH2 0x1B13 JUMP JUMPDEST SWAP2 POP DUP3 PUSH1 0x2 MUL DUP3 OR SWAP1 POP SWAP3 SWAP2 POP POP JUMP JUMPDEST PUSH2 0x1B53 DUP3 PUSH2 0x10D7 JUMP JUMPDEST PUSH8 0xFFFFFFFFFFFFFFFF DUP2 GT ISZERO PUSH2 0x1B6C JUMPI PUSH2 0x1B6B PUSH2 0x14CF JUMP JUMPDEST JUMPDEST PUSH2 0x1B76 DUP3 SLOAD PUSH2 0x1906 JUMP JUMPDEST PUSH2 0x1B81 DUP3 DUP3 DUP6 PUSH2 0x1AC1 JUMP JUMPDEST PUSH0 PUSH1 0x20 SWAP1 POP PUSH1 0x1F DUP4 GT PUSH1 0x1 DUP2 EQ PUSH2 0x1BB2 JUMPI PUSH0 DUP5 ISZERO PUSH2 0x1BA0 JUMPI DUP3 DUP8 ADD MLOAD SWAP1 POP JUMPDEST PUSH2 0x1BAA DUP6 DUP3 PUSH2 0x1B2F JUMP JUMPDEST DUP7 SSTORE POP PUSH2 0x1C11 JUMP JUMPDEST PUSH1 0x1F NOT DUP5 AND PUSH2 0x1BC0 DUP7 PUSH2 0x19AA JUMP JUMPDEST PUSH0 JUMPDEST DUP3 DUP2 LT ISZERO PUSH2 0x1BE7 JUMPI DUP5 DUP10 ADD MLOAD DUP3 SSTORE PUSH1 0x1 DUP3 ADD SWAP2 POP PUSH1 0x20 DUP6 ADD SWAP5 POP PUSH1 0x20 DUP2 ADD SWAP1 POP PUSH2 0x1BC2 JUMP JUMPDEST DUP7 DUP4 LT ISZERO PUSH2 0x1C04 JUMPI DUP5 DUP10 ADD MLOAD PUSH2 0x1C00 PUSH1 0x1F DUP10 AND DUP3 PUSH2 0x1B13 JUMP JUMPDEST DUP4 SSTORE POP JUMPDEST PUSH1 0x1 PUSH1 0x2 DUP9 MUL ADD DUP9 SSTORE POP POP POP JUMPDEST POP POP POP POP POP POP JUMP INVALID LOG2 PUSH5 0x6970667358 0x22 SLT KECCAK256 SWAP8 PUSH24 0xB670BE47FB02262A345FFA767EBD1CA0E5CA60BF5EED3B45 LOG3 TSTORE 0x24 CODECOPY MULMOD STOP PUSH5 0x736F6C6343 STOP ADDMOD SHL STOP CALLER "
				},
				"gasEstimates": {
					"creation": {
						"codeDepositCost": "1449400",
						"executionCost": "1511",
						"totalCost": "1450911"
					},
					"external": {
						"bookBusTicket(uint256,string,uint8,string,string,string,string,uint256,uint8)": "infinite",
						"bookairlineticket(uint256,string,uint8,string,string,string,string,uint256,string)": "infinite",
						"bookings(uint256)": "infinite"
					}
				},
				"methodIdentifiers": {
					"bookBusTicket(uint256,string,uint8,string,string,string,string,uint256,uint8)": "ea3f423e",
					"bookairlineticket(uint256,string,uint8,string,string,string,string,uint256,string)": "6621c583",
					"bookings(uint256)": "1dab301e"
				}
			},
			"storageLayout": {
				"storage": [
					{
						"astId": 93,
						"contract": "solidity_series.sol/bookingsite.sol:BOOKINGsite",
						"label": "bookingCounter",
						"offset": 0,
						"slot": "0",
						"type": "t_uint256"
					},
					{
						"astId": 98,
						"contract": "solidity_series.sol/bookingsite.sol:BOOKINGsite",
						"label": "bookings",
						"offset": 0,
						"slot": "1",
						"type": "t_mapping(t_uint256,t_struct(booking)91_storage)"
					}
				],
				"types": {
					"t_enum(bookingtype)7": {
						"encoding": "inplace",
						"label": "enum BOOKINGsite.bookingtype",
						"numberOfBytes": "1"
					},
					"t_mapping(t_uint256,t_struct(booking)91_storage)": {
						"encoding": "mapping",
						"key": "t_uint256",
						"label": "mapping(uint256 => struct BOOKINGsite.booking)",
						"numberOfBytes": "32",
						"value": "t_struct(booking)91_storage"
					},
					"t_string_storage": {
						"encoding": "bytes",
						"label": "string",
						"numberOfBytes": "32"
					},
					"t_struct(airlinebooking)47_storage": {
						"encoding": "inplace",
						"label": "struct BOOKINGsite.airlinebooking",
						"members": [
							{
								"astId": 38,
								"contract": "solidity_series.sol/bookingsite.sol:BOOKINGsite",
								"label": "flightnumber",
								"offset": 0,
								"slot": "0",
								"type": "t_string_storage"
							},
							{
								"astId": 40,
								"contract": "solidity_series.sol/bookingsite.sol:BOOKINGsite",
								"label": "origin",
								"offset": 0,
								"slot": "1",
								"type": "t_string_storage"
							},
							{
								"astId": 42,
								"contract": "solidity_series.sol/bookingsite.sol:BOOKINGsite",
								"label": "destination",
								"offset": 0,
								"slot": "2",
								"type": "t_string_storage"
							},
							{
								"astId": 44,
								"contract": "solidity_series.sol/bookingsite.sol:BOOKINGsite",
								"label": "dateOfJourney",
								"offset": 0,
								"slot": "3",
								"type": "t_uint256"
							},
							{
								"astId": 46,
								"contract": "solidity_series.sol/bookingsite.sol:BOOKINGsite",
								"label": "seatclass",
								"offset": 0,
								"slot": "4",
								"type": "t_string_storage"
							}
						],
						"numberOfBytes": "160"
					},
					"t_struct(booking)91_storage": {
						"encoding": "inplace",
						"label": "struct BOOKINGsite.booking",
						"members": [
							{
								"astId": 69,
								"contract": "solidity_series.sol/bookingsite.sol:BOOKINGsite",
								"label": "bookingid",
								"offset": 0,
								"slot": "0",
								"type": "t_uint256"
							},
							{
								"astId": 72,
								"contract": "solidity_series.sol/bookingsite.sol:BOOKINGsite",
								"label": "Bookingtype",
								"offset": 0,
								"slot": "1",
								"type": "t_enum(bookingtype)7"
							},
							{
								"astId": 75,
								"contract": "solidity_series.sol/bookingsite.sol:BOOKINGsite",
								"label": "User",
								"offset": 0,
								"slot": "2",
								"type": "t_struct(user)16_storage"
							},
							{
								"astId": 78,
								"contract": "solidity_series.sol/bookingsite.sol:BOOKINGsite",
								"label": "Busbooking",
								"offset": 0,
								"slot": "6",
								"type": "t_struct(busbooking)27_storage"
							},
							{
								"astId": 81,
								"contract": "solidity_series.sol/bookingsite.sol:BOOKINGsite",
								"label": "Cinemabooking",
								"offset": 0,
								"slot": "11",
								"type": "t_struct(cinemabooking)36_storage"
							},
							{
								"astId": 84,
								"contract": "solidity_series.sol/bookingsite.sol:BOOKINGsite",
								"label": "Airlinebooking",
								"offset": 0,
								"slot": "15",
								"type": "t_struct(airlinebooking)47_storage"
							},
							{
								"astId": 87,
								"contract": "solidity_series.sol/bookingsite.sol:BOOKINGsite",
								"label": "Railwaybooking",
								"offset": 0,
								"slot": "20",
								"type": "t_struct(railwaybooking)58_storage"
							},
							{
								"astId": 90,
								"contract": "solidity_series.sol/bookingsite.sol:BOOKINGsite",
								"label": "Cricketbooking",
								"offset": 0,
								"slot": "25",
								"type": "t_struct(cricketbooking)67_storage"
							}
						],
						"numberOfBytes": "928"
					},
					"t_struct(busbooking)27_storage": {
						"encoding": "inplace",
						"label": "struct BOOKINGsite.busbooking",
						"members": [
							{
								"astId": 18,
								"contract": "solidity_series.sol/bookingsite.sol:BOOKINGsite",
								"label": "busorigin",
								"offset": 0,
								"slot": "0",
								"type": "t_string_storage"
							},
							{
								"astId": 20,
								"contract": "solidity_series.sol/bookingsite.sol:BOOKINGsite",
								"label": "busnumber",
								"offset": 0,
								"slot": "1",
								"type": "t_string_storage"
							},
							{
								"astId": 22,
								"contract": "solidity_series.sol/bookingsite.sol:BOOKINGsite",
								"label": "busdestination",
								"offset": 0,
								"slot": "2",
								"type": "t_string_storage"
							},
							{
								"astId": 24,
								"contract": "solidity_series.sol/bookingsite.sol:BOOKINGsite",
								"label": "dateofjourney",
								"offset": 0,
								"slot": "3",
								"type": "t_uint256"
							},
							{
								"astId": 26,
								"contract": "solidity_series.sol/bookingsite.sol:BOOKINGsite",
								"label": "seatnumber",
								"offset": 0,
								"slot": "4",
								"type": "t_uint8"
							}
						],
						"numberOfBytes": "160"
					},
					"t_struct(cinemabooking)36_storage": {
						"encoding": "inplace",
						"label": "struct BOOKINGsite.cinemabooking",
						"members": [
							{
								"astId": 29,
								"contract": "solidity_series.sol/bookingsite.sol:BOOKINGsite",
								"label": "moviename",
								"offset": 0,
								"slot": "0",
								"type": "t_string_storage"
							},
							{
								"astId": 31,
								"contract": "solidity_series.sol/bookingsite.sol:BOOKINGsite",
								"label": "cinemahall",
								"offset": 0,
								"slot": "1",
								"type": "t_string_storage"
							},
							{
								"astId": 33,
								"contract": "solidity_series.sol/bookingsite.sol:BOOKINGsite",
								"label": "showtime",
								"offset": 0,
								"slot": "2",
								"type": "t_uint256"
							},
							{
								"astId": 35,
								"contract": "solidity_series.sol/bookingsite.sol:BOOKINGsite",
								"label": "seatnumber",
								"offset": 0,
								"slot": "3",
								"type": "t_uint8"
							}
						],
						"numberOfBytes": "128"
					},
					"t_struct(cricketbooking)67_storage": {
						"encoding": "inplace",
						"label": "struct BOOKINGsite.cricketbooking",
						"members": [
							{
								"astId": 60,
								"contract": "solidity_series.sol/bookingsite.sol:BOOKINGsite",
								"label": "matchdetails",
								"offset": 0,
								"slot": "0",
								"type": "t_string_storage"
							},
							{
								"astId": 62,
								"contract": "solidity_series.sol/bookingsite.sol:BOOKINGsite",
								"label": "stadium",
								"offset": 0,
								"slot": "1",
								"type": "t_string_storage"
							},
							{
								"astId": 64,
								"contract": "solidity_series.sol/bookingsite.sol:BOOKINGsite",
								"label": "matchdate",
								"offset": 0,
								"slot": "2",
								"type": "t_uint256"
							},
							{
								"astId": 66,
								"contract": "solidity_series.sol/bookingsite.sol:BOOKINGsite",
								"label": "seatnumber",
								"offset": 0,
								"slot": "3",
								"type": "t_uint8"
							}
						],
						"numberOfBytes": "128"
					},
					"t_struct(railwaybooking)58_storage": {
						"encoding": "inplace",
						"label": "struct BOOKINGsite.railwaybooking",
						"members": [
							{
								"astId": 49,
								"contract": "solidity_series.sol/bookingsite.sol:BOOKINGsite",
								"label": "trainnumber",
								"offset": 0,
								"slot": "0",
								"type": "t_string_storage"
							},
							{
								"astId": 51,
								"contract": "solidity_series.sol/bookingsite.sol:BOOKINGsite",
								"label": "origin",
								"offset": 0,
								"slot": "1",
								"type": "t_string_storage"
							},
							{
								"astId": 53,
								"contract": "solidity_series.sol/bookingsite.sol:BOOKINGsite",
								"label": "destination",
								"offset": 0,
								"slot": "2",
								"type": "t_string_storage"
							},
							{
								"astId": 55,
								"contract": "solidity_series.sol/bookingsite.sol:BOOKINGsite",
								"label": "dateOfJourney",
								"offset": 0,
								"slot": "3",
								"type": "t_uint256"
							},
							{
								"astId": 57,
								"contract": "solidity_series.sol/bookingsite.sol:BOOKINGsite",
								"label": "seatnumber",
								"offset": 0,
								"slot": "4",
								"type": "t_uint8"
							}
						],
						"numberOfBytes": "160"
					},
					"t_struct(user)16_storage": {
						"encoding": "inplace",
						"label": "struct BOOKINGsite.user",
						"members": [
							{
								"astId": 9,
								"contract": "solidity_series.sol/bookingsite.sol:BOOKINGsite",
								"label": "userid",
								"offset": 0,
								"slot": "0",
								"type": "t_uint256"
							},
							{
								"astId": 11,
								"contract": "solidity_series.sol/bookingsite.sol:BOOKINGsite",
								"label": "name",
								"offset": 0,
								"slot": "1",
								"type": "t_string_storage"
							},
							{
								"astId": 13,
								"contract": "solidity_series.sol/bookingsite.sol:BOOKINGsite",
								"label": "age",
								"offset": 0,
								"slot": "2",
								"type": "t_uint8"
							},
							{
								"astId": 15,
								"contract": "solidity_series.sol/bookingsite.sol:BOOKINGsite",
								"label": "contactdetails",
								"offset": 0,
								"slot": "3",
								"type": "t_string_storage"
							}
						],
						"numberOfBytes": "128"
					},
					"t_uint256": {
						"encoding": "inplace",
						"label": "uint256",
						"numberOfBytes": "32"
					},
					"t_uint8": {
						"encoding": "inplace",
						"label": "uint8",
						"numberOfBytes": "1"
					}
				}
			},
			"userdoc": {
				"kind": "user",
				"methods": {},
				"version": 1
			}
		}
	}
}