{
	"solidity_series.sol/betting-contract.sol": {
		"BettingContract": {
			"abi": [
				{
					"inputs": [],
					"stateMutability": "nonpayable",
					"type": "constructor"
				},
				{
					"anonymous": false,
					"inputs": [
						{
							"indexed": true,
							"internalType": "address",
							"name": "bettor",
							"type": "address"
						},
						{
							"indexed": false,
							"internalType": "uint256",
							"name": "amount",
							"type": "uint256"
						},
						{
							"indexed": false,
							"internalType": "enum BettingContract.Team",
							"name": "team",
							"type": "uint8"
						}
					],
					"name": "BetPlaced",
					"type": "event"
				},
				{
					"anonymous": false,
					"inputs": [
						{
							"indexed": false,
							"internalType": "enum BettingContract.Team",
							"name": "winningTeam",
							"type": "uint8"
						}
					],
					"name": "BetResolved",
					"type": "event"
				},
				{
					"anonymous": false,
					"inputs": [
						{
							"indexed": true,
							"internalType": "address",
							"name": "bettor",
							"type": "address"
						},
						{
							"indexed": false,
							"internalType": "uint256",
							"name": "amount",
							"type": "uint256"
						}
					],
					"name": "Withdrawal",
					"type": "event"
				},
				{
					"inputs": [
						{
							"internalType": "address",
							"name": "",
							"type": "address"
						}
					],
					"name": "bets",
					"outputs": [
						{
							"internalType": "uint256",
							"name": "amount",
							"type": "uint256"
						},
						{
							"internalType": "enum BettingContract.Team",
							"name": "team",
							"type": "uint8"
						}
					],
					"stateMutability": "view",
					"type": "function"
				},
				{
					"inputs": [],
					"name": "closeBetting",
					"outputs": [],
					"stateMutability": "nonpayable",
					"type": "function"
				},
				{
					"inputs": [],
					"name": "currentState",
					"outputs": [
						{
							"internalType": "enum BettingContract.BettingState",
							"name": "",
							"type": "uint8"
						}
					],
					"stateMutability": "view",
					"type": "function"
				},
				{
					"inputs": [],
					"name": "owner",
					"outputs": [
						{
							"internalType": "address",
							"name": "",
							"type": "address"
						}
					],
					"stateMutability": "view",
					"type": "function"
				},
				{
					"inputs": [
						{
							"internalType": "enum BettingContract.Team",
							"name": "_team",
							"type": "uint8"
						}
					],
					"name": "placeBet",
					"outputs": [],
					"stateMutability": "payable",
					"type": "function"
				},
				{
					"inputs": [
						{
							"internalType": "enum BettingContract.Team",
							"name": "_winningTeam",
							"type": "uint8"
						}
					],
					"name": "resolve",
					"outputs": [],
					"stateMutability": "nonpayable",
					"type": "function"
				},
				{
					"inputs": [],
					"name": "winningTeam",
					"outputs": [
						{
							"internalType": "enum BettingContract.Team",
							"name": "",
							"type": "uint8"
						}
					],
					"stateMutability": "view",
					"type": "function"
				},
				{
					"inputs": [],
					"name": "withdraw",
					"outputs": [],
					"stateMutability": "nonpayable",
					"type": "function"
				}
			],
			"devdoc": {
				"kind": "dev",
				"methods": {},
				"version": 1
			},
			"evm": {
				"assembly": "    /* \"solidity_series.sol/betting-contract.sol\":60:2330  contract BettingContract {... */\n  mstore(0x40, 0x80)\n    /* \"solidity_series.sol/betting-contract.sol\":685:779  constructor() {... */\n  callvalue\n  dup1\n  iszero\n  tag_1\n  jumpi\n  revert(0x00, 0x00)\ntag_1:\n  pop\n    /* \"solidity_series.sol/betting-contract.sol\":718:728  msg.sender */\n  caller\n    /* \"solidity_series.sol/betting-contract.sol\":710:715  owner */\n  0x00\n  0x00\n    /* \"solidity_series.sol/betting-contract.sol\":710:728  owner = msg.sender */\n  0x0100\n  exp\n  dup2\n  sload\n  dup2\n  0xffffffffffffffffffffffffffffffffffffffff\n  mul\n  not\n  and\n  swap1\n  dup4\n  0xffffffffffffffffffffffffffffffffffffffff\n  and\n  mul\n  or\n  swap1\n  sstore\n  pop\n    /* \"solidity_series.sol/betting-contract.sol\":754:771  BettingState.Open */\n  0x00\n    /* \"solidity_series.sol/betting-contract.sol\":739:751  currentState */\n  0x00\n  0x14\n    /* \"solidity_series.sol/betting-contract.sol\":739:771  currentState = BettingState.Open */\n  0x0100\n  exp\n  dup2\n  sload\n  dup2\n  0xff\n  mul\n  not\n  and\n  swap1\n  dup4\n  0x02\n  dup2\n  gt\n  iszero\n  tag_4\n  jumpi\n  tag_5\n  tag_6\n  jump\t// in\ntag_5:\ntag_4:\n  mul\n  or\n  swap1\n  sstore\n  pop\n    /* \"solidity_series.sol/betting-contract.sol\":60:2330  contract BettingContract {... */\n  jump(tag_7)\n    /* \"#utility.yul\":7:187   */\ntag_6:\n    /* \"#utility.yul\":55:132   */\n  0x4e487b7100000000000000000000000000000000000000000000000000000000\n    /* \"#utility.yul\":52:53   */\n  0x00\n    /* \"#utility.yul\":45:133   */\n  mstore\n    /* \"#utility.yul\":152:156   */\n  0x21\n    /* \"#utility.yul\":149:150   */\n  0x04\n    /* \"#utility.yul\":142:157   */\n  mstore\n    /* \"#utility.yul\":176:180   */\n  0x24\n    /* \"#utility.yul\":173:174   */\n  0x00\n    /* \"#utility.yul\":166:181   */\n  revert\n    /* \"solidity_series.sol/betting-contract.sol\":60:2330  contract BettingContract {... */\ntag_7:\n  dataSize(sub_0)\n  dup1\n  dataOffset(sub_0)\n  0x00\n  codecopy\n  0x00\n  return\nstop\n\nsub_0: assembly {\n        /* \"solidity_series.sol/betting-contract.sol\":60:2330  contract BettingContract {... */\n      mstore(0x40, 0x80)\n      jumpi(tag_1, lt(calldatasize, 0x04))\n      shr(0xe0, calldataload(0x00))\n      dup1\n      0x89a78f1a\n      gt\n      tag_10\n      jumpi\n      dup1\n      0x89a78f1a\n      eq\n      tag_6\n      jumpi\n      dup1\n      0x8da5cb5b\n      eq\n      tag_7\n      jumpi\n      dup1\n      0xa0270dbc\n      eq\n      tag_8\n      jumpi\n      dup1\n      0xde3f18e2\n      eq\n      tag_9\n      jumpi\n      jump(tag_1)\n    tag_10:\n      dup1\n      0x0c3f6acf\n      eq\n      tag_2\n      jumpi\n      dup1\n      0x15ac534d\n      eq\n      tag_3\n      jumpi\n      dup1\n      0x3ccfd60b\n      eq\n      tag_4\n      jumpi\n      dup1\n      0x43046844\n      eq\n      tag_5\n      jumpi\n    tag_1:\n      revert(0x00, 0x00)\n        /* \"solidity_series.sol/betting-contract.sol\":280:312  BettingState public currentState */\n    tag_2:\n      callvalue\n      dup1\n      iszero\n      tag_11\n      jumpi\n      revert(0x00, 0x00)\n    tag_11:\n      pop\n      tag_12\n      tag_13\n      jump\t// in\n    tag_12:\n      mload(0x40)\n      tag_14\n      swap2\n      swap1\n      tag_15\n      jump\t// in\n    tag_14:\n      mload(0x40)\n      dup1\n      swap2\n      sub\n      swap1\n      return\n        /* \"solidity_series.sol/betting-contract.sol\":2154:2327  function closeBetting() external onlyOwner {... */\n    tag_3:\n      callvalue\n      dup1\n      iszero\n      tag_16\n      jumpi\n      revert(0x00, 0x00)\n    tag_16:\n      pop\n      tag_17\n      tag_18\n      jump\t// in\n    tag_17:\n      stop\n        /* \"solidity_series.sol/betting-contract.sol\":1163:1851  function withdraw() external {... */\n    tag_4:\n      callvalue\n      dup1\n      iszero\n      tag_19\n      jumpi\n      revert(0x00, 0x00)\n    tag_19:\n      pop\n      tag_20\n      tag_21\n      jump\t// in\n    tag_20:\n      stop\n        /* \"solidity_series.sol/betting-contract.sol\":791:1151  function placeBet(Team _team) external payable {... */\n    tag_5:\n      tag_22\n      0x04\n      dup1\n      calldatasize\n      sub\n      dup2\n      add\n      swap1\n      tag_23\n      swap2\n      swap1\n      tag_24\n      jump\t// in\n    tag_23:\n      tag_25\n      jump\t// in\n    tag_22:\n      stop\n        /* \"solidity_series.sol/betting-contract.sol\":349:384  mapping(address => Bet) public bets */\n    tag_6:\n      callvalue\n      dup1\n      iszero\n      tag_26\n      jumpi\n      revert(0x00, 0x00)\n    tag_26:\n      pop\n      tag_27\n      0x04\n      dup1\n      calldatasize\n      sub\n      dup2\n      add\n      swap1\n      tag_28\n      swap2\n      swap1\n      tag_29\n      jump\t// in\n    tag_28:\n      tag_30\n      jump\t// in\n    tag_27:\n      mload(0x40)\n      tag_31\n      swap3\n      swap2\n      swap1\n      tag_32\n      jump\t// in\n    tag_31:\n      mload(0x40)\n      dup1\n      swap2\n      sub\n      swap1\n      return\n        /* \"solidity_series.sol/betting-contract.sol\":253:273  address public owner */\n    tag_7:\n      callvalue\n      dup1\n      iszero\n      tag_33\n      jumpi\n      revert(0x00, 0x00)\n    tag_33:\n      pop\n      tag_34\n      tag_35\n      jump\t// in\n    tag_34:\n      mload(0x40)\n      tag_36\n      swap2\n      swap1\n      tag_37\n      jump\t// in\n    tag_36:\n      mload(0x40)\n      dup1\n      swap2\n      sub\n      swap1\n      return\n        /* \"solidity_series.sol/betting-contract.sol\":1863:2142  function resolve(Team _winningTeam) external onlyOwner {... */\n    tag_8:\n      callvalue\n      dup1\n      iszero\n      tag_38\n      jumpi\n      revert(0x00, 0x00)\n    tag_38:\n      pop\n      tag_39\n      0x04\n      dup1\n      calldatasize\n      sub\n      dup2\n      add\n      swap1\n      tag_40\n      swap2\n      swap1\n      tag_24\n      jump\t// in\n    tag_40:\n      tag_41\n      jump\t// in\n    tag_39:\n      stop\n        /* \"solidity_series.sol/betting-contract.sol\":319:342  Team public winningTeam */\n    tag_9:\n      callvalue\n      dup1\n      iszero\n      tag_42\n      jumpi\n      revert(0x00, 0x00)\n    tag_42:\n      pop\n      tag_43\n      tag_44\n      jump\t// in\n    tag_43:\n      mload(0x40)\n      tag_45\n      swap2\n      swap1\n      tag_46\n      jump\t// in\n    tag_45:\n      mload(0x40)\n      dup1\n      swap2\n      sub\n      swap1\n      return\n        /* \"solidity_series.sol/betting-contract.sol\":280:312  BettingState public currentState */\n    tag_13:\n      0x00\n      0x14\n      swap1\n      sload\n      swap1\n      0x0100\n      exp\n      swap1\n      div\n      0xff\n      and\n      dup2\n      jump\t// out\n        /* \"solidity_series.sol/betting-contract.sol\":2154:2327  function closeBetting() external onlyOwner {... */\n    tag_18:\n        /* \"solidity_series.sol/betting-contract.sol\":629:634  owner */\n      0x00\n      0x00\n      swap1\n      sload\n      swap1\n      0x0100\n      exp\n      swap1\n      div\n      0xffffffffffffffffffffffffffffffffffffffff\n      and\n        /* \"solidity_series.sol/betting-contract.sol\":615:634  msg.sender == owner */\n      0xffffffffffffffffffffffffffffffffffffffff\n      and\n        /* \"solidity_series.sol/betting-contract.sol\":615:625  msg.sender */\n      caller\n        /* \"solidity_series.sol/betting-contract.sol\":615:634  msg.sender == owner */\n      0xffffffffffffffffffffffffffffffffffffffff\n      and\n      eq\n        /* \"solidity_series.sol/betting-contract.sol\":607:653  require(msg.sender == owner, \"Not the owner.\") */\n      tag_48\n      jumpi\n      mload(0x40)\n      0x08c379a000000000000000000000000000000000000000000000000000000000\n      dup2\n      mstore\n      0x04\n      add\n      tag_49\n      swap1\n      tag_50\n      jump\t// in\n    tag_49:\n      mload(0x40)\n      dup1\n      swap2\n      sub\n      swap1\n      revert\n    tag_48:\n        /* \"solidity_series.sol/betting-contract.sol\":2232:2249  BettingState.Open */\n      0x00\n        /* \"solidity_series.sol/betting-contract.sol\":2216:2249  currentState == BettingState.Open */\n      0x02\n      dup2\n      gt\n      iszero\n      tag_52\n      jumpi\n      tag_53\n      tag_54\n      jump\t// in\n    tag_53:\n    tag_52:\n        /* \"solidity_series.sol/betting-contract.sol\":2216:2228  currentState */\n      0x00\n      0x14\n      swap1\n      sload\n      swap1\n      0x0100\n      exp\n      swap1\n      div\n      0xff\n      and\n        /* \"solidity_series.sol/betting-contract.sol\":2216:2249  currentState == BettingState.Open */\n      0x02\n      dup2\n      gt\n      iszero\n      tag_55\n      jumpi\n      tag_56\n      tag_54\n      jump\t// in\n    tag_56:\n    tag_55:\n      eq\n        /* \"solidity_series.sol/betting-contract.sol\":2208:2274  require(currentState == BettingState.Open, \"Betting is not open.\") */\n      tag_57\n      jumpi\n      mload(0x40)\n      0x08c379a000000000000000000000000000000000000000000000000000000000\n      dup2\n      mstore\n      0x04\n      add\n      tag_58\n      swap1\n      tag_59\n      jump\t// in\n    tag_58:\n      mload(0x40)\n      dup1\n      swap2\n      sub\n      swap1\n      revert\n    tag_57:\n        /* \"solidity_series.sol/betting-contract.sol\":2300:2319  BettingState.Closed */\n      0x01\n        /* \"solidity_series.sol/betting-contract.sol\":2285:2297  currentState */\n      0x00\n      0x14\n        /* \"solidity_series.sol/betting-contract.sol\":2285:2319  currentState = BettingState.Closed */\n      0x0100\n      exp\n      dup2\n      sload\n      dup2\n      0xff\n      mul\n      not\n      and\n      swap1\n      dup4\n      0x02\n      dup2\n      gt\n      iszero\n      tag_60\n      jumpi\n      tag_61\n      tag_54\n      jump\t// in\n    tag_61:\n    tag_60:\n      mul\n      or\n      swap1\n      sstore\n      pop\n        /* \"solidity_series.sol/betting-contract.sol\":2154:2327  function closeBetting() external onlyOwner {... */\n      jump\t// out\n        /* \"solidity_series.sol/betting-contract.sol\":1163:1851  function withdraw() external {... */\n    tag_21:\n        /* \"solidity_series.sol/betting-contract.sol\":1227:1248  BettingState.Resolved */\n      0x02\n        /* \"solidity_series.sol/betting-contract.sol\":1211:1248  currentState == BettingState.Resolved */\n      dup1\n      dup2\n      gt\n      iszero\n      tag_63\n      jumpi\n      tag_64\n      tag_54\n      jump\t// in\n    tag_64:\n    tag_63:\n        /* \"solidity_series.sol/betting-contract.sol\":1211:1223  currentState */\n      0x00\n      0x14\n      swap1\n      sload\n      swap1\n      0x0100\n      exp\n      swap1\n      div\n      0xff\n      and\n        /* \"solidity_series.sol/betting-contract.sol\":1211:1248  currentState == BettingState.Resolved */\n      0x02\n      dup2\n      gt\n      iszero\n      tag_65\n      jumpi\n      tag_66\n      tag_54\n      jump\t// in\n    tag_66:\n    tag_65:\n      eq\n        /* \"solidity_series.sol/betting-contract.sol\":1203:1281  require(currentState == BettingState.Resolved, \"Betting is not resolved yet.\") */\n      tag_67\n      jumpi\n      mload(0x40)\n      0x08c379a000000000000000000000000000000000000000000000000000000000\n      dup2\n      mstore\n      0x04\n      add\n      tag_68\n      swap1\n      tag_69\n      jump\t// in\n    tag_68:\n      mload(0x40)\n      dup1\n      swap2\n      sub\n      swap1\n      revert\n    tag_67:\n        /* \"solidity_series.sol/betting-contract.sol\":1292:1310  Bet memory userBet */\n      0x00\n        /* \"solidity_series.sol/betting-contract.sol\":1313:1317  bets */\n      0x01\n        /* \"solidity_series.sol/betting-contract.sol\":1313:1329  bets[msg.sender] */\n      0x00\n        /* \"solidity_series.sol/betting-contract.sol\":1318:1328  msg.sender */\n      caller\n        /* \"solidity_series.sol/betting-contract.sol\":1313:1329  bets[msg.sender] */\n      0xffffffffffffffffffffffffffffffffffffffff\n      and\n      0xffffffffffffffffffffffffffffffffffffffff\n      and\n      dup2\n      mstore\n      0x20\n      add\n      swap1\n      dup2\n      mstore\n      0x20\n      add\n      0x00\n      keccak256\n        /* \"solidity_series.sol/betting-contract.sol\":1292:1329  Bet memory userBet = bets[msg.sender] */\n      mload(0x40)\n      dup1\n      0x40\n      add\n      0x40\n      mstore\n      swap1\n      dup2\n      0x00\n      dup3\n      add\n      sload\n      dup2\n      mstore\n      0x20\n      add\n      0x01\n      dup3\n      add\n      0x00\n      swap1\n      sload\n      swap1\n      0x0100\n      exp\n      swap1\n      div\n      0xff\n      and\n      0x01\n      dup2\n      gt\n      iszero\n      tag_70\n      jumpi\n      tag_71\n      tag_54\n      jump\t// in\n    tag_71:\n    tag_70:\n      0x01\n      dup2\n      gt\n      iszero\n      tag_72\n      jumpi\n      tag_73\n      tag_54\n      jump\t// in\n    tag_73:\n    tag_72:\n      dup2\n      mstore\n      pop\n      pop\n      swap1\n      pop\n        /* \"solidity_series.sol/betting-contract.sol\":1375:1376  0 */\n      0x00\n        /* \"solidity_series.sol/betting-contract.sol\":1358:1365  userBet */\n      dup2\n        /* \"solidity_series.sol/betting-contract.sol\":1358:1372  userBet.amount */\n      0x00\n      add\n      mload\n        /* \"solidity_series.sol/betting-contract.sol\":1358:1376  userBet.amount > 0 */\n      gt\n        /* \"solidity_series.sol/betting-contract.sol\":1350:1395  require(userBet.amount > 0, \"No bet placed.\") */\n      tag_74\n      jumpi\n      mload(0x40)\n      0x08c379a000000000000000000000000000000000000000000000000000000000\n      dup2\n      mstore\n      0x04\n      add\n      tag_75\n      swap1\n      tag_76\n      jump\t// in\n    tag_75:\n      mload(0x40)\n      dup1\n      swap2\n      sub\n      swap1\n      revert\n    tag_74:\n        /* \"solidity_series.sol/betting-contract.sol\":1436:1447  winningTeam */\n      0x00\n      0x15\n      swap1\n      sload\n      swap1\n      0x0100\n      exp\n      swap1\n      div\n      0xff\n      and\n        /* \"solidity_series.sol/betting-contract.sol\":1420:1447  userBet.team == winningTeam */\n      0x01\n      dup2\n      gt\n      iszero\n      tag_77\n      jumpi\n      tag_78\n      tag_54\n      jump\t// in\n    tag_78:\n    tag_77:\n        /* \"solidity_series.sol/betting-contract.sol\":1420:1427  userBet */\n      dup2\n        /* \"solidity_series.sol/betting-contract.sol\":1420:1432  userBet.team */\n      0x20\n      add\n      mload\n        /* \"solidity_series.sol/betting-contract.sol\":1420:1447  userBet.team == winningTeam */\n      0x01\n      dup2\n      gt\n      iszero\n      tag_79\n      jumpi\n      tag_80\n      tag_54\n      jump\t// in\n    tag_80:\n    tag_79:\n      sub\n        /* \"solidity_series.sol/betting-contract.sol\":1416:1844  if (userBet.team == winningTeam) {... */\n      tag_81\n      jumpi\n        /* \"solidity_series.sol/betting-contract.sol\":1464:1485  uint amountToWithdraw */\n      0x00\n        /* \"solidity_series.sol/betting-contract.sol\":1505:1506  2 */\n      0x02\n        /* \"solidity_series.sol/betting-contract.sol\":1488:1495  userBet */\n      dup3\n        /* \"solidity_series.sol/betting-contract.sol\":1488:1502  userBet.amount */\n      0x00\n      add\n      mload\n        /* \"solidity_series.sol/betting-contract.sol\":1488:1506  userBet.amount * 2 */\n      tag_82\n      swap2\n      swap1\n      tag_83\n      jump\t// in\n    tag_82:\n        /* \"solidity_series.sol/betting-contract.sol\":1464:1506  uint amountToWithdraw = userBet.amount * 2 */\n      swap1\n      pop\n        /* \"solidity_series.sol/betting-contract.sol\":1585:1586  0 */\n      0x00\n        /* \"solidity_series.sol/betting-contract.sol\":1559:1563  bets */\n      0x01\n        /* \"solidity_series.sol/betting-contract.sol\":1559:1575  bets[msg.sender] */\n      0x00\n        /* \"solidity_series.sol/betting-contract.sol\":1564:1574  msg.sender */\n      caller\n        /* \"solidity_series.sol/betting-contract.sol\":1559:1575  bets[msg.sender] */\n      0xffffffffffffffffffffffffffffffffffffffff\n      and\n      0xffffffffffffffffffffffffffffffffffffffff\n      and\n      dup2\n      mstore\n      0x20\n      add\n      swap1\n      dup2\n      mstore\n      0x20\n      add\n      0x00\n      keccak256\n        /* \"solidity_series.sol/betting-contract.sol\":1559:1582  bets[msg.sender].amount */\n      0x00\n      add\n        /* \"solidity_series.sol/betting-contract.sol\":1559:1586  bets[msg.sender].amount = 0 */\n      dup2\n      swap1\n      sstore\n      pop\n        /* \"solidity_series.sol/betting-contract.sol\":1661:1671  msg.sender */\n      caller\n        /* \"solidity_series.sol/betting-contract.sol\":1653:1681  payable(msg.sender).transfer */\n      0xffffffffffffffffffffffffffffffffffffffff\n      and\n        /* \"solidity_series.sol/betting-contract.sol\":1653:1699  payable(msg.sender).transfer(amountToWithdraw) */\n      0x08fc\n        /* \"solidity_series.sol/betting-contract.sol\":1682:1698  amountToWithdraw */\n      dup3\n        /* \"solidity_series.sol/betting-contract.sol\":1653:1699  payable(msg.sender).transfer(amountToWithdraw) */\n      swap1\n      dup2\n      iszero\n      mul\n      swap1\n      mload(0x40)\n      0x00\n      mload(0x40)\n      dup1\n      dup4\n      sub\n      dup2\n      dup6\n      dup9\n      dup9\n      call\n      swap4\n      pop\n      pop\n      pop\n      pop\n      iszero\n      dup1\n      iszero\n      tag_85\n      jumpi\n      returndatacopy(0x00, 0x00, returndatasize)\n      revert(0x00, returndatasize)\n    tag_85:\n      pop\n        /* \"solidity_series.sol/betting-contract.sol\":1744:1754  msg.sender */\n      caller\n        /* \"solidity_series.sol/betting-contract.sol\":1733:1773  Withdrawal(msg.sender, amountToWithdraw) */\n      0xffffffffffffffffffffffffffffffffffffffff\n      and\n      0x7fcf532c15f0a6db0bd6d0e038bea71d30d808c7d98cb3bf7268a95bf5081b65\n        /* \"solidity_series.sol/betting-contract.sol\":1756:1772  amountToWithdraw */\n      dup3\n        /* \"solidity_series.sol/betting-contract.sol\":1733:1773  Withdrawal(msg.sender, amountToWithdraw) */\n      mload(0x40)\n      tag_86\n      swap2\n      swap1\n      tag_87\n      jump\t// in\n    tag_86:\n      mload(0x40)\n      dup1\n      swap2\n      sub\n      swap1\n      log2\n        /* \"solidity_series.sol/betting-contract.sol\":1449:1785  {... */\n      pop\n        /* \"solidity_series.sol/betting-contract.sol\":1416:1844  if (userBet.team == winningTeam) {... */\n      jump(tag_88)\n    tag_81:\n        /* \"solidity_series.sol/betting-contract.sol\":1806:1832  revert(\"You did not win.\") */\n      mload(0x40)\n      0x08c379a000000000000000000000000000000000000000000000000000000000\n      dup2\n      mstore\n      0x04\n      add\n      tag_89\n      swap1\n      tag_90\n      jump\t// in\n    tag_89:\n      mload(0x40)\n      dup1\n      swap2\n      sub\n      swap1\n      revert\n        /* \"solidity_series.sol/betting-contract.sol\":1416:1844  if (userBet.team == winningTeam) {... */\n    tag_88:\n        /* \"solidity_series.sol/betting-contract.sol\":1192:1851  {... */\n      pop\n        /* \"solidity_series.sol/betting-contract.sol\":1163:1851  function withdraw() external {... */\n      jump\t// out\n        /* \"solidity_series.sol/betting-contract.sol\":791:1151  function placeBet(Team _team) external payable {... */\n    tag_25:\n        /* \"solidity_series.sol/betting-contract.sol\":873:890  BettingState.Open */\n      0x00\n        /* \"solidity_series.sol/betting-contract.sol\":857:890  currentState == BettingState.Open */\n      0x02\n      dup2\n      gt\n      iszero\n      tag_92\n      jumpi\n      tag_93\n      tag_54\n      jump\t// in\n    tag_93:\n    tag_92:\n        /* \"solidity_series.sol/betting-contract.sol\":857:869  currentState */\n      0x00\n      0x14\n      swap1\n      sload\n      swap1\n      0x0100\n      exp\n      swap1\n      div\n      0xff\n      and\n        /* \"solidity_series.sol/betting-contract.sol\":857:890  currentState == BettingState.Open */\n      0x02\n      dup2\n      gt\n      iszero\n      tag_94\n      jumpi\n      tag_95\n      tag_54\n      jump\t// in\n    tag_95:\n    tag_94:\n      eq\n        /* \"solidity_series.sol/betting-contract.sol\":849:915  require(currentState == BettingState.Open, \"Betting is not open.\") */\n      tag_96\n      jumpi\n      mload(0x40)\n      0x08c379a000000000000000000000000000000000000000000000000000000000\n      dup2\n      mstore\n      0x04\n      add\n      tag_97\n      swap1\n      tag_59\n      jump\t// in\n    tag_97:\n      mload(0x40)\n      dup1\n      swap2\n      sub\n      swap1\n      revert\n    tag_96:\n        /* \"solidity_series.sol/betting-contract.sol\":946:947  0 */\n      0x00\n        /* \"solidity_series.sol/betting-contract.sol\":934:943  msg.value */\n      callvalue\n        /* \"solidity_series.sol/betting-contract.sol\":934:947  msg.value > 0 */\n      gt\n        /* \"solidity_series.sol/betting-contract.sol\":926:989  require(msg.value > 0, \"Bet amount must be greater than zero.\") */\n      tag_98\n      jumpi\n      mload(0x40)\n      0x08c379a000000000000000000000000000000000000000000000000000000000\n      dup2\n      mstore\n      0x04\n      add\n      tag_99\n      swap1\n      tag_100\n      jump\t// in\n    tag_99:\n      mload(0x40)\n      dup1\n      swap2\n      sub\n      swap1\n      revert\n    tag_98:\n        /* \"solidity_series.sol/betting-contract.sol\":1057:1078  Bet(msg.value, _team) */\n      mload(0x40)\n      dup1\n      0x40\n      add\n      0x40\n      mstore\n      dup1\n        /* \"solidity_series.sol/betting-contract.sol\":1061:1070  msg.value */\n      callvalue\n        /* \"solidity_series.sol/betting-contract.sol\":1057:1078  Bet(msg.value, _team) */\n      dup2\n      mstore\n      0x20\n      add\n        /* \"solidity_series.sol/betting-contract.sol\":1072:1077  _team */\n      dup3\n        /* \"solidity_series.sol/betting-contract.sol\":1057:1078  Bet(msg.value, _team) */\n      0x01\n      dup2\n      gt\n      iszero\n      tag_101\n      jumpi\n      tag_102\n      tag_54\n      jump\t// in\n    tag_102:\n    tag_101:\n      dup2\n      mstore\n      pop\n        /* \"solidity_series.sol/betting-contract.sol\":1038:1042  bets */\n      0x01\n        /* \"solidity_series.sol/betting-contract.sol\":1038:1054  bets[msg.sender] */\n      0x00\n        /* \"solidity_series.sol/betting-contract.sol\":1043:1053  msg.sender */\n      caller\n        /* \"solidity_series.sol/betting-contract.sol\":1038:1054  bets[msg.sender] */\n      0xffffffffffffffffffffffffffffffffffffffff\n      and\n      0xffffffffffffffffffffffffffffffffffffffff\n      and\n      dup2\n      mstore\n      0x20\n      add\n      swap1\n      dup2\n      mstore\n      0x20\n      add\n      0x00\n      keccak256\n        /* \"solidity_series.sol/betting-contract.sol\":1038:1078  bets[msg.sender] = Bet(msg.value, _team) */\n      0x00\n      dup3\n      add\n      mload\n      dup2\n      0x00\n      add\n      sstore\n      0x20\n      dup3\n      add\n      mload\n      dup2\n      0x01\n      add\n      exp(0x0100, 0x00)\n      dup2\n      sload\n      dup2\n      0xff\n      mul\n      not\n      and\n      swap1\n      dup4\n      0x01\n      dup2\n      gt\n      iszero\n      tag_103\n      jumpi\n      tag_104\n      tag_54\n      jump\t// in\n    tag_104:\n    tag_103:\n      mul\n      or\n      swap1\n      sstore\n      pop\n      swap1\n      pop\n      pop\n        /* \"solidity_series.sol/betting-contract.sol\":1114:1124  msg.sender */\n      caller\n        /* \"solidity_series.sol/betting-contract.sol\":1104:1143  BetPlaced(msg.sender, msg.value, _team) */\n      0xffffffffffffffffffffffffffffffffffffffff\n      and\n      0x7df19a783369d9cefb06e18b396518f817b48766b74157758eda633a62f58fa7\n        /* \"solidity_series.sol/betting-contract.sol\":1126:1135  msg.value */\n      callvalue\n        /* \"solidity_series.sol/betting-contract.sol\":1137:1142  _team */\n      dup4\n        /* \"solidity_series.sol/betting-contract.sol\":1104:1143  BetPlaced(msg.sender, msg.value, _team) */\n      mload(0x40)\n      tag_105\n      swap3\n      swap2\n      swap1\n      tag_32\n      jump\t// in\n    tag_105:\n      mload(0x40)\n      dup1\n      swap2\n      sub\n      swap1\n      log2\n        /* \"solidity_series.sol/betting-contract.sol\":791:1151  function placeBet(Team _team) external payable {... */\n      pop\n      jump\t// out\n        /* \"solidity_series.sol/betting-contract.sol\":349:384  mapping(address => Bet) public bets */\n    tag_30:\n      mstore(0x20, 0x01)\n      dup1\n      0x00\n      mstore\n      keccak256(0x00, 0x40)\n      0x00\n      swap2\n      pop\n      swap1\n      pop\n      dup1\n      0x00\n      add\n      sload\n      swap1\n      dup1\n      0x01\n      add\n      0x00\n      swap1\n      sload\n      swap1\n      0x0100\n      exp\n      swap1\n      div\n      0xff\n      and\n      swap1\n      pop\n      dup3\n      jump\t// out\n        /* \"solidity_series.sol/betting-contract.sol\":253:273  address public owner */\n    tag_35:\n      0x00\n      0x00\n      swap1\n      sload\n      swap1\n      0x0100\n      exp\n      swap1\n      div\n      0xffffffffffffffffffffffffffffffffffffffff\n      and\n      dup2\n      jump\t// out\n        /* \"solidity_series.sol/betting-contract.sol\":1863:2142  function resolve(Team _winningTeam) external onlyOwner {... */\n    tag_41:\n        /* \"solidity_series.sol/betting-contract.sol\":629:634  owner */\n      0x00\n      0x00\n      swap1\n      sload\n      swap1\n      0x0100\n      exp\n      swap1\n      div\n      0xffffffffffffffffffffffffffffffffffffffff\n      and\n        /* \"solidity_series.sol/betting-contract.sol\":615:634  msg.sender == owner */\n      0xffffffffffffffffffffffffffffffffffffffff\n      and\n        /* \"solidity_series.sol/betting-contract.sol\":615:625  msg.sender */\n      caller\n        /* \"solidity_series.sol/betting-contract.sol\":615:634  msg.sender == owner */\n      0xffffffffffffffffffffffffffffffffffffffff\n      and\n      eq\n        /* \"solidity_series.sol/betting-contract.sol\":607:653  require(msg.sender == owner, \"Not the owner.\") */\n      tag_107\n      jumpi\n      mload(0x40)\n      0x08c379a000000000000000000000000000000000000000000000000000000000\n      dup2\n      mstore\n      0x04\n      add\n      tag_108\n      swap1\n      tag_50\n      jump\t// in\n    tag_108:\n      mload(0x40)\n      dup1\n      swap2\n      sub\n      swap1\n      revert\n    tag_107:\n        /* \"solidity_series.sol/betting-contract.sol\":1953:1972  BettingState.Closed */\n      0x01\n        /* \"solidity_series.sol/betting-contract.sol\":1937:1972  currentState == BettingState.Closed */\n      0x02\n      dup2\n      gt\n      iszero\n      tag_110\n      jumpi\n      tag_111\n      tag_54\n      jump\t// in\n    tag_111:\n    tag_110:\n        /* \"solidity_series.sol/betting-contract.sol\":1937:1949  currentState */\n      0x00\n      0x14\n      swap1\n      sload\n      swap1\n      0x0100\n      exp\n      swap1\n      div\n      0xff\n      and\n        /* \"solidity_series.sol/betting-contract.sol\":1937:1972  currentState == BettingState.Closed */\n      0x02\n      dup2\n      gt\n      iszero\n      tag_112\n      jumpi\n      tag_113\n      tag_54\n      jump\t// in\n    tag_113:\n    tag_112:\n      eq\n        /* \"solidity_series.sol/betting-contract.sol\":1929:1999  require(currentState == BettingState.Closed, \"Betting is not closed.\") */\n      tag_114\n      jumpi\n      mload(0x40)\n      0x08c379a000000000000000000000000000000000000000000000000000000000\n      dup2\n      mstore\n      0x04\n      add\n      tag_115\n      swap1\n      tag_116\n      jump\t// in\n    tag_115:\n      mload(0x40)\n      dup1\n      swap2\n      sub\n      swap1\n      revert\n    tag_114:\n        /* \"solidity_series.sol/betting-contract.sol\":2024:2036  _winningTeam */\n      dup1\n        /* \"solidity_series.sol/betting-contract.sol\":2010:2021  winningTeam */\n      0x00\n      0x15\n        /* \"solidity_series.sol/betting-contract.sol\":2010:2036  winningTeam = _winningTeam */\n      0x0100\n      exp\n      dup2\n      sload\n      dup2\n      0xff\n      mul\n      not\n      and\n      swap1\n      dup4\n      0x01\n      dup2\n      gt\n      iszero\n      tag_117\n      jumpi\n      tag_118\n      tag_54\n      jump\t// in\n    tag_118:\n    tag_117:\n      mul\n      or\n      swap1\n      sstore\n      pop\n        /* \"solidity_series.sol/betting-contract.sol\":2062:2083  BettingState.Resolved */\n      0x02\n        /* \"solidity_series.sol/betting-contract.sol\":2047:2059  currentState */\n      0x00\n      0x14\n        /* \"solidity_series.sol/betting-contract.sol\":2047:2083  currentState = BettingState.Resolved */\n      0x0100\n      exp\n      dup2\n      sload\n      dup2\n      0xff\n      mul\n      not\n      and\n      swap1\n      dup4\n      0x02\n      dup2\n      gt\n      iszero\n      tag_119\n      jumpi\n      tag_120\n      tag_54\n      jump\t// in\n    tag_120:\n    tag_119:\n      mul\n      or\n      swap1\n      sstore\n      pop\n        /* \"solidity_series.sol/betting-contract.sol\":2109:2134  BetResolved(_winningTeam) */\n      0xd6bcd4b6873d691163f1aff2d5585378623aef08e17513a5253eabe39c65dc50\n        /* \"solidity_series.sol/betting-contract.sol\":2121:2133  _winningTeam */\n      dup2\n        /* \"solidity_series.sol/betting-contract.sol\":2109:2134  BetResolved(_winningTeam) */\n      mload(0x40)\n      tag_121\n      swap2\n      swap1\n      tag_46\n      jump\t// in\n    tag_121:\n      mload(0x40)\n      dup1\n      swap2\n      sub\n      swap1\n      log1\n        /* \"solidity_series.sol/betting-contract.sol\":1863:2142  function resolve(Team _winningTeam) external onlyOwner {... */\n      pop\n      jump\t// out\n        /* \"solidity_series.sol/betting-contract.sol\":319:342  Team public winningTeam */\n    tag_44:\n      0x00\n      0x15\n      swap1\n      sload\n      swap1\n      0x0100\n      exp\n      swap1\n      div\n      0xff\n      and\n      dup2\n      jump\t// out\n        /* \"#utility.yul\":7:187   */\n    tag_54:\n        /* \"#utility.yul\":55:132   */\n      0x4e487b7100000000000000000000000000000000000000000000000000000000\n        /* \"#utility.yul\":52:53   */\n      0x00\n        /* \"#utility.yul\":45:133   */\n      mstore\n        /* \"#utility.yul\":152:156   */\n      0x21\n        /* \"#utility.yul\":149:150   */\n      0x04\n        /* \"#utility.yul\":142:157   */\n      mstore\n        /* \"#utility.yul\":176:180   */\n      0x24\n        /* \"#utility.yul\":173:174   */\n      0x00\n        /* \"#utility.yul\":166:181   */\n      revert\n        /* \"#utility.yul\":193:312   */\n    tag_122:\n        /* \"#utility.yul\":280:281   */\n      0x03\n        /* \"#utility.yul\":273:278   */\n      dup2\n        /* \"#utility.yul\":270:282   */\n      lt\n        /* \"#utility.yul\":260:306   */\n      tag_161\n      jumpi\n        /* \"#utility.yul\":286:304   */\n      tag_162\n      tag_54\n      jump\t// in\n    tag_162:\n        /* \"#utility.yul\":260:306   */\n    tag_161:\n        /* \"#utility.yul\":193:312   */\n      pop\n      jump\t// out\n        /* \"#utility.yul\":318:457   */\n    tag_123:\n        /* \"#utility.yul\":369:376   */\n      0x00\n        /* \"#utility.yul\":398:403   */\n      dup2\n        /* \"#utility.yul\":387:403   */\n      swap1\n      pop\n        /* \"#utility.yul\":404:451   */\n      tag_164\n        /* \"#utility.yul\":445:450   */\n      dup3\n        /* \"#utility.yul\":404:451   */\n      tag_122\n      jump\t// in\n    tag_164:\n        /* \"#utility.yul\":318:457   */\n      swap2\n      swap1\n      pop\n      jump\t// out\n        /* \"#utility.yul\":463:602   */\n    tag_124:\n        /* \"#utility.yul\":525:534   */\n      0x00\n        /* \"#utility.yul\":558:596   */\n      tag_166\n        /* \"#utility.yul\":590:595   */\n      dup3\n        /* \"#utility.yul\":558:596   */\n      tag_123\n      jump\t// in\n    tag_166:\n        /* \"#utility.yul\":545:596   */\n      swap1\n      pop\n        /* \"#utility.yul\":463:602   */\n      swap2\n      swap1\n      pop\n      jump\t// out\n        /* \"#utility.yul\":608:763   */\n    tag_125:\n        /* \"#utility.yul\":707:756   */\n      tag_168\n        /* \"#utility.yul\":750:755   */\n      dup2\n        /* \"#utility.yul\":707:756   */\n      tag_124\n      jump\t// in\n    tag_168:\n        /* \"#utility.yul\":702:705   */\n      dup3\n        /* \"#utility.yul\":695:757   */\n      mstore\n        /* \"#utility.yul\":608:763   */\n      pop\n      pop\n      jump\t// out\n        /* \"#utility.yul\":769:1015   */\n    tag_15:\n        /* \"#utility.yul\":874:878   */\n      0x00\n        /* \"#utility.yul\":912:914   */\n      0x20\n        /* \"#utility.yul\":901:910   */\n      dup3\n        /* \"#utility.yul\":897:915   */\n      add\n        /* \"#utility.yul\":889:915   */\n      swap1\n      pop\n        /* \"#utility.yul\":925:1008   */\n      tag_170\n        /* \"#utility.yul\":1005:1006   */\n      0x00\n        /* \"#utility.yul\":994:1003   */\n      dup4\n        /* \"#utility.yul\":990:1007   */\n      add\n        /* \"#utility.yul\":981:987   */\n      dup5\n        /* \"#utility.yul\":925:1008   */\n      tag_125\n      jump\t// in\n    tag_170:\n        /* \"#utility.yul\":769:1015   */\n      swap3\n      swap2\n      pop\n      pop\n      jump\t// out\n        /* \"#utility.yul\":1102:1219   */\n    tag_127:\n        /* \"#utility.yul\":1211:1212   */\n      0x00\n        /* \"#utility.yul\":1208:1209   */\n      0x00\n        /* \"#utility.yul\":1201:1213   */\n      revert\n        /* \"#utility.yul\":1348:1453   */\n    tag_129:\n        /* \"#utility.yul\":1427:1428   */\n      0x02\n        /* \"#utility.yul\":1420:1425   */\n      dup2\n        /* \"#utility.yul\":1417:1429   */\n      lt\n        /* \"#utility.yul\":1407:1447   */\n      tag_175\n      jumpi\n        /* \"#utility.yul\":1443:1444   */\n      0x00\n        /* \"#utility.yul\":1440:1441   */\n      0x00\n        /* \"#utility.yul\":1433:1445   */\n      revert\n        /* \"#utility.yul\":1407:1447   */\n    tag_175:\n        /* \"#utility.yul\":1348:1453   */\n      pop\n      jump\t// out\n        /* \"#utility.yul\":1459:1610   */\n    tag_130:\n        /* \"#utility.yul\":1511:1516   */\n      0x00\n        /* \"#utility.yul\":1549:1555   */\n      dup2\n        /* \"#utility.yul\":1536:1556   */\n      calldataload\n        /* \"#utility.yul\":1527:1556   */\n      swap1\n      pop\n        /* \"#utility.yul\":1565:1604   */\n      tag_177\n        /* \"#utility.yul\":1598:1603   */\n      dup2\n        /* \"#utility.yul\":1565:1604   */\n      tag_129\n      jump\t// in\n    tag_177:\n        /* \"#utility.yul\":1459:1610   */\n      swap3\n      swap2\n      pop\n      pop\n      jump\t// out\n        /* \"#utility.yul\":1616:1957   */\n    tag_24:\n        /* \"#utility.yul\":1681:1687   */\n      0x00\n        /* \"#utility.yul\":1730:1732   */\n      0x20\n        /* \"#utility.yul\":1718:1727   */\n      dup3\n        /* \"#utility.yul\":1709:1716   */\n      dup5\n        /* \"#utility.yul\":1705:1728   */\n      sub\n        /* \"#utility.yul\":1701:1733   */\n      slt\n        /* \"#utility.yul\":1698:1817   */\n      iszero\n      tag_179\n      jumpi\n        /* \"#utility.yul\":1736:1815   */\n      tag_180\n      tag_127\n      jump\t// in\n    tag_180:\n        /* \"#utility.yul\":1698:1817   */\n    tag_179:\n        /* \"#utility.yul\":1856:1857   */\n      0x00\n        /* \"#utility.yul\":1881:1940   */\n      tag_181\n        /* \"#utility.yul\":1932:1939   */\n      dup5\n        /* \"#utility.yul\":1923:1929   */\n      dup3\n        /* \"#utility.yul\":1912:1921   */\n      dup6\n        /* \"#utility.yul\":1908:1930   */\n      add\n        /* \"#utility.yul\":1881:1940   */\n      tag_130\n      jump\t// in\n    tag_181:\n        /* \"#utility.yul\":1871:1940   */\n      swap2\n      pop\n        /* \"#utility.yul\":1827:1950   */\n      pop\n        /* \"#utility.yul\":1616:1957   */\n      swap3\n      swap2\n      pop\n      pop\n      jump\t// out\n        /* \"#utility.yul\":1963:2089   */\n    tag_131:\n        /* \"#utility.yul\":2000:2007   */\n      0x00\n        /* \"#utility.yul\":2040:2082   */\n      0xffffffffffffffffffffffffffffffffffffffff\n        /* \"#utility.yul\":2033:2038   */\n      dup3\n        /* \"#utility.yul\":2029:2083   */\n      and\n        /* \"#utility.yul\":2018:2083   */\n      swap1\n      pop\n        /* \"#utility.yul\":1963:2089   */\n      swap2\n      swap1\n      pop\n      jump\t// out\n        /* \"#utility.yul\":2095:2191   */\n    tag_132:\n        /* \"#utility.yul\":2132:2139   */\n      0x00\n        /* \"#utility.yul\":2161:2185   */\n      tag_184\n        /* \"#utility.yul\":2179:2184   */\n      dup3\n        /* \"#utility.yul\":2161:2185   */\n      tag_131\n      jump\t// in\n    tag_184:\n        /* \"#utility.yul\":2150:2185   */\n      swap1\n      pop\n        /* \"#utility.yul\":2095:2191   */\n      swap2\n      swap1\n      pop\n      jump\t// out\n        /* \"#utility.yul\":2197:2319   */\n    tag_133:\n        /* \"#utility.yul\":2270:2294   */\n      tag_186\n        /* \"#utility.yul\":2288:2293   */\n      dup2\n        /* \"#utility.yul\":2270:2294   */\n      tag_132\n      jump\t// in\n    tag_186:\n        /* \"#utility.yul\":2263:2268   */\n      dup2\n        /* \"#utility.yul\":2260:2295   */\n      eq\n        /* \"#utility.yul\":2250:2313   */\n      tag_187\n      jumpi\n        /* \"#utility.yul\":2309:2310   */\n      0x00\n        /* \"#utility.yul\":2306:2307   */\n      0x00\n        /* \"#utility.yul\":2299:2311   */\n      revert\n        /* \"#utility.yul\":2250:2313   */\n    tag_187:\n        /* \"#utility.yul\":2197:2319   */\n      pop\n      jump\t// out\n        /* \"#utility.yul\":2325:2464   */\n    tag_134:\n        /* \"#utility.yul\":2371:2376   */\n      0x00\n        /* \"#utility.yul\":2409:2415   */\n      dup2\n        /* \"#utility.yul\":2396:2416   */\n      calldataload\n        /* \"#utility.yul\":2387:2416   */\n      swap1\n      pop\n        /* \"#utility.yul\":2425:2458   */\n      tag_189\n        /* \"#utility.yul\":2452:2457   */\n      dup2\n        /* \"#utility.yul\":2425:2458   */\n      tag_133\n      jump\t// in\n    tag_189:\n        /* \"#utility.yul\":2325:2464   */\n      swap3\n      swap2\n      pop\n      pop\n      jump\t// out\n        /* \"#utility.yul\":2470:2799   */\n    tag_29:\n        /* \"#utility.yul\":2529:2535   */\n      0x00\n        /* \"#utility.yul\":2578:2580   */\n      0x20\n        /* \"#utility.yul\":2566:2575   */\n      dup3\n        /* \"#utility.yul\":2557:2564   */\n      dup5\n        /* \"#utility.yul\":2553:2576   */\n      sub\n        /* \"#utility.yul\":2549:2581   */\n      slt\n        /* \"#utility.yul\":2546:2665   */\n      iszero\n      tag_191\n      jumpi\n        /* \"#utility.yul\":2584:2663   */\n      tag_192\n      tag_127\n      jump\t// in\n    tag_192:\n        /* \"#utility.yul\":2546:2665   */\n    tag_191:\n        /* \"#utility.yul\":2704:2705   */\n      0x00\n        /* \"#utility.yul\":2729:2782   */\n      tag_193\n        /* \"#utility.yul\":2774:2781   */\n      dup5\n        /* \"#utility.yul\":2765:2771   */\n      dup3\n        /* \"#utility.yul\":2754:2763   */\n      dup6\n        /* \"#utility.yul\":2750:2772   */\n      add\n        /* \"#utility.yul\":2729:2782   */\n      tag_134\n      jump\t// in\n    tag_193:\n        /* \"#utility.yul\":2719:2782   */\n      swap2\n      pop\n        /* \"#utility.yul\":2675:2792   */\n      pop\n        /* \"#utility.yul\":2470:2799   */\n      swap3\n      swap2\n      pop\n      pop\n      jump\t// out\n        /* \"#utility.yul\":2805:2882   */\n    tag_135:\n        /* \"#utility.yul\":2842:2849   */\n      0x00\n        /* \"#utility.yul\":2871:2876   */\n      dup2\n        /* \"#utility.yul\":2860:2876   */\n      swap1\n      pop\n        /* \"#utility.yul\":2805:2882   */\n      swap2\n      swap1\n      pop\n      jump\t// out\n        /* \"#utility.yul\":2888:3006   */\n    tag_136:\n        /* \"#utility.yul\":2975:2999   */\n      tag_196\n        /* \"#utility.yul\":2993:2998   */\n      dup2\n        /* \"#utility.yul\":2975:2999   */\n      tag_135\n      jump\t// in\n    tag_196:\n        /* \"#utility.yul\":2970:2973   */\n      dup3\n        /* \"#utility.yul\":2963:3000   */\n      mstore\n        /* \"#utility.yul\":2888:3006   */\n      pop\n      pop\n      jump\t// out\n        /* \"#utility.yul\":3012:3123   */\n    tag_137:\n        /* \"#utility.yul\":3091:3092   */\n      0x02\n        /* \"#utility.yul\":3084:3089   */\n      dup2\n        /* \"#utility.yul\":3081:3093   */\n      lt\n        /* \"#utility.yul\":3071:3117   */\n      tag_198\n      jumpi\n        /* \"#utility.yul\":3097:3115   */\n      tag_199\n      tag_54\n      jump\t// in\n    tag_199:\n        /* \"#utility.yul\":3071:3117   */\n    tag_198:\n        /* \"#utility.yul\":3012:3123   */\n      pop\n      jump\t// out\n        /* \"#utility.yul\":3129:3252   */\n    tag_138:\n        /* \"#utility.yul\":3172:3179   */\n      0x00\n        /* \"#utility.yul\":3201:3206   */\n      dup2\n        /* \"#utility.yul\":3190:3206   */\n      swap1\n      pop\n        /* \"#utility.yul\":3207:3246   */\n      tag_201\n        /* \"#utility.yul\":3240:3245   */\n      dup3\n        /* \"#utility.yul\":3207:3246   */\n      tag_137\n      jump\t// in\n    tag_201:\n        /* \"#utility.yul\":3129:3252   */\n      swap2\n      swap1\n      pop\n      jump\t// out\n        /* \"#utility.yul\":3258:3381   */\n    tag_139:\n        /* \"#utility.yul\":3312:3321   */\n      0x00\n        /* \"#utility.yul\":3345:3375   */\n      tag_203\n        /* \"#utility.yul\":3369:3374   */\n      dup3\n        /* \"#utility.yul\":3345:3375   */\n      tag_138\n      jump\t// in\n    tag_203:\n        /* \"#utility.yul\":3332:3375   */\n      swap1\n      pop\n        /* \"#utility.yul\":3258:3381   */\n      swap2\n      swap1\n      pop\n      jump\t// out\n        /* \"#utility.yul\":3387:3526   */\n    tag_140:\n        /* \"#utility.yul\":3478:3519   */\n      tag_205\n        /* \"#utility.yul\":3513:3518   */\n      dup2\n        /* \"#utility.yul\":3478:3519   */\n      tag_139\n      jump\t// in\n    tag_205:\n        /* \"#utility.yul\":3473:3476   */\n      dup3\n        /* \"#utility.yul\":3466:3520   */\n      mstore\n        /* \"#utility.yul\":3387:3526   */\n      pop\n      pop\n      jump\t// out\n        /* \"#utility.yul\":3532:3872   */\n    tag_32:\n        /* \"#utility.yul\":3657:3661   */\n      0x00\n        /* \"#utility.yul\":3695:3697   */\n      0x40\n        /* \"#utility.yul\":3684:3693   */\n      dup3\n        /* \"#utility.yul\":3680:3698   */\n      add\n        /* \"#utility.yul\":3672:3698   */\n      swap1\n      pop\n        /* \"#utility.yul\":3708:3779   */\n      tag_207\n        /* \"#utility.yul\":3776:3777   */\n      0x00\n        /* \"#utility.yul\":3765:3774   */\n      dup4\n        /* \"#utility.yul\":3761:3778   */\n      add\n        /* \"#utility.yul\":3752:3758   */\n      dup6\n        /* \"#utility.yul\":3708:3779   */\n      tag_136\n      jump\t// in\n    tag_207:\n        /* \"#utility.yul\":3789:3865   */\n      tag_208\n        /* \"#utility.yul\":3861:3863   */\n      0x20\n        /* \"#utility.yul\":3850:3859   */\n      dup4\n        /* \"#utility.yul\":3846:3864   */\n      add\n        /* \"#utility.yul\":3837:3843   */\n      dup5\n        /* \"#utility.yul\":3789:3865   */\n      tag_140\n      jump\t// in\n    tag_208:\n        /* \"#utility.yul\":3532:3872   */\n      swap4\n      swap3\n      pop\n      pop\n      pop\n      jump\t// out\n        /* \"#utility.yul\":3878:3996   */\n    tag_141:\n        /* \"#utility.yul\":3965:3989   */\n      tag_210\n        /* \"#utility.yul\":3983:3988   */\n      dup2\n        /* \"#utility.yul\":3965:3989   */\n      tag_132\n      jump\t// in\n    tag_210:\n        /* \"#utility.yul\":3960:3963   */\n      dup3\n        /* \"#utility.yul\":3953:3990   */\n      mstore\n        /* \"#utility.yul\":3878:3996   */\n      pop\n      pop\n      jump\t// out\n        /* \"#utility.yul\":4002:4224   */\n    tag_37:\n        /* \"#utility.yul\":4095:4099   */\n      0x00\n        /* \"#utility.yul\":4133:4135   */\n      0x20\n        /* \"#utility.yul\":4122:4131   */\n      dup3\n        /* \"#utility.yul\":4118:4136   */\n      add\n        /* \"#utility.yul\":4110:4136   */\n      swap1\n      pop\n        /* \"#utility.yul\":4146:4217   */\n      tag_212\n        /* \"#utility.yul\":4214:4215   */\n      0x00\n        /* \"#utility.yul\":4203:4212   */\n      dup4\n        /* \"#utility.yul\":4199:4216   */\n      add\n        /* \"#utility.yul\":4190:4196   */\n      dup5\n        /* \"#utility.yul\":4146:4217   */\n      tag_141\n      jump\t// in\n    tag_212:\n        /* \"#utility.yul\":4002:4224   */\n      swap3\n      swap2\n      pop\n      pop\n      jump\t// out\n        /* \"#utility.yul\":4230:4460   */\n    tag_46:\n        /* \"#utility.yul\":4327:4331   */\n      0x00\n        /* \"#utility.yul\":4365:4367   */\n      0x20\n        /* \"#utility.yul\":4354:4363   */\n      dup3\n        /* \"#utility.yul\":4350:4368   */\n      add\n        /* \"#utility.yul\":4342:4368   */\n      swap1\n      pop\n        /* \"#utility.yul\":4378:4453   */\n      tag_214\n        /* \"#utility.yul\":4450:4451   */\n      0x00\n        /* \"#utility.yul\":4439:4448   */\n      dup4\n        /* \"#utility.yul\":4435:4452   */\n      add\n        /* \"#utility.yul\":4426:4432   */\n      dup5\n        /* \"#utility.yul\":4378:4453   */\n      tag_140\n      jump\t// in\n    tag_214:\n        /* \"#utility.yul\":4230:4460   */\n      swap3\n      swap2\n      pop\n      pop\n      jump\t// out\n        /* \"#utility.yul\":4466:4635   */\n    tag_142:\n        /* \"#utility.yul\":4550:4561   */\n      0x00\n        /* \"#utility.yul\":4584:4590   */\n      dup3\n        /* \"#utility.yul\":4579:4582   */\n      dup3\n        /* \"#utility.yul\":4572:4591   */\n      mstore\n        /* \"#utility.yul\":4624:4628   */\n      0x20\n        /* \"#utility.yul\":4619:4622   */\n      dup3\n        /* \"#utility.yul\":4615:4629   */\n      add\n        /* \"#utility.yul\":4600:4629   */\n      swap1\n      pop\n        /* \"#utility.yul\":4466:4635   */\n      swap3\n      swap2\n      pop\n      pop\n      jump\t// out\n        /* \"#utility.yul\":4641:4805   */\n    tag_143:\n        /* \"#utility.yul\":4781:4797   */\n      0x4e6f7420746865206f776e65722e000000000000000000000000000000000000\n        /* \"#utility.yul\":4777:4778   */\n      0x00\n        /* \"#utility.yul\":4769:4775   */\n      dup3\n        /* \"#utility.yul\":4765:4779   */\n      add\n        /* \"#utility.yul\":4758:4798   */\n      mstore\n        /* \"#utility.yul\":4641:4805   */\n      pop\n      jump\t// out\n        /* \"#utility.yul\":4811:5177   */\n    tag_144:\n        /* \"#utility.yul\":4953:4956   */\n      0x00\n        /* \"#utility.yul\":4974:5041   */\n      tag_218\n        /* \"#utility.yul\":5038:5040   */\n      0x0e\n        /* \"#utility.yul\":5033:5036   */\n      dup4\n        /* \"#utility.yul\":4974:5041   */\n      tag_142\n      jump\t// in\n    tag_218:\n        /* \"#utility.yul\":4967:5041   */\n      swap2\n      pop\n        /* \"#utility.yul\":5050:5143   */\n      tag_219\n        /* \"#utility.yul\":5139:5142   */\n      dup3\n        /* \"#utility.yul\":5050:5143   */\n      tag_143\n      jump\t// in\n    tag_219:\n        /* \"#utility.yul\":5168:5170   */\n      0x20\n        /* \"#utility.yul\":5163:5166   */\n      dup3\n        /* \"#utility.yul\":5159:5171   */\n      add\n        /* \"#utility.yul\":5152:5171   */\n      swap1\n      pop\n        /* \"#utility.yul\":4811:5177   */\n      swap2\n      swap1\n      pop\n      jump\t// out\n        /* \"#utility.yul\":5183:5602   */\n    tag_50:\n        /* \"#utility.yul\":5349:5353   */\n      0x00\n        /* \"#utility.yul\":5387:5389   */\n      0x20\n        /* \"#utility.yul\":5376:5385   */\n      dup3\n        /* \"#utility.yul\":5372:5390   */\n      add\n        /* \"#utility.yul\":5364:5390   */\n      swap1\n      pop\n        /* \"#utility.yul\":5436:5445   */\n      dup2\n        /* \"#utility.yul\":5430:5434   */\n      dup2\n        /* \"#utility.yul\":5426:5446   */\n      sub\n        /* \"#utility.yul\":5422:5423   */\n      0x00\n        /* \"#utility.yul\":5411:5420   */\n      dup4\n        /* \"#utility.yul\":5407:5424   */\n      add\n        /* \"#utility.yul\":5400:5447   */\n      mstore\n        /* \"#utility.yul\":5464:5595   */\n      tag_221\n        /* \"#utility.yul\":5590:5594   */\n      dup2\n        /* \"#utility.yul\":5464:5595   */\n      tag_144\n      jump\t// in\n    tag_221:\n        /* \"#utility.yul\":5456:5595   */\n      swap1\n      pop\n        /* \"#utility.yul\":5183:5602   */\n      swap2\n      swap1\n      pop\n      jump\t// out\n        /* \"#utility.yul\":5608:5778   */\n    tag_145:\n        /* \"#utility.yul\":5748:5770   */\n      0x42657474696e67206973206e6f74206f70656e2e000000000000000000000000\n        /* \"#utility.yul\":5744:5745   */\n      0x00\n        /* \"#utility.yul\":5736:5742   */\n      dup3\n        /* \"#utility.yul\":5732:5746   */\n      add\n        /* \"#utility.yul\":5725:5771   */\n      mstore\n        /* \"#utility.yul\":5608:5778   */\n      pop\n      jump\t// out\n        /* \"#utility.yul\":5784:6150   */\n    tag_146:\n        /* \"#utility.yul\":5926:5929   */\n      0x00\n        /* \"#utility.yul\":5947:6014   */\n      tag_224\n        /* \"#utility.yul\":6011:6013   */\n      0x14\n        /* \"#utility.yul\":6006:6009   */\n      dup4\n        /* \"#utility.yul\":5947:6014   */\n      tag_142\n      jump\t// in\n    tag_224:\n        /* \"#utility.yul\":5940:6014   */\n      swap2\n      pop\n        /* \"#utility.yul\":6023:6116   */\n      tag_225\n        /* \"#utility.yul\":6112:6115   */\n      dup3\n        /* \"#utility.yul\":6023:6116   */\n      tag_145\n      jump\t// in\n    tag_225:\n        /* \"#utility.yul\":6141:6143   */\n      0x20\n        /* \"#utility.yul\":6136:6139   */\n      dup3\n        /* \"#utility.yul\":6132:6144   */\n      add\n        /* \"#utility.yul\":6125:6144   */\n      swap1\n      pop\n        /* \"#utility.yul\":5784:6150   */\n      swap2\n      swap1\n      pop\n      jump\t// out\n        /* \"#utility.yul\":6156:6575   */\n    tag_59:\n        /* \"#utility.yul\":6322:6326   */\n      0x00\n        /* \"#utility.yul\":6360:6362   */\n      0x20\n        /* \"#utility.yul\":6349:6358   */\n      dup3\n        /* \"#utility.yul\":6345:6363   */\n      add\n        /* \"#utility.yul\":6337:6363   */\n      swap1\n      pop\n        /* \"#utility.yul\":6409:6418   */\n      dup2\n        /* \"#utility.yul\":6403:6407   */\n      dup2\n        /* \"#utility.yul\":6399:6419   */\n      sub\n        /* \"#utility.yul\":6395:6396   */\n      0x00\n        /* \"#utility.yul\":6384:6393   */\n      dup4\n        /* \"#utility.yul\":6380:6397   */\n      add\n        /* \"#utility.yul\":6373:6420   */\n      mstore\n        /* \"#utility.yul\":6437:6568   */\n      tag_227\n        /* \"#utility.yul\":6563:6567   */\n      dup2\n        /* \"#utility.yul\":6437:6568   */\n      tag_146\n      jump\t// in\n    tag_227:\n        /* \"#utility.yul\":6429:6568   */\n      swap1\n      pop\n        /* \"#utility.yul\":6156:6575   */\n      swap2\n      swap1\n      pop\n      jump\t// out\n        /* \"#utility.yul\":6581:6759   */\n    tag_147:\n        /* \"#utility.yul\":6721:6751   */\n      0x42657474696e67206973206e6f74207265736f6c766564207965742e00000000\n        /* \"#utility.yul\":6717:6718   */\n      0x00\n        /* \"#utility.yul\":6709:6715   */\n      dup3\n        /* \"#utility.yul\":6705:6719   */\n      add\n        /* \"#utility.yul\":6698:6752   */\n      mstore\n        /* \"#utility.yul\":6581:6759   */\n      pop\n      jump\t// out\n        /* \"#utility.yul\":6765:7131   */\n    tag_148:\n        /* \"#utility.yul\":6907:6910   */\n      0x00\n        /* \"#utility.yul\":6928:6995   */\n      tag_230\n        /* \"#utility.yul\":6992:6994   */\n      0x1c\n        /* \"#utility.yul\":6987:6990   */\n      dup4\n        /* \"#utility.yul\":6928:6995   */\n      tag_142\n      jump\t// in\n    tag_230:\n        /* \"#utility.yul\":6921:6995   */\n      swap2\n      pop\n        /* \"#utility.yul\":7004:7097   */\n      tag_231\n        /* \"#utility.yul\":7093:7096   */\n      dup3\n        /* \"#utility.yul\":7004:7097   */\n      tag_147\n      jump\t// in\n    tag_231:\n        /* \"#utility.yul\":7122:7124   */\n      0x20\n        /* \"#utility.yul\":7117:7120   */\n      dup3\n        /* \"#utility.yul\":7113:7125   */\n      add\n        /* \"#utility.yul\":7106:7125   */\n      swap1\n      pop\n        /* \"#utility.yul\":6765:7131   */\n      swap2\n      swap1\n      pop\n      jump\t// out\n        /* \"#utility.yul\":7137:7556   */\n    tag_69:\n        /* \"#utility.yul\":7303:7307   */\n      0x00\n        /* \"#utility.yul\":7341:7343   */\n      0x20\n        /* \"#utility.yul\":7330:7339   */\n      dup3\n        /* \"#utility.yul\":7326:7344   */\n      add\n        /* \"#utility.yul\":7318:7344   */\n      swap1\n      pop\n        /* \"#utility.yul\":7390:7399   */\n      dup2\n        /* \"#utility.yul\":7384:7388   */\n      dup2\n        /* \"#utility.yul\":7380:7400   */\n      sub\n        /* \"#utility.yul\":7376:7377   */\n      0x00\n        /* \"#utility.yul\":7365:7374   */\n      dup4\n        /* \"#utility.yul\":7361:7378   */\n      add\n        /* \"#utility.yul\":7354:7401   */\n      mstore\n        /* \"#utility.yul\":7418:7549   */\n      tag_233\n        /* \"#utility.yul\":7544:7548   */\n      dup2\n        /* \"#utility.yul\":7418:7549   */\n      tag_148\n      jump\t// in\n    tag_233:\n        /* \"#utility.yul\":7410:7549   */\n      swap1\n      pop\n        /* \"#utility.yul\":7137:7556   */\n      swap2\n      swap1\n      pop\n      jump\t// out\n        /* \"#utility.yul\":7562:7726   */\n    tag_149:\n        /* \"#utility.yul\":7702:7718   */\n      0x4e6f2062657420706c616365642e000000000000000000000000000000000000\n        /* \"#utility.yul\":7698:7699   */\n      0x00\n        /* \"#utility.yul\":7690:7696   */\n      dup3\n        /* \"#utility.yul\":7686:7700   */\n      add\n        /* \"#utility.yul\":7679:7719   */\n      mstore\n        /* \"#utility.yul\":7562:7726   */\n      pop\n      jump\t// out\n        /* \"#utility.yul\":7732:8098   */\n    tag_150:\n        /* \"#utility.yul\":7874:7877   */\n      0x00\n        /* \"#utility.yul\":7895:7962   */\n      tag_236\n        /* \"#utility.yul\":7959:7961   */\n      0x0e\n        /* \"#utility.yul\":7954:7957   */\n      dup4\n        /* \"#utility.yul\":7895:7962   */\n      tag_142\n      jump\t// in\n    tag_236:\n        /* \"#utility.yul\":7888:7962   */\n      swap2\n      pop\n        /* \"#utility.yul\":7971:8064   */\n      tag_237\n        /* \"#utility.yul\":8060:8063   */\n      dup3\n        /* \"#utility.yul\":7971:8064   */\n      tag_149\n      jump\t// in\n    tag_237:\n        /* \"#utility.yul\":8089:8091   */\n      0x20\n        /* \"#utility.yul\":8084:8087   */\n      dup3\n        /* \"#utility.yul\":8080:8092   */\n      add\n        /* \"#utility.yul\":8073:8092   */\n      swap1\n      pop\n        /* \"#utility.yul\":7732:8098   */\n      swap2\n      swap1\n      pop\n      jump\t// out\n        /* \"#utility.yul\":8104:8523   */\n    tag_76:\n        /* \"#utility.yul\":8270:8274   */\n      0x00\n        /* \"#utility.yul\":8308:8310   */\n      0x20\n        /* \"#utility.yul\":8297:8306   */\n      dup3\n        /* \"#utility.yul\":8293:8311   */\n      add\n        /* \"#utility.yul\":8285:8311   */\n      swap1\n      pop\n        /* \"#utility.yul\":8357:8366   */\n      dup2\n        /* \"#utility.yul\":8351:8355   */\n      dup2\n        /* \"#utility.yul\":8347:8367   */\n      sub\n        /* \"#utility.yul\":8343:8344   */\n      0x00\n        /* \"#utility.yul\":8332:8341   */\n      dup4\n        /* \"#utility.yul\":8328:8345   */\n      add\n        /* \"#utility.yul\":8321:8368   */\n      mstore\n        /* \"#utility.yul\":8385:8516   */\n      tag_239\n        /* \"#utility.yul\":8511:8515   */\n      dup2\n        /* \"#utility.yul\":8385:8516   */\n      tag_150\n      jump\t// in\n    tag_239:\n        /* \"#utility.yul\":8377:8516   */\n      swap1\n      pop\n        /* \"#utility.yul\":8104:8523   */\n      swap2\n      swap1\n      pop\n      jump\t// out\n        /* \"#utility.yul\":8529:8709   */\n    tag_151:\n        /* \"#utility.yul\":8577:8654   */\n      0x4e487b7100000000000000000000000000000000000000000000000000000000\n        /* \"#utility.yul\":8574:8575   */\n      0x00\n        /* \"#utility.yul\":8567:8655   */\n      mstore\n        /* \"#utility.yul\":8674:8678   */\n      0x11\n        /* \"#utility.yul\":8671:8672   */\n      0x04\n        /* \"#utility.yul\":8664:8679   */\n      mstore\n        /* \"#utility.yul\":8698:8702   */\n      0x24\n        /* \"#utility.yul\":8695:8696   */\n      0x00\n        /* \"#utility.yul\":8688:8703   */\n      revert\n        /* \"#utility.yul\":8715:9125   */\n    tag_83:\n        /* \"#utility.yul\":8755:8762   */\n      0x00\n        /* \"#utility.yul\":8778:8798   */\n      tag_242\n        /* \"#utility.yul\":8796:8797   */\n      dup3\n        /* \"#utility.yul\":8778:8798   */\n      tag_135\n      jump\t// in\n    tag_242:\n        /* \"#utility.yul\":8773:8798   */\n      swap2\n      pop\n        /* \"#utility.yul\":8812:8832   */\n      tag_243\n        /* \"#utility.yul\":8830:8831   */\n      dup4\n        /* \"#utility.yul\":8812:8832   */\n      tag_135\n      jump\t// in\n    tag_243:\n        /* \"#utility.yul\":8807:8832   */\n      swap3\n      pop\n        /* \"#utility.yul\":8867:8868   */\n      dup3\n        /* \"#utility.yul\":8864:8865   */\n      dup3\n        /* \"#utility.yul\":8860:8869   */\n      mul\n        /* \"#utility.yul\":8889:8919   */\n      tag_244\n        /* \"#utility.yul\":8907:8918   */\n      dup2\n        /* \"#utility.yul\":8889:8919   */\n      tag_135\n      jump\t// in\n    tag_244:\n        /* \"#utility.yul\":8878:8919   */\n      swap2\n      pop\n        /* \"#utility.yul\":9068:9069   */\n      dup3\n        /* \"#utility.yul\":9059:9066   */\n      dup3\n        /* \"#utility.yul\":9055:9070   */\n      div\n        /* \"#utility.yul\":9052:9053   */\n      dup5\n        /* \"#utility.yul\":9049:9071   */\n      eq\n        /* \"#utility.yul\":9029:9030   */\n      dup4\n        /* \"#utility.yul\":9022:9031   */\n      iszero\n        /* \"#utility.yul\":9002:9085   */\n      or\n        /* \"#utility.yul\":8979:9118   */\n      tag_245\n      jumpi\n        /* \"#utility.yul\":9098:9116   */\n      tag_246\n      tag_151\n      jump\t// in\n    tag_246:\n        /* \"#utility.yul\":8979:9118   */\n    tag_245:\n        /* \"#utility.yul\":8763:9125   */\n      pop\n        /* \"#utility.yul\":8715:9125   */\n      swap3\n      swap2\n      pop\n      pop\n      jump\t// out\n        /* \"#utility.yul\":9131:9353   */\n    tag_87:\n        /* \"#utility.yul\":9224:9228   */\n      0x00\n        /* \"#utility.yul\":9262:9264   */\n      0x20\n        /* \"#utility.yul\":9251:9260   */\n      dup3\n        /* \"#utility.yul\":9247:9265   */\n      add\n        /* \"#utility.yul\":9239:9265   */\n      swap1\n      pop\n        /* \"#utility.yul\":9275:9346   */\n      tag_248\n        /* \"#utility.yul\":9343:9344   */\n      0x00\n        /* \"#utility.yul\":9332:9341   */\n      dup4\n        /* \"#utility.yul\":9328:9345   */\n      add\n        /* \"#utility.yul\":9319:9325   */\n      dup5\n        /* \"#utility.yul\":9275:9346   */\n      tag_136\n      jump\t// in\n    tag_248:\n        /* \"#utility.yul\":9131:9353   */\n      swap3\n      swap2\n      pop\n      pop\n      jump\t// out\n        /* \"#utility.yul\":9359:9525   */\n    tag_152:\n        /* \"#utility.yul\":9499:9517   */\n      0x596f7520646964206e6f742077696e2e00000000000000000000000000000000\n        /* \"#utility.yul\":9495:9496   */\n      0x00\n        /* \"#utility.yul\":9487:9493   */\n      dup3\n        /* \"#utility.yul\":9483:9497   */\n      add\n        /* \"#utility.yul\":9476:9518   */\n      mstore\n        /* \"#utility.yul\":9359:9525   */\n      pop\n      jump\t// out\n        /* \"#utility.yul\":9531:9897   */\n    tag_153:\n        /* \"#utility.yul\":9673:9676   */\n      0x00\n        /* \"#utility.yul\":9694:9761   */\n      tag_251\n        /* \"#utility.yul\":9758:9760   */\n      0x10\n        /* \"#utility.yul\":9753:9756   */\n      dup4\n        /* \"#utility.yul\":9694:9761   */\n      tag_142\n      jump\t// in\n    tag_251:\n        /* \"#utility.yul\":9687:9761   */\n      swap2\n      pop\n        /* \"#utility.yul\":9770:9863   */\n      tag_252\n        /* \"#utility.yul\":9859:9862   */\n      dup3\n        /* \"#utility.yul\":9770:9863   */\n      tag_152\n      jump\t// in\n    tag_252:\n        /* \"#utility.yul\":9888:9890   */\n      0x20\n        /* \"#utility.yul\":9883:9886   */\n      dup3\n        /* \"#utility.yul\":9879:9891   */\n      add\n        /* \"#utility.yul\":9872:9891   */\n      swap1\n      pop\n        /* \"#utility.yul\":9531:9897   */\n      swap2\n      swap1\n      pop\n      jump\t// out\n        /* \"#utility.yul\":9903:10322   */\n    tag_90:\n        /* \"#utility.yul\":10069:10073   */\n      0x00\n        /* \"#utility.yul\":10107:10109   */\n      0x20\n        /* \"#utility.yul\":10096:10105   */\n      dup3\n        /* \"#utility.yul\":10092:10110   */\n      add\n        /* \"#utility.yul\":10084:10110   */\n      swap1\n      pop\n        /* \"#utility.yul\":10156:10165   */\n      dup2\n        /* \"#utility.yul\":10150:10154   */\n      dup2\n        /* \"#utility.yul\":10146:10166   */\n      sub\n        /* \"#utility.yul\":10142:10143   */\n      0x00\n        /* \"#utility.yul\":10131:10140   */\n      dup4\n        /* \"#utility.yul\":10127:10144   */\n      add\n        /* \"#utility.yul\":10120:10167   */\n      mstore\n        /* \"#utility.yul\":10184:10315   */\n      tag_254\n        /* \"#utility.yul\":10310:10314   */\n      dup2\n        /* \"#utility.yul\":10184:10315   */\n      tag_153\n      jump\t// in\n    tag_254:\n        /* \"#utility.yul\":10176:10315   */\n      swap1\n      pop\n        /* \"#utility.yul\":9903:10322   */\n      swap2\n      swap1\n      pop\n      jump\t// out\n        /* \"#utility.yul\":10328:10552   */\n    tag_154:\n        /* \"#utility.yul\":10468:10502   */\n      0x42657420616d6f756e74206d7573742062652067726561746572207468616e20\n        /* \"#utility.yul\":10464:10465   */\n      0x00\n        /* \"#utility.yul\":10456:10462   */\n      dup3\n        /* \"#utility.yul\":10452:10466   */\n      add\n        /* \"#utility.yul\":10445:10503   */\n      mstore\n        /* \"#utility.yul\":10537:10544   */\n      0x7a65726f2e000000000000000000000000000000000000000000000000000000\n        /* \"#utility.yul\":10532:10534   */\n      0x20\n        /* \"#utility.yul\":10524:10530   */\n      dup3\n        /* \"#utility.yul\":10520:10535   */\n      add\n        /* \"#utility.yul\":10513:10545   */\n      mstore\n        /* \"#utility.yul\":10328:10552   */\n      pop\n      jump\t// out\n        /* \"#utility.yul\":10558:10924   */\n    tag_155:\n        /* \"#utility.yul\":10700:10703   */\n      0x00\n        /* \"#utility.yul\":10721:10788   */\n      tag_257\n        /* \"#utility.yul\":10785:10787   */\n      0x25\n        /* \"#utility.yul\":10780:10783   */\n      dup4\n        /* \"#utility.yul\":10721:10788   */\n      tag_142\n      jump\t// in\n    tag_257:\n        /* \"#utility.yul\":10714:10788   */\n      swap2\n      pop\n        /* \"#utility.yul\":10797:10890   */\n      tag_258\n        /* \"#utility.yul\":10886:10889   */\n      dup3\n        /* \"#utility.yul\":10797:10890   */\n      tag_154\n      jump\t// in\n    tag_258:\n        /* \"#utility.yul\":10915:10917   */\n      0x40\n        /* \"#utility.yul\":10910:10913   */\n      dup3\n        /* \"#utility.yul\":10906:10918   */\n      add\n        /* \"#utility.yul\":10899:10918   */\n      swap1\n      pop\n        /* \"#utility.yul\":10558:10924   */\n      swap2\n      swap1\n      pop\n      jump\t// out\n        /* \"#utility.yul\":10930:11349   */\n    tag_100:\n        /* \"#utility.yul\":11096:11100   */\n      0x00\n        /* \"#utility.yul\":11134:11136   */\n      0x20\n        /* \"#utility.yul\":11123:11132   */\n      dup3\n        /* \"#utility.yul\":11119:11137   */\n      add\n        /* \"#utility.yul\":11111:11137   */\n      swap1\n      pop\n        /* \"#utility.yul\":11183:11192   */\n      dup2\n        /* \"#utility.yul\":11177:11181   */\n      dup2\n        /* \"#utility.yul\":11173:11193   */\n      sub\n        /* \"#utility.yul\":11169:11170   */\n      0x00\n        /* \"#utility.yul\":11158:11167   */\n      dup4\n        /* \"#utility.yul\":11154:11171   */\n      add\n        /* \"#utility.yul\":11147:11194   */\n      mstore\n        /* \"#utility.yul\":11211:11342   */\n      tag_260\n        /* \"#utility.yul\":11337:11341   */\n      dup2\n        /* \"#utility.yul\":11211:11342   */\n      tag_155\n      jump\t// in\n    tag_260:\n        /* \"#utility.yul\":11203:11342   */\n      swap1\n      pop\n        /* \"#utility.yul\":10930:11349   */\n      swap2\n      swap1\n      pop\n      jump\t// out\n        /* \"#utility.yul\":11355:11527   */\n    tag_156:\n        /* \"#utility.yul\":11495:11519   */\n      0x42657474696e67206973206e6f7420636c6f7365642e00000000000000000000\n        /* \"#utility.yul\":11491:11492   */\n      0x00\n        /* \"#utility.yul\":11483:11489   */\n      dup3\n        /* \"#utility.yul\":11479:11493   */\n      add\n        /* \"#utility.yul\":11472:11520   */\n      mstore\n        /* \"#utility.yul\":11355:11527   */\n      pop\n      jump\t// out\n        /* \"#utility.yul\":11533:11899   */\n    tag_157:\n        /* \"#utility.yul\":11675:11678   */\n      0x00\n        /* \"#utility.yul\":11696:11763   */\n      tag_263\n        /* \"#utility.yul\":11760:11762   */\n      0x16\n        /* \"#utility.yul\":11755:11758   */\n      dup4\n        /* \"#utility.yul\":11696:11763   */\n      tag_142\n      jump\t// in\n    tag_263:\n        /* \"#utility.yul\":11689:11763   */\n      swap2\n      pop\n        /* \"#utility.yul\":11772:11865   */\n      tag_264\n        /* \"#utility.yul\":11861:11864   */\n      dup3\n        /* \"#utility.yul\":11772:11865   */\n      tag_156\n      jump\t// in\n    tag_264:\n        /* \"#utility.yul\":11890:11892   */\n      0x20\n        /* \"#utility.yul\":11885:11888   */\n      dup3\n        /* \"#utility.yul\":11881:11893   */\n      add\n        /* \"#utility.yul\":11874:11893   */\n      swap1\n      pop\n        /* \"#utility.yul\":11533:11899   */\n      swap2\n      swap1\n      pop\n      jump\t// out\n        /* \"#utility.yul\":11905:12324   */\n    tag_116:\n        /* \"#utility.yul\":12071:12075   */\n      0x00\n        /* \"#utility.yul\":12109:12111   */\n      0x20\n        /* \"#utility.yul\":12098:12107   */\n      dup3\n        /* \"#utility.yul\":12094:12112   */\n      add\n        /* \"#utility.yul\":12086:12112   */\n      swap1\n      pop\n        /* \"#utility.yul\":12158:12167   */\n      dup2\n        /* \"#utility.yul\":12152:12156   */\n      dup2\n        /* \"#utility.yul\":12148:12168   */\n      sub\n        /* \"#utility.yul\":12144:12145   */\n      0x00\n        /* \"#utility.yul\":12133:12142   */\n      dup4\n        /* \"#utility.yul\":12129:12146   */\n      add\n        /* \"#utility.yul\":12122:12169   */\n      mstore\n        /* \"#utility.yul\":12186:12317   */\n      tag_266\n        /* \"#utility.yul\":12312:12316   */\n      dup2\n        /* \"#utility.yul\":12186:12317   */\n      tag_157\n      jump\t// in\n    tag_266:\n        /* \"#utility.yul\":12178:12317   */\n      swap1\n      pop\n        /* \"#utility.yul\":11905:12324   */\n      swap2\n      swap1\n      pop\n      jump\t// out\n\n    auxdata: 0xa264697066735822122057759b4a3b24ba214390a7a6d96c3ba3eb5f7bf54acf37ea4be8dce6933c0b2f64736f6c634300081b0033\n}\n",
				"bytecode": {
					"linkReferences": {},
					"object": "6080604052348015600e575f5ffd5b50335f5f6101000a81548173ffffffffffffffffffffffffffffffffffffffff021916908373ffffffffffffffffffffffffffffffffffffffff1602179055505f5f60146101000a81548160ff02191690836002811115606f57606e6078565b5b021790555060a5565b7f4e487b71000000000000000000000000000000000000000000000000000000005f52602160045260245ffd5b610f27806100b25f395ff3fe60806040526004361061007a575f3560e01c806389a78f1a1161004d57806389a78f1a146100f05780638da5cb5b1461012d578063a0270dbc14610157578063de3f18e21461017f5761007a565b80630c3f6acf1461007e57806315ac534d146100a85780633ccfd60b146100be57806343046844146100d4575b5f5ffd5b348015610089575f5ffd5b506100926101a9565b60405161009f91906109a6565b60405180910390f35b3480156100b3575f5ffd5b506100bc6101bb565b005b3480156100c9575f5ffd5b506100d26102e9565b005b6100ee60048036038101906100e991906109e6565b61059a565b005b3480156100fb575f5ffd5b5061011660048036038101906101119190610a6b565b610741565b604051610124929190610af4565b60405180910390f35b348015610138575f5ffd5b5061014161076d565b60405161014e9190610b2a565b60405180910390f35b348015610162575f5ffd5b5061017d600480360381019061017891906109e6565b610791565b005b34801561018a575f5ffd5b50610193610921565b6040516101a09190610b43565b60405180910390f35b5f60149054906101000a900460ff1681565b5f5f9054906101000a900473ffffffffffffffffffffffffffffffffffffffff1673ffffffffffffffffffffffffffffffffffffffff163373ffffffffffffffffffffffffffffffffffffffff1614610249576040517f08c379a000000000000000000000000000000000000000000000000000000000815260040161024090610bb6565b60405180910390fd5b5f600281111561025c5761025b610933565b5b5f60149054906101000a900460ff16600281111561027d5761027c610933565b5b146102bd576040517f08c379a00000000000000000000000000000000000000000000000000000000081526004016102b490610c1e565b60405180910390fd5b60015f60146101000a81548160ff021916908360028111156102e2576102e1610933565b5b0217905550565b6002808111156102fc576102fb610933565b5b5f60149054906101000a900460ff16600281111561031d5761031c610933565b5b1461035d576040517f08c379a000000000000000000000000000000000000000000000000000000000815260040161035490610c86565b60405180910390fd5b5f60015f3373ffffffffffffffffffffffffffffffffffffffff1673ffffffffffffffffffffffffffffffffffffffff1681526020019081526020015f206040518060400160405290815f8201548152602001600182015f9054906101000a900460ff1660018111156103d3576103d2610933565b5b60018111156103e5576103e4610933565b5b8152505090505f815f015111610430576040517f08c379a000000000000000000000000000000000000000000000000000000000815260040161042790610cee565b60405180910390fd5b5f60159054906101000a900460ff16600181111561045157610450610933565b5b8160200151600181111561046857610467610933565b5b0361055c575f6002825f015161047e9190610d39565b90505f60015f3373ffffffffffffffffffffffffffffffffffffffff1673ffffffffffffffffffffffffffffffffffffffff1681526020019081526020015f205f01819055503373ffffffffffffffffffffffffffffffffffffffff166108fc8290811502906040515f60405180830381858888f19350505050158015610507573d5f5f3e3d5ffd5b503373ffffffffffffffffffffffffffffffffffffffff167f7fcf532c15f0a6db0bd6d0e038bea71d30d808c7d98cb3bf7268a95bf5081b658260405161054e9190610d7a565b60405180910390a250610597565b6040517f08c379a000000000000000000000000000000000000000000000000000000000815260040161058e90610ddd565b60405180910390fd5b50565b5f60028111156105ad576105ac610933565b5b5f60149054906101000a900460ff1660028111156105ce576105cd610933565b5b1461060e576040517f08c379a000000000000000000000000000000000000000000000000000000000815260040161060590610c1e565b60405180910390fd5b5f3411610650576040517f08c379a000000000000000000000000000000000000000000000000000000000815260040161064790610e6b565b60405180910390fd5b604051806040016040528034815260200182600181111561067457610673610933565b5b81525060015f3373ffffffffffffffffffffffffffffffffffffffff1673ffffffffffffffffffffffffffffffffffffffff1681526020019081526020015f205f820151815f01556020820151816001015f6101000a81548160ff021916908360018111156106e6576106e5610933565b5b02179055509050503373ffffffffffffffffffffffffffffffffffffffff167f7df19a783369d9cefb06e18b396518f817b48766b74157758eda633a62f58fa73483604051610736929190610af4565b60405180910390a250565b6001602052805f5260405f205f91509050805f015490806001015f9054906101000a900460ff16905082565b5f5f9054906101000a900473ffffffffffffffffffffffffffffffffffffffff1681565b5f5f9054906101000a900473ffffffffffffffffffffffffffffffffffffffff1673ffffffffffffffffffffffffffffffffffffffff163373ffffffffffffffffffffffffffffffffffffffff161461081f576040517f08c379a000000000000000000000000000000000000000000000000000000000815260040161081690610bb6565b60405180910390fd5b6001600281111561083357610832610933565b5b5f60149054906101000a900460ff16600281111561085457610853610933565b5b14610894576040517f08c379a000000000000000000000000000000000000000000000000000000000815260040161088b90610ed3565b60405180910390fd5b805f60156101000a81548160ff021916908360018111156108b8576108b7610933565b5b021790555060025f60146101000a81548160ff021916908360028111156108e2576108e1610933565b5b02179055507fd6bcd4b6873d691163f1aff2d5585378623aef08e17513a5253eabe39c65dc50816040516109169190610b43565b60405180910390a150565b5f60159054906101000a900460ff1681565b7f4e487b71000000000000000000000000000000000000000000000000000000005f52602160045260245ffd5b6003811061097157610970610933565b5b50565b5f81905061098182610960565b919050565b5f61099082610974565b9050919050565b6109a081610986565b82525050565b5f6020820190506109b95f830184610997565b92915050565b5f5ffd5b600281106109cf575f5ffd5b50565b5f813590506109e0816109c3565b92915050565b5f602082840312156109fb576109fa6109bf565b5b5f610a08848285016109d2565b91505092915050565b5f73ffffffffffffffffffffffffffffffffffffffff82169050919050565b5f610a3a82610a11565b9050919050565b610a4a81610a30565b8114610a54575f5ffd5b50565b5f81359050610a6581610a41565b92915050565b5f60208284031215610a8057610a7f6109bf565b5b5f610a8d84828501610a57565b91505092915050565b5f819050919050565b610aa881610a96565b82525050565b60028110610abf57610abe610933565b5b50565b5f819050610acf82610aae565b919050565b5f610ade82610ac2565b9050919050565b610aee81610ad4565b82525050565b5f604082019050610b075f830185610a9f565b610b146020830184610ae5565b9392505050565b610b2481610a30565b82525050565b5f602082019050610b3d5f830184610b1b565b92915050565b5f602082019050610b565f830184610ae5565b92915050565b5f82825260208201905092915050565b7f4e6f7420746865206f776e65722e0000000000000000000000000000000000005f82015250565b5f610ba0600e83610b5c565b9150610bab82610b6c565b602082019050919050565b5f6020820190508181035f830152610bcd81610b94565b9050919050565b7f42657474696e67206973206e6f74206f70656e2e0000000000000000000000005f82015250565b5f610c08601483610b5c565b9150610c1382610bd4565b602082019050919050565b5f6020820190508181035f830152610c3581610bfc565b9050919050565b7f42657474696e67206973206e6f74207265736f6c766564207965742e000000005f82015250565b5f610c70601c83610b5c565b9150610c7b82610c3c565b602082019050919050565b5f6020820190508181035f830152610c9d81610c64565b9050919050565b7f4e6f2062657420706c616365642e0000000000000000000000000000000000005f82015250565b5f610cd8600e83610b5c565b9150610ce382610ca4565b602082019050919050565b5f6020820190508181035f830152610d0581610ccc565b9050919050565b7f4e487b71000000000000000000000000000000000000000000000000000000005f52601160045260245ffd5b5f610d4382610a96565b9150610d4e83610a96565b9250828202610d5c81610a96565b91508282048414831517610d7357610d72610d0c565b5b5092915050565b5f602082019050610d8d5f830184610a9f565b92915050565b7f596f7520646964206e6f742077696e2e000000000000000000000000000000005f82015250565b5f610dc7601083610b5c565b9150610dd282610d93565b602082019050919050565b5f6020820190508181035f830152610df481610dbb565b9050919050565b7f42657420616d6f756e74206d7573742062652067726561746572207468616e205f8201527f7a65726f2e000000000000000000000000000000000000000000000000000000602082015250565b5f610e55602583610b5c565b9150610e6082610dfb565b604082019050919050565b5f6020820190508181035f830152610e8281610e49565b9050919050565b7f42657474696e67206973206e6f7420636c6f7365642e000000000000000000005f82015250565b5f610ebd601683610b5c565b9150610ec882610e89565b602082019050919050565b5f6020820190508181035f830152610eea81610eb1565b905091905056fea264697066735822122057759b4a3b24ba214390a7a6d96c3ba3eb5f7bf54acf37ea4be8dce6933c0b2f64736f6c634300081b0033",
					"opcodes": "PUSH1 0x80 PUSH1 0x40 MSTORE CALLVALUE DUP1 ISZERO PUSH1 0xE JUMPI PUSH0 PUSH0 REVERT JUMPDEST POP CALLER PUSH0 PUSH0 PUSH2 0x100 EXP DUP2 SLOAD DUP2 PUSH20 0xFFFFFFFFFFFFFFFFFFFFFFFFFFFFFFFFFFFFFFFF MUL NOT AND SWAP1 DUP4 PUSH20 0xFFFFFFFFFFFFFFFFFFFFFFFFFFFFFFFFFFFFFFFF AND MUL OR SWAP1 SSTORE POP PUSH0 PUSH0 PUSH1 0x14 PUSH2 0x100 EXP DUP2 SLOAD DUP2 PUSH1 0xFF MUL NOT AND SWAP1 DUP4 PUSH1 0x2 DUP2 GT ISZERO PUSH1 0x6F JUMPI PUSH1 0x6E PUSH1 0x78 JUMP JUMPDEST JUMPDEST MUL OR SWAP1 SSTORE POP PUSH1 0xA5 JUMP JUMPDEST PUSH32 0x4E487B7100000000000000000000000000000000000000000000000000000000 PUSH0 MSTORE PUSH1 0x21 PUSH1 0x4 MSTORE PUSH1 0x24 PUSH0 REVERT JUMPDEST PUSH2 0xF27 DUP1 PUSH2 0xB2 PUSH0 CODECOPY PUSH0 RETURN INVALID PUSH1 0x80 PUSH1 0x40 MSTORE PUSH1 0x4 CALLDATASIZE LT PUSH2 0x7A JUMPI PUSH0 CALLDATALOAD PUSH1 0xE0 SHR DUP1 PUSH4 0x89A78F1A GT PUSH2 0x4D JUMPI DUP1 PUSH4 0x89A78F1A EQ PUSH2 0xF0 JUMPI DUP1 PUSH4 0x8DA5CB5B EQ PUSH2 0x12D JUMPI DUP1 PUSH4 0xA0270DBC EQ PUSH2 0x157 JUMPI DUP1 PUSH4 0xDE3F18E2 EQ PUSH2 0x17F JUMPI PUSH2 0x7A JUMP JUMPDEST DUP1 PUSH4 0xC3F6ACF EQ PUSH2 0x7E JUMPI DUP1 PUSH4 0x15AC534D EQ PUSH2 0xA8 JUMPI DUP1 PUSH4 0x3CCFD60B EQ PUSH2 0xBE JUMPI DUP1 PUSH4 0x43046844 EQ PUSH2 0xD4 JUMPI JUMPDEST PUSH0 PUSH0 REVERT JUMPDEST CALLVALUE DUP1 ISZERO PUSH2 0x89 JUMPI PUSH0 PUSH0 REVERT JUMPDEST POP PUSH2 0x92 PUSH2 0x1A9 JUMP JUMPDEST PUSH1 0x40 MLOAD PUSH2 0x9F SWAP2 SWAP1 PUSH2 0x9A6 JUMP JUMPDEST PUSH1 0x40 MLOAD DUP1 SWAP2 SUB SWAP1 RETURN JUMPDEST CALLVALUE DUP1 ISZERO PUSH2 0xB3 JUMPI PUSH0 PUSH0 REVERT JUMPDEST POP PUSH2 0xBC PUSH2 0x1BB JUMP JUMPDEST STOP JUMPDEST CALLVALUE DUP1 ISZERO PUSH2 0xC9 JUMPI PUSH0 PUSH0 REVERT JUMPDEST POP PUSH2 0xD2 PUSH2 0x2E9 JUMP JUMPDEST STOP JUMPDEST PUSH2 0xEE PUSH1 0x4 DUP1 CALLDATASIZE SUB DUP2 ADD SWAP1 PUSH2 0xE9 SWAP2 SWAP1 PUSH2 0x9E6 JUMP JUMPDEST PUSH2 0x59A JUMP JUMPDEST STOP JUMPDEST CALLVALUE DUP1 ISZERO PUSH2 0xFB JUMPI PUSH0 PUSH0 REVERT JUMPDEST POP PUSH2 0x116 PUSH1 0x4 DUP1 CALLDATASIZE SUB DUP2 ADD SWAP1 PUSH2 0x111 SWAP2 SWAP1 PUSH2 0xA6B JUMP JUMPDEST PUSH2 0x741 JUMP JUMPDEST PUSH1 0x40 MLOAD PUSH2 0x124 SWAP3 SWAP2 SWAP1 PUSH2 0xAF4 JUMP JUMPDEST PUSH1 0x40 MLOAD DUP1 SWAP2 SUB SWAP1 RETURN JUMPDEST CALLVALUE DUP1 ISZERO PUSH2 0x138 JUMPI PUSH0 PUSH0 REVERT JUMPDEST POP PUSH2 0x141 PUSH2 0x76D JUMP JUMPDEST PUSH1 0x40 MLOAD PUSH2 0x14E SWAP2 SWAP1 PUSH2 0xB2A JUMP JUMPDEST PUSH1 0x40 MLOAD DUP1 SWAP2 SUB SWAP1 RETURN JUMPDEST CALLVALUE DUP1 ISZERO PUSH2 0x162 JUMPI PUSH0 PUSH0 REVERT JUMPDEST POP PUSH2 0x17D PUSH1 0x4 DUP1 CALLDATASIZE SUB DUP2 ADD SWAP1 PUSH2 0x178 SWAP2 SWAP1 PUSH2 0x9E6 JUMP JUMPDEST PUSH2 0x791 JUMP JUMPDEST STOP JUMPDEST CALLVALUE DUP1 ISZERO PUSH2 0x18A JUMPI PUSH0 PUSH0 REVERT JUMPDEST POP PUSH2 0x193 PUSH2 0x921 JUMP JUMPDEST PUSH1 0x40 MLOAD PUSH2 0x1A0 SWAP2 SWAP1 PUSH2 0xB43 JUMP JUMPDEST PUSH1 0x40 MLOAD DUP1 SWAP2 SUB SWAP1 RETURN JUMPDEST PUSH0 PUSH1 0x14 SWAP1 SLOAD SWAP1 PUSH2 0x100 EXP SWAP1 DIV PUSH1 0xFF AND DUP2 JUMP JUMPDEST PUSH0 PUSH0 SWAP1 SLOAD SWAP1 PUSH2 0x100 EXP SWAP1 DIV PUSH20 0xFFFFFFFFFFFFFFFFFFFFFFFFFFFFFFFFFFFFFFFF AND PUSH20 0xFFFFFFFFFFFFFFFFFFFFFFFFFFFFFFFFFFFFFFFF AND CALLER PUSH20 0xFFFFFFFFFFFFFFFFFFFFFFFFFFFFFFFFFFFFFFFF AND EQ PUSH2 0x249 JUMPI PUSH1 0x40 MLOAD PUSH32 0x8C379A000000000000000000000000000000000000000000000000000000000 DUP2 MSTORE PUSH1 0x4 ADD PUSH2 0x240 SWAP1 PUSH2 0xBB6 JUMP JUMPDEST PUSH1 0x40 MLOAD DUP1 SWAP2 SUB SWAP1 REVERT JUMPDEST PUSH0 PUSH1 0x2 DUP2 GT ISZERO PUSH2 0x25C JUMPI PUSH2 0x25B PUSH2 0x933 JUMP JUMPDEST JUMPDEST PUSH0 PUSH1 0x14 SWAP1 SLOAD SWAP1 PUSH2 0x100 EXP SWAP1 DIV PUSH1 0xFF AND PUSH1 0x2 DUP2 GT ISZERO PUSH2 0x27D JUMPI PUSH2 0x27C PUSH2 0x933 JUMP JUMPDEST JUMPDEST EQ PUSH2 0x2BD JUMPI PUSH1 0x40 MLOAD PUSH32 0x8C379A000000000000000000000000000000000000000000000000000000000 DUP2 MSTORE PUSH1 0x4 ADD PUSH2 0x2B4 SWAP1 PUSH2 0xC1E JUMP JUMPDEST PUSH1 0x40 MLOAD DUP1 SWAP2 SUB SWAP1 REVERT JUMPDEST PUSH1 0x1 PUSH0 PUSH1 0x14 PUSH2 0x100 EXP DUP2 SLOAD DUP2 PUSH1 0xFF MUL NOT AND SWAP1 DUP4 PUSH1 0x2 DUP2 GT ISZERO PUSH2 0x2E2 JUMPI PUSH2 0x2E1 PUSH2 0x933 JUMP JUMPDEST JUMPDEST MUL OR SWAP1 SSTORE POP JUMP JUMPDEST PUSH1 0x2 DUP1 DUP2 GT ISZERO PUSH2 0x2FC JUMPI PUSH2 0x2FB PUSH2 0x933 JUMP JUMPDEST JUMPDEST PUSH0 PUSH1 0x14 SWAP1 SLOAD SWAP1 PUSH2 0x100 EXP SWAP1 DIV PUSH1 0xFF AND PUSH1 0x2 DUP2 GT ISZERO PUSH2 0x31D JUMPI PUSH2 0x31C PUSH2 0x933 JUMP JUMPDEST JUMPDEST EQ PUSH2 0x35D JUMPI PUSH1 0x40 MLOAD PUSH32 0x8C379A000000000000000000000000000000000000000000000000000000000 DUP2 MSTORE PUSH1 0x4 ADD PUSH2 0x354 SWAP1 PUSH2 0xC86 JUMP JUMPDEST PUSH1 0x40 MLOAD DUP1 SWAP2 SUB SWAP1 REVERT JUMPDEST PUSH0 PUSH1 0x1 PUSH0 CALLER PUSH20 0xFFFFFFFFFFFFFFFFFFFFFFFFFFFFFFFFFFFFFFFF AND PUSH20 0xFFFFFFFFFFFFFFFFFFFFFFFFFFFFFFFFFFFFFFFF AND DUP2 MSTORE PUSH1 0x20 ADD SWAP1 DUP2 MSTORE PUSH1 0x20 ADD PUSH0 KECCAK256 PUSH1 0x40 MLOAD DUP1 PUSH1 0x40 ADD PUSH1 0x40 MSTORE SWAP1 DUP2 PUSH0 DUP3 ADD SLOAD DUP2 MSTORE PUSH1 0x20 ADD PUSH1 0x1 DUP3 ADD PUSH0 SWAP1 SLOAD SWAP1 PUSH2 0x100 EXP SWAP1 DIV PUSH1 0xFF AND PUSH1 0x1 DUP2 GT ISZERO PUSH2 0x3D3 JUMPI PUSH2 0x3D2 PUSH2 0x933 JUMP JUMPDEST JUMPDEST PUSH1 0x1 DUP2 GT ISZERO PUSH2 0x3E5 JUMPI PUSH2 0x3E4 PUSH2 0x933 JUMP JUMPDEST JUMPDEST DUP2 MSTORE POP POP SWAP1 POP PUSH0 DUP2 PUSH0 ADD MLOAD GT PUSH2 0x430 JUMPI PUSH1 0x40 MLOAD PUSH32 0x8C379A000000000000000000000000000000000000000000000000000000000 DUP2 MSTORE PUSH1 0x4 ADD PUSH2 0x427 SWAP1 PUSH2 0xCEE JUMP JUMPDEST PUSH1 0x40 MLOAD DUP1 SWAP2 SUB SWAP1 REVERT JUMPDEST PUSH0 PUSH1 0x15 SWAP1 SLOAD SWAP1 PUSH2 0x100 EXP SWAP1 DIV PUSH1 0xFF AND PUSH1 0x1 DUP2 GT ISZERO PUSH2 0x451 JUMPI PUSH2 0x450 PUSH2 0x933 JUMP JUMPDEST JUMPDEST DUP2 PUSH1 0x20 ADD MLOAD PUSH1 0x1 DUP2 GT ISZERO PUSH2 0x468 JUMPI PUSH2 0x467 PUSH2 0x933 JUMP JUMPDEST JUMPDEST SUB PUSH2 0x55C JUMPI PUSH0 PUSH1 0x2 DUP3 PUSH0 ADD MLOAD PUSH2 0x47E SWAP2 SWAP1 PUSH2 0xD39 JUMP JUMPDEST SWAP1 POP PUSH0 PUSH1 0x1 PUSH0 CALLER PUSH20 0xFFFFFFFFFFFFFFFFFFFFFFFFFFFFFFFFFFFFFFFF AND PUSH20 0xFFFFFFFFFFFFFFFFFFFFFFFFFFFFFFFFFFFFFFFF AND DUP2 MSTORE PUSH1 0x20 ADD SWAP1 DUP2 MSTORE PUSH1 0x20 ADD PUSH0 KECCAK256 PUSH0 ADD DUP2 SWAP1 SSTORE POP CALLER PUSH20 0xFFFFFFFFFFFFFFFFFFFFFFFFFFFFFFFFFFFFFFFF AND PUSH2 0x8FC DUP3 SWAP1 DUP2 ISZERO MUL SWAP1 PUSH1 0x40 MLOAD PUSH0 PUSH1 0x40 MLOAD DUP1 DUP4 SUB DUP2 DUP6 DUP9 DUP9 CALL SWAP4 POP POP POP POP ISZERO DUP1 ISZERO PUSH2 0x507 JUMPI RETURNDATASIZE PUSH0 PUSH0 RETURNDATACOPY RETURNDATASIZE PUSH0 REVERT JUMPDEST POP CALLER PUSH20 0xFFFFFFFFFFFFFFFFFFFFFFFFFFFFFFFFFFFFFFFF AND PUSH32 0x7FCF532C15F0A6DB0BD6D0E038BEA71D30D808C7D98CB3BF7268A95BF5081B65 DUP3 PUSH1 0x40 MLOAD PUSH2 0x54E SWAP2 SWAP1 PUSH2 0xD7A JUMP JUMPDEST PUSH1 0x40 MLOAD DUP1 SWAP2 SUB SWAP1 LOG2 POP PUSH2 0x597 JUMP JUMPDEST PUSH1 0x40 MLOAD PUSH32 0x8C379A000000000000000000000000000000000000000000000000000000000 DUP2 MSTORE PUSH1 0x4 ADD PUSH2 0x58E SWAP1 PUSH2 0xDDD JUMP JUMPDEST PUSH1 0x40 MLOAD DUP1 SWAP2 SUB SWAP1 REVERT JUMPDEST POP JUMP JUMPDEST PUSH0 PUSH1 0x2 DUP2 GT ISZERO PUSH2 0x5AD JUMPI PUSH2 0x5AC PUSH2 0x933 JUMP JUMPDEST JUMPDEST PUSH0 PUSH1 0x14 SWAP1 SLOAD SWAP1 PUSH2 0x100 EXP SWAP1 DIV PUSH1 0xFF AND PUSH1 0x2 DUP2 GT ISZERO PUSH2 0x5CE JUMPI PUSH2 0x5CD PUSH2 0x933 JUMP JUMPDEST JUMPDEST EQ PUSH2 0x60E JUMPI PUSH1 0x40 MLOAD PUSH32 0x8C379A000000000000000000000000000000000000000000000000000000000 DUP2 MSTORE PUSH1 0x4 ADD PUSH2 0x605 SWAP1 PUSH2 0xC1E JUMP JUMPDEST PUSH1 0x40 MLOAD DUP1 SWAP2 SUB SWAP1 REVERT JUMPDEST PUSH0 CALLVALUE GT PUSH2 0x650 JUMPI PUSH1 0x40 MLOAD PUSH32 0x8C379A000000000000000000000000000000000000000000000000000000000 DUP2 MSTORE PUSH1 0x4 ADD PUSH2 0x647 SWAP1 PUSH2 0xE6B JUMP JUMPDEST PUSH1 0x40 MLOAD DUP1 SWAP2 SUB SWAP1 REVERT JUMPDEST PUSH1 0x40 MLOAD DUP1 PUSH1 0x40 ADD PUSH1 0x40 MSTORE DUP1 CALLVALUE DUP2 MSTORE PUSH1 0x20 ADD DUP3 PUSH1 0x1 DUP2 GT ISZERO PUSH2 0x674 JUMPI PUSH2 0x673 PUSH2 0x933 JUMP JUMPDEST JUMPDEST DUP2 MSTORE POP PUSH1 0x1 PUSH0 CALLER PUSH20 0xFFFFFFFFFFFFFFFFFFFFFFFFFFFFFFFFFFFFFFFF AND PUSH20 0xFFFFFFFFFFFFFFFFFFFFFFFFFFFFFFFFFFFFFFFF AND DUP2 MSTORE PUSH1 0x20 ADD SWAP1 DUP2 MSTORE PUSH1 0x20 ADD PUSH0 KECCAK256 PUSH0 DUP3 ADD MLOAD DUP2 PUSH0 ADD SSTORE PUSH1 0x20 DUP3 ADD MLOAD DUP2 PUSH1 0x1 ADD PUSH0 PUSH2 0x100 EXP DUP2 SLOAD DUP2 PUSH1 0xFF MUL NOT AND SWAP1 DUP4 PUSH1 0x1 DUP2 GT ISZERO PUSH2 0x6E6 JUMPI PUSH2 0x6E5 PUSH2 0x933 JUMP JUMPDEST JUMPDEST MUL OR SWAP1 SSTORE POP SWAP1 POP POP CALLER PUSH20 0xFFFFFFFFFFFFFFFFFFFFFFFFFFFFFFFFFFFFFFFF AND PUSH32 0x7DF19A783369D9CEFB06E18B396518F817B48766B74157758EDA633A62F58FA7 CALLVALUE DUP4 PUSH1 0x40 MLOAD PUSH2 0x736 SWAP3 SWAP2 SWAP1 PUSH2 0xAF4 JUMP JUMPDEST PUSH1 0x40 MLOAD DUP1 SWAP2 SUB SWAP1 LOG2 POP JUMP JUMPDEST PUSH1 0x1 PUSH1 0x20 MSTORE DUP1 PUSH0 MSTORE PUSH1 0x40 PUSH0 KECCAK256 PUSH0 SWAP2 POP SWAP1 POP DUP1 PUSH0 ADD SLOAD SWAP1 DUP1 PUSH1 0x1 ADD PUSH0 SWAP1 SLOAD SWAP1 PUSH2 0x100 EXP SWAP1 DIV PUSH1 0xFF AND SWAP1 POP DUP3 JUMP JUMPDEST PUSH0 PUSH0 SWAP1 SLOAD SWAP1 PUSH2 0x100 EXP SWAP1 DIV PUSH20 0xFFFFFFFFFFFFFFFFFFFFFFFFFFFFFFFFFFFFFFFF AND DUP2 JUMP JUMPDEST PUSH0 PUSH0 SWAP1 SLOAD SWAP1 PUSH2 0x100 EXP SWAP1 DIV PUSH20 0xFFFFFFFFFFFFFFFFFFFFFFFFFFFFFFFFFFFFFFFF AND PUSH20 0xFFFFFFFFFFFFFFFFFFFFFFFFFFFFFFFFFFFFFFFF AND CALLER PUSH20 0xFFFFFFFFFFFFFFFFFFFFFFFFFFFFFFFFFFFFFFFF AND EQ PUSH2 0x81F JUMPI PUSH1 0x40 MLOAD PUSH32 0x8C379A000000000000000000000000000000000000000000000000000000000 DUP2 MSTORE PUSH1 0x4 ADD PUSH2 0x816 SWAP1 PUSH2 0xBB6 JUMP JUMPDEST PUSH1 0x40 MLOAD DUP1 SWAP2 SUB SWAP1 REVERT JUMPDEST PUSH1 0x1 PUSH1 0x2 DUP2 GT ISZERO PUSH2 0x833 JUMPI PUSH2 0x832 PUSH2 0x933 JUMP JUMPDEST JUMPDEST PUSH0 PUSH1 0x14 SWAP1 SLOAD SWAP1 PUSH2 0x100 EXP SWAP1 DIV PUSH1 0xFF AND PUSH1 0x2 DUP2 GT ISZERO PUSH2 0x854 JUMPI PUSH2 0x853 PUSH2 0x933 JUMP JUMPDEST JUMPDEST EQ PUSH2 0x894 JUMPI PUSH1 0x40 MLOAD PUSH32 0x8C379A000000000000000000000000000000000000000000000000000000000 DUP2 MSTORE PUSH1 0x4 ADD PUSH2 0x88B SWAP1 PUSH2 0xED3 JUMP JUMPDEST PUSH1 0x40 MLOAD DUP1 SWAP2 SUB SWAP1 REVERT JUMPDEST DUP1 PUSH0 PUSH1 0x15 PUSH2 0x100 EXP DUP2 SLOAD DUP2 PUSH1 0xFF MUL NOT AND SWAP1 DUP4 PUSH1 0x1 DUP2 GT ISZERO PUSH2 0x8B8 JUMPI PUSH2 0x8B7 PUSH2 0x933 JUMP JUMPDEST JUMPDEST MUL OR SWAP1 SSTORE POP PUSH1 0x2 PUSH0 PUSH1 0x14 PUSH2 0x100 EXP DUP2 SLOAD DUP2 PUSH1 0xFF MUL NOT AND SWAP1 DUP4 PUSH1 0x2 DUP2 GT ISZERO PUSH2 0x8E2 JUMPI PUSH2 0x8E1 PUSH2 0x933 JUMP JUMPDEST JUMPDEST MUL OR SWAP1 SSTORE POP PUSH32 0xD6BCD4B6873D691163F1AFF2D5585378623AEF08E17513A5253EABE39C65DC50 DUP2 PUSH1 0x40 MLOAD PUSH2 0x916 SWAP2 SWAP1 PUSH2 0xB43 JUMP JUMPDEST PUSH1 0x40 MLOAD DUP1 SWAP2 SUB SWAP1 LOG1 POP JUMP JUMPDEST PUSH0 PUSH1 0x15 SWAP1 SLOAD SWAP1 PUSH2 0x100 EXP SWAP1 DIV PUSH1 0xFF AND DUP2 JUMP JUMPDEST PUSH32 0x4E487B7100000000000000000000000000000000000000000000000000000000 PUSH0 MSTORE PUSH1 0x21 PUSH1 0x4 MSTORE PUSH1 0x24 PUSH0 REVERT JUMPDEST PUSH1 0x3 DUP2 LT PUSH2 0x971 JUMPI PUSH2 0x970 PUSH2 0x933 JUMP JUMPDEST JUMPDEST POP JUMP JUMPDEST PUSH0 DUP2 SWAP1 POP PUSH2 0x981 DUP3 PUSH2 0x960 JUMP JUMPDEST SWAP2 SWAP1 POP JUMP JUMPDEST PUSH0 PUSH2 0x990 DUP3 PUSH2 0x974 JUMP JUMPDEST SWAP1 POP SWAP2 SWAP1 POP JUMP JUMPDEST PUSH2 0x9A0 DUP2 PUSH2 0x986 JUMP JUMPDEST DUP3 MSTORE POP POP JUMP JUMPDEST PUSH0 PUSH1 0x20 DUP3 ADD SWAP1 POP PUSH2 0x9B9 PUSH0 DUP4 ADD DUP5 PUSH2 0x997 JUMP JUMPDEST SWAP3 SWAP2 POP POP JUMP JUMPDEST PUSH0 PUSH0 REVERT JUMPDEST PUSH1 0x2 DUP2 LT PUSH2 0x9CF JUMPI PUSH0 PUSH0 REVERT JUMPDEST POP JUMP JUMPDEST PUSH0 DUP2 CALLDATALOAD SWAP1 POP PUSH2 0x9E0 DUP2 PUSH2 0x9C3 JUMP JUMPDEST SWAP3 SWAP2 POP POP JUMP JUMPDEST PUSH0 PUSH1 0x20 DUP3 DUP5 SUB SLT ISZERO PUSH2 0x9FB JUMPI PUSH2 0x9FA PUSH2 0x9BF JUMP JUMPDEST JUMPDEST PUSH0 PUSH2 0xA08 DUP5 DUP3 DUP6 ADD PUSH2 0x9D2 JUMP JUMPDEST SWAP2 POP POP SWAP3 SWAP2 POP POP JUMP JUMPDEST PUSH0 PUSH20 0xFFFFFFFFFFFFFFFFFFFFFFFFFFFFFFFFFFFFFFFF DUP3 AND SWAP1 POP SWAP2 SWAP1 POP JUMP JUMPDEST PUSH0 PUSH2 0xA3A DUP3 PUSH2 0xA11 JUMP JUMPDEST SWAP1 POP SWAP2 SWAP1 POP JUMP JUMPDEST PUSH2 0xA4A DUP2 PUSH2 0xA30 JUMP JUMPDEST DUP2 EQ PUSH2 0xA54 JUMPI PUSH0 PUSH0 REVERT JUMPDEST POP JUMP JUMPDEST PUSH0 DUP2 CALLDATALOAD SWAP1 POP PUSH2 0xA65 DUP2 PUSH2 0xA41 JUMP JUMPDEST SWAP3 SWAP2 POP POP JUMP JUMPDEST PUSH0 PUSH1 0x20 DUP3 DUP5 SUB SLT ISZERO PUSH2 0xA80 JUMPI PUSH2 0xA7F PUSH2 0x9BF JUMP JUMPDEST JUMPDEST PUSH0 PUSH2 0xA8D DUP5 DUP3 DUP6 ADD PUSH2 0xA57 JUMP JUMPDEST SWAP2 POP POP SWAP3 SWAP2 POP POP JUMP JUMPDEST PUSH0 DUP2 SWAP1 POP SWAP2 SWAP1 POP JUMP JUMPDEST PUSH2 0xAA8 DUP2 PUSH2 0xA96 JUMP JUMPDEST DUP3 MSTORE POP POP JUMP JUMPDEST PUSH1 0x2 DUP2 LT PUSH2 0xABF JUMPI PUSH2 0xABE PUSH2 0x933 JUMP JUMPDEST JUMPDEST POP JUMP JUMPDEST PUSH0 DUP2 SWAP1 POP PUSH2 0xACF DUP3 PUSH2 0xAAE JUMP JUMPDEST SWAP2 SWAP1 POP JUMP JUMPDEST PUSH0 PUSH2 0xADE DUP3 PUSH2 0xAC2 JUMP JUMPDEST SWAP1 POP SWAP2 SWAP1 POP JUMP JUMPDEST PUSH2 0xAEE DUP2 PUSH2 0xAD4 JUMP JUMPDEST DUP3 MSTORE POP POP JUMP JUMPDEST PUSH0 PUSH1 0x40 DUP3 ADD SWAP1 POP PUSH2 0xB07 PUSH0 DUP4 ADD DUP6 PUSH2 0xA9F JUMP JUMPDEST PUSH2 0xB14 PUSH1 0x20 DUP4 ADD DUP5 PUSH2 0xAE5 JUMP JUMPDEST SWAP4 SWAP3 POP POP POP JUMP JUMPDEST PUSH2 0xB24 DUP2 PUSH2 0xA30 JUMP JUMPDEST DUP3 MSTORE POP POP JUMP JUMPDEST PUSH0 PUSH1 0x20 DUP3 ADD SWAP1 POP PUSH2 0xB3D PUSH0 DUP4 ADD DUP5 PUSH2 0xB1B JUMP JUMPDEST SWAP3 SWAP2 POP POP JUMP JUMPDEST PUSH0 PUSH1 0x20 DUP3 ADD SWAP1 POP PUSH2 0xB56 PUSH0 DUP4 ADD DUP5 PUSH2 0xAE5 JUMP JUMPDEST SWAP3 SWAP2 POP POP JUMP JUMPDEST PUSH0 DUP3 DUP3 MSTORE PUSH1 0x20 DUP3 ADD SWAP1 POP SWAP3 SWAP2 POP POP JUMP JUMPDEST PUSH32 0x4E6F7420746865206F776E65722E000000000000000000000000000000000000 PUSH0 DUP3 ADD MSTORE POP JUMP JUMPDEST PUSH0 PUSH2 0xBA0 PUSH1 0xE DUP4 PUSH2 0xB5C JUMP JUMPDEST SWAP2 POP PUSH2 0xBAB DUP3 PUSH2 0xB6C JUMP JUMPDEST PUSH1 0x20 DUP3 ADD SWAP1 POP SWAP2 SWAP1 POP JUMP JUMPDEST PUSH0 PUSH1 0x20 DUP3 ADD SWAP1 POP DUP2 DUP2 SUB PUSH0 DUP4 ADD MSTORE PUSH2 0xBCD DUP2 PUSH2 0xB94 JUMP JUMPDEST SWAP1 POP SWAP2 SWAP1 POP JUMP JUMPDEST PUSH32 0x42657474696E67206973206E6F74206F70656E2E000000000000000000000000 PUSH0 DUP3 ADD MSTORE POP JUMP JUMPDEST PUSH0 PUSH2 0xC08 PUSH1 0x14 DUP4 PUSH2 0xB5C JUMP JUMPDEST SWAP2 POP PUSH2 0xC13 DUP3 PUSH2 0xBD4 JUMP JUMPDEST PUSH1 0x20 DUP3 ADD SWAP1 POP SWAP2 SWAP1 POP JUMP JUMPDEST PUSH0 PUSH1 0x20 DUP3 ADD SWAP1 POP DUP2 DUP2 SUB PUSH0 DUP4 ADD MSTORE PUSH2 0xC35 DUP2 PUSH2 0xBFC JUMP JUMPDEST SWAP1 POP SWAP2 SWAP1 POP JUMP JUMPDEST PUSH32 0x42657474696E67206973206E6F74207265736F6C766564207965742E00000000 PUSH0 DUP3 ADD MSTORE POP JUMP JUMPDEST PUSH0 PUSH2 0xC70 PUSH1 0x1C DUP4 PUSH2 0xB5C JUMP JUMPDEST SWAP2 POP PUSH2 0xC7B DUP3 PUSH2 0xC3C JUMP JUMPDEST PUSH1 0x20 DUP3 ADD SWAP1 POP SWAP2 SWAP1 POP JUMP JUMPDEST PUSH0 PUSH1 0x20 DUP3 ADD SWAP1 POP DUP2 DUP2 SUB PUSH0 DUP4 ADD MSTORE PUSH2 0xC9D DUP2 PUSH2 0xC64 JUMP JUMPDEST SWAP1 POP SWAP2 SWAP1 POP JUMP JUMPDEST PUSH32 0x4E6F2062657420706C616365642E000000000000000000000000000000000000 PUSH0 DUP3 ADD MSTORE POP JUMP JUMPDEST PUSH0 PUSH2 0xCD8 PUSH1 0xE DUP4 PUSH2 0xB5C JUMP JUMPDEST SWAP2 POP PUSH2 0xCE3 DUP3 PUSH2 0xCA4 JUMP JUMPDEST PUSH1 0x20 DUP3 ADD SWAP1 POP SWAP2 SWAP1 POP JUMP JUMPDEST PUSH0 PUSH1 0x20 DUP3 ADD SWAP1 POP DUP2 DUP2 SUB PUSH0 DUP4 ADD MSTORE PUSH2 0xD05 DUP2 PUSH2 0xCCC JUMP JUMPDEST SWAP1 POP SWAP2 SWAP1 POP JUMP JUMPDEST PUSH32 0x4E487B7100000000000000000000000000000000000000000000000000000000 PUSH0 MSTORE PUSH1 0x11 PUSH1 0x4 MSTORE PUSH1 0x24 PUSH0 REVERT JUMPDEST PUSH0 PUSH2 0xD43 DUP3 PUSH2 0xA96 JUMP JUMPDEST SWAP2 POP PUSH2 0xD4E DUP4 PUSH2 0xA96 JUMP JUMPDEST SWAP3 POP DUP3 DUP3 MUL PUSH2 0xD5C DUP2 PUSH2 0xA96 JUMP JUMPDEST SWAP2 POP DUP3 DUP3 DIV DUP5 EQ DUP4 ISZERO OR PUSH2 0xD73 JUMPI PUSH2 0xD72 PUSH2 0xD0C JUMP JUMPDEST JUMPDEST POP SWAP3 SWAP2 POP POP JUMP JUMPDEST PUSH0 PUSH1 0x20 DUP3 ADD SWAP1 POP PUSH2 0xD8D PUSH0 DUP4 ADD DUP5 PUSH2 0xA9F JUMP JUMPDEST SWAP3 SWAP2 POP POP JUMP JUMPDEST PUSH32 0x596F7520646964206E6F742077696E2E00000000000000000000000000000000 PUSH0 DUP3 ADD MSTORE POP JUMP JUMPDEST PUSH0 PUSH2 0xDC7 PUSH1 0x10 DUP4 PUSH2 0xB5C JUMP JUMPDEST SWAP2 POP PUSH2 0xDD2 DUP3 PUSH2 0xD93 JUMP JUMPDEST PUSH1 0x20 DUP3 ADD SWAP1 POP SWAP2 SWAP1 POP JUMP JUMPDEST PUSH0 PUSH1 0x20 DUP3 ADD SWAP1 POP DUP2 DUP2 SUB PUSH0 DUP4 ADD MSTORE PUSH2 0xDF4 DUP2 PUSH2 0xDBB JUMP JUMPDEST SWAP1 POP SWAP2 SWAP1 POP JUMP JUMPDEST PUSH32 0x42657420616D6F756E74206D7573742062652067726561746572207468616E20 PUSH0 DUP3 ADD MSTORE PUSH32 0x7A65726F2E000000000000000000000000000000000000000000000000000000 PUSH1 0x20 DUP3 ADD MSTORE POP JUMP JUMPDEST PUSH0 PUSH2 0xE55 PUSH1 0x25 DUP4 PUSH2 0xB5C JUMP JUMPDEST SWAP2 POP PUSH2 0xE60 DUP3 PUSH2 0xDFB JUMP JUMPDEST PUSH1 0x40 DUP3 ADD SWAP1 POP SWAP2 SWAP1 POP JUMP JUMPDEST PUSH0 PUSH1 0x20 DUP3 ADD SWAP1 POP DUP2 DUP2 SUB PUSH0 DUP4 ADD MSTORE PUSH2 0xE82 DUP2 PUSH2 0xE49 JUMP JUMPDEST SWAP1 POP SWAP2 SWAP1 POP JUMP JUMPDEST PUSH32 0x42657474696E67206973206E6F7420636C6F7365642E00000000000000000000 PUSH0 DUP3 ADD MSTORE POP JUMP JUMPDEST PUSH0 PUSH2 0xEBD PUSH1 0x16 DUP4 PUSH2 0xB5C JUMP JUMPDEST SWAP2 POP PUSH2 0xEC8 DUP3 PUSH2 0xE89 JUMP JUMPDEST PUSH1 0x20 DUP3 ADD SWAP1 POP SWAP2 SWAP1 POP JUMP JUMPDEST PUSH0 PUSH1 0x20 DUP3 ADD SWAP1 POP DUP2 DUP2 SUB PUSH0 DUP4 ADD MSTORE PUSH2 0xEEA DUP2 PUSH2 0xEB1 JUMP JUMPDEST SWAP1 POP SWAP2 SWAP1 POP JUMP INVALID LOG2 PUSH5 0x6970667358 0x22 SLT KECCAK256 JUMPI PUSH22 0x9B4A3B24BA214390A7A6D96C3BA3EB5F7BF54ACF37EA 0x4B 0xE8 0xDC 0xE6 SWAP4 EXTCODECOPY SIGNEXTEND 0x2F PUSH5 0x736F6C6343 STOP ADDMOD SHL STOP CALLER "
				},
				"gasEstimates": {
					"creation": {
						"codeDepositCost": "775800",
						"executionCost": "49421",
						"totalCost": "825221"
					},
					"external": {
						"bets(address)": "5155",
						"closeBetting()": "28929",
						"currentState()": "2605",
						"owner()": "2529",
						"placeBet(uint8)": "51302",
						"resolve(uint8)": "54785",
						"winningTeam()": "2670",
						"withdraw()": "infinite"
					}
				},
				"methodIdentifiers": {
					"bets(address)": "89a78f1a",
					"closeBetting()": "15ac534d",
					"currentState()": "0c3f6acf",
					"owner()": "8da5cb5b",
					"placeBet(uint8)": "43046844",
					"resolve(uint8)": "a0270dbc",
					"winningTeam()": "de3f18e2",
					"withdraw()": "3ccfd60b"
				}
			},
			"storageLayout": {
				"storage": [
					{
						"astId": 16,
						"contract": "solidity_series.sol/betting-contract.sol:BettingContract",
						"label": "owner",
						"offset": 0,
						"slot": "0",
						"type": "t_address"
					},
					{
						"astId": 19,
						"contract": "solidity_series.sol/betting-contract.sol:BettingContract",
						"label": "currentState",
						"offset": 20,
						"slot": "0",
						"type": "t_enum(BettingState)5"
					},
					{
						"astId": 22,
						"contract": "solidity_series.sol/betting-contract.sol:BettingContract",
						"label": "winningTeam",
						"offset": 21,
						"slot": "0",
						"type": "t_enum(Team)8"
					},
					{
						"astId": 27,
						"contract": "solidity_series.sol/betting-contract.sol:BettingContract",
						"label": "bets",
						"offset": 0,
						"slot": "1",
						"type": "t_mapping(t_address,t_struct(Bet)14_storage)"
					}
				],
				"types": {
					"t_address": {
						"encoding": "inplace",
						"label": "address",
						"numberOfBytes": "20"
					},
					"t_enum(BettingState)5": {
						"encoding": "inplace",
						"label": "enum BettingContract.BettingState",
						"numberOfBytes": "1"
					},
					"t_enum(Team)8": {
						"encoding": "inplace",
						"label": "enum BettingContract.Team",
						"numberOfBytes": "1"
					},
					"t_mapping(t_address,t_struct(Bet)14_storage)": {
						"encoding": "mapping",
						"key": "t_address",
						"label": "mapping(address => struct BettingContract.Bet)",
						"numberOfBytes": "32",
						"value": "t_struct(Bet)14_storage"
					},
					"t_struct(Bet)14_storage": {
						"encoding": "inplace",
						"label": "struct BettingContract.Bet",
						"members": [
							{
								"astId": 10,
								"contract": "solidity_series.sol/betting-contract.sol:BettingContract",
								"label": "amount",
								"offset": 0,
								"slot": "0",
								"type": "t_uint256"
							},
							{
								"astId": 13,
								"contract": "solidity_series.sol/betting-contract.sol:BettingContract",
								"label": "team",
								"offset": 0,
								"slot": "1",
								"type": "t_enum(Team)8"
							}
						],
						"numberOfBytes": "64"
					},
					"t_uint256": {
						"encoding": "inplace",
						"label": "uint256",
						"numberOfBytes": "32"
					}
				}
			},
			"userdoc": {
				"kind": "user",
				"methods": {},
				"version": 1
			}
		}
	}
}