{
	"solidity_series.sol/lecturelabs.sol/lab_bookingsite.sol": {
		"BookingSite": {
			"abi": [
				{
					"inputs": [
						{
							"internalType": "address",
							"name": "",
							"type": "address"
						}
					],
					"name": "anonymousIds",
					"outputs": [
						{
							"internalType": "uint256",
							"name": "",
							"type": "uint256"
						}
					],
					"stateMutability": "view",
					"type": "function"
				},
				{
					"inputs": [
						{
							"internalType": "enum BookingSite.BookingType",
							"name": "ticketType",
							"type": "uint8"
						}
					],
					"name": "bookTicket",
					"outputs": [],
					"stateMutability": "nonpayable",
					"type": "function"
				},
				{
					"inputs": [
						{
							"internalType": "string",
							"name": "name",
							"type": "string"
						},
						{
							"internalType": "uint256",
							"name": "randomNumber",
							"type": "uint256"
						}
					],
					"name": "createAccount",
					"outputs": [],
					"stateMutability": "nonpayable",
					"type": "function"
				},
				{
					"inputs": [],
					"name": "getAnonymousId",
					"outputs": [
						{
							"internalType": "uint256",
							"name": "",
							"type": "uint256"
						}
					],
					"stateMutability": "view",
					"type": "function"
				},
				{
					"inputs": [],
					"name": "getTicketCount",
					"outputs": [
						{
							"internalType": "uint256",
							"name": "",
							"type": "uint256"
						}
					],
					"stateMutability": "view",
					"type": "function"
				},
				{
					"inputs": [],
					"name": "getUserDetails",
					"outputs": [
						{
							"internalType": "uint256",
							"name": "",
							"type": "uint256"
						},
						{
							"internalType": "string",
							"name": "",
							"type": "string"
						},
						{
							"internalType": "uint256",
							"name": "",
							"type": "uint256"
						}
					],
					"stateMutability": "view",
					"type": "function"
				},
				{
					"inputs": [],
					"name": "isRegistered",
					"outputs": [
						{
							"internalType": "bool",
							"name": "",
							"type": "bool"
						}
					],
					"stateMutability": "view",
					"type": "function"
				},
				{
					"inputs": [],
					"name": "userIdCounter",
					"outputs": [
						{
							"internalType": "uint256",
							"name": "",
							"type": "uint256"
						}
					],
					"stateMutability": "view",
					"type": "function"
				},
				{
					"inputs": [
						{
							"internalType": "address",
							"name": "",
							"type": "address"
						}
					],
					"name": "userIds",
					"outputs": [
						{
							"internalType": "uint256",
							"name": "",
							"type": "uint256"
						}
					],
					"stateMutability": "view",
					"type": "function"
				},
				{
					"inputs": [
						{
							"internalType": "address",
							"name": "",
							"type": "address"
						},
						{
							"internalType": "uint256",
							"name": "",
							"type": "uint256"
						}
					],
					"name": "userTicket",
					"outputs": [
						{
							"internalType": "enum BookingSite.BookingType",
							"name": "",
							"type": "uint8"
						}
					],
					"stateMutability": "view",
					"type": "function"
				},
				{
					"inputs": [
						{
							"internalType": "address",
							"name": "",
							"type": "address"
						}
					],
					"name": "username",
					"outputs": [
						{
							"internalType": "string",
							"name": "",
							"type": "string"
						}
					],
					"stateMutability": "view",
					"type": "function"
				}
			],
			"devdoc": {
				"kind": "dev",
				"methods": {},
				"version": 1
			},
			"evm": {
				"assembly": "    /* \"solidity_series.sol/lecturelabs.sol/lab_bookingsite.sol\":61:1583  contract BookingSite {... */\n  mstore(0x40, 0x80)\n    /* \"solidity_series.sol/lecturelabs.sol/lab_bookingsite.sol\":184:185  1 */\n  0x01\n    /* \"solidity_series.sol/lecturelabs.sol/lab_bookingsite.sol\":156:185  uint public userIdCounter = 1 */\n  0x00\n  sstore\n    /* \"solidity_series.sol/lecturelabs.sol/lab_bookingsite.sol\":61:1583  contract BookingSite {... */\n  callvalue\n  dup1\n  iszero\n  tag_1\n  jumpi\n  revert(0x00, 0x00)\ntag_1:\n  pop\n  dataSize(sub_0)\n  dup1\n  dataOffset(sub_0)\n  0x00\n  codecopy\n  0x00\n  return\nstop\n\nsub_0: assembly {\n        /* \"solidity_series.sol/lecturelabs.sol/lab_bookingsite.sol\":61:1583  contract BookingSite {... */\n      mstore(0x40, 0x80)\n      callvalue\n      dup1\n      iszero\n      tag_1\n      jumpi\n      revert(0x00, 0x00)\n    tag_1:\n      pop\n      jumpi(tag_2, lt(calldatasize, 0x04))\n      shr(0xe0, calldataload(0x00))\n      dup1\n      0x4081db51\n      gt\n      tag_14\n      jumpi\n      dup1\n      0x4081db51\n      eq\n      tag_8\n      jumpi\n      dup1\n      0x6586ace6\n      eq\n      tag_9\n      jumpi\n      dup1\n      0x837d05f0\n      eq\n      tag_10\n      jumpi\n      dup1\n      0x942886be\n      eq\n      tag_11\n      jumpi\n      dup1\n      0x94a3c428\n      eq\n      tag_12\n      jumpi\n      dup1\n      0xe11f6d13\n      eq\n      tag_13\n      jumpi\n      jump(tag_2)\n    tag_14:\n      dup1\n      0x0610a7a2\n      eq\n      tag_3\n      jumpi\n      dup1\n      0x21c63a47\n      eq\n      tag_4\n      jumpi\n      dup1\n      0x22366844\n      eq\n      tag_5\n      jumpi\n      dup1\n      0x2faba6ae\n      eq\n      tag_6\n      jumpi\n      dup1\n      0x3bc98d0a\n      eq\n      tag_7\n      jumpi\n    tag_2:\n      revert(0x00, 0x00)\n        /* \"solidity_series.sol/lecturelabs.sol/lab_bookingsite.sol\":192:234  mapping(address => string) public username */\n    tag_3:\n      tag_15\n      0x04\n      dup1\n      calldatasize\n      sub\n      dup2\n      add\n      swap1\n      tag_16\n      swap2\n      swap1\n      tag_17\n      jump\t// in\n    tag_16:\n      tag_18\n      jump\t// in\n    tag_15:\n      mload(0x40)\n      tag_19\n      swap2\n      swap1\n      tag_20\n      jump\t// in\n    tag_19:\n      mload(0x40)\n      dup1\n      swap2\n      sub\n      swap1\n      return\n        /* \"solidity_series.sol/lecturelabs.sol/lab_bookingsite.sol\":1072:1237  function getTicketCount() public view returns (uint) {... */\n    tag_4:\n      tag_21\n      tag_22\n      jump\t// in\n    tag_21:\n      mload(0x40)\n      tag_23\n      swap2\n      swap1\n      tag_24\n      jump\t// in\n    tag_23:\n      mload(0x40)\n      dup1\n      swap2\n      sub\n      swap1\n      return\n        /* \"solidity_series.sol/lecturelabs.sol/lab_bookingsite.sol\":1479:1580  function isRegistered() public view returns (bool) {... */\n    tag_5:\n      tag_25\n      tag_26\n      jump\t// in\n    tag_25:\n      mload(0x40)\n      tag_27\n      swap2\n      swap1\n      tag_28\n      jump\t// in\n    tag_27:\n      mload(0x40)\n      dup1\n      swap2\n      sub\n      swap1\n      return\n        /* \"solidity_series.sol/lecturelabs.sol/lab_bookingsite.sol\":156:185  uint public userIdCounter = 1 */\n    tag_6:\n      tag_29\n      tag_30\n      jump\t// in\n    tag_29:\n      mload(0x40)\n      tag_31\n      swap2\n      swap1\n      tag_24\n      jump\t// in\n    tag_31:\n      mload(0x40)\n      dup1\n      swap2\n      sub\n      swap1\n      return\n        /* \"solidity_series.sol/lecturelabs.sol/lab_bookingsite.sol\":730:896  function bookTicket(BookingType ticketType) public {... */\n    tag_7:\n      tag_32\n      0x04\n      dup1\n      calldatasize\n      sub\n      dup2\n      add\n      swap1\n      tag_33\n      swap2\n      swap1\n      tag_34\n      jump\t// in\n    tag_33:\n      tag_35\n      jump\t// in\n    tag_32:\n      stop\n        /* \"solidity_series.sol/lecturelabs.sol/lab_bookingsite.sol\":241:280  mapping(address => uint) public userIds */\n    tag_8:\n      tag_36\n      0x04\n      dup1\n      calldatasize\n      sub\n      dup2\n      add\n      swap1\n      tag_37\n      swap2\n      swap1\n      tag_17\n      jump\t// in\n    tag_37:\n      tag_38\n      jump\t// in\n    tag_36:\n      mload(0x40)\n      tag_39\n      swap2\n      swap1\n      tag_24\n      jump\t// in\n    tag_39:\n      mload(0x40)\n      dup1\n      swap2\n      sub\n      swap1\n      return\n        /* \"solidity_series.sol/lecturelabs.sol/lab_bookingsite.sol\":398:722  function createAccount(string memory name, uint randomNumber) public {... */\n    tag_9:\n      tag_40\n      0x04\n      dup1\n      calldatasize\n      sub\n      dup2\n      add\n      swap1\n      tag_41\n      swap2\n      swap1\n      tag_42\n      jump\t// in\n    tag_41:\n      tag_43\n      jump\t// in\n    tag_40:\n      stop\n        /* \"solidity_series.sol/lecturelabs.sol/lab_bookingsite.sol\":287:331  mapping(address => uint) public anonymousIds */\n    tag_10:\n      tag_44\n      0x04\n      dup1\n      calldatasize\n      sub\n      dup2\n      add\n      swap1\n      tag_45\n      swap2\n      swap1\n      tag_17\n      jump\t// in\n    tag_45:\n      tag_46\n      jump\t// in\n    tag_44:\n      mload(0x40)\n      tag_47\n      swap2\n      swap1\n      tag_24\n      jump\t// in\n    tag_47:\n      mload(0x40)\n      dup1\n      swap2\n      sub\n      swap1\n      return\n        /* \"solidity_series.sol/lecturelabs.sol/lab_bookingsite.sol\":1245:1471  function getUserDetails() public view returns (uint, string memory, uint) {... */\n    tag_11:\n      tag_48\n      tag_49\n      jump\t// in\n    tag_48:\n      mload(0x40)\n      tag_50\n      swap4\n      swap3\n      swap2\n      swap1\n      tag_51\n      jump\t// in\n    tag_50:\n      mload(0x40)\n      dup1\n      swap2\n      sub\n      swap1\n      return\n        /* \"solidity_series.sol/lecturelabs.sol/lab_bookingsite.sol\":338:389  mapping(address => BookingType[]) public userTicket */\n    tag_12:\n      tag_52\n      0x04\n      dup1\n      calldatasize\n      sub\n      dup2\n      add\n      swap1\n      tag_53\n      swap2\n      swap1\n      tag_54\n      jump\t// in\n    tag_53:\n      tag_55\n      jump\t// in\n    tag_52:\n      mload(0x40)\n      tag_56\n      swap2\n      swap1\n      tag_57\n      jump\t// in\n    tag_56:\n      mload(0x40)\n      dup1\n      swap2\n      sub\n      swap1\n      return\n        /* \"solidity_series.sol/lecturelabs.sol/lab_bookingsite.sol\":904:1064  function getAnonymousId() public view returns (uint) {... */\n    tag_13:\n      tag_58\n      tag_59\n      jump\t// in\n    tag_58:\n      mload(0x40)\n      tag_60\n      swap2\n      swap1\n      tag_24\n      jump\t// in\n    tag_60:\n      mload(0x40)\n      dup1\n      swap2\n      sub\n      swap1\n      return\n        /* \"solidity_series.sol/lecturelabs.sol/lab_bookingsite.sol\":192:234  mapping(address => string) public username */\n    tag_18:\n      mstore(0x20, 0x01)\n      dup1\n      0x00\n      mstore\n      keccak256(0x00, 0x40)\n      0x00\n      swap2\n      pop\n      swap1\n      pop\n      dup1\n      sload\n      tag_61\n      swap1\n      tag_62\n      jump\t// in\n    tag_61:\n      dup1\n      0x1f\n      add\n      0x20\n      dup1\n      swap2\n      div\n      mul\n      0x20\n      add\n      mload(0x40)\n      swap1\n      dup2\n      add\n      0x40\n      mstore\n      dup1\n      swap3\n      swap2\n      swap1\n      dup2\n      dup2\n      mstore\n      0x20\n      add\n      dup3\n      dup1\n      sload\n      tag_63\n      swap1\n      tag_62\n      jump\t// in\n    tag_63:\n      dup1\n      iszero\n      tag_64\n      jumpi\n      dup1\n      0x1f\n      lt\n      tag_65\n      jumpi\n      0x0100\n      dup1\n      dup4\n      sload\n      div\n      mul\n      dup4\n      mstore\n      swap2\n      0x20\n      add\n      swap2\n      jump(tag_64)\n    tag_65:\n      dup3\n      add\n      swap2\n      swap1\n      0x00\n      mstore\n      keccak256(0x00, 0x20)\n      swap1\n    tag_66:\n      dup2\n      sload\n      dup2\n      mstore\n      swap1\n      0x01\n      add\n      swap1\n      0x20\n      add\n      dup1\n      dup4\n      gt\n      tag_66\n      jumpi\n      dup3\n      swap1\n      sub\n      0x1f\n      and\n      dup3\n      add\n      swap2\n    tag_64:\n      pop\n      pop\n      pop\n      pop\n      pop\n      dup2\n      jump\t// out\n        /* \"solidity_series.sol/lecturelabs.sol/lab_bookingsite.sol\":1072:1237  function getTicketCount() public view returns (uint) {... */\n    tag_22:\n        /* \"solidity_series.sol/lecturelabs.sol/lab_bookingsite.sol\":1119:1123  uint */\n      0x00\n        /* \"solidity_series.sol/lecturelabs.sol/lab_bookingsite.sol\":1144:1158  isRegistered() */\n      tag_68\n        /* \"solidity_series.sol/lecturelabs.sol/lab_bookingsite.sol\":1144:1156  isRegistered */\n      tag_26\n        /* \"solidity_series.sol/lecturelabs.sol/lab_bookingsite.sol\":1144:1158  isRegistered() */\n      jump\t// in\n    tag_68:\n        /* \"solidity_series.sol/lecturelabs.sol/lab_bookingsite.sol\":1136:1182  require(isRegistered(), \"User not registered\") */\n      tag_69\n      jumpi\n      mload(0x40)\n      0x08c379a000000000000000000000000000000000000000000000000000000000\n      dup2\n      mstore\n      0x04\n      add\n      tag_70\n      swap1\n      tag_71\n      jump\t// in\n    tag_70:\n      mload(0x40)\n      dup1\n      swap2\n      sub\n      swap1\n      revert\n    tag_69:\n        /* \"solidity_series.sol/lecturelabs.sol/lab_bookingsite.sol\":1200:1210  userTicket */\n      0x04\n        /* \"solidity_series.sol/lecturelabs.sol/lab_bookingsite.sol\":1200:1222  userTicket[msg.sender] */\n      0x00\n        /* \"solidity_series.sol/lecturelabs.sol/lab_bookingsite.sol\":1211:1221  msg.sender */\n      caller\n        /* \"solidity_series.sol/lecturelabs.sol/lab_bookingsite.sol\":1200:1222  userTicket[msg.sender] */\n      0xffffffffffffffffffffffffffffffffffffffff\n      and\n      0xffffffffffffffffffffffffffffffffffffffff\n      and\n      dup2\n      mstore\n      0x20\n      add\n      swap1\n      dup2\n      mstore\n      0x20\n      add\n      0x00\n      keccak256\n        /* \"solidity_series.sol/lecturelabs.sol/lab_bookingsite.sol\":1200:1229  userTicket[msg.sender].length */\n      dup1\n      sload\n      swap1\n      pop\n        /* \"solidity_series.sol/lecturelabs.sol/lab_bookingsite.sol\":1193:1229  return userTicket[msg.sender].length */\n      swap1\n      pop\n        /* \"solidity_series.sol/lecturelabs.sol/lab_bookingsite.sol\":1072:1237  function getTicketCount() public view returns (uint) {... */\n      swap1\n      jump\t// out\n        /* \"solidity_series.sol/lecturelabs.sol/lab_bookingsite.sol\":1479:1580  function isRegistered() public view returns (bool) {... */\n    tag_26:\n        /* \"solidity_series.sol/lecturelabs.sol/lab_bookingsite.sol\":1524:1528  bool */\n      0x00\n        /* \"solidity_series.sol/lecturelabs.sol/lab_bookingsite.sol\":1571:1572  0 */\n      0x00\n        /* \"solidity_series.sol/lecturelabs.sol/lab_bookingsite.sol\":1548:1555  userIds */\n      0x02\n        /* \"solidity_series.sol/lecturelabs.sol/lab_bookingsite.sol\":1548:1567  userIds[msg.sender] */\n      0x00\n        /* \"solidity_series.sol/lecturelabs.sol/lab_bookingsite.sol\":1556:1566  msg.sender */\n      caller\n        /* \"solidity_series.sol/lecturelabs.sol/lab_bookingsite.sol\":1548:1567  userIds[msg.sender] */\n      0xffffffffffffffffffffffffffffffffffffffff\n      and\n      0xffffffffffffffffffffffffffffffffffffffff\n      and\n      dup2\n      mstore\n      0x20\n      add\n      swap1\n      dup2\n      mstore\n      0x20\n      add\n      0x00\n      keccak256\n      sload\n        /* \"solidity_series.sol/lecturelabs.sol/lab_bookingsite.sol\":1548:1572  userIds[msg.sender] != 0 */\n      eq\n      iszero\n        /* \"solidity_series.sol/lecturelabs.sol/lab_bookingsite.sol\":1541:1572  return userIds[msg.sender] != 0 */\n      swap1\n      pop\n        /* \"solidity_series.sol/lecturelabs.sol/lab_bookingsite.sol\":1479:1580  function isRegistered() public view returns (bool) {... */\n      swap1\n      jump\t// out\n        /* \"solidity_series.sol/lecturelabs.sol/lab_bookingsite.sol\":156:185  uint public userIdCounter = 1 */\n    tag_30:\n      sload(0x00)\n      dup2\n      jump\t// out\n        /* \"solidity_series.sol/lecturelabs.sol/lab_bookingsite.sol\":730:896  function bookTicket(BookingType ticketType) public {... */\n    tag_35:\n        /* \"solidity_series.sol/lecturelabs.sol/lab_bookingsite.sol\":800:814  isRegistered() */\n      tag_74\n        /* \"solidity_series.sol/lecturelabs.sol/lab_bookingsite.sol\":800:812  isRegistered */\n      tag_26\n        /* \"solidity_series.sol/lecturelabs.sol/lab_bookingsite.sol\":800:814  isRegistered() */\n      jump\t// in\n    tag_74:\n        /* \"solidity_series.sol/lecturelabs.sol/lab_bookingsite.sol\":792:838  require(isRegistered(), \"User not registered\") */\n      tag_75\n      jumpi\n      mload(0x40)\n      0x08c379a000000000000000000000000000000000000000000000000000000000\n      dup2\n      mstore\n      0x04\n      add\n      tag_76\n      swap1\n      tag_71\n      jump\t// in\n    tag_76:\n      mload(0x40)\n      dup1\n      swap2\n      sub\n      swap1\n      revert\n    tag_75:\n        /* \"solidity_series.sol/lecturelabs.sol/lab_bookingsite.sol\":849:859  userTicket */\n      0x04\n        /* \"solidity_series.sol/lecturelabs.sol/lab_bookingsite.sol\":849:871  userTicket[msg.sender] */\n      0x00\n        /* \"solidity_series.sol/lecturelabs.sol/lab_bookingsite.sol\":860:870  msg.sender */\n      caller\n        /* \"solidity_series.sol/lecturelabs.sol/lab_bookingsite.sol\":849:871  userTicket[msg.sender] */\n      0xffffffffffffffffffffffffffffffffffffffff\n      and\n      0xffffffffffffffffffffffffffffffffffffffff\n      and\n      dup2\n      mstore\n      0x20\n      add\n      swap1\n      dup2\n      mstore\n      0x20\n      add\n      0x00\n      keccak256\n        /* \"solidity_series.sol/lecturelabs.sol/lab_bookingsite.sol\":877:887  ticketType */\n      dup2\n        /* \"solidity_series.sol/lecturelabs.sol/lab_bookingsite.sol\":849:888  userTicket[msg.sender].push(ticketType) */\n      swap1\n      dup1\n      0x01\n      dup2\n      sload\n      add\n      dup1\n      dup3\n      sstore\n      dup1\n      swap2\n      pop\n      pop\n      0x01\n      swap1\n      sub\n      swap1\n      0x00\n      mstore\n      keccak256(0x00, 0x20)\n      swap1\n      0x20\n      swap2\n      dup3\n      dup3\n      div\n      add\n      swap2\n      swap1\n      mod\n      swap1\n      swap2\n      swap1\n      swap2\n      swap1\n      swap2\n      0x0100\n      exp\n      dup2\n      sload\n      dup2\n      0xff\n      mul\n      not\n      and\n      swap1\n      dup4\n      0x04\n      dup2\n      gt\n      iszero\n      tag_78\n      jumpi\n      tag_79\n      tag_80\n      jump\t// in\n    tag_79:\n    tag_78:\n      mul\n      or\n      swap1\n      sstore\n      pop\n        /* \"solidity_series.sol/lecturelabs.sol/lab_bookingsite.sol\":730:896  function bookTicket(BookingType ticketType) public {... */\n      pop\n      jump\t// out\n        /* \"solidity_series.sol/lecturelabs.sol/lab_bookingsite.sol\":241:280  mapping(address => uint) public userIds */\n    tag_38:\n      mstore(0x20, 0x02)\n      dup1\n      0x00\n      mstore\n      keccak256(0x00, 0x40)\n      0x00\n      swap2\n      pop\n      swap1\n      pop\n      sload\n      dup2\n      jump\t// out\n        /* \"solidity_series.sol/lecturelabs.sol/lab_bookingsite.sol\":398:722  function createAccount(string memory name, uint randomNumber) public {... */\n    tag_43:\n        /* \"solidity_series.sol/lecturelabs.sol/lab_bookingsite.sol\":509:510  0 */\n      0x00\n        /* \"solidity_series.sol/lecturelabs.sol/lab_bookingsite.sol\":486:493  userIds */\n      0x02\n        /* \"solidity_series.sol/lecturelabs.sol/lab_bookingsite.sol\":486:505  userIds[msg.sender] */\n      0x00\n        /* \"solidity_series.sol/lecturelabs.sol/lab_bookingsite.sol\":494:504  msg.sender */\n      caller\n        /* \"solidity_series.sol/lecturelabs.sol/lab_bookingsite.sol\":486:505  userIds[msg.sender] */\n      0xffffffffffffffffffffffffffffffffffffffff\n      and\n      0xffffffffffffffffffffffffffffffffffffffff\n      and\n      dup2\n      mstore\n      0x20\n      add\n      swap1\n      dup2\n      mstore\n      0x20\n      add\n      0x00\n      keccak256\n      sload\n        /* \"solidity_series.sol/lecturelabs.sol/lab_bookingsite.sol\":486:510  userIds[msg.sender] == 0 */\n      eq\n        /* \"solidity_series.sol/lecturelabs.sol/lab_bookingsite.sol\":478:538  require(userIds[msg.sender] == 0, \"User already registered\") */\n      tag_82\n      jumpi\n      mload(0x40)\n      0x08c379a000000000000000000000000000000000000000000000000000000000\n      dup2\n      mstore\n      0x04\n      add\n      tag_83\n      swap1\n      tag_84\n      jump\t// in\n    tag_83:\n      mload(0x40)\n      dup1\n      swap2\n      sub\n      swap1\n      revert\n    tag_82:\n        /* \"solidity_series.sol/lecturelabs.sol/lab_bookingsite.sol\":572:576  name */\n      dup2\n        /* \"solidity_series.sol/lecturelabs.sol/lab_bookingsite.sol\":549:557  username */\n      0x01\n        /* \"solidity_series.sol/lecturelabs.sol/lab_bookingsite.sol\":549:569  username[msg.sender] */\n      0x00\n        /* \"solidity_series.sol/lecturelabs.sol/lab_bookingsite.sol\":558:568  msg.sender */\n      caller\n        /* \"solidity_series.sol/lecturelabs.sol/lab_bookingsite.sol\":549:569  username[msg.sender] */\n      0xffffffffffffffffffffffffffffffffffffffff\n      and\n      0xffffffffffffffffffffffffffffffffffffffff\n      and\n      dup2\n      mstore\n      0x20\n      add\n      swap1\n      dup2\n      mstore\n      0x20\n      add\n      0x00\n      keccak256\n        /* \"solidity_series.sol/lecturelabs.sol/lab_bookingsite.sol\":549:576  username[msg.sender] = name */\n      swap1\n      dup2\n      tag_85\n      swap2\n      swap1\n      tag_86\n      jump\t// in\n    tag_85:\n      pop\n        /* \"solidity_series.sol/lecturelabs.sol/lab_bookingsite.sol\":609:622  userIdCounter */\n      sload(0x00)\n        /* \"solidity_series.sol/lecturelabs.sol/lab_bookingsite.sol\":587:594  userIds */\n      0x02\n        /* \"solidity_series.sol/lecturelabs.sol/lab_bookingsite.sol\":587:606  userIds[msg.sender] */\n      0x00\n        /* \"solidity_series.sol/lecturelabs.sol/lab_bookingsite.sol\":595:605  msg.sender */\n      caller\n        /* \"solidity_series.sol/lecturelabs.sol/lab_bookingsite.sol\":587:606  userIds[msg.sender] */\n      0xffffffffffffffffffffffffffffffffffffffff\n      and\n      0xffffffffffffffffffffffffffffffffffffffff\n      and\n      dup2\n      mstore\n      0x20\n      add\n      swap1\n      dup2\n      mstore\n      0x20\n      add\n      0x00\n      keccak256\n        /* \"solidity_series.sol/lecturelabs.sol/lab_bookingsite.sol\":587:622  userIds[msg.sender] = userIdCounter */\n      dup2\n      swap1\n      sstore\n      pop\n        /* \"solidity_series.sol/lecturelabs.sol/lab_bookingsite.sol\":676:688  randomNumber */\n      dup1\n        /* \"solidity_series.sol/lecturelabs.sol/lab_bookingsite.sol\":660:673  userIdCounter */\n      sload(0x00)\n        /* \"solidity_series.sol/lecturelabs.sol/lab_bookingsite.sol\":660:688  userIdCounter + randomNumber */\n      tag_87\n      swap2\n      swap1\n      tag_88\n      jump\t// in\n    tag_87:\n        /* \"solidity_series.sol/lecturelabs.sol/lab_bookingsite.sol\":633:645  anonymousIds */\n      0x03\n        /* \"solidity_series.sol/lecturelabs.sol/lab_bookingsite.sol\":633:657  anonymousIds[msg.sender] */\n      0x00\n        /* \"solidity_series.sol/lecturelabs.sol/lab_bookingsite.sol\":646:656  msg.sender */\n      caller\n        /* \"solidity_series.sol/lecturelabs.sol/lab_bookingsite.sol\":633:657  anonymousIds[msg.sender] */\n      0xffffffffffffffffffffffffffffffffffffffff\n      and\n      0xffffffffffffffffffffffffffffffffffffffff\n      and\n      dup2\n      mstore\n      0x20\n      add\n      swap1\n      dup2\n      mstore\n      0x20\n      add\n      0x00\n      keccak256\n        /* \"solidity_series.sol/lecturelabs.sol/lab_bookingsite.sol\":633:688  anonymousIds[msg.sender] = userIdCounter + randomNumber */\n      dup2\n      swap1\n      sstore\n      pop\n        /* \"solidity_series.sol/lecturelabs.sol/lab_bookingsite.sol\":699:712  userIdCounter */\n      0x00\n      0x00\n        /* \"solidity_series.sol/lecturelabs.sol/lab_bookingsite.sol\":699:714  userIdCounter++ */\n      dup2\n      sload\n      dup1\n      swap3\n      swap2\n      swap1\n      tag_89\n      swap1\n      tag_90\n      jump\t// in\n    tag_89:\n      swap2\n      swap1\n      pop\n      sstore\n      pop\n        /* \"solidity_series.sol/lecturelabs.sol/lab_bookingsite.sol\":398:722  function createAccount(string memory name, uint randomNumber) public {... */\n      pop\n      pop\n      jump\t// out\n        /* \"solidity_series.sol/lecturelabs.sol/lab_bookingsite.sol\":287:331  mapping(address => uint) public anonymousIds */\n    tag_46:\n      mstore(0x20, 0x03)\n      dup1\n      0x00\n      mstore\n      keccak256(0x00, 0x40)\n      0x00\n      swap2\n      pop\n      swap1\n      pop\n      sload\n      dup2\n      jump\t// out\n        /* \"solidity_series.sol/lecturelabs.sol/lab_bookingsite.sol\":1245:1471  function getUserDetails() public view returns (uint, string memory, uint) {... */\n    tag_49:\n        /* \"solidity_series.sol/lecturelabs.sol/lab_bookingsite.sol\":1292:1296  uint */\n      0x00\n        /* \"solidity_series.sol/lecturelabs.sol/lab_bookingsite.sol\":1298:1311  string memory */\n      0x60\n        /* \"solidity_series.sol/lecturelabs.sol/lab_bookingsite.sol\":1313:1317  uint */\n      0x00\n        /* \"solidity_series.sol/lecturelabs.sol/lab_bookingsite.sol\":1338:1352  isRegistered() */\n      tag_92\n        /* \"solidity_series.sol/lecturelabs.sol/lab_bookingsite.sol\":1338:1350  isRegistered */\n      tag_26\n        /* \"solidity_series.sol/lecturelabs.sol/lab_bookingsite.sol\":1338:1352  isRegistered() */\n      jump\t// in\n    tag_92:\n        /* \"solidity_series.sol/lecturelabs.sol/lab_bookingsite.sol\":1330:1376  require(isRegistered(), \"User not registered\") */\n      tag_93\n      jumpi\n      mload(0x40)\n      0x08c379a000000000000000000000000000000000000000000000000000000000\n      dup2\n      mstore\n      0x04\n      add\n      tag_94\n      swap1\n      tag_71\n      jump\t// in\n    tag_94:\n      mload(0x40)\n      dup1\n      swap2\n      sub\n      swap1\n      revert\n    tag_93:\n        /* \"solidity_series.sol/lecturelabs.sol/lab_bookingsite.sol\":1395:1402  userIds */\n      0x02\n        /* \"solidity_series.sol/lecturelabs.sol/lab_bookingsite.sol\":1395:1414  userIds[msg.sender] */\n      0x00\n        /* \"solidity_series.sol/lecturelabs.sol/lab_bookingsite.sol\":1403:1413  msg.sender */\n      caller\n        /* \"solidity_series.sol/lecturelabs.sol/lab_bookingsite.sol\":1395:1414  userIds[msg.sender] */\n      0xffffffffffffffffffffffffffffffffffffffff\n      and\n      0xffffffffffffffffffffffffffffffffffffffff\n      and\n      dup2\n      mstore\n      0x20\n      add\n      swap1\n      dup2\n      mstore\n      0x20\n      add\n      0x00\n      keccak256\n      sload\n        /* \"solidity_series.sol/lecturelabs.sol/lab_bookingsite.sol\":1416:1424  username */\n      0x01\n        /* \"solidity_series.sol/lecturelabs.sol/lab_bookingsite.sol\":1416:1436  username[msg.sender] */\n      0x00\n        /* \"solidity_series.sol/lecturelabs.sol/lab_bookingsite.sol\":1425:1435  msg.sender */\n      caller\n        /* \"solidity_series.sol/lecturelabs.sol/lab_bookingsite.sol\":1416:1436  username[msg.sender] */\n      0xffffffffffffffffffffffffffffffffffffffff\n      and\n      0xffffffffffffffffffffffffffffffffffffffff\n      and\n      dup2\n      mstore\n      0x20\n      add\n      swap1\n      dup2\n      mstore\n      0x20\n      add\n      0x00\n      keccak256\n        /* \"solidity_series.sol/lecturelabs.sol/lab_bookingsite.sol\":1438:1450  anonymousIds */\n      0x03\n        /* \"solidity_series.sol/lecturelabs.sol/lab_bookingsite.sol\":1438:1462  anonymousIds[msg.sender] */\n      0x00\n        /* \"solidity_series.sol/lecturelabs.sol/lab_bookingsite.sol\":1451:1461  msg.sender */\n      caller\n        /* \"solidity_series.sol/lecturelabs.sol/lab_bookingsite.sol\":1438:1462  anonymousIds[msg.sender] */\n      0xffffffffffffffffffffffffffffffffffffffff\n      and\n      0xffffffffffffffffffffffffffffffffffffffff\n      and\n      dup2\n      mstore\n      0x20\n      add\n      swap1\n      dup2\n      mstore\n      0x20\n      add\n      0x00\n      keccak256\n      sload\n        /* \"solidity_series.sol/lecturelabs.sol/lab_bookingsite.sol\":1387:1463  return (userIds[msg.sender], username[msg.sender], anonymousIds[msg.sender]) */\n      dup2\n      dup1\n      sload\n      tag_95\n      swap1\n      tag_62\n      jump\t// in\n    tag_95:\n      dup1\n      0x1f\n      add\n      0x20\n      dup1\n      swap2\n      div\n      mul\n      0x20\n      add\n      mload(0x40)\n      swap1\n      dup2\n      add\n      0x40\n      mstore\n      dup1\n      swap3\n      swap2\n      swap1\n      dup2\n      dup2\n      mstore\n      0x20\n      add\n      dup3\n      dup1\n      sload\n      tag_96\n      swap1\n      tag_62\n      jump\t// in\n    tag_96:\n      dup1\n      iszero\n      tag_97\n      jumpi\n      dup1\n      0x1f\n      lt\n      tag_98\n      jumpi\n      0x0100\n      dup1\n      dup4\n      sload\n      div\n      mul\n      dup4\n      mstore\n      swap2\n      0x20\n      add\n      swap2\n      jump(tag_97)\n    tag_98:\n      dup3\n      add\n      swap2\n      swap1\n      0x00\n      mstore\n      keccak256(0x00, 0x20)\n      swap1\n    tag_99:\n      dup2\n      sload\n      dup2\n      mstore\n      swap1\n      0x01\n      add\n      swap1\n      0x20\n      add\n      dup1\n      dup4\n      gt\n      tag_99\n      jumpi\n      dup3\n      swap1\n      sub\n      0x1f\n      and\n      dup3\n      add\n      swap2\n    tag_97:\n      pop\n      pop\n      pop\n      pop\n      pop\n      swap2\n      pop\n      swap3\n      pop\n      swap3\n      pop\n      swap3\n      pop\n        /* \"solidity_series.sol/lecturelabs.sol/lab_bookingsite.sol\":1245:1471  function getUserDetails() public view returns (uint, string memory, uint) {... */\n      swap1\n      swap2\n      swap3\n      jump\t// out\n        /* \"solidity_series.sol/lecturelabs.sol/lab_bookingsite.sol\":338:389  mapping(address => BookingType[]) public userTicket */\n    tag_55:\n      mstore(0x20, 0x04)\n      dup2\n      0x00\n      mstore\n      keccak256(0x00, 0x40)\n      dup2\n      dup2\n      sload\n      dup2\n      lt\n      tag_100\n      jumpi\n      0x00\n      dup1\n      revert\n    tag_100:\n      swap1\n      0x00\n      mstore\n      keccak256(0x00, 0x20)\n      swap1\n      0x20\n      swap2\n      dup3\n      dup3\n      div\n      add\n      swap2\n      swap1\n      mod\n      swap2\n      pop\n      swap2\n      pop\n      swap1\n      sload\n      swap1\n      0x0100\n      exp\n      swap1\n      div\n      0xff\n      and\n      dup2\n      jump\t// out\n        /* \"solidity_series.sol/lecturelabs.sol/lab_bookingsite.sol\":904:1064  function getAnonymousId() public view returns (uint) {... */\n    tag_59:\n        /* \"solidity_series.sol/lecturelabs.sol/lab_bookingsite.sol\":951:955  uint */\n      0x00\n        /* \"solidity_series.sol/lecturelabs.sol/lab_bookingsite.sol\":976:990  isRegistered() */\n      tag_103\n        /* \"solidity_series.sol/lecturelabs.sol/lab_bookingsite.sol\":976:988  isRegistered */\n      tag_26\n        /* \"solidity_series.sol/lecturelabs.sol/lab_bookingsite.sol\":976:990  isRegistered() */\n      jump\t// in\n    tag_103:\n        /* \"solidity_series.sol/lecturelabs.sol/lab_bookingsite.sol\":968:1014  require(isRegistered(), \"User not registered\") */\n      tag_104\n      jumpi\n      mload(0x40)\n      0x08c379a000000000000000000000000000000000000000000000000000000000\n      dup2\n      mstore\n      0x04\n      add\n      tag_105\n      swap1\n      tag_71\n      jump\t// in\n    tag_105:\n      mload(0x40)\n      dup1\n      swap2\n      sub\n      swap1\n      revert\n    tag_104:\n        /* \"solidity_series.sol/lecturelabs.sol/lab_bookingsite.sol\":1032:1044  anonymousIds */\n      0x03\n        /* \"solidity_series.sol/lecturelabs.sol/lab_bookingsite.sol\":1032:1056  anonymousIds[msg.sender] */\n      0x00\n        /* \"solidity_series.sol/lecturelabs.sol/lab_bookingsite.sol\":1045:1055  msg.sender */\n      caller\n        /* \"solidity_series.sol/lecturelabs.sol/lab_bookingsite.sol\":1032:1056  anonymousIds[msg.sender] */\n      0xffffffffffffffffffffffffffffffffffffffff\n      and\n      0xffffffffffffffffffffffffffffffffffffffff\n      and\n      dup2\n      mstore\n      0x20\n      add\n      swap1\n      dup2\n      mstore\n      0x20\n      add\n      0x00\n      keccak256\n      sload\n        /* \"solidity_series.sol/lecturelabs.sol/lab_bookingsite.sol\":1025:1056  return anonymousIds[msg.sender] */\n      swap1\n      pop\n        /* \"solidity_series.sol/lecturelabs.sol/lab_bookingsite.sol\":904:1064  function getAnonymousId() public view returns (uint) {... */\n      swap1\n      jump\t// out\n        /* \"#utility.yul\":7:82   */\n    tag_106:\n        /* \"#utility.yul\":40:46   */\n      0x00\n        /* \"#utility.yul\":73:75   */\n      0x40\n        /* \"#utility.yul\":67:76   */\n      mload\n        /* \"#utility.yul\":57:76   */\n      swap1\n      pop\n        /* \"#utility.yul\":7:82   */\n      swap1\n      jump\t// out\n        /* \"#utility.yul\":88:205   */\n    tag_107:\n        /* \"#utility.yul\":197:198   */\n      0x00\n        /* \"#utility.yul\":194:195   */\n      0x00\n        /* \"#utility.yul\":187:199   */\n      revert\n        /* \"#utility.yul\":211:328   */\n    tag_108:\n        /* \"#utility.yul\":320:321   */\n      0x00\n        /* \"#utility.yul\":317:318   */\n      0x00\n        /* \"#utility.yul\":310:322   */\n      revert\n        /* \"#utility.yul\":334:460   */\n    tag_109:\n        /* \"#utility.yul\":371:378   */\n      0x00\n        /* \"#utility.yul\":411:453   */\n      0xffffffffffffffffffffffffffffffffffffffff\n        /* \"#utility.yul\":404:409   */\n      dup3\n        /* \"#utility.yul\":400:454   */\n      and\n        /* \"#utility.yul\":389:454   */\n      swap1\n      pop\n        /* \"#utility.yul\":334:460   */\n      swap2\n      swap1\n      pop\n      jump\t// out\n        /* \"#utility.yul\":466:562   */\n    tag_110:\n        /* \"#utility.yul\":503:510   */\n      0x00\n        /* \"#utility.yul\":532:556   */\n      tag_166\n        /* \"#utility.yul\":550:555   */\n      dup3\n        /* \"#utility.yul\":532:556   */\n      tag_109\n      jump\t// in\n    tag_166:\n        /* \"#utility.yul\":521:556   */\n      swap1\n      pop\n        /* \"#utility.yul\":466:562   */\n      swap2\n      swap1\n      pop\n      jump\t// out\n        /* \"#utility.yul\":568:690   */\n    tag_111:\n        /* \"#utility.yul\":641:665   */\n      tag_168\n        /* \"#utility.yul\":659:664   */\n      dup2\n        /* \"#utility.yul\":641:665   */\n      tag_110\n      jump\t// in\n    tag_168:\n        /* \"#utility.yul\":634:639   */\n      dup2\n        /* \"#utility.yul\":631:666   */\n      eq\n        /* \"#utility.yul\":621:684   */\n      tag_169\n      jumpi\n        /* \"#utility.yul\":680:681   */\n      0x00\n        /* \"#utility.yul\":677:678   */\n      0x00\n        /* \"#utility.yul\":670:682   */\n      revert\n        /* \"#utility.yul\":621:684   */\n    tag_169:\n        /* \"#utility.yul\":568:690   */\n      pop\n      jump\t// out\n        /* \"#utility.yul\":696:835   */\n    tag_112:\n        /* \"#utility.yul\":742:747   */\n      0x00\n        /* \"#utility.yul\":780:786   */\n      dup2\n        /* \"#utility.yul\":767:787   */\n      calldataload\n        /* \"#utility.yul\":758:787   */\n      swap1\n      pop\n        /* \"#utility.yul\":796:829   */\n      tag_171\n        /* \"#utility.yul\":823:828   */\n      dup2\n        /* \"#utility.yul\":796:829   */\n      tag_111\n      jump\t// in\n    tag_171:\n        /* \"#utility.yul\":696:835   */\n      swap3\n      swap2\n      pop\n      pop\n      jump\t// out\n        /* \"#utility.yul\":841:1170   */\n    tag_17:\n        /* \"#utility.yul\":900:906   */\n      0x00\n        /* \"#utility.yul\":949:951   */\n      0x20\n        /* \"#utility.yul\":937:946   */\n      dup3\n        /* \"#utility.yul\":928:935   */\n      dup5\n        /* \"#utility.yul\":924:947   */\n      sub\n        /* \"#utility.yul\":920:952   */\n      slt\n        /* \"#utility.yul\":917:1036   */\n      iszero\n      tag_173\n      jumpi\n        /* \"#utility.yul\":955:1034   */\n      tag_174\n      tag_107\n      jump\t// in\n    tag_174:\n        /* \"#utility.yul\":917:1036   */\n    tag_173:\n        /* \"#utility.yul\":1075:1076   */\n      0x00\n        /* \"#utility.yul\":1100:1153   */\n      tag_175\n        /* \"#utility.yul\":1145:1152   */\n      dup5\n        /* \"#utility.yul\":1136:1142   */\n      dup3\n        /* \"#utility.yul\":1125:1134   */\n      dup6\n        /* \"#utility.yul\":1121:1143   */\n      add\n        /* \"#utility.yul\":1100:1153   */\n      tag_112\n      jump\t// in\n    tag_175:\n        /* \"#utility.yul\":1090:1153   */\n      swap2\n      pop\n        /* \"#utility.yul\":1046:1163   */\n      pop\n        /* \"#utility.yul\":841:1170   */\n      swap3\n      swap2\n      pop\n      pop\n      jump\t// out\n        /* \"#utility.yul\":1176:1275   */\n    tag_113:\n        /* \"#utility.yul\":1228:1234   */\n      0x00\n        /* \"#utility.yul\":1262:1267   */\n      dup2\n        /* \"#utility.yul\":1256:1268   */\n      mload\n        /* \"#utility.yul\":1246:1268   */\n      swap1\n      pop\n        /* \"#utility.yul\":1176:1275   */\n      swap2\n      swap1\n      pop\n      jump\t// out\n        /* \"#utility.yul\":1281:1450   */\n    tag_114:\n        /* \"#utility.yul\":1365:1376   */\n      0x00\n        /* \"#utility.yul\":1399:1405   */\n      dup3\n        /* \"#utility.yul\":1394:1397   */\n      dup3\n        /* \"#utility.yul\":1387:1406   */\n      mstore\n        /* \"#utility.yul\":1439:1443   */\n      0x20\n        /* \"#utility.yul\":1434:1437   */\n      dup3\n        /* \"#utility.yul\":1430:1444   */\n      add\n        /* \"#utility.yul\":1415:1444   */\n      swap1\n      pop\n        /* \"#utility.yul\":1281:1450   */\n      swap3\n      swap2\n      pop\n      pop\n      jump\t// out\n        /* \"#utility.yul\":1456:1595   */\n    tag_115:\n        /* \"#utility.yul\":1545:1551   */\n      dup3\n        /* \"#utility.yul\":1540:1543   */\n      dup2\n        /* \"#utility.yul\":1535:1538   */\n      dup4\n        /* \"#utility.yul\":1529:1552   */\n      mcopy\n        /* \"#utility.yul\":1586:1587   */\n      0x00\n        /* \"#utility.yul\":1577:1583   */\n      dup4\n        /* \"#utility.yul\":1572:1575   */\n      dup4\n        /* \"#utility.yul\":1568:1584   */\n      add\n        /* \"#utility.yul\":1561:1588   */\n      mstore\n        /* \"#utility.yul\":1456:1595   */\n      pop\n      pop\n      pop\n      jump\t// out\n        /* \"#utility.yul\":1601:1703   */\n    tag_116:\n        /* \"#utility.yul\":1642:1648   */\n      0x00\n        /* \"#utility.yul\":1693:1695   */\n      0x1f\n        /* \"#utility.yul\":1689:1696   */\n      not\n        /* \"#utility.yul\":1684:1686   */\n      0x1f\n        /* \"#utility.yul\":1677:1682   */\n      dup4\n        /* \"#utility.yul\":1673:1687   */\n      add\n        /* \"#utility.yul\":1669:1697   */\n      and\n        /* \"#utility.yul\":1659:1697   */\n      swap1\n      pop\n        /* \"#utility.yul\":1601:1703   */\n      swap2\n      swap1\n      pop\n      jump\t// out\n        /* \"#utility.yul\":1709:2086   */\n    tag_117:\n        /* \"#utility.yul\":1797:1800   */\n      0x00\n        /* \"#utility.yul\":1825:1864   */\n      tag_181\n        /* \"#utility.yul\":1858:1863   */\n      dup3\n        /* \"#utility.yul\":1825:1864   */\n      tag_113\n      jump\t// in\n    tag_181:\n        /* \"#utility.yul\":1880:1951   */\n      tag_182\n        /* \"#utility.yul\":1944:1950   */\n      dup2\n        /* \"#utility.yul\":1939:1942   */\n      dup6\n        /* \"#utility.yul\":1880:1951   */\n      tag_114\n      jump\t// in\n    tag_182:\n        /* \"#utility.yul\":1873:1951   */\n      swap4\n      pop\n        /* \"#utility.yul\":1960:2025   */\n      tag_183\n        /* \"#utility.yul\":2018:2024   */\n      dup2\n        /* \"#utility.yul\":2013:2016   */\n      dup6\n        /* \"#utility.yul\":2006:2010   */\n      0x20\n        /* \"#utility.yul\":1999:2004   */\n      dup7\n        /* \"#utility.yul\":1995:2011   */\n      add\n        /* \"#utility.yul\":1960:2025   */\n      tag_115\n      jump\t// in\n    tag_183:\n        /* \"#utility.yul\":2050:2079   */\n      tag_184\n        /* \"#utility.yul\":2072:2078   */\n      dup2\n        /* \"#utility.yul\":2050:2079   */\n      tag_116\n      jump\t// in\n    tag_184:\n        /* \"#utility.yul\":2045:2048   */\n      dup5\n        /* \"#utility.yul\":2041:2080   */\n      add\n        /* \"#utility.yul\":2034:2080   */\n      swap2\n      pop\n        /* \"#utility.yul\":1801:2086   */\n      pop\n        /* \"#utility.yul\":1709:2086   */\n      swap3\n      swap2\n      pop\n      pop\n      jump\t// out\n        /* \"#utility.yul\":2092:2405   */\n    tag_20:\n        /* \"#utility.yul\":2205:2209   */\n      0x00\n        /* \"#utility.yul\":2243:2245   */\n      0x20\n        /* \"#utility.yul\":2232:2241   */\n      dup3\n        /* \"#utility.yul\":2228:2246   */\n      add\n        /* \"#utility.yul\":2220:2246   */\n      swap1\n      pop\n        /* \"#utility.yul\":2292:2301   */\n      dup2\n        /* \"#utility.yul\":2286:2290   */\n      dup2\n        /* \"#utility.yul\":2282:2302   */\n      sub\n        /* \"#utility.yul\":2278:2279   */\n      0x00\n        /* \"#utility.yul\":2267:2276   */\n      dup4\n        /* \"#utility.yul\":2263:2280   */\n      add\n        /* \"#utility.yul\":2256:2303   */\n      mstore\n        /* \"#utility.yul\":2320:2398   */\n      tag_186\n        /* \"#utility.yul\":2393:2397   */\n      dup2\n        /* \"#utility.yul\":2384:2390   */\n      dup5\n        /* \"#utility.yul\":2320:2398   */\n      tag_117\n      jump\t// in\n    tag_186:\n        /* \"#utility.yul\":2312:2398   */\n      swap1\n      pop\n        /* \"#utility.yul\":2092:2405   */\n      swap3\n      swap2\n      pop\n      pop\n      jump\t// out\n        /* \"#utility.yul\":2411:2488   */\n    tag_118:\n        /* \"#utility.yul\":2448:2455   */\n      0x00\n        /* \"#utility.yul\":2477:2482   */\n      dup2\n        /* \"#utility.yul\":2466:2482   */\n      swap1\n      pop\n        /* \"#utility.yul\":2411:2488   */\n      swap2\n      swap1\n      pop\n      jump\t// out\n        /* \"#utility.yul\":2494:2612   */\n    tag_119:\n        /* \"#utility.yul\":2581:2605   */\n      tag_189\n        /* \"#utility.yul\":2599:2604   */\n      dup2\n        /* \"#utility.yul\":2581:2605   */\n      tag_118\n      jump\t// in\n    tag_189:\n        /* \"#utility.yul\":2576:2579   */\n      dup3\n        /* \"#utility.yul\":2569:2606   */\n      mstore\n        /* \"#utility.yul\":2494:2612   */\n      pop\n      pop\n      jump\t// out\n        /* \"#utility.yul\":2618:2840   */\n    tag_24:\n        /* \"#utility.yul\":2711:2715   */\n      0x00\n        /* \"#utility.yul\":2749:2751   */\n      0x20\n        /* \"#utility.yul\":2738:2747   */\n      dup3\n        /* \"#utility.yul\":2734:2752   */\n      add\n        /* \"#utility.yul\":2726:2752   */\n      swap1\n      pop\n        /* \"#utility.yul\":2762:2833   */\n      tag_191\n        /* \"#utility.yul\":2830:2831   */\n      0x00\n        /* \"#utility.yul\":2819:2828   */\n      dup4\n        /* \"#utility.yul\":2815:2832   */\n      add\n        /* \"#utility.yul\":2806:2812   */\n      dup5\n        /* \"#utility.yul\":2762:2833   */\n      tag_119\n      jump\t// in\n    tag_191:\n        /* \"#utility.yul\":2618:2840   */\n      swap3\n      swap2\n      pop\n      pop\n      jump\t// out\n        /* \"#utility.yul\":2846:2936   */\n    tag_120:\n        /* \"#utility.yul\":2880:2887   */\n      0x00\n        /* \"#utility.yul\":2923:2928   */\n      dup2\n        /* \"#utility.yul\":2916:2929   */\n      iszero\n        /* \"#utility.yul\":2909:2930   */\n      iszero\n        /* \"#utility.yul\":2898:2930   */\n      swap1\n      pop\n        /* \"#utility.yul\":2846:2936   */\n      swap2\n      swap1\n      pop\n      jump\t// out\n        /* \"#utility.yul\":2942:3051   */\n    tag_121:\n        /* \"#utility.yul\":3023:3044   */\n      tag_194\n        /* \"#utility.yul\":3038:3043   */\n      dup2\n        /* \"#utility.yul\":3023:3044   */\n      tag_120\n      jump\t// in\n    tag_194:\n        /* \"#utility.yul\":3018:3021   */\n      dup3\n        /* \"#utility.yul\":3011:3045   */\n      mstore\n        /* \"#utility.yul\":2942:3051   */\n      pop\n      pop\n      jump\t// out\n        /* \"#utility.yul\":3057:3267   */\n    tag_28:\n        /* \"#utility.yul\":3144:3148   */\n      0x00\n        /* \"#utility.yul\":3182:3184   */\n      0x20\n        /* \"#utility.yul\":3171:3180   */\n      dup3\n        /* \"#utility.yul\":3167:3185   */\n      add\n        /* \"#utility.yul\":3159:3185   */\n      swap1\n      pop\n        /* \"#utility.yul\":3195:3260   */\n      tag_196\n        /* \"#utility.yul\":3257:3258   */\n      0x00\n        /* \"#utility.yul\":3246:3255   */\n      dup4\n        /* \"#utility.yul\":3242:3259   */\n      add\n        /* \"#utility.yul\":3233:3239   */\n      dup5\n        /* \"#utility.yul\":3195:3260   */\n      tag_121\n      jump\t// in\n    tag_196:\n        /* \"#utility.yul\":3057:3267   */\n      swap3\n      swap2\n      pop\n      pop\n      jump\t// out\n        /* \"#utility.yul\":3273:3385   */\n    tag_122:\n        /* \"#utility.yul\":3359:3360   */\n      0x05\n        /* \"#utility.yul\":3352:3357   */\n      dup2\n        /* \"#utility.yul\":3349:3361   */\n      lt\n        /* \"#utility.yul\":3339:3379   */\n      tag_198\n      jumpi\n        /* \"#utility.yul\":3375:3376   */\n      0x00\n        /* \"#utility.yul\":3372:3373   */\n      0x00\n        /* \"#utility.yul\":3365:3377   */\n      revert\n        /* \"#utility.yul\":3339:3379   */\n    tag_198:\n        /* \"#utility.yul\":3273:3385   */\n      pop\n      jump\t// out\n        /* \"#utility.yul\":3391:3556   */\n    tag_123:\n        /* \"#utility.yul\":3450:3455   */\n      0x00\n        /* \"#utility.yul\":3488:3494   */\n      dup2\n        /* \"#utility.yul\":3475:3495   */\n      calldataload\n        /* \"#utility.yul\":3466:3495   */\n      swap1\n      pop\n        /* \"#utility.yul\":3504:3550   */\n      tag_200\n        /* \"#utility.yul\":3544:3549   */\n      dup2\n        /* \"#utility.yul\":3504:3550   */\n      tag_122\n      jump\t// in\n    tag_200:\n        /* \"#utility.yul\":3391:3556   */\n      swap3\n      swap2\n      pop\n      pop\n      jump\t// out\n        /* \"#utility.yul\":3562:3917   */\n    tag_34:\n        /* \"#utility.yul\":3634:3640   */\n      0x00\n        /* \"#utility.yul\":3683:3685   */\n      0x20\n        /* \"#utility.yul\":3671:3680   */\n      dup3\n        /* \"#utility.yul\":3662:3669   */\n      dup5\n        /* \"#utility.yul\":3658:3681   */\n      sub\n        /* \"#utility.yul\":3654:3686   */\n      slt\n        /* \"#utility.yul\":3651:3770   */\n      iszero\n      tag_202\n      jumpi\n        /* \"#utility.yul\":3689:3768   */\n      tag_203\n      tag_107\n      jump\t// in\n    tag_203:\n        /* \"#utility.yul\":3651:3770   */\n    tag_202:\n        /* \"#utility.yul\":3809:3810   */\n      0x00\n        /* \"#utility.yul\":3834:3900   */\n      tag_204\n        /* \"#utility.yul\":3892:3899   */\n      dup5\n        /* \"#utility.yul\":3883:3889   */\n      dup3\n        /* \"#utility.yul\":3872:3881   */\n      dup6\n        /* \"#utility.yul\":3868:3890   */\n      add\n        /* \"#utility.yul\":3834:3900   */\n      tag_123\n      jump\t// in\n    tag_204:\n        /* \"#utility.yul\":3824:3900   */\n      swap2\n      pop\n        /* \"#utility.yul\":3780:3910   */\n      pop\n        /* \"#utility.yul\":3562:3917   */\n      swap3\n      swap2\n      pop\n      pop\n      jump\t// out\n        /* \"#utility.yul\":3923:4040   */\n    tag_124:\n        /* \"#utility.yul\":4032:4033   */\n      0x00\n        /* \"#utility.yul\":4029:4030   */\n      0x00\n        /* \"#utility.yul\":4022:4034   */\n      revert\n        /* \"#utility.yul\":4046:4163   */\n    tag_125:\n        /* \"#utility.yul\":4155:4156   */\n      0x00\n        /* \"#utility.yul\":4152:4153   */\n      0x00\n        /* \"#utility.yul\":4145:4157   */\n      revert\n        /* \"#utility.yul\":4169:4349   */\n    tag_126:\n        /* \"#utility.yul\":4217:4294   */\n      0x4e487b7100000000000000000000000000000000000000000000000000000000\n        /* \"#utility.yul\":4214:4215   */\n      0x00\n        /* \"#utility.yul\":4207:4295   */\n      mstore\n        /* \"#utility.yul\":4314:4318   */\n      0x41\n        /* \"#utility.yul\":4311:4312   */\n      0x04\n        /* \"#utility.yul\":4304:4319   */\n      mstore\n        /* \"#utility.yul\":4338:4342   */\n      0x24\n        /* \"#utility.yul\":4335:4336   */\n      0x00\n        /* \"#utility.yul\":4328:4343   */\n      revert\n        /* \"#utility.yul\":4355:4636   */\n    tag_127:\n        /* \"#utility.yul\":4438:4465   */\n      tag_209\n        /* \"#utility.yul\":4460:4464   */\n      dup3\n        /* \"#utility.yul\":4438:4465   */\n      tag_116\n      jump\t// in\n    tag_209:\n        /* \"#utility.yul\":4430:4436   */\n      dup2\n        /* \"#utility.yul\":4426:4466   */\n      add\n        /* \"#utility.yul\":4568:4574   */\n      dup2\n        /* \"#utility.yul\":4556:4566   */\n      dup2\n        /* \"#utility.yul\":4553:4575   */\n      lt\n        /* \"#utility.yul\":4532:4550   */\n      0xffffffffffffffff\n        /* \"#utility.yul\":4520:4530   */\n      dup3\n        /* \"#utility.yul\":4517:4551   */\n      gt\n        /* \"#utility.yul\":4514:4576   */\n      or\n        /* \"#utility.yul\":4511:4599   */\n      iszero\n      tag_210\n      jumpi\n        /* \"#utility.yul\":4579:4597   */\n      tag_211\n      tag_126\n      jump\t// in\n    tag_211:\n        /* \"#utility.yul\":4511:4599   */\n    tag_210:\n        /* \"#utility.yul\":4619:4629   */\n      dup1\n        /* \"#utility.yul\":4615:4617   */\n      0x40\n        /* \"#utility.yul\":4608:4630   */\n      mstore\n        /* \"#utility.yul\":4398:4636   */\n      pop\n        /* \"#utility.yul\":4355:4636   */\n      pop\n      pop\n      jump\t// out\n        /* \"#utility.yul\":4642:4771   */\n    tag_128:\n        /* \"#utility.yul\":4676:4682   */\n      0x00\n        /* \"#utility.yul\":4703:4723   */\n      tag_213\n      tag_106\n      jump\t// in\n    tag_213:\n        /* \"#utility.yul\":4693:4723   */\n      swap1\n      pop\n        /* \"#utility.yul\":4732:4765   */\n      tag_214\n        /* \"#utility.yul\":4760:4764   */\n      dup3\n        /* \"#utility.yul\":4752:4758   */\n      dup3\n        /* \"#utility.yul\":4732:4765   */\n      tag_127\n      jump\t// in\n    tag_214:\n        /* \"#utility.yul\":4642:4771   */\n      swap2\n      swap1\n      pop\n      jump\t// out\n        /* \"#utility.yul\":4777:5085   */\n    tag_129:\n        /* \"#utility.yul\":4839:4843   */\n      0x00\n        /* \"#utility.yul\":4929:4947   */\n      0xffffffffffffffff\n        /* \"#utility.yul\":4921:4927   */\n      dup3\n        /* \"#utility.yul\":4918:4948   */\n      gt\n        /* \"#utility.yul\":4915:4971   */\n      iszero\n      tag_216\n      jumpi\n        /* \"#utility.yul\":4951:4969   */\n      tag_217\n      tag_126\n      jump\t// in\n    tag_217:\n        /* \"#utility.yul\":4915:4971   */\n    tag_216:\n        /* \"#utility.yul\":4989:5018   */\n      tag_218\n        /* \"#utility.yul\":5011:5017   */\n      dup3\n        /* \"#utility.yul\":4989:5018   */\n      tag_116\n      jump\t// in\n    tag_218:\n        /* \"#utility.yul\":4981:5018   */\n      swap1\n      pop\n        /* \"#utility.yul\":5073:5077   */\n      0x20\n        /* \"#utility.yul\":5067:5071   */\n      dup2\n        /* \"#utility.yul\":5063:5078   */\n      add\n        /* \"#utility.yul\":5055:5078   */\n      swap1\n      pop\n        /* \"#utility.yul\":4777:5085   */\n      swap2\n      swap1\n      pop\n      jump\t// out\n        /* \"#utility.yul\":5091:5239   */\n    tag_130:\n        /* \"#utility.yul\":5189:5195   */\n      dup3\n        /* \"#utility.yul\":5184:5187   */\n      dup2\n        /* \"#utility.yul\":5179:5182   */\n      dup4\n        /* \"#utility.yul\":5166:5196   */\n      calldatacopy\n        /* \"#utility.yul\":5230:5231   */\n      0x00\n        /* \"#utility.yul\":5221:5227   */\n      dup4\n        /* \"#utility.yul\":5216:5219   */\n      dup4\n        /* \"#utility.yul\":5212:5228   */\n      add\n        /* \"#utility.yul\":5205:5232   */\n      mstore\n        /* \"#utility.yul\":5091:5239   */\n      pop\n      pop\n      pop\n      jump\t// out\n        /* \"#utility.yul\":5245:5670   */\n    tag_131:\n        /* \"#utility.yul\":5323:5328   */\n      0x00\n        /* \"#utility.yul\":5348:5414   */\n      tag_221\n        /* \"#utility.yul\":5364:5413   */\n      tag_222\n        /* \"#utility.yul\":5406:5412   */\n      dup5\n        /* \"#utility.yul\":5364:5413   */\n      tag_129\n      jump\t// in\n    tag_222:\n        /* \"#utility.yul\":5348:5414   */\n      tag_128\n      jump\t// in\n    tag_221:\n        /* \"#utility.yul\":5339:5414   */\n      swap1\n      pop\n        /* \"#utility.yul\":5437:5443   */\n      dup3\n        /* \"#utility.yul\":5430:5435   */\n      dup2\n        /* \"#utility.yul\":5423:5444   */\n      mstore\n        /* \"#utility.yul\":5475:5479   */\n      0x20\n        /* \"#utility.yul\":5468:5473   */\n      dup2\n        /* \"#utility.yul\":5464:5480   */\n      add\n        /* \"#utility.yul\":5513:5516   */\n      dup5\n        /* \"#utility.yul\":5504:5510   */\n      dup5\n        /* \"#utility.yul\":5499:5502   */\n      dup5\n        /* \"#utility.yul\":5495:5511   */\n      add\n        /* \"#utility.yul\":5492:5517   */\n      gt\n        /* \"#utility.yul\":5489:5601   */\n      iszero\n      tag_223\n      jumpi\n        /* \"#utility.yul\":5520:5599   */\n      tag_224\n      tag_125\n      jump\t// in\n    tag_224:\n        /* \"#utility.yul\":5489:5601   */\n    tag_223:\n        /* \"#utility.yul\":5610:5664   */\n      tag_225\n        /* \"#utility.yul\":5657:5663   */\n      dup5\n        /* \"#utility.yul\":5652:5655   */\n      dup3\n        /* \"#utility.yul\":5647:5650   */\n      dup6\n        /* \"#utility.yul\":5610:5664   */\n      tag_130\n      jump\t// in\n    tag_225:\n        /* \"#utility.yul\":5329:5670   */\n      pop\n        /* \"#utility.yul\":5245:5670   */\n      swap4\n      swap3\n      pop\n      pop\n      pop\n      jump\t// out\n        /* \"#utility.yul\":5690:6030   */\n    tag_132:\n        /* \"#utility.yul\":5746:5751   */\n      0x00\n        /* \"#utility.yul\":5795:5798   */\n      dup3\n        /* \"#utility.yul\":5788:5792   */\n      0x1f\n        /* \"#utility.yul\":5780:5786   */\n      dup4\n        /* \"#utility.yul\":5776:5793   */\n      add\n        /* \"#utility.yul\":5772:5799   */\n      slt\n        /* \"#utility.yul\":5762:5884   */\n      tag_227\n      jumpi\n        /* \"#utility.yul\":5803:5882   */\n      tag_228\n      tag_124\n      jump\t// in\n    tag_228:\n        /* \"#utility.yul\":5762:5884   */\n    tag_227:\n        /* \"#utility.yul\":5920:5926   */\n      dup2\n        /* \"#utility.yul\":5907:5927   */\n      calldataload\n        /* \"#utility.yul\":5945:6024   */\n      tag_229\n        /* \"#utility.yul\":6020:6023   */\n      dup5\n        /* \"#utility.yul\":6012:6018   */\n      dup3\n        /* \"#utility.yul\":6005:6009   */\n      0x20\n        /* \"#utility.yul\":5997:6003   */\n      dup7\n        /* \"#utility.yul\":5993:6010   */\n      add\n        /* \"#utility.yul\":5945:6024   */\n      tag_131\n      jump\t// in\n    tag_229:\n        /* \"#utility.yul\":5936:6024   */\n      swap2\n      pop\n        /* \"#utility.yul\":5752:6030   */\n      pop\n        /* \"#utility.yul\":5690:6030   */\n      swap3\n      swap2\n      pop\n      pop\n      jump\t// out\n        /* \"#utility.yul\":6036:6158   */\n    tag_133:\n        /* \"#utility.yul\":6109:6133   */\n      tag_231\n        /* \"#utility.yul\":6127:6132   */\n      dup2\n        /* \"#utility.yul\":6109:6133   */\n      tag_118\n      jump\t// in\n    tag_231:\n        /* \"#utility.yul\":6102:6107   */\n      dup2\n        /* \"#utility.yul\":6099:6134   */\n      eq\n        /* \"#utility.yul\":6089:6152   */\n      tag_232\n      jumpi\n        /* \"#utility.yul\":6148:6149   */\n      0x00\n        /* \"#utility.yul\":6145:6146   */\n      0x00\n        /* \"#utility.yul\":6138:6150   */\n      revert\n        /* \"#utility.yul\":6089:6152   */\n    tag_232:\n        /* \"#utility.yul\":6036:6158   */\n      pop\n      jump\t// out\n        /* \"#utility.yul\":6164:6303   */\n    tag_134:\n        /* \"#utility.yul\":6210:6215   */\n      0x00\n        /* \"#utility.yul\":6248:6254   */\n      dup2\n        /* \"#utility.yul\":6235:6255   */\n      calldataload\n        /* \"#utility.yul\":6226:6255   */\n      swap1\n      pop\n        /* \"#utility.yul\":6264:6297   */\n      tag_234\n        /* \"#utility.yul\":6291:6296   */\n      dup2\n        /* \"#utility.yul\":6264:6297   */\n      tag_133\n      jump\t// in\n    tag_234:\n        /* \"#utility.yul\":6164:6303   */\n      swap3\n      swap2\n      pop\n      pop\n      jump\t// out\n        /* \"#utility.yul\":6309:6963   */\n    tag_42:\n        /* \"#utility.yul\":6387:6393   */\n      0x00\n        /* \"#utility.yul\":6395:6401   */\n      0x00\n        /* \"#utility.yul\":6444:6446   */\n      0x40\n        /* \"#utility.yul\":6432:6441   */\n      dup4\n        /* \"#utility.yul\":6423:6430   */\n      dup6\n        /* \"#utility.yul\":6419:6442   */\n      sub\n        /* \"#utility.yul\":6415:6447   */\n      slt\n        /* \"#utility.yul\":6412:6531   */\n      iszero\n      tag_236\n      jumpi\n        /* \"#utility.yul\":6450:6529   */\n      tag_237\n      tag_107\n      jump\t// in\n    tag_237:\n        /* \"#utility.yul\":6412:6531   */\n    tag_236:\n        /* \"#utility.yul\":6598:6599   */\n      0x00\n        /* \"#utility.yul\":6587:6596   */\n      dup4\n        /* \"#utility.yul\":6583:6600   */\n      add\n        /* \"#utility.yul\":6570:6601   */\n      calldataload\n        /* \"#utility.yul\":6628:6646   */\n      0xffffffffffffffff\n        /* \"#utility.yul\":6620:6626   */\n      dup2\n        /* \"#utility.yul\":6617:6647   */\n      gt\n        /* \"#utility.yul\":6614:6731   */\n      iszero\n      tag_238\n      jumpi\n        /* \"#utility.yul\":6650:6729   */\n      tag_239\n      tag_108\n      jump\t// in\n    tag_239:\n        /* \"#utility.yul\":6614:6731   */\n    tag_238:\n        /* \"#utility.yul\":6755:6818   */\n      tag_240\n        /* \"#utility.yul\":6810:6817   */\n      dup6\n        /* \"#utility.yul\":6801:6807   */\n      dup3\n        /* \"#utility.yul\":6790:6799   */\n      dup7\n        /* \"#utility.yul\":6786:6808   */\n      add\n        /* \"#utility.yul\":6755:6818   */\n      tag_132\n      jump\t// in\n    tag_240:\n        /* \"#utility.yul\":6745:6818   */\n      swap3\n      pop\n        /* \"#utility.yul\":6541:6828   */\n      pop\n        /* \"#utility.yul\":6867:6869   */\n      0x20\n        /* \"#utility.yul\":6893:6946   */\n      tag_241\n        /* \"#utility.yul\":6938:6945   */\n      dup6\n        /* \"#utility.yul\":6929:6935   */\n      dup3\n        /* \"#utility.yul\":6918:6927   */\n      dup7\n        /* \"#utility.yul\":6914:6936   */\n      add\n        /* \"#utility.yul\":6893:6946   */\n      tag_134\n      jump\t// in\n    tag_241:\n        /* \"#utility.yul\":6883:6946   */\n      swap2\n      pop\n        /* \"#utility.yul\":6838:6956   */\n      pop\n        /* \"#utility.yul\":6309:6963   */\n      swap3\n      pop\n      swap3\n      swap1\n      pop\n      jump\t// out\n        /* \"#utility.yul\":6969:7502   */\n    tag_51:\n        /* \"#utility.yul\":7138:7142   */\n      0x00\n        /* \"#utility.yul\":7176:7178   */\n      0x60\n        /* \"#utility.yul\":7165:7174   */\n      dup3\n        /* \"#utility.yul\":7161:7179   */\n      add\n        /* \"#utility.yul\":7153:7179   */\n      swap1\n      pop\n        /* \"#utility.yul\":7189:7260   */\n      tag_243\n        /* \"#utility.yul\":7257:7258   */\n      0x00\n        /* \"#utility.yul\":7246:7255   */\n      dup4\n        /* \"#utility.yul\":7242:7259   */\n      add\n        /* \"#utility.yul\":7233:7239   */\n      dup7\n        /* \"#utility.yul\":7189:7260   */\n      tag_119\n      jump\t// in\n    tag_243:\n        /* \"#utility.yul\":7307:7316   */\n      dup2\n        /* \"#utility.yul\":7301:7305   */\n      dup2\n        /* \"#utility.yul\":7297:7317   */\n      sub\n        /* \"#utility.yul\":7292:7294   */\n      0x20\n        /* \"#utility.yul\":7281:7290   */\n      dup4\n        /* \"#utility.yul\":7277:7295   */\n      add\n        /* \"#utility.yul\":7270:7318   */\n      mstore\n        /* \"#utility.yul\":7335:7413   */\n      tag_244\n        /* \"#utility.yul\":7408:7412   */\n      dup2\n        /* \"#utility.yul\":7399:7405   */\n      dup6\n        /* \"#utility.yul\":7335:7413   */\n      tag_117\n      jump\t// in\n    tag_244:\n        /* \"#utility.yul\":7327:7413   */\n      swap1\n      pop\n        /* \"#utility.yul\":7423:7495   */\n      tag_245\n        /* \"#utility.yul\":7491:7493   */\n      0x40\n        /* \"#utility.yul\":7480:7489   */\n      dup4\n        /* \"#utility.yul\":7476:7494   */\n      add\n        /* \"#utility.yul\":7467:7473   */\n      dup5\n        /* \"#utility.yul\":7423:7495   */\n      tag_119\n      jump\t// in\n    tag_245:\n        /* \"#utility.yul\":6969:7502   */\n      swap5\n      swap4\n      pop\n      pop\n      pop\n      pop\n      jump\t// out\n        /* \"#utility.yul\":7508:7982   */\n    tag_54:\n        /* \"#utility.yul\":7576:7582   */\n      0x00\n        /* \"#utility.yul\":7584:7590   */\n      0x00\n        /* \"#utility.yul\":7633:7635   */\n      0x40\n        /* \"#utility.yul\":7621:7630   */\n      dup4\n        /* \"#utility.yul\":7612:7619   */\n      dup6\n        /* \"#utility.yul\":7608:7631   */\n      sub\n        /* \"#utility.yul\":7604:7636   */\n      slt\n        /* \"#utility.yul\":7601:7720   */\n      iszero\n      tag_247\n      jumpi\n        /* \"#utility.yul\":7639:7718   */\n      tag_248\n      tag_107\n      jump\t// in\n    tag_248:\n        /* \"#utility.yul\":7601:7720   */\n    tag_247:\n        /* \"#utility.yul\":7759:7760   */\n      0x00\n        /* \"#utility.yul\":7784:7837   */\n      tag_249\n        /* \"#utility.yul\":7829:7836   */\n      dup6\n        /* \"#utility.yul\":7820:7826   */\n      dup3\n        /* \"#utility.yul\":7809:7818   */\n      dup7\n        /* \"#utility.yul\":7805:7827   */\n      add\n        /* \"#utility.yul\":7784:7837   */\n      tag_112\n      jump\t// in\n    tag_249:\n        /* \"#utility.yul\":7774:7837   */\n      swap3\n      pop\n        /* \"#utility.yul\":7730:7847   */\n      pop\n        /* \"#utility.yul\":7886:7888   */\n      0x20\n        /* \"#utility.yul\":7912:7965   */\n      tag_250\n        /* \"#utility.yul\":7957:7964   */\n      dup6\n        /* \"#utility.yul\":7948:7954   */\n      dup3\n        /* \"#utility.yul\":7937:7946   */\n      dup7\n        /* \"#utility.yul\":7933:7955   */\n      add\n        /* \"#utility.yul\":7912:7965   */\n      tag_134\n      jump\t// in\n    tag_250:\n        /* \"#utility.yul\":7902:7965   */\n      swap2\n      pop\n        /* \"#utility.yul\":7857:7975   */\n      pop\n        /* \"#utility.yul\":7508:7982   */\n      swap3\n      pop\n      swap3\n      swap1\n      pop\n      jump\t// out\n        /* \"#utility.yul\":7988:8168   */\n    tag_80:\n        /* \"#utility.yul\":8036:8113   */\n      0x4e487b7100000000000000000000000000000000000000000000000000000000\n        /* \"#utility.yul\":8033:8034   */\n      0x00\n        /* \"#utility.yul\":8026:8114   */\n      mstore\n        /* \"#utility.yul\":8133:8137   */\n      0x21\n        /* \"#utility.yul\":8130:8131   */\n      0x04\n        /* \"#utility.yul\":8123:8138   */\n      mstore\n        /* \"#utility.yul\":8157:8161   */\n      0x24\n        /* \"#utility.yul\":8154:8155   */\n      0x00\n        /* \"#utility.yul\":8147:8162   */\n      revert\n        /* \"#utility.yul\":8174:8292   */\n    tag_135:\n        /* \"#utility.yul\":8260:8261   */\n      0x05\n        /* \"#utility.yul\":8253:8258   */\n      dup2\n        /* \"#utility.yul\":8250:8262   */\n      lt\n        /* \"#utility.yul\":8240:8286   */\n      tag_253\n      jumpi\n        /* \"#utility.yul\":8266:8284   */\n      tag_254\n      tag_80\n      jump\t// in\n    tag_254:\n        /* \"#utility.yul\":8240:8286   */\n    tag_253:\n        /* \"#utility.yul\":8174:8292   */\n      pop\n      jump\t// out\n        /* \"#utility.yul\":8298:8435   */\n    tag_136:\n        /* \"#utility.yul\":8348:8355   */\n      0x00\n        /* \"#utility.yul\":8377:8382   */\n      dup2\n        /* \"#utility.yul\":8366:8382   */\n      swap1\n      pop\n        /* \"#utility.yul\":8383:8429   */\n      tag_256\n        /* \"#utility.yul\":8423:8428   */\n      dup3\n        /* \"#utility.yul\":8383:8429   */\n      tag_135\n      jump\t// in\n    tag_256:\n        /* \"#utility.yul\":8298:8435   */\n      swap2\n      swap1\n      pop\n      jump\t// out\n        /* \"#utility.yul\":8441:8578   */\n    tag_137:\n        /* \"#utility.yul\":8502:8511   */\n      0x00\n        /* \"#utility.yul\":8535:8572   */\n      tag_258\n        /* \"#utility.yul\":8566:8571   */\n      dup3\n        /* \"#utility.yul\":8535:8572   */\n      tag_136\n      jump\t// in\n    tag_258:\n        /* \"#utility.yul\":8522:8572   */\n      swap1\n      pop\n        /* \"#utility.yul\":8441:8578   */\n      swap2\n      swap1\n      pop\n      jump\t// out\n        /* \"#utility.yul\":8584:8737   */\n    tag_138:\n        /* \"#utility.yul\":8682:8730   */\n      tag_260\n        /* \"#utility.yul\":8724:8729   */\n      dup2\n        /* \"#utility.yul\":8682:8730   */\n      tag_137\n      jump\t// in\n    tag_260:\n        /* \"#utility.yul\":8677:8680   */\n      dup3\n        /* \"#utility.yul\":8670:8731   */\n      mstore\n        /* \"#utility.yul\":8584:8737   */\n      pop\n      pop\n      jump\t// out\n        /* \"#utility.yul\":8743:8987   */\n    tag_57:\n        /* \"#utility.yul\":8847:8851   */\n      0x00\n        /* \"#utility.yul\":8885:8887   */\n      0x20\n        /* \"#utility.yul\":8874:8883   */\n      dup3\n        /* \"#utility.yul\":8870:8888   */\n      add\n        /* \"#utility.yul\":8862:8888   */\n      swap1\n      pop\n        /* \"#utility.yul\":8898:8980   */\n      tag_262\n        /* \"#utility.yul\":8977:8978   */\n      0x00\n        /* \"#utility.yul\":8966:8975   */\n      dup4\n        /* \"#utility.yul\":8962:8979   */\n      add\n        /* \"#utility.yul\":8953:8959   */\n      dup5\n        /* \"#utility.yul\":8898:8980   */\n      tag_138\n      jump\t// in\n    tag_262:\n        /* \"#utility.yul\":8743:8987   */\n      swap3\n      swap2\n      pop\n      pop\n      jump\t// out\n        /* \"#utility.yul\":8993:9173   */\n    tag_139:\n        /* \"#utility.yul\":9041:9118   */\n      0x4e487b7100000000000000000000000000000000000000000000000000000000\n        /* \"#utility.yul\":9038:9039   */\n      0x00\n        /* \"#utility.yul\":9031:9119   */\n      mstore\n        /* \"#utility.yul\":9138:9142   */\n      0x22\n        /* \"#utility.yul\":9135:9136   */\n      0x04\n        /* \"#utility.yul\":9128:9143   */\n      mstore\n        /* \"#utility.yul\":9162:9166   */\n      0x24\n        /* \"#utility.yul\":9159:9160   */\n      0x00\n        /* \"#utility.yul\":9152:9167   */\n      revert\n        /* \"#utility.yul\":9179:9499   */\n    tag_62:\n        /* \"#utility.yul\":9223:9229   */\n      0x00\n        /* \"#utility.yul\":9260:9261   */\n      0x02\n        /* \"#utility.yul\":9254:9258   */\n      dup3\n        /* \"#utility.yul\":9250:9262   */\n      div\n        /* \"#utility.yul\":9240:9262   */\n      swap1\n      pop\n        /* \"#utility.yul\":9307:9308   */\n      0x01\n        /* \"#utility.yul\":9301:9305   */\n      dup3\n        /* \"#utility.yul\":9297:9309   */\n      and\n        /* \"#utility.yul\":9328:9346   */\n      dup1\n        /* \"#utility.yul\":9318:9399   */\n      tag_265\n      jumpi\n        /* \"#utility.yul\":9384:9388   */\n      0x7f\n        /* \"#utility.yul\":9376:9382   */\n      dup3\n        /* \"#utility.yul\":9372:9389   */\n      and\n        /* \"#utility.yul\":9362:9389   */\n      swap2\n      pop\n        /* \"#utility.yul\":9318:9399   */\n    tag_265:\n        /* \"#utility.yul\":9446:9448   */\n      0x20\n        /* \"#utility.yul\":9438:9444   */\n      dup3\n        /* \"#utility.yul\":9435:9449   */\n      lt\n        /* \"#utility.yul\":9415:9433   */\n      dup2\n        /* \"#utility.yul\":9412:9450   */\n      sub\n        /* \"#utility.yul\":9409:9493   */\n      tag_266\n      jumpi\n        /* \"#utility.yul\":9465:9483   */\n      tag_267\n      tag_139\n      jump\t// in\n    tag_267:\n        /* \"#utility.yul\":9409:9493   */\n    tag_266:\n        /* \"#utility.yul\":9230:9499   */\n      pop\n        /* \"#utility.yul\":9179:9499   */\n      swap2\n      swap1\n      pop\n      jump\t// out\n        /* \"#utility.yul\":9505:9674   */\n    tag_140:\n        /* \"#utility.yul\":9645:9666   */\n      0x55736572206e6f74207265676973746572656400000000000000000000000000\n        /* \"#utility.yul\":9641:9642   */\n      0x00\n        /* \"#utility.yul\":9633:9639   */\n      dup3\n        /* \"#utility.yul\":9629:9643   */\n      add\n        /* \"#utility.yul\":9622:9667   */\n      mstore\n        /* \"#utility.yul\":9505:9674   */\n      pop\n      jump\t// out\n        /* \"#utility.yul\":9680:10046   */\n    tag_141:\n        /* \"#utility.yul\":9822:9825   */\n      0x00\n        /* \"#utility.yul\":9843:9910   */\n      tag_270\n        /* \"#utility.yul\":9907:9909   */\n      0x13\n        /* \"#utility.yul\":9902:9905   */\n      dup4\n        /* \"#utility.yul\":9843:9910   */\n      tag_114\n      jump\t// in\n    tag_270:\n        /* \"#utility.yul\":9836:9910   */\n      swap2\n      pop\n        /* \"#utility.yul\":9919:10012   */\n      tag_271\n        /* \"#utility.yul\":10008:10011   */\n      dup3\n        /* \"#utility.yul\":9919:10012   */\n      tag_140\n      jump\t// in\n    tag_271:\n        /* \"#utility.yul\":10037:10039   */\n      0x20\n        /* \"#utility.yul\":10032:10035   */\n      dup3\n        /* \"#utility.yul\":10028:10040   */\n      add\n        /* \"#utility.yul\":10021:10040   */\n      swap1\n      pop\n        /* \"#utility.yul\":9680:10046   */\n      swap2\n      swap1\n      pop\n      jump\t// out\n        /* \"#utility.yul\":10052:10471   */\n    tag_71:\n        /* \"#utility.yul\":10218:10222   */\n      0x00\n        /* \"#utility.yul\":10256:10258   */\n      0x20\n        /* \"#utility.yul\":10245:10254   */\n      dup3\n        /* \"#utility.yul\":10241:10259   */\n      add\n        /* \"#utility.yul\":10233:10259   */\n      swap1\n      pop\n        /* \"#utility.yul\":10305:10314   */\n      dup2\n        /* \"#utility.yul\":10299:10303   */\n      dup2\n        /* \"#utility.yul\":10295:10315   */\n      sub\n        /* \"#utility.yul\":10291:10292   */\n      0x00\n        /* \"#utility.yul\":10280:10289   */\n      dup4\n        /* \"#utility.yul\":10276:10293   */\n      add\n        /* \"#utility.yul\":10269:10316   */\n      mstore\n        /* \"#utility.yul\":10333:10464   */\n      tag_273\n        /* \"#utility.yul\":10459:10463   */\n      dup2\n        /* \"#utility.yul\":10333:10464   */\n      tag_141\n      jump\t// in\n    tag_273:\n        /* \"#utility.yul\":10325:10464   */\n      swap1\n      pop\n        /* \"#utility.yul\":10052:10471   */\n      swap2\n      swap1\n      pop\n      jump\t// out\n        /* \"#utility.yul\":10477:10650   */\n    tag_142:\n        /* \"#utility.yul\":10617:10642   */\n      0x5573657220616c72656164792072656769737465726564000000000000000000\n        /* \"#utility.yul\":10613:10614   */\n      0x00\n        /* \"#utility.yul\":10605:10611   */\n      dup3\n        /* \"#utility.yul\":10601:10615   */\n      add\n        /* \"#utility.yul\":10594:10643   */\n      mstore\n        /* \"#utility.yul\":10477:10650   */\n      pop\n      jump\t// out\n        /* \"#utility.yul\":10656:11022   */\n    tag_143:\n        /* \"#utility.yul\":10798:10801   */\n      0x00\n        /* \"#utility.yul\":10819:10886   */\n      tag_276\n        /* \"#utility.yul\":10883:10885   */\n      0x17\n        /* \"#utility.yul\":10878:10881   */\n      dup4\n        /* \"#utility.yul\":10819:10886   */\n      tag_114\n      jump\t// in\n    tag_276:\n        /* \"#utility.yul\":10812:10886   */\n      swap2\n      pop\n        /* \"#utility.yul\":10895:10988   */\n      tag_277\n        /* \"#utility.yul\":10984:10987   */\n      dup3\n        /* \"#utility.yul\":10895:10988   */\n      tag_142\n      jump\t// in\n    tag_277:\n        /* \"#utility.yul\":11013:11015   */\n      0x20\n        /* \"#utility.yul\":11008:11011   */\n      dup3\n        /* \"#utility.yul\":11004:11016   */\n      add\n        /* \"#utility.yul\":10997:11016   */\n      swap1\n      pop\n        /* \"#utility.yul\":10656:11022   */\n      swap2\n      swap1\n      pop\n      jump\t// out\n        /* \"#utility.yul\":11028:11447   */\n    tag_84:\n        /* \"#utility.yul\":11194:11198   */\n      0x00\n        /* \"#utility.yul\":11232:11234   */\n      0x20\n        /* \"#utility.yul\":11221:11230   */\n      dup3\n        /* \"#utility.yul\":11217:11235   */\n      add\n        /* \"#utility.yul\":11209:11235   */\n      swap1\n      pop\n        /* \"#utility.yul\":11281:11290   */\n      dup2\n        /* \"#utility.yul\":11275:11279   */\n      dup2\n        /* \"#utility.yul\":11271:11291   */\n      sub\n        /* \"#utility.yul\":11267:11268   */\n      0x00\n        /* \"#utility.yul\":11256:11265   */\n      dup4\n        /* \"#utility.yul\":11252:11269   */\n      add\n        /* \"#utility.yul\":11245:11292   */\n      mstore\n        /* \"#utility.yul\":11309:11440   */\n      tag_279\n        /* \"#utility.yul\":11435:11439   */\n      dup2\n        /* \"#utility.yul\":11309:11440   */\n      tag_143\n      jump\t// in\n    tag_279:\n        /* \"#utility.yul\":11301:11440   */\n      swap1\n      pop\n        /* \"#utility.yul\":11028:11447   */\n      swap2\n      swap1\n      pop\n      jump\t// out\n        /* \"#utility.yul\":11453:11594   */\n    tag_144:\n        /* \"#utility.yul\":11502:11506   */\n      0x00\n        /* \"#utility.yul\":11525:11528   */\n      dup2\n        /* \"#utility.yul\":11517:11528   */\n      swap1\n      pop\n        /* \"#utility.yul\":11548:11551   */\n      dup2\n        /* \"#utility.yul\":11545:11546   */\n      0x00\n        /* \"#utility.yul\":11538:11552   */\n      mstore\n        /* \"#utility.yul\":11582:11586   */\n      0x20\n        /* \"#utility.yul\":11579:11580   */\n      0x00\n        /* \"#utility.yul\":11569:11587   */\n      keccak256\n        /* \"#utility.yul\":11561:11587   */\n      swap1\n      pop\n        /* \"#utility.yul\":11453:11594   */\n      swap2\n      swap1\n      pop\n      jump\t// out\n        /* \"#utility.yul\":11600:11693   */\n    tag_145:\n        /* \"#utility.yul\":11637:11643   */\n      0x00\n        /* \"#utility.yul\":11684:11686   */\n      0x20\n        /* \"#utility.yul\":11679:11681   */\n      0x1f\n        /* \"#utility.yul\":11672:11677   */\n      dup4\n        /* \"#utility.yul\":11668:11682   */\n      add\n        /* \"#utility.yul\":11664:11687   */\n      div\n        /* \"#utility.yul\":11654:11687   */\n      swap1\n      pop\n        /* \"#utility.yul\":11600:11693   */\n      swap2\n      swap1\n      pop\n      jump\t// out\n        /* \"#utility.yul\":11699:11806   */\n    tag_146:\n        /* \"#utility.yul\":11743:11751   */\n      0x00\n        /* \"#utility.yul\":11793:11798   */\n      dup3\n        /* \"#utility.yul\":11787:11791   */\n      dup3\n        /* \"#utility.yul\":11783:11799   */\n      shl\n        /* \"#utility.yul\":11762:11799   */\n      swap1\n      pop\n        /* \"#utility.yul\":11699:11806   */\n      swap3\n      swap2\n      pop\n      pop\n      jump\t// out\n        /* \"#utility.yul\":11812:12205   */\n    tag_147:\n        /* \"#utility.yul\":11881:11887   */\n      0x00\n        /* \"#utility.yul\":11931:11932   */\n      0x08\n        /* \"#utility.yul\":11919:11929   */\n      dup4\n        /* \"#utility.yul\":11915:11933   */\n      mul\n        /* \"#utility.yul\":11954:12051   */\n      tag_284\n        /* \"#utility.yul\":11984:12050   */\n      0xffffffffffffffffffffffffffffffffffffffffffffffffffffffffffffffff\n        /* \"#utility.yul\":11973:11982   */\n      dup3\n        /* \"#utility.yul\":11954:12051   */\n      tag_146\n      jump\t// in\n    tag_284:\n        /* \"#utility.yul\":12072:12111   */\n      tag_285\n        /* \"#utility.yul\":12102:12110   */\n      dup7\n        /* \"#utility.yul\":12091:12100   */\n      dup4\n        /* \"#utility.yul\":12072:12111   */\n      tag_146\n      jump\t// in\n    tag_285:\n        /* \"#utility.yul\":12060:12111   */\n      swap6\n      pop\n        /* \"#utility.yul\":12144:12148   */\n      dup1\n        /* \"#utility.yul\":12140:12149   */\n      not\n        /* \"#utility.yul\":12133:12138   */\n      dup5\n        /* \"#utility.yul\":12129:12150   */\n      and\n        /* \"#utility.yul\":12120:12150   */\n      swap4\n      pop\n        /* \"#utility.yul\":12193:12197   */\n      dup1\n        /* \"#utility.yul\":12183:12191   */\n      dup7\n        /* \"#utility.yul\":12179:12198   */\n      and\n        /* \"#utility.yul\":12172:12177   */\n      dup5\n        /* \"#utility.yul\":12169:12199   */\n      or\n        /* \"#utility.yul\":12159:12199   */\n      swap3\n      pop\n        /* \"#utility.yul\":11888:12205   */\n      pop\n      pop\n        /* \"#utility.yul\":11812:12205   */\n      swap4\n      swap3\n      pop\n      pop\n      pop\n      jump\t// out\n        /* \"#utility.yul\":12211:12271   */\n    tag_148:\n        /* \"#utility.yul\":12239:12242   */\n      0x00\n        /* \"#utility.yul\":12260:12265   */\n      dup2\n        /* \"#utility.yul\":12253:12265   */\n      swap1\n      pop\n        /* \"#utility.yul\":12211:12271   */\n      swap2\n      swap1\n      pop\n      jump\t// out\n        /* \"#utility.yul\":12277:12419   */\n    tag_149:\n        /* \"#utility.yul\":12327:12336   */\n      0x00\n        /* \"#utility.yul\":12360:12413   */\n      tag_288\n        /* \"#utility.yul\":12378:12412   */\n      tag_289\n        /* \"#utility.yul\":12387:12411   */\n      tag_290\n        /* \"#utility.yul\":12405:12410   */\n      dup5\n        /* \"#utility.yul\":12387:12411   */\n      tag_118\n      jump\t// in\n    tag_290:\n        /* \"#utility.yul\":12378:12412   */\n      tag_148\n      jump\t// in\n    tag_289:\n        /* \"#utility.yul\":12360:12413   */\n      tag_118\n      jump\t// in\n    tag_288:\n        /* \"#utility.yul\":12347:12413   */\n      swap1\n      pop\n        /* \"#utility.yul\":12277:12419   */\n      swap2\n      swap1\n      pop\n      jump\t// out\n        /* \"#utility.yul\":12425:12500   */\n    tag_150:\n        /* \"#utility.yul\":12468:12471   */\n      0x00\n        /* \"#utility.yul\":12489:12494   */\n      dup2\n        /* \"#utility.yul\":12482:12494   */\n      swap1\n      pop\n        /* \"#utility.yul\":12425:12500   */\n      swap2\n      swap1\n      pop\n      jump\t// out\n        /* \"#utility.yul\":12506:12775   */\n    tag_151:\n        /* \"#utility.yul\":12616:12655   */\n      tag_293\n        /* \"#utility.yul\":12647:12654   */\n      dup4\n        /* \"#utility.yul\":12616:12655   */\n      tag_149\n      jump\t// in\n    tag_293:\n        /* \"#utility.yul\":12677:12768   */\n      tag_294\n        /* \"#utility.yul\":12726:12767   */\n      tag_295\n        /* \"#utility.yul\":12750:12766   */\n      dup3\n        /* \"#utility.yul\":12726:12767   */\n      tag_150\n      jump\t// in\n    tag_295:\n        /* \"#utility.yul\":12718:12724   */\n      dup5\n        /* \"#utility.yul\":12711:12715   */\n      dup5\n        /* \"#utility.yul\":12705:12716   */\n      sload\n        /* \"#utility.yul\":12677:12768   */\n      tag_147\n      jump\t// in\n    tag_294:\n        /* \"#utility.yul\":12671:12675   */\n      dup3\n        /* \"#utility.yul\":12664:12769   */\n      sstore\n        /* \"#utility.yul\":12582:12775   */\n      pop\n        /* \"#utility.yul\":12506:12775   */\n      pop\n      pop\n      pop\n      jump\t// out\n        /* \"#utility.yul\":12781:12854   */\n    tag_152:\n        /* \"#utility.yul\":12826:12829   */\n      0x00\n        /* \"#utility.yul\":12847:12848   */\n      0x00\n        /* \"#utility.yul\":12840:12848   */\n      swap1\n      pop\n        /* \"#utility.yul\":12781:12854   */\n      swap1\n      jump\t// out\n        /* \"#utility.yul\":12860:13049   */\n    tag_153:\n        /* \"#utility.yul\":12937:12969   */\n      tag_298\n      tag_152\n      jump\t// in\n    tag_298:\n        /* \"#utility.yul\":12978:13043   */\n      tag_299\n        /* \"#utility.yul\":13036:13042   */\n      dup2\n        /* \"#utility.yul\":13028:13034   */\n      dup5\n        /* \"#utility.yul\":13022:13026   */\n      dup5\n        /* \"#utility.yul\":12978:13043   */\n      tag_151\n      jump\t// in\n    tag_299:\n        /* \"#utility.yul\":12913:13049   */\n      pop\n        /* \"#utility.yul\":12860:13049   */\n      pop\n      pop\n      jump\t// out\n        /* \"#utility.yul\":13055:13241   */\n    tag_154:\n        /* \"#utility.yul\":13115:13235   */\n    tag_301:\n        /* \"#utility.yul\":13132:13135   */\n      dup2\n        /* \"#utility.yul\":13125:13130   */\n      dup2\n        /* \"#utility.yul\":13122:13136   */\n      lt\n        /* \"#utility.yul\":13115:13235   */\n      iszero\n      tag_303\n      jumpi\n        /* \"#utility.yul\":13186:13225   */\n      tag_304\n        /* \"#utility.yul\":13223:13224   */\n      0x00\n        /* \"#utility.yul\":13216:13221   */\n      dup3\n        /* \"#utility.yul\":13186:13225   */\n      tag_153\n      jump\t// in\n    tag_304:\n        /* \"#utility.yul\":13159:13160   */\n      0x01\n        /* \"#utility.yul\":13152:13157   */\n      dup2\n        /* \"#utility.yul\":13148:13161   */\n      add\n        /* \"#utility.yul\":13139:13161   */\n      swap1\n      pop\n        /* \"#utility.yul\":13115:13235   */\n      jump(tag_301)\n    tag_303:\n        /* \"#utility.yul\":13055:13241   */\n      pop\n      pop\n      jump\t// out\n        /* \"#utility.yul\":13247:13790   */\n    tag_155:\n        /* \"#utility.yul\":13348:13350   */\n      0x1f\n        /* \"#utility.yul\":13343:13346   */\n      dup3\n        /* \"#utility.yul\":13340:13351   */\n      gt\n        /* \"#utility.yul\":13337:13783   */\n      iszero\n      tag_306\n      jumpi\n        /* \"#utility.yul\":13382:13420   */\n      tag_307\n        /* \"#utility.yul\":13414:13419   */\n      dup2\n        /* \"#utility.yul\":13382:13420   */\n      tag_144\n      jump\t// in\n    tag_307:\n        /* \"#utility.yul\":13466:13495   */\n      tag_308\n        /* \"#utility.yul\":13484:13494   */\n      dup5\n        /* \"#utility.yul\":13466:13495   */\n      tag_145\n      jump\t// in\n    tag_308:\n        /* \"#utility.yul\":13456:13464   */\n      dup2\n        /* \"#utility.yul\":13452:13496   */\n      add\n        /* \"#utility.yul\":13649:13651   */\n      0x20\n        /* \"#utility.yul\":13637:13647   */\n      dup6\n        /* \"#utility.yul\":13634:13652   */\n      lt\n        /* \"#utility.yul\":13631:13680   */\n      iszero\n      tag_309\n      jumpi\n        /* \"#utility.yul\":13670:13678   */\n      dup2\n        /* \"#utility.yul\":13655:13678   */\n      swap1\n      pop\n        /* \"#utility.yul\":13631:13680   */\n    tag_309:\n        /* \"#utility.yul\":13693:13773   */\n      tag_310\n        /* \"#utility.yul\":13749:13771   */\n      tag_311\n        /* \"#utility.yul\":13767:13770   */\n      dup6\n        /* \"#utility.yul\":13749:13771   */\n      tag_145\n      jump\t// in\n    tag_311:\n        /* \"#utility.yul\":13739:13747   */\n      dup4\n        /* \"#utility.yul\":13735:13772   */\n      add\n        /* \"#utility.yul\":13722:13733   */\n      dup3\n        /* \"#utility.yul\":13693:13773   */\n      tag_154\n      jump\t// in\n    tag_310:\n        /* \"#utility.yul\":13352:13783   */\n      pop\n      pop\n        /* \"#utility.yul\":13337:13783   */\n    tag_306:\n        /* \"#utility.yul\":13247:13790   */\n      pop\n      pop\n      pop\n      jump\t// out\n        /* \"#utility.yul\":13796:13913   */\n    tag_156:\n        /* \"#utility.yul\":13850:13858   */\n      0x00\n        /* \"#utility.yul\":13900:13905   */\n      dup3\n        /* \"#utility.yul\":13894:13898   */\n      dup3\n        /* \"#utility.yul\":13890:13906   */\n      shr\n        /* \"#utility.yul\":13869:13906   */\n      swap1\n      pop\n        /* \"#utility.yul\":13796:13913   */\n      swap3\n      swap2\n      pop\n      pop\n      jump\t// out\n        /* \"#utility.yul\":13919:14088   */\n    tag_157:\n        /* \"#utility.yul\":13963:13969   */\n      0x00\n        /* \"#utility.yul\":13996:14047   */\n      tag_314\n        /* \"#utility.yul\":14044:14045   */\n      0x00\n        /* \"#utility.yul\":14040:14046   */\n      not\n        /* \"#utility.yul\":14032:14037   */\n      dup5\n        /* \"#utility.yul\":14029:14030   */\n      0x08\n        /* \"#utility.yul\":14025:14038   */\n      mul\n        /* \"#utility.yul\":13996:14047   */\n      tag_156\n      jump\t// in\n    tag_314:\n        /* \"#utility.yul\":13992:14048   */\n      not\n        /* \"#utility.yul\":14077:14081   */\n      dup1\n        /* \"#utility.yul\":14071:14075   */\n      dup4\n        /* \"#utility.yul\":14067:14082   */\n      and\n        /* \"#utility.yul\":14057:14082   */\n      swap2\n      pop\n        /* \"#utility.yul\":13970:14088   */\n      pop\n        /* \"#utility.yul\":13919:14088   */\n      swap3\n      swap2\n      pop\n      pop\n      jump\t// out\n        /* \"#utility.yul\":14093:14388   */\n    tag_158:\n        /* \"#utility.yul\":14169:14173   */\n      0x00\n        /* \"#utility.yul\":14315:14344   */\n      tag_316\n        /* \"#utility.yul\":14340:14343   */\n      dup4\n        /* \"#utility.yul\":14334:14338   */\n      dup4\n        /* \"#utility.yul\":14315:14344   */\n      tag_157\n      jump\t// in\n    tag_316:\n        /* \"#utility.yul\":14307:14344   */\n      swap2\n      pop\n        /* \"#utility.yul\":14377:14380   */\n      dup3\n        /* \"#utility.yul\":14374:14375   */\n      0x02\n        /* \"#utility.yul\":14370:14381   */\n      mul\n        /* \"#utility.yul\":14364:14368   */\n      dup3\n        /* \"#utility.yul\":14361:14382   */\n      or\n        /* \"#utility.yul\":14353:14382   */\n      swap1\n      pop\n        /* \"#utility.yul\":14093:14388   */\n      swap3\n      swap2\n      pop\n      pop\n      jump\t// out\n        /* \"#utility.yul\":14393:15788   */\n    tag_86:\n        /* \"#utility.yul\":14510:14547   */\n      tag_318\n        /* \"#utility.yul\":14543:14546   */\n      dup3\n        /* \"#utility.yul\":14510:14547   */\n      tag_113\n      jump\t// in\n    tag_318:\n        /* \"#utility.yul\":14612:14630   */\n      0xffffffffffffffff\n        /* \"#utility.yul\":14604:14610   */\n      dup2\n        /* \"#utility.yul\":14601:14631   */\n      gt\n        /* \"#utility.yul\":14598:14654   */\n      iszero\n      tag_319\n      jumpi\n        /* \"#utility.yul\":14634:14652   */\n      tag_320\n      tag_126\n      jump\t// in\n    tag_320:\n        /* \"#utility.yul\":14598:14654   */\n    tag_319:\n        /* \"#utility.yul\":14678:14716   */\n      tag_321\n        /* \"#utility.yul\":14710:14714   */\n      dup3\n        /* \"#utility.yul\":14704:14715   */\n      sload\n        /* \"#utility.yul\":14678:14716   */\n      tag_62\n      jump\t// in\n    tag_321:\n        /* \"#utility.yul\":14763:14830   */\n      tag_322\n        /* \"#utility.yul\":14823:14829   */\n      dup3\n        /* \"#utility.yul\":14815:14821   */\n      dup3\n        /* \"#utility.yul\":14809:14813   */\n      dup6\n        /* \"#utility.yul\":14763:14830   */\n      tag_155\n      jump\t// in\n    tag_322:\n        /* \"#utility.yul\":14857:14858   */\n      0x00\n        /* \"#utility.yul\":14881:14885   */\n      0x20\n        /* \"#utility.yul\":14868:14885   */\n      swap1\n      pop\n        /* \"#utility.yul\":14913:14915   */\n      0x1f\n        /* \"#utility.yul\":14905:14911   */\n      dup4\n        /* \"#utility.yul\":14902:14916   */\n      gt\n        /* \"#utility.yul\":14930:14931   */\n      0x01\n        /* \"#utility.yul\":14925:15543   */\n      dup2\n      eq\n      tag_324\n      jumpi\n        /* \"#utility.yul\":15587:15588   */\n      0x00\n        /* \"#utility.yul\":15604:15610   */\n      dup5\n        /* \"#utility.yul\":15601:15678   */\n      iszero\n      tag_325\n      jumpi\n        /* \"#utility.yul\":15653:15662   */\n      dup3\n        /* \"#utility.yul\":15648:15651   */\n      dup8\n        /* \"#utility.yul\":15644:15663   */\n      add\n        /* \"#utility.yul\":15638:15664   */\n      mload\n        /* \"#utility.yul\":15629:15664   */\n      swap1\n      pop\n        /* \"#utility.yul\":15601:15678   */\n    tag_325:\n        /* \"#utility.yul\":15704:15771   */\n      tag_326\n        /* \"#utility.yul\":15764:15770   */\n      dup6\n        /* \"#utility.yul\":15757:15762   */\n      dup3\n        /* \"#utility.yul\":15704:15771   */\n      tag_158\n      jump\t// in\n    tag_326:\n        /* \"#utility.yul\":15698:15702   */\n      dup7\n        /* \"#utility.yul\":15691:15772   */\n      sstore\n        /* \"#utility.yul\":15560:15782   */\n      pop\n        /* \"#utility.yul\":14895:15782   */\n      jump(tag_323)\n        /* \"#utility.yul\":14925:15543   */\n    tag_324:\n        /* \"#utility.yul\":14977:14981   */\n      0x1f\n        /* \"#utility.yul\":14973:14982   */\n      not\n        /* \"#utility.yul\":14965:14971   */\n      dup5\n        /* \"#utility.yul\":14961:14983   */\n      and\n        /* \"#utility.yul\":15011:15048   */\n      tag_327\n        /* \"#utility.yul\":15043:15047   */\n      dup7\n        /* \"#utility.yul\":15011:15048   */\n      tag_144\n      jump\t// in\n    tag_327:\n        /* \"#utility.yul\":15070:15071   */\n      0x00\n        /* \"#utility.yul\":15084:15292   */\n    tag_328:\n        /* \"#utility.yul\":15098:15105   */\n      dup3\n        /* \"#utility.yul\":15095:15096   */\n      dup2\n        /* \"#utility.yul\":15092:15106   */\n      lt\n        /* \"#utility.yul\":15084:15292   */\n      iszero\n      tag_330\n      jumpi\n        /* \"#utility.yul\":15177:15186   */\n      dup5\n        /* \"#utility.yul\":15172:15175   */\n      dup10\n        /* \"#utility.yul\":15168:15187   */\n      add\n        /* \"#utility.yul\":15162:15188   */\n      mload\n        /* \"#utility.yul\":15154:15160   */\n      dup3\n        /* \"#utility.yul\":15147:15189   */\n      sstore\n        /* \"#utility.yul\":15228:15229   */\n      0x01\n        /* \"#utility.yul\":15220:15226   */\n      dup3\n        /* \"#utility.yul\":15216:15230   */\n      add\n        /* \"#utility.yul\":15206:15230   */\n      swap2\n      pop\n        /* \"#utility.yul\":15275:15277   */\n      0x20\n        /* \"#utility.yul\":15264:15273   */\n      dup6\n        /* \"#utility.yul\":15260:15278   */\n      add\n        /* \"#utility.yul\":15247:15278   */\n      swap5\n      pop\n        /* \"#utility.yul\":15121:15125   */\n      0x20\n        /* \"#utility.yul\":15118:15119   */\n      dup2\n        /* \"#utility.yul\":15114:15126   */\n      add\n        /* \"#utility.yul\":15109:15126   */\n      swap1\n      pop\n        /* \"#utility.yul\":15084:15292   */\n      jump(tag_328)\n    tag_330:\n        /* \"#utility.yul\":15320:15326   */\n      dup7\n        /* \"#utility.yul\":15311:15318   */\n      dup4\n        /* \"#utility.yul\":15308:15327   */\n      lt\n        /* \"#utility.yul\":15305:15484   */\n      iszero\n      tag_331\n      jumpi\n        /* \"#utility.yul\":15378:15387   */\n      dup5\n        /* \"#utility.yul\":15373:15376   */\n      dup10\n        /* \"#utility.yul\":15369:15388   */\n      add\n        /* \"#utility.yul\":15363:15389   */\n      mload\n        /* \"#utility.yul\":15421:15469   */\n      tag_332\n        /* \"#utility.yul\":15463:15467   */\n      0x1f\n        /* \"#utility.yul\":15455:15461   */\n      dup10\n        /* \"#utility.yul\":15451:15468   */\n      and\n        /* \"#utility.yul\":15440:15449   */\n      dup3\n        /* \"#utility.yul\":15421:15469   */\n      tag_157\n      jump\t// in\n    tag_332:\n        /* \"#utility.yul\":15413:15419   */\n      dup4\n        /* \"#utility.yul\":15406:15470   */\n      sstore\n        /* \"#utility.yul\":15328:15484   */\n      pop\n        /* \"#utility.yul\":15305:15484   */\n    tag_331:\n        /* \"#utility.yul\":15530:15531   */\n      0x01\n        /* \"#utility.yul\":15526:15527   */\n      0x02\n        /* \"#utility.yul\":15518:15524   */\n      dup9\n        /* \"#utility.yul\":15514:15528   */\n      mul\n        /* \"#utility.yul\":15510:15532   */\n      add\n        /* \"#utility.yul\":15504:15508   */\n      dup9\n        /* \"#utility.yul\":15497:15533   */\n      sstore\n        /* \"#utility.yul\":14932:15543   */\n      pop\n      pop\n      pop\n        /* \"#utility.yul\":14895:15782   */\n    tag_323:\n      pop\n        /* \"#utility.yul\":14485:15788   */\n      pop\n      pop\n      pop\n        /* \"#utility.yul\":14393:15788   */\n      pop\n      pop\n      jump\t// out\n        /* \"#utility.yul\":15794:15974   */\n    tag_159:\n        /* \"#utility.yul\":15842:15919   */\n      0x4e487b7100000000000000000000000000000000000000000000000000000000\n        /* \"#utility.yul\":15839:15840   */\n      0x00\n        /* \"#utility.yul\":15832:15920   */\n      mstore\n        /* \"#utility.yul\":15939:15943   */\n      0x11\n        /* \"#utility.yul\":15936:15937   */\n      0x04\n        /* \"#utility.yul\":15929:15944   */\n      mstore\n        /* \"#utility.yul\":15963:15967   */\n      0x24\n        /* \"#utility.yul\":15960:15961   */\n      0x00\n        /* \"#utility.yul\":15953:15968   */\n      revert\n        /* \"#utility.yul\":15980:16171   */\n    tag_88:\n        /* \"#utility.yul\":16020:16023   */\n      0x00\n        /* \"#utility.yul\":16039:16059   */\n      tag_335\n        /* \"#utility.yul\":16057:16058   */\n      dup3\n        /* \"#utility.yul\":16039:16059   */\n      tag_118\n      jump\t// in\n    tag_335:\n        /* \"#utility.yul\":16034:16059   */\n      swap2\n      pop\n        /* \"#utility.yul\":16073:16093   */\n      tag_336\n        /* \"#utility.yul\":16091:16092   */\n      dup4\n        /* \"#utility.yul\":16073:16093   */\n      tag_118\n      jump\t// in\n    tag_336:\n        /* \"#utility.yul\":16068:16093   */\n      swap3\n      pop\n        /* \"#utility.yul\":16116:16117   */\n      dup3\n        /* \"#utility.yul\":16113:16114   */\n      dup3\n        /* \"#utility.yul\":16109:16118   */\n      add\n        /* \"#utility.yul\":16102:16118   */\n      swap1\n      pop\n        /* \"#utility.yul\":16137:16140   */\n      dup1\n        /* \"#utility.yul\":16134:16135   */\n      dup3\n        /* \"#utility.yul\":16131:16141   */\n      gt\n        /* \"#utility.yul\":16128:16164   */\n      iszero\n      tag_337\n      jumpi\n        /* \"#utility.yul\":16144:16162   */\n      tag_338\n      tag_159\n      jump\t// in\n    tag_338:\n        /* \"#utility.yul\":16128:16164   */\n    tag_337:\n        /* \"#utility.yul\":15980:16171   */\n      swap3\n      swap2\n      pop\n      pop\n      jump\t// out\n        /* \"#utility.yul\":16177:16410   */\n    tag_90:\n        /* \"#utility.yul\":16216:16219   */\n      0x00\n        /* \"#utility.yul\":16239:16263   */\n      tag_340\n        /* \"#utility.yul\":16257:16262   */\n      dup3\n        /* \"#utility.yul\":16239:16263   */\n      tag_118\n      jump\t// in\n    tag_340:\n        /* \"#utility.yul\":16230:16263   */\n      swap2\n      pop\n        /* \"#utility.yul\":16285:16351   */\n      0xffffffffffffffffffffffffffffffffffffffffffffffffffffffffffffffff\n        /* \"#utility.yul\":16278:16283   */\n      dup3\n        /* \"#utility.yul\":16275:16352   */\n      sub\n        /* \"#utility.yul\":16272:16375   */\n      tag_341\n      jumpi\n        /* \"#utility.yul\":16355:16373   */\n      tag_342\n      tag_159\n      jump\t// in\n    tag_342:\n        /* \"#utility.yul\":16272:16375   */\n    tag_341:\n        /* \"#utility.yul\":16402:16403   */\n      0x01\n        /* \"#utility.yul\":16395:16400   */\n      dup3\n        /* \"#utility.yul\":16391:16404   */\n      add\n        /* \"#utility.yul\":16384:16404   */\n      swap1\n      pop\n        /* \"#utility.yul\":16177:16410   */\n      swap2\n      swap1\n      pop\n      jump\t// out\n\n    auxdata: 0xa2646970667358221220b0c768c3cfe4d048d82b4a29d18b8bc9ec9eb054532d41fbe7bedb13d6ac0d9664736f6c634300081b0033\n}\n",
				"bytecode": {
					"linkReferences": {},
					"object": "608060405260015f553480156012575f5ffd5b5061118f806100205f395ff3fe608060405234801561000f575f5ffd5b50600436106100a7575f3560e01c80634081db511161006f5780634081db51146101515780636586ace614610181578063837d05f01461019d578063942886be146101cd57806394a3c428146101ed578063e11f6d131461021d576100a7565b80630610a7a2146100ab57806321c63a47146100db57806322366844146100f95780632faba6ae146101175780633bc98d0a14610135575b5f5ffd5b6100c560048036038101906100c091906108f3565b61023b565b6040516100d2919061098e565b60405180910390f35b6100e36102d6565b6040516100f091906109c6565b60405180910390f35b610101610364565b60405161010e91906109f9565b60405180910390f35b61011f6103ab565b60405161012c91906109c6565b60405180910390f35b61014f600480360381019061014a9190610a35565b6103b0565b005b61016b600480360381019061016691906108f3565b610487565b60405161017891906109c6565b60405180910390f35b61019b60048036038101906101969190610bb6565b61049c565b005b6101b760048036038101906101b291906108f3565b610611565b6040516101c491906109c6565b60405180910390f35b6101d5610626565b6040516101e493929190610c10565b60405180910390f35b61020760048036038101906102029190610c4c565b6107bf565b6040516102149190610cfd565b60405180910390f35b6102256107fd565b60405161023291906109c6565b60405180910390f35b6001602052805f5260405f205f91509050805461025790610d43565b80601f016020809104026020016040519081016040528092919081815260200182805461028390610d43565b80156102ce5780601f106102a5576101008083540402835291602001916102ce565b820191905f5260205f20905b8154815290600101906020018083116102b157829003601f168201915b505050505081565b5f6102df610364565b61031e576040517f08c379a000000000000000000000000000000000000000000000000000000000815260040161031590610dbd565b60405180910390fd5b60045f3373ffffffffffffffffffffffffffffffffffffffff1673ffffffffffffffffffffffffffffffffffffffff1681526020019081526020015f2080549050905090565b5f5f60025f3373ffffffffffffffffffffffffffffffffffffffff1673ffffffffffffffffffffffffffffffffffffffff1681526020019081526020015f20541415905090565b5f5481565b6103b8610364565b6103f7576040517f08c379a00000000000000000000000000000000000000000000000000000000081526004016103ee90610dbd565b60405180910390fd5b60045f3373ffffffffffffffffffffffffffffffffffffffff1673ffffffffffffffffffffffffffffffffffffffff1681526020019081526020015f2081908060018154018082558091505060019003905f5260205f2090602091828204019190069091909190916101000a81548160ff0219169083600481111561047f5761047e610c8a565b5b021790555050565b6002602052805f5260405f205f915090505481565b5f60025f3373ffffffffffffffffffffffffffffffffffffffff1673ffffffffffffffffffffffffffffffffffffffff1681526020019081526020015f20541461051b576040517f08c379a000000000000000000000000000000000000000000000000000000000815260040161051290610e25565b60405180910390fd5b8160015f3373ffffffffffffffffffffffffffffffffffffffff1673ffffffffffffffffffffffffffffffffffffffff1681526020019081526020015f2090816105659190610fe3565b505f5460025f3373ffffffffffffffffffffffffffffffffffffffff1673ffffffffffffffffffffffffffffffffffffffff1681526020019081526020015f2081905550805f546105b691906110df565b60035f3373ffffffffffffffffffffffffffffffffffffffff1673ffffffffffffffffffffffffffffffffffffffff1681526020019081526020015f20819055505f5f81548092919061060890611112565b91905055505050565b6003602052805f5260405f205f915090505481565b5f60605f610632610364565b610671576040517f08c379a000000000000000000000000000000000000000000000000000000000815260040161066890610dbd565b60405180910390fd5b60025f3373ffffffffffffffffffffffffffffffffffffffff1673ffffffffffffffffffffffffffffffffffffffff1681526020019081526020015f205460015f3373ffffffffffffffffffffffffffffffffffffffff1673ffffffffffffffffffffffffffffffffffffffff1681526020019081526020015f2060035f3373ffffffffffffffffffffffffffffffffffffffff1673ffffffffffffffffffffffffffffffffffffffff1681526020019081526020015f205481805461073690610d43565b80601f016020809104026020016040519081016040528092919081815260200182805461076290610d43565b80156107ad5780601f10610784576101008083540402835291602001916107ad565b820191905f5260205f20905b81548152906001019060200180831161079057829003601f168201915b50505050509150925092509250909192565b6004602052815f5260405f2081815481106107d8575f80fd5b905f5260205f209060209182820401919006915091509054906101000a900460ff1681565b5f610806610364565b610845576040517f08c379a000000000000000000000000000000000000000000000000000000000815260040161083c90610dbd565b60405180910390fd5b60035f3373ffffffffffffffffffffffffffffffffffffffff1673ffffffffffffffffffffffffffffffffffffffff1681526020019081526020015f2054905090565b5f604051905090565b5f5ffd5b5f5ffd5b5f73ffffffffffffffffffffffffffffffffffffffff82169050919050565b5f6108c282610899565b9050919050565b6108d2816108b8565b81146108dc575f5ffd5b50565b5f813590506108ed816108c9565b92915050565b5f6020828403121561090857610907610891565b5b5f610915848285016108df565b91505092915050565b5f81519050919050565b5f82825260208201905092915050565b8281835e5f83830152505050565b5f601f19601f8301169050919050565b5f6109608261091e565b61096a8185610928565b935061097a818560208601610938565b61098381610946565b840191505092915050565b5f6020820190508181035f8301526109a68184610956565b905092915050565b5f819050919050565b6109c0816109ae565b82525050565b5f6020820190506109d95f8301846109b7565b92915050565b5f8115159050919050565b6109f3816109df565b82525050565b5f602082019050610a0c5f8301846109ea565b92915050565b60058110610a1e575f5ffd5b50565b5f81359050610a2f81610a12565b92915050565b5f60208284031215610a4a57610a49610891565b5b5f610a5784828501610a21565b91505092915050565b5f5ffd5b5f5ffd5b7f4e487b71000000000000000000000000000000000000000000000000000000005f52604160045260245ffd5b610a9e82610946565b810181811067ffffffffffffffff82111715610abd57610abc610a68565b5b80604052505050565b5f610acf610888565b9050610adb8282610a95565b919050565b5f67ffffffffffffffff821115610afa57610af9610a68565b5b610b0382610946565b9050602081019050919050565b828183375f83830152505050565b5f610b30610b2b84610ae0565b610ac6565b905082815260208101848484011115610b4c57610b4b610a64565b5b610b57848285610b10565b509392505050565b5f82601f830112610b7357610b72610a60565b5b8135610b83848260208601610b1e565b91505092915050565b610b95816109ae565b8114610b9f575f5ffd5b50565b5f81359050610bb081610b8c565b92915050565b5f5f60408385031215610bcc57610bcb610891565b5b5f83013567ffffffffffffffff811115610be957610be8610895565b5b610bf585828601610b5f565b9250506020610c0685828601610ba2565b9150509250929050565b5f606082019050610c235f8301866109b7565b8181036020830152610c358185610956565b9050610c4460408301846109b7565b949350505050565b5f5f60408385031215610c6257610c61610891565b5b5f610c6f858286016108df565b9250506020610c8085828601610ba2565b9150509250929050565b7f4e487b71000000000000000000000000000000000000000000000000000000005f52602160045260245ffd5b60058110610cc857610cc7610c8a565b5b50565b5f819050610cd882610cb7565b919050565b5f610ce782610ccb565b9050919050565b610cf781610cdd565b82525050565b5f602082019050610d105f830184610cee565b92915050565b7f4e487b71000000000000000000000000000000000000000000000000000000005f52602260045260245ffd5b5f6002820490506001821680610d5a57607f821691505b602082108103610d6d57610d6c610d16565b5b50919050565b7f55736572206e6f742072656769737465726564000000000000000000000000005f82015250565b5f610da7601383610928565b9150610db282610d73565b602082019050919050565b5f6020820190508181035f830152610dd481610d9b565b9050919050565b7f5573657220616c726561647920726567697374657265640000000000000000005f82015250565b5f610e0f601783610928565b9150610e1a82610ddb565b602082019050919050565b5f6020820190508181035f830152610e3c81610e03565b9050919050565b5f819050815f5260205f209050919050565b5f6020601f8301049050919050565b5f82821b905092915050565b5f60088302610e9f7fffffffffffffffffffffffffffffffffffffffffffffffffffffffffffffffff82610e64565b610ea98683610e64565b95508019841693508086168417925050509392505050565b5f819050919050565b5f610ee4610edf610eda846109ae565b610ec1565b6109ae565b9050919050565b5f819050919050565b610efd83610eca565b610f11610f0982610eeb565b848454610e70565b825550505050565b5f5f905090565b610f28610f19565b610f33818484610ef4565b505050565b5b81811015610f5657610f4b5f82610f20565b600181019050610f39565b5050565b601f821115610f9b57610f6c81610e43565b610f7584610e55565b81016020851015610f84578190505b610f98610f9085610e55565b830182610f38565b50505b505050565b5f82821c905092915050565b5f610fbb5f1984600802610fa0565b1980831691505092915050565b5f610fd38383610fac565b9150826002028217905092915050565b610fec8261091e565b67ffffffffffffffff81111561100557611004610a68565b5b61100f8254610d43565b61101a828285610f5a565b5f60209050601f83116001811461104b575f8415611039578287015190505b6110438582610fc8565b8655506110aa565b601f19841661105986610e43565b5f5b828110156110805784890151825560018201915060208501945060208101905061105b565b8683101561109d5784890151611099601f891682610fac565b8355505b6001600288020188555050505b505050505050565b7f4e487b71000000000000000000000000000000000000000000000000000000005f52601160045260245ffd5b5f6110e9826109ae565b91506110f4836109ae565b925082820190508082111561110c5761110b6110b2565b5b92915050565b5f61111c826109ae565b91507fffffffffffffffffffffffffffffffffffffffffffffffffffffffffffffffff820361114e5761114d6110b2565b5b60018201905091905056fea2646970667358221220b0c768c3cfe4d048d82b4a29d18b8bc9ec9eb054532d41fbe7bedb13d6ac0d9664736f6c634300081b0033",
					"opcodes": "PUSH1 0x80 PUSH1 0x40 MSTORE PUSH1 0x1 PUSH0 SSTORE CALLVALUE DUP1 ISZERO PUSH1 0x12 JUMPI PUSH0 PUSH0 REVERT JUMPDEST POP PUSH2 0x118F DUP1 PUSH2 0x20 PUSH0 CODECOPY PUSH0 RETURN INVALID PUSH1 0x80 PUSH1 0x40 MSTORE CALLVALUE DUP1 ISZERO PUSH2 0xF JUMPI PUSH0 PUSH0 REVERT JUMPDEST POP PUSH1 0x4 CALLDATASIZE LT PUSH2 0xA7 JUMPI PUSH0 CALLDATALOAD PUSH1 0xE0 SHR DUP1 PUSH4 0x4081DB51 GT PUSH2 0x6F JUMPI DUP1 PUSH4 0x4081DB51 EQ PUSH2 0x151 JUMPI DUP1 PUSH4 0x6586ACE6 EQ PUSH2 0x181 JUMPI DUP1 PUSH4 0x837D05F0 EQ PUSH2 0x19D JUMPI DUP1 PUSH4 0x942886BE EQ PUSH2 0x1CD JUMPI DUP1 PUSH4 0x94A3C428 EQ PUSH2 0x1ED JUMPI DUP1 PUSH4 0xE11F6D13 EQ PUSH2 0x21D JUMPI PUSH2 0xA7 JUMP JUMPDEST DUP1 PUSH4 0x610A7A2 EQ PUSH2 0xAB JUMPI DUP1 PUSH4 0x21C63A47 EQ PUSH2 0xDB JUMPI DUP1 PUSH4 0x22366844 EQ PUSH2 0xF9 JUMPI DUP1 PUSH4 0x2FABA6AE EQ PUSH2 0x117 JUMPI DUP1 PUSH4 0x3BC98D0A EQ PUSH2 0x135 JUMPI JUMPDEST PUSH0 PUSH0 REVERT JUMPDEST PUSH2 0xC5 PUSH1 0x4 DUP1 CALLDATASIZE SUB DUP2 ADD SWAP1 PUSH2 0xC0 SWAP2 SWAP1 PUSH2 0x8F3 JUMP JUMPDEST PUSH2 0x23B JUMP JUMPDEST PUSH1 0x40 MLOAD PUSH2 0xD2 SWAP2 SWAP1 PUSH2 0x98E JUMP JUMPDEST PUSH1 0x40 MLOAD DUP1 SWAP2 SUB SWAP1 RETURN JUMPDEST PUSH2 0xE3 PUSH2 0x2D6 JUMP JUMPDEST PUSH1 0x40 MLOAD PUSH2 0xF0 SWAP2 SWAP1 PUSH2 0x9C6 JUMP JUMPDEST PUSH1 0x40 MLOAD DUP1 SWAP2 SUB SWAP1 RETURN JUMPDEST PUSH2 0x101 PUSH2 0x364 JUMP JUMPDEST PUSH1 0x40 MLOAD PUSH2 0x10E SWAP2 SWAP1 PUSH2 0x9F9 JUMP JUMPDEST PUSH1 0x40 MLOAD DUP1 SWAP2 SUB SWAP1 RETURN JUMPDEST PUSH2 0x11F PUSH2 0x3AB JUMP JUMPDEST PUSH1 0x40 MLOAD PUSH2 0x12C SWAP2 SWAP1 PUSH2 0x9C6 JUMP JUMPDEST PUSH1 0x40 MLOAD DUP1 SWAP2 SUB SWAP1 RETURN JUMPDEST PUSH2 0x14F PUSH1 0x4 DUP1 CALLDATASIZE SUB DUP2 ADD SWAP1 PUSH2 0x14A SWAP2 SWAP1 PUSH2 0xA35 JUMP JUMPDEST PUSH2 0x3B0 JUMP JUMPDEST STOP JUMPDEST PUSH2 0x16B PUSH1 0x4 DUP1 CALLDATASIZE SUB DUP2 ADD SWAP1 PUSH2 0x166 SWAP2 SWAP1 PUSH2 0x8F3 JUMP JUMPDEST PUSH2 0x487 JUMP JUMPDEST PUSH1 0x40 MLOAD PUSH2 0x178 SWAP2 SWAP1 PUSH2 0x9C6 JUMP JUMPDEST PUSH1 0x40 MLOAD DUP1 SWAP2 SUB SWAP1 RETURN JUMPDEST PUSH2 0x19B PUSH1 0x4 DUP1 CALLDATASIZE SUB DUP2 ADD SWAP1 PUSH2 0x196 SWAP2 SWAP1 PUSH2 0xBB6 JUMP JUMPDEST PUSH2 0x49C JUMP JUMPDEST STOP JUMPDEST PUSH2 0x1B7 PUSH1 0x4 DUP1 CALLDATASIZE SUB DUP2 ADD SWAP1 PUSH2 0x1B2 SWAP2 SWAP1 PUSH2 0x8F3 JUMP JUMPDEST PUSH2 0x611 JUMP JUMPDEST PUSH1 0x40 MLOAD PUSH2 0x1C4 SWAP2 SWAP1 PUSH2 0x9C6 JUMP JUMPDEST PUSH1 0x40 MLOAD DUP1 SWAP2 SUB SWAP1 RETURN JUMPDEST PUSH2 0x1D5 PUSH2 0x626 JUMP JUMPDEST PUSH1 0x40 MLOAD PUSH2 0x1E4 SWAP4 SWAP3 SWAP2 SWAP1 PUSH2 0xC10 JUMP JUMPDEST PUSH1 0x40 MLOAD DUP1 SWAP2 SUB SWAP1 RETURN JUMPDEST PUSH2 0x207 PUSH1 0x4 DUP1 CALLDATASIZE SUB DUP2 ADD SWAP1 PUSH2 0x202 SWAP2 SWAP1 PUSH2 0xC4C JUMP JUMPDEST PUSH2 0x7BF JUMP JUMPDEST PUSH1 0x40 MLOAD PUSH2 0x214 SWAP2 SWAP1 PUSH2 0xCFD JUMP JUMPDEST PUSH1 0x40 MLOAD DUP1 SWAP2 SUB SWAP1 RETURN JUMPDEST PUSH2 0x225 PUSH2 0x7FD JUMP JUMPDEST PUSH1 0x40 MLOAD PUSH2 0x232 SWAP2 SWAP1 PUSH2 0x9C6 JUMP JUMPDEST PUSH1 0x40 MLOAD DUP1 SWAP2 SUB SWAP1 RETURN JUMPDEST PUSH1 0x1 PUSH1 0x20 MSTORE DUP1 PUSH0 MSTORE PUSH1 0x40 PUSH0 KECCAK256 PUSH0 SWAP2 POP SWAP1 POP DUP1 SLOAD PUSH2 0x257 SWAP1 PUSH2 0xD43 JUMP JUMPDEST DUP1 PUSH1 0x1F ADD PUSH1 0x20 DUP1 SWAP2 DIV MUL PUSH1 0x20 ADD PUSH1 0x40 MLOAD SWAP1 DUP2 ADD PUSH1 0x40 MSTORE DUP1 SWAP3 SWAP2 SWAP1 DUP2 DUP2 MSTORE PUSH1 0x20 ADD DUP3 DUP1 SLOAD PUSH2 0x283 SWAP1 PUSH2 0xD43 JUMP JUMPDEST DUP1 ISZERO PUSH2 0x2CE JUMPI DUP1 PUSH1 0x1F LT PUSH2 0x2A5 JUMPI PUSH2 0x100 DUP1 DUP4 SLOAD DIV MUL DUP4 MSTORE SWAP2 PUSH1 0x20 ADD SWAP2 PUSH2 0x2CE JUMP JUMPDEST DUP3 ADD SWAP2 SWAP1 PUSH0 MSTORE PUSH1 0x20 PUSH0 KECCAK256 SWAP1 JUMPDEST DUP2 SLOAD DUP2 MSTORE SWAP1 PUSH1 0x1 ADD SWAP1 PUSH1 0x20 ADD DUP1 DUP4 GT PUSH2 0x2B1 JUMPI DUP3 SWAP1 SUB PUSH1 0x1F AND DUP3 ADD SWAP2 JUMPDEST POP POP POP POP POP DUP2 JUMP JUMPDEST PUSH0 PUSH2 0x2DF PUSH2 0x364 JUMP JUMPDEST PUSH2 0x31E JUMPI PUSH1 0x40 MLOAD PUSH32 0x8C379A000000000000000000000000000000000000000000000000000000000 DUP2 MSTORE PUSH1 0x4 ADD PUSH2 0x315 SWAP1 PUSH2 0xDBD JUMP JUMPDEST PUSH1 0x40 MLOAD DUP1 SWAP2 SUB SWAP1 REVERT JUMPDEST PUSH1 0x4 PUSH0 CALLER PUSH20 0xFFFFFFFFFFFFFFFFFFFFFFFFFFFFFFFFFFFFFFFF AND PUSH20 0xFFFFFFFFFFFFFFFFFFFFFFFFFFFFFFFFFFFFFFFF AND DUP2 MSTORE PUSH1 0x20 ADD SWAP1 DUP2 MSTORE PUSH1 0x20 ADD PUSH0 KECCAK256 DUP1 SLOAD SWAP1 POP SWAP1 POP SWAP1 JUMP JUMPDEST PUSH0 PUSH0 PUSH1 0x2 PUSH0 CALLER PUSH20 0xFFFFFFFFFFFFFFFFFFFFFFFFFFFFFFFFFFFFFFFF AND PUSH20 0xFFFFFFFFFFFFFFFFFFFFFFFFFFFFFFFFFFFFFFFF AND DUP2 MSTORE PUSH1 0x20 ADD SWAP1 DUP2 MSTORE PUSH1 0x20 ADD PUSH0 KECCAK256 SLOAD EQ ISZERO SWAP1 POP SWAP1 JUMP JUMPDEST PUSH0 SLOAD DUP2 JUMP JUMPDEST PUSH2 0x3B8 PUSH2 0x364 JUMP JUMPDEST PUSH2 0x3F7 JUMPI PUSH1 0x40 MLOAD PUSH32 0x8C379A000000000000000000000000000000000000000000000000000000000 DUP2 MSTORE PUSH1 0x4 ADD PUSH2 0x3EE SWAP1 PUSH2 0xDBD JUMP JUMPDEST PUSH1 0x40 MLOAD DUP1 SWAP2 SUB SWAP1 REVERT JUMPDEST PUSH1 0x4 PUSH0 CALLER PUSH20 0xFFFFFFFFFFFFFFFFFFFFFFFFFFFFFFFFFFFFFFFF AND PUSH20 0xFFFFFFFFFFFFFFFFFFFFFFFFFFFFFFFFFFFFFFFF AND DUP2 MSTORE PUSH1 0x20 ADD SWAP1 DUP2 MSTORE PUSH1 0x20 ADD PUSH0 KECCAK256 DUP2 SWAP1 DUP1 PUSH1 0x1 DUP2 SLOAD ADD DUP1 DUP3 SSTORE DUP1 SWAP2 POP POP PUSH1 0x1 SWAP1 SUB SWAP1 PUSH0 MSTORE PUSH1 0x20 PUSH0 KECCAK256 SWAP1 PUSH1 0x20 SWAP2 DUP3 DUP3 DIV ADD SWAP2 SWAP1 MOD SWAP1 SWAP2 SWAP1 SWAP2 SWAP1 SWAP2 PUSH2 0x100 EXP DUP2 SLOAD DUP2 PUSH1 0xFF MUL NOT AND SWAP1 DUP4 PUSH1 0x4 DUP2 GT ISZERO PUSH2 0x47F JUMPI PUSH2 0x47E PUSH2 0xC8A JUMP JUMPDEST JUMPDEST MUL OR SWAP1 SSTORE POP POP JUMP JUMPDEST PUSH1 0x2 PUSH1 0x20 MSTORE DUP1 PUSH0 MSTORE PUSH1 0x40 PUSH0 KECCAK256 PUSH0 SWAP2 POP SWAP1 POP SLOAD DUP2 JUMP JUMPDEST PUSH0 PUSH1 0x2 PUSH0 CALLER PUSH20 0xFFFFFFFFFFFFFFFFFFFFFFFFFFFFFFFFFFFFFFFF AND PUSH20 0xFFFFFFFFFFFFFFFFFFFFFFFFFFFFFFFFFFFFFFFF AND DUP2 MSTORE PUSH1 0x20 ADD SWAP1 DUP2 MSTORE PUSH1 0x20 ADD PUSH0 KECCAK256 SLOAD EQ PUSH2 0x51B JUMPI PUSH1 0x40 MLOAD PUSH32 0x8C379A000000000000000000000000000000000000000000000000000000000 DUP2 MSTORE PUSH1 0x4 ADD PUSH2 0x512 SWAP1 PUSH2 0xE25 JUMP JUMPDEST PUSH1 0x40 MLOAD DUP1 SWAP2 SUB SWAP1 REVERT JUMPDEST DUP2 PUSH1 0x1 PUSH0 CALLER PUSH20 0xFFFFFFFFFFFFFFFFFFFFFFFFFFFFFFFFFFFFFFFF AND PUSH20 0xFFFFFFFFFFFFFFFFFFFFFFFFFFFFFFFFFFFFFFFF AND DUP2 MSTORE PUSH1 0x20 ADD SWAP1 DUP2 MSTORE PUSH1 0x20 ADD PUSH0 KECCAK256 SWAP1 DUP2 PUSH2 0x565 SWAP2 SWAP1 PUSH2 0xFE3 JUMP JUMPDEST POP PUSH0 SLOAD PUSH1 0x2 PUSH0 CALLER PUSH20 0xFFFFFFFFFFFFFFFFFFFFFFFFFFFFFFFFFFFFFFFF AND PUSH20 0xFFFFFFFFFFFFFFFFFFFFFFFFFFFFFFFFFFFFFFFF AND DUP2 MSTORE PUSH1 0x20 ADD SWAP1 DUP2 MSTORE PUSH1 0x20 ADD PUSH0 KECCAK256 DUP2 SWAP1 SSTORE POP DUP1 PUSH0 SLOAD PUSH2 0x5B6 SWAP2 SWAP1 PUSH2 0x10DF JUMP JUMPDEST PUSH1 0x3 PUSH0 CALLER PUSH20 0xFFFFFFFFFFFFFFFFFFFFFFFFFFFFFFFFFFFFFFFF AND PUSH20 0xFFFFFFFFFFFFFFFFFFFFFFFFFFFFFFFFFFFFFFFF AND DUP2 MSTORE PUSH1 0x20 ADD SWAP1 DUP2 MSTORE PUSH1 0x20 ADD PUSH0 KECCAK256 DUP2 SWAP1 SSTORE POP PUSH0 PUSH0 DUP2 SLOAD DUP1 SWAP3 SWAP2 SWAP1 PUSH2 0x608 SWAP1 PUSH2 0x1112 JUMP JUMPDEST SWAP2 SWAP1 POP SSTORE POP POP POP JUMP JUMPDEST PUSH1 0x3 PUSH1 0x20 MSTORE DUP1 PUSH0 MSTORE PUSH1 0x40 PUSH0 KECCAK256 PUSH0 SWAP2 POP SWAP1 POP SLOAD DUP2 JUMP JUMPDEST PUSH0 PUSH1 0x60 PUSH0 PUSH2 0x632 PUSH2 0x364 JUMP JUMPDEST PUSH2 0x671 JUMPI PUSH1 0x40 MLOAD PUSH32 0x8C379A000000000000000000000000000000000000000000000000000000000 DUP2 MSTORE PUSH1 0x4 ADD PUSH2 0x668 SWAP1 PUSH2 0xDBD JUMP JUMPDEST PUSH1 0x40 MLOAD DUP1 SWAP2 SUB SWAP1 REVERT JUMPDEST PUSH1 0x2 PUSH0 CALLER PUSH20 0xFFFFFFFFFFFFFFFFFFFFFFFFFFFFFFFFFFFFFFFF AND PUSH20 0xFFFFFFFFFFFFFFFFFFFFFFFFFFFFFFFFFFFFFFFF AND DUP2 MSTORE PUSH1 0x20 ADD SWAP1 DUP2 MSTORE PUSH1 0x20 ADD PUSH0 KECCAK256 SLOAD PUSH1 0x1 PUSH0 CALLER PUSH20 0xFFFFFFFFFFFFFFFFFFFFFFFFFFFFFFFFFFFFFFFF AND PUSH20 0xFFFFFFFFFFFFFFFFFFFFFFFFFFFFFFFFFFFFFFFF AND DUP2 MSTORE PUSH1 0x20 ADD SWAP1 DUP2 MSTORE PUSH1 0x20 ADD PUSH0 KECCAK256 PUSH1 0x3 PUSH0 CALLER PUSH20 0xFFFFFFFFFFFFFFFFFFFFFFFFFFFFFFFFFFFFFFFF AND PUSH20 0xFFFFFFFFFFFFFFFFFFFFFFFFFFFFFFFFFFFFFFFF AND DUP2 MSTORE PUSH1 0x20 ADD SWAP1 DUP2 MSTORE PUSH1 0x20 ADD PUSH0 KECCAK256 SLOAD DUP2 DUP1 SLOAD PUSH2 0x736 SWAP1 PUSH2 0xD43 JUMP JUMPDEST DUP1 PUSH1 0x1F ADD PUSH1 0x20 DUP1 SWAP2 DIV MUL PUSH1 0x20 ADD PUSH1 0x40 MLOAD SWAP1 DUP2 ADD PUSH1 0x40 MSTORE DUP1 SWAP3 SWAP2 SWAP1 DUP2 DUP2 MSTORE PUSH1 0x20 ADD DUP3 DUP1 SLOAD PUSH2 0x762 SWAP1 PUSH2 0xD43 JUMP JUMPDEST DUP1 ISZERO PUSH2 0x7AD JUMPI DUP1 PUSH1 0x1F LT PUSH2 0x784 JUMPI PUSH2 0x100 DUP1 DUP4 SLOAD DIV MUL DUP4 MSTORE SWAP2 PUSH1 0x20 ADD SWAP2 PUSH2 0x7AD JUMP JUMPDEST DUP3 ADD SWAP2 SWAP1 PUSH0 MSTORE PUSH1 0x20 PUSH0 KECCAK256 SWAP1 JUMPDEST DUP2 SLOAD DUP2 MSTORE SWAP1 PUSH1 0x1 ADD SWAP1 PUSH1 0x20 ADD DUP1 DUP4 GT PUSH2 0x790 JUMPI DUP3 SWAP1 SUB PUSH1 0x1F AND DUP3 ADD SWAP2 JUMPDEST POP POP POP POP POP SWAP2 POP SWAP3 POP SWAP3 POP SWAP3 POP SWAP1 SWAP2 SWAP3 JUMP JUMPDEST PUSH1 0x4 PUSH1 0x20 MSTORE DUP2 PUSH0 MSTORE PUSH1 0x40 PUSH0 KECCAK256 DUP2 DUP2 SLOAD DUP2 LT PUSH2 0x7D8 JUMPI PUSH0 DUP1 REVERT JUMPDEST SWAP1 PUSH0 MSTORE PUSH1 0x20 PUSH0 KECCAK256 SWAP1 PUSH1 0x20 SWAP2 DUP3 DUP3 DIV ADD SWAP2 SWAP1 MOD SWAP2 POP SWAP2 POP SWAP1 SLOAD SWAP1 PUSH2 0x100 EXP SWAP1 DIV PUSH1 0xFF AND DUP2 JUMP JUMPDEST PUSH0 PUSH2 0x806 PUSH2 0x364 JUMP JUMPDEST PUSH2 0x845 JUMPI PUSH1 0x40 MLOAD PUSH32 0x8C379A000000000000000000000000000000000000000000000000000000000 DUP2 MSTORE PUSH1 0x4 ADD PUSH2 0x83C SWAP1 PUSH2 0xDBD JUMP JUMPDEST PUSH1 0x40 MLOAD DUP1 SWAP2 SUB SWAP1 REVERT JUMPDEST PUSH1 0x3 PUSH0 CALLER PUSH20 0xFFFFFFFFFFFFFFFFFFFFFFFFFFFFFFFFFFFFFFFF AND PUSH20 0xFFFFFFFFFFFFFFFFFFFFFFFFFFFFFFFFFFFFFFFF AND DUP2 MSTORE PUSH1 0x20 ADD SWAP1 DUP2 MSTORE PUSH1 0x20 ADD PUSH0 KECCAK256 SLOAD SWAP1 POP SWAP1 JUMP JUMPDEST PUSH0 PUSH1 0x40 MLOAD SWAP1 POP SWAP1 JUMP JUMPDEST PUSH0 PUSH0 REVERT JUMPDEST PUSH0 PUSH0 REVERT JUMPDEST PUSH0 PUSH20 0xFFFFFFFFFFFFFFFFFFFFFFFFFFFFFFFFFFFFFFFF DUP3 AND SWAP1 POP SWAP2 SWAP1 POP JUMP JUMPDEST PUSH0 PUSH2 0x8C2 DUP3 PUSH2 0x899 JUMP JUMPDEST SWAP1 POP SWAP2 SWAP1 POP JUMP JUMPDEST PUSH2 0x8D2 DUP2 PUSH2 0x8B8 JUMP JUMPDEST DUP2 EQ PUSH2 0x8DC JUMPI PUSH0 PUSH0 REVERT JUMPDEST POP JUMP JUMPDEST PUSH0 DUP2 CALLDATALOAD SWAP1 POP PUSH2 0x8ED DUP2 PUSH2 0x8C9 JUMP JUMPDEST SWAP3 SWAP2 POP POP JUMP JUMPDEST PUSH0 PUSH1 0x20 DUP3 DUP5 SUB SLT ISZERO PUSH2 0x908 JUMPI PUSH2 0x907 PUSH2 0x891 JUMP JUMPDEST JUMPDEST PUSH0 PUSH2 0x915 DUP5 DUP3 DUP6 ADD PUSH2 0x8DF JUMP JUMPDEST SWAP2 POP POP SWAP3 SWAP2 POP POP JUMP JUMPDEST PUSH0 DUP2 MLOAD SWAP1 POP SWAP2 SWAP1 POP JUMP JUMPDEST PUSH0 DUP3 DUP3 MSTORE PUSH1 0x20 DUP3 ADD SWAP1 POP SWAP3 SWAP2 POP POP JUMP JUMPDEST DUP3 DUP2 DUP4 MCOPY PUSH0 DUP4 DUP4 ADD MSTORE POP POP POP JUMP JUMPDEST PUSH0 PUSH1 0x1F NOT PUSH1 0x1F DUP4 ADD AND SWAP1 POP SWAP2 SWAP1 POP JUMP JUMPDEST PUSH0 PUSH2 0x960 DUP3 PUSH2 0x91E JUMP JUMPDEST PUSH2 0x96A DUP2 DUP6 PUSH2 0x928 JUMP JUMPDEST SWAP4 POP PUSH2 0x97A DUP2 DUP6 PUSH1 0x20 DUP7 ADD PUSH2 0x938 JUMP JUMPDEST PUSH2 0x983 DUP2 PUSH2 0x946 JUMP JUMPDEST DUP5 ADD SWAP2 POP POP SWAP3 SWAP2 POP POP JUMP JUMPDEST PUSH0 PUSH1 0x20 DUP3 ADD SWAP1 POP DUP2 DUP2 SUB PUSH0 DUP4 ADD MSTORE PUSH2 0x9A6 DUP2 DUP5 PUSH2 0x956 JUMP JUMPDEST SWAP1 POP SWAP3 SWAP2 POP POP JUMP JUMPDEST PUSH0 DUP2 SWAP1 POP SWAP2 SWAP1 POP JUMP JUMPDEST PUSH2 0x9C0 DUP2 PUSH2 0x9AE JUMP JUMPDEST DUP3 MSTORE POP POP JUMP JUMPDEST PUSH0 PUSH1 0x20 DUP3 ADD SWAP1 POP PUSH2 0x9D9 PUSH0 DUP4 ADD DUP5 PUSH2 0x9B7 JUMP JUMPDEST SWAP3 SWAP2 POP POP JUMP JUMPDEST PUSH0 DUP2 ISZERO ISZERO SWAP1 POP SWAP2 SWAP1 POP JUMP JUMPDEST PUSH2 0x9F3 DUP2 PUSH2 0x9DF JUMP JUMPDEST DUP3 MSTORE POP POP JUMP JUMPDEST PUSH0 PUSH1 0x20 DUP3 ADD SWAP1 POP PUSH2 0xA0C PUSH0 DUP4 ADD DUP5 PUSH2 0x9EA JUMP JUMPDEST SWAP3 SWAP2 POP POP JUMP JUMPDEST PUSH1 0x5 DUP2 LT PUSH2 0xA1E JUMPI PUSH0 PUSH0 REVERT JUMPDEST POP JUMP JUMPDEST PUSH0 DUP2 CALLDATALOAD SWAP1 POP PUSH2 0xA2F DUP2 PUSH2 0xA12 JUMP JUMPDEST SWAP3 SWAP2 POP POP JUMP JUMPDEST PUSH0 PUSH1 0x20 DUP3 DUP5 SUB SLT ISZERO PUSH2 0xA4A JUMPI PUSH2 0xA49 PUSH2 0x891 JUMP JUMPDEST JUMPDEST PUSH0 PUSH2 0xA57 DUP5 DUP3 DUP6 ADD PUSH2 0xA21 JUMP JUMPDEST SWAP2 POP POP SWAP3 SWAP2 POP POP JUMP JUMPDEST PUSH0 PUSH0 REVERT JUMPDEST PUSH0 PUSH0 REVERT JUMPDEST PUSH32 0x4E487B7100000000000000000000000000000000000000000000000000000000 PUSH0 MSTORE PUSH1 0x41 PUSH1 0x4 MSTORE PUSH1 0x24 PUSH0 REVERT JUMPDEST PUSH2 0xA9E DUP3 PUSH2 0x946 JUMP JUMPDEST DUP2 ADD DUP2 DUP2 LT PUSH8 0xFFFFFFFFFFFFFFFF DUP3 GT OR ISZERO PUSH2 0xABD JUMPI PUSH2 0xABC PUSH2 0xA68 JUMP JUMPDEST JUMPDEST DUP1 PUSH1 0x40 MSTORE POP POP POP JUMP JUMPDEST PUSH0 PUSH2 0xACF PUSH2 0x888 JUMP JUMPDEST SWAP1 POP PUSH2 0xADB DUP3 DUP3 PUSH2 0xA95 JUMP JUMPDEST SWAP2 SWAP1 POP JUMP JUMPDEST PUSH0 PUSH8 0xFFFFFFFFFFFFFFFF DUP3 GT ISZERO PUSH2 0xAFA JUMPI PUSH2 0xAF9 PUSH2 0xA68 JUMP JUMPDEST JUMPDEST PUSH2 0xB03 DUP3 PUSH2 0x946 JUMP JUMPDEST SWAP1 POP PUSH1 0x20 DUP2 ADD SWAP1 POP SWAP2 SWAP1 POP JUMP JUMPDEST DUP3 DUP2 DUP4 CALLDATACOPY PUSH0 DUP4 DUP4 ADD MSTORE POP POP POP JUMP JUMPDEST PUSH0 PUSH2 0xB30 PUSH2 0xB2B DUP5 PUSH2 0xAE0 JUMP JUMPDEST PUSH2 0xAC6 JUMP JUMPDEST SWAP1 POP DUP3 DUP2 MSTORE PUSH1 0x20 DUP2 ADD DUP5 DUP5 DUP5 ADD GT ISZERO PUSH2 0xB4C JUMPI PUSH2 0xB4B PUSH2 0xA64 JUMP JUMPDEST JUMPDEST PUSH2 0xB57 DUP5 DUP3 DUP6 PUSH2 0xB10 JUMP JUMPDEST POP SWAP4 SWAP3 POP POP POP JUMP JUMPDEST PUSH0 DUP3 PUSH1 0x1F DUP4 ADD SLT PUSH2 0xB73 JUMPI PUSH2 0xB72 PUSH2 0xA60 JUMP JUMPDEST JUMPDEST DUP2 CALLDATALOAD PUSH2 0xB83 DUP5 DUP3 PUSH1 0x20 DUP7 ADD PUSH2 0xB1E JUMP JUMPDEST SWAP2 POP POP SWAP3 SWAP2 POP POP JUMP JUMPDEST PUSH2 0xB95 DUP2 PUSH2 0x9AE JUMP JUMPDEST DUP2 EQ PUSH2 0xB9F JUMPI PUSH0 PUSH0 REVERT JUMPDEST POP JUMP JUMPDEST PUSH0 DUP2 CALLDATALOAD SWAP1 POP PUSH2 0xBB0 DUP2 PUSH2 0xB8C JUMP JUMPDEST SWAP3 SWAP2 POP POP JUMP JUMPDEST PUSH0 PUSH0 PUSH1 0x40 DUP4 DUP6 SUB SLT ISZERO PUSH2 0xBCC JUMPI PUSH2 0xBCB PUSH2 0x891 JUMP JUMPDEST JUMPDEST PUSH0 DUP4 ADD CALLDATALOAD PUSH8 0xFFFFFFFFFFFFFFFF DUP2 GT ISZERO PUSH2 0xBE9 JUMPI PUSH2 0xBE8 PUSH2 0x895 JUMP JUMPDEST JUMPDEST PUSH2 0xBF5 DUP6 DUP3 DUP7 ADD PUSH2 0xB5F JUMP JUMPDEST SWAP3 POP POP PUSH1 0x20 PUSH2 0xC06 DUP6 DUP3 DUP7 ADD PUSH2 0xBA2 JUMP JUMPDEST SWAP2 POP POP SWAP3 POP SWAP3 SWAP1 POP JUMP JUMPDEST PUSH0 PUSH1 0x60 DUP3 ADD SWAP1 POP PUSH2 0xC23 PUSH0 DUP4 ADD DUP7 PUSH2 0x9B7 JUMP JUMPDEST DUP2 DUP2 SUB PUSH1 0x20 DUP4 ADD MSTORE PUSH2 0xC35 DUP2 DUP6 PUSH2 0x956 JUMP JUMPDEST SWAP1 POP PUSH2 0xC44 PUSH1 0x40 DUP4 ADD DUP5 PUSH2 0x9B7 JUMP JUMPDEST SWAP5 SWAP4 POP POP POP POP JUMP JUMPDEST PUSH0 PUSH0 PUSH1 0x40 DUP4 DUP6 SUB SLT ISZERO PUSH2 0xC62 JUMPI PUSH2 0xC61 PUSH2 0x891 JUMP JUMPDEST JUMPDEST PUSH0 PUSH2 0xC6F DUP6 DUP3 DUP7 ADD PUSH2 0x8DF JUMP JUMPDEST SWAP3 POP POP PUSH1 0x20 PUSH2 0xC80 DUP6 DUP3 DUP7 ADD PUSH2 0xBA2 JUMP JUMPDEST SWAP2 POP POP SWAP3 POP SWAP3 SWAP1 POP JUMP JUMPDEST PUSH32 0x4E487B7100000000000000000000000000000000000000000000000000000000 PUSH0 MSTORE PUSH1 0x21 PUSH1 0x4 MSTORE PUSH1 0x24 PUSH0 REVERT JUMPDEST PUSH1 0x5 DUP2 LT PUSH2 0xCC8 JUMPI PUSH2 0xCC7 PUSH2 0xC8A JUMP JUMPDEST JUMPDEST POP JUMP JUMPDEST PUSH0 DUP2 SWAP1 POP PUSH2 0xCD8 DUP3 PUSH2 0xCB7 JUMP JUMPDEST SWAP2 SWAP1 POP JUMP JUMPDEST PUSH0 PUSH2 0xCE7 DUP3 PUSH2 0xCCB JUMP JUMPDEST SWAP1 POP SWAP2 SWAP1 POP JUMP JUMPDEST PUSH2 0xCF7 DUP2 PUSH2 0xCDD JUMP JUMPDEST DUP3 MSTORE POP POP JUMP JUMPDEST PUSH0 PUSH1 0x20 DUP3 ADD SWAP1 POP PUSH2 0xD10 PUSH0 DUP4 ADD DUP5 PUSH2 0xCEE JUMP JUMPDEST SWAP3 SWAP2 POP POP JUMP JUMPDEST PUSH32 0x4E487B7100000000000000000000000000000000000000000000000000000000 PUSH0 MSTORE PUSH1 0x22 PUSH1 0x4 MSTORE PUSH1 0x24 PUSH0 REVERT JUMPDEST PUSH0 PUSH1 0x2 DUP3 DIV SWAP1 POP PUSH1 0x1 DUP3 AND DUP1 PUSH2 0xD5A JUMPI PUSH1 0x7F DUP3 AND SWAP2 POP JUMPDEST PUSH1 0x20 DUP3 LT DUP2 SUB PUSH2 0xD6D JUMPI PUSH2 0xD6C PUSH2 0xD16 JUMP JUMPDEST JUMPDEST POP SWAP2 SWAP1 POP JUMP JUMPDEST PUSH32 0x55736572206E6F74207265676973746572656400000000000000000000000000 PUSH0 DUP3 ADD MSTORE POP JUMP JUMPDEST PUSH0 PUSH2 0xDA7 PUSH1 0x13 DUP4 PUSH2 0x928 JUMP JUMPDEST SWAP2 POP PUSH2 0xDB2 DUP3 PUSH2 0xD73 JUMP JUMPDEST PUSH1 0x20 DUP3 ADD SWAP1 POP SWAP2 SWAP1 POP JUMP JUMPDEST PUSH0 PUSH1 0x20 DUP3 ADD SWAP1 POP DUP2 DUP2 SUB PUSH0 DUP4 ADD MSTORE PUSH2 0xDD4 DUP2 PUSH2 0xD9B JUMP JUMPDEST SWAP1 POP SWAP2 SWAP1 POP JUMP JUMPDEST PUSH32 0x5573657220616C72656164792072656769737465726564000000000000000000 PUSH0 DUP3 ADD MSTORE POP JUMP JUMPDEST PUSH0 PUSH2 0xE0F PUSH1 0x17 DUP4 PUSH2 0x928 JUMP JUMPDEST SWAP2 POP PUSH2 0xE1A DUP3 PUSH2 0xDDB JUMP JUMPDEST PUSH1 0x20 DUP3 ADD SWAP1 POP SWAP2 SWAP1 POP JUMP JUMPDEST PUSH0 PUSH1 0x20 DUP3 ADD SWAP1 POP DUP2 DUP2 SUB PUSH0 DUP4 ADD MSTORE PUSH2 0xE3C DUP2 PUSH2 0xE03 JUMP JUMPDEST SWAP1 POP SWAP2 SWAP1 POP JUMP JUMPDEST PUSH0 DUP2 SWAP1 POP DUP2 PUSH0 MSTORE PUSH1 0x20 PUSH0 KECCAK256 SWAP1 POP SWAP2 SWAP1 POP JUMP JUMPDEST PUSH0 PUSH1 0x20 PUSH1 0x1F DUP4 ADD DIV SWAP1 POP SWAP2 SWAP1 POP JUMP JUMPDEST PUSH0 DUP3 DUP3 SHL SWAP1 POP SWAP3 SWAP2 POP POP JUMP JUMPDEST PUSH0 PUSH1 0x8 DUP4 MUL PUSH2 0xE9F PUSH32 0xFFFFFFFFFFFFFFFFFFFFFFFFFFFFFFFFFFFFFFFFFFFFFFFFFFFFFFFFFFFFFFFF DUP3 PUSH2 0xE64 JUMP JUMPDEST PUSH2 0xEA9 DUP7 DUP4 PUSH2 0xE64 JUMP JUMPDEST SWAP6 POP DUP1 NOT DUP5 AND SWAP4 POP DUP1 DUP7 AND DUP5 OR SWAP3 POP POP POP SWAP4 SWAP3 POP POP POP JUMP JUMPDEST PUSH0 DUP2 SWAP1 POP SWAP2 SWAP1 POP JUMP JUMPDEST PUSH0 PUSH2 0xEE4 PUSH2 0xEDF PUSH2 0xEDA DUP5 PUSH2 0x9AE JUMP JUMPDEST PUSH2 0xEC1 JUMP JUMPDEST PUSH2 0x9AE JUMP JUMPDEST SWAP1 POP SWAP2 SWAP1 POP JUMP JUMPDEST PUSH0 DUP2 SWAP1 POP SWAP2 SWAP1 POP JUMP JUMPDEST PUSH2 0xEFD DUP4 PUSH2 0xECA JUMP JUMPDEST PUSH2 0xF11 PUSH2 0xF09 DUP3 PUSH2 0xEEB JUMP JUMPDEST DUP5 DUP5 SLOAD PUSH2 0xE70 JUMP JUMPDEST DUP3 SSTORE POP POP POP POP JUMP JUMPDEST PUSH0 PUSH0 SWAP1 POP SWAP1 JUMP JUMPDEST PUSH2 0xF28 PUSH2 0xF19 JUMP JUMPDEST PUSH2 0xF33 DUP2 DUP5 DUP5 PUSH2 0xEF4 JUMP JUMPDEST POP POP POP JUMP JUMPDEST JUMPDEST DUP2 DUP2 LT ISZERO PUSH2 0xF56 JUMPI PUSH2 0xF4B PUSH0 DUP3 PUSH2 0xF20 JUMP JUMPDEST PUSH1 0x1 DUP2 ADD SWAP1 POP PUSH2 0xF39 JUMP JUMPDEST POP POP JUMP JUMPDEST PUSH1 0x1F DUP3 GT ISZERO PUSH2 0xF9B JUMPI PUSH2 0xF6C DUP2 PUSH2 0xE43 JUMP JUMPDEST PUSH2 0xF75 DUP5 PUSH2 0xE55 JUMP JUMPDEST DUP2 ADD PUSH1 0x20 DUP6 LT ISZERO PUSH2 0xF84 JUMPI DUP2 SWAP1 POP JUMPDEST PUSH2 0xF98 PUSH2 0xF90 DUP6 PUSH2 0xE55 JUMP JUMPDEST DUP4 ADD DUP3 PUSH2 0xF38 JUMP JUMPDEST POP POP JUMPDEST POP POP POP JUMP JUMPDEST PUSH0 DUP3 DUP3 SHR SWAP1 POP SWAP3 SWAP2 POP POP JUMP JUMPDEST PUSH0 PUSH2 0xFBB PUSH0 NOT DUP5 PUSH1 0x8 MUL PUSH2 0xFA0 JUMP JUMPDEST NOT DUP1 DUP4 AND SWAP2 POP POP SWAP3 SWAP2 POP POP JUMP JUMPDEST PUSH0 PUSH2 0xFD3 DUP4 DUP4 PUSH2 0xFAC JUMP JUMPDEST SWAP2 POP DUP3 PUSH1 0x2 MUL DUP3 OR SWAP1 POP SWAP3 SWAP2 POP POP JUMP JUMPDEST PUSH2 0xFEC DUP3 PUSH2 0x91E JUMP JUMPDEST PUSH8 0xFFFFFFFFFFFFFFFF DUP2 GT ISZERO PUSH2 0x1005 JUMPI PUSH2 0x1004 PUSH2 0xA68 JUMP JUMPDEST JUMPDEST PUSH2 0x100F DUP3 SLOAD PUSH2 0xD43 JUMP JUMPDEST PUSH2 0x101A DUP3 DUP3 DUP6 PUSH2 0xF5A JUMP JUMPDEST PUSH0 PUSH1 0x20 SWAP1 POP PUSH1 0x1F DUP4 GT PUSH1 0x1 DUP2 EQ PUSH2 0x104B JUMPI PUSH0 DUP5 ISZERO PUSH2 0x1039 JUMPI DUP3 DUP8 ADD MLOAD SWAP1 POP JUMPDEST PUSH2 0x1043 DUP6 DUP3 PUSH2 0xFC8 JUMP JUMPDEST DUP7 SSTORE POP PUSH2 0x10AA JUMP JUMPDEST PUSH1 0x1F NOT DUP5 AND PUSH2 0x1059 DUP7 PUSH2 0xE43 JUMP JUMPDEST PUSH0 JUMPDEST DUP3 DUP2 LT ISZERO PUSH2 0x1080 JUMPI DUP5 DUP10 ADD MLOAD DUP3 SSTORE PUSH1 0x1 DUP3 ADD SWAP2 POP PUSH1 0x20 DUP6 ADD SWAP5 POP PUSH1 0x20 DUP2 ADD SWAP1 POP PUSH2 0x105B JUMP JUMPDEST DUP7 DUP4 LT ISZERO PUSH2 0x109D JUMPI DUP5 DUP10 ADD MLOAD PUSH2 0x1099 PUSH1 0x1F DUP10 AND DUP3 PUSH2 0xFAC JUMP JUMPDEST DUP4 SSTORE POP JUMPDEST PUSH1 0x1 PUSH1 0x2 DUP9 MUL ADD DUP9 SSTORE POP POP POP JUMPDEST POP POP POP POP POP POP JUMP JUMPDEST PUSH32 0x4E487B7100000000000000000000000000000000000000000000000000000000 PUSH0 MSTORE PUSH1 0x11 PUSH1 0x4 MSTORE PUSH1 0x24 PUSH0 REVERT JUMPDEST PUSH0 PUSH2 0x10E9 DUP3 PUSH2 0x9AE JUMP JUMPDEST SWAP2 POP PUSH2 0x10F4 DUP4 PUSH2 0x9AE JUMP JUMPDEST SWAP3 POP DUP3 DUP3 ADD SWAP1 POP DUP1 DUP3 GT ISZERO PUSH2 0x110C JUMPI PUSH2 0x110B PUSH2 0x10B2 JUMP JUMPDEST JUMPDEST SWAP3 SWAP2 POP POP JUMP JUMPDEST PUSH0 PUSH2 0x111C DUP3 PUSH2 0x9AE JUMP JUMPDEST SWAP2 POP PUSH32 0xFFFFFFFFFFFFFFFFFFFFFFFFFFFFFFFFFFFFFFFFFFFFFFFFFFFFFFFFFFFFFFFF DUP3 SUB PUSH2 0x114E JUMPI PUSH2 0x114D PUSH2 0x10B2 JUMP JUMPDEST JUMPDEST PUSH1 0x1 DUP3 ADD SWAP1 POP SWAP2 SWAP1 POP JUMP INVALID LOG2 PUSH5 0x6970667358 0x22 SLT KECCAK256 0xB0 0xC7 PUSH9 0xC3CFE4D048D82B4A29 0xD1 DUP12 DUP12 0xC9 0xEC SWAP15 0xB0 SLOAD MSTORE8 0x2D COINBASE 0xFB 0xE7 0xBE 0xDB SGT 0xD6 0xAC 0xD SWAP7 PUSH5 0x736F6C6343 STOP ADDMOD SHL STOP CALLER "
				},
				"gasEstimates": {
					"creation": {
						"codeDepositCost": "899000",
						"executionCost": "23038",
						"totalCost": "922038"
					},
					"external": {
						"anonymousIds(address)": "2846",
						"bookTicket(uint8)": "53006",
						"createAccount(string,uint256)": "infinite",
						"getAnonymousId()": "4875",
						"getTicketCount()": "4796",
						"getUserDetails()": "infinite",
						"isRegistered()": "2578",
						"userIdCounter()": "2491",
						"userIds(address)": "2802",
						"userTicket(address,uint256)": "6992",
						"username(address)": "infinite"
					}
				},
				"methodIdentifiers": {
					"anonymousIds(address)": "837d05f0",
					"bookTicket(uint8)": "3bc98d0a",
					"createAccount(string,uint256)": "6586ace6",
					"getAnonymousId()": "e11f6d13",
					"getTicketCount()": "21c63a47",
					"getUserDetails()": "942886be",
					"isRegistered()": "22366844",
					"userIdCounter()": "2faba6ae",
					"userIds(address)": "4081db51",
					"userTicket(address,uint256)": "94a3c428",
					"username(address)": "0610a7a2"
				}
			},
			"storageLayout": {
				"storage": [
					{
						"astId": 10,
						"contract": "solidity_series.sol/lecturelabs.sol/lab_bookingsite.sol:BookingSite",
						"label": "userIdCounter",
						"offset": 0,
						"slot": "0",
						"type": "t_uint256"
					},
					{
						"astId": 14,
						"contract": "solidity_series.sol/lecturelabs.sol/lab_bookingsite.sol:BookingSite",
						"label": "username",
						"offset": 0,
						"slot": "1",
						"type": "t_mapping(t_address,t_string_storage)"
					},
					{
						"astId": 18,
						"contract": "solidity_series.sol/lecturelabs.sol/lab_bookingsite.sol:BookingSite",
						"label": "userIds",
						"offset": 0,
						"slot": "2",
						"type": "t_mapping(t_address,t_uint256)"
					},
					{
						"astId": 22,
						"contract": "solidity_series.sol/lecturelabs.sol/lab_bookingsite.sol:BookingSite",
						"label": "anonymousIds",
						"offset": 0,
						"slot": "3",
						"type": "t_mapping(t_address,t_uint256)"
					},
					{
						"astId": 28,
						"contract": "solidity_series.sol/lecturelabs.sol/lab_bookingsite.sol:BookingSite",
						"label": "userTicket",
						"offset": 0,
						"slot": "4",
						"type": "t_mapping(t_address,t_array(t_enum(BookingType)7)dyn_storage)"
					}
				],
				"types": {
					"t_address": {
						"encoding": "inplace",
						"label": "address",
						"numberOfBytes": "20"
					},
					"t_array(t_enum(BookingType)7)dyn_storage": {
						"base": "t_enum(BookingType)7",
						"encoding": "dynamic_array",
						"label": "enum BookingSite.BookingType[]",
						"numberOfBytes": "32"
					},
					"t_enum(BookingType)7": {
						"encoding": "inplace",
						"label": "enum BookingSite.BookingType",
						"numberOfBytes": "1"
					},
					"t_mapping(t_address,t_array(t_enum(BookingType)7)dyn_storage)": {
						"encoding": "mapping",
						"key": "t_address",
						"label": "mapping(address => enum BookingSite.BookingType[])",
						"numberOfBytes": "32",
						"value": "t_array(t_enum(BookingType)7)dyn_storage"
					},
					"t_mapping(t_address,t_string_storage)": {
						"encoding": "mapping",
						"key": "t_address",
						"label": "mapping(address => string)",
						"numberOfBytes": "32",
						"value": "t_string_storage"
					},
					"t_mapping(t_address,t_uint256)": {
						"encoding": "mapping",
						"key": "t_address",
						"label": "mapping(address => uint256)",
						"numberOfBytes": "32",
						"value": "t_uint256"
					},
					"t_string_storage": {
						"encoding": "bytes",
						"label": "string",
						"numberOfBytes": "32"
					},
					"t_uint256": {
						"encoding": "inplace",
						"label": "uint256",
						"numberOfBytes": "32"
					}
				}
			},
			"userdoc": {
				"kind": "user",
				"methods": {},
				"version": 1
			}
		}
	}
}