{
	"solidity_series.sol/lecturelabs.sol/lab6voting_contract.sol": {
		"Voting": {
			"abi": [
				{
					"inputs": [
						{
							"internalType": "string[]",
							"name": "_candidates",
							"type": "string[]"
						}
					],
					"stateMutability": "nonpayable",
					"type": "constructor"
				},
				{
					"inputs": [
						{
							"internalType": "uint256",
							"name": "",
							"type": "uint256"
						}
					],
					"name": "candidates",
					"outputs": [
						{
							"internalType": "string",
							"name": "",
							"type": "string"
						}
					],
					"stateMutability": "view",
					"type": "function"
				},
				{
					"inputs": [],
					"name": "endVoting",
					"outputs": [],
					"stateMutability": "nonpayable",
					"type": "function"
				},
				{
					"inputs": [
						{
							"internalType": "string",
							"name": "candidate",
							"type": "string"
						}
					],
					"name": "getTotalVotes",
					"outputs": [
						{
							"internalType": "uint256",
							"name": "",
							"type": "uint256"
						}
					],
					"stateMutability": "view",
					"type": "function"
				},
				{
					"inputs": [],
					"name": "getVotingResults",
					"outputs": [
						{
							"internalType": "string[]",
							"name": "",
							"type": "string[]"
						},
						{
							"internalType": "uint256[]",
							"name": "",
							"type": "uint256[]"
						}
					],
					"stateMutability": "view",
					"type": "function"
				},
				{
					"inputs": [
						{
							"internalType": "string",
							"name": "candidate",
							"type": "string"
						}
					],
					"name": "isValidCandidate",
					"outputs": [
						{
							"internalType": "bool",
							"name": "",
							"type": "bool"
						}
					],
					"stateMutability": "view",
					"type": "function"
				},
				{
					"inputs": [],
					"name": "owner",
					"outputs": [
						{
							"internalType": "address",
							"name": "",
							"type": "address"
						}
					],
					"stateMutability": "view",
					"type": "function"
				},
				{
					"inputs": [],
					"name": "startVoting",
					"outputs": [],
					"stateMutability": "nonpayable",
					"type": "function"
				},
				{
					"inputs": [],
					"name": "status",
					"outputs": [
						{
							"internalType": "enum Voting.VotingStatus",
							"name": "",
							"type": "uint8"
						}
					],
					"stateMutability": "view",
					"type": "function"
				},
				{
					"inputs": [
						{
							"internalType": "string",
							"name": "candidate",
							"type": "string"
						}
					],
					"name": "vote",
					"outputs": [],
					"stateMutability": "nonpayable",
					"type": "function"
				},
				{
					"inputs": [
						{
							"internalType": "address",
							"name": "",
							"type": "address"
						}
					],
					"name": "voters",
					"outputs": [
						{
							"internalType": "bool",
							"name": "",
							"type": "bool"
						}
					],
					"stateMutability": "view",
					"type": "function"
				},
				{
					"inputs": [
						{
							"internalType": "string",
							"name": "",
							"type": "string"
						}
					],
					"name": "votesReceived",
					"outputs": [
						{
							"internalType": "uint256",
							"name": "",
							"type": "uint256"
						}
					],
					"stateMutability": "view",
					"type": "function"
				}
			],
			"devdoc": {
				"kind": "dev",
				"methods": {},
				"version": 1
			},
			"evm": {
				"assembly": "    /* \"solidity_series.sol/lecturelabs.sol/lab6voting_contract.sol\":60:2563  contract Voting {... */\n  mstore(0x40, 0x80)\n    /* \"solidity_series.sol/lecturelabs.sol/lab6voting_contract.sol\":427:674  constructor(string[] memory _candidates) {... */\n  callvalue\n  dup1\n  iszero\n  tag_1\n  jumpi\n  revert(0x00, 0x00)\ntag_1:\n  pop\n  mload(0x40)\n  sub(codesize, bytecodeSize)\n  dup1\n  bytecodeSize\n  dup4\n  codecopy\n  dup2\n  dup2\n  add\n  0x40\n  mstore\n  dup2\n  add\n  swap1\n  tag_2\n  swap2\n  swap1\n  tag_3\n  jump\t// in\ntag_2:\n    /* \"solidity_series.sol/lecturelabs.sol/lab6voting_contract.sol\":487:497  msg.sender */\n  caller\n    /* \"solidity_series.sol/lecturelabs.sol/lab6voting_contract.sol\":479:484  owner */\n  0x00\n  0x00\n    /* \"solidity_series.sol/lecturelabs.sol/lab6voting_contract.sol\":479:497  owner = msg.sender */\n  0x0100\n  exp\n  dup2\n  sload\n  dup2\n  0xffffffffffffffffffffffffffffffffffffffff\n  mul\n  not\n  and\n  swap1\n  dup4\n  0xffffffffffffffffffffffffffffffffffffffff\n  and\n  mul\n  or\n  swap1\n  sstore\n  pop\n    /* \"solidity_series.sol/lecturelabs.sol/lab6voting_contract.sol\":553:572  VotingStatus.Closed */\n  0x01\n    /* \"solidity_series.sol/lecturelabs.sol/lab6voting_contract.sol\":544:550  status */\n  0x00\n  0x14\n    /* \"solidity_series.sol/lecturelabs.sol/lab6voting_contract.sol\":544:572  status = VotingStatus.Closed */\n  0x0100\n  exp\n  dup2\n  sload\n  dup2\n  0xff\n  mul\n  not\n  and\n  swap1\n  dup4\n  0x01\n  dup2\n  gt\n  iszero\n  tag_6\n  jumpi\n  tag_7\n  tag_8\n  jump\t// in\ntag_7:\ntag_6:\n  mul\n  or\n  swap1\n  sstore\n  pop\n    /* \"solidity_series.sol/lecturelabs.sol/lab6voting_contract.sol\":633:644  _candidates */\n  dup1\n    /* \"solidity_series.sol/lecturelabs.sol/lab6voting_contract.sol\":620:630  candidates */\n  0x01\n    /* \"solidity_series.sol/lecturelabs.sol/lab6voting_contract.sol\":620:644  candidates = _candidates */\n  swap1\n  dup1\n  mload\n  swap1\n  0x20\n  add\n  swap1\n  tag_9\n  swap3\n  swap2\n  swap1\n  tag_10\n  jump\t// in\ntag_9:\n  pop\n    /* \"solidity_series.sol/lecturelabs.sol/lab6voting_contract.sol\":427:674  constructor(string[] memory _candidates) {... */\n  pop\n    /* \"solidity_series.sol/lecturelabs.sol/lab6voting_contract.sol\":60:2563  contract Voting {... */\n  jump(tag_11)\ntag_10:\n  dup3\n  dup1\n  sload\n  dup3\n  dup3\n  sstore\n  swap1\n  0x00\n  mstore\n  keccak256(0x00, 0x20)\n  swap1\n  dup2\n  add\n  swap3\n  dup3\n  iszero\n  tag_12\n  jumpi\n  swap2\n  0x20\n  mul\n  dup3\n  add\ntag_13:\n  dup3\n  dup2\n  gt\n  iszero\n  tag_14\n  jumpi\n  dup3\n  mload\n  dup3\n  swap1\n  dup2\n  tag_15\n  swap2\n  swap1\n  tag_16\n  jump\t// in\ntag_15:\n  pop\n  swap2\n  0x20\n  add\n  swap2\n  swap1\n  0x01\n  add\n  swap1\n  jump(tag_13)\ntag_14:\ntag_12:\n  pop\n  swap1\n  pop\n  tag_17\n  swap2\n  swap1\n  tag_18\n  jump\t// in\ntag_17:\n  pop\n  swap1\n  jump\t// out\ntag_18:\ntag_19:\n  dup1\n  dup3\n  gt\n  iszero\n  tag_20\n  jumpi\n  0x00\n  dup2\n  dup2\n  tag_21\n  swap2\n  swap1\n  tag_22\n  jump\t// in\ntag_21:\n  pop\n  0x01\n  add\n  jump(tag_19)\ntag_20:\n  pop\n  swap1\n  jump\t// out\ntag_22:\n  pop\n  dup1\n  sload\n  tag_23\n  swap1\n  tag_24\n  jump\t// in\ntag_23:\n  0x00\n  dup3\n  sstore\n  dup1\n  0x1f\n  lt\n  tag_26\n  jumpi\n  pop\n  jump(tag_25)\ntag_26:\n  0x1f\n  add\n  0x20\n  swap1\n  div\n  swap1\n  0x00\n  mstore\n  keccak256(0x00, 0x20)\n  swap1\n  dup2\n  add\n  swap1\n  tag_27\n  swap2\n  swap1\n  tag_28\n  jump\t// in\ntag_27:\ntag_25:\n  pop\n  jump\t// out\ntag_28:\ntag_29:\n  dup1\n  dup3\n  gt\n  iszero\n  tag_30\n  jumpi\n  0x00\n  dup2\n  0x00\n  swap1\n  sstore\n  pop\n  0x01\n  add\n  jump(tag_29)\ntag_30:\n  pop\n  swap1\n  jump\t// out\n    /* \"#utility.yul\":7:82   */\ntag_31:\n    /* \"#utility.yul\":40:46   */\n  0x00\n    /* \"#utility.yul\":73:75   */\n  0x40\n    /* \"#utility.yul\":67:76   */\n  mload\n    /* \"#utility.yul\":57:76   */\n  swap1\n  pop\n    /* \"#utility.yul\":7:82   */\n  swap1\n  jump\t// out\n    /* \"#utility.yul\":88:205   */\ntag_32:\n    /* \"#utility.yul\":197:198   */\n  0x00\n    /* \"#utility.yul\":194:195   */\n  0x00\n    /* \"#utility.yul\":187:199   */\n  revert\n    /* \"#utility.yul\":211:328   */\ntag_33:\n    /* \"#utility.yul\":320:321   */\n  0x00\n    /* \"#utility.yul\":317:318   */\n  0x00\n    /* \"#utility.yul\":310:322   */\n  revert\n    /* \"#utility.yul\":334:451   */\ntag_34:\n    /* \"#utility.yul\":443:444   */\n  0x00\n    /* \"#utility.yul\":440:441   */\n  0x00\n    /* \"#utility.yul\":433:445   */\n  revert\n    /* \"#utility.yul\":457:559   */\ntag_35:\n    /* \"#utility.yul\":498:504   */\n  0x00\n    /* \"#utility.yul\":549:551   */\n  0x1f\n    /* \"#utility.yul\":545:552   */\n  not\n    /* \"#utility.yul\":540:542   */\n  0x1f\n    /* \"#utility.yul\":533:538   */\n  dup4\n    /* \"#utility.yul\":529:543   */\n  add\n    /* \"#utility.yul\":525:553   */\n  and\n    /* \"#utility.yul\":515:553   */\n  swap1\n  pop\n    /* \"#utility.yul\":457:559   */\n  swap2\n  swap1\n  pop\n  jump\t// out\n    /* \"#utility.yul\":565:745   */\ntag_36:\n    /* \"#utility.yul\":613:690   */\n  0x4e487b7100000000000000000000000000000000000000000000000000000000\n    /* \"#utility.yul\":610:611   */\n  0x00\n    /* \"#utility.yul\":603:691   */\n  mstore\n    /* \"#utility.yul\":710:714   */\n  0x41\n    /* \"#utility.yul\":707:708   */\n  0x04\n    /* \"#utility.yul\":700:715   */\n  mstore\n    /* \"#utility.yul\":734:738   */\n  0x24\n    /* \"#utility.yul\":731:732   */\n  0x00\n    /* \"#utility.yul\":724:739   */\n  revert\n    /* \"#utility.yul\":751:1032   */\ntag_37:\n    /* \"#utility.yul\":834:861   */\n  tag_74\n    /* \"#utility.yul\":856:860   */\n  dup3\n    /* \"#utility.yul\":834:861   */\n  tag_35\n  jump\t// in\ntag_74:\n    /* \"#utility.yul\":826:832   */\n  dup2\n    /* \"#utility.yul\":822:862   */\n  add\n    /* \"#utility.yul\":964:970   */\n  dup2\n    /* \"#utility.yul\":952:962   */\n  dup2\n    /* \"#utility.yul\":949:971   */\n  lt\n    /* \"#utility.yul\":928:946   */\n  0xffffffffffffffff\n    /* \"#utility.yul\":916:926   */\n  dup3\n    /* \"#utility.yul\":913:947   */\n  gt\n    /* \"#utility.yul\":910:972   */\n  or\n    /* \"#utility.yul\":907:995   */\n  iszero\n  tag_75\n  jumpi\n    /* \"#utility.yul\":975:993   */\n  tag_76\n  tag_36\n  jump\t// in\ntag_76:\n    /* \"#utility.yul\":907:995   */\ntag_75:\n    /* \"#utility.yul\":1015:1025   */\n  dup1\n    /* \"#utility.yul\":1011:1013   */\n  0x40\n    /* \"#utility.yul\":1004:1026   */\n  mstore\n    /* \"#utility.yul\":794:1032   */\n  pop\n    /* \"#utility.yul\":751:1032   */\n  pop\n  pop\n  jump\t// out\n    /* \"#utility.yul\":1038:1167   */\ntag_38:\n    /* \"#utility.yul\":1072:1078   */\n  0x00\n    /* \"#utility.yul\":1099:1119   */\n  tag_78\n  tag_31\n  jump\t// in\ntag_78:\n    /* \"#utility.yul\":1089:1119   */\n  swap1\n  pop\n    /* \"#utility.yul\":1128:1161   */\n  tag_79\n    /* \"#utility.yul\":1156:1160   */\n  dup3\n    /* \"#utility.yul\":1148:1154   */\n  dup3\n    /* \"#utility.yul\":1128:1161   */\n  tag_37\n  jump\t// in\ntag_79:\n    /* \"#utility.yul\":1038:1167   */\n  swap2\n  swap1\n  pop\n  jump\t// out\n    /* \"#utility.yul\":1173:1494   */\ntag_39:\n    /* \"#utility.yul\":1260:1264   */\n  0x00\n    /* \"#utility.yul\":1350:1368   */\n  0xffffffffffffffff\n    /* \"#utility.yul\":1342:1348   */\n  dup3\n    /* \"#utility.yul\":1339:1369   */\n  gt\n    /* \"#utility.yul\":1336:1392   */\n  iszero\n  tag_81\n  jumpi\n    /* \"#utility.yul\":1372:1390   */\n  tag_82\n  tag_36\n  jump\t// in\ntag_82:\n    /* \"#utility.yul\":1336:1392   */\ntag_81:\n    /* \"#utility.yul\":1422:1426   */\n  0x20\n    /* \"#utility.yul\":1414:1420   */\n  dup3\n    /* \"#utility.yul\":1410:1427   */\n  mul\n    /* \"#utility.yul\":1402:1427   */\n  swap1\n  pop\n    /* \"#utility.yul\":1482:1486   */\n  0x20\n    /* \"#utility.yul\":1476:1480   */\n  dup2\n    /* \"#utility.yul\":1472:1487   */\n  add\n    /* \"#utility.yul\":1464:1487   */\n  swap1\n  pop\n    /* \"#utility.yul\":1173:1494   */\n  swap2\n  swap1\n  pop\n  jump\t// out\n    /* \"#utility.yul\":1500:1617   */\ntag_40:\n    /* \"#utility.yul\":1609:1610   */\n  0x00\n    /* \"#utility.yul\":1606:1607   */\n  0x00\n    /* \"#utility.yul\":1599:1611   */\n  revert\n    /* \"#utility.yul\":1623:1740   */\ntag_41:\n    /* \"#utility.yul\":1732:1733   */\n  0x00\n    /* \"#utility.yul\":1729:1730   */\n  0x00\n    /* \"#utility.yul\":1722:1734   */\n  revert\n    /* \"#utility.yul\":1746:2054   */\ntag_42:\n    /* \"#utility.yul\":1808:1812   */\n  0x00\n    /* \"#utility.yul\":1898:1916   */\n  0xffffffffffffffff\n    /* \"#utility.yul\":1890:1896   */\n  dup3\n    /* \"#utility.yul\":1887:1917   */\n  gt\n    /* \"#utility.yul\":1884:1940   */\n  iszero\n  tag_86\n  jumpi\n    /* \"#utility.yul\":1920:1938   */\n  tag_87\n  tag_36\n  jump\t// in\ntag_87:\n    /* \"#utility.yul\":1884:1940   */\ntag_86:\n    /* \"#utility.yul\":1958:1987   */\n  tag_88\n    /* \"#utility.yul\":1980:1986   */\n  dup3\n    /* \"#utility.yul\":1958:1987   */\n  tag_35\n  jump\t// in\ntag_88:\n    /* \"#utility.yul\":1950:1987   */\n  swap1\n  pop\n    /* \"#utility.yul\":2042:2046   */\n  0x20\n    /* \"#utility.yul\":2036:2040   */\n  dup2\n    /* \"#utility.yul\":2032:2047   */\n  add\n    /* \"#utility.yul\":2024:2047   */\n  swap1\n  pop\n    /* \"#utility.yul\":1746:2054   */\n  swap2\n  swap1\n  pop\n  jump\t// out\n    /* \"#utility.yul\":2060:2199   */\ntag_43:\n    /* \"#utility.yul\":2149:2155   */\n  dup3\n    /* \"#utility.yul\":2144:2147   */\n  dup2\n    /* \"#utility.yul\":2139:2142   */\n  dup4\n    /* \"#utility.yul\":2133:2156   */\n  mcopy\n    /* \"#utility.yul\":2190:2191   */\n  0x00\n    /* \"#utility.yul\":2181:2187   */\n  dup4\n    /* \"#utility.yul\":2176:2179   */\n  dup4\n    /* \"#utility.yul\":2172:2188   */\n  add\n    /* \"#utility.yul\":2165:2192   */\n  mstore\n    /* \"#utility.yul\":2060:2199   */\n  pop\n  pop\n  pop\n  jump\t// out\n    /* \"#utility.yul\":2205:2639   */\ntag_44:\n    /* \"#utility.yul\":2294:2299   */\n  0x00\n    /* \"#utility.yul\":2319:2385   */\n  tag_91\n    /* \"#utility.yul\":2335:2384   */\n  tag_92\n    /* \"#utility.yul\":2377:2383   */\n  dup5\n    /* \"#utility.yul\":2335:2384   */\n  tag_42\n  jump\t// in\ntag_92:\n    /* \"#utility.yul\":2319:2385   */\n  tag_38\n  jump\t// in\ntag_91:\n    /* \"#utility.yul\":2310:2385   */\n  swap1\n  pop\n    /* \"#utility.yul\":2408:2414   */\n  dup3\n    /* \"#utility.yul\":2401:2406   */\n  dup2\n    /* \"#utility.yul\":2394:2415   */\n  mstore\n    /* \"#utility.yul\":2446:2450   */\n  0x20\n    /* \"#utility.yul\":2439:2444   */\n  dup2\n    /* \"#utility.yul\":2435:2451   */\n  add\n    /* \"#utility.yul\":2484:2487   */\n  dup5\n    /* \"#utility.yul\":2475:2481   */\n  dup5\n    /* \"#utility.yul\":2470:2473   */\n  dup5\n    /* \"#utility.yul\":2466:2482   */\n  add\n    /* \"#utility.yul\":2463:2488   */\n  gt\n    /* \"#utility.yul\":2460:2572   */\n  iszero\n  tag_93\n  jumpi\n    /* \"#utility.yul\":2491:2570   */\n  tag_94\n  tag_41\n  jump\t// in\ntag_94:\n    /* \"#utility.yul\":2460:2572   */\ntag_93:\n    /* \"#utility.yul\":2581:2633   */\n  tag_95\n    /* \"#utility.yul\":2626:2632   */\n  dup5\n    /* \"#utility.yul\":2621:2624   */\n  dup3\n    /* \"#utility.yul\":2616:2619   */\n  dup6\n    /* \"#utility.yul\":2581:2633   */\n  tag_43\n  jump\t// in\ntag_95:\n    /* \"#utility.yul\":2300:2639   */\n  pop\n    /* \"#utility.yul\":2205:2639   */\n  swap4\n  swap3\n  pop\n  pop\n  pop\n  jump\t// out\n    /* \"#utility.yul\":2659:3014   */\ntag_45:\n    /* \"#utility.yul\":2726:2731   */\n  0x00\n    /* \"#utility.yul\":2775:2778   */\n  dup3\n    /* \"#utility.yul\":2768:2772   */\n  0x1f\n    /* \"#utility.yul\":2760:2766   */\n  dup4\n    /* \"#utility.yul\":2756:2773   */\n  add\n    /* \"#utility.yul\":2752:2779   */\n  slt\n    /* \"#utility.yul\":2742:2864   */\n  tag_97\n  jumpi\n    /* \"#utility.yul\":2783:2862   */\n  tag_98\n  tag_34\n  jump\t// in\ntag_98:\n    /* \"#utility.yul\":2742:2864   */\ntag_97:\n    /* \"#utility.yul\":2893:2899   */\n  dup2\n    /* \"#utility.yul\":2887:2900   */\n  mload\n    /* \"#utility.yul\":2918:3008   */\n  tag_99\n    /* \"#utility.yul\":3004:3007   */\n  dup5\n    /* \"#utility.yul\":2996:3002   */\n  dup3\n    /* \"#utility.yul\":2989:2993   */\n  0x20\n    /* \"#utility.yul\":2981:2987   */\n  dup7\n    /* \"#utility.yul\":2977:2994   */\n  add\n    /* \"#utility.yul\":2918:3008   */\n  tag_44\n  jump\t// in\ntag_99:\n    /* \"#utility.yul\":2909:3008   */\n  swap2\n  pop\n    /* \"#utility.yul\":2732:3014   */\n  pop\n    /* \"#utility.yul\":2659:3014   */\n  swap3\n  swap2\n  pop\n  pop\n  jump\t// out\n    /* \"#utility.yul\":3036:3996   */\ntag_46:\n    /* \"#utility.yul\":3153:3158   */\n  0x00\n    /* \"#utility.yul\":3178:3269   */\n  tag_101\n    /* \"#utility.yul\":3194:3268   */\n  tag_102\n    /* \"#utility.yul\":3261:3267   */\n  dup5\n    /* \"#utility.yul\":3194:3268   */\n  tag_39\n  jump\t// in\ntag_102:\n    /* \"#utility.yul\":3178:3269   */\n  tag_38\n  jump\t// in\ntag_101:\n    /* \"#utility.yul\":3169:3269   */\n  swap1\n  pop\n    /* \"#utility.yul\":3289:3294   */\n  dup1\n    /* \"#utility.yul\":3318:3324   */\n  dup4\n    /* \"#utility.yul\":3311:3316   */\n  dup3\n    /* \"#utility.yul\":3304:3325   */\n  mstore\n    /* \"#utility.yul\":3352:3356   */\n  0x20\n    /* \"#utility.yul\":3345:3350   */\n  dup3\n    /* \"#utility.yul\":3341:3357   */\n  add\n    /* \"#utility.yul\":3334:3357   */\n  swap1\n  pop\n    /* \"#utility.yul\":3405:3409   */\n  0x20\n    /* \"#utility.yul\":3397:3403   */\n  dup5\n    /* \"#utility.yul\":3393:3410   */\n  mul\n    /* \"#utility.yul\":3385:3391   */\n  dup4\n    /* \"#utility.yul\":3381:3411   */\n  add\n    /* \"#utility.yul\":3434:3437   */\n  dup6\n    /* \"#utility.yul\":3426:3432   */\n  dup2\n    /* \"#utility.yul\":3423:3438   */\n  gt\n    /* \"#utility.yul\":3420:3542   */\n  iszero\n  tag_103\n  jumpi\n    /* \"#utility.yul\":3453:3532   */\n  tag_104\n  tag_40\n  jump\t// in\ntag_104:\n    /* \"#utility.yul\":3420:3542   */\ntag_103:\n    /* \"#utility.yul\":3568:3574   */\n  dup4\n    /* \"#utility.yul\":3551:3990   */\ntag_105:\n    /* \"#utility.yul\":3585:3591   */\n  dup2\n    /* \"#utility.yul\":3580:3583   */\n  dup2\n    /* \"#utility.yul\":3577:3592   */\n  lt\n    /* \"#utility.yul\":3551:3990   */\n  iszero\n  tag_107\n  jumpi\n    /* \"#utility.yul\":3667:3670   */\n  dup1\n    /* \"#utility.yul\":3661:3671   */\n  mload\n    /* \"#utility.yul\":3703:3721   */\n  0xffffffffffffffff\n    /* \"#utility.yul\":3690:3701   */\n  dup2\n    /* \"#utility.yul\":3687:3722   */\n  gt\n    /* \"#utility.yul\":3684:3806   */\n  iszero\n  tag_108\n  jumpi\n    /* \"#utility.yul\":3725:3804   */\n  tag_109\n  tag_34\n  jump\t// in\ntag_109:\n    /* \"#utility.yul\":3684:3806   */\ntag_108:\n    /* \"#utility.yul\":3849:3860   */\n  dup1\n    /* \"#utility.yul\":3841:3847   */\n  dup7\n    /* \"#utility.yul\":3837:3861   */\n  add\n    /* \"#utility.yul\":3887:3945   */\n  tag_110\n    /* \"#utility.yul\":3941:3944   */\n  dup10\n    /* \"#utility.yul\":3929:3939   */\n  dup3\n    /* \"#utility.yul\":3887:3945   */\n  tag_45\n  jump\t// in\ntag_110:\n    /* \"#utility.yul\":3882:3885   */\n  dup6\n    /* \"#utility.yul\":3875:3946   */\n  mstore\n    /* \"#utility.yul\":3975:3979   */\n  0x20\n    /* \"#utility.yul\":3970:3973   */\n  dup6\n    /* \"#utility.yul\":3966:3980   */\n  add\n    /* \"#utility.yul\":3959:3980   */\n  swap5\n  pop\n    /* \"#utility.yul\":3627:3990   */\n  pop\n  pop\n    /* \"#utility.yul\":3611:3615   */\n  0x20\n    /* \"#utility.yul\":3606:3609   */\n  dup2\n    /* \"#utility.yul\":3602:3616   */\n  add\n    /* \"#utility.yul\":3595:3616   */\n  swap1\n  pop\n    /* \"#utility.yul\":3551:3990   */\n  jump(tag_105)\ntag_107:\n    /* \"#utility.yul\":3555:3576   */\n  pop\n    /* \"#utility.yul\":3159:3996   */\n  pop\n  pop\n    /* \"#utility.yul\":3036:3996   */\n  swap4\n  swap3\n  pop\n  pop\n  pop\n  jump\t// out\n    /* \"#utility.yul\":4018:4423   */\ntag_47:\n    /* \"#utility.yul\":4110:4115   */\n  0x00\n    /* \"#utility.yul\":4159:4162   */\n  dup3\n    /* \"#utility.yul\":4152:4156   */\n  0x1f\n    /* \"#utility.yul\":4144:4150   */\n  dup4\n    /* \"#utility.yul\":4140:4157   */\n  add\n    /* \"#utility.yul\":4136:4163   */\n  slt\n    /* \"#utility.yul\":4126:4248   */\n  tag_112\n  jumpi\n    /* \"#utility.yul\":4167:4246   */\n  tag_113\n  tag_34\n  jump\t// in\ntag_113:\n    /* \"#utility.yul\":4126:4248   */\ntag_112:\n    /* \"#utility.yul\":4277:4283   */\n  dup2\n    /* \"#utility.yul\":4271:4284   */\n  mload\n    /* \"#utility.yul\":4302:4417   */\n  tag_114\n    /* \"#utility.yul\":4413:4416   */\n  dup5\n    /* \"#utility.yul\":4405:4411   */\n  dup3\n    /* \"#utility.yul\":4398:4402   */\n  0x20\n    /* \"#utility.yul\":4390:4396   */\n  dup7\n    /* \"#utility.yul\":4386:4403   */\n  add\n    /* \"#utility.yul\":4302:4417   */\n  tag_46\n  jump\t// in\ntag_114:\n    /* \"#utility.yul\":4293:4417   */\n  swap2\n  pop\n    /* \"#utility.yul\":4116:4423   */\n  pop\n    /* \"#utility.yul\":4018:4423   */\n  swap3\n  swap2\n  pop\n  pop\n  jump\t// out\n    /* \"#utility.yul\":4429:5003   */\ntag_3:\n    /* \"#utility.yul\":4534:4540   */\n  0x00\n    /* \"#utility.yul\":4583:4585   */\n  0x20\n    /* \"#utility.yul\":4571:4580   */\n  dup3\n    /* \"#utility.yul\":4562:4569   */\n  dup5\n    /* \"#utility.yul\":4558:4581   */\n  sub\n    /* \"#utility.yul\":4554:4586   */\n  slt\n    /* \"#utility.yul\":4551:4670   */\n  iszero\n  tag_116\n  jumpi\n    /* \"#utility.yul\":4589:4668   */\n  tag_117\n  tag_32\n  jump\t// in\ntag_117:\n    /* \"#utility.yul\":4551:4670   */\ntag_116:\n    /* \"#utility.yul\":4730:4731   */\n  0x00\n    /* \"#utility.yul\":4719:4728   */\n  dup3\n    /* \"#utility.yul\":4715:4732   */\n  add\n    /* \"#utility.yul\":4709:4733   */\n  mload\n    /* \"#utility.yul\":4760:4778   */\n  0xffffffffffffffff\n    /* \"#utility.yul\":4752:4758   */\n  dup2\n    /* \"#utility.yul\":4749:4779   */\n  gt\n    /* \"#utility.yul\":4746:4863   */\n  iszero\n  tag_118\n  jumpi\n    /* \"#utility.yul\":4782:4861   */\n  tag_119\n  tag_33\n  jump\t// in\ntag_119:\n    /* \"#utility.yul\":4746:4863   */\ntag_118:\n    /* \"#utility.yul\":4887:4986   */\n  tag_120\n    /* \"#utility.yul\":4978:4985   */\n  dup5\n    /* \"#utility.yul\":4969:4975   */\n  dup3\n    /* \"#utility.yul\":4958:4967   */\n  dup6\n    /* \"#utility.yul\":4954:4976   */\n  add\n    /* \"#utility.yul\":4887:4986   */\n  tag_47\n  jump\t// in\ntag_120:\n    /* \"#utility.yul\":4877:4986   */\n  swap2\n  pop\n    /* \"#utility.yul\":4680:4996   */\n  pop\n    /* \"#utility.yul\":4429:5003   */\n  swap3\n  swap2\n  pop\n  pop\n  jump\t// out\n    /* \"#utility.yul\":5009:5189   */\ntag_8:\n    /* \"#utility.yul\":5057:5134   */\n  0x4e487b7100000000000000000000000000000000000000000000000000000000\n    /* \"#utility.yul\":5054:5055   */\n  0x00\n    /* \"#utility.yul\":5047:5135   */\n  mstore\n    /* \"#utility.yul\":5154:5158   */\n  0x21\n    /* \"#utility.yul\":5151:5152   */\n  0x04\n    /* \"#utility.yul\":5144:5159   */\n  mstore\n    /* \"#utility.yul\":5178:5182   */\n  0x24\n    /* \"#utility.yul\":5175:5176   */\n  0x00\n    /* \"#utility.yul\":5168:5183   */\n  revert\n    /* \"#utility.yul\":5195:5294   */\ntag_48:\n    /* \"#utility.yul\":5247:5253   */\n  0x00\n    /* \"#utility.yul\":5281:5286   */\n  dup2\n    /* \"#utility.yul\":5275:5287   */\n  mload\n    /* \"#utility.yul\":5265:5287   */\n  swap1\n  pop\n    /* \"#utility.yul\":5195:5294   */\n  swap2\n  swap1\n  pop\n  jump\t// out\n    /* \"#utility.yul\":5300:5480   */\ntag_49:\n    /* \"#utility.yul\":5348:5425   */\n  0x4e487b7100000000000000000000000000000000000000000000000000000000\n    /* \"#utility.yul\":5345:5346   */\n  0x00\n    /* \"#utility.yul\":5338:5426   */\n  mstore\n    /* \"#utility.yul\":5445:5449   */\n  0x22\n    /* \"#utility.yul\":5442:5443   */\n  0x04\n    /* \"#utility.yul\":5435:5450   */\n  mstore\n    /* \"#utility.yul\":5469:5473   */\n  0x24\n    /* \"#utility.yul\":5466:5467   */\n  0x00\n    /* \"#utility.yul\":5459:5474   */\n  revert\n    /* \"#utility.yul\":5486:5806   */\ntag_24:\n    /* \"#utility.yul\":5530:5536   */\n  0x00\n    /* \"#utility.yul\":5567:5568   */\n  0x02\n    /* \"#utility.yul\":5561:5565   */\n  dup3\n    /* \"#utility.yul\":5557:5569   */\n  div\n    /* \"#utility.yul\":5547:5569   */\n  swap1\n  pop\n    /* \"#utility.yul\":5614:5615   */\n  0x01\n    /* \"#utility.yul\":5608:5612   */\n  dup3\n    /* \"#utility.yul\":5604:5616   */\n  and\n    /* \"#utility.yul\":5635:5653   */\n  dup1\n    /* \"#utility.yul\":5625:5706   */\n  tag_125\n  jumpi\n    /* \"#utility.yul\":5691:5695   */\n  0x7f\n    /* \"#utility.yul\":5683:5689   */\n  dup3\n    /* \"#utility.yul\":5679:5696   */\n  and\n    /* \"#utility.yul\":5669:5696   */\n  swap2\n  pop\n    /* \"#utility.yul\":5625:5706   */\ntag_125:\n    /* \"#utility.yul\":5753:5755   */\n  0x20\n    /* \"#utility.yul\":5745:5751   */\n  dup3\n    /* \"#utility.yul\":5742:5756   */\n  lt\n    /* \"#utility.yul\":5722:5740   */\n  dup2\n    /* \"#utility.yul\":5719:5757   */\n  sub\n    /* \"#utility.yul\":5716:5800   */\n  tag_126\n  jumpi\n    /* \"#utility.yul\":5772:5790   */\n  tag_127\n  tag_49\n  jump\t// in\ntag_127:\n    /* \"#utility.yul\":5716:5800   */\ntag_126:\n    /* \"#utility.yul\":5537:5806   */\n  pop\n    /* \"#utility.yul\":5486:5806   */\n  swap2\n  swap1\n  pop\n  jump\t// out\n    /* \"#utility.yul\":5812:5953   */\ntag_50:\n    /* \"#utility.yul\":5861:5865   */\n  0x00\n    /* \"#utility.yul\":5884:5887   */\n  dup2\n    /* \"#utility.yul\":5876:5887   */\n  swap1\n  pop\n    /* \"#utility.yul\":5907:5910   */\n  dup2\n    /* \"#utility.yul\":5904:5905   */\n  0x00\n    /* \"#utility.yul\":5897:5911   */\n  mstore\n    /* \"#utility.yul\":5941:5945   */\n  0x20\n    /* \"#utility.yul\":5938:5939   */\n  0x00\n    /* \"#utility.yul\":5928:5946   */\n  keccak256\n    /* \"#utility.yul\":5920:5946   */\n  swap1\n  pop\n    /* \"#utility.yul\":5812:5953   */\n  swap2\n  swap1\n  pop\n  jump\t// out\n    /* \"#utility.yul\":5959:6052   */\ntag_51:\n    /* \"#utility.yul\":5996:6002   */\n  0x00\n    /* \"#utility.yul\":6043:6045   */\n  0x20\n    /* \"#utility.yul\":6038:6040   */\n  0x1f\n    /* \"#utility.yul\":6031:6036   */\n  dup4\n    /* \"#utility.yul\":6027:6041   */\n  add\n    /* \"#utility.yul\":6023:6046   */\n  div\n    /* \"#utility.yul\":6013:6046   */\n  swap1\n  pop\n    /* \"#utility.yul\":5959:6052   */\n  swap2\n  swap1\n  pop\n  jump\t// out\n    /* \"#utility.yul\":6058:6165   */\ntag_52:\n    /* \"#utility.yul\":6102:6110   */\n  0x00\n    /* \"#utility.yul\":6152:6157   */\n  dup3\n    /* \"#utility.yul\":6146:6150   */\n  dup3\n    /* \"#utility.yul\":6142:6158   */\n  shl\n    /* \"#utility.yul\":6121:6158   */\n  swap1\n  pop\n    /* \"#utility.yul\":6058:6165   */\n  swap3\n  swap2\n  pop\n  pop\n  jump\t// out\n    /* \"#utility.yul\":6171:6564   */\ntag_53:\n    /* \"#utility.yul\":6240:6246   */\n  0x00\n    /* \"#utility.yul\":6290:6291   */\n  0x08\n    /* \"#utility.yul\":6278:6288   */\n  dup4\n    /* \"#utility.yul\":6274:6292   */\n  mul\n    /* \"#utility.yul\":6313:6410   */\n  tag_132\n    /* \"#utility.yul\":6343:6409   */\n  0xffffffffffffffffffffffffffffffffffffffffffffffffffffffffffffffff\n    /* \"#utility.yul\":6332:6341   */\n  dup3\n    /* \"#utility.yul\":6313:6410   */\n  tag_52\n  jump\t// in\ntag_132:\n    /* \"#utility.yul\":6431:6470   */\n  tag_133\n    /* \"#utility.yul\":6461:6469   */\n  dup7\n    /* \"#utility.yul\":6450:6459   */\n  dup4\n    /* \"#utility.yul\":6431:6470   */\n  tag_52\n  jump\t// in\ntag_133:\n    /* \"#utility.yul\":6419:6470   */\n  swap6\n  pop\n    /* \"#utility.yul\":6503:6507   */\n  dup1\n    /* \"#utility.yul\":6499:6508   */\n  not\n    /* \"#utility.yul\":6492:6497   */\n  dup5\n    /* \"#utility.yul\":6488:6509   */\n  and\n    /* \"#utility.yul\":6479:6509   */\n  swap4\n  pop\n    /* \"#utility.yul\":6552:6556   */\n  dup1\n    /* \"#utility.yul\":6542:6550   */\n  dup7\n    /* \"#utility.yul\":6538:6557   */\n  and\n    /* \"#utility.yul\":6531:6536   */\n  dup5\n    /* \"#utility.yul\":6528:6558   */\n  or\n    /* \"#utility.yul\":6518:6558   */\n  swap3\n  pop\n    /* \"#utility.yul\":6247:6564   */\n  pop\n  pop\n    /* \"#utility.yul\":6171:6564   */\n  swap4\n  swap3\n  pop\n  pop\n  pop\n  jump\t// out\n    /* \"#utility.yul\":6570:6647   */\ntag_54:\n    /* \"#utility.yul\":6607:6614   */\n  0x00\n    /* \"#utility.yul\":6636:6641   */\n  dup2\n    /* \"#utility.yul\":6625:6641   */\n  swap1\n  pop\n    /* \"#utility.yul\":6570:6647   */\n  swap2\n  swap1\n  pop\n  jump\t// out\n    /* \"#utility.yul\":6653:6713   */\ntag_55:\n    /* \"#utility.yul\":6681:6684   */\n  0x00\n    /* \"#utility.yul\":6702:6707   */\n  dup2\n    /* \"#utility.yul\":6695:6707   */\n  swap1\n  pop\n    /* \"#utility.yul\":6653:6713   */\n  swap2\n  swap1\n  pop\n  jump\t// out\n    /* \"#utility.yul\":6719:6861   */\ntag_56:\n    /* \"#utility.yul\":6769:6778   */\n  0x00\n    /* \"#utility.yul\":6802:6855   */\n  tag_137\n    /* \"#utility.yul\":6820:6854   */\n  tag_138\n    /* \"#utility.yul\":6829:6853   */\n  tag_139\n    /* \"#utility.yul\":6847:6852   */\n  dup5\n    /* \"#utility.yul\":6829:6853   */\n  tag_54\n  jump\t// in\ntag_139:\n    /* \"#utility.yul\":6820:6854   */\n  tag_55\n  jump\t// in\ntag_138:\n    /* \"#utility.yul\":6802:6855   */\n  tag_54\n  jump\t// in\ntag_137:\n    /* \"#utility.yul\":6789:6855   */\n  swap1\n  pop\n    /* \"#utility.yul\":6719:6861   */\n  swap2\n  swap1\n  pop\n  jump\t// out\n    /* \"#utility.yul\":6867:6942   */\ntag_57:\n    /* \"#utility.yul\":6910:6913   */\n  0x00\n    /* \"#utility.yul\":6931:6936   */\n  dup2\n    /* \"#utility.yul\":6924:6936   */\n  swap1\n  pop\n    /* \"#utility.yul\":6867:6942   */\n  swap2\n  swap1\n  pop\n  jump\t// out\n    /* \"#utility.yul\":6948:7217   */\ntag_58:\n    /* \"#utility.yul\":7058:7097   */\n  tag_142\n    /* \"#utility.yul\":7089:7096   */\n  dup4\n    /* \"#utility.yul\":7058:7097   */\n  tag_56\n  jump\t// in\ntag_142:\n    /* \"#utility.yul\":7119:7210   */\n  tag_143\n    /* \"#utility.yul\":7168:7209   */\n  tag_144\n    /* \"#utility.yul\":7192:7208   */\n  dup3\n    /* \"#utility.yul\":7168:7209   */\n  tag_57\n  jump\t// in\ntag_144:\n    /* \"#utility.yul\":7160:7166   */\n  dup5\n    /* \"#utility.yul\":7153:7157   */\n  dup5\n    /* \"#utility.yul\":7147:7158   */\n  sload\n    /* \"#utility.yul\":7119:7210   */\n  tag_53\n  jump\t// in\ntag_143:\n    /* \"#utility.yul\":7113:7117   */\n  dup3\n    /* \"#utility.yul\":7106:7211   */\n  sstore\n    /* \"#utility.yul\":7024:7217   */\n  pop\n    /* \"#utility.yul\":6948:7217   */\n  pop\n  pop\n  pop\n  jump\t// out\n    /* \"#utility.yul\":7223:7296   */\ntag_59:\n    /* \"#utility.yul\":7268:7271   */\n  0x00\n    /* \"#utility.yul\":7289:7290   */\n  0x00\n    /* \"#utility.yul\":7282:7290   */\n  swap1\n  pop\n    /* \"#utility.yul\":7223:7296   */\n  swap1\n  jump\t// out\n    /* \"#utility.yul\":7302:7491   */\ntag_60:\n    /* \"#utility.yul\":7379:7411   */\n  tag_147\n  tag_59\n  jump\t// in\ntag_147:\n    /* \"#utility.yul\":7420:7485   */\n  tag_148\n    /* \"#utility.yul\":7478:7484   */\n  dup2\n    /* \"#utility.yul\":7470:7476   */\n  dup5\n    /* \"#utility.yul\":7464:7468   */\n  dup5\n    /* \"#utility.yul\":7420:7485   */\n  tag_58\n  jump\t// in\ntag_148:\n    /* \"#utility.yul\":7355:7491   */\n  pop\n    /* \"#utility.yul\":7302:7491   */\n  pop\n  pop\n  jump\t// out\n    /* \"#utility.yul\":7497:7683   */\ntag_61:\n    /* \"#utility.yul\":7557:7677   */\ntag_150:\n    /* \"#utility.yul\":7574:7577   */\n  dup2\n    /* \"#utility.yul\":7567:7572   */\n  dup2\n    /* \"#utility.yul\":7564:7578   */\n  lt\n    /* \"#utility.yul\":7557:7677   */\n  iszero\n  tag_152\n  jumpi\n    /* \"#utility.yul\":7628:7667   */\n  tag_153\n    /* \"#utility.yul\":7665:7666   */\n  0x00\n    /* \"#utility.yul\":7658:7663   */\n  dup3\n    /* \"#utility.yul\":7628:7667   */\n  tag_60\n  jump\t// in\ntag_153:\n    /* \"#utility.yul\":7601:7602   */\n  0x01\n    /* \"#utility.yul\":7594:7599   */\n  dup2\n    /* \"#utility.yul\":7590:7603   */\n  add\n    /* \"#utility.yul\":7581:7603   */\n  swap1\n  pop\n    /* \"#utility.yul\":7557:7677   */\n  jump(tag_150)\ntag_152:\n    /* \"#utility.yul\":7497:7683   */\n  pop\n  pop\n  jump\t// out\n    /* \"#utility.yul\":7689:8232   */\ntag_62:\n    /* \"#utility.yul\":7790:7792   */\n  0x1f\n    /* \"#utility.yul\":7785:7788   */\n  dup3\n    /* \"#utility.yul\":7782:7793   */\n  gt\n    /* \"#utility.yul\":7779:8225   */\n  iszero\n  tag_155\n  jumpi\n    /* \"#utility.yul\":7824:7862   */\n  tag_156\n    /* \"#utility.yul\":7856:7861   */\n  dup2\n    /* \"#utility.yul\":7824:7862   */\n  tag_50\n  jump\t// in\ntag_156:\n    /* \"#utility.yul\":7908:7937   */\n  tag_157\n    /* \"#utility.yul\":7926:7936   */\n  dup5\n    /* \"#utility.yul\":7908:7937   */\n  tag_51\n  jump\t// in\ntag_157:\n    /* \"#utility.yul\":7898:7906   */\n  dup2\n    /* \"#utility.yul\":7894:7938   */\n  add\n    /* \"#utility.yul\":8091:8093   */\n  0x20\n    /* \"#utility.yul\":8079:8089   */\n  dup6\n    /* \"#utility.yul\":8076:8094   */\n  lt\n    /* \"#utility.yul\":8073:8122   */\n  iszero\n  tag_158\n  jumpi\n    /* \"#utility.yul\":8112:8120   */\n  dup2\n    /* \"#utility.yul\":8097:8120   */\n  swap1\n  pop\n    /* \"#utility.yul\":8073:8122   */\ntag_158:\n    /* \"#utility.yul\":8135:8215   */\n  tag_159\n    /* \"#utility.yul\":8191:8213   */\n  tag_160\n    /* \"#utility.yul\":8209:8212   */\n  dup6\n    /* \"#utility.yul\":8191:8213   */\n  tag_51\n  jump\t// in\ntag_160:\n    /* \"#utility.yul\":8181:8189   */\n  dup4\n    /* \"#utility.yul\":8177:8214   */\n  add\n    /* \"#utility.yul\":8164:8175   */\n  dup3\n    /* \"#utility.yul\":8135:8215   */\n  tag_61\n  jump\t// in\ntag_159:\n    /* \"#utility.yul\":7794:8225   */\n  pop\n  pop\n    /* \"#utility.yul\":7779:8225   */\ntag_155:\n    /* \"#utility.yul\":7689:8232   */\n  pop\n  pop\n  pop\n  jump\t// out\n    /* \"#utility.yul\":8238:8355   */\ntag_63:\n    /* \"#utility.yul\":8292:8300   */\n  0x00\n    /* \"#utility.yul\":8342:8347   */\n  dup3\n    /* \"#utility.yul\":8336:8340   */\n  dup3\n    /* \"#utility.yul\":8332:8348   */\n  shr\n    /* \"#utility.yul\":8311:8348   */\n  swap1\n  pop\n    /* \"#utility.yul\":8238:8355   */\n  swap3\n  swap2\n  pop\n  pop\n  jump\t// out\n    /* \"#utility.yul\":8361:8530   */\ntag_64:\n    /* \"#utility.yul\":8405:8411   */\n  0x00\n    /* \"#utility.yul\":8438:8489   */\n  tag_163\n    /* \"#utility.yul\":8486:8487   */\n  0x00\n    /* \"#utility.yul\":8482:8488   */\n  not\n    /* \"#utility.yul\":8474:8479   */\n  dup5\n    /* \"#utility.yul\":8471:8472   */\n  0x08\n    /* \"#utility.yul\":8467:8480   */\n  mul\n    /* \"#utility.yul\":8438:8489   */\n  tag_63\n  jump\t// in\ntag_163:\n    /* \"#utility.yul\":8434:8490   */\n  not\n    /* \"#utility.yul\":8519:8523   */\n  dup1\n    /* \"#utility.yul\":8513:8517   */\n  dup4\n    /* \"#utility.yul\":8509:8524   */\n  and\n    /* \"#utility.yul\":8499:8524   */\n  swap2\n  pop\n    /* \"#utility.yul\":8412:8530   */\n  pop\n    /* \"#utility.yul\":8361:8530   */\n  swap3\n  swap2\n  pop\n  pop\n  jump\t// out\n    /* \"#utility.yul\":8535:8830   */\ntag_65:\n    /* \"#utility.yul\":8611:8615   */\n  0x00\n    /* \"#utility.yul\":8757:8786   */\n  tag_165\n    /* \"#utility.yul\":8782:8785   */\n  dup4\n    /* \"#utility.yul\":8776:8780   */\n  dup4\n    /* \"#utility.yul\":8757:8786   */\n  tag_64\n  jump\t// in\ntag_165:\n    /* \"#utility.yul\":8749:8786   */\n  swap2\n  pop\n    /* \"#utility.yul\":8819:8822   */\n  dup3\n    /* \"#utility.yul\":8816:8817   */\n  0x02\n    /* \"#utility.yul\":8812:8823   */\n  mul\n    /* \"#utility.yul\":8806:8810   */\n  dup3\n    /* \"#utility.yul\":8803:8824   */\n  or\n    /* \"#utility.yul\":8795:8824   */\n  swap1\n  pop\n    /* \"#utility.yul\":8535:8830   */\n  swap3\n  swap2\n  pop\n  pop\n  jump\t// out\n    /* \"#utility.yul\":8835:10230   */\ntag_16:\n    /* \"#utility.yul\":8952:8989   */\n  tag_167\n    /* \"#utility.yul\":8985:8988   */\n  dup3\n    /* \"#utility.yul\":8952:8989   */\n  tag_48\n  jump\t// in\ntag_167:\n    /* \"#utility.yul\":9054:9072   */\n  0xffffffffffffffff\n    /* \"#utility.yul\":9046:9052   */\n  dup2\n    /* \"#utility.yul\":9043:9073   */\n  gt\n    /* \"#utility.yul\":9040:9096   */\n  iszero\n  tag_168\n  jumpi\n    /* \"#utility.yul\":9076:9094   */\n  tag_169\n  tag_36\n  jump\t// in\ntag_169:\n    /* \"#utility.yul\":9040:9096   */\ntag_168:\n    /* \"#utility.yul\":9120:9158   */\n  tag_170\n    /* \"#utility.yul\":9152:9156   */\n  dup3\n    /* \"#utility.yul\":9146:9157   */\n  sload\n    /* \"#utility.yul\":9120:9158   */\n  tag_24\n  jump\t// in\ntag_170:\n    /* \"#utility.yul\":9205:9272   */\n  tag_171\n    /* \"#utility.yul\":9265:9271   */\n  dup3\n    /* \"#utility.yul\":9257:9263   */\n  dup3\n    /* \"#utility.yul\":9251:9255   */\n  dup6\n    /* \"#utility.yul\":9205:9272   */\n  tag_62\n  jump\t// in\ntag_171:\n    /* \"#utility.yul\":9299:9300   */\n  0x00\n    /* \"#utility.yul\":9323:9327   */\n  0x20\n    /* \"#utility.yul\":9310:9327   */\n  swap1\n  pop\n    /* \"#utility.yul\":9355:9357   */\n  0x1f\n    /* \"#utility.yul\":9347:9353   */\n  dup4\n    /* \"#utility.yul\":9344:9358   */\n  gt\n    /* \"#utility.yul\":9372:9373   */\n  0x01\n    /* \"#utility.yul\":9367:9985   */\n  dup2\n  eq\n  tag_173\n  jumpi\n    /* \"#utility.yul\":10029:10030   */\n  0x00\n    /* \"#utility.yul\":10046:10052   */\n  dup5\n    /* \"#utility.yul\":10043:10120   */\n  iszero\n  tag_174\n  jumpi\n    /* \"#utility.yul\":10095:10104   */\n  dup3\n    /* \"#utility.yul\":10090:10093   */\n  dup8\n    /* \"#utility.yul\":10086:10105   */\n  add\n    /* \"#utility.yul\":10080:10106   */\n  mload\n    /* \"#utility.yul\":10071:10106   */\n  swap1\n  pop\n    /* \"#utility.yul\":10043:10120   */\ntag_174:\n    /* \"#utility.yul\":10146:10213   */\n  tag_175\n    /* \"#utility.yul\":10206:10212   */\n  dup6\n    /* \"#utility.yul\":10199:10204   */\n  dup3\n    /* \"#utility.yul\":10146:10213   */\n  tag_65\n  jump\t// in\ntag_175:\n    /* \"#utility.yul\":10140:10144   */\n  dup7\n    /* \"#utility.yul\":10133:10214   */\n  sstore\n    /* \"#utility.yul\":10002:10224   */\n  pop\n    /* \"#utility.yul\":9337:10224   */\n  jump(tag_172)\n    /* \"#utility.yul\":9367:9985   */\ntag_173:\n    /* \"#utility.yul\":9419:9423   */\n  0x1f\n    /* \"#utility.yul\":9415:9424   */\n  not\n    /* \"#utility.yul\":9407:9413   */\n  dup5\n    /* \"#utility.yul\":9403:9425   */\n  and\n    /* \"#utility.yul\":9453:9490   */\n  tag_176\n    /* \"#utility.yul\":9485:9489   */\n  dup7\n    /* \"#utility.yul\":9453:9490   */\n  tag_50\n  jump\t// in\ntag_176:\n    /* \"#utility.yul\":9512:9513   */\n  0x00\n    /* \"#utility.yul\":9526:9734   */\ntag_177:\n    /* \"#utility.yul\":9540:9547   */\n  dup3\n    /* \"#utility.yul\":9537:9538   */\n  dup2\n    /* \"#utility.yul\":9534:9548   */\n  lt\n    /* \"#utility.yul\":9526:9734   */\n  iszero\n  tag_179\n  jumpi\n    /* \"#utility.yul\":9619:9628   */\n  dup5\n    /* \"#utility.yul\":9614:9617   */\n  dup10\n    /* \"#utility.yul\":9610:9629   */\n  add\n    /* \"#utility.yul\":9604:9630   */\n  mload\n    /* \"#utility.yul\":9596:9602   */\n  dup3\n    /* \"#utility.yul\":9589:9631   */\n  sstore\n    /* \"#utility.yul\":9670:9671   */\n  0x01\n    /* \"#utility.yul\":9662:9668   */\n  dup3\n    /* \"#utility.yul\":9658:9672   */\n  add\n    /* \"#utility.yul\":9648:9672   */\n  swap2\n  pop\n    /* \"#utility.yul\":9717:9719   */\n  0x20\n    /* \"#utility.yul\":9706:9715   */\n  dup6\n    /* \"#utility.yul\":9702:9720   */\n  add\n    /* \"#utility.yul\":9689:9720   */\n  swap5\n  pop\n    /* \"#utility.yul\":9563:9567   */\n  0x20\n    /* \"#utility.yul\":9560:9561   */\n  dup2\n    /* \"#utility.yul\":9556:9568   */\n  add\n    /* \"#utility.yul\":9551:9568   */\n  swap1\n  pop\n    /* \"#utility.yul\":9526:9734   */\n  jump(tag_177)\ntag_179:\n    /* \"#utility.yul\":9762:9768   */\n  dup7\n    /* \"#utility.yul\":9753:9760   */\n  dup4\n    /* \"#utility.yul\":9750:9769   */\n  lt\n    /* \"#utility.yul\":9747:9926   */\n  iszero\n  tag_180\n  jumpi\n    /* \"#utility.yul\":9820:9829   */\n  dup5\n    /* \"#utility.yul\":9815:9818   */\n  dup10\n    /* \"#utility.yul\":9811:9830   */\n  add\n    /* \"#utility.yul\":9805:9831   */\n  mload\n    /* \"#utility.yul\":9863:9911   */\n  tag_181\n    /* \"#utility.yul\":9905:9909   */\n  0x1f\n    /* \"#utility.yul\":9897:9903   */\n  dup10\n    /* \"#utility.yul\":9893:9910   */\n  and\n    /* \"#utility.yul\":9882:9891   */\n  dup3\n    /* \"#utility.yul\":9863:9911   */\n  tag_64\n  jump\t// in\ntag_181:\n    /* \"#utility.yul\":9855:9861   */\n  dup4\n    /* \"#utility.yul\":9848:9912   */\n  sstore\n    /* \"#utility.yul\":9770:9926   */\n  pop\n    /* \"#utility.yul\":9747:9926   */\ntag_180:\n    /* \"#utility.yul\":9972:9973   */\n  0x01\n    /* \"#utility.yul\":9968:9969   */\n  0x02\n    /* \"#utility.yul\":9960:9966   */\n  dup9\n    /* \"#utility.yul\":9956:9970   */\n  mul\n    /* \"#utility.yul\":9952:9974   */\n  add\n    /* \"#utility.yul\":9946:9950   */\n  dup9\n    /* \"#utility.yul\":9939:9975   */\n  sstore\n    /* \"#utility.yul\":9374:9985   */\n  pop\n  pop\n  pop\n    /* \"#utility.yul\":9337:10224   */\ntag_172:\n  pop\n    /* \"#utility.yul\":8927:10230   */\n  pop\n  pop\n  pop\n    /* \"#utility.yul\":8835:10230   */\n  pop\n  pop\n  jump\t// out\n    /* \"solidity_series.sol/lecturelabs.sol/lab6voting_contract.sol\":60:2563  contract Voting {... */\ntag_11:\n  dataSize(sub_0)\n  dup1\n  dataOffset(sub_0)\n  0x00\n  codecopy\n  0x00\n  return\nstop\n\nsub_0: assembly {\n        /* \"solidity_series.sol/lecturelabs.sol/lab6voting_contract.sol\":60:2563  contract Voting {... */\n      mstore(0x40, 0x80)\n      callvalue\n      dup1\n      iszero\n      tag_1\n      jumpi\n      revert(0x00, 0x00)\n    tag_1:\n      pop\n      jumpi(tag_2, lt(calldatasize, 0x04))\n      shr(0xe0, calldataload(0x00))\n      dup1\n      0x8da5cb5b\n      gt\n      tag_14\n      jumpi\n      dup1\n      0x8da5cb5b\n      eq\n      tag_8\n      jumpi\n      dup1\n      0x98d16f75\n      eq\n      tag_9\n      jumpi\n      dup1\n      0xa3ec138d\n      eq\n      tag_10\n      jumpi\n      dup1\n      0xc3403ddf\n      eq\n      tag_11\n      jumpi\n      dup1\n      0xda650ec6\n      eq\n      tag_12\n      jumpi\n      dup1\n      0xfc36e15b\n      eq\n      tag_13\n      jumpi\n      jump(tag_2)\n    tag_14:\n      dup1\n      0x1ec6b60a\n      eq\n      tag_3\n      jumpi\n      dup1\n      0x200d2ed2\n      eq\n      tag_4\n      jumpi\n      dup1\n      0x3477ee2e\n      eq\n      tag_5\n      jumpi\n      dup1\n      0x51b9887d\n      eq\n      tag_6\n      jumpi\n      dup1\n      0x8d4b44d9\n      eq\n      tag_7\n      jumpi\n    tag_2:\n      revert(0x00, 0x00)\n        /* \"solidity_series.sol/lecturelabs.sol/lab6voting_contract.sol\":929:1014  function startVoting() public onlyOwner {... */\n    tag_3:\n      tag_15\n      tag_16\n      jump\t// in\n    tag_15:\n      stop\n        /* \"solidity_series.sol/lecturelabs.sol/lab6voting_contract.sol\":216:242  VotingStatus public status */\n    tag_4:\n      tag_17\n      tag_18\n      jump\t// in\n    tag_17:\n      mload(0x40)\n      tag_19\n      swap2\n      swap1\n      tag_20\n      jump\t// in\n    tag_19:\n      mload(0x40)\n      dup1\n      swap2\n      sub\n      swap1\n      return\n        /* \"solidity_series.sol/lecturelabs.sol/lab6voting_contract.sol\":249:275  string[] public candidates */\n    tag_5:\n      tag_21\n      0x04\n      dup1\n      calldatasize\n      sub\n      dup2\n      add\n      swap1\n      tag_22\n      swap2\n      swap1\n      tag_23\n      jump\t// in\n    tag_22:\n      tag_24\n      jump\t// in\n    tag_21:\n      mload(0x40)\n      tag_25\n      swap2\n      swap1\n      tag_26\n      jump\t// in\n    tag_25:\n      mload(0x40)\n      dup1\n      swap2\n      sub\n      swap1\n      return\n        /* \"solidity_series.sol/lecturelabs.sol/lab6voting_contract.sol\":1614:1940  function isValidCandidate(string memory candidate) public view returns (bool) {... */\n    tag_6:\n      tag_27\n      0x04\n      dup1\n      calldatasize\n      sub\n      dup2\n      add\n      swap1\n      tag_28\n      swap2\n      swap1\n      tag_29\n      jump\t// in\n    tag_28:\n      tag_30\n      jump\t// in\n    tag_27:\n      mload(0x40)\n      tag_31\n      swap2\n      swap1\n      tag_32\n      jump\t// in\n    tag_31:\n      mload(0x40)\n      dup1\n      swap2\n      sub\n      swap1\n      return\n        /* \"solidity_series.sol/lecturelabs.sol/lab6voting_contract.sol\":282:326  mapping(string => uint) public votesReceived */\n    tag_7:\n      tag_33\n      0x04\n      dup1\n      calldatasize\n      sub\n      dup2\n      add\n      swap1\n      tag_34\n      swap2\n      swap1\n      tag_29\n      jump\t// in\n    tag_34:\n      tag_35\n      jump\t// in\n    tag_33:\n      mload(0x40)\n      tag_36\n      swap2\n      swap1\n      tag_37\n      jump\t// in\n    tag_36:\n      mload(0x40)\n      dup1\n      swap2\n      sub\n      swap1\n      return\n        /* \"solidity_series.sol/lecturelabs.sol/lab6voting_contract.sol\":189:209  address public owner */\n    tag_8:\n      tag_38\n      tag_39\n      jump\t// in\n    tag_38:\n      mload(0x40)\n      tag_40\n      swap2\n      swap1\n      tag_41\n      jump\t// in\n    tag_40:\n      mload(0x40)\n      dup1\n      swap2\n      sub\n      swap1\n      return\n        /* \"solidity_series.sol/lecturelabs.sol/lab6voting_contract.sol\":2004:2198  function getTotalVotes(string memory candidate) public view returns (uint) {... */\n    tag_9:\n      tag_42\n      0x04\n      dup1\n      calldatasize\n      sub\n      dup2\n      add\n      swap1\n      tag_43\n      swap2\n      swap1\n      tag_29\n      jump\t// in\n    tag_43:\n      tag_44\n      jump\t// in\n    tag_42:\n      mload(0x40)\n      tag_45\n      swap2\n      swap1\n      tag_37\n      jump\t// in\n    tag_45:\n      mload(0x40)\n      dup1\n      swap2\n      sub\n      swap1\n      return\n        /* \"solidity_series.sol/lecturelabs.sol/lab6voting_contract.sol\":333:371  mapping(address => bool) public voters */\n    tag_10:\n      tag_46\n      0x04\n      dup1\n      calldatasize\n      sub\n      dup2\n      add\n      swap1\n      tag_47\n      swap2\n      swap1\n      tag_48\n      jump\t// in\n    tag_47:\n      tag_49\n      jump\t// in\n    tag_46:\n      mload(0x40)\n      tag_50\n      swap2\n      swap1\n      tag_32\n      jump\t// in\n    tag_50:\n      mload(0x40)\n      dup1\n      swap2\n      sub\n      swap1\n      return\n        /* \"solidity_series.sol/lecturelabs.sol/lab6voting_contract.sol\":1083:1168  function endVoting() public onlyOwner {... */\n    tag_11:\n      tag_51\n      tag_52\n      jump\t// in\n    tag_51:\n      stop\n        /* \"solidity_series.sol/lecturelabs.sol/lab6voting_contract.sol\":2245:2560  function getVotingResults() public view returns (string[] memory, uint[] memory) {... */\n    tag_12:\n      tag_53\n      tag_54\n      jump\t// in\n    tag_53:\n      mload(0x40)\n      tag_55\n      swap3\n      swap2\n      swap1\n      tag_56\n      jump\t// in\n    tag_55:\n      mload(0x40)\n      dup1\n      swap2\n      sub\n      swap1\n      return\n        /* \"solidity_series.sol/lecturelabs.sol/lab6voting_contract.sol\":1217:1554  function vote(string memory candidate) public {... */\n    tag_13:\n      tag_57\n      0x04\n      dup1\n      calldatasize\n      sub\n      dup2\n      add\n      swap1\n      tag_58\n      swap2\n      swap1\n      tag_29\n      jump\t// in\n    tag_58:\n      tag_59\n      jump\t// in\n    tag_57:\n      stop\n        /* \"solidity_series.sol/lecturelabs.sol/lab6voting_contract.sol\":929:1014  function startVoting() public onlyOwner {... */\n    tag_16:\n        /* \"solidity_series.sol/lecturelabs.sol/lab6voting_contract.sol\":790:795  owner */\n      0x00\n      0x00\n      swap1\n      sload\n      swap1\n      0x0100\n      exp\n      swap1\n      div\n      0xffffffffffffffffffffffffffffffffffffffff\n      and\n        /* \"solidity_series.sol/lecturelabs.sol/lab6voting_contract.sol\":776:795  msg.sender == owner */\n      0xffffffffffffffffffffffffffffffffffffffff\n      and\n        /* \"solidity_series.sol/lecturelabs.sol/lab6voting_contract.sol\":776:786  msg.sender */\n      caller\n        /* \"solidity_series.sol/lecturelabs.sol/lab6voting_contract.sol\":776:795  msg.sender == owner */\n      0xffffffffffffffffffffffffffffffffffffffff\n      and\n      eq\n        /* \"solidity_series.sol/lecturelabs.sol/lab6voting_contract.sol\":768:838  require(msg.sender == owner, \"Only the owner can call this function.\") */\n      tag_61\n      jumpi\n      mload(0x40)\n      0x08c379a000000000000000000000000000000000000000000000000000000000\n      dup2\n      mstore\n      0x04\n      add\n      tag_62\n      swap1\n      tag_63\n      jump\t// in\n    tag_62:\n      mload(0x40)\n      dup1\n      swap2\n      sub\n      swap1\n      revert\n    tag_61:\n        /* \"solidity_series.sol/lecturelabs.sol/lab6voting_contract.sol\":989:1006  VotingStatus.Open */\n      0x00\n        /* \"solidity_series.sol/lecturelabs.sol/lab6voting_contract.sol\":980:986  status */\n      0x00\n      0x14\n        /* \"solidity_series.sol/lecturelabs.sol/lab6voting_contract.sol\":980:1006  status = VotingStatus.Open */\n      0x0100\n      exp\n      dup2\n      sload\n      dup2\n      0xff\n      mul\n      not\n      and\n      swap1\n      dup4\n      0x01\n      dup2\n      gt\n      iszero\n      tag_65\n      jumpi\n      tag_66\n      tag_67\n      jump\t// in\n    tag_66:\n    tag_65:\n      mul\n      or\n      swap1\n      sstore\n      pop\n        /* \"solidity_series.sol/lecturelabs.sol/lab6voting_contract.sol\":929:1014  function startVoting() public onlyOwner {... */\n      jump\t// out\n        /* \"solidity_series.sol/lecturelabs.sol/lab6voting_contract.sol\":216:242  VotingStatus public status */\n    tag_18:\n      0x00\n      0x14\n      swap1\n      sload\n      swap1\n      0x0100\n      exp\n      swap1\n      div\n      0xff\n      and\n      dup2\n      jump\t// out\n        /* \"solidity_series.sol/lecturelabs.sol/lab6voting_contract.sol\":249:275  string[] public candidates */\n    tag_24:\n      0x01\n      dup2\n      dup2\n      sload\n      dup2\n      lt\n      tag_68\n      jumpi\n      0x00\n      dup1\n      revert\n    tag_68:\n      swap1\n      0x00\n      mstore\n      keccak256(0x00, 0x20)\n      add\n      0x00\n      swap2\n      pop\n      swap1\n      pop\n      dup1\n      sload\n      tag_70\n      swap1\n      tag_71\n      jump\t// in\n    tag_70:\n      dup1\n      0x1f\n      add\n      0x20\n      dup1\n      swap2\n      div\n      mul\n      0x20\n      add\n      mload(0x40)\n      swap1\n      dup2\n      add\n      0x40\n      mstore\n      dup1\n      swap3\n      swap2\n      swap1\n      dup2\n      dup2\n      mstore\n      0x20\n      add\n      dup3\n      dup1\n      sload\n      tag_72\n      swap1\n      tag_71\n      jump\t// in\n    tag_72:\n      dup1\n      iszero\n      tag_73\n      jumpi\n      dup1\n      0x1f\n      lt\n      tag_74\n      jumpi\n      0x0100\n      dup1\n      dup4\n      sload\n      div\n      mul\n      dup4\n      mstore\n      swap2\n      0x20\n      add\n      swap2\n      jump(tag_73)\n    tag_74:\n      dup3\n      add\n      swap2\n      swap1\n      0x00\n      mstore\n      keccak256(0x00, 0x20)\n      swap1\n    tag_75:\n      dup2\n      sload\n      dup2\n      mstore\n      swap1\n      0x01\n      add\n      swap1\n      0x20\n      add\n      dup1\n      dup4\n      gt\n      tag_75\n      jumpi\n      dup3\n      swap1\n      sub\n      0x1f\n      and\n      dup3\n      add\n      swap2\n    tag_73:\n      pop\n      pop\n      pop\n      pop\n      pop\n      dup2\n      jump\t// out\n        /* \"solidity_series.sol/lecturelabs.sol/lab6voting_contract.sol\":1614:1940  function isValidCandidate(string memory candidate) public view returns (bool) {... */\n    tag_30:\n        /* \"solidity_series.sol/lecturelabs.sol/lab6voting_contract.sol\":1686:1690  bool */\n      0x00\n        /* \"solidity_series.sol/lecturelabs.sol/lab6voting_contract.sol\":1708:1714  uint i */\n      0x00\n        /* \"solidity_series.sol/lecturelabs.sol/lab6voting_contract.sol\":1717:1718  0 */\n      0x00\n        /* \"solidity_series.sol/lecturelabs.sol/lab6voting_contract.sol\":1708:1718  uint i = 0 */\n      swap1\n      pop\n        /* \"solidity_series.sol/lecturelabs.sol/lab6voting_contract.sol\":1703:1910  for (uint i = 0; i < candidates.length; i++) {... */\n    tag_77:\n        /* \"solidity_series.sol/lecturelabs.sol/lab6voting_contract.sol\":1724:1734  candidates */\n      0x01\n        /* \"solidity_series.sol/lecturelabs.sol/lab6voting_contract.sol\":1724:1741  candidates.length */\n      dup1\n      sload\n      swap1\n      pop\n        /* \"solidity_series.sol/lecturelabs.sol/lab6voting_contract.sol\":1720:1721  i */\n      dup2\n        /* \"solidity_series.sol/lecturelabs.sol/lab6voting_contract.sol\":1720:1741  i < candidates.length */\n      lt\n        /* \"solidity_series.sol/lecturelabs.sol/lab6voting_contract.sol\":1703:1910  for (uint i = 0; i < candidates.length; i++) {... */\n      iszero\n      tag_78\n      jumpi\n        /* \"solidity_series.sol/lecturelabs.sol/lab6voting_contract.sol\":1840:1849  candidate */\n      dup3\n        /* \"solidity_series.sol/lecturelabs.sol/lab6voting_contract.sol\":1823:1850  abi.encodePacked(candidate) */\n      add(0x20, mload(0x40))\n      tag_80\n      swap2\n      swap1\n      tag_81\n      jump\t// in\n    tag_80:\n      mload(0x40)\n      0x20\n      dup2\n      dup4\n      sub\n      sub\n      dup2\n      mstore\n      swap1\n      0x40\n      mstore\n        /* \"solidity_series.sol/lecturelabs.sol/lab6voting_contract.sol\":1813:1851  keccak256(abi.encodePacked(candidate)) */\n      dup1\n      mload\n      swap1\n      0x20\n      add\n      keccak256\n        /* \"solidity_series.sol/lecturelabs.sol/lab6voting_contract.sol\":1794:1804  candidates */\n      0x01\n        /* \"solidity_series.sol/lecturelabs.sol/lab6voting_contract.sol\":1805:1806  i */\n      dup3\n        /* \"solidity_series.sol/lecturelabs.sol/lab6voting_contract.sol\":1794:1807  candidates[i] */\n      dup2\n      sload\n      dup2\n      lt\n      tag_82\n      jumpi\n      tag_83\n      tag_84\n      jump\t// in\n    tag_83:\n    tag_82:\n      swap1\n      0x00\n      mstore\n      keccak256(0x00, 0x20)\n      add\n        /* \"solidity_series.sol/lecturelabs.sol/lab6voting_contract.sol\":1777:1808  abi.encodePacked(candidates[i]) */\n      add(0x20, mload(0x40))\n      tag_86\n      swap2\n      swap1\n      tag_87\n      jump\t// in\n    tag_86:\n      mload(0x40)\n      0x20\n      dup2\n      dup4\n      sub\n      sub\n      dup2\n      mstore\n      swap1\n      0x40\n      mstore\n        /* \"solidity_series.sol/lecturelabs.sol/lab6voting_contract.sol\":1767:1809  keccak256(abi.encodePacked(candidates[i])) */\n      dup1\n      mload\n      swap1\n      0x20\n      add\n      keccak256\n        /* \"solidity_series.sol/lecturelabs.sol/lab6voting_contract.sol\":1767:1851  keccak256(abi.encodePacked(candidates[i])) == keccak256(abi.encodePacked(candidate)) */\n      sub\n        /* \"solidity_series.sol/lecturelabs.sol/lab6voting_contract.sol\":1763:1899  if (keccak256(abi.encodePacked(candidates[i])) == keccak256(abi.encodePacked(candidate))) {... */\n      tag_88\n      jumpi\n        /* \"solidity_series.sol/lecturelabs.sol/lab6voting_contract.sol\":1879:1883  true */\n      0x01\n        /* \"solidity_series.sol/lecturelabs.sol/lab6voting_contract.sol\":1872:1883  return true */\n      swap2\n      pop\n      pop\n      jump(tag_76)\n        /* \"solidity_series.sol/lecturelabs.sol/lab6voting_contract.sol\":1763:1899  if (keccak256(abi.encodePacked(candidates[i])) == keccak256(abi.encodePacked(candidate))) {... */\n    tag_88:\n        /* \"solidity_series.sol/lecturelabs.sol/lab6voting_contract.sol\":1743:1746  i++ */\n      dup1\n      dup1\n      0x01\n      add\n      swap2\n      pop\n      pop\n        /* \"solidity_series.sol/lecturelabs.sol/lab6voting_contract.sol\":1703:1910  for (uint i = 0; i < candidates.length; i++) {... */\n      jump(tag_77)\n    tag_78:\n      pop\n        /* \"solidity_series.sol/lecturelabs.sol/lab6voting_contract.sol\":1927:1932  false */\n      0x00\n        /* \"solidity_series.sol/lecturelabs.sol/lab6voting_contract.sol\":1920:1932  return false */\n      swap1\n      pop\n        /* \"solidity_series.sol/lecturelabs.sol/lab6voting_contract.sol\":1614:1940  function isValidCandidate(string memory candidate) public view returns (bool) {... */\n    tag_76:\n      swap2\n      swap1\n      pop\n      jump\t// out\n        /* \"solidity_series.sol/lecturelabs.sol/lab6voting_contract.sol\":282:326  mapping(string => uint) public votesReceived */\n    tag_35:\n      0x02\n      dup2\n      dup1\n      mload\n      0x20\n      dup2\n      add\n      dup3\n      add\n      dup1\n      mload\n      dup5\n      dup3\n      mstore\n      0x20\n      dup4\n      add\n      0x20\n      dup6\n      add\n      keccak256\n      dup2\n      dup4\n      mstore\n      dup1\n      swap6\n      pop\n      pop\n      pop\n      pop\n      pop\n      pop\n      0x00\n      swap2\n      pop\n      swap1\n      pop\n      sload\n      dup2\n      jump\t// out\n        /* \"solidity_series.sol/lecturelabs.sol/lab6voting_contract.sol\":189:209  address public owner */\n    tag_39:\n      0x00\n      0x00\n      swap1\n      sload\n      swap1\n      0x0100\n      exp\n      swap1\n      div\n      0xffffffffffffffffffffffffffffffffffffffff\n      and\n      dup2\n      jump\t// out\n        /* \"solidity_series.sol/lecturelabs.sol/lab6voting_contract.sol\":2004:2198  function getTotalVotes(string memory candidate) public view returns (uint) {... */\n    tag_44:\n        /* \"solidity_series.sol/lecturelabs.sol/lab6voting_contract.sol\":2073:2077  uint */\n      0x00\n        /* \"solidity_series.sol/lecturelabs.sol/lab6voting_contract.sol\":2098:2125  isValidCandidate(candidate) */\n      tag_90\n        /* \"solidity_series.sol/lecturelabs.sol/lab6voting_contract.sol\":2115:2124  candidate */\n      dup3\n        /* \"solidity_series.sol/lecturelabs.sol/lab6voting_contract.sol\":2098:2114  isValidCandidate */\n      tag_30\n        /* \"solidity_series.sol/lecturelabs.sol/lab6voting_contract.sol\":2098:2125  isValidCandidate(candidate) */\n      jump\t// in\n    tag_90:\n        /* \"solidity_series.sol/lecturelabs.sol/lab6voting_contract.sol\":2090:2148  require(isValidCandidate(candidate), \"Invalid candidate.\") */\n      tag_91\n      jumpi\n      mload(0x40)\n      0x08c379a000000000000000000000000000000000000000000000000000000000\n      dup2\n      mstore\n      0x04\n      add\n      tag_92\n      swap1\n      tag_93\n      jump\t// in\n    tag_92:\n      mload(0x40)\n      dup1\n      swap2\n      sub\n      swap1\n      revert\n    tag_91:\n        /* \"solidity_series.sol/lecturelabs.sol/lab6voting_contract.sol\":2166:2179  votesReceived */\n      0x02\n        /* \"solidity_series.sol/lecturelabs.sol/lab6voting_contract.sol\":2180:2189  candidate */\n      dup3\n        /* \"solidity_series.sol/lecturelabs.sol/lab6voting_contract.sol\":2166:2190  votesReceived[candidate] */\n      mload(0x40)\n      tag_94\n      swap2\n      swap1\n      tag_81\n      jump\t// in\n    tag_94:\n      swap1\n      dup2\n      mstore\n      0x20\n      add\n      mload(0x40)\n      dup1\n      swap2\n      sub\n      swap1\n      keccak256\n      sload\n        /* \"solidity_series.sol/lecturelabs.sol/lab6voting_contract.sol\":2159:2190  return votesReceived[candidate] */\n      swap1\n      pop\n        /* \"solidity_series.sol/lecturelabs.sol/lab6voting_contract.sol\":2004:2198  function getTotalVotes(string memory candidate) public view returns (uint) {... */\n      swap2\n      swap1\n      pop\n      jump\t// out\n        /* \"solidity_series.sol/lecturelabs.sol/lab6voting_contract.sol\":333:371  mapping(address => bool) public voters */\n    tag_49:\n      mstore(0x20, 0x03)\n      dup1\n      0x00\n      mstore\n      keccak256(0x00, 0x40)\n      0x00\n      swap2\n      pop\n      sload\n      swap1\n      0x0100\n      exp\n      swap1\n      div\n      0xff\n      and\n      dup2\n      jump\t// out\n        /* \"solidity_series.sol/lecturelabs.sol/lab6voting_contract.sol\":1083:1168  function endVoting() public onlyOwner {... */\n    tag_52:\n        /* \"solidity_series.sol/lecturelabs.sol/lab6voting_contract.sol\":790:795  owner */\n      0x00\n      0x00\n      swap1\n      sload\n      swap1\n      0x0100\n      exp\n      swap1\n      div\n      0xffffffffffffffffffffffffffffffffffffffff\n      and\n        /* \"solidity_series.sol/lecturelabs.sol/lab6voting_contract.sol\":776:795  msg.sender == owner */\n      0xffffffffffffffffffffffffffffffffffffffff\n      and\n        /* \"solidity_series.sol/lecturelabs.sol/lab6voting_contract.sol\":776:786  msg.sender */\n      caller\n        /* \"solidity_series.sol/lecturelabs.sol/lab6voting_contract.sol\":776:795  msg.sender == owner */\n      0xffffffffffffffffffffffffffffffffffffffff\n      and\n      eq\n        /* \"solidity_series.sol/lecturelabs.sol/lab6voting_contract.sol\":768:838  require(msg.sender == owner, \"Only the owner can call this function.\") */\n      tag_96\n      jumpi\n      mload(0x40)\n      0x08c379a000000000000000000000000000000000000000000000000000000000\n      dup2\n      mstore\n      0x04\n      add\n      tag_97\n      swap1\n      tag_63\n      jump\t// in\n    tag_97:\n      mload(0x40)\n      dup1\n      swap2\n      sub\n      swap1\n      revert\n    tag_96:\n        /* \"solidity_series.sol/lecturelabs.sol/lab6voting_contract.sol\":1141:1160  VotingStatus.Closed */\n      0x01\n        /* \"solidity_series.sol/lecturelabs.sol/lab6voting_contract.sol\":1132:1138  status */\n      0x00\n      0x14\n        /* \"solidity_series.sol/lecturelabs.sol/lab6voting_contract.sol\":1132:1160  status = VotingStatus.Closed */\n      0x0100\n      exp\n      dup2\n      sload\n      dup2\n      0xff\n      mul\n      not\n      and\n      swap1\n      dup4\n      0x01\n      dup2\n      gt\n      iszero\n      tag_99\n      jumpi\n      tag_100\n      tag_67\n      jump\t// in\n    tag_100:\n    tag_99:\n      mul\n      or\n      swap1\n      sstore\n      pop\n        /* \"solidity_series.sol/lecturelabs.sol/lab6voting_contract.sol\":1083:1168  function endVoting() public onlyOwner {... */\n      jump\t// out\n        /* \"solidity_series.sol/lecturelabs.sol/lab6voting_contract.sol\":2245:2560  function getVotingResults() public view returns (string[] memory, uint[] memory) {... */\n    tag_54:\n        /* \"solidity_series.sol/lecturelabs.sol/lab6voting_contract.sol\":2294:2309  string[] memory */\n      0x60\n        /* \"solidity_series.sol/lecturelabs.sol/lab6voting_contract.sol\":2311:2324  uint[] memory */\n      dup1\n        /* \"solidity_series.sol/lecturelabs.sol/lab6voting_contract.sol\":2337:2358  uint[] memory results */\n      0x00\n        /* \"solidity_series.sol/lecturelabs.sol/lab6voting_contract.sol\":2372:2382  candidates */\n      0x01\n        /* \"solidity_series.sol/lecturelabs.sol/lab6voting_contract.sol\":2372:2389  candidates.length */\n      dup1\n      sload\n      swap1\n      pop\n        /* \"solidity_series.sol/lecturelabs.sol/lab6voting_contract.sol\":2361:2390  new uint[](candidates.length) */\n      0xffffffffffffffff\n      dup2\n      gt\n      iszero\n      tag_102\n      jumpi\n      tag_103\n      tag_104\n      jump\t// in\n    tag_103:\n    tag_102:\n      mload(0x40)\n      swap1\n      dup1\n      dup3\n      mstore\n      dup1\n      0x20\n      mul\n      0x20\n      add\n      dup3\n      add\n      0x40\n      mstore\n      dup1\n      iszero\n      tag_105\n      jumpi\n      dup2\n      0x20\n      add\n      0x20\n      dup3\n      mul\n      dup1\n      calldatasize\n      dup4\n      calldatacopy\n      dup1\n      dup3\n      add\n      swap2\n      pop\n      pop\n      swap1\n      pop\n    tag_105:\n      pop\n        /* \"solidity_series.sol/lecturelabs.sol/lab6voting_contract.sol\":2337:2390  uint[] memory results = new uint[](candidates.length) */\n      swap1\n      pop\n        /* \"solidity_series.sol/lecturelabs.sol/lab6voting_contract.sol\":2406:2412  uint i */\n      0x00\n        /* \"solidity_series.sol/lecturelabs.sol/lab6voting_contract.sol\":2415:2416  0 */\n      0x00\n        /* \"solidity_series.sol/lecturelabs.sol/lab6voting_contract.sol\":2406:2416  uint i = 0 */\n      swap1\n      pop\n        /* \"solidity_series.sol/lecturelabs.sol/lab6voting_contract.sol\":2401:2514  for (uint i = 0; i < candidates.length; i++) {... */\n    tag_106:\n        /* \"solidity_series.sol/lecturelabs.sol/lab6voting_contract.sol\":2422:2432  candidates */\n      0x01\n        /* \"solidity_series.sol/lecturelabs.sol/lab6voting_contract.sol\":2422:2439  candidates.length */\n      dup1\n      sload\n      swap1\n      pop\n        /* \"solidity_series.sol/lecturelabs.sol/lab6voting_contract.sol\":2418:2419  i */\n      dup2\n        /* \"solidity_series.sol/lecturelabs.sol/lab6voting_contract.sol\":2418:2439  i < candidates.length */\n      lt\n        /* \"solidity_series.sol/lecturelabs.sol/lab6voting_contract.sol\":2401:2514  for (uint i = 0; i < candidates.length; i++) {... */\n      iszero\n      tag_107\n      jumpi\n        /* \"solidity_series.sol/lecturelabs.sol/lab6voting_contract.sol\":2474:2487  votesReceived */\n      0x02\n        /* \"solidity_series.sol/lecturelabs.sol/lab6voting_contract.sol\":2488:2498  candidates */\n      0x01\n        /* \"solidity_series.sol/lecturelabs.sol/lab6voting_contract.sol\":2499:2500  i */\n      dup3\n        /* \"solidity_series.sol/lecturelabs.sol/lab6voting_contract.sol\":2488:2501  candidates[i] */\n      dup2\n      sload\n      dup2\n      lt\n      tag_109\n      jumpi\n      tag_110\n      tag_84\n      jump\t// in\n    tag_110:\n    tag_109:\n      swap1\n      0x00\n      mstore\n      keccak256(0x00, 0x20)\n      add\n        /* \"solidity_series.sol/lecturelabs.sol/lab6voting_contract.sol\":2474:2502  votesReceived[candidates[i]] */\n      mload(0x40)\n      tag_112\n      swap2\n      swap1\n      tag_87\n      jump\t// in\n    tag_112:\n      swap1\n      dup2\n      mstore\n      0x20\n      add\n      mload(0x40)\n      dup1\n      swap2\n      sub\n      swap1\n      keccak256\n      sload\n        /* \"solidity_series.sol/lecturelabs.sol/lab6voting_contract.sol\":2461:2468  results */\n      dup3\n        /* \"solidity_series.sol/lecturelabs.sol/lab6voting_contract.sol\":2469:2470  i */\n      dup3\n        /* \"solidity_series.sol/lecturelabs.sol/lab6voting_contract.sol\":2461:2471  results[i] */\n      dup2\n      mload\n      dup2\n      lt\n      tag_113\n      jumpi\n      tag_114\n      tag_84\n      jump\t// in\n    tag_114:\n    tag_113:\n      0x20\n      mul\n      0x20\n      add\n      add\n        /* \"solidity_series.sol/lecturelabs.sol/lab6voting_contract.sol\":2461:2502  results[i] = votesReceived[candidates[i]] */\n      dup2\n      dup2\n      mstore\n      pop\n      pop\n        /* \"solidity_series.sol/lecturelabs.sol/lab6voting_contract.sol\":2441:2444  i++ */\n      dup1\n      dup1\n      0x01\n      add\n      swap2\n      pop\n      pop\n        /* \"solidity_series.sol/lecturelabs.sol/lab6voting_contract.sol\":2401:2514  for (uint i = 0; i < candidates.length; i++) {... */\n      jump(tag_106)\n    tag_107:\n      pop\n        /* \"solidity_series.sol/lecturelabs.sol/lab6voting_contract.sol\":2532:2542  candidates */\n      0x01\n        /* \"solidity_series.sol/lecturelabs.sol/lab6voting_contract.sol\":2544:2551  results */\n      dup2\n        /* \"solidity_series.sol/lecturelabs.sol/lab6voting_contract.sol\":2524:2552  return (candidates, results) */\n      dup2\n      dup1\n      sload\n      dup1\n      0x20\n      mul\n      0x20\n      add\n      mload(0x40)\n      swap1\n      dup2\n      add\n      0x40\n      mstore\n      dup1\n      swap3\n      swap2\n      swap1\n      dup2\n      dup2\n      mstore\n      0x20\n      add\n      0x00\n      swap1\n    tag_115:\n      dup3\n      dup3\n      lt\n      iszero\n      tag_116\n      jumpi\n      dup4\n      dup3\n      swap1\n      0x00\n      mstore\n      keccak256(0x00, 0x20)\n      add\n      dup1\n      sload\n      tag_118\n      swap1\n      tag_71\n      jump\t// in\n    tag_118:\n      dup1\n      0x1f\n      add\n      0x20\n      dup1\n      swap2\n      div\n      mul\n      0x20\n      add\n      mload(0x40)\n      swap1\n      dup2\n      add\n      0x40\n      mstore\n      dup1\n      swap3\n      swap2\n      swap1\n      dup2\n      dup2\n      mstore\n      0x20\n      add\n      dup3\n      dup1\n      sload\n      tag_119\n      swap1\n      tag_71\n      jump\t// in\n    tag_119:\n      dup1\n      iszero\n      tag_120\n      jumpi\n      dup1\n      0x1f\n      lt\n      tag_121\n      jumpi\n      0x0100\n      dup1\n      dup4\n      sload\n      div\n      mul\n      dup4\n      mstore\n      swap2\n      0x20\n      add\n      swap2\n      jump(tag_120)\n    tag_121:\n      dup3\n      add\n      swap2\n      swap1\n      0x00\n      mstore\n      keccak256(0x00, 0x20)\n      swap1\n    tag_122:\n      dup2\n      sload\n      dup2\n      mstore\n      swap1\n      0x01\n      add\n      swap1\n      0x20\n      add\n      dup1\n      dup4\n      gt\n      tag_122\n      jumpi\n      dup3\n      swap1\n      sub\n      0x1f\n      and\n      dup3\n      add\n      swap2\n    tag_120:\n      pop\n      pop\n      pop\n      pop\n      pop\n      dup2\n      mstore\n      0x20\n      add\n      swap1\n      0x01\n      add\n      swap1\n      jump(tag_115)\n    tag_116:\n      pop\n      pop\n      pop\n      pop\n      swap2\n      pop\n      swap3\n      pop\n      swap3\n      pop\n      pop\n        /* \"solidity_series.sol/lecturelabs.sol/lab6voting_contract.sol\":2245:2560  function getVotingResults() public view returns (string[] memory, uint[] memory) {... */\n      swap1\n      swap2\n      jump\t// out\n        /* \"solidity_series.sol/lecturelabs.sol/lab6voting_contract.sol\":1217:1554  function vote(string memory candidate) public {... */\n    tag_59:\n        /* \"solidity_series.sol/lecturelabs.sol/lab6voting_contract.sol\":1292:1309  VotingStatus.Open */\n      0x00\n        /* \"solidity_series.sol/lecturelabs.sol/lab6voting_contract.sol\":1282:1309  status == VotingStatus.Open */\n      0x01\n      dup2\n      gt\n      iszero\n      tag_124\n      jumpi\n      tag_125\n      tag_67\n      jump\t// in\n    tag_125:\n    tag_124:\n        /* \"solidity_series.sol/lecturelabs.sol/lab6voting_contract.sol\":1282:1288  status */\n      0x00\n      0x14\n      swap1\n      sload\n      swap1\n      0x0100\n      exp\n      swap1\n      div\n      0xff\n      and\n        /* \"solidity_series.sol/lecturelabs.sol/lab6voting_contract.sol\":1282:1309  status == VotingStatus.Open */\n      0x01\n      dup2\n      gt\n      iszero\n      tag_126\n      jumpi\n      tag_127\n      tag_67\n      jump\t// in\n    tag_127:\n    tag_126:\n      eq\n        /* \"solidity_series.sol/lecturelabs.sol/lab6voting_contract.sol\":1274:1333  require(status == VotingStatus.Open, \"Voting is not open.\") */\n      tag_128\n      jumpi\n      mload(0x40)\n      0x08c379a000000000000000000000000000000000000000000000000000000000\n      dup2\n      mstore\n      0x04\n      add\n      tag_129\n      swap1\n      tag_130\n      jump\t// in\n    tag_129:\n      mload(0x40)\n      dup1\n      swap2\n      sub\n      swap1\n      revert\n    tag_128:\n        /* \"solidity_series.sol/lecturelabs.sol/lab6voting_contract.sol\":1353:1359  voters */\n      0x03\n        /* \"solidity_series.sol/lecturelabs.sol/lab6voting_contract.sol\":1353:1371  voters[msg.sender] */\n      0x00\n        /* \"solidity_series.sol/lecturelabs.sol/lab6voting_contract.sol\":1360:1370  msg.sender */\n      caller\n        /* \"solidity_series.sol/lecturelabs.sol/lab6voting_contract.sol\":1353:1371  voters[msg.sender] */\n      0xffffffffffffffffffffffffffffffffffffffff\n      and\n      0xffffffffffffffffffffffffffffffffffffffff\n      and\n      dup2\n      mstore\n      0x20\n      add\n      swap1\n      dup2\n      mstore\n      0x20\n      add\n      0x00\n      keccak256\n      0x00\n      swap1\n      sload\n      swap1\n      0x0100\n      exp\n      swap1\n      div\n      0xff\n      and\n        /* \"solidity_series.sol/lecturelabs.sol/lab6voting_contract.sol\":1352:1371  !voters[msg.sender] */\n      iszero\n        /* \"solidity_series.sol/lecturelabs.sol/lab6voting_contract.sol\":1344:1399  require(!voters[msg.sender], \"You have already voted.\") */\n      tag_131\n      jumpi\n      mload(0x40)\n      0x08c379a000000000000000000000000000000000000000000000000000000000\n      dup2\n      mstore\n      0x04\n      add\n      tag_132\n      swap1\n      tag_133\n      jump\t// in\n    tag_132:\n      mload(0x40)\n      dup1\n      swap2\n      sub\n      swap1\n      revert\n    tag_131:\n        /* \"solidity_series.sol/lecturelabs.sol/lab6voting_contract.sol\":1418:1445  isValidCandidate(candidate) */\n      tag_134\n        /* \"solidity_series.sol/lecturelabs.sol/lab6voting_contract.sol\":1435:1444  candidate */\n      dup2\n        /* \"solidity_series.sol/lecturelabs.sol/lab6voting_contract.sol\":1418:1434  isValidCandidate */\n      tag_30\n        /* \"solidity_series.sol/lecturelabs.sol/lab6voting_contract.sol\":1418:1445  isValidCandidate(candidate) */\n      jump\t// in\n    tag_134:\n        /* \"solidity_series.sol/lecturelabs.sol/lab6voting_contract.sol\":1410:1468  require(isValidCandidate(candidate), \"Invalid candidate.\") */\n      tag_135\n      jumpi\n      mload(0x40)\n      0x08c379a000000000000000000000000000000000000000000000000000000000\n      dup2\n      mstore\n      0x04\n      add\n      tag_136\n      swap1\n      tag_93\n      jump\t// in\n    tag_136:\n      mload(0x40)\n      dup1\n      swap2\n      sub\n      swap1\n      revert\n    tag_135:\n        /* \"solidity_series.sol/lecturelabs.sol/lab6voting_contract.sol\":1509:1510  1 */\n      0x01\n        /* \"solidity_series.sol/lecturelabs.sol/lab6voting_contract.sol\":1481:1494  votesReceived */\n      0x02\n        /* \"solidity_series.sol/lecturelabs.sol/lab6voting_contract.sol\":1495:1504  candidate */\n      dup3\n        /* \"solidity_series.sol/lecturelabs.sol/lab6voting_contract.sol\":1481:1505  votesReceived[candidate] */\n      mload(0x40)\n      tag_137\n      swap2\n      swap1\n      tag_81\n      jump\t// in\n    tag_137:\n      swap1\n      dup2\n      mstore\n      0x20\n      add\n      mload(0x40)\n      dup1\n      swap2\n      sub\n      swap1\n      keccak256\n      0x00\n        /* \"solidity_series.sol/lecturelabs.sol/lab6voting_contract.sol\":1481:1510  votesReceived[candidate] += 1 */\n      dup3\n      dup3\n      sload\n      tag_138\n      swap2\n      swap1\n      tag_139\n      jump\t// in\n    tag_138:\n      swap3\n      pop\n      pop\n      dup2\n      swap1\n      sstore\n      pop\n        /* \"solidity_series.sol/lecturelabs.sol/lab6voting_contract.sol\":1542:1546  true */\n      0x01\n        /* \"solidity_series.sol/lecturelabs.sol/lab6voting_contract.sol\":1521:1527  voters */\n      0x03\n        /* \"solidity_series.sol/lecturelabs.sol/lab6voting_contract.sol\":1521:1539  voters[msg.sender] */\n      0x00\n        /* \"solidity_series.sol/lecturelabs.sol/lab6voting_contract.sol\":1528:1538  msg.sender */\n      caller\n        /* \"solidity_series.sol/lecturelabs.sol/lab6voting_contract.sol\":1521:1539  voters[msg.sender] */\n      0xffffffffffffffffffffffffffffffffffffffff\n      and\n      0xffffffffffffffffffffffffffffffffffffffff\n      and\n      dup2\n      mstore\n      0x20\n      add\n      swap1\n      dup2\n      mstore\n      0x20\n      add\n      0x00\n      keccak256\n      0x00\n        /* \"solidity_series.sol/lecturelabs.sol/lab6voting_contract.sol\":1521:1546  voters[msg.sender] = true */\n      0x0100\n      exp\n      dup2\n      sload\n      dup2\n      0xff\n      mul\n      not\n      and\n      swap1\n      dup4\n      iszero\n      iszero\n      mul\n      or\n      swap1\n      sstore\n      pop\n        /* \"solidity_series.sol/lecturelabs.sol/lab6voting_contract.sol\":1217:1554  function vote(string memory candidate) public {... */\n      pop\n      jump\t// out\n        /* \"#utility.yul\":7:187   */\n    tag_67:\n        /* \"#utility.yul\":55:132   */\n      0x4e487b7100000000000000000000000000000000000000000000000000000000\n        /* \"#utility.yul\":52:53   */\n      0x00\n        /* \"#utility.yul\":45:133   */\n      mstore\n        /* \"#utility.yul\":152:156   */\n      0x21\n        /* \"#utility.yul\":149:150   */\n      0x04\n        /* \"#utility.yul\":142:157   */\n      mstore\n        /* \"#utility.yul\":176:180   */\n      0x24\n        /* \"#utility.yul\":173:174   */\n      0x00\n        /* \"#utility.yul\":166:181   */\n      revert\n        /* \"#utility.yul\":193:312   */\n    tag_140:\n        /* \"#utility.yul\":280:281   */\n      0x02\n        /* \"#utility.yul\":273:278   */\n      dup2\n        /* \"#utility.yul\":270:282   */\n      lt\n        /* \"#utility.yul\":260:306   */\n      tag_203\n      jumpi\n        /* \"#utility.yul\":286:304   */\n      tag_204\n      tag_67\n      jump\t// in\n    tag_204:\n        /* \"#utility.yul\":260:306   */\n    tag_203:\n        /* \"#utility.yul\":193:312   */\n      pop\n      jump\t// out\n        /* \"#utility.yul\":318:457   */\n    tag_141:\n        /* \"#utility.yul\":369:376   */\n      0x00\n        /* \"#utility.yul\":398:403   */\n      dup2\n        /* \"#utility.yul\":387:403   */\n      swap1\n      pop\n        /* \"#utility.yul\":404:451   */\n      tag_206\n        /* \"#utility.yul\":445:450   */\n      dup3\n        /* \"#utility.yul\":404:451   */\n      tag_140\n      jump\t// in\n    tag_206:\n        /* \"#utility.yul\":318:457   */\n      swap2\n      swap1\n      pop\n      jump\t// out\n        /* \"#utility.yul\":463:602   */\n    tag_142:\n        /* \"#utility.yul\":525:534   */\n      0x00\n        /* \"#utility.yul\":558:596   */\n      tag_208\n        /* \"#utility.yul\":590:595   */\n      dup3\n        /* \"#utility.yul\":558:596   */\n      tag_141\n      jump\t// in\n    tag_208:\n        /* \"#utility.yul\":545:596   */\n      swap1\n      pop\n        /* \"#utility.yul\":463:602   */\n      swap2\n      swap1\n      pop\n      jump\t// out\n        /* \"#utility.yul\":608:763   */\n    tag_143:\n        /* \"#utility.yul\":707:756   */\n      tag_210\n        /* \"#utility.yul\":750:755   */\n      dup2\n        /* \"#utility.yul\":707:756   */\n      tag_142\n      jump\t// in\n    tag_210:\n        /* \"#utility.yul\":702:705   */\n      dup3\n        /* \"#utility.yul\":695:757   */\n      mstore\n        /* \"#utility.yul\":608:763   */\n      pop\n      pop\n      jump\t// out\n        /* \"#utility.yul\":769:1015   */\n    tag_20:\n        /* \"#utility.yul\":874:878   */\n      0x00\n        /* \"#utility.yul\":912:914   */\n      0x20\n        /* \"#utility.yul\":901:910   */\n      dup3\n        /* \"#utility.yul\":897:915   */\n      add\n        /* \"#utility.yul\":889:915   */\n      swap1\n      pop\n        /* \"#utility.yul\":925:1008   */\n      tag_212\n        /* \"#utility.yul\":1005:1006   */\n      0x00\n        /* \"#utility.yul\":994:1003   */\n      dup4\n        /* \"#utility.yul\":990:1007   */\n      add\n        /* \"#utility.yul\":981:987   */\n      dup5\n        /* \"#utility.yul\":925:1008   */\n      tag_143\n      jump\t// in\n    tag_212:\n        /* \"#utility.yul\":769:1015   */\n      swap3\n      swap2\n      pop\n      pop\n      jump\t// out\n        /* \"#utility.yul\":1021:1096   */\n    tag_144:\n        /* \"#utility.yul\":1054:1060   */\n      0x00\n        /* \"#utility.yul\":1087:1089   */\n      0x40\n        /* \"#utility.yul\":1081:1090   */\n      mload\n        /* \"#utility.yul\":1071:1090   */\n      swap1\n      pop\n        /* \"#utility.yul\":1021:1096   */\n      swap1\n      jump\t// out\n        /* \"#utility.yul\":1102:1219   */\n    tag_145:\n        /* \"#utility.yul\":1211:1212   */\n      0x00\n        /* \"#utility.yul\":1208:1209   */\n      0x00\n        /* \"#utility.yul\":1201:1213   */\n      revert\n        /* \"#utility.yul\":1225:1342   */\n    tag_146:\n        /* \"#utility.yul\":1334:1335   */\n      0x00\n        /* \"#utility.yul\":1331:1332   */\n      0x00\n        /* \"#utility.yul\":1324:1336   */\n      revert\n        /* \"#utility.yul\":1348:1425   */\n    tag_147:\n        /* \"#utility.yul\":1385:1392   */\n      0x00\n        /* \"#utility.yul\":1414:1419   */\n      dup2\n        /* \"#utility.yul\":1403:1419   */\n      swap1\n      pop\n        /* \"#utility.yul\":1348:1425   */\n      swap2\n      swap1\n      pop\n      jump\t// out\n        /* \"#utility.yul\":1431:1553   */\n    tag_148:\n        /* \"#utility.yul\":1504:1528   */\n      tag_218\n        /* \"#utility.yul\":1522:1527   */\n      dup2\n        /* \"#utility.yul\":1504:1528   */\n      tag_147\n      jump\t// in\n    tag_218:\n        /* \"#utility.yul\":1497:1502   */\n      dup2\n        /* \"#utility.yul\":1494:1529   */\n      eq\n        /* \"#utility.yul\":1484:1547   */\n      tag_219\n      jumpi\n        /* \"#utility.yul\":1543:1544   */\n      0x00\n        /* \"#utility.yul\":1540:1541   */\n      0x00\n        /* \"#utility.yul\":1533:1545   */\n      revert\n        /* \"#utility.yul\":1484:1547   */\n    tag_219:\n        /* \"#utility.yul\":1431:1553   */\n      pop\n      jump\t// out\n        /* \"#utility.yul\":1559:1698   */\n    tag_149:\n        /* \"#utility.yul\":1605:1610   */\n      0x00\n        /* \"#utility.yul\":1643:1649   */\n      dup2\n        /* \"#utility.yul\":1630:1650   */\n      calldataload\n        /* \"#utility.yul\":1621:1650   */\n      swap1\n      pop\n        /* \"#utility.yul\":1659:1692   */\n      tag_221\n        /* \"#utility.yul\":1686:1691   */\n      dup2\n        /* \"#utility.yul\":1659:1692   */\n      tag_148\n      jump\t// in\n    tag_221:\n        /* \"#utility.yul\":1559:1698   */\n      swap3\n      swap2\n      pop\n      pop\n      jump\t// out\n        /* \"#utility.yul\":1704:2033   */\n    tag_23:\n        /* \"#utility.yul\":1763:1769   */\n      0x00\n        /* \"#utility.yul\":1812:1814   */\n      0x20\n        /* \"#utility.yul\":1800:1809   */\n      dup3\n        /* \"#utility.yul\":1791:1798   */\n      dup5\n        /* \"#utility.yul\":1787:1810   */\n      sub\n        /* \"#utility.yul\":1783:1815   */\n      slt\n        /* \"#utility.yul\":1780:1899   */\n      iszero\n      tag_223\n      jumpi\n        /* \"#utility.yul\":1818:1897   */\n      tag_224\n      tag_145\n      jump\t// in\n    tag_224:\n        /* \"#utility.yul\":1780:1899   */\n    tag_223:\n        /* \"#utility.yul\":1938:1939   */\n      0x00\n        /* \"#utility.yul\":1963:2016   */\n      tag_225\n        /* \"#utility.yul\":2008:2015   */\n      dup5\n        /* \"#utility.yul\":1999:2005   */\n      dup3\n        /* \"#utility.yul\":1988:1997   */\n      dup6\n        /* \"#utility.yul\":1984:2006   */\n      add\n        /* \"#utility.yul\":1963:2016   */\n      tag_149\n      jump\t// in\n    tag_225:\n        /* \"#utility.yul\":1953:2016   */\n      swap2\n      pop\n        /* \"#utility.yul\":1909:2026   */\n      pop\n        /* \"#utility.yul\":1704:2033   */\n      swap3\n      swap2\n      pop\n      pop\n      jump\t// out\n        /* \"#utility.yul\":2039:2138   */\n    tag_150:\n        /* \"#utility.yul\":2091:2097   */\n      0x00\n        /* \"#utility.yul\":2125:2130   */\n      dup2\n        /* \"#utility.yul\":2119:2131   */\n      mload\n        /* \"#utility.yul\":2109:2131   */\n      swap1\n      pop\n        /* \"#utility.yul\":2039:2138   */\n      swap2\n      swap1\n      pop\n      jump\t// out\n        /* \"#utility.yul\":2144:2313   */\n    tag_151:\n        /* \"#utility.yul\":2228:2239   */\n      0x00\n        /* \"#utility.yul\":2262:2268   */\n      dup3\n        /* \"#utility.yul\":2257:2260   */\n      dup3\n        /* \"#utility.yul\":2250:2269   */\n      mstore\n        /* \"#utility.yul\":2302:2306   */\n      0x20\n        /* \"#utility.yul\":2297:2300   */\n      dup3\n        /* \"#utility.yul\":2293:2307   */\n      add\n        /* \"#utility.yul\":2278:2307   */\n      swap1\n      pop\n        /* \"#utility.yul\":2144:2313   */\n      swap3\n      swap2\n      pop\n      pop\n      jump\t// out\n        /* \"#utility.yul\":2319:2458   */\n    tag_152:\n        /* \"#utility.yul\":2408:2414   */\n      dup3\n        /* \"#utility.yul\":2403:2406   */\n      dup2\n        /* \"#utility.yul\":2398:2401   */\n      dup4\n        /* \"#utility.yul\":2392:2415   */\n      mcopy\n        /* \"#utility.yul\":2449:2450   */\n      0x00\n        /* \"#utility.yul\":2440:2446   */\n      dup4\n        /* \"#utility.yul\":2435:2438   */\n      dup4\n        /* \"#utility.yul\":2431:2447   */\n      add\n        /* \"#utility.yul\":2424:2451   */\n      mstore\n        /* \"#utility.yul\":2319:2458   */\n      pop\n      pop\n      pop\n      jump\t// out\n        /* \"#utility.yul\":2464:2566   */\n    tag_153:\n        /* \"#utility.yul\":2505:2511   */\n      0x00\n        /* \"#utility.yul\":2556:2558   */\n      0x1f\n        /* \"#utility.yul\":2552:2559   */\n      not\n        /* \"#utility.yul\":2547:2549   */\n      0x1f\n        /* \"#utility.yul\":2540:2545   */\n      dup4\n        /* \"#utility.yul\":2536:2550   */\n      add\n        /* \"#utility.yul\":2532:2560   */\n      and\n        /* \"#utility.yul\":2522:2560   */\n      swap1\n      pop\n        /* \"#utility.yul\":2464:2566   */\n      swap2\n      swap1\n      pop\n      jump\t// out\n        /* \"#utility.yul\":2572:2949   */\n    tag_154:\n        /* \"#utility.yul\":2660:2663   */\n      0x00\n        /* \"#utility.yul\":2688:2727   */\n      tag_231\n        /* \"#utility.yul\":2721:2726   */\n      dup3\n        /* \"#utility.yul\":2688:2727   */\n      tag_150\n      jump\t// in\n    tag_231:\n        /* \"#utility.yul\":2743:2814   */\n      tag_232\n        /* \"#utility.yul\":2807:2813   */\n      dup2\n        /* \"#utility.yul\":2802:2805   */\n      dup6\n        /* \"#utility.yul\":2743:2814   */\n      tag_151\n      jump\t// in\n    tag_232:\n        /* \"#utility.yul\":2736:2814   */\n      swap4\n      pop\n        /* \"#utility.yul\":2823:2888   */\n      tag_233\n        /* \"#utility.yul\":2881:2887   */\n      dup2\n        /* \"#utility.yul\":2876:2879   */\n      dup6\n        /* \"#utility.yul\":2869:2873   */\n      0x20\n        /* \"#utility.yul\":2862:2867   */\n      dup7\n        /* \"#utility.yul\":2858:2874   */\n      add\n        /* \"#utility.yul\":2823:2888   */\n      tag_152\n      jump\t// in\n    tag_233:\n        /* \"#utility.yul\":2913:2942   */\n      tag_234\n        /* \"#utility.yul\":2935:2941   */\n      dup2\n        /* \"#utility.yul\":2913:2942   */\n      tag_153\n      jump\t// in\n    tag_234:\n        /* \"#utility.yul\":2908:2911   */\n      dup5\n        /* \"#utility.yul\":2904:2943   */\n      add\n        /* \"#utility.yul\":2897:2943   */\n      swap2\n      pop\n        /* \"#utility.yul\":2664:2949   */\n      pop\n        /* \"#utility.yul\":2572:2949   */\n      swap3\n      swap2\n      pop\n      pop\n      jump\t// out\n        /* \"#utility.yul\":2955:3268   */\n    tag_26:\n        /* \"#utility.yul\":3068:3072   */\n      0x00\n        /* \"#utility.yul\":3106:3108   */\n      0x20\n        /* \"#utility.yul\":3095:3104   */\n      dup3\n        /* \"#utility.yul\":3091:3109   */\n      add\n        /* \"#utility.yul\":3083:3109   */\n      swap1\n      pop\n        /* \"#utility.yul\":3155:3164   */\n      dup2\n        /* \"#utility.yul\":3149:3153   */\n      dup2\n        /* \"#utility.yul\":3145:3165   */\n      sub\n        /* \"#utility.yul\":3141:3142   */\n      0x00\n        /* \"#utility.yul\":3130:3139   */\n      dup4\n        /* \"#utility.yul\":3126:3143   */\n      add\n        /* \"#utility.yul\":3119:3166   */\n      mstore\n        /* \"#utility.yul\":3183:3261   */\n      tag_236\n        /* \"#utility.yul\":3256:3260   */\n      dup2\n        /* \"#utility.yul\":3247:3253   */\n      dup5\n        /* \"#utility.yul\":3183:3261   */\n      tag_154\n      jump\t// in\n    tag_236:\n        /* \"#utility.yul\":3175:3261   */\n      swap1\n      pop\n        /* \"#utility.yul\":2955:3268   */\n      swap3\n      swap2\n      pop\n      pop\n      jump\t// out\n        /* \"#utility.yul\":3274:3391   */\n    tag_155:\n        /* \"#utility.yul\":3383:3384   */\n      0x00\n        /* \"#utility.yul\":3380:3381   */\n      0x00\n        /* \"#utility.yul\":3373:3385   */\n      revert\n        /* \"#utility.yul\":3397:3514   */\n    tag_156:\n        /* \"#utility.yul\":3506:3507   */\n      0x00\n        /* \"#utility.yul\":3503:3504   */\n      0x00\n        /* \"#utility.yul\":3496:3508   */\n      revert\n        /* \"#utility.yul\":3520:3700   */\n    tag_104:\n        /* \"#utility.yul\":3568:3645   */\n      0x4e487b7100000000000000000000000000000000000000000000000000000000\n        /* \"#utility.yul\":3565:3566   */\n      0x00\n        /* \"#utility.yul\":3558:3646   */\n      mstore\n        /* \"#utility.yul\":3665:3669   */\n      0x41\n        /* \"#utility.yul\":3662:3663   */\n      0x04\n        /* \"#utility.yul\":3655:3670   */\n      mstore\n        /* \"#utility.yul\":3689:3693   */\n      0x24\n        /* \"#utility.yul\":3686:3687   */\n      0x00\n        /* \"#utility.yul\":3679:3694   */\n      revert\n        /* \"#utility.yul\":3706:3987   */\n    tag_157:\n        /* \"#utility.yul\":3789:3816   */\n      tag_241\n        /* \"#utility.yul\":3811:3815   */\n      dup3\n        /* \"#utility.yul\":3789:3816   */\n      tag_153\n      jump\t// in\n    tag_241:\n        /* \"#utility.yul\":3781:3787   */\n      dup2\n        /* \"#utility.yul\":3777:3817   */\n      add\n        /* \"#utility.yul\":3919:3925   */\n      dup2\n        /* \"#utility.yul\":3907:3917   */\n      dup2\n        /* \"#utility.yul\":3904:3926   */\n      lt\n        /* \"#utility.yul\":3883:3901   */\n      0xffffffffffffffff\n        /* \"#utility.yul\":3871:3881   */\n      dup3\n        /* \"#utility.yul\":3868:3902   */\n      gt\n        /* \"#utility.yul\":3865:3927   */\n      or\n        /* \"#utility.yul\":3862:3950   */\n      iszero\n      tag_242\n      jumpi\n        /* \"#utility.yul\":3930:3948   */\n      tag_243\n      tag_104\n      jump\t// in\n    tag_243:\n        /* \"#utility.yul\":3862:3950   */\n    tag_242:\n        /* \"#utility.yul\":3970:3980   */\n      dup1\n        /* \"#utility.yul\":3966:3968   */\n      0x40\n        /* \"#utility.yul\":3959:3981   */\n      mstore\n        /* \"#utility.yul\":3749:3987   */\n      pop\n        /* \"#utility.yul\":3706:3987   */\n      pop\n      pop\n      jump\t// out\n        /* \"#utility.yul\":3993:4122   */\n    tag_158:\n        /* \"#utility.yul\":4027:4033   */\n      0x00\n        /* \"#utility.yul\":4054:4074   */\n      tag_245\n      tag_144\n      jump\t// in\n    tag_245:\n        /* \"#utility.yul\":4044:4074   */\n      swap1\n      pop\n        /* \"#utility.yul\":4083:4116   */\n      tag_246\n        /* \"#utility.yul\":4111:4115   */\n      dup3\n        /* \"#utility.yul\":4103:4109   */\n      dup3\n        /* \"#utility.yul\":4083:4116   */\n      tag_157\n      jump\t// in\n    tag_246:\n        /* \"#utility.yul\":3993:4122   */\n      swap2\n      swap1\n      pop\n      jump\t// out\n        /* \"#utility.yul\":4128:4436   */\n    tag_159:\n        /* \"#utility.yul\":4190:4194   */\n      0x00\n        /* \"#utility.yul\":4280:4298   */\n      0xffffffffffffffff\n        /* \"#utility.yul\":4272:4278   */\n      dup3\n        /* \"#utility.yul\":4269:4299   */\n      gt\n        /* \"#utility.yul\":4266:4322   */\n      iszero\n      tag_248\n      jumpi\n        /* \"#utility.yul\":4302:4320   */\n      tag_249\n      tag_104\n      jump\t// in\n    tag_249:\n        /* \"#utility.yul\":4266:4322   */\n    tag_248:\n        /* \"#utility.yul\":4340:4369   */\n      tag_250\n        /* \"#utility.yul\":4362:4368   */\n      dup3\n        /* \"#utility.yul\":4340:4369   */\n      tag_153\n      jump\t// in\n    tag_250:\n        /* \"#utility.yul\":4332:4369   */\n      swap1\n      pop\n        /* \"#utility.yul\":4424:4428   */\n      0x20\n        /* \"#utility.yul\":4418:4422   */\n      dup2\n        /* \"#utility.yul\":4414:4429   */\n      add\n        /* \"#utility.yul\":4406:4429   */\n      swap1\n      pop\n        /* \"#utility.yul\":4128:4436   */\n      swap2\n      swap1\n      pop\n      jump\t// out\n        /* \"#utility.yul\":4442:4590   */\n    tag_160:\n        /* \"#utility.yul\":4540:4546   */\n      dup3\n        /* \"#utility.yul\":4535:4538   */\n      dup2\n        /* \"#utility.yul\":4530:4533   */\n      dup4\n        /* \"#utility.yul\":4517:4547   */\n      calldatacopy\n        /* \"#utility.yul\":4581:4582   */\n      0x00\n        /* \"#utility.yul\":4572:4578   */\n      dup4\n        /* \"#utility.yul\":4567:4570   */\n      dup4\n        /* \"#utility.yul\":4563:4579   */\n      add\n        /* \"#utility.yul\":4556:4583   */\n      mstore\n        /* \"#utility.yul\":4442:4590   */\n      pop\n      pop\n      pop\n      jump\t// out\n        /* \"#utility.yul\":4596:5021   */\n    tag_161:\n        /* \"#utility.yul\":4674:4679   */\n      0x00\n        /* \"#utility.yul\":4699:4765   */\n      tag_253\n        /* \"#utility.yul\":4715:4764   */\n      tag_254\n        /* \"#utility.yul\":4757:4763   */\n      dup5\n        /* \"#utility.yul\":4715:4764   */\n      tag_159\n      jump\t// in\n    tag_254:\n        /* \"#utility.yul\":4699:4765   */\n      tag_158\n      jump\t// in\n    tag_253:\n        /* \"#utility.yul\":4690:4765   */\n      swap1\n      pop\n        /* \"#utility.yul\":4788:4794   */\n      dup3\n        /* \"#utility.yul\":4781:4786   */\n      dup2\n        /* \"#utility.yul\":4774:4795   */\n      mstore\n        /* \"#utility.yul\":4826:4830   */\n      0x20\n        /* \"#utility.yul\":4819:4824   */\n      dup2\n        /* \"#utility.yul\":4815:4831   */\n      add\n        /* \"#utility.yul\":4864:4867   */\n      dup5\n        /* \"#utility.yul\":4855:4861   */\n      dup5\n        /* \"#utility.yul\":4850:4853   */\n      dup5\n        /* \"#utility.yul\":4846:4862   */\n      add\n        /* \"#utility.yul\":4843:4868   */\n      gt\n        /* \"#utility.yul\":4840:4952   */\n      iszero\n      tag_255\n      jumpi\n        /* \"#utility.yul\":4871:4950   */\n      tag_256\n      tag_156\n      jump\t// in\n    tag_256:\n        /* \"#utility.yul\":4840:4952   */\n    tag_255:\n        /* \"#utility.yul\":4961:5015   */\n      tag_257\n        /* \"#utility.yul\":5008:5014   */\n      dup5\n        /* \"#utility.yul\":5003:5006   */\n      dup3\n        /* \"#utility.yul\":4998:5001   */\n      dup6\n        /* \"#utility.yul\":4961:5015   */\n      tag_160\n      jump\t// in\n    tag_257:\n        /* \"#utility.yul\":4680:5021   */\n      pop\n        /* \"#utility.yul\":4596:5021   */\n      swap4\n      swap3\n      pop\n      pop\n      pop\n      jump\t// out\n        /* \"#utility.yul\":5041:5381   */\n    tag_162:\n        /* \"#utility.yul\":5097:5102   */\n      0x00\n        /* \"#utility.yul\":5146:5149   */\n      dup3\n        /* \"#utility.yul\":5139:5143   */\n      0x1f\n        /* \"#utility.yul\":5131:5137   */\n      dup4\n        /* \"#utility.yul\":5127:5144   */\n      add\n        /* \"#utility.yul\":5123:5150   */\n      slt\n        /* \"#utility.yul\":5113:5235   */\n      tag_259\n      jumpi\n        /* \"#utility.yul\":5154:5233   */\n      tag_260\n      tag_155\n      jump\t// in\n    tag_260:\n        /* \"#utility.yul\":5113:5235   */\n    tag_259:\n        /* \"#utility.yul\":5271:5277   */\n      dup2\n        /* \"#utility.yul\":5258:5278   */\n      calldataload\n        /* \"#utility.yul\":5296:5375   */\n      tag_261\n        /* \"#utility.yul\":5371:5374   */\n      dup5\n        /* \"#utility.yul\":5363:5369   */\n      dup3\n        /* \"#utility.yul\":5356:5360   */\n      0x20\n        /* \"#utility.yul\":5348:5354   */\n      dup7\n        /* \"#utility.yul\":5344:5361   */\n      add\n        /* \"#utility.yul\":5296:5375   */\n      tag_161\n      jump\t// in\n    tag_261:\n        /* \"#utility.yul\":5287:5375   */\n      swap2\n      pop\n        /* \"#utility.yul\":5103:5381   */\n      pop\n        /* \"#utility.yul\":5041:5381   */\n      swap3\n      swap2\n      pop\n      pop\n      jump\t// out\n        /* \"#utility.yul\":5387:5896   */\n    tag_29:\n        /* \"#utility.yul\":5456:5462   */\n      0x00\n        /* \"#utility.yul\":5505:5507   */\n      0x20\n        /* \"#utility.yul\":5493:5502   */\n      dup3\n        /* \"#utility.yul\":5484:5491   */\n      dup5\n        /* \"#utility.yul\":5480:5503   */\n      sub\n        /* \"#utility.yul\":5476:5508   */\n      slt\n        /* \"#utility.yul\":5473:5592   */\n      iszero\n      tag_263\n      jumpi\n        /* \"#utility.yul\":5511:5590   */\n      tag_264\n      tag_145\n      jump\t// in\n    tag_264:\n        /* \"#utility.yul\":5473:5592   */\n    tag_263:\n        /* \"#utility.yul\":5659:5660   */\n      0x00\n        /* \"#utility.yul\":5648:5657   */\n      dup3\n        /* \"#utility.yul\":5644:5661   */\n      add\n        /* \"#utility.yul\":5631:5662   */\n      calldataload\n        /* \"#utility.yul\":5689:5707   */\n      0xffffffffffffffff\n        /* \"#utility.yul\":5681:5687   */\n      dup2\n        /* \"#utility.yul\":5678:5708   */\n      gt\n        /* \"#utility.yul\":5675:5792   */\n      iszero\n      tag_265\n      jumpi\n        /* \"#utility.yul\":5711:5790   */\n      tag_266\n      tag_146\n      jump\t// in\n    tag_266:\n        /* \"#utility.yul\":5675:5792   */\n    tag_265:\n        /* \"#utility.yul\":5816:5879   */\n      tag_267\n        /* \"#utility.yul\":5871:5878   */\n      dup5\n        /* \"#utility.yul\":5862:5868   */\n      dup3\n        /* \"#utility.yul\":5851:5860   */\n      dup6\n        /* \"#utility.yul\":5847:5869   */\n      add\n        /* \"#utility.yul\":5816:5879   */\n      tag_162\n      jump\t// in\n    tag_267:\n        /* \"#utility.yul\":5806:5879   */\n      swap2\n      pop\n        /* \"#utility.yul\":5602:5889   */\n      pop\n        /* \"#utility.yul\":5387:5896   */\n      swap3\n      swap2\n      pop\n      pop\n      jump\t// out\n        /* \"#utility.yul\":5902:5992   */\n    tag_163:\n        /* \"#utility.yul\":5936:5943   */\n      0x00\n        /* \"#utility.yul\":5979:5984   */\n      dup2\n        /* \"#utility.yul\":5972:5985   */\n      iszero\n        /* \"#utility.yul\":5965:5986   */\n      iszero\n        /* \"#utility.yul\":5954:5986   */\n      swap1\n      pop\n        /* \"#utility.yul\":5902:5992   */\n      swap2\n      swap1\n      pop\n      jump\t// out\n        /* \"#utility.yul\":5998:6107   */\n    tag_164:\n        /* \"#utility.yul\":6079:6100   */\n      tag_270\n        /* \"#utility.yul\":6094:6099   */\n      dup2\n        /* \"#utility.yul\":6079:6100   */\n      tag_163\n      jump\t// in\n    tag_270:\n        /* \"#utility.yul\":6074:6077   */\n      dup3\n        /* \"#utility.yul\":6067:6101   */\n      mstore\n        /* \"#utility.yul\":5998:6107   */\n      pop\n      pop\n      jump\t// out\n        /* \"#utility.yul\":6113:6323   */\n    tag_32:\n        /* \"#utility.yul\":6200:6204   */\n      0x00\n        /* \"#utility.yul\":6238:6240   */\n      0x20\n        /* \"#utility.yul\":6227:6236   */\n      dup3\n        /* \"#utility.yul\":6223:6241   */\n      add\n        /* \"#utility.yul\":6215:6241   */\n      swap1\n      pop\n        /* \"#utility.yul\":6251:6316   */\n      tag_272\n        /* \"#utility.yul\":6313:6314   */\n      0x00\n        /* \"#utility.yul\":6302:6311   */\n      dup4\n        /* \"#utility.yul\":6298:6315   */\n      add\n        /* \"#utility.yul\":6289:6295   */\n      dup5\n        /* \"#utility.yul\":6251:6316   */\n      tag_164\n      jump\t// in\n    tag_272:\n        /* \"#utility.yul\":6113:6323   */\n      swap3\n      swap2\n      pop\n      pop\n      jump\t// out\n        /* \"#utility.yul\":6329:6447   */\n    tag_165:\n        /* \"#utility.yul\":6416:6440   */\n      tag_274\n        /* \"#utility.yul\":6434:6439   */\n      dup2\n        /* \"#utility.yul\":6416:6440   */\n      tag_147\n      jump\t// in\n    tag_274:\n        /* \"#utility.yul\":6411:6414   */\n      dup3\n        /* \"#utility.yul\":6404:6441   */\n      mstore\n        /* \"#utility.yul\":6329:6447   */\n      pop\n      pop\n      jump\t// out\n        /* \"#utility.yul\":6453:6675   */\n    tag_37:\n        /* \"#utility.yul\":6546:6550   */\n      0x00\n        /* \"#utility.yul\":6584:6586   */\n      0x20\n        /* \"#utility.yul\":6573:6582   */\n      dup3\n        /* \"#utility.yul\":6569:6587   */\n      add\n        /* \"#utility.yul\":6561:6587   */\n      swap1\n      pop\n        /* \"#utility.yul\":6597:6668   */\n      tag_276\n        /* \"#utility.yul\":6665:6666   */\n      0x00\n        /* \"#utility.yul\":6654:6663   */\n      dup4\n        /* \"#utility.yul\":6650:6667   */\n      add\n        /* \"#utility.yul\":6641:6647   */\n      dup5\n        /* \"#utility.yul\":6597:6668   */\n      tag_165\n      jump\t// in\n    tag_276:\n        /* \"#utility.yul\":6453:6675   */\n      swap3\n      swap2\n      pop\n      pop\n      jump\t// out\n        /* \"#utility.yul\":6681:6807   */\n    tag_166:\n        /* \"#utility.yul\":6718:6725   */\n      0x00\n        /* \"#utility.yul\":6758:6800   */\n      0xffffffffffffffffffffffffffffffffffffffff\n        /* \"#utility.yul\":6751:6756   */\n      dup3\n        /* \"#utility.yul\":6747:6801   */\n      and\n        /* \"#utility.yul\":6736:6801   */\n      swap1\n      pop\n        /* \"#utility.yul\":6681:6807   */\n      swap2\n      swap1\n      pop\n      jump\t// out\n        /* \"#utility.yul\":6813:6909   */\n    tag_167:\n        /* \"#utility.yul\":6850:6857   */\n      0x00\n        /* \"#utility.yul\":6879:6903   */\n      tag_279\n        /* \"#utility.yul\":6897:6902   */\n      dup3\n        /* \"#utility.yul\":6879:6903   */\n      tag_166\n      jump\t// in\n    tag_279:\n        /* \"#utility.yul\":6868:6903   */\n      swap1\n      pop\n        /* \"#utility.yul\":6813:6909   */\n      swap2\n      swap1\n      pop\n      jump\t// out\n        /* \"#utility.yul\":6915:7033   */\n    tag_168:\n        /* \"#utility.yul\":7002:7026   */\n      tag_281\n        /* \"#utility.yul\":7020:7025   */\n      dup2\n        /* \"#utility.yul\":7002:7026   */\n      tag_167\n      jump\t// in\n    tag_281:\n        /* \"#utility.yul\":6997:7000   */\n      dup3\n        /* \"#utility.yul\":6990:7027   */\n      mstore\n        /* \"#utility.yul\":6915:7033   */\n      pop\n      pop\n      jump\t// out\n        /* \"#utility.yul\":7039:7261   */\n    tag_41:\n        /* \"#utility.yul\":7132:7136   */\n      0x00\n        /* \"#utility.yul\":7170:7172   */\n      0x20\n        /* \"#utility.yul\":7159:7168   */\n      dup3\n        /* \"#utility.yul\":7155:7173   */\n      add\n        /* \"#utility.yul\":7147:7173   */\n      swap1\n      pop\n        /* \"#utility.yul\":7183:7254   */\n      tag_283\n        /* \"#utility.yul\":7251:7252   */\n      0x00\n        /* \"#utility.yul\":7240:7249   */\n      dup4\n        /* \"#utility.yul\":7236:7253   */\n      add\n        /* \"#utility.yul\":7227:7233   */\n      dup5\n        /* \"#utility.yul\":7183:7254   */\n      tag_168\n      jump\t// in\n    tag_283:\n        /* \"#utility.yul\":7039:7261   */\n      swap3\n      swap2\n      pop\n      pop\n      jump\t// out\n        /* \"#utility.yul\":7267:7389   */\n    tag_169:\n        /* \"#utility.yul\":7340:7364   */\n      tag_285\n        /* \"#utility.yul\":7358:7363   */\n      dup2\n        /* \"#utility.yul\":7340:7364   */\n      tag_167\n      jump\t// in\n    tag_285:\n        /* \"#utility.yul\":7333:7338   */\n      dup2\n        /* \"#utility.yul\":7330:7365   */\n      eq\n        /* \"#utility.yul\":7320:7383   */\n      tag_286\n      jumpi\n        /* \"#utility.yul\":7379:7380   */\n      0x00\n        /* \"#utility.yul\":7376:7377   */\n      0x00\n        /* \"#utility.yul\":7369:7381   */\n      revert\n        /* \"#utility.yul\":7320:7383   */\n    tag_286:\n        /* \"#utility.yul\":7267:7389   */\n      pop\n      jump\t// out\n        /* \"#utility.yul\":7395:7534   */\n    tag_170:\n        /* \"#utility.yul\":7441:7446   */\n      0x00\n        /* \"#utility.yul\":7479:7485   */\n      dup2\n        /* \"#utility.yul\":7466:7486   */\n      calldataload\n        /* \"#utility.yul\":7457:7486   */\n      swap1\n      pop\n        /* \"#utility.yul\":7495:7528   */\n      tag_288\n        /* \"#utility.yul\":7522:7527   */\n      dup2\n        /* \"#utility.yul\":7495:7528   */\n      tag_169\n      jump\t// in\n    tag_288:\n        /* \"#utility.yul\":7395:7534   */\n      swap3\n      swap2\n      pop\n      pop\n      jump\t// out\n        /* \"#utility.yul\":7540:7869   */\n    tag_48:\n        /* \"#utility.yul\":7599:7605   */\n      0x00\n        /* \"#utility.yul\":7648:7650   */\n      0x20\n        /* \"#utility.yul\":7636:7645   */\n      dup3\n        /* \"#utility.yul\":7627:7634   */\n      dup5\n        /* \"#utility.yul\":7623:7646   */\n      sub\n        /* \"#utility.yul\":7619:7651   */\n      slt\n        /* \"#utility.yul\":7616:7735   */\n      iszero\n      tag_290\n      jumpi\n        /* \"#utility.yul\":7654:7733   */\n      tag_291\n      tag_145\n      jump\t// in\n    tag_291:\n        /* \"#utility.yul\":7616:7735   */\n    tag_290:\n        /* \"#utility.yul\":7774:7775   */\n      0x00\n        /* \"#utility.yul\":7799:7852   */\n      tag_292\n        /* \"#utility.yul\":7844:7851   */\n      dup5\n        /* \"#utility.yul\":7835:7841   */\n      dup3\n        /* \"#utility.yul\":7824:7833   */\n      dup6\n        /* \"#utility.yul\":7820:7842   */\n      add\n        /* \"#utility.yul\":7799:7852   */\n      tag_170\n      jump\t// in\n    tag_292:\n        /* \"#utility.yul\":7789:7852   */\n      swap2\n      pop\n        /* \"#utility.yul\":7745:7862   */\n      pop\n        /* \"#utility.yul\":7540:7869   */\n      swap3\n      swap2\n      pop\n      pop\n      jump\t// out\n        /* \"#utility.yul\":7875:7999   */\n    tag_171:\n        /* \"#utility.yul\":7952:7958   */\n      0x00\n        /* \"#utility.yul\":7986:7991   */\n      dup2\n        /* \"#utility.yul\":7980:7992   */\n      mload\n        /* \"#utility.yul\":7970:7992   */\n      swap1\n      pop\n        /* \"#utility.yul\":7875:7999   */\n      swap2\n      swap1\n      pop\n      jump\t// out\n        /* \"#utility.yul\":8005:8199   */\n    tag_172:\n        /* \"#utility.yul\":8114:8125   */\n      0x00\n        /* \"#utility.yul\":8148:8154   */\n      dup3\n        /* \"#utility.yul\":8143:8146   */\n      dup3\n        /* \"#utility.yul\":8136:8155   */\n      mstore\n        /* \"#utility.yul\":8188:8192   */\n      0x20\n        /* \"#utility.yul\":8183:8186   */\n      dup3\n        /* \"#utility.yul\":8179:8193   */\n      add\n        /* \"#utility.yul\":8164:8193   */\n      swap1\n      pop\n        /* \"#utility.yul\":8005:8199   */\n      swap3\n      swap2\n      pop\n      pop\n      jump\t// out\n        /* \"#utility.yul\":8205:8347   */\n    tag_173:\n        /* \"#utility.yul\":8282:8286   */\n      0x00\n        /* \"#utility.yul\":8305:8308   */\n      dup2\n        /* \"#utility.yul\":8297:8308   */\n      swap1\n      pop\n        /* \"#utility.yul\":8335:8339   */\n      0x20\n        /* \"#utility.yul\":8330:8333   */\n      dup3\n        /* \"#utility.yul\":8326:8340   */\n      add\n        /* \"#utility.yul\":8318:8340   */\n      swap1\n      pop\n        /* \"#utility.yul\":8205:8347   */\n      swap2\n      swap1\n      pop\n      jump\t// out\n        /* \"#utility.yul\":8353:8512   */\n    tag_174:\n        /* \"#utility.yul\":8427:8438   */\n      0x00\n        /* \"#utility.yul\":8461:8467   */\n      dup3\n        /* \"#utility.yul\":8456:8459   */\n      dup3\n        /* \"#utility.yul\":8449:8468   */\n      mstore\n        /* \"#utility.yul\":8501:8505   */\n      0x20\n        /* \"#utility.yul\":8496:8499   */\n      dup3\n        /* \"#utility.yul\":8492:8506   */\n      add\n        /* \"#utility.yul\":8477:8506   */\n      swap1\n      pop\n        /* \"#utility.yul\":8353:8512   */\n      swap3\n      swap2\n      pop\n      pop\n      jump\t// out\n        /* \"#utility.yul\":8518:8875   */\n    tag_175:\n        /* \"#utility.yul\":8596:8599   */\n      0x00\n        /* \"#utility.yul\":8624:8663   */\n      tag_298\n        /* \"#utility.yul\":8657:8662   */\n      dup3\n        /* \"#utility.yul\":8624:8663   */\n      tag_150\n      jump\t// in\n    tag_298:\n        /* \"#utility.yul\":8679:8740   */\n      tag_299\n        /* \"#utility.yul\":8733:8739   */\n      dup2\n        /* \"#utility.yul\":8728:8731   */\n      dup6\n        /* \"#utility.yul\":8679:8740   */\n      tag_174\n      jump\t// in\n    tag_299:\n        /* \"#utility.yul\":8672:8740   */\n      swap4\n      pop\n        /* \"#utility.yul\":8749:8814   */\n      tag_300\n        /* \"#utility.yul\":8807:8813   */\n      dup2\n        /* \"#utility.yul\":8802:8805   */\n      dup6\n        /* \"#utility.yul\":8795:8799   */\n      0x20\n        /* \"#utility.yul\":8788:8793   */\n      dup7\n        /* \"#utility.yul\":8784:8800   */\n      add\n        /* \"#utility.yul\":8749:8814   */\n      tag_152\n      jump\t// in\n    tag_300:\n        /* \"#utility.yul\":8839:8868   */\n      tag_301\n        /* \"#utility.yul\":8861:8867   */\n      dup2\n        /* \"#utility.yul\":8839:8868   */\n      tag_153\n      jump\t// in\n    tag_301:\n        /* \"#utility.yul\":8834:8837   */\n      dup5\n        /* \"#utility.yul\":8830:8869   */\n      add\n        /* \"#utility.yul\":8823:8869   */\n      swap2\n      pop\n        /* \"#utility.yul\":8600:8875   */\n      pop\n        /* \"#utility.yul\":8518:8875   */\n      swap3\n      swap2\n      pop\n      pop\n      jump\t// out\n        /* \"#utility.yul\":8881:9077   */\n    tag_176:\n        /* \"#utility.yul\":8970:8980   */\n      0x00\n        /* \"#utility.yul\":9005:9071   */\n      tag_303\n        /* \"#utility.yul\":9067:9070   */\n      dup4\n        /* \"#utility.yul\":9059:9065   */\n      dup4\n        /* \"#utility.yul\":9005:9071   */\n      tag_175\n      jump\t// in\n    tag_303:\n        /* \"#utility.yul\":8991:9071   */\n      swap1\n      pop\n        /* \"#utility.yul\":8881:9077   */\n      swap3\n      swap2\n      pop\n      pop\n      jump\t// out\n        /* \"#utility.yul\":9083:9206   */\n    tag_177:\n        /* \"#utility.yul\":9163:9167   */\n      0x00\n        /* \"#utility.yul\":9195:9199   */\n      0x20\n        /* \"#utility.yul\":9190:9193   */\n      dup3\n        /* \"#utility.yul\":9186:9200   */\n      add\n        /* \"#utility.yul\":9178:9200   */\n      swap1\n      pop\n        /* \"#utility.yul\":9083:9206   */\n      swap2\n      swap1\n      pop\n      jump\t// out\n        /* \"#utility.yul\":9240:10231   */\n    tag_178:\n        /* \"#utility.yul\":9379:9382   */\n      0x00\n        /* \"#utility.yul\":9408:9472   */\n      tag_306\n        /* \"#utility.yul\":9466:9471   */\n      dup3\n        /* \"#utility.yul\":9408:9472   */\n      tag_171\n      jump\t// in\n    tag_306:\n        /* \"#utility.yul\":9488:9584   */\n      tag_307\n        /* \"#utility.yul\":9577:9583   */\n      dup2\n        /* \"#utility.yul\":9572:9575   */\n      dup6\n        /* \"#utility.yul\":9488:9584   */\n      tag_172\n      jump\t// in\n    tag_307:\n        /* \"#utility.yul\":9481:9584   */\n      swap4\n      pop\n        /* \"#utility.yul\":9610:9613   */\n      dup4\n        /* \"#utility.yul\":9655:9659   */\n      0x20\n        /* \"#utility.yul\":9647:9653   */\n      dup3\n        /* \"#utility.yul\":9643:9660   */\n      mul\n        /* \"#utility.yul\":9638:9641   */\n      dup6\n        /* \"#utility.yul\":9634:9661   */\n      add\n        /* \"#utility.yul\":9685:9751   */\n      tag_308\n        /* \"#utility.yul\":9745:9750   */\n      dup6\n        /* \"#utility.yul\":9685:9751   */\n      tag_173\n      jump\t// in\n    tag_308:\n        /* \"#utility.yul\":9774:9781   */\n      dup1\n        /* \"#utility.yul\":9805:9806   */\n      0x00\n        /* \"#utility.yul\":9790:10186   */\n    tag_309:\n        /* \"#utility.yul\":9815:9821   */\n      dup6\n        /* \"#utility.yul\":9812:9813   */\n      dup2\n        /* \"#utility.yul\":9809:9822   */\n      lt\n        /* \"#utility.yul\":9790:10186   */\n      iszero\n      tag_311\n      jumpi\n        /* \"#utility.yul\":9886:9895   */\n      dup5\n        /* \"#utility.yul\":9880:9884   */\n      dup5\n        /* \"#utility.yul\":9876:9896   */\n      sub\n        /* \"#utility.yul\":9871:9874   */\n      dup10\n        /* \"#utility.yul\":9864:9897   */\n      mstore\n        /* \"#utility.yul\":9937:9943   */\n      dup2\n        /* \"#utility.yul\":9931:9944   */\n      mload\n        /* \"#utility.yul\":9965:10049   */\n      tag_312\n        /* \"#utility.yul\":10044:10048   */\n      dup6\n        /* \"#utility.yul\":10029:10042   */\n      dup3\n        /* \"#utility.yul\":9965:10049   */\n      tag_176\n      jump\t// in\n    tag_312:\n        /* \"#utility.yul\":9957:10049   */\n      swap5\n      pop\n        /* \"#utility.yul\":10072:10142   */\n      tag_313\n        /* \"#utility.yul\":10135:10141   */\n      dup4\n        /* \"#utility.yul\":10072:10142   */\n      tag_177\n      jump\t// in\n    tag_313:\n        /* \"#utility.yul\":10062:10142   */\n      swap3\n      pop\n        /* \"#utility.yul\":10171:10175   */\n      0x20\n        /* \"#utility.yul\":10166:10169   */\n      dup11\n        /* \"#utility.yul\":10162:10176   */\n      add\n        /* \"#utility.yul\":10155:10176   */\n      swap10\n      pop\n        /* \"#utility.yul\":9850:10186   */\n      pop\n        /* \"#utility.yul\":9837:9838   */\n      0x01\n        /* \"#utility.yul\":9834:9835   */\n      dup2\n        /* \"#utility.yul\":9830:9839   */\n      add\n        /* \"#utility.yul\":9825:9839   */\n      swap1\n      pop\n        /* \"#utility.yul\":9790:10186   */\n      jump(tag_309)\n    tag_311:\n        /* \"#utility.yul\":9794:9808   */\n      pop\n        /* \"#utility.yul\":10202:10206   */\n      dup3\n        /* \"#utility.yul\":10195:10206   */\n      swap8\n      pop\n        /* \"#utility.yul\":10222:10225   */\n      dup8\n        /* \"#utility.yul\":10215:10225   */\n      swap6\n      pop\n        /* \"#utility.yul\":9384:10231   */\n      pop\n      pop\n      pop\n      pop\n      pop\n        /* \"#utility.yul\":9240:10231   */\n      swap3\n      swap2\n      pop\n      pop\n      jump\t// out\n        /* \"#utility.yul\":10237:10351   */\n    tag_179:\n        /* \"#utility.yul\":10304:10310   */\n      0x00\n        /* \"#utility.yul\":10338:10343   */\n      dup2\n        /* \"#utility.yul\":10332:10344   */\n      mload\n        /* \"#utility.yul\":10322:10344   */\n      swap1\n      pop\n        /* \"#utility.yul\":10237:10351   */\n      swap2\n      swap1\n      pop\n      jump\t// out\n        /* \"#utility.yul\":10357:10541   */\n    tag_180:\n        /* \"#utility.yul\":10456:10467   */\n      0x00\n        /* \"#utility.yul\":10490:10496   */\n      dup3\n        /* \"#utility.yul\":10485:10488   */\n      dup3\n        /* \"#utility.yul\":10478:10497   */\n      mstore\n        /* \"#utility.yul\":10530:10534   */\n      0x20\n        /* \"#utility.yul\":10525:10528   */\n      dup3\n        /* \"#utility.yul\":10521:10535   */\n      add\n        /* \"#utility.yul\":10506:10535   */\n      swap1\n      pop\n        /* \"#utility.yul\":10357:10541   */\n      swap3\n      swap2\n      pop\n      pop\n      jump\t// out\n        /* \"#utility.yul\":10547:10679   */\n    tag_181:\n        /* \"#utility.yul\":10614:10618   */\n      0x00\n        /* \"#utility.yul\":10637:10640   */\n      dup2\n        /* \"#utility.yul\":10629:10640   */\n      swap1\n      pop\n        /* \"#utility.yul\":10667:10671   */\n      0x20\n        /* \"#utility.yul\":10662:10665   */\n      dup3\n        /* \"#utility.yul\":10658:10672   */\n      add\n        /* \"#utility.yul\":10650:10672   */\n      swap1\n      pop\n        /* \"#utility.yul\":10547:10679   */\n      swap2\n      swap1\n      pop\n      jump\t// out\n        /* \"#utility.yul\":10685:10793   */\n    tag_182:\n        /* \"#utility.yul\":10762:10786   */\n      tag_318\n        /* \"#utility.yul\":10780:10785   */\n      dup2\n        /* \"#utility.yul\":10762:10786   */\n      tag_147\n      jump\t// in\n    tag_318:\n        /* \"#utility.yul\":10757:10760   */\n      dup3\n        /* \"#utility.yul\":10750:10787   */\n      mstore\n        /* \"#utility.yul\":10685:10793   */\n      pop\n      pop\n      jump\t// out\n        /* \"#utility.yul\":10799:10978   */\n    tag_183:\n        /* \"#utility.yul\":10868:10878   */\n      0x00\n        /* \"#utility.yul\":10889:10935   */\n      tag_320\n        /* \"#utility.yul\":10931:10934   */\n      dup4\n        /* \"#utility.yul\":10923:10929   */\n      dup4\n        /* \"#utility.yul\":10889:10935   */\n      tag_182\n      jump\t// in\n    tag_320:\n        /* \"#utility.yul\":10967:10971   */\n      0x20\n        /* \"#utility.yul\":10962:10965   */\n      dup4\n        /* \"#utility.yul\":10958:10972   */\n      add\n        /* \"#utility.yul\":10944:10972   */\n      swap1\n      pop\n        /* \"#utility.yul\":10799:10978   */\n      swap3\n      swap2\n      pop\n      pop\n      jump\t// out\n        /* \"#utility.yul\":10984:11097   */\n    tag_184:\n        /* \"#utility.yul\":11054:11058   */\n      0x00\n        /* \"#utility.yul\":11086:11090   */\n      0x20\n        /* \"#utility.yul\":11081:11084   */\n      dup3\n        /* \"#utility.yul\":11077:11091   */\n      add\n        /* \"#utility.yul\":11069:11091   */\n      swap1\n      pop\n        /* \"#utility.yul\":10984:11097   */\n      swap2\n      swap1\n      pop\n      jump\t// out\n        /* \"#utility.yul\":11133:11865   */\n    tag_185:\n        /* \"#utility.yul\":11252:11255   */\n      0x00\n        /* \"#utility.yul\":11281:11335   */\n      tag_323\n        /* \"#utility.yul\":11329:11334   */\n      dup3\n        /* \"#utility.yul\":11281:11335   */\n      tag_179\n      jump\t// in\n    tag_323:\n        /* \"#utility.yul\":11351:11437   */\n      tag_324\n        /* \"#utility.yul\":11430:11436   */\n      dup2\n        /* \"#utility.yul\":11425:11428   */\n      dup6\n        /* \"#utility.yul\":11351:11437   */\n      tag_180\n      jump\t// in\n    tag_324:\n        /* \"#utility.yul\":11344:11437   */\n      swap4\n      pop\n        /* \"#utility.yul\":11461:11517   */\n      tag_325\n        /* \"#utility.yul\":11511:11516   */\n      dup4\n        /* \"#utility.yul\":11461:11517   */\n      tag_181\n      jump\t// in\n    tag_325:\n        /* \"#utility.yul\":11540:11547   */\n      dup1\n        /* \"#utility.yul\":11571:11572   */\n      0x00\n        /* \"#utility.yul\":11556:11840   */\n    tag_326:\n        /* \"#utility.yul\":11581:11587   */\n      dup4\n        /* \"#utility.yul\":11578:11579   */\n      dup2\n        /* \"#utility.yul\":11575:11588   */\n      lt\n        /* \"#utility.yul\":11556:11840   */\n      iszero\n      tag_328\n      jumpi\n        /* \"#utility.yul\":11657:11663   */\n      dup2\n        /* \"#utility.yul\":11651:11664   */\n      mload\n        /* \"#utility.yul\":11684:11747   */\n      tag_329\n        /* \"#utility.yul\":11743:11746   */\n      dup9\n        /* \"#utility.yul\":11728:11741   */\n      dup3\n        /* \"#utility.yul\":11684:11747   */\n      tag_183\n      jump\t// in\n    tag_329:\n        /* \"#utility.yul\":11677:11747   */\n      swap8\n      pop\n        /* \"#utility.yul\":11770:11830   */\n      tag_330\n        /* \"#utility.yul\":11823:11829   */\n      dup4\n        /* \"#utility.yul\":11770:11830   */\n      tag_184\n      jump\t// in\n    tag_330:\n        /* \"#utility.yul\":11760:11830   */\n      swap3\n      pop\n        /* \"#utility.yul\":11616:11840   */\n      pop\n        /* \"#utility.yul\":11603:11604   */\n      0x01\n        /* \"#utility.yul\":11600:11601   */\n      dup2\n        /* \"#utility.yul\":11596:11605   */\n      add\n        /* \"#utility.yul\":11591:11605   */\n      swap1\n      pop\n        /* \"#utility.yul\":11556:11840   */\n      jump(tag_326)\n    tag_328:\n        /* \"#utility.yul\":11560:11574   */\n      pop\n        /* \"#utility.yul\":11856:11859   */\n      dup6\n        /* \"#utility.yul\":11849:11859   */\n      swap4\n      pop\n        /* \"#utility.yul\":11257:11865   */\n      pop\n      pop\n      pop\n        /* \"#utility.yul\":11133:11865   */\n      swap3\n      swap2\n      pop\n      pop\n      jump\t// out\n        /* \"#utility.yul\":11871:12545   */\n    tag_56:\n        /* \"#utility.yul\":12112:12116   */\n      0x00\n        /* \"#utility.yul\":12150:12152   */\n      0x40\n        /* \"#utility.yul\":12139:12148   */\n      dup3\n        /* \"#utility.yul\":12135:12153   */\n      add\n        /* \"#utility.yul\":12127:12153   */\n      swap1\n      pop\n        /* \"#utility.yul\":12199:12208   */\n      dup2\n        /* \"#utility.yul\":12193:12197   */\n      dup2\n        /* \"#utility.yul\":12189:12209   */\n      sub\n        /* \"#utility.yul\":12185:12186   */\n      0x00\n        /* \"#utility.yul\":12174:12183   */\n      dup4\n        /* \"#utility.yul\":12170:12187   */\n      add\n        /* \"#utility.yul\":12163:12210   */\n      mstore\n        /* \"#utility.yul\":12227:12355   */\n      tag_332\n        /* \"#utility.yul\":12350:12354   */\n      dup2\n        /* \"#utility.yul\":12341:12347   */\n      dup6\n        /* \"#utility.yul\":12227:12355   */\n      tag_178\n      jump\t// in\n    tag_332:\n        /* \"#utility.yul\":12219:12355   */\n      swap1\n      pop\n        /* \"#utility.yul\":12402:12411   */\n      dup2\n        /* \"#utility.yul\":12396:12400   */\n      dup2\n        /* \"#utility.yul\":12392:12412   */\n      sub\n        /* \"#utility.yul\":12387:12389   */\n      0x20\n        /* \"#utility.yul\":12376:12385   */\n      dup4\n        /* \"#utility.yul\":12372:12390   */\n      add\n        /* \"#utility.yul\":12365:12413   */\n      mstore\n        /* \"#utility.yul\":12430:12538   */\n      tag_333\n        /* \"#utility.yul\":12533:12537   */\n      dup2\n        /* \"#utility.yul\":12524:12530   */\n      dup5\n        /* \"#utility.yul\":12430:12538   */\n      tag_185\n      jump\t// in\n    tag_333:\n        /* \"#utility.yul\":12422:12538   */\n      swap1\n      pop\n        /* \"#utility.yul\":11871:12545   */\n      swap4\n      swap3\n      pop\n      pop\n      pop\n      jump\t// out\n        /* \"#utility.yul\":12551:12776   */\n    tag_186:\n        /* \"#utility.yul\":12691:12725   */\n      0x4f6e6c7920746865206f776e65722063616e2063616c6c20746869732066756e\n        /* \"#utility.yul\":12687:12688   */\n      0x00\n        /* \"#utility.yul\":12679:12685   */\n      dup3\n        /* \"#utility.yul\":12675:12689   */\n      add\n        /* \"#utility.yul\":12668:12726   */\n      mstore\n        /* \"#utility.yul\":12760:12768   */\n      0x6374696f6e2e0000000000000000000000000000000000000000000000000000\n        /* \"#utility.yul\":12755:12757   */\n      0x20\n        /* \"#utility.yul\":12747:12753   */\n      dup3\n        /* \"#utility.yul\":12743:12758   */\n      add\n        /* \"#utility.yul\":12736:12769   */\n      mstore\n        /* \"#utility.yul\":12551:12776   */\n      pop\n      jump\t// out\n        /* \"#utility.yul\":12782:13148   */\n    tag_187:\n        /* \"#utility.yul\":12924:12927   */\n      0x00\n        /* \"#utility.yul\":12945:13012   */\n      tag_336\n        /* \"#utility.yul\":13009:13011   */\n      0x26\n        /* \"#utility.yul\":13004:13007   */\n      dup4\n        /* \"#utility.yul\":12945:13012   */\n      tag_151\n      jump\t// in\n    tag_336:\n        /* \"#utility.yul\":12938:13012   */\n      swap2\n      pop\n        /* \"#utility.yul\":13021:13114   */\n      tag_337\n        /* \"#utility.yul\":13110:13113   */\n      dup3\n        /* \"#utility.yul\":13021:13114   */\n      tag_186\n      jump\t// in\n    tag_337:\n        /* \"#utility.yul\":13139:13141   */\n      0x40\n        /* \"#utility.yul\":13134:13137   */\n      dup3\n        /* \"#utility.yul\":13130:13142   */\n      add\n        /* \"#utility.yul\":13123:13142   */\n      swap1\n      pop\n        /* \"#utility.yul\":12782:13148   */\n      swap2\n      swap1\n      pop\n      jump\t// out\n        /* \"#utility.yul\":13154:13573   */\n    tag_63:\n        /* \"#utility.yul\":13320:13324   */\n      0x00\n        /* \"#utility.yul\":13358:13360   */\n      0x20\n        /* \"#utility.yul\":13347:13356   */\n      dup3\n        /* \"#utility.yul\":13343:13361   */\n      add\n        /* \"#utility.yul\":13335:13361   */\n      swap1\n      pop\n        /* \"#utility.yul\":13407:13416   */\n      dup2\n        /* \"#utility.yul\":13401:13405   */\n      dup2\n        /* \"#utility.yul\":13397:13417   */\n      sub\n        /* \"#utility.yul\":13393:13394   */\n      0x00\n        /* \"#utility.yul\":13382:13391   */\n      dup4\n        /* \"#utility.yul\":13378:13395   */\n      add\n        /* \"#utility.yul\":13371:13418   */\n      mstore\n        /* \"#utility.yul\":13435:13566   */\n      tag_339\n        /* \"#utility.yul\":13561:13565   */\n      dup2\n        /* \"#utility.yul\":13435:13566   */\n      tag_187\n      jump\t// in\n    tag_339:\n        /* \"#utility.yul\":13427:13566   */\n      swap1\n      pop\n        /* \"#utility.yul\":13154:13573   */\n      swap2\n      swap1\n      pop\n      jump\t// out\n        /* \"#utility.yul\":13579:13759   */\n    tag_188:\n        /* \"#utility.yul\":13627:13704   */\n      0x4e487b7100000000000000000000000000000000000000000000000000000000\n        /* \"#utility.yul\":13624:13625   */\n      0x00\n        /* \"#utility.yul\":13617:13705   */\n      mstore\n        /* \"#utility.yul\":13724:13728   */\n      0x22\n        /* \"#utility.yul\":13721:13722   */\n      0x04\n        /* \"#utility.yul\":13714:13729   */\n      mstore\n        /* \"#utility.yul\":13748:13752   */\n      0x24\n        /* \"#utility.yul\":13745:13746   */\n      0x00\n        /* \"#utility.yul\":13738:13753   */\n      revert\n        /* \"#utility.yul\":13765:14085   */\n    tag_71:\n        /* \"#utility.yul\":13809:13815   */\n      0x00\n        /* \"#utility.yul\":13846:13847   */\n      0x02\n        /* \"#utility.yul\":13840:13844   */\n      dup3\n        /* \"#utility.yul\":13836:13848   */\n      div\n        /* \"#utility.yul\":13826:13848   */\n      swap1\n      pop\n        /* \"#utility.yul\":13893:13894   */\n      0x01\n        /* \"#utility.yul\":13887:13891   */\n      dup3\n        /* \"#utility.yul\":13883:13895   */\n      and\n        /* \"#utility.yul\":13914:13932   */\n      dup1\n        /* \"#utility.yul\":13904:13985   */\n      tag_342\n      jumpi\n        /* \"#utility.yul\":13970:13974   */\n      0x7f\n        /* \"#utility.yul\":13962:13968   */\n      dup3\n        /* \"#utility.yul\":13958:13975   */\n      and\n        /* \"#utility.yul\":13948:13975   */\n      swap2\n      pop\n        /* \"#utility.yul\":13904:13985   */\n    tag_342:\n        /* \"#utility.yul\":14032:14034   */\n      0x20\n        /* \"#utility.yul\":14024:14030   */\n      dup3\n        /* \"#utility.yul\":14021:14035   */\n      lt\n        /* \"#utility.yul\":14001:14019   */\n      dup2\n        /* \"#utility.yul\":13998:14036   */\n      sub\n        /* \"#utility.yul\":13995:14079   */\n      tag_343\n      jumpi\n        /* \"#utility.yul\":14051:14069   */\n      tag_344\n      tag_188\n      jump\t// in\n    tag_344:\n        /* \"#utility.yul\":13995:14079   */\n    tag_343:\n        /* \"#utility.yul\":13816:14085   */\n      pop\n        /* \"#utility.yul\":13765:14085   */\n      swap2\n      swap1\n      pop\n      jump\t// out\n        /* \"#utility.yul\":14091:14239   */\n    tag_189:\n        /* \"#utility.yul\":14193:14204   */\n      0x00\n        /* \"#utility.yul\":14230:14233   */\n      dup2\n        /* \"#utility.yul\":14215:14233   */\n      swap1\n      pop\n        /* \"#utility.yul\":14091:14239   */\n      swap3\n      swap2\n      pop\n      pop\n      jump\t// out\n        /* \"#utility.yul\":14245:14635   */\n    tag_190:\n        /* \"#utility.yul\":14351:14354   */\n      0x00\n        /* \"#utility.yul\":14379:14418   */\n      tag_347\n        /* \"#utility.yul\":14412:14417   */\n      dup3\n        /* \"#utility.yul\":14379:14418   */\n      tag_150\n      jump\t// in\n    tag_347:\n        /* \"#utility.yul\":14434:14523   */\n      tag_348\n        /* \"#utility.yul\":14516:14522   */\n      dup2\n        /* \"#utility.yul\":14511:14514   */\n      dup6\n        /* \"#utility.yul\":14434:14523   */\n      tag_189\n      jump\t// in\n    tag_348:\n        /* \"#utility.yul\":14427:14523   */\n      swap4\n      pop\n        /* \"#utility.yul\":14532:14597   */\n      tag_349\n        /* \"#utility.yul\":14590:14596   */\n      dup2\n        /* \"#utility.yul\":14585:14588   */\n      dup6\n        /* \"#utility.yul\":14578:14582   */\n      0x20\n        /* \"#utility.yul\":14571:14576   */\n      dup7\n        /* \"#utility.yul\":14567:14583   */\n      add\n        /* \"#utility.yul\":14532:14597   */\n      tag_152\n      jump\t// in\n    tag_349:\n        /* \"#utility.yul\":14622:14628   */\n      dup1\n        /* \"#utility.yul\":14617:14620   */\n      dup5\n        /* \"#utility.yul\":14613:14629   */\n      add\n        /* \"#utility.yul\":14606:14629   */\n      swap2\n      pop\n        /* \"#utility.yul\":14355:14635   */\n      pop\n        /* \"#utility.yul\":14245:14635   */\n      swap3\n      swap2\n      pop\n      pop\n      jump\t// out\n        /* \"#utility.yul\":14641:14916   */\n    tag_81:\n        /* \"#utility.yul\":14773:14776   */\n      0x00\n        /* \"#utility.yul\":14795:14890   */\n      tag_351\n        /* \"#utility.yul\":14886:14889   */\n      dup3\n        /* \"#utility.yul\":14877:14883   */\n      dup5\n        /* \"#utility.yul\":14795:14890   */\n      tag_190\n      jump\t// in\n    tag_351:\n        /* \"#utility.yul\":14788:14890   */\n      swap2\n      pop\n        /* \"#utility.yul\":14907:14910   */\n      dup2\n        /* \"#utility.yul\":14900:14910   */\n      swap1\n      pop\n        /* \"#utility.yul\":14641:14916   */\n      swap3\n      swap2\n      pop\n      pop\n      jump\t// out\n        /* \"#utility.yul\":14922:15102   */\n    tag_84:\n        /* \"#utility.yul\":14970:15047   */\n      0x4e487b7100000000000000000000000000000000000000000000000000000000\n        /* \"#utility.yul\":14967:14968   */\n      0x00\n        /* \"#utility.yul\":14960:15048   */\n      mstore\n        /* \"#utility.yul\":15067:15071   */\n      0x32\n        /* \"#utility.yul\":15064:15065   */\n      0x04\n        /* \"#utility.yul\":15057:15072   */\n      mstore\n        /* \"#utility.yul\":15091:15095   */\n      0x24\n        /* \"#utility.yul\":15088:15089   */\n      0x00\n        /* \"#utility.yul\":15081:15096   */\n      revert\n        /* \"#utility.yul\":15108:15249   */\n    tag_191:\n        /* \"#utility.yul\":15157:15161   */\n      0x00\n        /* \"#utility.yul\":15180:15183   */\n      dup2\n        /* \"#utility.yul\":15172:15183   */\n      swap1\n      pop\n        /* \"#utility.yul\":15203:15206   */\n      dup2\n        /* \"#utility.yul\":15200:15201   */\n      0x00\n        /* \"#utility.yul\":15193:15207   */\n      mstore\n        /* \"#utility.yul\":15237:15241   */\n      0x20\n        /* \"#utility.yul\":15234:15235   */\n      0x00\n        /* \"#utility.yul\":15224:15242   */\n      keccak256\n        /* \"#utility.yul\":15216:15242   */\n      swap1\n      pop\n        /* \"#utility.yul\":15108:15249   */\n      swap2\n      swap1\n      pop\n      jump\t// out\n        /* \"#utility.yul\":15279:16153   */\n    tag_192:\n        /* \"#utility.yul\":15382:15385   */\n      0x00\n        /* \"#utility.yul\":15419:15424   */\n      dup2\n        /* \"#utility.yul\":15413:15425   */\n      sload\n        /* \"#utility.yul\":15448:15484   */\n      tag_355\n        /* \"#utility.yul\":15474:15483   */\n      dup2\n        /* \"#utility.yul\":15448:15484   */\n      tag_71\n      jump\t// in\n    tag_355:\n        /* \"#utility.yul\":15500:15589   */\n      tag_356\n        /* \"#utility.yul\":15582:15588   */\n      dup2\n        /* \"#utility.yul\":15577:15580   */\n      dup7\n        /* \"#utility.yul\":15500:15589   */\n      tag_189\n      jump\t// in\n    tag_356:\n        /* \"#utility.yul\":15493:15589   */\n      swap5\n      pop\n        /* \"#utility.yul\":15620:15621   */\n      0x01\n        /* \"#utility.yul\":15609:15618   */\n      dup3\n        /* \"#utility.yul\":15605:15622   */\n      and\n        /* \"#utility.yul\":15636:15637   */\n      0x00\n        /* \"#utility.yul\":15631:15797   */\n      dup2\n      eq\n      tag_358\n      jumpi\n        /* \"#utility.yul\":15811:15812   */\n      0x01\n        /* \"#utility.yul\":15806:16147   */\n      dup2\n      eq\n      tag_359\n      jumpi\n        /* \"#utility.yul\":15598:16147   */\n      jump(tag_357)\n        /* \"#utility.yul\":15631:15797   */\n    tag_358:\n        /* \"#utility.yul\":15715:15719   */\n      0xff\n        /* \"#utility.yul\":15711:15720   */\n      not\n        /* \"#utility.yul\":15700:15709   */\n      dup4\n        /* \"#utility.yul\":15696:15721   */\n      and\n        /* \"#utility.yul\":15691:15694   */\n      dup7\n        /* \"#utility.yul\":15684:15722   */\n      mstore\n        /* \"#utility.yul\":15777:15783   */\n      dup2\n        /* \"#utility.yul\":15770:15784   */\n      iszero\n        /* \"#utility.yul\":15763:15785   */\n      iszero\n        /* \"#utility.yul\":15755:15761   */\n      dup3\n        /* \"#utility.yul\":15751:15786   */\n      mul\n        /* \"#utility.yul\":15746:15749   */\n      dup7\n        /* \"#utility.yul\":15742:15787   */\n      add\n        /* \"#utility.yul\":15735:15787   */\n      swap4\n      pop\n        /* \"#utility.yul\":15631:15797   */\n      jump(tag_357)\n        /* \"#utility.yul\":15806:16147   */\n    tag_359:\n        /* \"#utility.yul\":15873:15911   */\n      tag_360\n        /* \"#utility.yul\":15905:15910   */\n      dup6\n        /* \"#utility.yul\":15873:15911   */\n      tag_191\n      jump\t// in\n    tag_360:\n        /* \"#utility.yul\":15933:15934   */\n      0x00\n        /* \"#utility.yul\":15947:16101   */\n    tag_361:\n        /* \"#utility.yul\":15961:15967   */\n      dup4\n        /* \"#utility.yul\":15958:15959   */\n      dup2\n        /* \"#utility.yul\":15955:15968   */\n      lt\n        /* \"#utility.yul\":15947:16101   */\n      iszero\n      tag_363\n      jumpi\n        /* \"#utility.yul\":16035:16042   */\n      dup2\n        /* \"#utility.yul\":16029:16043   */\n      sload\n        /* \"#utility.yul\":16025:16026   */\n      dup2\n        /* \"#utility.yul\":16020:16023   */\n      dup10\n        /* \"#utility.yul\":16016:16027   */\n      add\n        /* \"#utility.yul\":16009:16044   */\n      mstore\n        /* \"#utility.yul\":16085:16086   */\n      0x01\n        /* \"#utility.yul\":16076:16083   */\n      dup3\n        /* \"#utility.yul\":16072:16087   */\n      add\n        /* \"#utility.yul\":16061:16087   */\n      swap2\n      pop\n        /* \"#utility.yul\":15983:15987   */\n      0x20\n        /* \"#utility.yul\":15980:15981   */\n      dup2\n        /* \"#utility.yul\":15976:15988   */\n      add\n        /* \"#utility.yul\":15971:15988   */\n      swap1\n      pop\n        /* \"#utility.yul\":15947:16101   */\n      jump(tag_361)\n    tag_363:\n        /* \"#utility.yul\":16130:16136   */\n      dup4\n        /* \"#utility.yul\":16125:16128   */\n      dup9\n        /* \"#utility.yul\":16121:16137   */\n      add\n        /* \"#utility.yul\":16114:16137   */\n      swap6\n      pop\n        /* \"#utility.yul\":15813:16147   */\n      pop\n      pop\n        /* \"#utility.yul\":15598:16147   */\n    tag_357:\n      pop\n        /* \"#utility.yul\":15386:16153   */\n      pop\n      pop\n        /* \"#utility.yul\":15279:16153   */\n      swap3\n      swap2\n      pop\n      pop\n      jump\t// out\n        /* \"#utility.yul\":16159:16428   */\n    tag_87:\n        /* \"#utility.yul\":16288:16291   */\n      0x00\n        /* \"#utility.yul\":16310:16402   */\n      tag_365\n        /* \"#utility.yul\":16398:16401   */\n      dup3\n        /* \"#utility.yul\":16389:16395   */\n      dup5\n        /* \"#utility.yul\":16310:16402   */\n      tag_192\n      jump\t// in\n    tag_365:\n        /* \"#utility.yul\":16303:16402   */\n      swap2\n      pop\n        /* \"#utility.yul\":16419:16422   */\n      dup2\n        /* \"#utility.yul\":16412:16422   */\n      swap1\n      pop\n        /* \"#utility.yul\":16159:16428   */\n      swap3\n      swap2\n      pop\n      pop\n      jump\t// out\n        /* \"#utility.yul\":16434:16602   */\n    tag_193:\n        /* \"#utility.yul\":16574:16594   */\n      0x496e76616c69642063616e6469646174652e0000000000000000000000000000\n        /* \"#utility.yul\":16570:16571   */\n      0x00\n        /* \"#utility.yul\":16562:16568   */\n      dup3\n        /* \"#utility.yul\":16558:16572   */\n      add\n        /* \"#utility.yul\":16551:16595   */\n      mstore\n        /* \"#utility.yul\":16434:16602   */\n      pop\n      jump\t// out\n        /* \"#utility.yul\":16608:16974   */\n    tag_194:\n        /* \"#utility.yul\":16750:16753   */\n      0x00\n        /* \"#utility.yul\":16771:16838   */\n      tag_368\n        /* \"#utility.yul\":16835:16837   */\n      0x12\n        /* \"#utility.yul\":16830:16833   */\n      dup4\n        /* \"#utility.yul\":16771:16838   */\n      tag_151\n      jump\t// in\n    tag_368:\n        /* \"#utility.yul\":16764:16838   */\n      swap2\n      pop\n        /* \"#utility.yul\":16847:16940   */\n      tag_369\n        /* \"#utility.yul\":16936:16939   */\n      dup3\n        /* \"#utility.yul\":16847:16940   */\n      tag_193\n      jump\t// in\n    tag_369:\n        /* \"#utility.yul\":16965:16967   */\n      0x20\n        /* \"#utility.yul\":16960:16963   */\n      dup3\n        /* \"#utility.yul\":16956:16968   */\n      add\n        /* \"#utility.yul\":16949:16968   */\n      swap1\n      pop\n        /* \"#utility.yul\":16608:16974   */\n      swap2\n      swap1\n      pop\n      jump\t// out\n        /* \"#utility.yul\":16980:17399   */\n    tag_93:\n        /* \"#utility.yul\":17146:17150   */\n      0x00\n        /* \"#utility.yul\":17184:17186   */\n      0x20\n        /* \"#utility.yul\":17173:17182   */\n      dup3\n        /* \"#utility.yul\":17169:17187   */\n      add\n        /* \"#utility.yul\":17161:17187   */\n      swap1\n      pop\n        /* \"#utility.yul\":17233:17242   */\n      dup2\n        /* \"#utility.yul\":17227:17231   */\n      dup2\n        /* \"#utility.yul\":17223:17243   */\n      sub\n        /* \"#utility.yul\":17219:17220   */\n      0x00\n        /* \"#utility.yul\":17208:17217   */\n      dup4\n        /* \"#utility.yul\":17204:17221   */\n      add\n        /* \"#utility.yul\":17197:17244   */\n      mstore\n        /* \"#utility.yul\":17261:17392   */\n      tag_371\n        /* \"#utility.yul\":17387:17391   */\n      dup2\n        /* \"#utility.yul\":17261:17392   */\n      tag_194\n      jump\t// in\n    tag_371:\n        /* \"#utility.yul\":17253:17392   */\n      swap1\n      pop\n        /* \"#utility.yul\":16980:17399   */\n      swap2\n      swap1\n      pop\n      jump\t// out\n        /* \"#utility.yul\":17405:17574   */\n    tag_195:\n        /* \"#utility.yul\":17545:17566   */\n      0x566f74696e67206973206e6f74206f70656e2e00000000000000000000000000\n        /* \"#utility.yul\":17541:17542   */\n      0x00\n        /* \"#utility.yul\":17533:17539   */\n      dup3\n        /* \"#utility.yul\":17529:17543   */\n      add\n        /* \"#utility.yul\":17522:17567   */\n      mstore\n        /* \"#utility.yul\":17405:17574   */\n      pop\n      jump\t// out\n        /* \"#utility.yul\":17580:17946   */\n    tag_196:\n        /* \"#utility.yul\":17722:17725   */\n      0x00\n        /* \"#utility.yul\":17743:17810   */\n      tag_374\n        /* \"#utility.yul\":17807:17809   */\n      0x13\n        /* \"#utility.yul\":17802:17805   */\n      dup4\n        /* \"#utility.yul\":17743:17810   */\n      tag_151\n      jump\t// in\n    tag_374:\n        /* \"#utility.yul\":17736:17810   */\n      swap2\n      pop\n        /* \"#utility.yul\":17819:17912   */\n      tag_375\n        /* \"#utility.yul\":17908:17911   */\n      dup3\n        /* \"#utility.yul\":17819:17912   */\n      tag_195\n      jump\t// in\n    tag_375:\n        /* \"#utility.yul\":17937:17939   */\n      0x20\n        /* \"#utility.yul\":17932:17935   */\n      dup3\n        /* \"#utility.yul\":17928:17940   */\n      add\n        /* \"#utility.yul\":17921:17940   */\n      swap1\n      pop\n        /* \"#utility.yul\":17580:17946   */\n      swap2\n      swap1\n      pop\n      jump\t// out\n        /* \"#utility.yul\":17952:18371   */\n    tag_130:\n        /* \"#utility.yul\":18118:18122   */\n      0x00\n        /* \"#utility.yul\":18156:18158   */\n      0x20\n        /* \"#utility.yul\":18145:18154   */\n      dup3\n        /* \"#utility.yul\":18141:18159   */\n      add\n        /* \"#utility.yul\":18133:18159   */\n      swap1\n      pop\n        /* \"#utility.yul\":18205:18214   */\n      dup2\n        /* \"#utility.yul\":18199:18203   */\n      dup2\n        /* \"#utility.yul\":18195:18215   */\n      sub\n        /* \"#utility.yul\":18191:18192   */\n      0x00\n        /* \"#utility.yul\":18180:18189   */\n      dup4\n        /* \"#utility.yul\":18176:18193   */\n      add\n        /* \"#utility.yul\":18169:18216   */\n      mstore\n        /* \"#utility.yul\":18233:18364   */\n      tag_377\n        /* \"#utility.yul\":18359:18363   */\n      dup2\n        /* \"#utility.yul\":18233:18364   */\n      tag_196\n      jump\t// in\n    tag_377:\n        /* \"#utility.yul\":18225:18364   */\n      swap1\n      pop\n        /* \"#utility.yul\":17952:18371   */\n      swap2\n      swap1\n      pop\n      jump\t// out\n        /* \"#utility.yul\":18377:18550   */\n    tag_197:\n        /* \"#utility.yul\":18517:18542   */\n      0x596f75206861766520616c726561647920766f7465642e000000000000000000\n        /* \"#utility.yul\":18513:18514   */\n      0x00\n        /* \"#utility.yul\":18505:18511   */\n      dup3\n        /* \"#utility.yul\":18501:18515   */\n      add\n        /* \"#utility.yul\":18494:18543   */\n      mstore\n        /* \"#utility.yul\":18377:18550   */\n      pop\n      jump\t// out\n        /* \"#utility.yul\":18556:18922   */\n    tag_198:\n        /* \"#utility.yul\":18698:18701   */\n      0x00\n        /* \"#utility.yul\":18719:18786   */\n      tag_380\n        /* \"#utility.yul\":18783:18785   */\n      0x17\n        /* \"#utility.yul\":18778:18781   */\n      dup4\n        /* \"#utility.yul\":18719:18786   */\n      tag_151\n      jump\t// in\n    tag_380:\n        /* \"#utility.yul\":18712:18786   */\n      swap2\n      pop\n        /* \"#utility.yul\":18795:18888   */\n      tag_381\n        /* \"#utility.yul\":18884:18887   */\n      dup3\n        /* \"#utility.yul\":18795:18888   */\n      tag_197\n      jump\t// in\n    tag_381:\n        /* \"#utility.yul\":18913:18915   */\n      0x20\n        /* \"#utility.yul\":18908:18911   */\n      dup3\n        /* \"#utility.yul\":18904:18916   */\n      add\n        /* \"#utility.yul\":18897:18916   */\n      swap1\n      pop\n        /* \"#utility.yul\":18556:18922   */\n      swap2\n      swap1\n      pop\n      jump\t// out\n        /* \"#utility.yul\":18928:19347   */\n    tag_133:\n        /* \"#utility.yul\":19094:19098   */\n      0x00\n        /* \"#utility.yul\":19132:19134   */\n      0x20\n        /* \"#utility.yul\":19121:19130   */\n      dup3\n        /* \"#utility.yul\":19117:19135   */\n      add\n        /* \"#utility.yul\":19109:19135   */\n      swap1\n      pop\n        /* \"#utility.yul\":19181:19190   */\n      dup2\n        /* \"#utility.yul\":19175:19179   */\n      dup2\n        /* \"#utility.yul\":19171:19191   */\n      sub\n        /* \"#utility.yul\":19167:19168   */\n      0x00\n        /* \"#utility.yul\":19156:19165   */\n      dup4\n        /* \"#utility.yul\":19152:19169   */\n      add\n        /* \"#utility.yul\":19145:19192   */\n      mstore\n        /* \"#utility.yul\":19209:19340   */\n      tag_383\n        /* \"#utility.yul\":19335:19339   */\n      dup2\n        /* \"#utility.yul\":19209:19340   */\n      tag_198\n      jump\t// in\n    tag_383:\n        /* \"#utility.yul\":19201:19340   */\n      swap1\n      pop\n        /* \"#utility.yul\":18928:19347   */\n      swap2\n      swap1\n      pop\n      jump\t// out\n        /* \"#utility.yul\":19353:19533   */\n    tag_199:\n        /* \"#utility.yul\":19401:19478   */\n      0x4e487b7100000000000000000000000000000000000000000000000000000000\n        /* \"#utility.yul\":19398:19399   */\n      0x00\n        /* \"#utility.yul\":19391:19479   */\n      mstore\n        /* \"#utility.yul\":19498:19502   */\n      0x11\n        /* \"#utility.yul\":19495:19496   */\n      0x04\n        /* \"#utility.yul\":19488:19503   */\n      mstore\n        /* \"#utility.yul\":19522:19526   */\n      0x24\n        /* \"#utility.yul\":19519:19520   */\n      0x00\n        /* \"#utility.yul\":19512:19527   */\n      revert\n        /* \"#utility.yul\":19539:19730   */\n    tag_139:\n        /* \"#utility.yul\":19579:19582   */\n      0x00\n        /* \"#utility.yul\":19598:19618   */\n      tag_386\n        /* \"#utility.yul\":19616:19617   */\n      dup3\n        /* \"#utility.yul\":19598:19618   */\n      tag_147\n      jump\t// in\n    tag_386:\n        /* \"#utility.yul\":19593:19618   */\n      swap2\n      pop\n        /* \"#utility.yul\":19632:19652   */\n      tag_387\n        /* \"#utility.yul\":19650:19651   */\n      dup4\n        /* \"#utility.yul\":19632:19652   */\n      tag_147\n      jump\t// in\n    tag_387:\n        /* \"#utility.yul\":19627:19652   */\n      swap3\n      pop\n        /* \"#utility.yul\":19675:19676   */\n      dup3\n        /* \"#utility.yul\":19672:19673   */\n      dup3\n        /* \"#utility.yul\":19668:19677   */\n      add\n        /* \"#utility.yul\":19661:19677   */\n      swap1\n      pop\n        /* \"#utility.yul\":19696:19699   */\n      dup1\n        /* \"#utility.yul\":19693:19694   */\n      dup3\n        /* \"#utility.yul\":19690:19700   */\n      gt\n        /* \"#utility.yul\":19687:19723   */\n      iszero\n      tag_388\n      jumpi\n        /* \"#utility.yul\":19703:19721   */\n      tag_389\n      tag_199\n      jump\t// in\n    tag_389:\n        /* \"#utility.yul\":19687:19723   */\n    tag_388:\n        /* \"#utility.yul\":19539:19730   */\n      swap3\n      swap2\n      pop\n      pop\n      jump\t// out\n\n    auxdata: 0xa2646970667358221220bca64890a2674beb38e6e2689e2a25c025a8693135fc730945513886f398846464736f6c634300081b0033\n}\n",
				"bytecode": {
					"linkReferences": {},
					"object": "608060405234801561000f575f5ffd5b50604051611a35380380611a35833981810160405281019061003191906103b8565b335f5f6101000a81548173ffffffffffffffffffffffffffffffffffffffff021916908373ffffffffffffffffffffffffffffffffffffffff16021790555060015f60146101000a81548160ff02191690836001811115610095576100946103ff565b5b021790555080600190805190602001906100b09291906100b7565b505061070b565b828054828255905f5260205f209081019282156100fd579160200282015b828111156100fc5782518290816100ec919061063c565b50916020019190600101906100d5565b5b50905061010a919061010e565b5090565b5b8082111561012d575f81816101249190610131565b5060010161010f565b5090565b50805461013d90610463565b5f825580601f1061014e575061016b565b601f0160209004905f5260205f209081019061016a919061016e565b5b50565b5b80821115610185575f815f90555060010161016f565b5090565b5f604051905090565b5f5ffd5b5f5ffd5b5f5ffd5b5f601f19601f8301169050919050565b7f4e487b71000000000000000000000000000000000000000000000000000000005f52604160045260245ffd5b6101e48261019e565b810181811067ffffffffffffffff82111715610203576102026101ae565b5b80604052505050565b5f610215610189565b905061022182826101db565b919050565b5f67ffffffffffffffff8211156102405761023f6101ae565b5b602082029050602081019050919050565b5f5ffd5b5f5ffd5b5f67ffffffffffffffff821115610273576102726101ae565b5b61027c8261019e565b9050602081019050919050565b8281835e5f83830152505050565b5f6102a96102a484610259565b61020c565b9050828152602081018484840111156102c5576102c4610255565b5b6102d0848285610289565b509392505050565b5f82601f8301126102ec576102eb61019a565b5b81516102fc848260208601610297565b91505092915050565b5f61031761031284610226565b61020c565b9050808382526020820190506020840283018581111561033a57610339610251565b5b835b8181101561038157805167ffffffffffffffff81111561035f5761035e61019a565b5b80860161036c89826102d8565b8552602085019450505060208101905061033c565b5050509392505050565b5f82601f83011261039f5761039e61019a565b5b81516103af848260208601610305565b91505092915050565b5f602082840312156103cd576103cc610192565b5b5f82015167ffffffffffffffff8111156103ea576103e9610196565b5b6103f68482850161038b565b91505092915050565b7f4e487b71000000000000000000000000000000000000000000000000000000005f52602160045260245ffd5b5f81519050919050565b7f4e487b71000000000000000000000000000000000000000000000000000000005f52602260045260245ffd5b5f600282049050600182168061047a57607f821691505b60208210810361048d5761048c610436565b5b50919050565b5f819050815f5260205f209050919050565b5f6020601f8301049050919050565b5f82821b905092915050565b5f600883026104ef7fffffffffffffffffffffffffffffffffffffffffffffffffffffffffffffffff826104b4565b6104f986836104b4565b95508019841693508086168417925050509392505050565b5f819050919050565b5f819050919050565b5f61053d61053861053384610511565b61051a565b610511565b9050919050565b5f819050919050565b61055683610523565b61056a61056282610544565b8484546104c0565b825550505050565b5f5f905090565b610581610572565b61058c81848461054d565b505050565b5b818110156105af576105a45f82610579565b600181019050610592565b5050565b601f8211156105f4576105c581610493565b6105ce846104a5565b810160208510156105dd578190505b6105f16105e9856104a5565b830182610591565b50505b505050565b5f82821c905092915050565b5f6106145f19846008026105f9565b1980831691505092915050565b5f61062c8383610605565b9150826002028217905092915050565b6106458261042c565b67ffffffffffffffff81111561065e5761065d6101ae565b5b6106688254610463565b6106738282856105b3565b5f60209050601f8311600181146106a4575f8415610692578287015190505b61069c8582610621565b865550610703565b601f1984166106b286610493565b5f5b828110156106d9578489015182556001820191506020850194506020810190506106b4565b868310156106f657848901516106f2601f891682610605565b8355505b6001600288020188555050505b505050505050565b61131d806107185f395ff3fe608060405234801561000f575f5ffd5b50600436106100a7575f3560e01c80638da5cb5b1161006f5780638da5cb5b1461016357806398d16f7514610181578063a3ec138d146101b1578063c3403ddf146101e1578063da650ec6146101eb578063fc36e15b1461020a576100a7565b80631ec6b60a146100ab578063200d2ed2146100b55780633477ee2e146100d357806351b9887d146101035780638d4b44d914610133575b5f5ffd5b6100b3610226565b005b6100bd6102df565b6040516100ca91906109bd565b60405180910390f35b6100ed60048036038101906100e89190610a1a565b6102f1565b6040516100fa9190610ab5565b60405180910390f35b61011d60048036038101906101189190610c01565b610397565b60405161012a9190610c62565b60405180910390f35b61014d60048036038101906101489190610c01565b610439565b60405161015a9190610c8a565b60405180910390f35b61016b610466565b6040516101789190610ce2565b60405180910390f35b61019b60048036038101906101969190610c01565b61048a565b6040516101a89190610c8a565b60405180910390f35b6101cb60048036038101906101c69190610d25565b6104f9565b6040516101d89190610c62565b60405180910390f35b6101e9610516565b005b6101f36105d0565b604051610201929190610f0a565b60405180910390f35b610224600480360381019061021f9190610c01565b610777565b005b5f5f9054906101000a900473ffffffffffffffffffffffffffffffffffffffff1673ffffffffffffffffffffffffffffffffffffffff163373ffffffffffffffffffffffffffffffffffffffff16146102b4576040517f08c379a00000000000000000000000000000000000000000000000000000000081526004016102ab90610faf565b60405180910390fd5b5f5f60146101000a81548160ff021916908360018111156102d8576102d761094a565b5b0217905550565b5f60149054906101000a900460ff1681565b60018181548110610300575f80fd5b905f5260205f20015f91509050805461031890610ffa565b80601f016020809104026020016040519081016040528092919081815260200182805461034490610ffa565b801561038f5780601f106103665761010080835404028352916020019161038f565b820191905f5260205f20905b81548152906001019060200180831161037257829003601f168201915b505050505081565b5f5f5f90505b60018054905081101561042f57826040516020016103bb9190611064565b60405160208183030381529060405280519060200120600182815481106103e5576103e461107a565b5b905f5260205f20016040516020016103fd9190611139565b6040516020818303038152906040528051906020012003610422576001915050610434565b808060010191505061039d565b505f90505b919050565b6002818051602081018201805184825260208301602085012081835280955050505050505f915090505481565b5f5f9054906101000a900473ffffffffffffffffffffffffffffffffffffffff1681565b5f61049482610397565b6104d3576040517f08c379a00000000000000000000000000000000000000000000000000000000081526004016104ca90611199565b60405180910390fd5b6002826040516104e39190611064565b9081526020016040518091039020549050919050565b6003602052805f5260405f205f915054906101000a900460ff1681565b5f5f9054906101000a900473ffffffffffffffffffffffffffffffffffffffff1673ffffffffffffffffffffffffffffffffffffffff163373ffffffffffffffffffffffffffffffffffffffff16146105a4576040517f08c379a000000000000000000000000000000000000000000000000000000000815260040161059b90610faf565b60405180910390fd5b60015f60146101000a81548160ff021916908360018111156105c9576105c861094a565b5b0217905550565b6060805f60018054905067ffffffffffffffff8111156105f3576105f2610add565b5b6040519080825280602002602001820160405280156106215781602001602082028036833780820191505090505b5090505f5f90505b60018054905081101561069c5760026001828154811061064c5761064b61107a565b5b905f5260205f20016040516106619190611139565b9081526020016040518091039020548282815181106106835761068261107a565b5b6020026020010181815250508080600101915050610629565b5060018181805480602002602001604051908101604052809291908181526020015f905b82821015610768578382905f5260205f200180546106dd90610ffa565b80601f016020809104026020016040519081016040528092919081815260200182805461070990610ffa565b80156107545780601f1061072b57610100808354040283529160200191610754565b820191905f5260205f20905b81548152906001019060200180831161073757829003601f168201915b5050505050815260200190600101906106c0565b50505050915092509250509091565b5f600181111561078a5761078961094a565b5b5f60149054906101000a900460ff1660018111156107ab576107aa61094a565b5b146107eb576040517f08c379a00000000000000000000000000000000000000000000000000000000081526004016107e290611201565b60405180910390fd5b60035f3373ffffffffffffffffffffffffffffffffffffffff1673ffffffffffffffffffffffffffffffffffffffff1681526020019081526020015f205f9054906101000a900460ff1615610875576040517f08c379a000000000000000000000000000000000000000000000000000000000815260040161086c90611269565b60405180910390fd5b61087e81610397565b6108bd576040517f08c379a00000000000000000000000000000000000000000000000000000000081526004016108b490611199565b60405180910390fd5b60016002826040516108cf9190611064565b90815260200160405180910390205f8282546108eb91906112b4565b92505081905550600160035f3373ffffffffffffffffffffffffffffffffffffffff1673ffffffffffffffffffffffffffffffffffffffff1681526020019081526020015f205f6101000a81548160ff02191690831515021790555050565b7f4e487b71000000000000000000000000000000000000000000000000000000005f52602160045260245ffd5b600281106109885761098761094a565b5b50565b5f81905061099882610977565b919050565b5f6109a78261098b565b9050919050565b6109b78161099d565b82525050565b5f6020820190506109d05f8301846109ae565b92915050565b5f604051905090565b5f5ffd5b5f5ffd5b5f819050919050565b6109f9816109e7565b8114610a03575f5ffd5b50565b5f81359050610a14816109f0565b92915050565b5f60208284031215610a2f57610a2e6109df565b5b5f610a3c84828501610a06565b91505092915050565b5f81519050919050565b5f82825260208201905092915050565b8281835e5f83830152505050565b5f601f19601f8301169050919050565b5f610a8782610a45565b610a918185610a4f565b9350610aa1818560208601610a5f565b610aaa81610a6d565b840191505092915050565b5f6020820190508181035f830152610acd8184610a7d565b905092915050565b5f5ffd5b5f5ffd5b7f4e487b71000000000000000000000000000000000000000000000000000000005f52604160045260245ffd5b610b1382610a6d565b810181811067ffffffffffffffff82111715610b3257610b31610add565b5b80604052505050565b5f610b446109d6565b9050610b508282610b0a565b919050565b5f67ffffffffffffffff821115610b6f57610b6e610add565b5b610b7882610a6d565b9050602081019050919050565b828183375f83830152505050565b5f610ba5610ba084610b55565b610b3b565b905082815260208101848484011115610bc157610bc0610ad9565b5b610bcc848285610b85565b509392505050565b5f82601f830112610be857610be7610ad5565b5b8135610bf8848260208601610b93565b91505092915050565b5f60208284031215610c1657610c156109df565b5b5f82013567ffffffffffffffff811115610c3357610c326109e3565b5b610c3f84828501610bd4565b91505092915050565b5f8115159050919050565b610c5c81610c48565b82525050565b5f602082019050610c755f830184610c53565b92915050565b610c84816109e7565b82525050565b5f602082019050610c9d5f830184610c7b565b92915050565b5f73ffffffffffffffffffffffffffffffffffffffff82169050919050565b5f610ccc82610ca3565b9050919050565b610cdc81610cc2565b82525050565b5f602082019050610cf55f830184610cd3565b92915050565b610d0481610cc2565b8114610d0e575f5ffd5b50565b5f81359050610d1f81610cfb565b92915050565b5f60208284031215610d3a57610d396109df565b5b5f610d4784828501610d11565b91505092915050565b5f81519050919050565b5f82825260208201905092915050565b5f819050602082019050919050565b5f82825260208201905092915050565b5f610d9382610a45565b610d9d8185610d79565b9350610dad818560208601610a5f565b610db681610a6d565b840191505092915050565b5f610dcc8383610d89565b905092915050565b5f602082019050919050565b5f610dea82610d50565b610df48185610d5a565b935083602082028501610e0685610d6a565b805f5b85811015610e415784840389528151610e228582610dc1565b9450610e2d83610dd4565b925060208a01995050600181019050610e09565b50829750879550505050505092915050565b5f81519050919050565b5f82825260208201905092915050565b5f819050602082019050919050565b610e85816109e7565b82525050565b5f610e968383610e7c565b60208301905092915050565b5f602082019050919050565b5f610eb882610e53565b610ec28185610e5d565b9350610ecd83610e6d565b805f5b83811015610efd578151610ee48882610e8b565b9750610eef83610ea2565b925050600181019050610ed0565b5085935050505092915050565b5f6040820190508181035f830152610f228185610de0565b90508181036020830152610f368184610eae565b90509392505050565b7f4f6e6c7920746865206f776e65722063616e2063616c6c20746869732066756e5f8201527f6374696f6e2e0000000000000000000000000000000000000000000000000000602082015250565b5f610f99602683610a4f565b9150610fa482610f3f565b604082019050919050565b5f6020820190508181035f830152610fc681610f8d565b9050919050565b7f4e487b71000000000000000000000000000000000000000000000000000000005f52602260045260245ffd5b5f600282049050600182168061101157607f821691505b60208210810361102457611023610fcd565b5b50919050565b5f81905092915050565b5f61103e82610a45565b611048818561102a565b9350611058818560208601610a5f565b80840191505092915050565b5f61106f8284611034565b915081905092915050565b7f4e487b71000000000000000000000000000000000000000000000000000000005f52603260045260245ffd5b5f819050815f5260205f209050919050565b5f81546110c581610ffa565b6110cf818661102a565b9450600182165f81146110e957600181146110fe57611130565b60ff1983168652811515820286019350611130565b611107856110a7565b5f5b8381101561112857815481890152600182019150602081019050611109565b838801955050505b50505092915050565b5f61114482846110b9565b915081905092915050565b7f496e76616c69642063616e6469646174652e00000000000000000000000000005f82015250565b5f611183601283610a4f565b915061118e8261114f565b602082019050919050565b5f6020820190508181035f8301526111b081611177565b9050919050565b7f566f74696e67206973206e6f74206f70656e2e000000000000000000000000005f82015250565b5f6111eb601383610a4f565b91506111f6826111b7565b602082019050919050565b5f6020820190508181035f830152611218816111df565b9050919050565b7f596f75206861766520616c726561647920766f7465642e0000000000000000005f82015250565b5f611253601783610a4f565b915061125e8261121f565b602082019050919050565b5f6020820190508181035f83015261128081611247565b9050919050565b7f4e487b71000000000000000000000000000000000000000000000000000000005f52601160045260245ffd5b5f6112be826109e7565b91506112c9836109e7565b92508282019050808211156112e1576112e0611287565b5b9291505056fea2646970667358221220bca64890a2674beb38e6e2689e2a25c025a8693135fc730945513886f398846464736f6c634300081b0033",
					"opcodes": "PUSH1 0x80 PUSH1 0x40 MSTORE CALLVALUE DUP1 ISZERO PUSH2 0xF JUMPI PUSH0 PUSH0 REVERT JUMPDEST POP PUSH1 0x40 MLOAD PUSH2 0x1A35 CODESIZE SUB DUP1 PUSH2 0x1A35 DUP4 CODECOPY DUP2 DUP2 ADD PUSH1 0x40 MSTORE DUP2 ADD SWAP1 PUSH2 0x31 SWAP2 SWAP1 PUSH2 0x3B8 JUMP JUMPDEST CALLER PUSH0 PUSH0 PUSH2 0x100 EXP DUP2 SLOAD DUP2 PUSH20 0xFFFFFFFFFFFFFFFFFFFFFFFFFFFFFFFFFFFFFFFF MUL NOT AND SWAP1 DUP4 PUSH20 0xFFFFFFFFFFFFFFFFFFFFFFFFFFFFFFFFFFFFFFFF AND MUL OR SWAP1 SSTORE POP PUSH1 0x1 PUSH0 PUSH1 0x14 PUSH2 0x100 EXP DUP2 SLOAD DUP2 PUSH1 0xFF MUL NOT AND SWAP1 DUP4 PUSH1 0x1 DUP2 GT ISZERO PUSH2 0x95 JUMPI PUSH2 0x94 PUSH2 0x3FF JUMP JUMPDEST JUMPDEST MUL OR SWAP1 SSTORE POP DUP1 PUSH1 0x1 SWAP1 DUP1 MLOAD SWAP1 PUSH1 0x20 ADD SWAP1 PUSH2 0xB0 SWAP3 SWAP2 SWAP1 PUSH2 0xB7 JUMP JUMPDEST POP POP PUSH2 0x70B JUMP JUMPDEST DUP3 DUP1 SLOAD DUP3 DUP3 SSTORE SWAP1 PUSH0 MSTORE PUSH1 0x20 PUSH0 KECCAK256 SWAP1 DUP2 ADD SWAP3 DUP3 ISZERO PUSH2 0xFD JUMPI SWAP2 PUSH1 0x20 MUL DUP3 ADD JUMPDEST DUP3 DUP2 GT ISZERO PUSH2 0xFC JUMPI DUP3 MLOAD DUP3 SWAP1 DUP2 PUSH2 0xEC SWAP2 SWAP1 PUSH2 0x63C JUMP JUMPDEST POP SWAP2 PUSH1 0x20 ADD SWAP2 SWAP1 PUSH1 0x1 ADD SWAP1 PUSH2 0xD5 JUMP JUMPDEST JUMPDEST POP SWAP1 POP PUSH2 0x10A SWAP2 SWAP1 PUSH2 0x10E JUMP JUMPDEST POP SWAP1 JUMP JUMPDEST JUMPDEST DUP1 DUP3 GT ISZERO PUSH2 0x12D JUMPI PUSH0 DUP2 DUP2 PUSH2 0x124 SWAP2 SWAP1 PUSH2 0x131 JUMP JUMPDEST POP PUSH1 0x1 ADD PUSH2 0x10F JUMP JUMPDEST POP SWAP1 JUMP JUMPDEST POP DUP1 SLOAD PUSH2 0x13D SWAP1 PUSH2 0x463 JUMP JUMPDEST PUSH0 DUP3 SSTORE DUP1 PUSH1 0x1F LT PUSH2 0x14E JUMPI POP PUSH2 0x16B JUMP JUMPDEST PUSH1 0x1F ADD PUSH1 0x20 SWAP1 DIV SWAP1 PUSH0 MSTORE PUSH1 0x20 PUSH0 KECCAK256 SWAP1 DUP2 ADD SWAP1 PUSH2 0x16A SWAP2 SWAP1 PUSH2 0x16E JUMP JUMPDEST JUMPDEST POP JUMP JUMPDEST JUMPDEST DUP1 DUP3 GT ISZERO PUSH2 0x185 JUMPI PUSH0 DUP2 PUSH0 SWAP1 SSTORE POP PUSH1 0x1 ADD PUSH2 0x16F JUMP JUMPDEST POP SWAP1 JUMP JUMPDEST PUSH0 PUSH1 0x40 MLOAD SWAP1 POP SWAP1 JUMP JUMPDEST PUSH0 PUSH0 REVERT JUMPDEST PUSH0 PUSH0 REVERT JUMPDEST PUSH0 PUSH0 REVERT JUMPDEST PUSH0 PUSH1 0x1F NOT PUSH1 0x1F DUP4 ADD AND SWAP1 POP SWAP2 SWAP1 POP JUMP JUMPDEST PUSH32 0x4E487B7100000000000000000000000000000000000000000000000000000000 PUSH0 MSTORE PUSH1 0x41 PUSH1 0x4 MSTORE PUSH1 0x24 PUSH0 REVERT JUMPDEST PUSH2 0x1E4 DUP3 PUSH2 0x19E JUMP JUMPDEST DUP2 ADD DUP2 DUP2 LT PUSH8 0xFFFFFFFFFFFFFFFF DUP3 GT OR ISZERO PUSH2 0x203 JUMPI PUSH2 0x202 PUSH2 0x1AE JUMP JUMPDEST JUMPDEST DUP1 PUSH1 0x40 MSTORE POP POP POP JUMP JUMPDEST PUSH0 PUSH2 0x215 PUSH2 0x189 JUMP JUMPDEST SWAP1 POP PUSH2 0x221 DUP3 DUP3 PUSH2 0x1DB JUMP JUMPDEST SWAP2 SWAP1 POP JUMP JUMPDEST PUSH0 PUSH8 0xFFFFFFFFFFFFFFFF DUP3 GT ISZERO PUSH2 0x240 JUMPI PUSH2 0x23F PUSH2 0x1AE JUMP JUMPDEST JUMPDEST PUSH1 0x20 DUP3 MUL SWAP1 POP PUSH1 0x20 DUP2 ADD SWAP1 POP SWAP2 SWAP1 POP JUMP JUMPDEST PUSH0 PUSH0 REVERT JUMPDEST PUSH0 PUSH0 REVERT JUMPDEST PUSH0 PUSH8 0xFFFFFFFFFFFFFFFF DUP3 GT ISZERO PUSH2 0x273 JUMPI PUSH2 0x272 PUSH2 0x1AE JUMP JUMPDEST JUMPDEST PUSH2 0x27C DUP3 PUSH2 0x19E JUMP JUMPDEST SWAP1 POP PUSH1 0x20 DUP2 ADD SWAP1 POP SWAP2 SWAP1 POP JUMP JUMPDEST DUP3 DUP2 DUP4 MCOPY PUSH0 DUP4 DUP4 ADD MSTORE POP POP POP JUMP JUMPDEST PUSH0 PUSH2 0x2A9 PUSH2 0x2A4 DUP5 PUSH2 0x259 JUMP JUMPDEST PUSH2 0x20C JUMP JUMPDEST SWAP1 POP DUP3 DUP2 MSTORE PUSH1 0x20 DUP2 ADD DUP5 DUP5 DUP5 ADD GT ISZERO PUSH2 0x2C5 JUMPI PUSH2 0x2C4 PUSH2 0x255 JUMP JUMPDEST JUMPDEST PUSH2 0x2D0 DUP5 DUP3 DUP6 PUSH2 0x289 JUMP JUMPDEST POP SWAP4 SWAP3 POP POP POP JUMP JUMPDEST PUSH0 DUP3 PUSH1 0x1F DUP4 ADD SLT PUSH2 0x2EC JUMPI PUSH2 0x2EB PUSH2 0x19A JUMP JUMPDEST JUMPDEST DUP2 MLOAD PUSH2 0x2FC DUP5 DUP3 PUSH1 0x20 DUP7 ADD PUSH2 0x297 JUMP JUMPDEST SWAP2 POP POP SWAP3 SWAP2 POP POP JUMP JUMPDEST PUSH0 PUSH2 0x317 PUSH2 0x312 DUP5 PUSH2 0x226 JUMP JUMPDEST PUSH2 0x20C JUMP JUMPDEST SWAP1 POP DUP1 DUP4 DUP3 MSTORE PUSH1 0x20 DUP3 ADD SWAP1 POP PUSH1 0x20 DUP5 MUL DUP4 ADD DUP6 DUP2 GT ISZERO PUSH2 0x33A JUMPI PUSH2 0x339 PUSH2 0x251 JUMP JUMPDEST JUMPDEST DUP4 JUMPDEST DUP2 DUP2 LT ISZERO PUSH2 0x381 JUMPI DUP1 MLOAD PUSH8 0xFFFFFFFFFFFFFFFF DUP2 GT ISZERO PUSH2 0x35F JUMPI PUSH2 0x35E PUSH2 0x19A JUMP JUMPDEST JUMPDEST DUP1 DUP7 ADD PUSH2 0x36C DUP10 DUP3 PUSH2 0x2D8 JUMP JUMPDEST DUP6 MSTORE PUSH1 0x20 DUP6 ADD SWAP5 POP POP POP PUSH1 0x20 DUP2 ADD SWAP1 POP PUSH2 0x33C JUMP JUMPDEST POP POP POP SWAP4 SWAP3 POP POP POP JUMP JUMPDEST PUSH0 DUP3 PUSH1 0x1F DUP4 ADD SLT PUSH2 0x39F JUMPI PUSH2 0x39E PUSH2 0x19A JUMP JUMPDEST JUMPDEST DUP2 MLOAD PUSH2 0x3AF DUP5 DUP3 PUSH1 0x20 DUP7 ADD PUSH2 0x305 JUMP JUMPDEST SWAP2 POP POP SWAP3 SWAP2 POP POP JUMP JUMPDEST PUSH0 PUSH1 0x20 DUP3 DUP5 SUB SLT ISZERO PUSH2 0x3CD JUMPI PUSH2 0x3CC PUSH2 0x192 JUMP JUMPDEST JUMPDEST PUSH0 DUP3 ADD MLOAD PUSH8 0xFFFFFFFFFFFFFFFF DUP2 GT ISZERO PUSH2 0x3EA JUMPI PUSH2 0x3E9 PUSH2 0x196 JUMP JUMPDEST JUMPDEST PUSH2 0x3F6 DUP5 DUP3 DUP6 ADD PUSH2 0x38B JUMP JUMPDEST SWAP2 POP POP SWAP3 SWAP2 POP POP JUMP JUMPDEST PUSH32 0x4E487B7100000000000000000000000000000000000000000000000000000000 PUSH0 MSTORE PUSH1 0x21 PUSH1 0x4 MSTORE PUSH1 0x24 PUSH0 REVERT JUMPDEST PUSH0 DUP2 MLOAD SWAP1 POP SWAP2 SWAP1 POP JUMP JUMPDEST PUSH32 0x4E487B7100000000000000000000000000000000000000000000000000000000 PUSH0 MSTORE PUSH1 0x22 PUSH1 0x4 MSTORE PUSH1 0x24 PUSH0 REVERT JUMPDEST PUSH0 PUSH1 0x2 DUP3 DIV SWAP1 POP PUSH1 0x1 DUP3 AND DUP1 PUSH2 0x47A JUMPI PUSH1 0x7F DUP3 AND SWAP2 POP JUMPDEST PUSH1 0x20 DUP3 LT DUP2 SUB PUSH2 0x48D JUMPI PUSH2 0x48C PUSH2 0x436 JUMP JUMPDEST JUMPDEST POP SWAP2 SWAP1 POP JUMP JUMPDEST PUSH0 DUP2 SWAP1 POP DUP2 PUSH0 MSTORE PUSH1 0x20 PUSH0 KECCAK256 SWAP1 POP SWAP2 SWAP1 POP JUMP JUMPDEST PUSH0 PUSH1 0x20 PUSH1 0x1F DUP4 ADD DIV SWAP1 POP SWAP2 SWAP1 POP JUMP JUMPDEST PUSH0 DUP3 DUP3 SHL SWAP1 POP SWAP3 SWAP2 POP POP JUMP JUMPDEST PUSH0 PUSH1 0x8 DUP4 MUL PUSH2 0x4EF PUSH32 0xFFFFFFFFFFFFFFFFFFFFFFFFFFFFFFFFFFFFFFFFFFFFFFFFFFFFFFFFFFFFFFFF DUP3 PUSH2 0x4B4 JUMP JUMPDEST PUSH2 0x4F9 DUP7 DUP4 PUSH2 0x4B4 JUMP JUMPDEST SWAP6 POP DUP1 NOT DUP5 AND SWAP4 POP DUP1 DUP7 AND DUP5 OR SWAP3 POP POP POP SWAP4 SWAP3 POP POP POP JUMP JUMPDEST PUSH0 DUP2 SWAP1 POP SWAP2 SWAP1 POP JUMP JUMPDEST PUSH0 DUP2 SWAP1 POP SWAP2 SWAP1 POP JUMP JUMPDEST PUSH0 PUSH2 0x53D PUSH2 0x538 PUSH2 0x533 DUP5 PUSH2 0x511 JUMP JUMPDEST PUSH2 0x51A JUMP JUMPDEST PUSH2 0x511 JUMP JUMPDEST SWAP1 POP SWAP2 SWAP1 POP JUMP JUMPDEST PUSH0 DUP2 SWAP1 POP SWAP2 SWAP1 POP JUMP JUMPDEST PUSH2 0x556 DUP4 PUSH2 0x523 JUMP JUMPDEST PUSH2 0x56A PUSH2 0x562 DUP3 PUSH2 0x544 JUMP JUMPDEST DUP5 DUP5 SLOAD PUSH2 0x4C0 JUMP JUMPDEST DUP3 SSTORE POP POP POP POP JUMP JUMPDEST PUSH0 PUSH0 SWAP1 POP SWAP1 JUMP JUMPDEST PUSH2 0x581 PUSH2 0x572 JUMP JUMPDEST PUSH2 0x58C DUP2 DUP5 DUP5 PUSH2 0x54D JUMP JUMPDEST POP POP POP JUMP JUMPDEST JUMPDEST DUP2 DUP2 LT ISZERO PUSH2 0x5AF JUMPI PUSH2 0x5A4 PUSH0 DUP3 PUSH2 0x579 JUMP JUMPDEST PUSH1 0x1 DUP2 ADD SWAP1 POP PUSH2 0x592 JUMP JUMPDEST POP POP JUMP JUMPDEST PUSH1 0x1F DUP3 GT ISZERO PUSH2 0x5F4 JUMPI PUSH2 0x5C5 DUP2 PUSH2 0x493 JUMP JUMPDEST PUSH2 0x5CE DUP5 PUSH2 0x4A5 JUMP JUMPDEST DUP2 ADD PUSH1 0x20 DUP6 LT ISZERO PUSH2 0x5DD JUMPI DUP2 SWAP1 POP JUMPDEST PUSH2 0x5F1 PUSH2 0x5E9 DUP6 PUSH2 0x4A5 JUMP JUMPDEST DUP4 ADD DUP3 PUSH2 0x591 JUMP JUMPDEST POP POP JUMPDEST POP POP POP JUMP JUMPDEST PUSH0 DUP3 DUP3 SHR SWAP1 POP SWAP3 SWAP2 POP POP JUMP JUMPDEST PUSH0 PUSH2 0x614 PUSH0 NOT DUP5 PUSH1 0x8 MUL PUSH2 0x5F9 JUMP JUMPDEST NOT DUP1 DUP4 AND SWAP2 POP POP SWAP3 SWAP2 POP POP JUMP JUMPDEST PUSH0 PUSH2 0x62C DUP4 DUP4 PUSH2 0x605 JUMP JUMPDEST SWAP2 POP DUP3 PUSH1 0x2 MUL DUP3 OR SWAP1 POP SWAP3 SWAP2 POP POP JUMP JUMPDEST PUSH2 0x645 DUP3 PUSH2 0x42C JUMP JUMPDEST PUSH8 0xFFFFFFFFFFFFFFFF DUP2 GT ISZERO PUSH2 0x65E JUMPI PUSH2 0x65D PUSH2 0x1AE JUMP JUMPDEST JUMPDEST PUSH2 0x668 DUP3 SLOAD PUSH2 0x463 JUMP JUMPDEST PUSH2 0x673 DUP3 DUP3 DUP6 PUSH2 0x5B3 JUMP JUMPDEST PUSH0 PUSH1 0x20 SWAP1 POP PUSH1 0x1F DUP4 GT PUSH1 0x1 DUP2 EQ PUSH2 0x6A4 JUMPI PUSH0 DUP5 ISZERO PUSH2 0x692 JUMPI DUP3 DUP8 ADD MLOAD SWAP1 POP JUMPDEST PUSH2 0x69C DUP6 DUP3 PUSH2 0x621 JUMP JUMPDEST DUP7 SSTORE POP PUSH2 0x703 JUMP JUMPDEST PUSH1 0x1F NOT DUP5 AND PUSH2 0x6B2 DUP7 PUSH2 0x493 JUMP JUMPDEST PUSH0 JUMPDEST DUP3 DUP2 LT ISZERO PUSH2 0x6D9 JUMPI DUP5 DUP10 ADD MLOAD DUP3 SSTORE PUSH1 0x1 DUP3 ADD SWAP2 POP PUSH1 0x20 DUP6 ADD SWAP5 POP PUSH1 0x20 DUP2 ADD SWAP1 POP PUSH2 0x6B4 JUMP JUMPDEST DUP7 DUP4 LT ISZERO PUSH2 0x6F6 JUMPI DUP5 DUP10 ADD MLOAD PUSH2 0x6F2 PUSH1 0x1F DUP10 AND DUP3 PUSH2 0x605 JUMP JUMPDEST DUP4 SSTORE POP JUMPDEST PUSH1 0x1 PUSH1 0x2 DUP9 MUL ADD DUP9 SSTORE POP POP POP JUMPDEST POP POP POP POP POP POP JUMP JUMPDEST PUSH2 0x131D DUP1 PUSH2 0x718 PUSH0 CODECOPY PUSH0 RETURN INVALID PUSH1 0x80 PUSH1 0x40 MSTORE CALLVALUE DUP1 ISZERO PUSH2 0xF JUMPI PUSH0 PUSH0 REVERT JUMPDEST POP PUSH1 0x4 CALLDATASIZE LT PUSH2 0xA7 JUMPI PUSH0 CALLDATALOAD PUSH1 0xE0 SHR DUP1 PUSH4 0x8DA5CB5B GT PUSH2 0x6F JUMPI DUP1 PUSH4 0x8DA5CB5B EQ PUSH2 0x163 JUMPI DUP1 PUSH4 0x98D16F75 EQ PUSH2 0x181 JUMPI DUP1 PUSH4 0xA3EC138D EQ PUSH2 0x1B1 JUMPI DUP1 PUSH4 0xC3403DDF EQ PUSH2 0x1E1 JUMPI DUP1 PUSH4 0xDA650EC6 EQ PUSH2 0x1EB JUMPI DUP1 PUSH4 0xFC36E15B EQ PUSH2 0x20A JUMPI PUSH2 0xA7 JUMP JUMPDEST DUP1 PUSH4 0x1EC6B60A EQ PUSH2 0xAB JUMPI DUP1 PUSH4 0x200D2ED2 EQ PUSH2 0xB5 JUMPI DUP1 PUSH4 0x3477EE2E EQ PUSH2 0xD3 JUMPI DUP1 PUSH4 0x51B9887D EQ PUSH2 0x103 JUMPI DUP1 PUSH4 0x8D4B44D9 EQ PUSH2 0x133 JUMPI JUMPDEST PUSH0 PUSH0 REVERT JUMPDEST PUSH2 0xB3 PUSH2 0x226 JUMP JUMPDEST STOP JUMPDEST PUSH2 0xBD PUSH2 0x2DF JUMP JUMPDEST PUSH1 0x40 MLOAD PUSH2 0xCA SWAP2 SWAP1 PUSH2 0x9BD JUMP JUMPDEST PUSH1 0x40 MLOAD DUP1 SWAP2 SUB SWAP1 RETURN JUMPDEST PUSH2 0xED PUSH1 0x4 DUP1 CALLDATASIZE SUB DUP2 ADD SWAP1 PUSH2 0xE8 SWAP2 SWAP1 PUSH2 0xA1A JUMP JUMPDEST PUSH2 0x2F1 JUMP JUMPDEST PUSH1 0x40 MLOAD PUSH2 0xFA SWAP2 SWAP1 PUSH2 0xAB5 JUMP JUMPDEST PUSH1 0x40 MLOAD DUP1 SWAP2 SUB SWAP1 RETURN JUMPDEST PUSH2 0x11D PUSH1 0x4 DUP1 CALLDATASIZE SUB DUP2 ADD SWAP1 PUSH2 0x118 SWAP2 SWAP1 PUSH2 0xC01 JUMP JUMPDEST PUSH2 0x397 JUMP JUMPDEST PUSH1 0x40 MLOAD PUSH2 0x12A SWAP2 SWAP1 PUSH2 0xC62 JUMP JUMPDEST PUSH1 0x40 MLOAD DUP1 SWAP2 SUB SWAP1 RETURN JUMPDEST PUSH2 0x14D PUSH1 0x4 DUP1 CALLDATASIZE SUB DUP2 ADD SWAP1 PUSH2 0x148 SWAP2 SWAP1 PUSH2 0xC01 JUMP JUMPDEST PUSH2 0x439 JUMP JUMPDEST PUSH1 0x40 MLOAD PUSH2 0x15A SWAP2 SWAP1 PUSH2 0xC8A JUMP JUMPDEST PUSH1 0x40 MLOAD DUP1 SWAP2 SUB SWAP1 RETURN JUMPDEST PUSH2 0x16B PUSH2 0x466 JUMP JUMPDEST PUSH1 0x40 MLOAD PUSH2 0x178 SWAP2 SWAP1 PUSH2 0xCE2 JUMP JUMPDEST PUSH1 0x40 MLOAD DUP1 SWAP2 SUB SWAP1 RETURN JUMPDEST PUSH2 0x19B PUSH1 0x4 DUP1 CALLDATASIZE SUB DUP2 ADD SWAP1 PUSH2 0x196 SWAP2 SWAP1 PUSH2 0xC01 JUMP JUMPDEST PUSH2 0x48A JUMP JUMPDEST PUSH1 0x40 MLOAD PUSH2 0x1A8 SWAP2 SWAP1 PUSH2 0xC8A JUMP JUMPDEST PUSH1 0x40 MLOAD DUP1 SWAP2 SUB SWAP1 RETURN JUMPDEST PUSH2 0x1CB PUSH1 0x4 DUP1 CALLDATASIZE SUB DUP2 ADD SWAP1 PUSH2 0x1C6 SWAP2 SWAP1 PUSH2 0xD25 JUMP JUMPDEST PUSH2 0x4F9 JUMP JUMPDEST PUSH1 0x40 MLOAD PUSH2 0x1D8 SWAP2 SWAP1 PUSH2 0xC62 JUMP JUMPDEST PUSH1 0x40 MLOAD DUP1 SWAP2 SUB SWAP1 RETURN JUMPDEST PUSH2 0x1E9 PUSH2 0x516 JUMP JUMPDEST STOP JUMPDEST PUSH2 0x1F3 PUSH2 0x5D0 JUMP JUMPDEST PUSH1 0x40 MLOAD PUSH2 0x201 SWAP3 SWAP2 SWAP1 PUSH2 0xF0A JUMP JUMPDEST PUSH1 0x40 MLOAD DUP1 SWAP2 SUB SWAP1 RETURN JUMPDEST PUSH2 0x224 PUSH1 0x4 DUP1 CALLDATASIZE SUB DUP2 ADD SWAP1 PUSH2 0x21F SWAP2 SWAP1 PUSH2 0xC01 JUMP JUMPDEST PUSH2 0x777 JUMP JUMPDEST STOP JUMPDEST PUSH0 PUSH0 SWAP1 SLOAD SWAP1 PUSH2 0x100 EXP SWAP1 DIV PUSH20 0xFFFFFFFFFFFFFFFFFFFFFFFFFFFFFFFFFFFFFFFF AND PUSH20 0xFFFFFFFFFFFFFFFFFFFFFFFFFFFFFFFFFFFFFFFF AND CALLER PUSH20 0xFFFFFFFFFFFFFFFFFFFFFFFFFFFFFFFFFFFFFFFF AND EQ PUSH2 0x2B4 JUMPI PUSH1 0x40 MLOAD PUSH32 0x8C379A000000000000000000000000000000000000000000000000000000000 DUP2 MSTORE PUSH1 0x4 ADD PUSH2 0x2AB SWAP1 PUSH2 0xFAF JUMP JUMPDEST PUSH1 0x40 MLOAD DUP1 SWAP2 SUB SWAP1 REVERT JUMPDEST PUSH0 PUSH0 PUSH1 0x14 PUSH2 0x100 EXP DUP2 SLOAD DUP2 PUSH1 0xFF MUL NOT AND SWAP1 DUP4 PUSH1 0x1 DUP2 GT ISZERO PUSH2 0x2D8 JUMPI PUSH2 0x2D7 PUSH2 0x94A JUMP JUMPDEST JUMPDEST MUL OR SWAP1 SSTORE POP JUMP JUMPDEST PUSH0 PUSH1 0x14 SWAP1 SLOAD SWAP1 PUSH2 0x100 EXP SWAP1 DIV PUSH1 0xFF AND DUP2 JUMP JUMPDEST PUSH1 0x1 DUP2 DUP2 SLOAD DUP2 LT PUSH2 0x300 JUMPI PUSH0 DUP1 REVERT JUMPDEST SWAP1 PUSH0 MSTORE PUSH1 0x20 PUSH0 KECCAK256 ADD PUSH0 SWAP2 POP SWAP1 POP DUP1 SLOAD PUSH2 0x318 SWAP1 PUSH2 0xFFA JUMP JUMPDEST DUP1 PUSH1 0x1F ADD PUSH1 0x20 DUP1 SWAP2 DIV MUL PUSH1 0x20 ADD PUSH1 0x40 MLOAD SWAP1 DUP2 ADD PUSH1 0x40 MSTORE DUP1 SWAP3 SWAP2 SWAP1 DUP2 DUP2 MSTORE PUSH1 0x20 ADD DUP3 DUP1 SLOAD PUSH2 0x344 SWAP1 PUSH2 0xFFA JUMP JUMPDEST DUP1 ISZERO PUSH2 0x38F JUMPI DUP1 PUSH1 0x1F LT PUSH2 0x366 JUMPI PUSH2 0x100 DUP1 DUP4 SLOAD DIV MUL DUP4 MSTORE SWAP2 PUSH1 0x20 ADD SWAP2 PUSH2 0x38F JUMP JUMPDEST DUP3 ADD SWAP2 SWAP1 PUSH0 MSTORE PUSH1 0x20 PUSH0 KECCAK256 SWAP1 JUMPDEST DUP2 SLOAD DUP2 MSTORE SWAP1 PUSH1 0x1 ADD SWAP1 PUSH1 0x20 ADD DUP1 DUP4 GT PUSH2 0x372 JUMPI DUP3 SWAP1 SUB PUSH1 0x1F AND DUP3 ADD SWAP2 JUMPDEST POP POP POP POP POP DUP2 JUMP JUMPDEST PUSH0 PUSH0 PUSH0 SWAP1 POP JUMPDEST PUSH1 0x1 DUP1 SLOAD SWAP1 POP DUP2 LT ISZERO PUSH2 0x42F JUMPI DUP3 PUSH1 0x40 MLOAD PUSH1 0x20 ADD PUSH2 0x3BB SWAP2 SWAP1 PUSH2 0x1064 JUMP JUMPDEST PUSH1 0x40 MLOAD PUSH1 0x20 DUP2 DUP4 SUB SUB DUP2 MSTORE SWAP1 PUSH1 0x40 MSTORE DUP1 MLOAD SWAP1 PUSH1 0x20 ADD KECCAK256 PUSH1 0x1 DUP3 DUP2 SLOAD DUP2 LT PUSH2 0x3E5 JUMPI PUSH2 0x3E4 PUSH2 0x107A JUMP JUMPDEST JUMPDEST SWAP1 PUSH0 MSTORE PUSH1 0x20 PUSH0 KECCAK256 ADD PUSH1 0x40 MLOAD PUSH1 0x20 ADD PUSH2 0x3FD SWAP2 SWAP1 PUSH2 0x1139 JUMP JUMPDEST PUSH1 0x40 MLOAD PUSH1 0x20 DUP2 DUP4 SUB SUB DUP2 MSTORE SWAP1 PUSH1 0x40 MSTORE DUP1 MLOAD SWAP1 PUSH1 0x20 ADD KECCAK256 SUB PUSH2 0x422 JUMPI PUSH1 0x1 SWAP2 POP POP PUSH2 0x434 JUMP JUMPDEST DUP1 DUP1 PUSH1 0x1 ADD SWAP2 POP POP PUSH2 0x39D JUMP JUMPDEST POP PUSH0 SWAP1 POP JUMPDEST SWAP2 SWAP1 POP JUMP JUMPDEST PUSH1 0x2 DUP2 DUP1 MLOAD PUSH1 0x20 DUP2 ADD DUP3 ADD DUP1 MLOAD DUP5 DUP3 MSTORE PUSH1 0x20 DUP4 ADD PUSH1 0x20 DUP6 ADD KECCAK256 DUP2 DUP4 MSTORE DUP1 SWAP6 POP POP POP POP POP POP PUSH0 SWAP2 POP SWAP1 POP SLOAD DUP2 JUMP JUMPDEST PUSH0 PUSH0 SWAP1 SLOAD SWAP1 PUSH2 0x100 EXP SWAP1 DIV PUSH20 0xFFFFFFFFFFFFFFFFFFFFFFFFFFFFFFFFFFFFFFFF AND DUP2 JUMP JUMPDEST PUSH0 PUSH2 0x494 DUP3 PUSH2 0x397 JUMP JUMPDEST PUSH2 0x4D3 JUMPI PUSH1 0x40 MLOAD PUSH32 0x8C379A000000000000000000000000000000000000000000000000000000000 DUP2 MSTORE PUSH1 0x4 ADD PUSH2 0x4CA SWAP1 PUSH2 0x1199 JUMP JUMPDEST PUSH1 0x40 MLOAD DUP1 SWAP2 SUB SWAP1 REVERT JUMPDEST PUSH1 0x2 DUP3 PUSH1 0x40 MLOAD PUSH2 0x4E3 SWAP2 SWAP1 PUSH2 0x1064 JUMP JUMPDEST SWAP1 DUP2 MSTORE PUSH1 0x20 ADD PUSH1 0x40 MLOAD DUP1 SWAP2 SUB SWAP1 KECCAK256 SLOAD SWAP1 POP SWAP2 SWAP1 POP JUMP JUMPDEST PUSH1 0x3 PUSH1 0x20 MSTORE DUP1 PUSH0 MSTORE PUSH1 0x40 PUSH0 KECCAK256 PUSH0 SWAP2 POP SLOAD SWAP1 PUSH2 0x100 EXP SWAP1 DIV PUSH1 0xFF AND DUP2 JUMP JUMPDEST PUSH0 PUSH0 SWAP1 SLOAD SWAP1 PUSH2 0x100 EXP SWAP1 DIV PUSH20 0xFFFFFFFFFFFFFFFFFFFFFFFFFFFFFFFFFFFFFFFF AND PUSH20 0xFFFFFFFFFFFFFFFFFFFFFFFFFFFFFFFFFFFFFFFF AND CALLER PUSH20 0xFFFFFFFFFFFFFFFFFFFFFFFFFFFFFFFFFFFFFFFF AND EQ PUSH2 0x5A4 JUMPI PUSH1 0x40 MLOAD PUSH32 0x8C379A000000000000000000000000000000000000000000000000000000000 DUP2 MSTORE PUSH1 0x4 ADD PUSH2 0x59B SWAP1 PUSH2 0xFAF JUMP JUMPDEST PUSH1 0x40 MLOAD DUP1 SWAP2 SUB SWAP1 REVERT JUMPDEST PUSH1 0x1 PUSH0 PUSH1 0x14 PUSH2 0x100 EXP DUP2 SLOAD DUP2 PUSH1 0xFF MUL NOT AND SWAP1 DUP4 PUSH1 0x1 DUP2 GT ISZERO PUSH2 0x5C9 JUMPI PUSH2 0x5C8 PUSH2 0x94A JUMP JUMPDEST JUMPDEST MUL OR SWAP1 SSTORE POP JUMP JUMPDEST PUSH1 0x60 DUP1 PUSH0 PUSH1 0x1 DUP1 SLOAD SWAP1 POP PUSH8 0xFFFFFFFFFFFFFFFF DUP2 GT ISZERO PUSH2 0x5F3 JUMPI PUSH2 0x5F2 PUSH2 0xADD JUMP JUMPDEST JUMPDEST PUSH1 0x40 MLOAD SWAP1 DUP1 DUP3 MSTORE DUP1 PUSH1 0x20 MUL PUSH1 0x20 ADD DUP3 ADD PUSH1 0x40 MSTORE DUP1 ISZERO PUSH2 0x621 JUMPI DUP2 PUSH1 0x20 ADD PUSH1 0x20 DUP3 MUL DUP1 CALLDATASIZE DUP4 CALLDATACOPY DUP1 DUP3 ADD SWAP2 POP POP SWAP1 POP JUMPDEST POP SWAP1 POP PUSH0 PUSH0 SWAP1 POP JUMPDEST PUSH1 0x1 DUP1 SLOAD SWAP1 POP DUP2 LT ISZERO PUSH2 0x69C JUMPI PUSH1 0x2 PUSH1 0x1 DUP3 DUP2 SLOAD DUP2 LT PUSH2 0x64C JUMPI PUSH2 0x64B PUSH2 0x107A JUMP JUMPDEST JUMPDEST SWAP1 PUSH0 MSTORE PUSH1 0x20 PUSH0 KECCAK256 ADD PUSH1 0x40 MLOAD PUSH2 0x661 SWAP2 SWAP1 PUSH2 0x1139 JUMP JUMPDEST SWAP1 DUP2 MSTORE PUSH1 0x20 ADD PUSH1 0x40 MLOAD DUP1 SWAP2 SUB SWAP1 KECCAK256 SLOAD DUP3 DUP3 DUP2 MLOAD DUP2 LT PUSH2 0x683 JUMPI PUSH2 0x682 PUSH2 0x107A JUMP JUMPDEST JUMPDEST PUSH1 0x20 MUL PUSH1 0x20 ADD ADD DUP2 DUP2 MSTORE POP POP DUP1 DUP1 PUSH1 0x1 ADD SWAP2 POP POP PUSH2 0x629 JUMP JUMPDEST POP PUSH1 0x1 DUP2 DUP2 DUP1 SLOAD DUP1 PUSH1 0x20 MUL PUSH1 0x20 ADD PUSH1 0x40 MLOAD SWAP1 DUP2 ADD PUSH1 0x40 MSTORE DUP1 SWAP3 SWAP2 SWAP1 DUP2 DUP2 MSTORE PUSH1 0x20 ADD PUSH0 SWAP1 JUMPDEST DUP3 DUP3 LT ISZERO PUSH2 0x768 JUMPI DUP4 DUP3 SWAP1 PUSH0 MSTORE PUSH1 0x20 PUSH0 KECCAK256 ADD DUP1 SLOAD PUSH2 0x6DD SWAP1 PUSH2 0xFFA JUMP JUMPDEST DUP1 PUSH1 0x1F ADD PUSH1 0x20 DUP1 SWAP2 DIV MUL PUSH1 0x20 ADD PUSH1 0x40 MLOAD SWAP1 DUP2 ADD PUSH1 0x40 MSTORE DUP1 SWAP3 SWAP2 SWAP1 DUP2 DUP2 MSTORE PUSH1 0x20 ADD DUP3 DUP1 SLOAD PUSH2 0x709 SWAP1 PUSH2 0xFFA JUMP JUMPDEST DUP1 ISZERO PUSH2 0x754 JUMPI DUP1 PUSH1 0x1F LT PUSH2 0x72B JUMPI PUSH2 0x100 DUP1 DUP4 SLOAD DIV MUL DUP4 MSTORE SWAP2 PUSH1 0x20 ADD SWAP2 PUSH2 0x754 JUMP JUMPDEST DUP3 ADD SWAP2 SWAP1 PUSH0 MSTORE PUSH1 0x20 PUSH0 KECCAK256 SWAP1 JUMPDEST DUP2 SLOAD DUP2 MSTORE SWAP1 PUSH1 0x1 ADD SWAP1 PUSH1 0x20 ADD DUP1 DUP4 GT PUSH2 0x737 JUMPI DUP3 SWAP1 SUB PUSH1 0x1F AND DUP3 ADD SWAP2 JUMPDEST POP POP POP POP POP DUP2 MSTORE PUSH1 0x20 ADD SWAP1 PUSH1 0x1 ADD SWAP1 PUSH2 0x6C0 JUMP JUMPDEST POP POP POP POP SWAP2 POP SWAP3 POP SWAP3 POP POP SWAP1 SWAP2 JUMP JUMPDEST PUSH0 PUSH1 0x1 DUP2 GT ISZERO PUSH2 0x78A JUMPI PUSH2 0x789 PUSH2 0x94A JUMP JUMPDEST JUMPDEST PUSH0 PUSH1 0x14 SWAP1 SLOAD SWAP1 PUSH2 0x100 EXP SWAP1 DIV PUSH1 0xFF AND PUSH1 0x1 DUP2 GT ISZERO PUSH2 0x7AB JUMPI PUSH2 0x7AA PUSH2 0x94A JUMP JUMPDEST JUMPDEST EQ PUSH2 0x7EB JUMPI PUSH1 0x40 MLOAD PUSH32 0x8C379A000000000000000000000000000000000000000000000000000000000 DUP2 MSTORE PUSH1 0x4 ADD PUSH2 0x7E2 SWAP1 PUSH2 0x1201 JUMP JUMPDEST PUSH1 0x40 MLOAD DUP1 SWAP2 SUB SWAP1 REVERT JUMPDEST PUSH1 0x3 PUSH0 CALLER PUSH20 0xFFFFFFFFFFFFFFFFFFFFFFFFFFFFFFFFFFFFFFFF AND PUSH20 0xFFFFFFFFFFFFFFFFFFFFFFFFFFFFFFFFFFFFFFFF AND DUP2 MSTORE PUSH1 0x20 ADD SWAP1 DUP2 MSTORE PUSH1 0x20 ADD PUSH0 KECCAK256 PUSH0 SWAP1 SLOAD SWAP1 PUSH2 0x100 EXP SWAP1 DIV PUSH1 0xFF AND ISZERO PUSH2 0x875 JUMPI PUSH1 0x40 MLOAD PUSH32 0x8C379A000000000000000000000000000000000000000000000000000000000 DUP2 MSTORE PUSH1 0x4 ADD PUSH2 0x86C SWAP1 PUSH2 0x1269 JUMP JUMPDEST PUSH1 0x40 MLOAD DUP1 SWAP2 SUB SWAP1 REVERT JUMPDEST PUSH2 0x87E DUP2 PUSH2 0x397 JUMP JUMPDEST PUSH2 0x8BD JUMPI PUSH1 0x40 MLOAD PUSH32 0x8C379A000000000000000000000000000000000000000000000000000000000 DUP2 MSTORE PUSH1 0x4 ADD PUSH2 0x8B4 SWAP1 PUSH2 0x1199 JUMP JUMPDEST PUSH1 0x40 MLOAD DUP1 SWAP2 SUB SWAP1 REVERT JUMPDEST PUSH1 0x1 PUSH1 0x2 DUP3 PUSH1 0x40 MLOAD PUSH2 0x8CF SWAP2 SWAP1 PUSH2 0x1064 JUMP JUMPDEST SWAP1 DUP2 MSTORE PUSH1 0x20 ADD PUSH1 0x40 MLOAD DUP1 SWAP2 SUB SWAP1 KECCAK256 PUSH0 DUP3 DUP3 SLOAD PUSH2 0x8EB SWAP2 SWAP1 PUSH2 0x12B4 JUMP JUMPDEST SWAP3 POP POP DUP2 SWAP1 SSTORE POP PUSH1 0x1 PUSH1 0x3 PUSH0 CALLER PUSH20 0xFFFFFFFFFFFFFFFFFFFFFFFFFFFFFFFFFFFFFFFF AND PUSH20 0xFFFFFFFFFFFFFFFFFFFFFFFFFFFFFFFFFFFFFFFF AND DUP2 MSTORE PUSH1 0x20 ADD SWAP1 DUP2 MSTORE PUSH1 0x20 ADD PUSH0 KECCAK256 PUSH0 PUSH2 0x100 EXP DUP2 SLOAD DUP2 PUSH1 0xFF MUL NOT AND SWAP1 DUP4 ISZERO ISZERO MUL OR SWAP1 SSTORE POP POP JUMP JUMPDEST PUSH32 0x4E487B7100000000000000000000000000000000000000000000000000000000 PUSH0 MSTORE PUSH1 0x21 PUSH1 0x4 MSTORE PUSH1 0x24 PUSH0 REVERT JUMPDEST PUSH1 0x2 DUP2 LT PUSH2 0x988 JUMPI PUSH2 0x987 PUSH2 0x94A JUMP JUMPDEST JUMPDEST POP JUMP JUMPDEST PUSH0 DUP2 SWAP1 POP PUSH2 0x998 DUP3 PUSH2 0x977 JUMP JUMPDEST SWAP2 SWAP1 POP JUMP JUMPDEST PUSH0 PUSH2 0x9A7 DUP3 PUSH2 0x98B JUMP JUMPDEST SWAP1 POP SWAP2 SWAP1 POP JUMP JUMPDEST PUSH2 0x9B7 DUP2 PUSH2 0x99D JUMP JUMPDEST DUP3 MSTORE POP POP JUMP JUMPDEST PUSH0 PUSH1 0x20 DUP3 ADD SWAP1 POP PUSH2 0x9D0 PUSH0 DUP4 ADD DUP5 PUSH2 0x9AE JUMP JUMPDEST SWAP3 SWAP2 POP POP JUMP JUMPDEST PUSH0 PUSH1 0x40 MLOAD SWAP1 POP SWAP1 JUMP JUMPDEST PUSH0 PUSH0 REVERT JUMPDEST PUSH0 PUSH0 REVERT JUMPDEST PUSH0 DUP2 SWAP1 POP SWAP2 SWAP1 POP JUMP JUMPDEST PUSH2 0x9F9 DUP2 PUSH2 0x9E7 JUMP JUMPDEST DUP2 EQ PUSH2 0xA03 JUMPI PUSH0 PUSH0 REVERT JUMPDEST POP JUMP JUMPDEST PUSH0 DUP2 CALLDATALOAD SWAP1 POP PUSH2 0xA14 DUP2 PUSH2 0x9F0 JUMP JUMPDEST SWAP3 SWAP2 POP POP JUMP JUMPDEST PUSH0 PUSH1 0x20 DUP3 DUP5 SUB SLT ISZERO PUSH2 0xA2F JUMPI PUSH2 0xA2E PUSH2 0x9DF JUMP JUMPDEST JUMPDEST PUSH0 PUSH2 0xA3C DUP5 DUP3 DUP6 ADD PUSH2 0xA06 JUMP JUMPDEST SWAP2 POP POP SWAP3 SWAP2 POP POP JUMP JUMPDEST PUSH0 DUP2 MLOAD SWAP1 POP SWAP2 SWAP1 POP JUMP JUMPDEST PUSH0 DUP3 DUP3 MSTORE PUSH1 0x20 DUP3 ADD SWAP1 POP SWAP3 SWAP2 POP POP JUMP JUMPDEST DUP3 DUP2 DUP4 MCOPY PUSH0 DUP4 DUP4 ADD MSTORE POP POP POP JUMP JUMPDEST PUSH0 PUSH1 0x1F NOT PUSH1 0x1F DUP4 ADD AND SWAP1 POP SWAP2 SWAP1 POP JUMP JUMPDEST PUSH0 PUSH2 0xA87 DUP3 PUSH2 0xA45 JUMP JUMPDEST PUSH2 0xA91 DUP2 DUP6 PUSH2 0xA4F JUMP JUMPDEST SWAP4 POP PUSH2 0xAA1 DUP2 DUP6 PUSH1 0x20 DUP7 ADD PUSH2 0xA5F JUMP JUMPDEST PUSH2 0xAAA DUP2 PUSH2 0xA6D JUMP JUMPDEST DUP5 ADD SWAP2 POP POP SWAP3 SWAP2 POP POP JUMP JUMPDEST PUSH0 PUSH1 0x20 DUP3 ADD SWAP1 POP DUP2 DUP2 SUB PUSH0 DUP4 ADD MSTORE PUSH2 0xACD DUP2 DUP5 PUSH2 0xA7D JUMP JUMPDEST SWAP1 POP SWAP3 SWAP2 POP POP JUMP JUMPDEST PUSH0 PUSH0 REVERT JUMPDEST PUSH0 PUSH0 REVERT JUMPDEST PUSH32 0x4E487B7100000000000000000000000000000000000000000000000000000000 PUSH0 MSTORE PUSH1 0x41 PUSH1 0x4 MSTORE PUSH1 0x24 PUSH0 REVERT JUMPDEST PUSH2 0xB13 DUP3 PUSH2 0xA6D JUMP JUMPDEST DUP2 ADD DUP2 DUP2 LT PUSH8 0xFFFFFFFFFFFFFFFF DUP3 GT OR ISZERO PUSH2 0xB32 JUMPI PUSH2 0xB31 PUSH2 0xADD JUMP JUMPDEST JUMPDEST DUP1 PUSH1 0x40 MSTORE POP POP POP JUMP JUMPDEST PUSH0 PUSH2 0xB44 PUSH2 0x9D6 JUMP JUMPDEST SWAP1 POP PUSH2 0xB50 DUP3 DUP3 PUSH2 0xB0A JUMP JUMPDEST SWAP2 SWAP1 POP JUMP JUMPDEST PUSH0 PUSH8 0xFFFFFFFFFFFFFFFF DUP3 GT ISZERO PUSH2 0xB6F JUMPI PUSH2 0xB6E PUSH2 0xADD JUMP JUMPDEST JUMPDEST PUSH2 0xB78 DUP3 PUSH2 0xA6D JUMP JUMPDEST SWAP1 POP PUSH1 0x20 DUP2 ADD SWAP1 POP SWAP2 SWAP1 POP JUMP JUMPDEST DUP3 DUP2 DUP4 CALLDATACOPY PUSH0 DUP4 DUP4 ADD MSTORE POP POP POP JUMP JUMPDEST PUSH0 PUSH2 0xBA5 PUSH2 0xBA0 DUP5 PUSH2 0xB55 JUMP JUMPDEST PUSH2 0xB3B JUMP JUMPDEST SWAP1 POP DUP3 DUP2 MSTORE PUSH1 0x20 DUP2 ADD DUP5 DUP5 DUP5 ADD GT ISZERO PUSH2 0xBC1 JUMPI PUSH2 0xBC0 PUSH2 0xAD9 JUMP JUMPDEST JUMPDEST PUSH2 0xBCC DUP5 DUP3 DUP6 PUSH2 0xB85 JUMP JUMPDEST POP SWAP4 SWAP3 POP POP POP JUMP JUMPDEST PUSH0 DUP3 PUSH1 0x1F DUP4 ADD SLT PUSH2 0xBE8 JUMPI PUSH2 0xBE7 PUSH2 0xAD5 JUMP JUMPDEST JUMPDEST DUP2 CALLDATALOAD PUSH2 0xBF8 DUP5 DUP3 PUSH1 0x20 DUP7 ADD PUSH2 0xB93 JUMP JUMPDEST SWAP2 POP POP SWAP3 SWAP2 POP POP JUMP JUMPDEST PUSH0 PUSH1 0x20 DUP3 DUP5 SUB SLT ISZERO PUSH2 0xC16 JUMPI PUSH2 0xC15 PUSH2 0x9DF JUMP JUMPDEST JUMPDEST PUSH0 DUP3 ADD CALLDATALOAD PUSH8 0xFFFFFFFFFFFFFFFF DUP2 GT ISZERO PUSH2 0xC33 JUMPI PUSH2 0xC32 PUSH2 0x9E3 JUMP JUMPDEST JUMPDEST PUSH2 0xC3F DUP5 DUP3 DUP6 ADD PUSH2 0xBD4 JUMP JUMPDEST SWAP2 POP POP SWAP3 SWAP2 POP POP JUMP JUMPDEST PUSH0 DUP2 ISZERO ISZERO SWAP1 POP SWAP2 SWAP1 POP JUMP JUMPDEST PUSH2 0xC5C DUP2 PUSH2 0xC48 JUMP JUMPDEST DUP3 MSTORE POP POP JUMP JUMPDEST PUSH0 PUSH1 0x20 DUP3 ADD SWAP1 POP PUSH2 0xC75 PUSH0 DUP4 ADD DUP5 PUSH2 0xC53 JUMP JUMPDEST SWAP3 SWAP2 POP POP JUMP JUMPDEST PUSH2 0xC84 DUP2 PUSH2 0x9E7 JUMP JUMPDEST DUP3 MSTORE POP POP JUMP JUMPDEST PUSH0 PUSH1 0x20 DUP3 ADD SWAP1 POP PUSH2 0xC9D PUSH0 DUP4 ADD DUP5 PUSH2 0xC7B JUMP JUMPDEST SWAP3 SWAP2 POP POP JUMP JUMPDEST PUSH0 PUSH20 0xFFFFFFFFFFFFFFFFFFFFFFFFFFFFFFFFFFFFFFFF DUP3 AND SWAP1 POP SWAP2 SWAP1 POP JUMP JUMPDEST PUSH0 PUSH2 0xCCC DUP3 PUSH2 0xCA3 JUMP JUMPDEST SWAP1 POP SWAP2 SWAP1 POP JUMP JUMPDEST PUSH2 0xCDC DUP2 PUSH2 0xCC2 JUMP JUMPDEST DUP3 MSTORE POP POP JUMP JUMPDEST PUSH0 PUSH1 0x20 DUP3 ADD SWAP1 POP PUSH2 0xCF5 PUSH0 DUP4 ADD DUP5 PUSH2 0xCD3 JUMP JUMPDEST SWAP3 SWAP2 POP POP JUMP JUMPDEST PUSH2 0xD04 DUP2 PUSH2 0xCC2 JUMP JUMPDEST DUP2 EQ PUSH2 0xD0E JUMPI PUSH0 PUSH0 REVERT JUMPDEST POP JUMP JUMPDEST PUSH0 DUP2 CALLDATALOAD SWAP1 POP PUSH2 0xD1F DUP2 PUSH2 0xCFB JUMP JUMPDEST SWAP3 SWAP2 POP POP JUMP JUMPDEST PUSH0 PUSH1 0x20 DUP3 DUP5 SUB SLT ISZERO PUSH2 0xD3A JUMPI PUSH2 0xD39 PUSH2 0x9DF JUMP JUMPDEST JUMPDEST PUSH0 PUSH2 0xD47 DUP5 DUP3 DUP6 ADD PUSH2 0xD11 JUMP JUMPDEST SWAP2 POP POP SWAP3 SWAP2 POP POP JUMP JUMPDEST PUSH0 DUP2 MLOAD SWAP1 POP SWAP2 SWAP1 POP JUMP JUMPDEST PUSH0 DUP3 DUP3 MSTORE PUSH1 0x20 DUP3 ADD SWAP1 POP SWAP3 SWAP2 POP POP JUMP JUMPDEST PUSH0 DUP2 SWAP1 POP PUSH1 0x20 DUP3 ADD SWAP1 POP SWAP2 SWAP1 POP JUMP JUMPDEST PUSH0 DUP3 DUP3 MSTORE PUSH1 0x20 DUP3 ADD SWAP1 POP SWAP3 SWAP2 POP POP JUMP JUMPDEST PUSH0 PUSH2 0xD93 DUP3 PUSH2 0xA45 JUMP JUMPDEST PUSH2 0xD9D DUP2 DUP6 PUSH2 0xD79 JUMP JUMPDEST SWAP4 POP PUSH2 0xDAD DUP2 DUP6 PUSH1 0x20 DUP7 ADD PUSH2 0xA5F JUMP JUMPDEST PUSH2 0xDB6 DUP2 PUSH2 0xA6D JUMP JUMPDEST DUP5 ADD SWAP2 POP POP SWAP3 SWAP2 POP POP JUMP JUMPDEST PUSH0 PUSH2 0xDCC DUP4 DUP4 PUSH2 0xD89 JUMP JUMPDEST SWAP1 POP SWAP3 SWAP2 POP POP JUMP JUMPDEST PUSH0 PUSH1 0x20 DUP3 ADD SWAP1 POP SWAP2 SWAP1 POP JUMP JUMPDEST PUSH0 PUSH2 0xDEA DUP3 PUSH2 0xD50 JUMP JUMPDEST PUSH2 0xDF4 DUP2 DUP6 PUSH2 0xD5A JUMP JUMPDEST SWAP4 POP DUP4 PUSH1 0x20 DUP3 MUL DUP6 ADD PUSH2 0xE06 DUP6 PUSH2 0xD6A JUMP JUMPDEST DUP1 PUSH0 JUMPDEST DUP6 DUP2 LT ISZERO PUSH2 0xE41 JUMPI DUP5 DUP5 SUB DUP10 MSTORE DUP2 MLOAD PUSH2 0xE22 DUP6 DUP3 PUSH2 0xDC1 JUMP JUMPDEST SWAP5 POP PUSH2 0xE2D DUP4 PUSH2 0xDD4 JUMP JUMPDEST SWAP3 POP PUSH1 0x20 DUP11 ADD SWAP10 POP POP PUSH1 0x1 DUP2 ADD SWAP1 POP PUSH2 0xE09 JUMP JUMPDEST POP DUP3 SWAP8 POP DUP8 SWAP6 POP POP POP POP POP POP SWAP3 SWAP2 POP POP JUMP JUMPDEST PUSH0 DUP2 MLOAD SWAP1 POP SWAP2 SWAP1 POP JUMP JUMPDEST PUSH0 DUP3 DUP3 MSTORE PUSH1 0x20 DUP3 ADD SWAP1 POP SWAP3 SWAP2 POP POP JUMP JUMPDEST PUSH0 DUP2 SWAP1 POP PUSH1 0x20 DUP3 ADD SWAP1 POP SWAP2 SWAP1 POP JUMP JUMPDEST PUSH2 0xE85 DUP2 PUSH2 0x9E7 JUMP JUMPDEST DUP3 MSTORE POP POP JUMP JUMPDEST PUSH0 PUSH2 0xE96 DUP4 DUP4 PUSH2 0xE7C JUMP JUMPDEST PUSH1 0x20 DUP4 ADD SWAP1 POP SWAP3 SWAP2 POP POP JUMP JUMPDEST PUSH0 PUSH1 0x20 DUP3 ADD SWAP1 POP SWAP2 SWAP1 POP JUMP JUMPDEST PUSH0 PUSH2 0xEB8 DUP3 PUSH2 0xE53 JUMP JUMPDEST PUSH2 0xEC2 DUP2 DUP6 PUSH2 0xE5D JUMP JUMPDEST SWAP4 POP PUSH2 0xECD DUP4 PUSH2 0xE6D JUMP JUMPDEST DUP1 PUSH0 JUMPDEST DUP4 DUP2 LT ISZERO PUSH2 0xEFD JUMPI DUP2 MLOAD PUSH2 0xEE4 DUP9 DUP3 PUSH2 0xE8B JUMP JUMPDEST SWAP8 POP PUSH2 0xEEF DUP4 PUSH2 0xEA2 JUMP JUMPDEST SWAP3 POP POP PUSH1 0x1 DUP2 ADD SWAP1 POP PUSH2 0xED0 JUMP JUMPDEST POP DUP6 SWAP4 POP POP POP POP SWAP3 SWAP2 POP POP JUMP JUMPDEST PUSH0 PUSH1 0x40 DUP3 ADD SWAP1 POP DUP2 DUP2 SUB PUSH0 DUP4 ADD MSTORE PUSH2 0xF22 DUP2 DUP6 PUSH2 0xDE0 JUMP JUMPDEST SWAP1 POP DUP2 DUP2 SUB PUSH1 0x20 DUP4 ADD MSTORE PUSH2 0xF36 DUP2 DUP5 PUSH2 0xEAE JUMP JUMPDEST SWAP1 POP SWAP4 SWAP3 POP POP POP JUMP JUMPDEST PUSH32 0x4F6E6C7920746865206F776E65722063616E2063616C6C20746869732066756E PUSH0 DUP3 ADD MSTORE PUSH32 0x6374696F6E2E0000000000000000000000000000000000000000000000000000 PUSH1 0x20 DUP3 ADD MSTORE POP JUMP JUMPDEST PUSH0 PUSH2 0xF99 PUSH1 0x26 DUP4 PUSH2 0xA4F JUMP JUMPDEST SWAP2 POP PUSH2 0xFA4 DUP3 PUSH2 0xF3F JUMP JUMPDEST PUSH1 0x40 DUP3 ADD SWAP1 POP SWAP2 SWAP1 POP JUMP JUMPDEST PUSH0 PUSH1 0x20 DUP3 ADD SWAP1 POP DUP2 DUP2 SUB PUSH0 DUP4 ADD MSTORE PUSH2 0xFC6 DUP2 PUSH2 0xF8D JUMP JUMPDEST SWAP1 POP SWAP2 SWAP1 POP JUMP JUMPDEST PUSH32 0x4E487B7100000000000000000000000000000000000000000000000000000000 PUSH0 MSTORE PUSH1 0x22 PUSH1 0x4 MSTORE PUSH1 0x24 PUSH0 REVERT JUMPDEST PUSH0 PUSH1 0x2 DUP3 DIV SWAP1 POP PUSH1 0x1 DUP3 AND DUP1 PUSH2 0x1011 JUMPI PUSH1 0x7F DUP3 AND SWAP2 POP JUMPDEST PUSH1 0x20 DUP3 LT DUP2 SUB PUSH2 0x1024 JUMPI PUSH2 0x1023 PUSH2 0xFCD JUMP JUMPDEST JUMPDEST POP SWAP2 SWAP1 POP JUMP JUMPDEST PUSH0 DUP2 SWAP1 POP SWAP3 SWAP2 POP POP JUMP JUMPDEST PUSH0 PUSH2 0x103E DUP3 PUSH2 0xA45 JUMP JUMPDEST PUSH2 0x1048 DUP2 DUP6 PUSH2 0x102A JUMP JUMPDEST SWAP4 POP PUSH2 0x1058 DUP2 DUP6 PUSH1 0x20 DUP7 ADD PUSH2 0xA5F JUMP JUMPDEST DUP1 DUP5 ADD SWAP2 POP POP SWAP3 SWAP2 POP POP JUMP JUMPDEST PUSH0 PUSH2 0x106F DUP3 DUP5 PUSH2 0x1034 JUMP JUMPDEST SWAP2 POP DUP2 SWAP1 POP SWAP3 SWAP2 POP POP JUMP JUMPDEST PUSH32 0x4E487B7100000000000000000000000000000000000000000000000000000000 PUSH0 MSTORE PUSH1 0x32 PUSH1 0x4 MSTORE PUSH1 0x24 PUSH0 REVERT JUMPDEST PUSH0 DUP2 SWAP1 POP DUP2 PUSH0 MSTORE PUSH1 0x20 PUSH0 KECCAK256 SWAP1 POP SWAP2 SWAP1 POP JUMP JUMPDEST PUSH0 DUP2 SLOAD PUSH2 0x10C5 DUP2 PUSH2 0xFFA JUMP JUMPDEST PUSH2 0x10CF DUP2 DUP7 PUSH2 0x102A JUMP JUMPDEST SWAP5 POP PUSH1 0x1 DUP3 AND PUSH0 DUP2 EQ PUSH2 0x10E9 JUMPI PUSH1 0x1 DUP2 EQ PUSH2 0x10FE JUMPI PUSH2 0x1130 JUMP JUMPDEST PUSH1 0xFF NOT DUP4 AND DUP7 MSTORE DUP2 ISZERO ISZERO DUP3 MUL DUP7 ADD SWAP4 POP PUSH2 0x1130 JUMP JUMPDEST PUSH2 0x1107 DUP6 PUSH2 0x10A7 JUMP JUMPDEST PUSH0 JUMPDEST DUP4 DUP2 LT ISZERO PUSH2 0x1128 JUMPI DUP2 SLOAD DUP2 DUP10 ADD MSTORE PUSH1 0x1 DUP3 ADD SWAP2 POP PUSH1 0x20 DUP2 ADD SWAP1 POP PUSH2 0x1109 JUMP JUMPDEST DUP4 DUP9 ADD SWAP6 POP POP POP JUMPDEST POP POP POP SWAP3 SWAP2 POP POP JUMP JUMPDEST PUSH0 PUSH2 0x1144 DUP3 DUP5 PUSH2 0x10B9 JUMP JUMPDEST SWAP2 POP DUP2 SWAP1 POP SWAP3 SWAP2 POP POP JUMP JUMPDEST PUSH32 0x496E76616C69642063616E6469646174652E0000000000000000000000000000 PUSH0 DUP3 ADD MSTORE POP JUMP JUMPDEST PUSH0 PUSH2 0x1183 PUSH1 0x12 DUP4 PUSH2 0xA4F JUMP JUMPDEST SWAP2 POP PUSH2 0x118E DUP3 PUSH2 0x114F JUMP JUMPDEST PUSH1 0x20 DUP3 ADD SWAP1 POP SWAP2 SWAP1 POP JUMP JUMPDEST PUSH0 PUSH1 0x20 DUP3 ADD SWAP1 POP DUP2 DUP2 SUB PUSH0 DUP4 ADD MSTORE PUSH2 0x11B0 DUP2 PUSH2 0x1177 JUMP JUMPDEST SWAP1 POP SWAP2 SWAP1 POP JUMP JUMPDEST PUSH32 0x566F74696E67206973206E6F74206F70656E2E00000000000000000000000000 PUSH0 DUP3 ADD MSTORE POP JUMP JUMPDEST PUSH0 PUSH2 0x11EB PUSH1 0x13 DUP4 PUSH2 0xA4F JUMP JUMPDEST SWAP2 POP PUSH2 0x11F6 DUP3 PUSH2 0x11B7 JUMP JUMPDEST PUSH1 0x20 DUP3 ADD SWAP1 POP SWAP2 SWAP1 POP JUMP JUMPDEST PUSH0 PUSH1 0x20 DUP3 ADD SWAP1 POP DUP2 DUP2 SUB PUSH0 DUP4 ADD MSTORE PUSH2 0x1218 DUP2 PUSH2 0x11DF JUMP JUMPDEST SWAP1 POP SWAP2 SWAP1 POP JUMP JUMPDEST PUSH32 0x596F75206861766520616C726561647920766F7465642E000000000000000000 PUSH0 DUP3 ADD MSTORE POP JUMP JUMPDEST PUSH0 PUSH2 0x1253 PUSH1 0x17 DUP4 PUSH2 0xA4F JUMP JUMPDEST SWAP2 POP PUSH2 0x125E DUP3 PUSH2 0x121F JUMP JUMPDEST PUSH1 0x20 DUP3 ADD SWAP1 POP SWAP2 SWAP1 POP JUMP JUMPDEST PUSH0 PUSH1 0x20 DUP3 ADD SWAP1 POP DUP2 DUP2 SUB PUSH0 DUP4 ADD MSTORE PUSH2 0x1280 DUP2 PUSH2 0x1247 JUMP JUMPDEST SWAP1 POP SWAP2 SWAP1 POP JUMP JUMPDEST PUSH32 0x4E487B7100000000000000000000000000000000000000000000000000000000 PUSH0 MSTORE PUSH1 0x11 PUSH1 0x4 MSTORE PUSH1 0x24 PUSH0 REVERT JUMPDEST PUSH0 PUSH2 0x12BE DUP3 PUSH2 0x9E7 JUMP JUMPDEST SWAP2 POP PUSH2 0x12C9 DUP4 PUSH2 0x9E7 JUMP JUMPDEST SWAP3 POP DUP3 DUP3 ADD SWAP1 POP DUP1 DUP3 GT ISZERO PUSH2 0x12E1 JUMPI PUSH2 0x12E0 PUSH2 0x1287 JUMP JUMPDEST JUMPDEST SWAP3 SWAP2 POP POP JUMP INVALID LOG2 PUSH5 0x6970667358 0x22 SLT KECCAK256 0xBC 0xA6 BASEFEE SWAP1 LOG2 PUSH8 0x4BEB38E6E2689E2A 0x25 0xC0 0x25 0xA8 PUSH10 0x3135FC730945513886F3 SWAP9 DUP5 PUSH5 0x64736F6C63 NUMBER STOP ADDMOD SHL STOP CALLER "
				},
				"gasEstimates": {
					"creation": {
						"codeDepositCost": "978600",
						"executionCost": "infinite",
						"totalCost": "infinite"
					},
					"external": {
						"candidates(uint256)": "infinite",
						"endVoting()": "26713",
						"getTotalVotes(string)": "infinite",
						"getVotingResults()": "infinite",
						"isValidCandidate(string)": "infinite",
						"owner()": "2507",
						"startVoting()": "26647",
						"status()": "2627",
						"vote(string)": "infinite",
						"voters(address)": "2877",
						"votesReceived(string)": "infinite"
					}
				},
				"methodIdentifiers": {
					"candidates(uint256)": "3477ee2e",
					"endVoting()": "c3403ddf",
					"getTotalVotes(string)": "98d16f75",
					"getVotingResults()": "da650ec6",
					"isValidCandidate(string)": "51b9887d",
					"owner()": "8da5cb5b",
					"startVoting()": "1ec6b60a",
					"status()": "200d2ed2",
					"vote(string)": "fc36e15b",
					"voters(address)": "a3ec138d",
					"votesReceived(string)": "8d4b44d9"
				}
			},
			"storageLayout": {
				"storage": [
					{
						"astId": 6,
						"contract": "solidity_series.sol/lecturelabs.sol/lab6voting_contract.sol:Voting",
						"label": "owner",
						"offset": 0,
						"slot": "0",
						"type": "t_address"
					},
					{
						"astId": 9,
						"contract": "solidity_series.sol/lecturelabs.sol/lab6voting_contract.sol:Voting",
						"label": "status",
						"offset": 20,
						"slot": "0",
						"type": "t_enum(VotingStatus)4"
					},
					{
						"astId": 12,
						"contract": "solidity_series.sol/lecturelabs.sol/lab6voting_contract.sol:Voting",
						"label": "candidates",
						"offset": 0,
						"slot": "1",
						"type": "t_array(t_string_storage)dyn_storage"
					},
					{
						"astId": 16,
						"contract": "solidity_series.sol/lecturelabs.sol/lab6voting_contract.sol:Voting",
						"label": "votesReceived",
						"offset": 0,
						"slot": "2",
						"type": "t_mapping(t_string_memory_ptr,t_uint256)"
					},
					{
						"astId": 20,
						"contract": "solidity_series.sol/lecturelabs.sol/lab6voting_contract.sol:Voting",
						"label": "voters",
						"offset": 0,
						"slot": "3",
						"type": "t_mapping(t_address,t_bool)"
					}
				],
				"types": {
					"t_address": {
						"encoding": "inplace",
						"label": "address",
						"numberOfBytes": "20"
					},
					"t_array(t_string_storage)dyn_storage": {
						"base": "t_string_storage",
						"encoding": "dynamic_array",
						"label": "string[]",
						"numberOfBytes": "32"
					},
					"t_bool": {
						"encoding": "inplace",
						"label": "bool",
						"numberOfBytes": "1"
					},
					"t_enum(VotingStatus)4": {
						"encoding": "inplace",
						"label": "enum Voting.VotingStatus",
						"numberOfBytes": "1"
					},
					"t_mapping(t_address,t_bool)": {
						"encoding": "mapping",
						"key": "t_address",
						"label": "mapping(address => bool)",
						"numberOfBytes": "32",
						"value": "t_bool"
					},
					"t_mapping(t_string_memory_ptr,t_uint256)": {
						"encoding": "mapping",
						"key": "t_string_memory_ptr",
						"label": "mapping(string => uint256)",
						"numberOfBytes": "32",
						"value": "t_uint256"
					},
					"t_string_memory_ptr": {
						"encoding": "bytes",
						"label": "string",
						"numberOfBytes": "32"
					},
					"t_string_storage": {
						"encoding": "bytes",
						"label": "string",
						"numberOfBytes": "32"
					},
					"t_uint256": {
						"encoding": "inplace",
						"label": "uint256",
						"numberOfBytes": "32"
					}
				}
			},
			"userdoc": {
				"kind": "user",
				"methods": {},
				"version": 1
			}
		}
	}
}