{
	"solidity_series.sol/lecturelabs.sol/lab_errorhandling.sol": {
		"Account": {
			"abi": [
				{
					"inputs": [],
					"stateMutability": "nonpayable",
					"type": "constructor"
				},
				{
					"inputs": [],
					"name": "balnace",
					"outputs": [
						{
							"internalType": "uint256",
							"name": "",
							"type": "uint256"
						}
					],
					"stateMutability": "view",
					"type": "function"
				},
				{
					"inputs": [
						{
							"internalType": "uint256",
							"name": "amount",
							"type": "uint256"
						}
					],
					"name": "deposit",
					"outputs": [],
					"stateMutability": "nonpayable",
					"type": "function"
				},
				{
					"inputs": [
						{
							"internalType": "uint256",
							"name": "amount",
							"type": "uint256"
						}
					],
					"name": "withdraw",
					"outputs": [],
					"stateMutability": "nonpayable",
					"type": "function"
				}
			],
			"devdoc": {
				"kind": "dev",
				"methods": {},
				"version": 1
			},
			"evm": {
				"assembly": "    /* \"solidity_series.sol/lecturelabs.sol/lab_errorhandling.sol\":140:684  contract Account{... */\n  mstore(0x40, 0x80)\n    /* \"solidity_series.sol/lecturelabs.sol/lab_errorhandling.sol\":192:237  constructor(){... */\n  callvalue\n  dup1\n  iszero\n  tag_1\n  jumpi\n  revert(0x00, 0x00)\ntag_1:\n  pop\n    /* \"solidity_series.sol/lecturelabs.sol/lab_errorhandling.sol\":224:225  0 */\n  0x00\n    /* \"solidity_series.sol/lecturelabs.sol/lab_errorhandling.sol\":216:223  balnace */\n  0x00\n    /* \"solidity_series.sol/lecturelabs.sol/lab_errorhandling.sol\":216:225  balnace=0 */\n  dup2\n  swap1\n  sstore\n  pop\n    /* \"solidity_series.sol/lecturelabs.sol/lab_errorhandling.sol\":140:684  contract Account{... */\n  dataSize(sub_0)\n  dup1\n  dataOffset(sub_0)\n  0x00\n  codecopy\n  0x00\n  return\nstop\n\nsub_0: assembly {\n        /* \"solidity_series.sol/lecturelabs.sol/lab_errorhandling.sol\":140:684  contract Account{... */\n      mstore(0x40, 0x80)\n      callvalue\n      dup1\n      iszero\n      tag_1\n      jumpi\n      revert(0x00, 0x00)\n    tag_1:\n      pop\n      jumpi(tag_2, lt(calldatasize, 0x04))\n      shr(0xe0, calldataload(0x00))\n      dup1\n      0x01ea58ec\n      eq\n      tag_3\n      jumpi\n      dup1\n      0x2e1a7d4d\n      eq\n      tag_4\n      jumpi\n      dup1\n      0xb6b55f25\n      eq\n      tag_5\n      jumpi\n    tag_2:\n      revert(0x00, 0x00)\n        /* \"solidity_series.sol/lecturelabs.sol/lab_errorhandling.sol\":163:185  uint256 public balnace */\n    tag_3:\n      tag_6\n      tag_7\n      jump\t// in\n    tag_6:\n      mload(0x40)\n      tag_8\n      swap2\n      swap1\n      tag_9\n      jump\t// in\n    tag_8:\n      mload(0x40)\n      dup1\n      swap2\n      sub\n      swap1\n      return\n        /* \"solidity_series.sol/lecturelabs.sol/lab_errorhandling.sol\":464:671  function withdraw(uint256 amount) public {... */\n    tag_4:\n      tag_10\n      0x04\n      dup1\n      calldatasize\n      sub\n      dup2\n      add\n      swap1\n      tag_11\n      swap2\n      swap1\n      tag_12\n      jump\t// in\n    tag_11:\n      tag_13\n      jump\t// in\n    tag_10:\n      stop\n        /* \"solidity_series.sol/lecturelabs.sol/lab_errorhandling.sol\":247:454  function deposit(uint256 amount) public {... */\n    tag_5:\n      tag_14\n      0x04\n      dup1\n      calldatasize\n      sub\n      dup2\n      add\n      swap1\n      tag_15\n      swap2\n      swap1\n      tag_12\n      jump\t// in\n    tag_15:\n      tag_16\n      jump\t// in\n    tag_14:\n      stop\n        /* \"solidity_series.sol/lecturelabs.sol/lab_errorhandling.sol\":163:185  uint256 public balnace */\n    tag_7:\n      sload(0x00)\n      dup2\n      jump\t// out\n        /* \"solidity_series.sol/lecturelabs.sol/lab_errorhandling.sol\":464:671  function withdraw(uint256 amount) public {... */\n    tag_13:\n        /* \"solidity_series.sol/lecturelabs.sol/lab_errorhandling.sol\":535:536  0 */\n      0x00\n        /* \"solidity_series.sol/lecturelabs.sol/lab_errorhandling.sol\":528:534  amount */\n      dup2\n        /* \"solidity_series.sol/lecturelabs.sol/lab_errorhandling.sol\":528:536  amount>0 */\n      gt\n        /* \"solidity_series.sol/lecturelabs.sol/lab_errorhandling.sol\":520:563  require(amount>0,\"amount must be positive\") */\n      tag_18\n      jumpi\n      mload(0x40)\n      0x08c379a000000000000000000000000000000000000000000000000000000000\n      dup2\n      mstore\n      0x04\n      add\n      tag_19\n      swap1\n      tag_20\n      jump\t// in\n    tag_19:\n      mload(0x40)\n      dup1\n      swap2\n      sub\n      swap1\n      revert\n    tag_18:\n        /* \"solidity_series.sol/lecturelabs.sol/lab_errorhandling.sol\":595:601  amount */\n      dup1\n        /* \"solidity_series.sol/lecturelabs.sol/lab_errorhandling.sol\":586:593  balnace */\n      sload(0x00)\n        /* \"solidity_series.sol/lecturelabs.sol/lab_errorhandling.sol\":586:601  balnace>=amount */\n      lt\n      iszero\n        /* \"solidity_series.sol/lecturelabs.sol/lab_errorhandling.sol\":578:622  require(balnace>=amount,\"you canot do that\") */\n      tag_21\n      jumpi\n      mload(0x40)\n      0x08c379a000000000000000000000000000000000000000000000000000000000\n      dup2\n      mstore\n      0x04\n      add\n      tag_22\n      swap1\n      tag_23\n      jump\t// in\n    tag_22:\n      mload(0x40)\n      dup1\n      swap2\n      sub\n      swap1\n      revert\n    tag_21:\n        /* \"solidity_series.sol/lecturelabs.sol/lab_errorhandling.sol\":652:659  balnace */\n      sload(0x00)\n        /* \"solidity_series.sol/lecturelabs.sol/lab_errorhandling.sol\":645:651  amount */\n      dup2\n        /* \"solidity_series.sol/lecturelabs.sol/lab_errorhandling.sol\":645:659  amount-balnace */\n      tag_24\n      swap2\n      swap1\n      tag_25\n      jump\t// in\n    tag_24:\n        /* \"solidity_series.sol/lecturelabs.sol/lab_errorhandling.sol\":637:644  balnace */\n      0x00\n        /* \"solidity_series.sol/lecturelabs.sol/lab_errorhandling.sol\":637:659  balnace=amount-balnace */\n      dup2\n      swap1\n      sstore\n      pop\n        /* \"solidity_series.sol/lecturelabs.sol/lab_errorhandling.sol\":464:671  function withdraw(uint256 amount) public {... */\n      pop\n      jump\t// out\n        /* \"solidity_series.sol/lecturelabs.sol/lab_errorhandling.sol\":247:454  function deposit(uint256 amount) public {... */\n    tag_16:\n        /* \"solidity_series.sol/lecturelabs.sol/lab_errorhandling.sol\":317:318  0 */\n      0x00\n        /* \"solidity_series.sol/lecturelabs.sol/lab_errorhandling.sol\":310:316  amount */\n      dup2\n        /* \"solidity_series.sol/lecturelabs.sol/lab_errorhandling.sol\":310:318  amount>0 */\n      gt\n        /* \"solidity_series.sol/lecturelabs.sol/lab_errorhandling.sol\":302:345  require(amount>0,\"amount must be positive\") */\n      tag_27\n      jumpi\n      mload(0x40)\n      0x08c379a000000000000000000000000000000000000000000000000000000000\n      dup2\n      mstore\n      0x04\n      add\n      tag_28\n      swap1\n      tag_20\n      jump\t// in\n    tag_28:\n      mload(0x40)\n      dup1\n      swap2\n      sub\n      swap1\n      revert\n    tag_27:\n        /* \"solidity_series.sol/lecturelabs.sol/lab_errorhandling.sol\":385:392  balnace */\n      sload(0x00)\n        /* \"solidity_series.sol/lecturelabs.sol/lab_errorhandling.sol\":377:383  amount */\n      dup2\n        /* \"solidity_series.sol/lecturelabs.sol/lab_errorhandling.sol\":369:376  balnace */\n      sload(0x00)\n        /* \"solidity_series.sol/lecturelabs.sol/lab_errorhandling.sol\":369:383  balnace+amount */\n      tag_29\n      swap2\n      swap1\n      tag_30\n      jump\t// in\n    tag_29:\n        /* \"solidity_series.sol/lecturelabs.sol/lab_errorhandling.sol\":369:392  balnace+amount>=balnace */\n      lt\n      iszero\n        /* \"solidity_series.sol/lecturelabs.sol/lab_errorhandling.sol\":361:404  require(balnace+amount>=balnace,\"overflow\") */\n      tag_31\n      jumpi\n      mload(0x40)\n      0x08c379a000000000000000000000000000000000000000000000000000000000\n      dup2\n      mstore\n      0x04\n      add\n      tag_32\n      swap1\n      tag_33\n      jump\t// in\n    tag_32:\n      mload(0x40)\n      dup1\n      swap2\n      sub\n      swap1\n      revert\n    tag_31:\n        /* \"solidity_series.sol/lecturelabs.sol/lab_errorhandling.sol\":435:442  balnace */\n      sload(0x00)\n        /* \"solidity_series.sol/lecturelabs.sol/lab_errorhandling.sol\":428:434  amount */\n      dup2\n        /* \"solidity_series.sol/lecturelabs.sol/lab_errorhandling.sol\":428:442  amount+balnace */\n      tag_34\n      swap2\n      swap1\n      tag_30\n      jump\t// in\n    tag_34:\n        /* \"solidity_series.sol/lecturelabs.sol/lab_errorhandling.sol\":420:427  balnace */\n      0x00\n        /* \"solidity_series.sol/lecturelabs.sol/lab_errorhandling.sol\":420:442  balnace=amount+balnace */\n      dup2\n      swap1\n      sstore\n      pop\n        /* \"solidity_series.sol/lecturelabs.sol/lab_errorhandling.sol\":247:454  function deposit(uint256 amount) public {... */\n      pop\n      jump\t// out\n        /* \"#utility.yul\":7:84   */\n    tag_35:\n        /* \"#utility.yul\":44:51   */\n      0x00\n        /* \"#utility.yul\":73:78   */\n      dup2\n        /* \"#utility.yul\":62:78   */\n      swap1\n      pop\n        /* \"#utility.yul\":7:84   */\n      swap2\n      swap1\n      pop\n      jump\t// out\n        /* \"#utility.yul\":90:208   */\n    tag_36:\n        /* \"#utility.yul\":177:201   */\n      tag_53\n        /* \"#utility.yul\":195:200   */\n      dup2\n        /* \"#utility.yul\":177:201   */\n      tag_35\n      jump\t// in\n    tag_53:\n        /* \"#utility.yul\":172:175   */\n      dup3\n        /* \"#utility.yul\":165:202   */\n      mstore\n        /* \"#utility.yul\":90:208   */\n      pop\n      pop\n      jump\t// out\n        /* \"#utility.yul\":214:436   */\n    tag_9:\n        /* \"#utility.yul\":307:311   */\n      0x00\n        /* \"#utility.yul\":345:347   */\n      0x20\n        /* \"#utility.yul\":334:343   */\n      dup3\n        /* \"#utility.yul\":330:348   */\n      add\n        /* \"#utility.yul\":322:348   */\n      swap1\n      pop\n        /* \"#utility.yul\":358:429   */\n      tag_55\n        /* \"#utility.yul\":426:427   */\n      0x00\n        /* \"#utility.yul\":415:424   */\n      dup4\n        /* \"#utility.yul\":411:428   */\n      add\n        /* \"#utility.yul\":402:408   */\n      dup5\n        /* \"#utility.yul\":358:429   */\n      tag_36\n      jump\t// in\n    tag_55:\n        /* \"#utility.yul\":214:436   */\n      swap3\n      swap2\n      pop\n      pop\n      jump\t// out\n        /* \"#utility.yul\":523:640   */\n    tag_38:\n        /* \"#utility.yul\":632:633   */\n      0x00\n        /* \"#utility.yul\":629:630   */\n      0x00\n        /* \"#utility.yul\":622:634   */\n      revert\n        /* \"#utility.yul\":769:891   */\n    tag_40:\n        /* \"#utility.yul\":842:866   */\n      tag_60\n        /* \"#utility.yul\":860:865   */\n      dup2\n        /* \"#utility.yul\":842:866   */\n      tag_35\n      jump\t// in\n    tag_60:\n        /* \"#utility.yul\":835:840   */\n      dup2\n        /* \"#utility.yul\":832:867   */\n      eq\n        /* \"#utility.yul\":822:885   */\n      tag_61\n      jumpi\n        /* \"#utility.yul\":881:882   */\n      0x00\n        /* \"#utility.yul\":878:879   */\n      0x00\n        /* \"#utility.yul\":871:883   */\n      revert\n        /* \"#utility.yul\":822:885   */\n    tag_61:\n        /* \"#utility.yul\":769:891   */\n      pop\n      jump\t// out\n        /* \"#utility.yul\":897:1036   */\n    tag_41:\n        /* \"#utility.yul\":943:948   */\n      0x00\n        /* \"#utility.yul\":981:987   */\n      dup2\n        /* \"#utility.yul\":968:988   */\n      calldataload\n        /* \"#utility.yul\":959:988   */\n      swap1\n      pop\n        /* \"#utility.yul\":997:1030   */\n      tag_63\n        /* \"#utility.yul\":1024:1029   */\n      dup2\n        /* \"#utility.yul\":997:1030   */\n      tag_40\n      jump\t// in\n    tag_63:\n        /* \"#utility.yul\":897:1036   */\n      swap3\n      swap2\n      pop\n      pop\n      jump\t// out\n        /* \"#utility.yul\":1042:1371   */\n    tag_12:\n        /* \"#utility.yul\":1101:1107   */\n      0x00\n        /* \"#utility.yul\":1150:1152   */\n      0x20\n        /* \"#utility.yul\":1138:1147   */\n      dup3\n        /* \"#utility.yul\":1129:1136   */\n      dup5\n        /* \"#utility.yul\":1125:1148   */\n      sub\n        /* \"#utility.yul\":1121:1153   */\n      slt\n        /* \"#utility.yul\":1118:1237   */\n      iszero\n      tag_65\n      jumpi\n        /* \"#utility.yul\":1156:1235   */\n      tag_66\n      tag_38\n      jump\t// in\n    tag_66:\n        /* \"#utility.yul\":1118:1237   */\n    tag_65:\n        /* \"#utility.yul\":1276:1277   */\n      0x00\n        /* \"#utility.yul\":1301:1354   */\n      tag_67\n        /* \"#utility.yul\":1346:1353   */\n      dup5\n        /* \"#utility.yul\":1337:1343   */\n      dup3\n        /* \"#utility.yul\":1326:1335   */\n      dup6\n        /* \"#utility.yul\":1322:1344   */\n      add\n        /* \"#utility.yul\":1301:1354   */\n      tag_41\n      jump\t// in\n    tag_67:\n        /* \"#utility.yul\":1291:1354   */\n      swap2\n      pop\n        /* \"#utility.yul\":1247:1364   */\n      pop\n        /* \"#utility.yul\":1042:1371   */\n      swap3\n      swap2\n      pop\n      pop\n      jump\t// out\n        /* \"#utility.yul\":1377:1546   */\n    tag_42:\n        /* \"#utility.yul\":1461:1472   */\n      0x00\n        /* \"#utility.yul\":1495:1501   */\n      dup3\n        /* \"#utility.yul\":1490:1493   */\n      dup3\n        /* \"#utility.yul\":1483:1502   */\n      mstore\n        /* \"#utility.yul\":1535:1539   */\n      0x20\n        /* \"#utility.yul\":1530:1533   */\n      dup3\n        /* \"#utility.yul\":1526:1540   */\n      add\n        /* \"#utility.yul\":1511:1540   */\n      swap1\n      pop\n        /* \"#utility.yul\":1377:1546   */\n      swap3\n      swap2\n      pop\n      pop\n      jump\t// out\n        /* \"#utility.yul\":1552:1725   */\n    tag_43:\n        /* \"#utility.yul\":1692:1717   */\n      0x616d6f756e74206d75737420626520706f736974697665000000000000000000\n        /* \"#utility.yul\":1688:1689   */\n      0x00\n        /* \"#utility.yul\":1680:1686   */\n      dup3\n        /* \"#utility.yul\":1676:1690   */\n      add\n        /* \"#utility.yul\":1669:1718   */\n      mstore\n        /* \"#utility.yul\":1552:1725   */\n      pop\n      jump\t// out\n        /* \"#utility.yul\":1731:2097   */\n    tag_44:\n        /* \"#utility.yul\":1873:1876   */\n      0x00\n        /* \"#utility.yul\":1894:1961   */\n      tag_71\n        /* \"#utility.yul\":1958:1960   */\n      0x17\n        /* \"#utility.yul\":1953:1956   */\n      dup4\n        /* \"#utility.yul\":1894:1961   */\n      tag_42\n      jump\t// in\n    tag_71:\n        /* \"#utility.yul\":1887:1961   */\n      swap2\n      pop\n        /* \"#utility.yul\":1970:2063   */\n      tag_72\n        /* \"#utility.yul\":2059:2062   */\n      dup3\n        /* \"#utility.yul\":1970:2063   */\n      tag_43\n      jump\t// in\n    tag_72:\n        /* \"#utility.yul\":2088:2090   */\n      0x20\n        /* \"#utility.yul\":2083:2086   */\n      dup3\n        /* \"#utility.yul\":2079:2091   */\n      add\n        /* \"#utility.yul\":2072:2091   */\n      swap1\n      pop\n        /* \"#utility.yul\":1731:2097   */\n      swap2\n      swap1\n      pop\n      jump\t// out\n        /* \"#utility.yul\":2103:2522   */\n    tag_20:\n        /* \"#utility.yul\":2269:2273   */\n      0x00\n        /* \"#utility.yul\":2307:2309   */\n      0x20\n        /* \"#utility.yul\":2296:2305   */\n      dup3\n        /* \"#utility.yul\":2292:2310   */\n      add\n        /* \"#utility.yul\":2284:2310   */\n      swap1\n      pop\n        /* \"#utility.yul\":2356:2365   */\n      dup2\n        /* \"#utility.yul\":2350:2354   */\n      dup2\n        /* \"#utility.yul\":2346:2366   */\n      sub\n        /* \"#utility.yul\":2342:2343   */\n      0x00\n        /* \"#utility.yul\":2331:2340   */\n      dup4\n        /* \"#utility.yul\":2327:2344   */\n      add\n        /* \"#utility.yul\":2320:2367   */\n      mstore\n        /* \"#utility.yul\":2384:2515   */\n      tag_74\n        /* \"#utility.yul\":2510:2514   */\n      dup2\n        /* \"#utility.yul\":2384:2515   */\n      tag_44\n      jump\t// in\n    tag_74:\n        /* \"#utility.yul\":2376:2515   */\n      swap1\n      pop\n        /* \"#utility.yul\":2103:2522   */\n      swap2\n      swap1\n      pop\n      jump\t// out\n        /* \"#utility.yul\":2528:2695   */\n    tag_45:\n        /* \"#utility.yul\":2668:2687   */\n      0x796f752063616e6f7420646f2074686174000000000000000000000000000000\n        /* \"#utility.yul\":2664:2665   */\n      0x00\n        /* \"#utility.yul\":2656:2662   */\n      dup3\n        /* \"#utility.yul\":2652:2666   */\n      add\n        /* \"#utility.yul\":2645:2688   */\n      mstore\n        /* \"#utility.yul\":2528:2695   */\n      pop\n      jump\t// out\n        /* \"#utility.yul\":2701:3067   */\n    tag_46:\n        /* \"#utility.yul\":2843:2846   */\n      0x00\n        /* \"#utility.yul\":2864:2931   */\n      tag_77\n        /* \"#utility.yul\":2928:2930   */\n      0x11\n        /* \"#utility.yul\":2923:2926   */\n      dup4\n        /* \"#utility.yul\":2864:2931   */\n      tag_42\n      jump\t// in\n    tag_77:\n        /* \"#utility.yul\":2857:2931   */\n      swap2\n      pop\n        /* \"#utility.yul\":2940:3033   */\n      tag_78\n        /* \"#utility.yul\":3029:3032   */\n      dup3\n        /* \"#utility.yul\":2940:3033   */\n      tag_45\n      jump\t// in\n    tag_78:\n        /* \"#utility.yul\":3058:3060   */\n      0x20\n        /* \"#utility.yul\":3053:3056   */\n      dup3\n        /* \"#utility.yul\":3049:3061   */\n      add\n        /* \"#utility.yul\":3042:3061   */\n      swap1\n      pop\n        /* \"#utility.yul\":2701:3067   */\n      swap2\n      swap1\n      pop\n      jump\t// out\n        /* \"#utility.yul\":3073:3492   */\n    tag_23:\n        /* \"#utility.yul\":3239:3243   */\n      0x00\n        /* \"#utility.yul\":3277:3279   */\n      0x20\n        /* \"#utility.yul\":3266:3275   */\n      dup3\n        /* \"#utility.yul\":3262:3280   */\n      add\n        /* \"#utility.yul\":3254:3280   */\n      swap1\n      pop\n        /* \"#utility.yul\":3326:3335   */\n      dup2\n        /* \"#utility.yul\":3320:3324   */\n      dup2\n        /* \"#utility.yul\":3316:3336   */\n      sub\n        /* \"#utility.yul\":3312:3313   */\n      0x00\n        /* \"#utility.yul\":3301:3310   */\n      dup4\n        /* \"#utility.yul\":3297:3314   */\n      add\n        /* \"#utility.yul\":3290:3337   */\n      mstore\n        /* \"#utility.yul\":3354:3485   */\n      tag_80\n        /* \"#utility.yul\":3480:3484   */\n      dup2\n        /* \"#utility.yul\":3354:3485   */\n      tag_46\n      jump\t// in\n    tag_80:\n        /* \"#utility.yul\":3346:3485   */\n      swap1\n      pop\n        /* \"#utility.yul\":3073:3492   */\n      swap2\n      swap1\n      pop\n      jump\t// out\n        /* \"#utility.yul\":3498:3678   */\n    tag_47:\n        /* \"#utility.yul\":3546:3623   */\n      0x4e487b7100000000000000000000000000000000000000000000000000000000\n        /* \"#utility.yul\":3543:3544   */\n      0x00\n        /* \"#utility.yul\":3536:3624   */\n      mstore\n        /* \"#utility.yul\":3643:3647   */\n      0x11\n        /* \"#utility.yul\":3640:3641   */\n      0x04\n        /* \"#utility.yul\":3633:3648   */\n      mstore\n        /* \"#utility.yul\":3667:3671   */\n      0x24\n        /* \"#utility.yul\":3664:3665   */\n      0x00\n        /* \"#utility.yul\":3657:3672   */\n      revert\n        /* \"#utility.yul\":3684:3878   */\n    tag_25:\n        /* \"#utility.yul\":3724:3728   */\n      0x00\n        /* \"#utility.yul\":3744:3764   */\n      tag_83\n        /* \"#utility.yul\":3762:3763   */\n      dup3\n        /* \"#utility.yul\":3744:3764   */\n      tag_35\n      jump\t// in\n    tag_83:\n        /* \"#utility.yul\":3739:3764   */\n      swap2\n      pop\n        /* \"#utility.yul\":3778:3798   */\n      tag_84\n        /* \"#utility.yul\":3796:3797   */\n      dup4\n        /* \"#utility.yul\":3778:3798   */\n      tag_35\n      jump\t// in\n    tag_84:\n        /* \"#utility.yul\":3773:3798   */\n      swap3\n      pop\n        /* \"#utility.yul\":3822:3823   */\n      dup3\n        /* \"#utility.yul\":3819:3820   */\n      dup3\n        /* \"#utility.yul\":3815:3824   */\n      sub\n        /* \"#utility.yul\":3807:3824   */\n      swap1\n      pop\n        /* \"#utility.yul\":3846:3847   */\n      dup2\n        /* \"#utility.yul\":3840:3844   */\n      dup2\n        /* \"#utility.yul\":3837:3848   */\n      gt\n        /* \"#utility.yul\":3834:3871   */\n      iszero\n      tag_85\n      jumpi\n        /* \"#utility.yul\":3851:3869   */\n      tag_86\n      tag_47\n      jump\t// in\n    tag_86:\n        /* \"#utility.yul\":3834:3871   */\n    tag_85:\n        /* \"#utility.yul\":3684:3878   */\n      swap3\n      swap2\n      pop\n      pop\n      jump\t// out\n        /* \"#utility.yul\":3884:4075   */\n    tag_30:\n        /* \"#utility.yul\":3924:3927   */\n      0x00\n        /* \"#utility.yul\":3943:3963   */\n      tag_88\n        /* \"#utility.yul\":3961:3962   */\n      dup3\n        /* \"#utility.yul\":3943:3963   */\n      tag_35\n      jump\t// in\n    tag_88:\n        /* \"#utility.yul\":3938:3963   */\n      swap2\n      pop\n        /* \"#utility.yul\":3977:3997   */\n      tag_89\n        /* \"#utility.yul\":3995:3996   */\n      dup4\n        /* \"#utility.yul\":3977:3997   */\n      tag_35\n      jump\t// in\n    tag_89:\n        /* \"#utility.yul\":3972:3997   */\n      swap3\n      pop\n        /* \"#utility.yul\":4020:4021   */\n      dup3\n        /* \"#utility.yul\":4017:4018   */\n      dup3\n        /* \"#utility.yul\":4013:4022   */\n      add\n        /* \"#utility.yul\":4006:4022   */\n      swap1\n      pop\n        /* \"#utility.yul\":4041:4044   */\n      dup1\n        /* \"#utility.yul\":4038:4039   */\n      dup3\n        /* \"#utility.yul\":4035:4045   */\n      gt\n        /* \"#utility.yul\":4032:4068   */\n      iszero\n      tag_90\n      jumpi\n        /* \"#utility.yul\":4048:4066   */\n      tag_91\n      tag_47\n      jump\t// in\n    tag_91:\n        /* \"#utility.yul\":4032:4068   */\n    tag_90:\n        /* \"#utility.yul\":3884:4075   */\n      swap3\n      swap2\n      pop\n      pop\n      jump\t// out\n        /* \"#utility.yul\":4081:4239   */\n    tag_48:\n        /* \"#utility.yul\":4221:4231   */\n      0x6f766572666c6f77000000000000000000000000000000000000000000000000\n        /* \"#utility.yul\":4217:4218   */\n      0x00\n        /* \"#utility.yul\":4209:4215   */\n      dup3\n        /* \"#utility.yul\":4205:4219   */\n      add\n        /* \"#utility.yul\":4198:4232   */\n      mstore\n        /* \"#utility.yul\":4081:4239   */\n      pop\n      jump\t// out\n        /* \"#utility.yul\":4245:4610   */\n    tag_49:\n        /* \"#utility.yul\":4387:4390   */\n      0x00\n        /* \"#utility.yul\":4408:4474   */\n      tag_94\n        /* \"#utility.yul\":4472:4473   */\n      0x08\n        /* \"#utility.yul\":4467:4470   */\n      dup4\n        /* \"#utility.yul\":4408:4474   */\n      tag_42\n      jump\t// in\n    tag_94:\n        /* \"#utility.yul\":4401:4474   */\n      swap2\n      pop\n        /* \"#utility.yul\":4483:4576   */\n      tag_95\n        /* \"#utility.yul\":4572:4575   */\n      dup3\n        /* \"#utility.yul\":4483:4576   */\n      tag_48\n      jump\t// in\n    tag_95:\n        /* \"#utility.yul\":4601:4603   */\n      0x20\n        /* \"#utility.yul\":4596:4599   */\n      dup3\n        /* \"#utility.yul\":4592:4604   */\n      add\n        /* \"#utility.yul\":4585:4604   */\n      swap1\n      pop\n        /* \"#utility.yul\":4245:4610   */\n      swap2\n      swap1\n      pop\n      jump\t// out\n        /* \"#utility.yul\":4616:5035   */\n    tag_33:\n        /* \"#utility.yul\":4782:4786   */\n      0x00\n        /* \"#utility.yul\":4820:4822   */\n      0x20\n        /* \"#utility.yul\":4809:4818   */\n      dup3\n        /* \"#utility.yul\":4805:4823   */\n      add\n        /* \"#utility.yul\":4797:4823   */\n      swap1\n      pop\n        /* \"#utility.yul\":4869:4878   */\n      dup2\n        /* \"#utility.yul\":4863:4867   */\n      dup2\n        /* \"#utility.yul\":4859:4879   */\n      sub\n        /* \"#utility.yul\":4855:4856   */\n      0x00\n        /* \"#utility.yul\":4844:4853   */\n      dup4\n        /* \"#utility.yul\":4840:4857   */\n      add\n        /* \"#utility.yul\":4833:4880   */\n      mstore\n        /* \"#utility.yul\":4897:5028   */\n      tag_97\n        /* \"#utility.yul\":5023:5027   */\n      dup2\n        /* \"#utility.yul\":4897:5028   */\n      tag_49\n      jump\t// in\n    tag_97:\n        /* \"#utility.yul\":4889:5028   */\n      swap1\n      pop\n        /* \"#utility.yul\":4616:5035   */\n      swap2\n      swap1\n      pop\n      jump\t// out\n\n    auxdata: 0xa2646970667358221220bc938da4be9f36440180a96e9f394c9d9d505ede01ef02a856421e592d95a1a664736f6c634300081b0033\n}\n",
				"bytecode": {
					"linkReferences": {},
					"object": "6080604052348015600e575f5ffd5b505f5f8190555061047b806100225f395ff3fe608060405234801561000f575f5ffd5b506004361061003f575f3560e01c806301ea58ec146100435780632e1a7d4d14610061578063b6b55f251461007d575b5f5ffd5b61004b610099565b60405161005891906101f8565b60405180910390f35b61007b6004803603810190610076919061023f565b61009e565b005b6100976004803603810190610092919061023f565b610139565b005b5f5481565b5f81116100e0576040517f08c379a00000000000000000000000000000000000000000000000000000000081526004016100d7906102c4565b60405180910390fd5b805f541015610124576040517f08c379a000000000000000000000000000000000000000000000000000000000815260040161011b9061032c565b60405180910390fd5b5f54816101319190610377565b5f8190555050565b5f811161017b576040517f08c379a0000000000000000000000000000000000000000000000000000000008152600401610172906102c4565b60405180910390fd5b5f54815f5461018a91906103aa565b10156101cb576040517f08c379a00000000000000000000000000000000000000000000000000000000081526004016101c290610427565b60405180910390fd5b5f54816101d891906103aa565b5f8190555050565b5f819050919050565b6101f2816101e0565b82525050565b5f60208201905061020b5f8301846101e9565b92915050565b5f5ffd5b61021e816101e0565b8114610228575f5ffd5b50565b5f8135905061023981610215565b92915050565b5f6020828403121561025457610253610211565b5b5f6102618482850161022b565b91505092915050565b5f82825260208201905092915050565b7f616d6f756e74206d75737420626520706f7369746976650000000000000000005f82015250565b5f6102ae60178361026a565b91506102b98261027a565b602082019050919050565b5f6020820190508181035f8301526102db816102a2565b9050919050565b7f796f752063616e6f7420646f20746861740000000000000000000000000000005f82015250565b5f61031660118361026a565b9150610321826102e2565b602082019050919050565b5f6020820190508181035f8301526103438161030a565b9050919050565b7f4e487b71000000000000000000000000000000000000000000000000000000005f52601160045260245ffd5b5f610381826101e0565b915061038c836101e0565b92508282039050818111156103a4576103a361034a565b5b92915050565b5f6103b4826101e0565b91506103bf836101e0565b92508282019050808211156103d7576103d661034a565b5b92915050565b7f6f766572666c6f770000000000000000000000000000000000000000000000005f82015250565b5f61041160088361026a565b915061041c826103dd565b602082019050919050565b5f6020820190508181035f83015261043e81610405565b905091905056fea2646970667358221220bc938da4be9f36440180a96e9f394c9d9d505ede01ef02a856421e592d95a1a664736f6c634300081b0033",
					"opcodes": "PUSH1 0x80 PUSH1 0x40 MSTORE CALLVALUE DUP1 ISZERO PUSH1 0xE JUMPI PUSH0 PUSH0 REVERT JUMPDEST POP PUSH0 PUSH0 DUP2 SWAP1 SSTORE POP PUSH2 0x47B DUP1 PUSH2 0x22 PUSH0 CODECOPY PUSH0 RETURN INVALID PUSH1 0x80 PUSH1 0x40 MSTORE CALLVALUE DUP1 ISZERO PUSH2 0xF JUMPI PUSH0 PUSH0 REVERT JUMPDEST POP PUSH1 0x4 CALLDATASIZE LT PUSH2 0x3F JUMPI PUSH0 CALLDATALOAD PUSH1 0xE0 SHR DUP1 PUSH4 0x1EA58EC EQ PUSH2 0x43 JUMPI DUP1 PUSH4 0x2E1A7D4D EQ PUSH2 0x61 JUMPI DUP1 PUSH4 0xB6B55F25 EQ PUSH2 0x7D JUMPI JUMPDEST PUSH0 PUSH0 REVERT JUMPDEST PUSH2 0x4B PUSH2 0x99 JUMP JUMPDEST PUSH1 0x40 MLOAD PUSH2 0x58 SWAP2 SWAP1 PUSH2 0x1F8 JUMP JUMPDEST PUSH1 0x40 MLOAD DUP1 SWAP2 SUB SWAP1 RETURN JUMPDEST PUSH2 0x7B PUSH1 0x4 DUP1 CALLDATASIZE SUB DUP2 ADD SWAP1 PUSH2 0x76 SWAP2 SWAP1 PUSH2 0x23F JUMP JUMPDEST PUSH2 0x9E JUMP JUMPDEST STOP JUMPDEST PUSH2 0x97 PUSH1 0x4 DUP1 CALLDATASIZE SUB DUP2 ADD SWAP1 PUSH2 0x92 SWAP2 SWAP1 PUSH2 0x23F JUMP JUMPDEST PUSH2 0x139 JUMP JUMPDEST STOP JUMPDEST PUSH0 SLOAD DUP2 JUMP JUMPDEST PUSH0 DUP2 GT PUSH2 0xE0 JUMPI PUSH1 0x40 MLOAD PUSH32 0x8C379A000000000000000000000000000000000000000000000000000000000 DUP2 MSTORE PUSH1 0x4 ADD PUSH2 0xD7 SWAP1 PUSH2 0x2C4 JUMP JUMPDEST PUSH1 0x40 MLOAD DUP1 SWAP2 SUB SWAP1 REVERT JUMPDEST DUP1 PUSH0 SLOAD LT ISZERO PUSH2 0x124 JUMPI PUSH1 0x40 MLOAD PUSH32 0x8C379A000000000000000000000000000000000000000000000000000000000 DUP2 MSTORE PUSH1 0x4 ADD PUSH2 0x11B SWAP1 PUSH2 0x32C JUMP JUMPDEST PUSH1 0x40 MLOAD DUP1 SWAP2 SUB SWAP1 REVERT JUMPDEST PUSH0 SLOAD DUP2 PUSH2 0x131 SWAP2 SWAP1 PUSH2 0x377 JUMP JUMPDEST PUSH0 DUP2 SWAP1 SSTORE POP POP JUMP JUMPDEST PUSH0 DUP2 GT PUSH2 0x17B JUMPI PUSH1 0x40 MLOAD PUSH32 0x8C379A000000000000000000000000000000000000000000000000000000000 DUP2 MSTORE PUSH1 0x4 ADD PUSH2 0x172 SWAP1 PUSH2 0x2C4 JUMP JUMPDEST PUSH1 0x40 MLOAD DUP1 SWAP2 SUB SWAP1 REVERT JUMPDEST PUSH0 SLOAD DUP2 PUSH0 SLOAD PUSH2 0x18A SWAP2 SWAP1 PUSH2 0x3AA JUMP JUMPDEST LT ISZERO PUSH2 0x1CB JUMPI PUSH1 0x40 MLOAD PUSH32 0x8C379A000000000000000000000000000000000000000000000000000000000 DUP2 MSTORE PUSH1 0x4 ADD PUSH2 0x1C2 SWAP1 PUSH2 0x427 JUMP JUMPDEST PUSH1 0x40 MLOAD DUP1 SWAP2 SUB SWAP1 REVERT JUMPDEST PUSH0 SLOAD DUP2 PUSH2 0x1D8 SWAP2 SWAP1 PUSH2 0x3AA JUMP JUMPDEST PUSH0 DUP2 SWAP1 SSTORE POP POP JUMP JUMPDEST PUSH0 DUP2 SWAP1 POP SWAP2 SWAP1 POP JUMP JUMPDEST PUSH2 0x1F2 DUP2 PUSH2 0x1E0 JUMP JUMPDEST DUP3 MSTORE POP POP JUMP JUMPDEST PUSH0 PUSH1 0x20 DUP3 ADD SWAP1 POP PUSH2 0x20B PUSH0 DUP4 ADD DUP5 PUSH2 0x1E9 JUMP JUMPDEST SWAP3 SWAP2 POP POP JUMP JUMPDEST PUSH0 PUSH0 REVERT JUMPDEST PUSH2 0x21E DUP2 PUSH2 0x1E0 JUMP JUMPDEST DUP2 EQ PUSH2 0x228 JUMPI PUSH0 PUSH0 REVERT JUMPDEST POP JUMP JUMPDEST PUSH0 DUP2 CALLDATALOAD SWAP1 POP PUSH2 0x239 DUP2 PUSH2 0x215 JUMP JUMPDEST SWAP3 SWAP2 POP POP JUMP JUMPDEST PUSH0 PUSH1 0x20 DUP3 DUP5 SUB SLT ISZERO PUSH2 0x254 JUMPI PUSH2 0x253 PUSH2 0x211 JUMP JUMPDEST JUMPDEST PUSH0 PUSH2 0x261 DUP5 DUP3 DUP6 ADD PUSH2 0x22B JUMP JUMPDEST SWAP2 POP POP SWAP3 SWAP2 POP POP JUMP JUMPDEST PUSH0 DUP3 DUP3 MSTORE PUSH1 0x20 DUP3 ADD SWAP1 POP SWAP3 SWAP2 POP POP JUMP JUMPDEST PUSH32 0x616D6F756E74206D75737420626520706F736974697665000000000000000000 PUSH0 DUP3 ADD MSTORE POP JUMP JUMPDEST PUSH0 PUSH2 0x2AE PUSH1 0x17 DUP4 PUSH2 0x26A JUMP JUMPDEST SWAP2 POP PUSH2 0x2B9 DUP3 PUSH2 0x27A JUMP JUMPDEST PUSH1 0x20 DUP3 ADD SWAP1 POP SWAP2 SWAP1 POP JUMP JUMPDEST PUSH0 PUSH1 0x20 DUP3 ADD SWAP1 POP DUP2 DUP2 SUB PUSH0 DUP4 ADD MSTORE PUSH2 0x2DB DUP2 PUSH2 0x2A2 JUMP JUMPDEST SWAP1 POP SWAP2 SWAP1 POP JUMP JUMPDEST PUSH32 0x796F752063616E6F7420646F2074686174000000000000000000000000000000 PUSH0 DUP3 ADD MSTORE POP JUMP JUMPDEST PUSH0 PUSH2 0x316 PUSH1 0x11 DUP4 PUSH2 0x26A JUMP JUMPDEST SWAP2 POP PUSH2 0x321 DUP3 PUSH2 0x2E2 JUMP JUMPDEST PUSH1 0x20 DUP3 ADD SWAP1 POP SWAP2 SWAP1 POP JUMP JUMPDEST PUSH0 PUSH1 0x20 DUP3 ADD SWAP1 POP DUP2 DUP2 SUB PUSH0 DUP4 ADD MSTORE PUSH2 0x343 DUP2 PUSH2 0x30A JUMP JUMPDEST SWAP1 POP SWAP2 SWAP1 POP JUMP JUMPDEST PUSH32 0x4E487B7100000000000000000000000000000000000000000000000000000000 PUSH0 MSTORE PUSH1 0x11 PUSH1 0x4 MSTORE PUSH1 0x24 PUSH0 REVERT JUMPDEST PUSH0 PUSH2 0x381 DUP3 PUSH2 0x1E0 JUMP JUMPDEST SWAP2 POP PUSH2 0x38C DUP4 PUSH2 0x1E0 JUMP JUMPDEST SWAP3 POP DUP3 DUP3 SUB SWAP1 POP DUP2 DUP2 GT ISZERO PUSH2 0x3A4 JUMPI PUSH2 0x3A3 PUSH2 0x34A JUMP JUMPDEST JUMPDEST SWAP3 SWAP2 POP POP JUMP JUMPDEST PUSH0 PUSH2 0x3B4 DUP3 PUSH2 0x1E0 JUMP JUMPDEST SWAP2 POP PUSH2 0x3BF DUP4 PUSH2 0x1E0 JUMP JUMPDEST SWAP3 POP DUP3 DUP3 ADD SWAP1 POP DUP1 DUP3 GT ISZERO PUSH2 0x3D7 JUMPI PUSH2 0x3D6 PUSH2 0x34A JUMP JUMPDEST JUMPDEST SWAP3 SWAP2 POP POP JUMP JUMPDEST PUSH32 0x6F766572666C6F77000000000000000000000000000000000000000000000000 PUSH0 DUP3 ADD MSTORE POP JUMP JUMPDEST PUSH0 PUSH2 0x411 PUSH1 0x8 DUP4 PUSH2 0x26A JUMP JUMPDEST SWAP2 POP PUSH2 0x41C DUP3 PUSH2 0x3DD JUMP JUMPDEST PUSH1 0x20 DUP3 ADD SWAP1 POP SWAP2 SWAP1 POP JUMP JUMPDEST PUSH0 PUSH1 0x20 DUP3 ADD SWAP1 POP DUP2 DUP2 SUB PUSH0 DUP4 ADD MSTORE PUSH2 0x43E DUP2 PUSH2 0x405 JUMP JUMPDEST SWAP1 POP SWAP2 SWAP1 POP JUMP INVALID LOG2 PUSH5 0x6970667358 0x22 SLT KECCAK256 0xBC SWAP4 DUP14 LOG4 0xBE SWAP16 CALLDATASIZE PREVRANDAO ADD DUP1 0xA9 PUSH15 0x9F394C9D9D505EDE01EF02A856421E MSIZE 0x2D SWAP6 LOG1 0xA6 PUSH5 0x736F6C6343 STOP ADDMOD SHL STOP CALLER "
				},
				"gasEstimates": {
					"creation": {
						"codeDepositCost": "229400",
						"executionCost": "5279",
						"totalCost": "234679"
					},
					"external": {
						"balnace()": "2402",
						"deposit(uint256)": "infinite",
						"withdraw(uint256)": "infinite"
					}
				},
				"methodIdentifiers": {
					"balnace()": "01ea58ec",
					"deposit(uint256)": "b6b55f25",
					"withdraw(uint256)": "2e1a7d4d"
				}
			},
			"storageLayout": {
				"storage": [
					{
						"astId": 3,
						"contract": "solidity_series.sol/lecturelabs.sol/lab_errorhandling.sol:Account",
						"label": "balnace",
						"offset": 0,
						"slot": "0",
						"type": "t_uint256"
					}
				],
				"types": {
					"t_uint256": {
						"encoding": "inplace",
						"label": "uint256",
						"numberOfBytes": "32"
					}
				}
			},
			"userdoc": {
				"kind": "user",
				"methods": {},
				"version": 1
			}
		}
	}
}